:10000000FFFFFFFFFFFFFFFFFFFFFFFFFFFFFFFF00
:10001000FFFFFFFFFFFFFFFFFFFFFFFFFFFFFFFFF0
:10002000FFFFFFFFFFFFFFFFFFFFFFFFFFFFFFFFE0
:10003000FFFFFFFFFFFFFFFFFFFFFFFFFFFFFFFFD0
:100D0000DDEF06F0FFFFFFFFE103E103E103E10395
:100D1000E103E103E103E103E103E103E103E103B3
:100D2000E103E103E103E103E1036E036E036E03FC
:100D3000E103E103E103E103E103E103E103E10393
:100D4000E103E103E103A003E103E103E103E103C4
:100D5000E103E103E103E103E103E103E1036E03E6
:100D6000E103E103E103E103E103E103E103E10363
:100D7000E103E103E1036E03E103E103E103E103C6
:100D80006E03E103E103E103E103E103E103E103B6
:100D90006E03E1036E03E103E103E103E103E10319
:100DA000E103E103E103E103E1036E036E03E10309
:100DB000E103E103E103E103FF007AEF07F0000E36
:100DC000BE6E000EBF6E000EC06E3F0EC66EF00E01
:100DD000C76EFD0EC86EFC0E0401106FF00E086F9A
:100DE000370E006F000E096F000E016F010E116FBC
:100DF000000E026F000E0A6F000E126F370E036FA7
:100E0000F00E0B6F13693F0E046FF00E0C6F146938
:100E10001200D68A000ED6BE010E026ED69E550E68
:100E20000401596FAA0E596F5991000E5F6F0D0E94
:100E30005E6F080E5D6F550E596FAA0E596F59817E
:100E400002B002D0D69E01D0D68E03016A8F120066
:100E500004500510D8B42FEF07F031EF07F03EEF44
:100E600007F002D83EEF07F00500FA6E0450FD6E61
:100E70000550FE6EF850FF6EFA5012001200FFFF90
:100E8000B69E064A072AF40E065C010E0758D8A043
:100E90004CEF07F04EEF07F054EF07F028EC07F0A7
:100EA000000E076E000E066E1100430E03011B6F4D
:100EB000C70E196F000E186FB69EAB8E860E026EAF
:100EC0000F0E036EBDEC07F0890E03011A6F1200BE
:100ED000C0B26DEF07F070EF07F0010E71EF07F091
:100EE000000EFF0A016E0146C0500118FD0B0118EB
:100EF000C06E1200076A066A0401080E5D6F0D0ECF
:100F00005E6F000E5F6F000EF86E000188EF07F055
:100F1000B2EC07F0D00E026E0E0E036EBDEC07F0C1
:100F2000D68ED68C92EF07F0DDEF06F0000E0001B2
:100F3000636F000E646F000E656F000E666F000E2B
:100F4000676F000E686F1200600E0001AD6F000E3B
:100F5000AF6F000EB36F080EB16F000EB06F000ED2
:100F6000AC6F120009EC07F096EC07F0DFEC06F02E
:100F7000A4EC07F055EC07F0120002C504F503C518
:100F800005F5120011001200FFFFFFFFFFFFFFFF3A
:100F9000FFFFFFFFFFFFFFFFFFFFFFFFFFFFFFFF61
:100FA000FFFFFFFFFFFFFFFFFFFFFFFFFFFFFFFF51
:100FB000FFFFFFFFFFFFFFFFFFFFFFFFFFFFFFFF41
:100FC000FFFFFFFFFFFFFFFFFFFFFFFFFFFFFFFF31
:10FFF000FFFFFFFFFFFFFFFFFFFFFFFFFFFF4A1EA7
:020000040020DA
:10000000FF0FFF0FFF0FFF0FFF0FFF0FFF0FFF0F80
:10001000FF0FFF0FFF0FFF0FFF0FFF0FFF0FFF0F70
:020000040030CA
:0A0000008CFFEFFF9FFFFFFFFFFFE3
:00000001FF
