

Microchip MPLAB XC8 Assembler V2.32 build 20210201212658 
                                                                                               Mon Aug 23 09:22:15 2021

Microchip MPLAB XC8 C Compiler v2.32 (Free license) build 20210201212658 Og1 
     1                           	processor	18F16Q41
     2                           	fnconf	rparam,??,?,0
     3                           	pagewidth 120
     4                           	opt	flic
     5                           	psect	nvCOMRAM,global,class=COMRAM,space=1,delta=1,lowdata,noexec
     6                           	psect	cinit,global,reloc=2,class=CODE,delta=1
     7                           	psect	bssCOMRAM,global,class=COMRAM,space=1,delta=1,lowdata,noexec
     8                           	psect	cstackCOMRAM,global,class=COMRAM,space=1,delta=1,lowdata,noexec
     9                           	psect	text0,global,reloc=2,class=CODE,delta=1
    10                           	psect	text1,global,reloc=2,class=CODE,delta=1
    11                           	psect	text2,global,reloc=2,class=CODE,delta=1
    12                           	psect	text3,global,reloc=2,class=CODE,delta=1
    13                           	psect	text4,global,reloc=2,class=CODE,delta=1
    14                           	psect	text5,global,reloc=2,class=CODE,delta=1
    15                           	psect	text6,global,reloc=2,class=CODE,delta=1
    16                           	psect	text7,global,reloc=2,class=CODE,delta=1
    17                           	psect	text8,global,reloc=4,class=CODE,delta=1
    18                           	psect	text9,global,reloc=4,class=CODE,delta=1
    19                           	psect	text10,global,reloc=2,class=CODE,delta=1
    20                           	psect	text11,global,reloc=2,class=CODE,delta=1
    21                           	psect	text12,global,reloc=2,class=CODE,delta=1
    22                           	psect	ivt0xD08,global,reloc=2,class=CODE,delta=1,noexec,keep,optim=
    23                           	psect	intsave_regs,global,class=BIGRAM,space=1,delta=1,noexec
    24                           	psect	text13,global,reloc=2,class=CODE,delta=1
    25                           	psect	rparam,global,class=COMRAM,space=1,delta=1,noexec
    26                           	psect	idloc,global,abs,ovrld,class=IDLOC,space=5,delta=1,noexec
    27                           	psect	config,global,abs,ovrld,class=CONFIG,space=4,delta=1,noexec
    28  0000                     
    29                           ; Version 2.35
    30                           ; Generated 04/06/2021 GMT
    31                           ; 
    32                           ; Copyright © 2021, Microchip Technology Inc. and its subsidiaries ("Microchip")
    33                           ; All rights reserved.
    34                           ; 
    35                           ; This software is developed by Microchip Technology Inc. and its subsidiaries ("Microch
      +                          ip").
    36                           ; 
    37                           ; Redistribution and use in source and binary forms, with or without modification, are
    38                           ; permitted provided that the following conditions are met:
    39                           ; 
    40                           ;     1. Redistributions of source code must retain the above copyright notice, this lis
      +                          t of
    41                           ;        conditions and the following disclaimer.
    42                           ; 
    43                           ;     2. Redistributions in binary form must reproduce the above copyright notice, this 
      +                          list
    44                           ;        of conditions and the following disclaimer in the documentation and/or other
    45                           ;        materials provided with the distribution. Publication is not required when
    46                           ;        this file is used in an embedded application.
    47                           ; 
    48                           ;     3. Microchip's name may not be used to endorse or promote products derived from th
      +                          is
    49                           ;        software without specific prior written permission.
    50                           ; 
    51                           ; THIS SOFTWARE IS PROVIDED BY MICROCHIP "AS IS" AND ANY EXPRESS OR IMPLIED WARRANTIES,
    52                           ; INCLUDING, BUT NOT LIMITED TO, THE IMPLIED WARRANTIES OF MERCHANTABILITY AND FITNESS F
      +                          OR
    53                           ; PURPOSE ARE DISCLAIMED.  IN NO EVENT SHALL MICROCHIP BE LIABLE FOR ANY DIRECT, INDIREC
      +                          T,
    54                           ; INCIDENTAL, SPECIAL, EXEMPLARY, OR CONSEQUENTIAL DAMAGES (INCLUDING BUT NOT LIMITED TO
    55                           ; PROCUREMENT OF SUBSTITUTE GOODS OR SERVICES; LOSS OF USE, DATA OR PROFITS; OR BUSINESS
    56                           ; INTERRUPTION) HOWSOEVER CAUSED AND ON ANY THEORY OF LIABILITY, WHETHER IN CONTRACT, ST
      +                          RICT
    57                           ; LIABILITY, OR TORT (INCLUDING NEGLIGENCE OR OTHERWISE) ARISING IN ANY WAY OUT OF THE U
      +                          SE OF
    58                           ; THIS SOFTWARE, EVEN IF ADVISED OF THE POSSIBILITY OF SUCH DAMAGE.
    59                           ; 
    60                           ; 
    61                           ; Code-generator required, PIC18F16Q41 Definitions
    62                           ; 
    63                           ; SFR Addresses
    64  0000                     
    65                           	psect	nvCOMRAM
    66  000504                     __pnvCOMRAM:
    67                           	callstack 0
    68  000504                     _TMR0_InterruptHandler:
    69                           	callstack 0
    70  000504                     	ds	2
    71  0000                     _PMD5	set	104
    72  0000                     _PMD4	set	103
    73  0000                     _PMD3	set	102
    74  0000                     _PMD2	set	101
    75  0000                     _PMD1	set	100
    76  0000                     _PMD0	set	99
    77  0000                     _ACTCON	set	172
    78  0000                     _OSCTUNE	set	176
    79  0000                     _OSCFRQ	set	177
    80  0000                     _OSCEN	set	179
    81  0000                     _OSCCON3	set	175
    82  0000                     _OSCCON1	set	173
    83  0000                     _T0CON0bits	set	794
    84  0000                     _T0CON0	set	794
    85  0000                     _TMR0L	set	792
    86  0000                     _TMR0H	set	793
    87  0000                     _T0CON1	set	795
    88  0000                     _IPR3bits	set	874
    89  0000                     _IVTBASEL	set	1117
    90  0000                     _IVTBASEH	set	1118
    91  0000                     _IVTBASEU	set	1119
    92  0000                     _IVTLOCKbits	set	1113
    93  0000                     _IVTLOCK	set	1113
    94  0000                     _INLVLC	set	1044
    95  0000                     _INLVLB	set	1036
    96  0000                     _INLVLA	set	1028
    97  0000                     _SLRCONC	set	1043
    98  0000                     _SLRCONB	set	1035
    99  0000                     _SLRCONA	set	1027
   100  0000                     _ODCONC	set	1042
   101  0000                     _ODCONB	set	1034
   102  0000                     _ODCONA	set	1026
   103  0000                     _WPUC	set	1041
   104  0000                     _WPUA	set	1025
   105  0000                     _WPUB	set	1033
   106  0000                     _ANSELA	set	1024
   107  0000                     _ANSELB	set	1032
   108  0000                     _ANSELC	set	1040
   109  0000                     _LATCbits	set	1216
   110  0000                     _PIE3bits	set	1195
   111  0000                     _PIR3bits	set	1206
   112  0000                     _INTCON0bits	set	1238
   113  0000                     _TRISC	set	1224
   114  0000                     _TRISB	set	1223
   115  0000                     _TRISA	set	1222
   116  0000                     _LATC	set	1216
   117  0000                     _LATB	set	1215
   118  0000                     _LATA	set	1214
   119  0000                     _GIE	set	9911
   120                           
   121                           ; #config settings
   122                           
   123                           	psect	cinit
   124  000EF4                     __pcinit:
   125                           	callstack 0
   126  000EF4                     start_initialization:
   127                           	callstack 0
   128  000EF4                     __initialization:
   129                           	callstack 0
   130                           
   131                           ; Clear objects allocated to COMRAM (2 bytes)
   132  000EF4  6A07               	clrf	(__pbssCOMRAM+1)& (0+255),c
   133  000EF6  6A06               	clrf	__pbssCOMRAM& (0+255),c
   134                           
   135                           ;
   136                           ; Setup IVTBASE
   137                           ;
   138  000EF8  0104               	movlb	4
   139  000EFA  0E08               	movlw	(ivt0xD08_base shr 0)& (0+255)
   140  000EFC  6F5D               	movwf	93,b
   141  000EFE  0E0D               	movlw	(ivt0xD08_base shr (0+8))& (0+255)
   142  000F00  6F5E               	movwf	94,b
   143  000F02  0E00               	movlw	(ivt0xD08_base shr (0+16))& (0+255)
   144  000F04  6F5F               	movwf	95,b
   145  000F06                     end_of_initialization:
   146                           	callstack 0
   147  000F06                     __end_of__initialization:
   148                           	callstack 0
   149  000F06  0E00               	movlw	low (__Lmediumconst shr (0+16))
   150  000F08  6EF8               	movwf	tblptru,c
   151  000F0A  0100               	movlb	0
   152  000F0C  EF88  F007         	goto	_main	;jump to C main() function
   153                           
   154                           	psect	bssCOMRAM
   155  000506                     __pbssCOMRAM:
   156                           	callstack 0
   157  000506                     TMR0_ISR@CountCallBack:
   158                           	callstack 0
   159  000506                     	ds	2
   160                           
   161                           	psect	cstackCOMRAM
   162  000501                     __pcstackCOMRAM:
   163                           	callstack 0
   164  000501                     ??_TMR0_UserInterruptHandler:
   165  000501                     
   166                           ; 1 bytes @ 0x0
   167  000501                     	ds	1
   168  000502                     INTERRUPT_Initialize@state:
   169                           	callstack 0
   170  000502                     TMR0_SetInterruptHandler@InterruptHandler:
   171                           	callstack 0
   172                           
   173                           ; 2 bytes @ 0x1
   174  000502                     	ds	2
   175  000504                     
   176                           ; 1 bytes @ 0x3
   177 ;;
   178 ;;Main: autosize = 0, tempsize = 0, incstack = 0, save=0
   179 ;;
   180 ;; *************** function _main *****************
   181 ;; Defined at:
   182 ;;		line 55 in file "main.c"
   183 ;; Parameters:    Size  Location     Type
   184 ;;		None
   185 ;; Auto vars:     Size  Location     Type
   186 ;;		None
   187 ;; Return value:  Size  Location     Type
   188 ;;                  1    wreg      void 
   189 ;; Registers used:
   190 ;;		wreg, status,2, status,0, cstack
   191 ;; Tracked objects:
   192 ;;		On entry : 0/0
   193 ;;		On exit  : 0/0
   194 ;;		Unchanged: 0/0
   195 ;; Data sizes:     COMRAM   BANK5   BANK6   BANK7   BANK8   BANK9  BANK10  BANK11  BANK12  BANK13  BANK14  BANK15  BANK1
      +6  BANK17  BANK18  BANK19  BANK20  BANK21
   196 ;;      Params:         0       0       0       0       0       0       0       0       0       0       0       0       
      +0       0       0       0       0       0
   197 ;;      Locals:         0       0       0       0       0       0       0       0       0       0       0       0       
      +0       0       0       0       0       0
   198 ;;      Temps:          0       0       0       0       0       0       0       0       0       0       0       0       
      +0       0       0       0       0       0
   199 ;;      Totals:         0       0       0       0       0       0       0       0       0       0       0       0       
      +0       0       0       0       0       0
   200 ;;Total ram usage:        0 bytes
   201 ;; Hardware stack levels required when called: 6
   202 ;; This function calls:
   203 ;;		_SYSTEM_Initialize
   204 ;;		_TMR0_SetInterruptHandler
   205 ;; This function is called by:
   206 ;;		Startup code after reset
   207 ;; This function uses a non-reentrant model
   208 ;;
   209                           
   210                           	psect	text0
   211  000F10                     __ptext0:
   212                           	callstack 0
   213  000F10                     _main:
   214                           	callstack 121
   215  000F10                     
   216                           ;main.c: 58:     SYSTEM_Initialize();
   217  000F10  ECB2  F007         	call	_SYSTEM_Initialize	;wreg free
   218                           
   219                           ;main.c: 61:     TMR0_SetInterruptHandler(TMR0_UserInterruptHandler);
   220  000F14  0ED0               	movlw	low _TMR0_UserInterruptHandler
   221  000F16  6E02               	movwf	TMR0_SetInterruptHandler@InterruptHandler^(0+1280),c
   222  000F18  0E0E               	movlw	high _TMR0_UserInterruptHandler
   223  000F1A  6E03               	movwf	(TMR0_SetInterruptHandler@InterruptHandler+1)^(0+1280),c
   224  000F1C  ECBD  F007         	call	_TMR0_SetInterruptHandler	;wreg free
   225  000F20                     
   226                           ;main.c: 68:     (INTCON0bits.GIEH = 1);
   227  000F20  8ED6               	bsf	214,7,c	;volatile
   228  000F22                     
   229                           ;main.c: 71:     (INTCON0bits.GIEL = 1);
   230  000F22  8CD6               	bsf	214,6,c	;volatile
   231  000F24                     l191:
   232  000F24  EF92  F007         	goto	l191
   233  000F28  EFDD  F006         	goto	start
   234  000F2C                     __end_of_main:
   235                           	callstack 0
   236                           
   237 ;; *************** function _SYSTEM_Initialize *****************
   238 ;; Defined at:
   239 ;;		line 50 in file "mcc_generated_files/mcc.c"
   240 ;; Parameters:    Size  Location     Type
   241 ;;		None
   242 ;; Auto vars:     Size  Location     Type
   243 ;;		None
   244 ;; Return value:  Size  Location     Type
   245 ;;                  1    wreg      void 
   246 ;; Registers used:
   247 ;;		wreg, status,2, status,0, cstack
   248 ;; Tracked objects:
   249 ;;		On entry : 0/0
   250 ;;		On exit  : 0/0
   251 ;;		Unchanged: 0/0
   252 ;; Data sizes:     COMRAM   BANK5   BANK6   BANK7   BANK8   BANK9  BANK10  BANK11  BANK12  BANK13  BANK14  BANK15  BANK1
      +6  BANK17  BANK18  BANK19  BANK20  BANK21
   253 ;;      Params:         0       0       0       0       0       0       0       0       0       0       0       0       
      +0       0       0       0       0       0
   254 ;;      Locals:         0       0       0       0       0       0       0       0       0       0       0       0       
      +0       0       0       0       0       0
   255 ;;      Temps:          0       0       0       0       0       0       0       0       0       0       0       0       
      +0       0       0       0       0       0
   256 ;;      Totals:         0       0       0       0       0       0       0       0       0       0       0       0       
      +0       0       0       0       0       0
   257 ;;Total ram usage:        0 bytes
   258 ;; Hardware stack levels used: 1
   259 ;; Hardware stack levels required when called: 5
   260 ;; This function calls:
   261 ;;		_INTERRUPT_Initialize
   262 ;;		_OSCILLATOR_Initialize
   263 ;;		_PIN_MANAGER_Initialize
   264 ;;		_PMD_Initialize
   265 ;;		_TMR0_Initialize
   266 ;; This function is called by:
   267 ;;		_main
   268 ;; This function uses a non-reentrant model
   269 ;;
   270                           
   271                           	psect	text1
   272  000F64                     __ptext1:
   273                           	callstack 0
   274  000F64                     _SYSTEM_Initialize:
   275                           	callstack 121
   276  000F64                     
   277                           ;mcc_generated_files/mcc.c: 52:     INTERRUPT_Initialize();
   278  000F64  EC09  F007         	call	_INTERRUPT_Initialize	;wreg free
   279                           
   280                           ;mcc_generated_files/mcc.c: 53:     PMD_Initialize();
   281  000F68  EC96  F007         	call	_PMD_Initialize	;wreg free
   282                           
   283                           ;mcc_generated_files/mcc.c: 54:     PIN_MANAGER_Initialize();
   284  000F6C  ECDF  F006         	call	_PIN_MANAGER_Initialize	;wreg free
   285                           
   286                           ;mcc_generated_files/mcc.c: 55:     OSCILLATOR_Initialize();
   287  000F70  ECA4  F007         	call	_OSCILLATOR_Initialize	;wreg free
   288  000F74                     
   289                           ;mcc_generated_files/mcc.c: 56:     TMR0_Initialize();
   290  000F74  EC55  F007         	call	_TMR0_Initialize	;wreg free
   291  000F78  0012               	return		;funcret
   292  000F7A                     __end_of_SYSTEM_Initialize:
   293                           	callstack 0
   294                           
   295 ;; *************** function _TMR0_Initialize *****************
   296 ;; Defined at:
   297 ;;		line 62 in file "mcc_generated_files/tmr0.c"
   298 ;; Parameters:    Size  Location     Type
   299 ;;		None
   300 ;; Auto vars:     Size  Location     Type
   301 ;;		None
   302 ;; Return value:  Size  Location     Type
   303 ;;                  1    wreg      void 
   304 ;; Registers used:
   305 ;;		wreg, status,2, status,0, cstack
   306 ;; Tracked objects:
   307 ;;		On entry : 0/0
   308 ;;		On exit  : 0/0
   309 ;;		Unchanged: 0/0
   310 ;; Data sizes:     COMRAM   BANK5   BANK6   BANK7   BANK8   BANK9  BANK10  BANK11  BANK12  BANK13  BANK14  BANK15  BANK1
      +6  BANK17  BANK18  BANK19  BANK20  BANK21
   311 ;;      Params:         0       0       0       0       0       0       0       0       0       0       0       0       
      +0       0       0       0       0       0
   312 ;;      Locals:         0       0       0       0       0       0       0       0       0       0       0       0       
      +0       0       0       0       0       0
   313 ;;      Temps:          0       0       0       0       0       0       0       0       0       0       0       0       
      +0       0       0       0       0       0
   314 ;;      Totals:         0       0       0       0       0       0       0       0       0       0       0       0       
      +0       0       0       0       0       0
   315 ;;Total ram usage:        0 bytes
   316 ;; Hardware stack levels used: 1
   317 ;; Hardware stack levels required when called: 4
   318 ;; This function calls:
   319 ;;		_TMR0_SetInterruptHandler
   320 ;; This function is called by:
   321 ;;		_SYSTEM_Initialize
   322 ;; This function uses a non-reentrant model
   323 ;;
   324                           
   325                           	psect	text2
   326  000EAA                     __ptext2:
   327                           	callstack 0
   328  000EAA                     _TMR0_Initialize:
   329                           	callstack 121
   330  000EAA                     
   331                           ;mcc_generated_files/tmr0.c: 67:     T0CON1 = 0x43;
   332  000EAA  0E43               	movlw	67
   333  000EAC  0103               	movlb	3	; () banked
   334  000EAE  6F1B               	movwf	27,b	;volatile
   335                           
   336                           ;mcc_generated_files/tmr0.c: 70:     TMR0H = 0xC7;
   337  000EB0  0EC7               	movlw	199
   338  000EB2  6F19               	movwf	25,b	;volatile
   339                           
   340                           ;mcc_generated_files/tmr0.c: 73:     TMR0L = 0x00;
   341  000EB4  0E00               	movlw	0
   342  000EB6  6F18               	movwf	24,b	;volatile
   343  000EB8                     
   344                           ; BSR set to: 3
   345                           ;mcc_generated_files/tmr0.c: 76:     PIR3bits.TMR0IF = 0;
   346  000EB8  9EB6               	bcf	182,7,c	;volatile
   347  000EBA                     
   348                           ; BSR set to: 3
   349                           ;mcc_generated_files/tmr0.c: 79:     PIE3bits.TMR0IE = 1;
   350  000EBA  8EAB               	bsf	171,7,c	;volatile
   351  000EBC                     
   352                           ; BSR set to: 3
   353                           ;mcc_generated_files/tmr0.c: 82:     TMR0_SetInterruptHandler(TMR0_DefaultInterruptHandl
      +                          er);
   354  000EBC  0E86               	movlw	low _TMR0_DefaultInterruptHandler
   355  000EBE  6E02               	movwf	TMR0_SetInterruptHandler@InterruptHandler^(0+1280),c
   356  000EC0  0E0F               	movlw	high _TMR0_DefaultInterruptHandler
   357  000EC2  6E03               	movwf	(TMR0_SetInterruptHandler@InterruptHandler+1)^(0+1280),c
   358  000EC4  ECBD  F007         	call	_TMR0_SetInterruptHandler	;wreg free
   359  000EC8                     
   360                           ;mcc_generated_files/tmr0.c: 85:     T0CON0 = 0x89;
   361  000EC8  0E89               	movlw	137
   362  000ECA  0103               	movlb	3	; () banked
   363  000ECC  6F1A               	movwf	26,b	;volatile
   364  000ECE                     
   365                           ; BSR set to: 3
   366  000ECE  0012               	return		;funcret
   367  000ED0                     __end_of_TMR0_Initialize:
   368                           	callstack 0
   369                           
   370 ;; *************** function _TMR0_SetInterruptHandler *****************
   371 ;; Defined at:
   372 ;;		line 151 in file "mcc_generated_files/tmr0.c"
   373 ;; Parameters:    Size  Location     Type
   374 ;;  InterruptHan    2    1[COMRAM] PTR FTN()void 
   375 ;;		 -> TMR0_UserInterruptHandler(1), TMR0_DefaultInterruptHandler(1), 
   376 ;; Auto vars:     Size  Location     Type
   377 ;;		None
   378 ;; Return value:  Size  Location     Type
   379 ;;                  1    wreg      void 
   380 ;; Registers used:
   381 ;;		wreg, status,2, status,0
   382 ;; Tracked objects:
   383 ;;		On entry : 0/0
   384 ;;		On exit  : 0/0
   385 ;;		Unchanged: 0/0
   386 ;; Data sizes:     COMRAM   BANK5   BANK6   BANK7   BANK8   BANK9  BANK10  BANK11  BANK12  BANK13  BANK14  BANK15  BANK1
      +6  BANK17  BANK18  BANK19  BANK20  BANK21
   387 ;;      Params:         2       0       0       0       0       0       0       0       0       0       0       0       
      +0       0       0       0       0       0
   388 ;;      Locals:         0       0       0       0       0       0       0       0       0       0       0       0       
      +0       0       0       0       0       0
   389 ;;      Temps:          0       0       0       0       0       0       0       0       0       0       0       0       
      +0       0       0       0       0       0
   390 ;;      Totals:         2       0       0       0       0       0       0       0       0       0       0       0       
      +0       0       0       0       0       0
   391 ;;Total ram usage:        2 bytes
   392 ;; Hardware stack levels used: 1
   393 ;; Hardware stack levels required when called: 3
   394 ;; This function calls:
   395 ;;		Nothing
   396 ;; This function is called by:
   397 ;;		_TMR0_Initialize
   398 ;;		_main
   399 ;; This function uses a non-reentrant model
   400 ;;
   401                           
   402                           	psect	text3
   403  000F7A                     __ptext3:
   404                           	callstack 0
   405  000F7A                     _TMR0_SetInterruptHandler:
   406                           	callstack 123
   407  000F7A                     
   408                           ;mcc_generated_files/tmr0.c: 152:     TMR0_InterruptHandler = InterruptHandler;
   409  000F7A  C502  F504         	movff	TMR0_SetInterruptHandler@InterruptHandler,_TMR0_InterruptHandler
   410  000F7E  C503  F505         	movff	TMR0_SetInterruptHandler@InterruptHandler+1,_TMR0_InterruptHandler+1
   411  000F82  0012               	return		;funcret
   412  000F84                     __end_of_TMR0_SetInterruptHandler:
   413                           	callstack 0
   414                           
   415 ;; *************** function _PMD_Initialize *****************
   416 ;; Defined at:
   417 ;;		line 75 in file "mcc_generated_files/mcc.c"
   418 ;; Parameters:    Size  Location     Type
   419 ;;		None
   420 ;; Auto vars:     Size  Location     Type
   421 ;;		None
   422 ;; Return value:  Size  Location     Type
   423 ;;                  1    wreg      void 
   424 ;; Registers used:
   425 ;;		wreg, status,2
   426 ;; Tracked objects:
   427 ;;		On entry : 0/0
   428 ;;		On exit  : 0/0
   429 ;;		Unchanged: 0/0
   430 ;; Data sizes:     COMRAM   BANK5   BANK6   BANK7   BANK8   BANK9  BANK10  BANK11  BANK12  BANK13  BANK14  BANK15  BANK1
      +6  BANK17  BANK18  BANK19  BANK20  BANK21
   431 ;;      Params:         0       0       0       0       0       0       0       0       0       0       0       0       
      +0       0       0       0       0       0
   432 ;;      Locals:         0       0       0       0       0       0       0       0       0       0       0       0       
      +0       0       0       0       0       0
   433 ;;      Temps:          0       0       0       0       0       0       0       0       0       0       0       0       
      +0       0       0       0       0       0
   434 ;;      Totals:         0       0       0       0       0       0       0       0       0       0       0       0       
      +0       0       0       0       0       0
   435 ;;Total ram usage:        0 bytes
   436 ;; Hardware stack levels used: 1
   437 ;; Hardware stack levels required when called: 3
   438 ;; This function calls:
   439 ;;		Nothing
   440 ;; This function is called by:
   441 ;;		_SYSTEM_Initialize
   442 ;; This function uses a non-reentrant model
   443 ;;
   444                           
   445                           	psect	text4
   446  000F2C                     __ptext4:
   447                           	callstack 0
   448  000F2C                     _PMD_Initialize:
   449                           	callstack 122
   450  000F2C                     
   451                           ;mcc_generated_files/mcc.c: 78:     PMD0 = 0x00;
   452  000F2C  0E00               	movlw	0
   453  000F2E  0100               	movlb	0	; () banked
   454  000F30  6F63               	movwf	99,b	;volatile
   455                           
   456                           ;mcc_generated_files/mcc.c: 80:     PMD1 = 0x00;
   457  000F32  0E00               	movlw	0
   458  000F34  6F64               	movwf	100,b	;volatile
   459                           
   460                           ;mcc_generated_files/mcc.c: 82:     PMD2 = 0x00;
   461  000F36  0E00               	movlw	0
   462  000F38  6F65               	movwf	101,b	;volatile
   463                           
   464                           ;mcc_generated_files/mcc.c: 84:     PMD3 = 0x00;
   465  000F3A  0E00               	movlw	0
   466  000F3C  6F66               	movwf	102,b	;volatile
   467                           
   468                           ;mcc_generated_files/mcc.c: 86:     PMD4 = 0x00;
   469  000F3E  0E00               	movlw	0
   470  000F40  6F67               	movwf	103,b	;volatile
   471                           
   472                           ;mcc_generated_files/mcc.c: 88:     PMD5 = 0x00;
   473  000F42  0E00               	movlw	0
   474  000F44  6F68               	movwf	104,b	;volatile
   475  000F46                     
   476                           ; BSR set to: 0
   477  000F46  0012               	return		;funcret
   478  000F48                     __end_of_PMD_Initialize:
   479                           	callstack 0
   480                           
   481 ;; *************** function _PIN_MANAGER_Initialize *****************
   482 ;; Defined at:
   483 ;;		line 55 in file "mcc_generated_files/pin_manager.c"
   484 ;; Parameters:    Size  Location     Type
   485 ;;		None
   486 ;; Auto vars:     Size  Location     Type
   487 ;;		None
   488 ;; Return value:  Size  Location     Type
   489 ;;                  1    wreg      void 
   490 ;; Registers used:
   491 ;;		wreg, status,2
   492 ;; Tracked objects:
   493 ;;		On entry : 0/0
   494 ;;		On exit  : 0/0
   495 ;;		Unchanged: 0/0
   496 ;; Data sizes:     COMRAM   BANK5   BANK6   BANK7   BANK8   BANK9  BANK10  BANK11  BANK12  BANK13  BANK14  BANK15  BANK1
      +6  BANK17  BANK18  BANK19  BANK20  BANK21
   497 ;;      Params:         0       0       0       0       0       0       0       0       0       0       0       0       
      +0       0       0       0       0       0
   498 ;;      Locals:         0       0       0       0       0       0       0       0       0       0       0       0       
      +0       0       0       0       0       0
   499 ;;      Temps:          0       0       0       0       0       0       0       0       0       0       0       0       
      +0       0       0       0       0       0
   500 ;;      Totals:         0       0       0       0       0       0       0       0       0       0       0       0       
      +0       0       0       0       0       0
   501 ;;Total ram usage:        0 bytes
   502 ;; Hardware stack levels used: 1
   503 ;; Hardware stack levels required when called: 3
   504 ;; This function calls:
   505 ;;		Nothing
   506 ;; This function is called by:
   507 ;;		_SYSTEM_Initialize
   508 ;; This function uses a non-reentrant model
   509 ;;
   510                           
   511                           	psect	text5
   512  000DBE                     __ptext5:
   513                           	callstack 0
   514  000DBE                     _PIN_MANAGER_Initialize:
   515                           	callstack 122
   516  000DBE                     
   517                           ;mcc_generated_files/pin_manager.c: 60:     LATA = 0x00;
   518  000DBE  0E00               	movlw	0
   519  000DC0  6EBE               	movwf	190,c	;volatile
   520                           
   521                           ;mcc_generated_files/pin_manager.c: 61:     LATB = 0x00;
   522  000DC2  0E00               	movlw	0
   523  000DC4  6EBF               	movwf	191,c	;volatile
   524                           
   525                           ;mcc_generated_files/pin_manager.c: 62:     LATC = 0x00;
   526  000DC6  0E00               	movlw	0
   527  000DC8  6EC0               	movwf	192,c	;volatile
   528                           
   529                           ;mcc_generated_files/pin_manager.c: 67:     TRISA = 0x3F;
   530  000DCA  0E3F               	movlw	63
   531  000DCC  6EC6               	movwf	198,c	;volatile
   532                           
   533                           ;mcc_generated_files/pin_manager.c: 68:     TRISB = 0xF0;
   534  000DCE  0EF0               	movlw	240
   535  000DD0  6EC7               	movwf	199,c	;volatile
   536                           
   537                           ;mcc_generated_files/pin_manager.c: 69:     TRISC = 0xFD;
   538  000DD2  0EFD               	movlw	253
   539  000DD4  6EC8               	movwf	200,c	;volatile
   540                           
   541                           ;mcc_generated_files/pin_manager.c: 74:     ANSELC = 0xFC;
   542  000DD6  0EFC               	movlw	252
   543  000DD8  0104               	movlb	4	; () banked
   544  000DDA  6F10               	movwf	16,b	;volatile
   545                           
   546                           ;mcc_generated_files/pin_manager.c: 75:     ANSELB = 0xF0;
   547  000DDC  0EF0               	movlw	240
   548  000DDE  6F08               	movwf	8,b	;volatile
   549                           
   550                           ;mcc_generated_files/pin_manager.c: 76:     ANSELA = 0x37;
   551  000DE0  0E37               	movlw	55
   552  000DE2  6F00               	movwf	0,b	;volatile
   553                           
   554                           ;mcc_generated_files/pin_manager.c: 81:     WPUB = 0x00;
   555  000DE4  0E00               	movlw	0
   556  000DE6  6F09               	movwf	9,b	;volatile
   557                           
   558                           ;mcc_generated_files/pin_manager.c: 82:     WPUA = 0x00;
   559  000DE8  0E00               	movlw	0
   560  000DEA  6F01               	movwf	1,b	;volatile
   561                           
   562                           ;mcc_generated_files/pin_manager.c: 83:     WPUC = 0x01;
   563  000DEC  0E01               	movlw	1
   564  000DEE  6F11               	movwf	17,b	;volatile
   565                           
   566                           ;mcc_generated_files/pin_manager.c: 88:     ODCONA = 0x00;
   567  000DF0  0E00               	movlw	0
   568  000DF2  6F02               	movwf	2,b	;volatile
   569                           
   570                           ;mcc_generated_files/pin_manager.c: 89:     ODCONB = 0x00;
   571  000DF4  0E00               	movlw	0
   572  000DF6  6F0A               	movwf	10,b	;volatile
   573                           
   574                           ;mcc_generated_files/pin_manager.c: 90:     ODCONC = 0x00;
   575  000DF8  0E00               	movlw	0
   576  000DFA  6F12               	movwf	18,b	;volatile
   577                           
   578                           ;mcc_generated_files/pin_manager.c: 95:     SLRCONA = 0x37;
   579  000DFC  0E37               	movlw	55
   580  000DFE  6F03               	movwf	3,b	;volatile
   581                           
   582                           ;mcc_generated_files/pin_manager.c: 96:     SLRCONB = 0xF0;
   583  000E00  0EF0               	movlw	240
   584  000E02  6F0B               	movwf	11,b	;volatile
   585  000E04                     
   586                           ; BSR set to: 4
   587                           ;mcc_generated_files/pin_manager.c: 97:     SLRCONC = 0xFF;
   588  000E04  6913               	setf	19,b	;volatile
   589                           
   590                           ;mcc_generated_files/pin_manager.c: 102:     INLVLA = 0x3F;
   591  000E06  0E3F               	movlw	63
   592  000E08  6F04               	movwf	4,b	;volatile
   593                           
   594                           ;mcc_generated_files/pin_manager.c: 103:     INLVLB = 0xF0;
   595  000E0A  0EF0               	movlw	240
   596  000E0C  6F0C               	movwf	12,b	;volatile
   597  000E0E                     
   598                           ; BSR set to: 4
   599                           ;mcc_generated_files/pin_manager.c: 104:     INLVLC = 0xFF;
   600  000E0E  6914               	setf	20,b	;volatile
   601  000E10                     
   602                           ; BSR set to: 4
   603  000E10  0012               	return		;funcret
   604  000E12                     __end_of_PIN_MANAGER_Initialize:
   605                           	callstack 0
   606                           
   607 ;; *************** function _OSCILLATOR_Initialize *****************
   608 ;; Defined at:
   609 ;;		line 59 in file "mcc_generated_files/mcc.c"
   610 ;; Parameters:    Size  Location     Type
   611 ;;		None
   612 ;; Auto vars:     Size  Location     Type
   613 ;;		None
   614 ;; Return value:  Size  Location     Type
   615 ;;                  1    wreg      void 
   616 ;; Registers used:
   617 ;;		wreg, status,2
   618 ;; Tracked objects:
   619 ;;		On entry : 0/0
   620 ;;		On exit  : 0/0
   621 ;;		Unchanged: 0/0
   622 ;; Data sizes:     COMRAM   BANK5   BANK6   BANK7   BANK8   BANK9  BANK10  BANK11  BANK12  BANK13  BANK14  BANK15  BANK1
      +6  BANK17  BANK18  BANK19  BANK20  BANK21
   623 ;;      Params:         0       0       0       0       0       0       0       0       0       0       0       0       
      +0       0       0       0       0       0
   624 ;;      Locals:         0       0       0       0       0       0       0       0       0       0       0       0       
      +0       0       0       0       0       0
   625 ;;      Temps:          0       0       0       0       0       0       0       0       0       0       0       0       
      +0       0       0       0       0       0
   626 ;;      Totals:         0       0       0       0       0       0       0       0       0       0       0       0       
      +0       0       0       0       0       0
   627 ;;Total ram usage:        0 bytes
   628 ;; Hardware stack levels used: 1
   629 ;; Hardware stack levels required when called: 3
   630 ;; This function calls:
   631 ;;		Nothing
   632 ;; This function is called by:
   633 ;;		_SYSTEM_Initialize
   634 ;; This function uses a non-reentrant model
   635 ;;
   636                           
   637                           	psect	text6
   638  000F48                     __ptext6:
   639                           	callstack 0
   640  000F48                     _OSCILLATOR_Initialize:
   641                           	callstack 122
   642  000F48                     
   643                           ;mcc_generated_files/mcc.c: 62:     OSCCON1 = 0x60;
   644  000F48  0E60               	movlw	96
   645  000F4A  0100               	movlb	0	; () banked
   646  000F4C  6FAD               	movwf	173,b	;volatile
   647                           
   648                           ;mcc_generated_files/mcc.c: 64:     OSCCON3 = 0x00;
   649  000F4E  0E00               	movlw	0
   650  000F50  6FAF               	movwf	175,b	;volatile
   651                           
   652                           ;mcc_generated_files/mcc.c: 66:     OSCEN = 0x00;
   653  000F52  0E00               	movlw	0
   654  000F54  6FB3               	movwf	179,b	;volatile
   655                           
   656                           ;mcc_generated_files/mcc.c: 68:     OSCFRQ = 0x08;
   657  000F56  0E08               	movlw	8
   658  000F58  6FB1               	movwf	177,b	;volatile
   659                           
   660                           ;mcc_generated_files/mcc.c: 70:     OSCTUNE = 0x00;
   661  000F5A  0E00               	movlw	0
   662  000F5C  6FB0               	movwf	176,b	;volatile
   663                           
   664                           ;mcc_generated_files/mcc.c: 72:     ACTCON = 0x00;
   665  000F5E  0E00               	movlw	0
   666  000F60  6FAC               	movwf	172,b	;volatile
   667  000F62                     
   668                           ; BSR set to: 0
   669  000F62  0012               	return		;funcret
   670  000F64                     __end_of_OSCILLATOR_Initialize:
   671                           	callstack 0
   672                           
   673 ;; *************** function _INTERRUPT_Initialize *****************
   674 ;; Defined at:
   675 ;;		line 52 in file "mcc_generated_files/interrupt_manager.c"
   676 ;; Parameters:    Size  Location     Type
   677 ;;		None
   678 ;; Auto vars:     Size  Location     Type
   679 ;;  state           1    1[COMRAM] _Bool 
   680 ;; Return value:  Size  Location     Type
   681 ;;                  1    wreg      void 
   682 ;; Registers used:
   683 ;;		wreg, status,2
   684 ;; Tracked objects:
   685 ;;		On entry : 0/0
   686 ;;		On exit  : 0/0
   687 ;;		Unchanged: 0/0
   688 ;; Data sizes:     COMRAM   BANK5   BANK6   BANK7   BANK8   BANK9  BANK10  BANK11  BANK12  BANK13  BANK14  BANK15  BANK1
      +6  BANK17  BANK18  BANK19  BANK20  BANK21
   689 ;;      Params:         0       0       0       0       0       0       0       0       0       0       0       0       
      +0       0       0       0       0       0
   690 ;;      Locals:         1       0       0       0       0       0       0       0       0       0       0       0       
      +0       0       0       0       0       0
   691 ;;      Temps:          0       0       0       0       0       0       0       0       0       0       0       0       
      +0       0       0       0       0       0
   692 ;;      Totals:         1       0       0       0       0       0       0       0       0       0       0       0       
      +0       0       0       0       0       0
   693 ;;Total ram usage:        1 bytes
   694 ;; Hardware stack levels used: 1
   695 ;; Hardware stack levels required when called: 3
   696 ;; This function calls:
   697 ;;		Nothing
   698 ;; This function is called by:
   699 ;;		_SYSTEM_Initialize
   700 ;; This function uses a non-reentrant model
   701 ;;
   702                           
   703                           	psect	text7
   704  000E12                     __ptext7:
   705                           	callstack 0
   706  000E12                     _INTERRUPT_Initialize:
   707                           	callstack 122
   708  000E12                     
   709                           ;mcc_generated_files/interrupt_manager.c: 54:     INTCON0bits.IPEN = 1;
   710  000E12  8AD6               	bsf	214,5,c	;volatile
   711  000E14                     
   712                           ;mcc_generated_files/interrupt_manager.c: 56:     _Bool state = (unsigned char)GIE;
   713  000E14  0E00               	movlw	0
   714  000E16  BED6               	btfsc	1238,7,c	;volatile
   715  000E18  0E01               	movlw	1
   716  000E1A  6E02               	movwf	INTERRUPT_Initialize@state^(0+1280),c
   717  000E1C                     
   718                           ;mcc_generated_files/interrupt_manager.c: 57:     GIE = 0;
   719  000E1C  9ED6               	bcf	1238,7,c	;volatile
   720                           
   721                           ;mcc_generated_files/interrupt_manager.c: 58:     IVTLOCK = 0x55;
   722  000E1E  0E55               	movlw	85
   723  000E20  0104               	movlb	4	; () banked
   724  000E22  6F59               	movwf	89,b	;volatile
   725                           
   726                           ;mcc_generated_files/interrupt_manager.c: 59:     IVTLOCK = 0xAA;
   727  000E24  0EAA               	movlw	170
   728  000E26  6F59               	movwf	89,b	;volatile
   729  000E28                     
   730                           ; BSR set to: 4
   731                           ;mcc_generated_files/interrupt_manager.c: 60:     IVTLOCKbits.IVTLOCKED = 0x00;
   732  000E28  9159               	bcf	89,0,b	;volatile
   733                           
   734                           ;mcc_generated_files/interrupt_manager.c: 62:     IVTBASEU = 0;
   735  000E2A  0E00               	movlw	0
   736  000E2C  6F5F               	movwf	95,b	;volatile
   737                           
   738                           ;mcc_generated_files/interrupt_manager.c: 63:     IVTBASEH = 13;
   739  000E2E  0E0D               	movlw	13
   740  000E30  6F5E               	movwf	94,b	;volatile
   741                           
   742                           ;mcc_generated_files/interrupt_manager.c: 64:     IVTBASEL = 8;
   743  000E32  0E08               	movlw	8
   744  000E34  6F5D               	movwf	93,b	;volatile
   745                           
   746                           ;mcc_generated_files/interrupt_manager.c: 66:     IVTLOCK = 0x55;
   747  000E36  0E55               	movlw	85
   748  000E38  6F59               	movwf	89,b	;volatile
   749                           
   750                           ;mcc_generated_files/interrupt_manager.c: 67:     IVTLOCK = 0xAA;
   751  000E3A  0EAA               	movlw	170
   752  000E3C  6F59               	movwf	89,b	;volatile
   753  000E3E                     
   754                           ; BSR set to: 4
   755                           ;mcc_generated_files/interrupt_manager.c: 68:     IVTLOCKbits.IVTLOCKED = 0x01;
   756  000E3E  8159               	bsf	89,0,b	;volatile
   757  000E40                     
   758                           ; BSR set to: 4
   759                           ;mcc_generated_files/interrupt_manager.c: 70:     GIE = state;
   760  000E40  B002               	btfsc	INTERRUPT_Initialize@state^(0+1280),0,c
   761  000E42  D002               	bra	u15
   762  000E44  9ED6               	bcf	1238,7,c	;volatile
   763  000E46  D001               	bra	u16
   764  000E48                     u15:
   765  000E48  8ED6               	bsf	1238,7,c	;volatile
   766  000E4A                     u16:
   767  000E4A                     
   768                           ;mcc_generated_files/interrupt_manager.c: 72:     IPR3bits.TMR0IP = 1;
   769  000E4A  0103               	movlb	3	; () banked
   770  000E4C  8F6A               	bsf	106,7,b	;volatile
   771  000E4E                     
   772                           ; BSR set to: 3
   773  000E4E  0012               	return		;funcret
   774  000E50                     __end_of_INTERRUPT_Initialize:
   775                           	callstack 0
   776                           
   777 ;; *************** function _Default_ISR *****************
   778 ;; Defined at:
   779 ;;		line 75 in file "mcc_generated_files/interrupt_manager.c"
   780 ;; Parameters:    Size  Location     Type
   781 ;;		None
   782 ;; Auto vars:     Size  Location     Type
   783 ;;		None
   784 ;; Return value:  Size  Location     Type
   785 ;;                  1    wreg      void 
   786 ;; Registers used:
   787 ;;		None
   788 ;; Tracked objects:
   789 ;;		On entry : 0/0
   790 ;;		On exit  : 0/0
   791 ;;		Unchanged: 0/0
   792 ;; Data sizes:     COMRAM   BANK5   BANK6   BANK7   BANK8   BANK9  BANK10  BANK11  BANK12  BANK13  BANK14  BANK15  BANK1
      +6  BANK17  BANK18  BANK19  BANK20  BANK21
   793 ;;      Params:         0       0       0       0       0       0       0       0       0       0       0       0       
      +0       0       0       0       0       0
   794 ;;      Locals:         0       0       0       0       0       0       0       0       0       0       0       0       
      +0       0       0       0       0       0
   795 ;;      Temps:          0       0       0       0       0       0       0       0       0       0       0       0       
      +0       0       0       0       0       0
   796 ;;      Totals:         0       0       0       0       0       0       0       0       0       0       0       0       
      +0       0       0       0       0       0
   797 ;;Total ram usage:        0 bytes
   798 ;; Hardware stack levels used: 1
   799 ;; This function calls:
   800 ;;		Nothing
   801 ;; This function is called by:
   802 ;;		Interrupt level 2
   803 ;; This function uses a non-reentrant model
   804 ;;
   805                           
   806                           	psect	text8
   807  000F84                     __ptext8:
   808                           	callstack 0
   809  000F84                     _Default_ISR:
   810                           	callstack 123
   811  000F84  0011               	retfie		f
   812  000F86                     __end_of_Default_ISR:
   813                           	callstack 0
   814                           
   815 ;; *************** function _TMR0_ISR *****************
   816 ;; Defined at:
   817 ;;		line 122 in file "mcc_generated_files/tmr0.c"
   818 ;; Parameters:    Size  Location     Type
   819 ;;		None
   820 ;; Auto vars:     Size  Location     Type
   821 ;;		None
   822 ;; Return value:  Size  Location     Type
   823 ;;                  1    wreg      void 
   824 ;; Registers used:
   825 ;;		wreg, status,2, status,0, pclath, tosl, cstack
   826 ;; Tracked objects:
   827 ;;		On entry : 0/0
   828 ;;		On exit  : 0/0
   829 ;;		Unchanged: 0/0
   830 ;; Data sizes:     COMRAM   BANK5   BANK6   BANK7   BANK8   BANK9  BANK10  BANK11  BANK12  BANK13  BANK14  BANK15  BANK1
      +6  BANK17  BANK18  BANK19  BANK20  BANK21
   831 ;;      Params:         0       0       0       0       0       0       0       0       0       0       0       0       
      +0       0       0       0       0       0
   832 ;;      Locals:         0       0       0       0       0       0       0       0       0       0       0       0       
      +0       0       0       0       0       0
   833 ;;      Temps:          0       0       0       0       0       0       0       0       0       0       0       0       
      +0       0       0       0       0       0
   834 ;;      Totals:         0       0       0       0       0       0       0       0       0       0       0       0       
      +0       0       0       0       0       0
   835 ;;Total ram usage:        0 bytes
   836 ;; Hardware stack levels used: 1
   837 ;; Hardware stack levels required when called: 2
   838 ;; This function calls:
   839 ;;		_TMR0_CallBack
   840 ;; This function is called by:
   841 ;;		Interrupt level 2
   842 ;; This function uses a non-reentrant model
   843 ;;
   844                           
   845                           	psect	text9
   846  000E80                     __ptext9:
   847                           	callstack 0
   848  000E80                     _TMR0_ISR:
   849                           	callstack 121
   850  000E80                     
   851                           ;mcc_generated_files/tmr0.c: 124:     static volatile uint16_t CountCallBack = 0;;mcc_ge
      +                          nerated_files/tmr0.c: 127:     PIR3bits.TMR0IF = 0;
   852  000E80  9EB6               	bcf	182,7,c	;volatile
   853  000E82                     
   854                           ;mcc_generated_files/tmr0.c: 129:     if (++CountCallBack >= 500)
   855  000E82  4A06               	infsnz	TMR0_ISR@CountCallBack^(0+1280),f,c	;volatile
   856  000E84  2A07               	incf	(TMR0_ISR@CountCallBack+1)^(0+1280),f,c	;volatile
   857  000E86  0EF4               	movlw	244
   858  000E88  5C06               	subwf	TMR0_ISR@CountCallBack^(0+1280),w,c	;volatile
   859  000E8A  0E01               	movlw	1
   860  000E8C  5807               	subwfb	(TMR0_ISR@CountCallBack+1)^(0+1280),w,c	;volatile
   861  000E8E  A0D8               	btfss	status,0,c
   862  000E90  EF4C  F007         	goto	i2u5_41
   863  000E94  EF4E  F007         	goto	i2u5_40
   864  000E98                     i2u5_41:
   865  000E98  EF54  F007         	goto	i2l163
   866  000E9C                     i2u5_40:
   867  000E9C                     
   868                           ;mcc_generated_files/tmr0.c: 130:     {;mcc_generated_files/tmr0.c: 132:         TMR0_Ca
      +                          llBack();
   869  000E9C  EC28  F007         	call	_TMR0_CallBack	;wreg free
   870  000EA0                     
   871                           ;mcc_generated_files/tmr0.c: 135:         CountCallBack = 0;
   872  000EA0  0E00               	movlw	0
   873  000EA2  6E07               	movwf	(TMR0_ISR@CountCallBack+1)^(0+1280),c	;volatile
   874  000EA4  0E00               	movlw	0
   875  000EA6  6E06               	movwf	TMR0_ISR@CountCallBack^(0+1280),c	;volatile
   876  000EA8                     i2l163:
   877  000EA8  0011               	retfie		f
   878  000EAA                     __end_of_TMR0_ISR:
   879                           	callstack 0
   880                           
   881 ;; *************** function _TMR0_CallBack *****************
   882 ;; Defined at:
   883 ;;		line 141 in file "mcc_generated_files/tmr0.c"
   884 ;; Parameters:    Size  Location     Type
   885 ;;		None
   886 ;; Auto vars:     Size  Location     Type
   887 ;;		None
   888 ;; Return value:  Size  Location     Type
   889 ;;                  1    wreg      void 
   890 ;; Registers used:
   891 ;;		wreg, status,2, status,0, pclath, tosl, cstack
   892 ;; Tracked objects:
   893 ;;		On entry : 0/0
   894 ;;		On exit  : 0/0
   895 ;;		Unchanged: 0/0
   896 ;; Data sizes:     COMRAM   BANK5   BANK6   BANK7   BANK8   BANK9  BANK10  BANK11  BANK12  BANK13  BANK14  BANK15  BANK1
      +6  BANK17  BANK18  BANK19  BANK20  BANK21
   897 ;;      Params:         0       0       0       0       0       0       0       0       0       0       0       0       
      +0       0       0       0       0       0
   898 ;;      Locals:         0       0       0       0       0       0       0       0       0       0       0       0       
      +0       0       0       0       0       0
   899 ;;      Temps:          0       0       0       0       0       0       0       0       0       0       0       0       
      +0       0       0       0       0       0
   900 ;;      Totals:         0       0       0       0       0       0       0       0       0       0       0       0       
      +0       0       0       0       0       0
   901 ;;Total ram usage:        0 bytes
   902 ;; Hardware stack levels used: 1
   903 ;; Hardware stack levels required when called: 1
   904 ;; This function calls:
   905 ;;		Absolute function
   906 ;;		_TMR0_DefaultInterruptHandler
   907 ;;		_TMR0_UserInterruptHandler
   908 ;; This function is called by:
   909 ;;		_TMR0_ISR
   910 ;; This function uses a non-reentrant model
   911 ;;
   912                           
   913                           	psect	text10
   914  000E50                     __ptext10:
   915                           	callstack 0
   916  000E50                     _TMR0_CallBack:
   917                           	callstack 121
   918  000E50                     
   919                           ;mcc_generated_files/tmr0.c: 145:     if(TMR0_InterruptHandler)
   920  000E50  5004               	movf	_TMR0_InterruptHandler^(0+1280),w,c
   921  000E52  1005               	iorwf	(_TMR0_InterruptHandler+1)^(0+1280),w,c
   922  000E54  B4D8               	btfsc	status,2,c
   923  000E56  EF2F  F007         	goto	i2u3_41
   924  000E5A  EF31  F007         	goto	i2u3_40
   925  000E5E                     i2u3_41:
   926  000E5E  EF3E  F007         	goto	i2l167
   927  000E62                     i2u3_40:
   928  000E62                     
   929                           ;mcc_generated_files/tmr0.c: 146:     {;mcc_generated_files/tmr0.c: 147:         TMR0_In
      +                          terruptHandler();
   930  000E62  D802               	call	i2u4_48
   931  000E64  EF3E  F007         	goto	i2u4_49
   932  000E68                     i2u4_48:
   933  000E68  0005               	push	
   934  000E6A  6EFA               	movwf	pclath,c
   935  000E6C  5004               	movf	_TMR0_InterruptHandler^(0+1280),w,c
   936  000E6E  6EFD               	movwf	tosl,c
   937  000E70  5005               	movf	(_TMR0_InterruptHandler+1)^(0+1280),w,c
   938  000E72  6EFE               	movwf	tosh,c
   939  000E74  50F8               	movf	tblptru,w,c
   940  000E76  6EFF               	movwf	tosu,c
   941  000E78  50FA               	movf	pclath,w,c
   942  000E7A  0012               	return		;indir
   943  000E7C                     i2u4_49:
   944  000E7C                     i2l167:
   945  000E7C  0012               	return		;funcret
   946  000E7E                     __end_of_TMR0_CallBack:
   947                           	callstack 0
   948                           
   949 ;; *************** function _TMR0_DefaultInterruptHandler *****************
   950 ;; Defined at:
   951 ;;		line 155 in file "mcc_generated_files/tmr0.c"
   952 ;; Parameters:    Size  Location     Type
   953 ;;		None
   954 ;; Auto vars:     Size  Location     Type
   955 ;;		None
   956 ;; Return value:  Size  Location     Type
   957 ;;                  1    wreg      void 
   958 ;; Registers used:
   959 ;;		None
   960 ;; Tracked objects:
   961 ;;		On entry : 0/0
   962 ;;		On exit  : 0/0
   963 ;;		Unchanged: 0/0
   964 ;; Data sizes:     COMRAM   BANK5   BANK6   BANK7   BANK8   BANK9  BANK10  BANK11  BANK12  BANK13  BANK14  BANK15  BANK1
      +6  BANK17  BANK18  BANK19  BANK20  BANK21
   965 ;;      Params:         0       0       0       0       0       0       0       0       0       0       0       0       
      +0       0       0       0       0       0
   966 ;;      Locals:         0       0       0       0       0       0       0       0       0       0       0       0       
      +0       0       0       0       0       0
   967 ;;      Temps:          0       0       0       0       0       0       0       0       0       0       0       0       
      +0       0       0       0       0       0
   968 ;;      Totals:         0       0       0       0       0       0       0       0       0       0       0       0       
      +0       0       0       0       0       0
   969 ;;Total ram usage:        0 bytes
   970 ;; Hardware stack levels used: 1
   971 ;; This function calls:
   972 ;;		Nothing
   973 ;; This function is called by:
   974 ;;		_TMR0_Initialize
   975 ;;		_TMR0_CallBack
   976 ;; This function uses a non-reentrant model
   977 ;;
   978                           
   979                           	psect	text11
   980  000F86                     __ptext11:
   981                           	callstack 0
   982  000F86                     _TMR0_DefaultInterruptHandler:
   983                           	callstack 121
   984  000F86  0012               	return		;funcret
   985  000F88                     __end_of_TMR0_DefaultInterruptHandler:
   986                           	callstack 0
   987                           
   988 ;; *************** function _TMR0_UserInterruptHandler *****************
   989 ;; Defined at:
   990 ;;		line 46 in file "main.c"
   991 ;; Parameters:    Size  Location     Type
   992 ;;		None
   993 ;; Auto vars:     Size  Location     Type
   994 ;;		None
   995 ;; Return value:  Size  Location     Type
   996 ;;                  1    wreg      void 
   997 ;; Registers used:
   998 ;;		wreg, status,2, status,0
   999 ;; Tracked objects:
  1000 ;;		On entry : 0/0
  1001 ;;		On exit  : 0/0
  1002 ;;		Unchanged: 0/0
  1003 ;; Data sizes:     COMRAM   BANK5   BANK6   BANK7   BANK8   BANK9  BANK10  BANK11  BANK12  BANK13  BANK14  BANK15  BANK1
      +6  BANK17  BANK18  BANK19  BANK20  BANK21
  1004 ;;      Params:         0       0       0       0       0       0       0       0       0       0       0       0       
      +0       0       0       0       0       0
  1005 ;;      Locals:         0       0       0       0       0       0       0       0       0       0       0       0       
      +0       0       0       0       0       0
  1006 ;;      Temps:          1       0       0       0       0       0       0       0       0       0       0       0       
      +0       0       0       0       0       0
  1007 ;;      Totals:         1       0       0       0       0       0       0       0       0       0       0       0       
      +0       0       0       0       0       0
  1008 ;;Total ram usage:        1 bytes
  1009 ;; Hardware stack levels used: 1
  1010 ;; This function calls:
  1011 ;;		Nothing
  1012 ;; This function is called by:
  1013 ;;		_main
  1014 ;;		_TMR0_CallBack
  1015 ;; This function uses a non-reentrant model
  1016 ;;
  1017                           
  1018                           	psect	text12
  1019  000ED0                     __ptext12:
  1020                           	callstack 0
  1021  000ED0                     _TMR0_UserInterruptHandler:
  1022                           	callstack 121
  1023  000ED0  B2C0               	btfsc	192,1,c	;volatile
  1024  000ED2  EF6D  F007         	goto	i2u2_41
  1025  000ED6  EF70  F007         	goto	i2u2_40
  1026  000EDA                     i2u2_41:
  1027  000EDA  0E01               	movlw	1
  1028  000EDC  EF71  F007         	goto	i2u2_46
  1029  000EE0                     i2u2_40:
  1030  000EE0  0E00               	movlw	0
  1031  000EE2                     i2u2_46:
  1032  000EE2  0AFF               	xorlw	255
  1033  000EE4  6E01               	movwf	??_TMR0_UserInterruptHandler^(0+1280),c
  1034  000EE6  4601               	rlncf	??_TMR0_UserInterruptHandler^(0+1280),f,c
  1035  000EE8  50C0               	movf	192,w,c	;volatile
  1036  000EEA  1801               	xorwf	??_TMR0_UserInterruptHandler^(0+1280),w,c
  1037  000EEC  0BFD               	andlw	-3
  1038  000EEE  1801               	xorwf	??_TMR0_UserInterruptHandler^(0+1280),w,c
  1039  000EF0  6EC0               	movwf	192,c	;volatile
  1040  000EF2  0012               	return		;funcret
  1041  000EF4                     __end_of_TMR0_UserInterruptHandler:
  1042                           	callstack 0
  1043                           
  1044                           ;
  1045                           ; Interrupt Vector Table @ 0xD08
  1046                           ;
  1047                           
  1048                           	psect	ivt0xD08
  1049  000D08                     __pivt0xD08:
  1050                           	callstack 0
  1051  000D08                     ivt0xD08_base:
  1052                           	callstack 0
  1053                           
  1054                           ; Vector 0 : SWINT
  1055  000D08  03E1               	dw	_Default_ISR shr (0+2)
  1056                           
  1057                           ; Vector 1 : HLVD
  1058  000D0A  03E1               	dw	_Default_ISR shr (0+2)
  1059                           
  1060                           ; Vector 2 : OSF
  1061  000D0C  03E1               	dw	_Default_ISR shr (0+2)
  1062                           
  1063                           ; Vector 3 : CSW
  1064  000D0E  03E1               	dw	_Default_ISR shr (0+2)
  1065                           
  1066                           ; Vector 4 : NVMIP
  1067  000D10  03E1               	dw	_Default_ISR shr (0+2)
  1068                           
  1069                           ; Vector 5 : CLC1
  1070  000D12  03E1               	dw	_Default_ISR shr (0+2)
  1071                           
  1072                           ; Vector 6 : CRC
  1073  000D14  03E1               	dw	_Default_ISR shr (0+2)
  1074                           
  1075                           ; Vector 7 : IOC
  1076  000D16  03E1               	dw	_Default_ISR shr (0+2)
  1077                           
  1078                           ; Vector 8 : INT0
  1079  000D18  03E1               	dw	_Default_ISR shr (0+2)
  1080                           
  1081                           ; Vector 9 : ZCD
  1082  000D1A  03E1               	dw	_Default_ISR shr (0+2)
  1083                           
  1084                           ; Vector 10 : AD
  1085  000D1C  03E1               	dw	_Default_ISR shr (0+2)
  1086                           
  1087                           ; Vector 11 : ACT
  1088  000D1E  03E1               	dw	_Default_ISR shr (0+2)
  1089                           
  1090                           ; Vector 12 : CMP1
  1091  000D20  03E1               	dw	_Default_ISR shr (0+2)
  1092                           
  1093                           ; Vector 13 : SMT1
  1094  000D22  03E1               	dw	_Default_ISR shr (0+2)
  1095                           
  1096                           ; Vector 14 : SMT1PRA
  1097  000D24  03E1               	dw	_Default_ISR shr (0+2)
  1098                           
  1099                           ; Vector 15 : SMT1PWA
  1100  000D26  03E1               	dw	_Default_ISR shr (0+2)
  1101                           
  1102                           ; Vector 16 : ADT
  1103  000D28  03E1               	dw	_Default_ISR shr (0+2)
  1104                           
  1105                           ; Vector 17 : Undefined
  1106  000D2A  036E               	dw	ivt0xD08_undefint shr (0+2)
  1107                           
  1108                           ; Vector 18 : Undefined
  1109  000D2C  036E               	dw	ivt0xD08_undefint shr (0+2)
  1110                           
  1111                           ; Vector 19 : Undefined
  1112  000D2E  036E               	dw	ivt0xD08_undefint shr (0+2)
  1113                           
  1114                           ; Vector 20 : DMA1SCNT
  1115  000D30  03E1               	dw	_Default_ISR shr (0+2)
  1116                           
  1117                           ; Vector 21 : DMA1DCNT
  1118  000D32  03E1               	dw	_Default_ISR shr (0+2)
  1119                           
  1120                           ; Vector 22 : DMA1OR
  1121  000D34  03E1               	dw	_Default_ISR shr (0+2)
  1122                           
  1123                           ; Vector 23 : DMA1A
  1124  000D36  03E1               	dw	_Default_ISR shr (0+2)
  1125                           
  1126                           ; Vector 24 : SPI1RX
  1127  000D38  03E1               	dw	_Default_ISR shr (0+2)
  1128                           
  1129                           ; Vector 25 : SPI1TX
  1130  000D3A  03E1               	dw	_Default_ISR shr (0+2)
  1131                           
  1132                           ; Vector 26 : SPI1
  1133  000D3C  03E1               	dw	_Default_ISR shr (0+2)
  1134                           
  1135                           ; Vector 27 : TMR2
  1136  000D3E  03E1               	dw	_Default_ISR shr (0+2)
  1137                           
  1138                           ; Vector 28 : TMR1
  1139  000D40  03E1               	dw	_Default_ISR shr (0+2)
  1140                           
  1141                           ; Vector 29 : TMR1G
  1142  000D42  03E1               	dw	_Default_ISR shr (0+2)
  1143                           
  1144                           ; Vector 30 : CCP1
  1145  000D44  03E1               	dw	_Default_ISR shr (0+2)
  1146                           
  1147                           ; Vector 31 : TMR0
  1148  000D46  03A0               	dw	_TMR0_ISR shr (0+2)
  1149                           
  1150                           ; Vector 32 : U1RX
  1151  000D48  03E1               	dw	_Default_ISR shr (0+2)
  1152                           
  1153                           ; Vector 33 : U1TX
  1154  000D4A  03E1               	dw	_Default_ISR shr (0+2)
  1155                           
  1156                           ; Vector 34 : U1E
  1157  000D4C  03E1               	dw	_Default_ISR shr (0+2)
  1158                           
  1159                           ; Vector 35 : U1
  1160  000D4E  03E1               	dw	_Default_ISR shr (0+2)
  1161                           
  1162                           ; Vector 36 : TMR3
  1163  000D50  03E1               	dw	_Default_ISR shr (0+2)
  1164                           
  1165                           ; Vector 37 : TMR3G
  1166  000D52  03E1               	dw	_Default_ISR shr (0+2)
  1167                           
  1168                           ; Vector 38 : PWM1PR
  1169  000D54  03E1               	dw	_Default_ISR shr (0+2)
  1170                           
  1171                           ; Vector 39 : PWM1
  1172  000D56  03E1               	dw	_Default_ISR shr (0+2)
  1173                           
  1174                           ; Vector 40 : SPI2RX
  1175  000D58  03E1               	dw	_Default_ISR shr (0+2)
  1176                           
  1177                           ; Vector 41 : SPI2TX
  1178  000D5A  03E1               	dw	_Default_ISR shr (0+2)
  1179                           
  1180                           ; Vector 42 : SPI2
  1181  000D5C  03E1               	dw	_Default_ISR shr (0+2)
  1182                           
  1183                           ; Vector 43 : Undefined
  1184  000D5E  036E               	dw	ivt0xD08_undefint shr (0+2)
  1185                           
  1186                           ; Vector 44 : CMP2
  1187  000D60  03E1               	dw	_Default_ISR shr (0+2)
  1188                           
  1189                           ; Vector 45 : CLC2
  1190  000D62  03E1               	dw	_Default_ISR shr (0+2)
  1191                           
  1192                           ; Vector 46 : PWM2PR
  1193  000D64  03E1               	dw	_Default_ISR shr (0+2)
  1194                           
  1195                           ; Vector 47 : PWM2
  1196  000D66  03E1               	dw	_Default_ISR shr (0+2)
  1197                           
  1198                           ; Vector 48 : INT1
  1199  000D68  03E1               	dw	_Default_ISR shr (0+2)
  1200                           
  1201                           ; Vector 49 : CWG1
  1202  000D6A  03E1               	dw	_Default_ISR shr (0+2)
  1203                           
  1204                           ; Vector 50 : NCO1
  1205  000D6C  03E1               	dw	_Default_ISR shr (0+2)
  1206                           
  1207                           ; Vector 51 : DMA2SCNT
  1208  000D6E  03E1               	dw	_Default_ISR shr (0+2)
  1209                           
  1210                           ; Vector 52 : DMA2DCNT
  1211  000D70  03E1               	dw	_Default_ISR shr (0+2)
  1212                           
  1213                           ; Vector 53 : DMA2OR
  1214  000D72  03E1               	dw	_Default_ISR shr (0+2)
  1215                           
  1216                           ; Vector 54 : DMA2A
  1217  000D74  03E1               	dw	_Default_ISR shr (0+2)
  1218                           
  1219                           ; Vector 55 : Undefined
  1220  000D76  036E               	dw	ivt0xD08_undefint shr (0+2)
  1221                           
  1222                           ; Vector 56 : I2C1RX
  1223  000D78  03E1               	dw	_Default_ISR shr (0+2)
  1224                           
  1225                           ; Vector 57 : I2C1TX
  1226  000D7A  03E1               	dw	_Default_ISR shr (0+2)
  1227                           
  1228                           ; Vector 58 : I2C1
  1229  000D7C  03E1               	dw	_Default_ISR shr (0+2)
  1230                           
  1231                           ; Vector 59 : I2C1E
  1232  000D7E  03E1               	dw	_Default_ISR shr (0+2)
  1233                           
  1234                           ; Vector 60 : Undefined
  1235  000D80  036E               	dw	ivt0xD08_undefint shr (0+2)
  1236                           
  1237                           ; Vector 61 : CLC3
  1238  000D82  03E1               	dw	_Default_ISR shr (0+2)
  1239                           
  1240                           ; Vector 62 : PWM3PR
  1241  000D84  03E1               	dw	_Default_ISR shr (0+2)
  1242                           
  1243                           ; Vector 63 : PWM3
  1244  000D86  03E1               	dw	_Default_ISR shr (0+2)
  1245                           
  1246                           ; Vector 64 : U2RX
  1247  000D88  03E1               	dw	_Default_ISR shr (0+2)
  1248                           
  1249                           ; Vector 65 : U2TX
  1250  000D8A  03E1               	dw	_Default_ISR shr (0+2)
  1251                           
  1252                           ; Vector 66 : U2E
  1253  000D8C  03E1               	dw	_Default_ISR shr (0+2)
  1254                           
  1255                           ; Vector 67 : U2
  1256  000D8E  03E1               	dw	_Default_ISR shr (0+2)
  1257                           
  1258                           ; Vector 68 : Undefined
  1259  000D90  036E               	dw	ivt0xD08_undefint shr (0+2)
  1260                           
  1261                           ; Vector 69 : CLC4
  1262  000D92  03E1               	dw	_Default_ISR shr (0+2)
  1263                           
  1264                           ; Vector 70 : Undefined
  1265  000D94  036E               	dw	ivt0xD08_undefint shr (0+2)
  1266                           
  1267                           ; Vector 71 : SCAN
  1268  000D96  03E1               	dw	_Default_ISR shr (0+2)
  1269                           
  1270                           ; Vector 72 : U3RX
  1271  000D98  03E1               	dw	_Default_ISR shr (0+2)
  1272                           
  1273                           ; Vector 73 : U3TX
  1274  000D9A  03E1               	dw	_Default_ISR shr (0+2)
  1275                           
  1276                           ; Vector 74 : U3E
  1277  000D9C  03E1               	dw	_Default_ISR shr (0+2)
  1278                           
  1279                           ; Vector 75 : U3
  1280  000D9E  03E1               	dw	_Default_ISR shr (0+2)
  1281                           
  1282                           ; Vector 76 : DMA3SCNT
  1283  000DA0  03E1               	dw	_Default_ISR shr (0+2)
  1284                           
  1285                           ; Vector 77 : DMA3DCNT
  1286  000DA2  03E1               	dw	_Default_ISR shr (0+2)
  1287                           
  1288                           ; Vector 78 : DMA3OR
  1289  000DA4  03E1               	dw	_Default_ISR shr (0+2)
  1290                           
  1291                           ; Vector 79 : DMA3A
  1292  000DA6  03E1               	dw	_Default_ISR shr (0+2)
  1293                           
  1294                           ; Vector 80 : INT2
  1295  000DA8  03E1               	dw	_Default_ISR shr (0+2)
  1296                           
  1297                           ; Vector 81 : Undefined
  1298  000DAA  036E               	dw	ivt0xD08_undefint shr (0+2)
  1299                           
  1300                           ; Vector 82 : Undefined
  1301  000DAC  036E               	dw	ivt0xD08_undefint shr (0+2)
  1302                           
  1303                           ; Vector 83 : TMR4
  1304  000DAE  03E1               	dw	_Default_ISR shr (0+2)
  1305                           
  1306                           ; Vector 84 : DMA4SCNT
  1307  000DB0  03E1               	dw	_Default_ISR shr (0+2)
  1308                           
  1309                           ; Vector 85 : DMA4DCNT
  1310  000DB2  03E1               	dw	_Default_ISR shr (0+2)
  1311                           
  1312                           ; Vector 86 : DMA4OR
  1313  000DB4  03E1               	dw	_Default_ISR shr (0+2)
  1314                           
  1315                           ; Vector 87 : DMA4A
  1316  000DB6  03E1               	dw	_Default_ISR shr (0+2)
  1317  000DB8                     ivt0xD08_undefint:
  1318                           	callstack 0
  1319  000DB8  00FF               	reset	
  1320  0000                     
  1321                           	psect	text13
  1322  000000                     __ptext13:
  1323                           	callstack 0
  1324  000000                     
  1325                           	psect	rparam
  1326  0000                     
  1327                           	psect	idloc
  1328                           
  1329                           ;Config register IDLOC0 @ 0x200000
  1330                           ;	unspecified, using default values
  1331  200000                     	org	2097152
  1332  200000  0FFF               	dw	4095
  1333                           
  1334                           ;Config register IDLOC1 @ 0x200002
  1335                           ;	unspecified, using default values
  1336  200002                     	org	2097154
  1337  200002  0FFF               	dw	4095
  1338                           
  1339                           ;Config register IDLOC2 @ 0x200004
  1340                           ;	unspecified, using default values
  1341  200004                     	org	2097156
  1342  200004  0FFF               	dw	4095
  1343                           
  1344                           ;Config register IDLOC3 @ 0x200006
  1345                           ;	unspecified, using default values
  1346  200006                     	org	2097158
  1347  200006  0FFF               	dw	4095
  1348                           
  1349                           ;Config register IDLOC4 @ 0x200008
  1350                           ;	unspecified, using default values
  1351  200008                     	org	2097160
  1352  200008  0FFF               	dw	4095
  1353                           
  1354                           ;Config register IDLOC5 @ 0x20000A
  1355                           ;	unspecified, using default values
  1356  20000A                     	org	2097162
  1357  20000A  0FFF               	dw	4095
  1358                           
  1359                           ;Config register IDLOC6 @ 0x20000C
  1360                           ;	unspecified, using default values
  1361  20000C                     	org	2097164
  1362  20000C  0FFF               	dw	4095
  1363                           
  1364                           ;Config register IDLOC7 @ 0x20000E
  1365                           ;	unspecified, using default values
  1366  20000E                     	org	2097166
  1367  20000E  0FFF               	dw	4095
  1368                           
  1369                           ;Config register IDLOC8 @ 0x200010
  1370                           ;	unspecified, using default values
  1371  200010                     	org	2097168
  1372  200010  0FFF               	dw	4095
  1373                           
  1374                           ;Config register IDLOC9 @ 0x200012
  1375                           ;	unspecified, using default values
  1376  200012                     	org	2097170
  1377  200012  0FFF               	dw	4095
  1378                           
  1379                           ;Config register IDLOC10 @ 0x200014
  1380                           ;	unspecified, using default values
  1381  200014                     	org	2097172
  1382  200014  0FFF               	dw	4095
  1383                           
  1384                           ;Config register IDLOC11 @ 0x200016
  1385                           ;	unspecified, using default values
  1386  200016                     	org	2097174
  1387  200016  0FFF               	dw	4095
  1388                           
  1389                           ;Config register IDLOC12 @ 0x200018
  1390                           ;	unspecified, using default values
  1391  200018                     	org	2097176
  1392  200018  0FFF               	dw	4095
  1393                           
  1394                           ;Config register IDLOC13 @ 0x20001A
  1395                           ;	unspecified, using default values
  1396  20001A                     	org	2097178
  1397  20001A  0FFF               	dw	4095
  1398                           
  1399                           ;Config register IDLOC14 @ 0x20001C
  1400                           ;	unspecified, using default values
  1401  20001C                     	org	2097180
  1402  20001C  0FFF               	dw	4095
  1403                           
  1404                           ;Config register IDLOC15 @ 0x20001E
  1405                           ;	unspecified, using default values
  1406  20001E                     	org	2097182
  1407  20001E  0FFF               	dw	4095
  1408                           
  1409                           	psect	config
  1410                           
  1411                           ;Config register CONFIG1 @ 0x300000
  1412                           ;	External Oscillator Selection
  1413                           ;	FEXTOSC = OFF, Oscillator not enabled
  1414                           ;	Reset Oscillator Selection
  1415                           ;	RSTOSC = HFINTOSC_64MHZ, HFINTOSC with HFFRQ = 64 MHz and CDIV = 1:1
  1416  300000                     	org	3145728
  1417  300000  8C                 	db	140
  1418                           
  1419                           ;Config register CONFIG2 @ 0x300001
  1420                           ;	Clock out Enable bit
  1421                           ;	CLKOUTEN = OFF, CLKOUT function is disabled
  1422                           ;	PRLOCKED One-Way Set Enable bit
  1423                           ;	PR1WAY = ON, PRLOCKED bit can be cleared and set only once
  1424                           ;	Clock Switch Enable bit
  1425                           ;	CSWEN = ON, Writing to NOSC and NDIV is allowed
  1426                           ;	Fail-Safe Clock Monitor Enable bit
  1427                           ;	FCMEN = ON, Fail-Safe Clock Monitor enabled
  1428                           ;	Fail-Safe Clock Monitor - Primary XTAL Enable bit
  1429                           ;	FCMENP = ON, Fail-Safe Clock Monitor enabled; timer will flag FSCMP bit and OSFIF inte
      +                          rrupt on EXTOSC failure.
  1430                           ;	Fail-Safe Clock Monitor - Secondary XTAL Enable bit
  1431                           ;	FCMENS = ON, Fail-Safe Clock Monitor enabled; timer will flag FSCMP bit and OSFIF inte
      +                          rrupt on SOSC failure.
  1432  300001                     	org	3145729
  1433  300001  FF                 	db	255
  1434                           
  1435                           ;Config register CONFIG3 @ 0x300002
  1436                           ;	MCLR Enable bit
  1437                           ;	MCLRE = EXTMCLR, If LVP = 0, MCLR pin is MCLR; If LVP = 1, RE3 pin function is MCLR
  1438                           ;	Power-up timer selection bits
  1439                           ;	PWRTS = PWRT_OFF, PWRT is disabled
  1440                           ;	Multi-vector enable bit
  1441                           ;	MVECEN = ON, Multi-vector enabled, Vector table used for interrupts
  1442                           ;	IVTLOCK bit One-way set enable bit
  1443                           ;	IVT1WAY = OFF, IVTLOCKED bit can be cleared and set repeatedly
  1444                           ;	Low Power BOR Enable bit
  1445                           ;	LPBOREN = OFF, Low-Power BOR disabled
  1446                           ;	Brown-out Reset Enable bits
  1447                           ;	BOREN = SBORDIS, Brown-out Reset enabled , SBOREN bit is ignored
  1448  300002                     	org	3145730
  1449  300002  EF                 	db	239
  1450                           
  1451                           ;Config register CONFIG4 @ 0x300003
  1452                           ;	Brown-out Reset Voltage Selection bits
  1453                           ;	BORV = VBOR_1P9, Brown-out Reset Voltage (VBOR) set to 1.9V
  1454                           ;	ZCD Disable bit
  1455                           ;	ZCD = OFF, ZCD module is disabled. ZCD can be enabled by setting the ZCDSEN bit of ZCD
      +                          CON
  1456                           ;	PPSLOCK bit One-Way Set Enable bit
  1457                           ;	PPS1WAY = ON, PPSLOCKED bit can be cleared and set only once; PPS registers remain loc
      +                          ked after one clear/set cycle
  1458                           ;	Stack Full/Underflow Reset Enable bit
  1459                           ;	STVREN = ON, Stack full/underflow will cause Reset
  1460                           ;	Low Voltage Programming Enable bit
  1461                           ;	LVP = ON, Low voltage programming enabled. MCLR/VPP pin function is MCLR. MCLRE config
      +                          uration bit is ignored
  1462                           ;	Extended Instruction Set Enable bit
  1463                           ;	XINST = OFF, Extended Instruction Set and Indexed Addressing Mode disabled
  1464  300003                     	org	3145731
  1465  300003  FF                 	db	255
  1466                           
  1467                           ;Config register CONFIG5 @ 0x300004
  1468                           ;	WDT Period selection bits
  1469                           ;	WDTCPS = WDTCPS_31, Divider ratio 1:65536; software control of WDTPS
  1470                           ;	WDT operating mode
  1471                           ;	WDTE = OFF, WDT Disabled; SWDTEN is ignored
  1472  300004                     	org	3145732
  1473  300004  9F                 	db	159
  1474                           
  1475                           ;Config register CONFIG6 @ 0x300005
  1476                           ;	WDT Window Select bits
  1477                           ;	WDTCWS = WDTCWS_7, window always open (100%); software control; keyed access not requi
      +                          red
  1478                           ;	WDT input clock selector
  1479                           ;	WDTCCS = SC, Software Control
  1480  300005                     	org	3145733
  1481  300005  FF                 	db	255
  1482                           
  1483                           ;Config register CONFIG7 @ 0x300006
  1484                           ;	Boot Block Size selection bits
  1485                           ;	BBSIZE = BBSIZE_512, Boot Block size is 512 words
  1486                           ;	Boot Block enable bit
  1487                           ;	BBEN = OFF, Boot block disabled
  1488                           ;	Storage Area Flash enable bit
  1489                           ;	SAFEN = OFF, SAF disabled
  1490                           ;	Background Debugger
  1491                           ;	DEBUG = OFF, Background Debugger disabled
  1492  300006                     	org	3145734
  1493  300006  FF                 	db	255
  1494                           
  1495                           ;Config register CONFIG8 @ 0x300007
  1496                           ;	Boot Block Write Protection bit
  1497                           ;	WRTB = OFF, Boot Block not Write protected
  1498                           ;	Configuration Register Write Protection bit
  1499                           ;	WRTC = OFF, Configuration registers not Write protected
  1500                           ;	Data EEPROM Write Protection bit
  1501                           ;	WRTD = OFF, Data EEPROM not Write protected
  1502                           ;	SAF Write protection bit
  1503                           ;	WRTSAF = OFF, SAF not Write Protected
  1504                           ;	Application Block write protection bit
  1505                           ;	WRTAPP = OFF, Application Block not write protected
  1506  300007                     	org	3145735
  1507  300007  FF                 	db	255
  1508                           
  1509                           ;Config register CONFIG9 @ 0x300008
  1510                           ;	PFM and Data EEPROM Code Protection bit
  1511                           ;	CP = OFF, PFM and Data EEPROM code protection disabled
  1512  300008                     	org	3145736
  1513  300008  FF                 	db	255
  1514                           
  1515                           ; Padding undefined space
  1516  300009                     	org	3145737
  1517  300009  FF                 	db	255
  1518                           tosu	equ	0x4FF
  1519                           tosh	equ	0x4FE
  1520                           tosl	equ	0x4FD
  1521                           stkptr	equ	0x4FC
  1522                           pclatu	equ	0x4FB
  1523                           pclath	equ	0x4FA
  1524                           pcl	equ	0x4F9
  1525                           tblptru	equ	0x4F8
  1526                           tblptrh	equ	0x4F7
  1527                           tblptrl	equ	0x4F6
  1528                           tablat	equ	0x4F5
  1529                           prodh	equ	0x4F4
  1530                           prodl	equ	0x4F3
  1531                           indf0	equ	0x4EF
  1532                           postinc0	equ	0x4EE
  1533                           postdec0	equ	0x4ED
  1534                           preinc0	equ	0x4EC
  1535                           plusw0	equ	0x4EB
  1536                           fsr0h	equ	0x4EA
  1537                           fsr0l	equ	0x4E9
  1538                           wreg	equ	0x4E8
  1539                           indf1	equ	0x4E7
  1540                           postinc1	equ	0x4E6
  1541                           postdec1	equ	0x4E5
  1542                           preinc1	equ	0x4E4
  1543                           plusw1	equ	0x4E3
  1544                           fsr1h	equ	0x4E2
  1545                           fsr1l	equ	0x4E1
  1546                           bsr	equ	0x4E0
  1547                           indf2	equ	0x4DF
  1548                           postinc2	equ	0x4DE
  1549                           postdec2	equ	0x4DD
  1550                           preinc2	equ	0x4DC
  1551                           plusw2	equ	0x4DB
  1552                           fsr2h	equ	0x4DA
  1553                           fsr2l	equ	0x4D9
  1554                           status	equ	0x4D8

Data Sizes:
    Strings     0
    Constant    0
    Data        0
    BSS         2
    Persistent  2
    Stack       0

Auto Spaces:
    Space          Size  Autos    Used
    COMRAM           95      3       7
    BANK5           160      0       0
    BANK6           256      0       0
    BANK7           256      0       0
    BANK8           256      0       0
    BANK9           256      0       0
    BANK10          256      0       0
    BANK11          256      0       0
    BANK12          256      0       0
    BANK13          256      0       0
    BANK14          256      0       0
    BANK15          256      0       0
    BANK16          256      0       0
    BANK17          256      0       0
    BANK18          256      0       0
    BANK19          256      0       0
    BANK20          256      0       0
    BANK21          256      0       0

Pointer List with Targets:

    TMR0_SetInterruptHandler@InterruptHandler	PTR FTN()void  size(2) Largest target is 1
		 -> TMR0_UserInterruptHandler(), TMR0_DefaultInterruptHandler(), 

    TMR0_InterruptHandler	PTR FTN()void  size(2) Largest target is 1
		 -> TMR0_UserInterruptHandler(), Absolute function(), TMR0_DefaultInterruptHandler(), 


Critical Paths under _main in COMRAM

    _main->_TMR0_SetInterruptHandler
    _TMR0_Initialize->_TMR0_SetInterruptHandler

Critical Paths under _Default_ISR in COMRAM

    None.

Critical Paths under _TMR0_ISR in COMRAM

    _TMR0_CallBack->_TMR0_UserInterruptHandler

Critical Paths under _main in BANK5

    None.

Critical Paths under _Default_ISR in BANK5

    None.

Critical Paths under _TMR0_ISR in BANK5

    None.

Critical Paths under _main in BANK6

    None.

Critical Paths under _Default_ISR in BANK6

    None.

Critical Paths under _TMR0_ISR in BANK6

    None.

Critical Paths under _main in BANK7

    None.

Critical Paths under _Default_ISR in BANK7

    None.

Critical Paths under _TMR0_ISR in BANK7

    None.

Critical Paths under _main in BANK8

    None.

Critical Paths under _Default_ISR in BANK8

    None.

Critical Paths under _TMR0_ISR in BANK8

    None.

Critical Paths under _main in BANK9

    None.

Critical Paths under _Default_ISR in BANK9

    None.

Critical Paths under _TMR0_ISR in BANK9

    None.

Critical Paths under _main in BANK10

    None.

Critical Paths under _Default_ISR in BANK10

    None.

Critical Paths under _TMR0_ISR in BANK10

    None.

Critical Paths under _main in BANK11

    None.

Critical Paths under _Default_ISR in BANK11

    None.

Critical Paths under _TMR0_ISR in BANK11

    None.

Critical Paths under _main in BANK12

    None.

Critical Paths under _Default_ISR in BANK12

    None.

Critical Paths under _TMR0_ISR in BANK12

    None.

Critical Paths under _main in BANK13

    None.

Critical Paths under _Default_ISR in BANK13

    None.

Critical Paths under _TMR0_ISR in BANK13

    None.

Critical Paths under _main in BANK14

    None.

Critical Paths under _Default_ISR in BANK14

    None.

Critical Paths under _TMR0_ISR in BANK14

    None.

Critical Paths under _main in BANK15

    None.

Critical Paths under _Default_ISR in BANK15

    None.

Critical Paths under _TMR0_ISR in BANK15

    None.

Critical Paths under _main in BANK16

    None.

Critical Paths under _Default_ISR in BANK16

    None.

Critical Paths under _TMR0_ISR in BANK16

    None.

Critical Paths under _main in BANK17

    None.

Critical Paths under _Default_ISR in BANK17

    None.

Critical Paths under _TMR0_ISR in BANK17

    None.

Critical Paths under _main in BANK18

    None.

Critical Paths under _Default_ISR in BANK18

    None.

Critical Paths under _TMR0_ISR in BANK18

    None.

Critical Paths under _main in BANK19

    None.

Critical Paths under _Default_ISR in BANK19

    None.

Critical Paths under _TMR0_ISR in BANK19

    None.

Critical Paths under _main in BANK20

    None.

Critical Paths under _Default_ISR in BANK20

    None.

Critical Paths under _TMR0_ISR in BANK20

    None.

Critical Paths under _main in BANK21

    None.

Critical Paths under _Default_ISR in BANK21

    None.

Critical Paths under _TMR0_ISR in BANK21

    None.

Call Graph Tables:

 ---------------------------------------------------------------------------------
 (Depth) Function   	        Calls       Base Space   Used Autos Params    Refs
 ---------------------------------------------------------------------------------
 (0) _main                                                 0     0      0     363
                  _SYSTEM_Initialize
           _TMR0_SetInterruptHandler
 ---------------------------------------------------------------------------------
 (1) _SYSTEM_Initialize                                    0     0      0     189
               _INTERRUPT_Initialize
              _OSCILLATOR_Initialize
             _PIN_MANAGER_Initialize
                     _PMD_Initialize
                    _TMR0_Initialize
 ---------------------------------------------------------------------------------
 (2) _TMR0_Initialize                                      0     0      0     174
           _TMR0_SetInterruptHandler
 ---------------------------------------------------------------------------------
 (1) _TMR0_SetInterruptHandler                             2     0      2     174
                                              1 COMRAM     2     0      2
 ---------------------------------------------------------------------------------
 (2) _PMD_Initialize                                       0     0      0       0
 ---------------------------------------------------------------------------------
 (2) _PIN_MANAGER_Initialize                               0     0      0       0
 ---------------------------------------------------------------------------------
 (2) _OSCILLATOR_Initialize                                0     0      0       0
 ---------------------------------------------------------------------------------
 (2) _INTERRUPT_Initialize                                 1     1      0      15
                                              1 COMRAM     1     1      0
 ---------------------------------------------------------------------------------
 Estimated maximum stack depth 2
 ---------------------------------------------------------------------------------
 (Depth) Function   	        Calls       Base Space   Used Autos Params    Refs
 ---------------------------------------------------------------------------------
 (4) _Default_ISR                                          0     0      0       0
 ---------------------------------------------------------------------------------
 Estimated maximum stack depth 4
 ---------------------------------------------------------------------------------
 (Depth) Function   	        Calls       Base Space   Used Autos Params    Refs
 ---------------------------------------------------------------------------------
 (4) _TMR0_ISR                                             0     0      0       0
                      _TMR0_CallBack
 ---------------------------------------------------------------------------------
 (5) _TMR0_CallBack                                        0     0      0       0
                   Absolute function *
       _TMR0_DefaultInterruptHandler *
          _TMR0_UserInterruptHandler *
 ---------------------------------------------------------------------------------
 (6) _TMR0_UserInterruptHandler                            1     1      0       0
                                              0 COMRAM     1     1      0
 ---------------------------------------------------------------------------------
 (6) _TMR0_DefaultInterruptHandler                         0     0      0       0
 ---------------------------------------------------------------------------------
 (6) Absolute function(Fake)                               0     0      0       0
 ---------------------------------------------------------------------------------
 Estimated maximum stack depth 6
 ---------------------------------------------------------------------------------

 Call Graph Graphs:

 _main (ROOT)
   _SYSTEM_Initialize
     _INTERRUPT_Initialize
     _OSCILLATOR_Initialize
     _PIN_MANAGER_Initialize
     _PMD_Initialize
     _TMR0_Initialize
       _TMR0_SetInterruptHandler
   _TMR0_SetInterruptHandler

 _Default_ISR (ROOT)

 _TMR0_ISR (ROOT)
   _TMR0_CallBack
     Absolute function(Fake) *
     _TMR0_DefaultInterruptHandler *
     _TMR0_UserInterruptHandler *

 Address spaces:
Name               Size   Autos  Total    Cost      Usage
BIGRAM            10FF      0       0      39        0.0%
EEDATA             200      0       0       0        0.0%
BITBANK21          100      0       0      38        0.0%
BANK21             100      0       0      35        0.0%
BITBANK20          100      0       0      37        0.0%
BANK20             100      0       0      34        0.0%
BITBANK19          100      0       0      32        0.0%
BANK19             100      0       0      33        0.0%
BITBANK18          100      0       0      30        0.0%
BANK18             100      0       0      31        0.0%
BITBANK17          100      0       0      28        0.0%
BANK17             100      0       0      29        0.0%
BITBANK16          100      0       0      26        0.0%
BANK16             100      0       0      27        0.0%
BITBANK15          100      0       0      24        0.0%
BANK15             100      0       0      25        0.0%
BITBANK14          100      0       0      22        0.0%
BANK14             100      0       0      23        0.0%
BITBANK13          100      0       0      20        0.0%
BANK13             100      0       0      21        0.0%
BITBANK12          100      0       0      18        0.0%
BANK12             100      0       0      19        0.0%
BITBANK11          100      0       0      16        0.0%
BANK11             100      0       0      17        0.0%
BITBANK10          100      0       0      14        0.0%
BANK10             100      0       0      15        0.0%
BITBANK9           100      0       0      12        0.0%
BANK9              100      0       0      13        0.0%
BITBANK8           100      0       0      10        0.0%
BANK8              100      0       0      11        0.0%
BITBANK7           100      0       0       8        0.0%
BANK7              100      0       0       9        0.0%
BITBANK6           100      0       0       6        0.0%
BANK6              100      0       0       7        0.0%
BITBANK5            A0      0       0       4        0.0%
BANK5               A0      0       0       5        0.0%
BITCOMRAM           5F      0       0       0        0.0%
COMRAM              5F      3       7       1        7.4%
BITSFR_5             0      0       0     200        0.0%
SFR_5                0      0       0     200        0.0%
BITSFR_4             0      0       0     200        0.0%
SFR_4                0      0       0     200        0.0%
BITSFR_3             0      0       0     200        0.0%
SFR_3                0      0       0     200        0.0%
BITSFR_2             0      0       0     200        0.0%
SFR_2                0      0       0     200        0.0%
BITSFR_1             0      0       0     200        0.0%
SFR_1                0      0       0     200        0.0%
BITSFR               0      0       0     200        0.0%
SFR                  0      0       0     200        0.0%
STACK                0      0       0       2        0.0%
NULL                 0      0       0       0        0.0%
ABS                  0      0       7      36        0.0%
DATA                 0      0       7       3        0.0%
CODE                 0      0       0       0        0.0%


Microchip Technology PIC18 Macro Assembler V2.32 build 20210201212658 
Symbol Table                                                                                   Mon Aug 23 09:22:15 2021

                                      l40 0F62                                        l43 0F46  
                                      l37 0F78                                        l88 0E10  
                                      u15 0E48                                        u16 0E4A  
                                     l110 0E4E                                       l140 0ECE  
                                     l170 0F82                                       l191 0F24  
                                     l192 0F24                                       l940 0F7A  
                                     l950 0EC8                                       l942 0EAA  
                                     l880 0E3E                                       l872 0E12  
                                     l944 0EB8                                       l952 0F64  
                                     l960 0F22                                       l882 0E40  
                                     l874 0E14                                       l890 0E04  
                                     l946 0EBA                                       l954 0F74  
                                     l884 0E4A                                       l876 0E1C  
                                     l892 0E0E                                       l948 0EBC  
                                     l956 0F10                                       l878 0E28  
                                     l894 0F48                                       l886 0F2C  
                                     l958 0F20                                       l888 0DBE  
                                     _GIE 0026B7                   __size_of_PMD_Initialize 001C  
                                     tosl 0004FD                                      _LATA 0004BE  
                                    _LATB 0004BF                                      _LATC 0004C0  
                                    _PMD0 000063                                      _PMD1 000064  
                                    _PMD2 000065                                      _PMD3 000066  
                                    _PMD4 000067                                      _PMD5 000068  
                                    _WPUA 000401                                      _WPUB 000409  
                                    _WPUC 000411                                      _main 0F10  
                                    start 0DBA                              ___param_bank 000000  
                 __end_of_TMR0_Initialize 0ED0            ??_TMR0_DefaultInterruptHandler 0501  
          __size_of_OSCILLATOR_Initialize 001C             __end_of_OSCILLATOR_Initialize 0F64  
                                   ?_main 0501                                     i2l115 0F84  
                                   i2l163 0EA8                                     i2l173 0F86  
                                   i2l167 0E7C                                     i2l184 0ED0  
                                   i2l186 0EF2                                     i2l912 0E50  
                                   i2l906 0ED0                                     i2l914 0E62  
                                   i2l930 0E9C                                     i2l932 0EA0  
                                   i2l926 0E80                                     i2l928 0E82  
                                   _OSCEN 0000B3                                     _TMR0H 000319  
                                   _TMR0L 000318                                     _TRISA 0004C6  
                                   _TRISB 0004C7                                     _TRISC 0004C8  
                             _Default_ISR 0F84         __size_of_TMR0_SetInterruptHandler 000A  
               ?_TMR0_SetInterruptHandler 0502                          __end_of_TMR0_ISR 0EAA  
                                   pclath 0004FA                                     status 0004D8  
                         __initialization 0EF4                              __end_of_main 0F2C  
                                  ??_main 0504                             __activetblptr 000002  
                                  _ACTCON 0000AC                                    _ANSELA 000400  
                                  _ANSELB 000408                                    _ANSELC 000410  
                        ivt0xD08_undefint 0DB8                                    _T0CON0 00031A  
                                  _T0CON1 00031B                                    _ODCONA 000402  
                                  _ODCONB 00040A                                    _ODCONC 000412  
                                  _INLVLA 000404                                    _INLVLB 00040C  
                                  _INLVLC 000414                                    _OSCFRQ 0000B1  
                                  i2u2_40 0EE0                                    i2u2_41 0EDA  
                                  i2u2_46 0EE2                                    i2u3_40 0E62  
                                  i2u3_41 0E5E                                    i2u4_48 0E68  
                                  i2u5_40 0E9C                                    i2u4_49 0E7C  
                                  i2u5_41 0E98                          ?_TMR0_Initialize 0501  
                                  isa$std 000001                            _PMD_Initialize 0F2C  
                                  tblptru 0004F8                     __end_of_TMR0_CallBack 0E7E  
TMR0_SetInterruptHandler@InterruptHandler 0502             __size_of_INTERRUPT_Initialize 003E  
                       _SYSTEM_Initialize 0F64                                __accesstop 0560  
                 __end_of__initialization 0F06                        ?_SYSTEM_Initialize 0501  
                            ivt0xD08_base 0D08                             ___rparam_used 000001  
                          __pcstackCOMRAM 0501                       ??_SYSTEM_Initialize 0504  
                               ?_TMR0_ISR 0501                    __end_of_PMD_Initialize 0F48  
                   TMR0_ISR@CountCallBack 0506                 __end_of_SYSTEM_Initialize 0F7A  
                              __pnvCOMRAM 0504                                   IVTBASEH 00045E  
                                 IVTBASEL 00045D                                   IVTBASEU 00045F  
                              __pivt0xD08 0D08          __end_of_TMR0_SetInterruptHandler 0F84  
                              ??_TMR0_ISR 0502                           ?_PMD_Initialize 0501  
                            ?_Default_ISR 0501                                   _OSCCON1 0000AD  
                                 _OSCCON3 0000AF                                   _IVTLOCK 000459  
                                 _OSCTUNE 0000B0                                   _SLRCONA 000403  
                                 _SLRCONB 00040B                                   _SLRCONC 000413  
               INTERRUPT_Initialize@state 0502                                   __Hparam 0000  
                                 __Lparam 0000              fp__TMR0_UserInterruptHandler 0000  
                                 __pcinit 0EF4                                   __ramtop 1600  
                                 __ptext0 0F10                                   __ptext1 0F64  
                                 __ptext2 0EAA                                   __ptext3 0F7A  
                                 __ptext4 0F2C                                   __ptext5 0DBE  
                                 __ptext6 0F48                                   __ptext7 0E12  
                                 __ptext8 0F84                                   __ptext9 0E80  
                   _OSCILLATOR_Initialize 0F48                  ??_PIN_MANAGER_Initialize 0502  
              __size_of_SYSTEM_Initialize 0016                      end_of_initialization 0F06  
                           __Lmediumconst 0000                  _TMR0_SetInterruptHandler 0F7A  
            __end_of_INTERRUPT_Initialize 0E50                         __size_of_TMR0_ISR 002A  
                  ?_OSCILLATOR_Initialize 0501                       start_initialization 0EF4  
                __size_of_TMR0_Initialize 0026           __size_of_PIN_MANAGER_Initialize 0054  
                    __size_of_Default_ISR 0002                          ??_PMD_Initialize 0502  
                  __size_of_TMR0_CallBack 002E                               __pbssCOMRAM 0506  
      __size_of_TMR0_UserInterruptHandler 0024                ?_TMR0_UserInterruptHandler 0501  
                   _TMR0_InterruptHandler 0504                    _PIN_MANAGER_Initialize 0DBE  
       __end_of_TMR0_UserInterruptHandler 0EF4                             _TMR0_CallBack 0E50  
                    _INTERRUPT_Initialize 0E12                         ??_TMR0_Initialize 0504  
                                _LATCbits 0004C0                                  _IPR3bits 00036A  
                                _PIE3bits 0004AB                                  _IVTBASEH 00045E  
                                _IVTBASEL 00045D                                  _IVTBASEU 00045F  
              ??_TMR0_SetInterruptHandler 0504                                  _PIR3bits 0004B6  
                                _TMR0_ISR 0E80                            ?_TMR0_CallBack 0501  
                             _INTCON0bits 0004D6                     ?_INTERRUPT_Initialize 0501  
                                __Hrparam 0000                                  __Lrparam 0000  
                 ??_OSCILLATOR_Initialize 0502                                _T0CON0bits 00031A  
                                __ptext10 0E50                                  __ptext11 0F86  
                                __ptext12 0ED0                                  __ptext13 0000  
                           __size_of_main 001C      __end_of_TMR0_DefaultInterruptHandler 0F88  
   __size_of_TMR0_DefaultInterruptHandler 0002              _TMR0_DefaultInterruptHandler 0F86  
                             _IVTLOCKbits 000459                                  isa$xinst 000000  
                           ??_Default_ISR 0501                           ??_TMR0_CallBack 0502  
             ??_TMR0_UserInterruptHandler 0501                    ??_INTERRUPT_Initialize 0502  
                                intlevel2 0000                   ?_PIN_MANAGER_Initialize 0501  
         fp__TMR0_DefaultInterruptHandler 0000             ?_TMR0_DefaultInterruptHandler 0501  
                         _TMR0_Initialize 0EAA                       __end_of_Default_ISR 0F86  
          __end_of_PIN_MANAGER_Initialize 0E12                 _TMR0_UserInterruptHandler 0ED0  
