

Microchip MPLAB XC8 Assembler V2.32 build 20210201212658 
                                                                                               Thu Jul 29 15:31:36 2021

Microchip MPLAB XC8 C Compiler v2.32 (Free license) build 20210201212658 Og1 
     1                           	processor	18F47Q10
     2                           	fnconf	rparam,??,?,0
     3                           	pagewidth 120
     4                           	opt	flic
     5                           	psect	intcode,global,reloc=2,class=CODE,delta=1
     6                           	psect	intcodelo,global,reloc=2,class=CODE,delta=1
     7                           	psect	text0,global,reloc=2,class=CODE,delta=1
     8                           	psect	nvCOMRAM,global,class=COMRAM,space=1,delta=1,lowdata,noexec
     9                           	psect	cinit,global,reloc=2,class=CODE,delta=1
    10                           	psect	bssCOMRAM,global,class=COMRAM,space=1,delta=1,lowdata,noexec
    11                           	psect	bssBANK0,global,class=BANK0,space=1,delta=1,lowdata,noexec
    12                           	psect	cstackCOMRAM,global,class=COMRAM,space=1,delta=1,lowdata,noexec
    13                           	psect	text1,global,reloc=2,class=CODE,delta=1
    14                           	psect	text2,global,reloc=2,class=CODE,delta=1
    15                           	psect	text3,global,reloc=2,class=CODE,delta=1
    16                           	psect	text4,global,reloc=2,class=CODE,delta=1
    17                           	psect	text5,global,reloc=2,class=CODE,delta=1
    18                           	psect	text6,global,reloc=2,class=CODE,delta=1
    19                           	psect	text7,global,reloc=2,class=CODE,delta=1
    20                           	psect	text8,global,reloc=2,class=CODE,delta=1
    21                           	psect	text9,global,reloc=2,class=CODE,delta=1
    22                           	psect	text10,global,reloc=2,class=CODE,delta=1
    23                           	psect	text11,global,reloc=2,class=CODE,delta=1
    24                           	psect	text12,global,reloc=2,class=CODE,delta=1
    25                           	psect	text13,global,reloc=2,class=CODE,delta=1
    26                           	psect	text14,global,reloc=2,class=CODE,delta=1
    27                           	psect	text15,global,reloc=2,class=CODE,delta=1
    28                           	psect	text16,global,reloc=2,class=CODE,delta=1
    29                           	psect	text17,global,reloc=2,class=CODE,delta=1
    30                           	psect	text18,global,reloc=2,class=CODE,delta=1
    31                           	psect	text19,global,reloc=2,class=CODE,delta=1
    32                           	psect	text20,global,reloc=2,class=CODE,delta=1
    33                           	psect	text21,global,reloc=2,class=CODE,delta=1
    34                           	psect	text22,global,reloc=2,class=CODE,delta=1
    35                           	psect	text23,global,reloc=2,class=CODE,delta=1
    36                           	psect	text24,global,reloc=2,class=CODE,delta=1
    37                           	psect	intsave_regs,global,class=BIGRAM,space=1,delta=1,noexec
    38                           	psect	rparam,global,class=COMRAM,space=1,delta=1,noexec
    39                           	dabs	1,0xD00,256,_PFM_Buffer
    40                           	dabs	1,0x1,1,_EE_Key_2
    41                           	dabs	1,0xD00,1,_sectorRAM
    42  0000                     
    43                           ; Version 2.35
    44                           ; Generated 04/06/2021 GMT
    45                           ; 
    46                           ; Copyright © 2021, Microchip Technology Inc. and its subsidiaries ("Microchip")
    47                           ; All rights reserved.
    48                           ; 
    49                           ; This software is developed by Microchip Technology Inc. and its subsidiaries ("Microch
      +                          ip").
    50                           ; 
    51                           ; Redistribution and use in source and binary forms, with or without modification, are
    52                           ; permitted provided that the following conditions are met:
    53                           ; 
    54                           ;     1. Redistributions of source code must retain the above copyright notice, this lis
      +                          t of
    55                           ;        conditions and the following disclaimer.
    56                           ; 
    57                           ;     2. Redistributions in binary form must reproduce the above copyright notice, this 
      +                          list
    58                           ;        of conditions and the following disclaimer in the documentation and/or other
    59                           ;        materials provided with the distribution. Publication is not required when
    60                           ;        this file is used in an embedded application.
    61                           ; 
    62                           ;     3. Microchip's name may not be used to endorse or promote products derived from th
      +                          is
    63                           ;        software without specific prior written permission.
    64                           ; 
    65                           ; THIS SOFTWARE IS PROVIDED BY MICROCHIP "AS IS" AND ANY EXPRESS OR IMPLIED WARRANTIES,
    66                           ; INCLUDING, BUT NOT LIMITED TO, THE IMPLIED WARRANTIES OF MERCHANTABILITY AND FITNESS F
      +                          OR
    67                           ; PURPOSE ARE DISCLAIMED.  IN NO EVENT SHALL MICROCHIP BE LIABLE FOR ANY DIRECT, INDIREC
      +                          T,
    68                           ; INCIDENTAL, SPECIAL, EXEMPLARY, OR CONSEQUENTIAL DAMAGES (INCLUDING BUT NOT LIMITED TO
    69                           ; PROCUREMENT OF SUBSTITUTE GOODS OR SERVICES; LOSS OF USE, DATA OR PROFITS; OR BUSINESS
    70                           ; INTERRUPTION) HOWSOEVER CAUSED AND ON ANY THEORY OF LIABILITY, WHETHER IN CONTRACT, ST
      +                          RICT
    71                           ; LIABILITY, OR TORT (INCLUDING NEGLIGENCE OR OTHERWISE) ARISING IN ANY WAY OUT OF THE U
      +                          SE OF
    72                           ; THIS SOFTWARE, EVEN IF ADVISED OF THE POSSIBILITY OF SUCH DAMAGE.
    73                           ; 
    74                           ; 
    75                           ; Code-generator required, PIC18F47Q10 Definitions
    76                           ; 
    77                           ; SFR Addresses
    78  0000                     
    79                           	psect	intcode
    80  000008  EF04 F005          	goto	2568	;# 
    81                           
    82                           	psect	intcodelo
    83  000018  EF0C F005          	goto	2584	;# 
    84  0000                     
    85 ;; Function _EUSART2_DefaultFramingErrorHandler is unused but had its address taken
    86  0000                     
    87 ;; Function _EUSART2_DefaultOverrunErrorHandler is unused but had its address taken
    88  0000                     
    89 ;; Function _EUSART2_DefaultErrorHandler is unused but had its address taken
    90  0000                     
    91                           ; 1 bytes @ 0x26
    92 ;;
    93 ;;Main: autosize = 0, tempsize = 0, incstack = 0, save=0
    94 ;;
    95 ;; *************** function _main *****************
    96 ;; Defined at:
    97 ;;		line 49 in file "main.c"
    98 ;; Parameters:    Size  Location     Type
    99 ;;		None
   100 ;; Auto vars:     Size  Location     Type
   101 ;;		None
   102 ;; Return value:  Size  Location     Type
   103 ;;                  1    wreg      void 
   104 ;; Registers used:
   105 ;;		wreg, fsr1l, fsr1h, fsr2l, fsr2h, status,2, status,0, cstack
   106 ;; Tracked objects:
   107 ;;		On entry : 0/0
   108 ;;		On exit  : 0/0
   109 ;;		Unchanged: 0/0
   110 ;; Data sizes:     COMRAM   BANK0   BANK1   BANK2   BANK3   BANK4   BANK5   BANK6   BANK7   BANK8   BANK9  BANK10  BANK1
      +1  BANK12  BANK14
   111 ;;      Params:         0       0       0       0       0       0       0       0       0       0       0       0       
      +0       0       0
   112 ;;      Locals:         0       0       0       0       0       0       0       0       0       0       0       0       
      +0       0       0
   113 ;;      Temps:          0       0       0       0       0       0       0       0       0       0       0       0       
      +0       0       0
   114 ;;      Totals:         0       0       0       0       0       0       0       0       0       0       0       0       
      +0       0       0
   115 ;;Total ram usage:        0 bytes
   116 ;; Hardware stack levels required when called: 6
   117 ;; This function calls:
   118 ;;		_SYSTEM_Initialize
   119 ;; This function is called by:
   120 ;;		Startup code after reset
   121 ;; This function uses a non-reentrant model
   122 ;;
   123                           
   124                           	psect	text0
   125  0008EC                     __ptext0:
   126                           	callstack 0
   127  0008EC                     _main:
   128                           	callstack 25
   129  0008EC                     
   130                           ;main.c: 52:     SYSTEM_Initialize();
   131  0008EC  EC4E  F004         	call	_SYSTEM_Initialize	;wreg free
   132  0008F0                     l479:
   133  0008F0  EF78  F004         	goto	l479
   134  0008F4  EF0E  F000         	goto	start
   135  0008F8                     __end_of_main:
   136                           	callstack 0
   137                           
   138                           	psect	nvCOMRAM
   139  000030                     __pnvCOMRAM:
   140                           	callstack 0
   141  000030                     _EUSART2_ErrorHandler:
   142                           	callstack 0
   143  000030                     	ds	2
   144  000032                     _EUSART2_OverrunErrorHandler:
   145                           	callstack 0
   146  000032                     	ds	2
   147  000034                     _EUSART2_FramingErrorHandler:
   148                           	callstack 0
   149  000034                     	ds	2
   150  0000                     _RX2PPS	set	3720
   151  0000                     _RD0PPS	set	3834
   152  0000                     _PIR7bits	set	3788
   153  0000                     _BAUDCTL2bits	set	3738
   154  0000                     _PMD5	set	3809
   155  0000                     _PMD4	set	3808
   156  0000                     _PMD3	set	3807
   157  0000                     _PMD2	set	3806
   158  0000                     _PMD1	set	3805
   159  0000                     _PMD0	set	3804
   160  0000                     _OSCTUNE	set	3800
   161  0000                     _OSCFRQ	set	3801
   162  0000                     _OSCEN	set	3799
   163  0000                     _OSCCON3	set	3797
   164  0000                     _OSCCON1	set	3795
   165  0000                     _TX2REG	set	3733
   166  0000                     _RC2REG	set	3732
   167  0000                     _RC2STAbits	set	3736
   168  0000                     _TX2STAbits	set	3737
   169  0000                     _PIR3bits	set	3784
   170  0000                     _SP2BRGH	set	3735
   171  0000                     _SP2BRGL	set	3734
   172  0000                     _TX2STA	set	3737
   173  0000                     _RC2STA	set	3736
   174  0000                     _BAUD2CON	set	3738
   175  0000                     _INLVLE	set	3877
   176  0000                     _INLVLD	set	3869
   177  0000                     _INLVLC	set	3864
   178  0000                     _INLVLB	set	3856
   179  0000                     _INLVLA	set	3848
   180  0000                     _SLRCONE	set	3878
   181  0000                     _SLRCOND	set	3870
   182  0000                     _SLRCONC	set	3865
   183  0000                     _SLRCONB	set	3857
   184  0000                     _SLRCONA	set	3849
   185  0000                     _ODCOND	set	3871
   186  0000                     _ODCONC	set	3866
   187  0000                     _ODCONB	set	3858
   188  0000                     _ODCONA	set	3850
   189  0000                     _ODCONE	set	3879
   190  0000                     _WPUC	set	3867
   191  0000                     _WPUA	set	3851
   192  0000                     _WPUB	set	3859
   193  0000                     _WPUE	set	3880
   194  0000                     _WPUD	set	3872
   195  0000                     _ANSELA	set	3852
   196  0000                     _ANSELE	set	3881
   197  0000                     _ANSELB	set	3860
   198  0000                     _ANSELC	set	3868
   199  0000                     _ANSELD	set	3873
   200  0000                     _TBLPTR	set	4086
   201  0000                     _TRISD	set	3978
   202  0000                     _TRISC	set	3977
   203  0000                     _TRISB	set	3976
   204  0000                     _TRISA	set	3975
   205  0000                     _TRISE	set	3979
   206  0000                     _LATC	set	3972
   207  0000                     _LATB	set	3971
   208  0000                     _LATA	set	3970
   209  0000                     _LATD	set	3973
   210  0000                     _LATE	set	3974
   211  0000                     _NVMCON1	set	3968
   212  0000                     _PORTBbits	set	3981
   213  0000                     _BSR	set	4064
   214  0000                     _STKPTR	set	4092
   215  0000                     _LATAbits	set	3970
   216  0000                     _NVMCON2	set	3969
   217  0000                     _NVMCON0bits	set	3967
   218  0000                     _INTCONbits	set	4082
   219  0000                     _NVMDATL	set	3964
   220  0000                     _NVMDATH	set	3965
   221  0000                     _NVMCON1bits	set	3968
   222  0000                     _NVMADRL	set	3961
   223  0000                     _NVMADRH	set	3962
   224  0000                     _NVMADRU	set	3963
   225  0000                     _TABLAT	set	4085
   226  0000                     _TBLPTRL	set	4086
   227  0000                     _TBLPTRH	set	4087
   228  0000                     _TBLPTRU	set	4088
   229                           
   230                           ; #config settings
   231                           
   232                           	psect	cinit
   233  00082E                     __pcinit:
   234                           	callstack 0
   235  00082E                     start_initialization:
   236                           	callstack 0
   237  00082E                     __initialization:
   238                           	callstack 0
   239                           
   240                           ; Clear objects allocated to BANK0 (137 bytes)
   241  00082E  EE00  F060         	lfsr	0,__pbssBANK0
   242  000832  0E89               	movlw	137
   243  000834                     clear_0:
   244  000834  6AEE               	clrf	postinc0,c
   245  000836  06E8               	decf	wreg,f,c
   246  000838  E1FD               	bnz	clear_0
   247                           
   248                           ; Clear objects allocated to COMRAM (8 bytes)
   249  00083A  EE00  F028         	lfsr	0,__pbssCOMRAM
   250  00083E  0E08               	movlw	8
   251  000840                     clear_1:
   252  000840  6AEE               	clrf	postinc0,c
   253  000842  06E8               	decf	wreg,f,c
   254  000844  E1FD               	bnz	clear_1
   255  000846                     end_of_initialization:
   256                           	callstack 0
   257  000846                     __end_of__initialization:
   258                           	callstack 0
   259  000846  0E00               	movlw	low (__Lmediumconst shr (0+16))
   260  000848  6EF8               	movwf	tblptru,c
   261  00084A  0100               	movlb	0
   262  00084C  EF76  F004         	goto	_main	;jump to C main() function
   263                           
   264                           	psect	bssCOMRAM
   265  000028                     __pbssCOMRAM:
   266                           	callstack 0
   267  000028                     _counter:
   268                           	callstack 0
   269  000028                     	ds	2
   270  00002A                     _check_sum:
   271                           	callstack 0
   272  00002A                     	ds	2
   273  00002C                     _reset_pending:
   274                           	callstack 0
   275  00002C                     	ds	1
   276  00002D                     _tx_data:
   277                           	callstack 0
   278  00002D                     	ds	1
   279  00002E                     _rx_data:
   280                           	callstack 0
   281  00002E                     	ds	1
   282  00002F                     _eusart2RxLastError:
   283                           	callstack 0
   284  00002F                     	ds	1
   285                           
   286                           	psect	bssBANK0
   287  000060                     __pbssBANK0:
   288                           	callstack 0
   289  000060                     _frame:
   290                           	callstack 0
   291  000060                     	ds	137
   292                           
   293                           	psect	cstackCOMRAM
   294  000002                     __pcstackCOMRAM:
   295                           	callstack 0
   296  000002                     ?_Get_Version_Data:
   297                           	callstack 0
   298  000002                     ?_Erase_Flash:
   299                           	callstack 0
   300  000002                     ?_Read_Config:
   301                           	callstack 0
   302  000002                     ?_Write_Config:
   303                           	callstack 0
   304  000002                     ?_Calc_Checksum:
   305                           	callstack 0
   306  000002                     EUSART2_Write@txData:
   307                           	callstack 0
   308  000002                     Bootload_Required@i:
   309                           	callstack 0
   310  000002                     EUSART2_SetFramingErrorHandler@interruptHandler:
   311                           	callstack 0
   312  000002                     EUSART2_SetOverrunErrorHandler@interruptHandler:
   313                           	callstack 0
   314  000002                     EUSART2_SetErrorHandler@interruptHandler:
   315                           	callstack 0
   316  000002                     FLASH_ReadSector@flashAddr:
   317                           	callstack 0
   318                           
   319                           ; 4 bytes @ 0x0
   320  000002                     	ds	2
   321  000004                     ??_Erase_Flash:
   322  000004                     ??_Read_Config:
   323  000004                     ??_Write_Config:
   324  000004                     ??_Calc_Checksum:
   325  000004                     Get_Version_Data@i:
   326                           	callstack 0
   327                           
   328                           ; 1 bytes @ 0x2
   329  000004                     	ds	2
   330  000006                     FLASH_ReadSector@GIEBitValue:
   331                           	callstack 0
   332  000006                     Read_Config@i:
   333                           	callstack 0
   334  000006                     Write_Config@i:
   335                           	callstack 0
   336                           
   337                           ; 1 bytes @ 0x4
   338  000006                     	ds	1
   339  000007                     ?_Write_Flash:
   340                           	callstack 0
   341                           
   342                           ; 2 bytes @ 0x5
   343  000007                     	ds	1
   344  000008                     Calc_Checksum@i:
   345                           	callstack 0
   346                           
   347                           ; 4 bytes @ 0x6
   348  000008                     	ds	1
   349  000009                     ??_Write_Flash:
   350                           
   351                           ; 1 bytes @ 0x7
   352  000009                     	ds	3
   353  00000C                     Calc_Checksum@length:
   354                           	callstack 0
   355                           
   356                           ; 4 bytes @ 0xA
   357  00000C                     	ds	4
   358  000010                     Erase_Flash@address:
   359                           	callstack 0
   360                           
   361                           ; 4 bytes @ 0xE
   362  000010                     	ds	4
   363  000014                     Erase_Flash@i:
   364                           	callstack 0
   365                           
   366                           ; 2 bytes @ 0x12
   367  000014                     	ds	1
   368  000015                     Write_Flash@GIEBitValue:
   369                           	callstack 0
   370                           
   371                           ; 1 bytes @ 0x13
   372  000015                     	ds	1
   373  000016                     Erase_Flash@GIEBitValue:
   374                           	callstack 0
   375  000016                     Write_Flash@address:
   376                           	callstack 0
   377                           
   378                           ; 4 bytes @ 0x14
   379  000016                     	ds	1
   380  000017                     Erase_Flash@blockStartAddr:
   381                           	callstack 0
   382                           
   383                           ; 4 bytes @ 0x15
   384  000017                     	ds	3
   385  00001A                     Write_Flash@i:
   386                           	callstack 0
   387                           
   388                           ; 2 bytes @ 0x18
   389  00001A                     	ds	2
   390  00001C                     ?_ProcessBootBuffer:
   391                           	callstack 0
   392                           
   393                           ; 2 bytes @ 0x1A
   394  00001C                     	ds	2
   395  00001E                     ??_ProcessBootBuffer:
   396                           
   397                           ; 1 bytes @ 0x1C
   398  00001E                     	ds	2
   399  000020                     ProcessBootBuffer@len:
   400                           	callstack 0
   401                           
   402                           ; 2 bytes @ 0x1E
   403  000020                     	ds	2
   404  000022                     ??_Run_Bootloader:
   405                           
   406                           ; 1 bytes @ 0x20
   407  000022                     	ds	1
   408  000023                     Run_Bootloader@ch:
   409                           	callstack 0
   410                           
   411                           ; 1 bytes @ 0x21
   412  000023                     	ds	1
   413  000024                     Run_Bootloader@msg_length:
   414                           	callstack 0
   415                           
   416                           ; 2 bytes @ 0x22
   417  000024                     	ds	2
   418  000026                     Run_Bootloader@index:
   419                           	callstack 0
   420                           
   421                           ; 2 bytes @ 0x24
   422  000026                     	ds	2
   423  000028                     
   424 ;; *************** function _SYSTEM_Initialize *****************
   425 ;; Defined at:
   426 ;;		line 50 in file "mcc_generated_files/mcc.c"
   427 ;; Parameters:    Size  Location     Type
   428 ;;		None
   429 ;; Auto vars:     Size  Location     Type
   430 ;;		None
   431 ;; Return value:  Size  Location     Type
   432 ;;                  1    wreg      void 
   433 ;; Registers used:
   434 ;;		wreg, fsr1l, fsr1h, fsr2l, fsr2h, status,2, status,0, cstack
   435 ;; Tracked objects:
   436 ;;		On entry : 0/0
   437 ;;		On exit  : 0/0
   438 ;;		Unchanged: 0/0
   439 ;; Data sizes:     COMRAM   BANK0   BANK1   BANK2   BANK3   BANK4   BANK5   BANK6   BANK7   BANK8   BANK9  BANK10  BANK1
      +1  BANK12  BANK14
   440 ;;      Params:         0       0       0       0       0       0       0       0       0       0       0       0       
      +0       0       0
   441 ;;      Locals:         0       0       0       0       0       0       0       0       0       0       0       0       
      +0       0       0
   442 ;;      Temps:          0       0       0       0       0       0       0       0       0       0       0       0       
      +0       0       0
   443 ;;      Totals:         0       0       0       0       0       0       0       0       0       0       0       0       
      +0       0       0
   444 ;;Total ram usage:        0 bytes
   445 ;; Hardware stack levels used: 1
   446 ;; Hardware stack levels required when called: 5
   447 ;; This function calls:
   448 ;;		_BOOTLOADER_Initialize
   449 ;;		_EUSART2_Initialize
   450 ;;		_OSCILLATOR_Initialize
   451 ;;		_PIN_MANAGER_Initialize
   452 ;;		_PMD_Initialize
   453 ;; This function is called by:
   454 ;;		_main
   455 ;; This function uses a non-reentrant model
   456 ;;
   457                           
   458                           	psect	text1
   459  00089C                     __ptext1:
   460                           	callstack 0
   461  00089C                     _SYSTEM_Initialize:
   462                           	callstack 25
   463  00089C                     
   464                           ;mcc_generated_files/mcc.c: 52:     PMD_Initialize();
   465  00089C  EC28  F004         	call	_PMD_Initialize	;wreg free
   466                           
   467                           ;mcc_generated_files/mcc.c: 53:     PIN_MANAGER_Initialize();
   468  0008A0  ECCF  F002         	call	_PIN_MANAGER_Initialize	;wreg free
   469                           
   470                           ;mcc_generated_files/mcc.c: 54:     OSCILLATOR_Initialize();
   471  0008A4  EC36  F004         	call	_OSCILLATOR_Initialize	;wreg free
   472  0008A8                     
   473                           ;mcc_generated_files/mcc.c: 55:     EUSART2_Initialize();
   474  0008A8  ECAA  F003         	call	_EUSART2_Initialize	;wreg free
   475  0008AC                     
   476                           ;mcc_generated_files/mcc.c: 56:     BOOTLOADER_Initialize();
   477  0008AC  ECE9  F003         	call	_BOOTLOADER_Initialize	;wreg free
   478  0008B0  0012               	return		;funcret
   479  0008B2                     __end_of_SYSTEM_Initialize:
   480                           	callstack 0
   481                           
   482 ;; *************** function _PMD_Initialize *****************
   483 ;; Defined at:
   484 ;;		line 73 in file "mcc_generated_files/mcc.c"
   485 ;; Parameters:    Size  Location     Type
   486 ;;		None
   487 ;; Auto vars:     Size  Location     Type
   488 ;;		None
   489 ;; Return value:  Size  Location     Type
   490 ;;                  1    wreg      void 
   491 ;; Registers used:
   492 ;;		wreg, status,2
   493 ;; Tracked objects:
   494 ;;		On entry : 0/0
   495 ;;		On exit  : 0/0
   496 ;;		Unchanged: 0/0
   497 ;; Data sizes:     COMRAM   BANK0   BANK1   BANK2   BANK3   BANK4   BANK5   BANK6   BANK7   BANK8   BANK9  BANK10  BANK1
      +1  BANK12  BANK14
   498 ;;      Params:         0       0       0       0       0       0       0       0       0       0       0       0       
      +0       0       0
   499 ;;      Locals:         0       0       0       0       0       0       0       0       0       0       0       0       
      +0       0       0
   500 ;;      Temps:          0       0       0       0       0       0       0       0       0       0       0       0       
      +0       0       0
   501 ;;      Totals:         0       0       0       0       0       0       0       0       0       0       0       0       
      +0       0       0
   502 ;;Total ram usage:        0 bytes
   503 ;; Hardware stack levels used: 1
   504 ;; This function calls:
   505 ;;		Nothing
   506 ;; This function is called by:
   507 ;;		_SYSTEM_Initialize
   508 ;; This function uses a non-reentrant model
   509 ;;
   510                           
   511                           	psect	text2
   512  000850                     __ptext2:
   513                           	callstack 0
   514  000850                     _PMD_Initialize:
   515                           	callstack 29
   516  000850                     
   517                           ;mcc_generated_files/mcc.c: 76:     PMD0 = 0x00;
   518  000850  0E00               	movlw	0
   519  000852  010E               	movlb	14	; () banked
   520  000854  6FDC               	movwf	220,b	;volatile
   521                           
   522                           ;mcc_generated_files/mcc.c: 78:     PMD1 = 0x00;
   523  000856  0E00               	movlw	0
   524  000858  6FDD               	movwf	221,b	;volatile
   525                           
   526                           ;mcc_generated_files/mcc.c: 80:     PMD2 = 0x00;
   527  00085A  0E00               	movlw	0
   528  00085C  6FDE               	movwf	222,b	;volatile
   529                           
   530                           ;mcc_generated_files/mcc.c: 82:     PMD3 = 0x00;
   531  00085E  0E00               	movlw	0
   532  000860  6FDF               	movwf	223,b	;volatile
   533                           
   534                           ;mcc_generated_files/mcc.c: 84:     PMD4 = 0x00;
   535  000862  0E00               	movlw	0
   536  000864  6FE0               	movwf	224,b	;volatile
   537                           
   538                           ;mcc_generated_files/mcc.c: 86:     PMD5 = 0x00;
   539  000866  0E00               	movlw	0
   540  000868  6FE1               	movwf	225,b	;volatile
   541  00086A                     
   542                           ; BSR set to: 14
   543  00086A  0012               	return		;funcret
   544  00086C                     __end_of_PMD_Initialize:
   545                           	callstack 0
   546                           
   547 ;; *************** function _PIN_MANAGER_Initialize *****************
   548 ;; Defined at:
   549 ;;		line 55 in file "mcc_generated_files/pin_manager.c"
   550 ;; Parameters:    Size  Location     Type
   551 ;;		None
   552 ;; Auto vars:     Size  Location     Type
   553 ;;		None
   554 ;; Return value:  Size  Location     Type
   555 ;;                  1    wreg      void 
   556 ;; Registers used:
   557 ;;		wreg, status,2
   558 ;; Tracked objects:
   559 ;;		On entry : 0/0
   560 ;;		On exit  : 0/0
   561 ;;		Unchanged: 0/0
   562 ;; Data sizes:     COMRAM   BANK0   BANK1   BANK2   BANK3   BANK4   BANK5   BANK6   BANK7   BANK8   BANK9  BANK10  BANK1
      +1  BANK12  BANK14
   563 ;;      Params:         0       0       0       0       0       0       0       0       0       0       0       0       
      +0       0       0
   564 ;;      Locals:         0       0       0       0       0       0       0       0       0       0       0       0       
      +0       0       0
   565 ;;      Temps:          0       0       0       0       0       0       0       0       0       0       0       0       
      +0       0       0
   566 ;;      Totals:         0       0       0       0       0       0       0       0       0       0       0       0       
      +0       0       0
   567 ;;Total ram usage:        0 bytes
   568 ;; Hardware stack levels used: 1
   569 ;; This function calls:
   570 ;;		Nothing
   571 ;; This function is called by:
   572 ;;		_SYSTEM_Initialize
   573 ;; This function uses a non-reentrant model
   574 ;;
   575                           
   576                           	psect	text3
   577  00059E                     __ptext3:
   578                           	callstack 0
   579  00059E                     _PIN_MANAGER_Initialize:
   580                           	callstack 29
   581  00059E                     
   582                           ;mcc_generated_files/pin_manager.c: 60:     LATE = 0x00;
   583  00059E  0E00               	movlw	0
   584  0005A0  6E86               	movwf	134,c	;volatile
   585                           
   586                           ;mcc_generated_files/pin_manager.c: 61:     LATD = 0x01;
   587  0005A2  0E01               	movlw	1
   588  0005A4  6E85               	movwf	133,c	;volatile
   589                           
   590                           ;mcc_generated_files/pin_manager.c: 62:     LATA = 0x00;
   591  0005A6  0E00               	movlw	0
   592  0005A8  6E82               	movwf	130,c	;volatile
   593                           
   594                           ;mcc_generated_files/pin_manager.c: 63:     LATB = 0x00;
   595  0005AA  0E00               	movlw	0
   596  0005AC  6E83               	movwf	131,c	;volatile
   597                           
   598                           ;mcc_generated_files/pin_manager.c: 64:     LATC = 0x00;
   599  0005AE  0E00               	movlw	0
   600  0005B0  6E84               	movwf	132,c	;volatile
   601                           
   602                           ;mcc_generated_files/pin_manager.c: 69:     TRISE = 0x07;
   603  0005B2  0E07               	movlw	7
   604  0005B4  6E8B               	movwf	139,c	;volatile
   605                           
   606                           ;mcc_generated_files/pin_manager.c: 70:     TRISA = 0x7F;
   607  0005B6  0E7F               	movlw	127
   608  0005B8  6E87               	movwf	135,c	;volatile
   609  0005BA                     
   610                           ;mcc_generated_files/pin_manager.c: 71:     TRISB = 0xFF;
   611  0005BA  6888               	setf	136,c	;volatile
   612  0005BC                     
   613                           ;mcc_generated_files/pin_manager.c: 72:     TRISC = 0xFF;
   614  0005BC  6889               	setf	137,c	;volatile
   615                           
   616                           ;mcc_generated_files/pin_manager.c: 73:     TRISD = 0xFE;
   617  0005BE  0EFE               	movlw	254
   618  0005C0  6E8A               	movwf	138,c	;volatile
   619                           
   620                           ;mcc_generated_files/pin_manager.c: 78:     ANSELD = 0xFC;
   621  0005C2  0EFC               	movlw	252
   622  0005C4  010F               	movlb	15	; () banked
   623  0005C6  6F21               	movwf	33,b	;volatile
   624  0005C8                     
   625                           ; BSR set to: 15
   626                           ;mcc_generated_files/pin_manager.c: 79:     ANSELC = 0xFF;
   627  0005C8  691C               	setf	28,b	;volatile
   628                           
   629                           ;mcc_generated_files/pin_manager.c: 80:     ANSELB = 0xEF;
   630  0005CA  0EEF               	movlw	239
   631  0005CC  6F14               	movwf	20,b	;volatile
   632                           
   633                           ;mcc_generated_files/pin_manager.c: 81:     ANSELE = 0x07;
   634  0005CE  0E07               	movlw	7
   635  0005D0  6F29               	movwf	41,b	;volatile
   636                           
   637                           ;mcc_generated_files/pin_manager.c: 82:     ANSELA = 0x7F;
   638  0005D2  0E7F               	movlw	127
   639  0005D4  6F0C               	movwf	12,b	;volatile
   640                           
   641                           ;mcc_generated_files/pin_manager.c: 87:     WPUD = 0x00;
   642  0005D6  0E00               	movlw	0
   643  0005D8  6F20               	movwf	32,b	;volatile
   644                           
   645                           ;mcc_generated_files/pin_manager.c: 88:     WPUE = 0x00;
   646  0005DA  0E00               	movlw	0
   647  0005DC  6F28               	movwf	40,b	;volatile
   648                           
   649                           ;mcc_generated_files/pin_manager.c: 89:     WPUB = 0x00;
   650  0005DE  0E00               	movlw	0
   651  0005E0  6F13               	movwf	19,b	;volatile
   652                           
   653                           ;mcc_generated_files/pin_manager.c: 90:     WPUA = 0x00;
   654  0005E2  0E00               	movlw	0
   655  0005E4  6F0B               	movwf	11,b	;volatile
   656                           
   657                           ;mcc_generated_files/pin_manager.c: 91:     WPUC = 0x00;
   658  0005E6  0E00               	movlw	0
   659  0005E8  6F1B               	movwf	27,b	;volatile
   660                           
   661                           ;mcc_generated_files/pin_manager.c: 96:     ODCONE = 0x00;
   662  0005EA  0E00               	movlw	0
   663  0005EC  6F27               	movwf	39,b	;volatile
   664                           
   665                           ;mcc_generated_files/pin_manager.c: 97:     ODCONA = 0x00;
   666  0005EE  0E00               	movlw	0
   667  0005F0  6F0A               	movwf	10,b	;volatile
   668                           
   669                           ;mcc_generated_files/pin_manager.c: 98:     ODCONB = 0x00;
   670  0005F2  0E00               	movlw	0
   671  0005F4  6F12               	movwf	18,b	;volatile
   672                           
   673                           ;mcc_generated_files/pin_manager.c: 99:     ODCONC = 0x00;
   674  0005F6  0E00               	movlw	0
   675  0005F8  6F1A               	movwf	26,b	;volatile
   676                           
   677                           ;mcc_generated_files/pin_manager.c: 100:     ODCOND = 0x00;
   678  0005FA  0E00               	movlw	0
   679  0005FC  6F1F               	movwf	31,b	;volatile
   680  0005FE                     
   681                           ; BSR set to: 15
   682                           ;mcc_generated_files/pin_manager.c: 105:     SLRCONA = 0xFF;
   683  0005FE  6909               	setf	9,b	;volatile
   684  000600                     
   685                           ; BSR set to: 15
   686                           ;mcc_generated_files/pin_manager.c: 106:     SLRCONB = 0xFF;
   687  000600  6911               	setf	17,b	;volatile
   688  000602                     
   689                           ; BSR set to: 15
   690                           ;mcc_generated_files/pin_manager.c: 107:     SLRCONC = 0xFF;
   691  000602  6919               	setf	25,b	;volatile
   692  000604                     
   693                           ; BSR set to: 15
   694                           ;mcc_generated_files/pin_manager.c: 108:     SLRCOND = 0xFF;
   695  000604  691E               	setf	30,b	;volatile
   696                           
   697                           ;mcc_generated_files/pin_manager.c: 109:     SLRCONE = 0x07;
   698  000606  0E07               	movlw	7
   699  000608  6F26               	movwf	38,b	;volatile
   700  00060A                     
   701                           ; BSR set to: 15
   702                           ;mcc_generated_files/pin_manager.c: 114:     INLVLA = 0xFF;
   703  00060A  6908               	setf	8,b	;volatile
   704  00060C                     
   705                           ; BSR set to: 15
   706                           ;mcc_generated_files/pin_manager.c: 115:     INLVLB = 0xFF;
   707  00060C  6910               	setf	16,b	;volatile
   708  00060E                     
   709                           ; BSR set to: 15
   710                           ;mcc_generated_files/pin_manager.c: 116:     INLVLC = 0xFF;
   711  00060E  6918               	setf	24,b	;volatile
   712  000610                     
   713                           ; BSR set to: 15
   714                           ;mcc_generated_files/pin_manager.c: 117:     INLVLD = 0xFF;
   715  000610  691D               	setf	29,b	;volatile
   716                           
   717                           ;mcc_generated_files/pin_manager.c: 118:     INLVLE = 0x0F;
   718  000612  0E0F               	movlw	15
   719  000614  6F25               	movwf	37,b	;volatile
   720                           
   721                           ;mcc_generated_files/pin_manager.c: 127:     RD0PPS = 0x0B;
   722  000616  0E0B               	movlw	11
   723  000618  010E               	movlb	14	; () banked
   724  00061A  6FFA               	movwf	250,b	;volatile
   725                           
   726                           ;mcc_generated_files/pin_manager.c: 128:     RX2PPS = 0x19;
   727  00061C  0E19               	movlw	25
   728  00061E  6F88               	movwf	136,b	;volatile
   729  000620                     
   730                           ; BSR set to: 14
   731  000620  0012               	return		;funcret
   732  000622                     __end_of_PIN_MANAGER_Initialize:
   733                           	callstack 0
   734                           
   735 ;; *************** function _OSCILLATOR_Initialize *****************
   736 ;; Defined at:
   737 ;;		line 59 in file "mcc_generated_files/mcc.c"
   738 ;; Parameters:    Size  Location     Type
   739 ;;		None
   740 ;; Auto vars:     Size  Location     Type
   741 ;;		None
   742 ;; Return value:  Size  Location     Type
   743 ;;                  1    wreg      void 
   744 ;; Registers used:
   745 ;;		wreg, status,2
   746 ;; Tracked objects:
   747 ;;		On entry : 0/0
   748 ;;		On exit  : 0/0
   749 ;;		Unchanged: 0/0
   750 ;; Data sizes:     COMRAM   BANK0   BANK1   BANK2   BANK3   BANK4   BANK5   BANK6   BANK7   BANK8   BANK9  BANK10  BANK1
      +1  BANK12  BANK14
   751 ;;      Params:         0       0       0       0       0       0       0       0       0       0       0       0       
      +0       0       0
   752 ;;      Locals:         0       0       0       0       0       0       0       0       0       0       0       0       
      +0       0       0
   753 ;;      Temps:          0       0       0       0       0       0       0       0       0       0       0       0       
      +0       0       0
   754 ;;      Totals:         0       0       0       0       0       0       0       0       0       0       0       0       
      +0       0       0
   755 ;;Total ram usage:        0 bytes
   756 ;; Hardware stack levels used: 1
   757 ;; This function calls:
   758 ;;		Nothing
   759 ;; This function is called by:
   760 ;;		_SYSTEM_Initialize
   761 ;; This function uses a non-reentrant model
   762 ;;
   763                           
   764                           	psect	text4
   765  00086C                     __ptext4:
   766                           	callstack 0
   767  00086C                     _OSCILLATOR_Initialize:
   768                           	callstack 29
   769  00086C                     
   770                           ;mcc_generated_files/mcc.c: 62:     OSCCON1 = 0x60;
   771  00086C  0E60               	movlw	96
   772  00086E  010E               	movlb	14	; () banked
   773  000870  6FD3               	movwf	211,b	;volatile
   774                           
   775                           ;mcc_generated_files/mcc.c: 64:     OSCCON3 = 0x00;
   776  000872  0E00               	movlw	0
   777  000874  6FD5               	movwf	213,b	;volatile
   778                           
   779                           ;mcc_generated_files/mcc.c: 66:     OSCEN = 0x00;
   780  000876  0E00               	movlw	0
   781  000878  6FD7               	movwf	215,b	;volatile
   782                           
   783                           ;mcc_generated_files/mcc.c: 68:     OSCFRQ = 0x08;
   784  00087A  0E08               	movlw	8
   785  00087C  6FD9               	movwf	217,b	;volatile
   786                           
   787                           ;mcc_generated_files/mcc.c: 70:     OSCTUNE = 0x00;
   788  00087E  0E00               	movlw	0
   789  000880  6FD8               	movwf	216,b	;volatile
   790  000882                     
   791                           ; BSR set to: 14
   792  000882  0012               	return		;funcret
   793  000884                     __end_of_OSCILLATOR_Initialize:
   794                           	callstack 0
   795                           
   796 ;; *************** function _EUSART2_Initialize *****************
   797 ;; Defined at:
   798 ;;		line 66 in file "mcc_generated_files/eusart2.c"
   799 ;; Parameters:    Size  Location     Type
   800 ;;		None
   801 ;; Auto vars:     Size  Location     Type
   802 ;;		None
   803 ;; Return value:  Size  Location     Type
   804 ;;                  1    wreg      void 
   805 ;; Registers used:
   806 ;;		wreg, status,2, status,0, cstack
   807 ;; Tracked objects:
   808 ;;		On entry : 0/0
   809 ;;		On exit  : 0/0
   810 ;;		Unchanged: 0/0
   811 ;; Data sizes:     COMRAM   BANK0   BANK1   BANK2   BANK3   BANK4   BANK5   BANK6   BANK7   BANK8   BANK9  BANK10  BANK1
      +1  BANK12  BANK14
   812 ;;      Params:         0       0       0       0       0       0       0       0       0       0       0       0       
      +0       0       0
   813 ;;      Locals:         0       0       0       0       0       0       0       0       0       0       0       0       
      +0       0       0
   814 ;;      Temps:          0       0       0       0       0       0       0       0       0       0       0       0       
      +0       0       0
   815 ;;      Totals:         0       0       0       0       0       0       0       0       0       0       0       0       
      +0       0       0
   816 ;;Total ram usage:        0 bytes
   817 ;; Hardware stack levels used: 1
   818 ;; Hardware stack levels required when called: 1
   819 ;; This function calls:
   820 ;;		_EUSART2_SetErrorHandler
   821 ;;		_EUSART2_SetFramingErrorHandler
   822 ;;		_EUSART2_SetOverrunErrorHandler
   823 ;; This function is called by:
   824 ;;		_SYSTEM_Initialize
   825 ;; This function uses a non-reentrant model
   826 ;;
   827                           
   828                           	psect	text5
   829  000754                     __ptext5:
   830                           	callstack 0
   831  000754                     _EUSART2_Initialize:
   832                           	callstack 28
   833  000754                     
   834                           ;mcc_generated_files/eusart2.c: 71:     BAUD2CON = 0x08;
   835  000754  0E08               	movlw	8
   836  000756  010E               	movlb	14	; () banked
   837  000758  6F9A               	movwf	154,b	;volatile
   838                           
   839                           ;mcc_generated_files/eusart2.c: 74:     RC2STA = 0x90;
   840  00075A  0E90               	movlw	144
   841  00075C  6F98               	movwf	152,b	;volatile
   842                           
   843                           ;mcc_generated_files/eusart2.c: 77:     TX2STA = 0x24;
   844  00075E  0E24               	movlw	36
   845  000760  6F99               	movwf	153,b	;volatile
   846                           
   847                           ;mcc_generated_files/eusart2.c: 80:     SP2BRGL = 0x82;
   848  000762  0E82               	movlw	130
   849  000764  6F96               	movwf	150,b	;volatile
   850                           
   851                           ;mcc_generated_files/eusart2.c: 83:     SP2BRGH = 0x06;
   852  000766  0E06               	movlw	6
   853  000768  6F97               	movwf	151,b	;volatile
   854  00076A                     
   855                           ; BSR set to: 14
   856                           ;mcc_generated_files/eusart2.c: 86:     EUSART2_SetFramingErrorHandler(EUSART2_DefaultFr
      +                          amingErrorHandler);
   857  00076A  0E00               	movlw	0
   858  00076C  6E02               	movwf	EUSART2_SetFramingErrorHandler@interruptHandler^0,c
   859  00076E  0E00               	movlw	0
   860  000770  6E03               	movwf	(EUSART2_SetFramingErrorHandler@interruptHandler+1)^0,c
   861  000772  EC81  F004         	call	_EUSART2_SetFramingErrorHandler	;wreg free
   862  000776                     
   863                           ;mcc_generated_files/eusart2.c: 87:     EUSART2_SetOverrunErrorHandler(EUSART2_DefaultOv
      +                          errunErrorHandler);
   864  000776  0E00               	movlw	0
   865  000778  6E02               	movwf	EUSART2_SetOverrunErrorHandler@interruptHandler^0,c
   866  00077A  0E00               	movlw	0
   867  00077C  6E03               	movwf	(EUSART2_SetOverrunErrorHandler@interruptHandler+1)^0,c
   868  00077E  EC7C  F004         	call	_EUSART2_SetOverrunErrorHandler	;wreg free
   869  000782                     
   870                           ;mcc_generated_files/eusart2.c: 88:     EUSART2_SetErrorHandler(EUSART2_DefaultErrorHand
      +                          ler);
   871  000782  0E00               	movlw	0
   872  000784  6E02               	movwf	EUSART2_SetErrorHandler@interruptHandler^0,c
   873  000786  0E00               	movlw	0
   874  000788  6E03               	movwf	(EUSART2_SetErrorHandler@interruptHandler+1)^0,c
   875  00078A  EC86  F004         	call	_EUSART2_SetErrorHandler	;wreg free
   876  00078E                     
   877                           ;mcc_generated_files/eusart2.c: 90:     eusart2RxLastError.status = 0;
   878  00078E  0E00               	movlw	0
   879  000790  6E2F               	movwf	_eusart2RxLastError^0,c	;volatile
   880  000792  0012               	return		;funcret
   881  000794                     __end_of_EUSART2_Initialize:
   882                           	callstack 0
   883                           
   884 ;; *************** function _EUSART2_SetOverrunErrorHandler *****************
   885 ;; Defined at:
   886 ;;		line 161 in file "mcc_generated_files/eusart2.c"
   887 ;; Parameters:    Size  Location     Type
   888 ;;  interruptHan    2    0[COMRAM] PTR FTN()void 
   889 ;;		 -> EUSART2_DefaultOverrunErrorHandler(1), 
   890 ;; Auto vars:     Size  Location     Type
   891 ;;		None
   892 ;; Return value:  Size  Location     Type
   893 ;;                  1    wreg      void 
   894 ;; Registers used:
   895 ;;		wreg, status,2, status,0
   896 ;; Tracked objects:
   897 ;;		On entry : 0/0
   898 ;;		On exit  : 0/0
   899 ;;		Unchanged: 0/0
   900 ;; Data sizes:     COMRAM   BANK0   BANK1   BANK2   BANK3   BANK4   BANK5   BANK6   BANK7   BANK8   BANK9  BANK10  BANK1
      +1  BANK12  BANK14
   901 ;;      Params:         2       0       0       0       0       0       0       0       0       0       0       0       
      +0       0       0
   902 ;;      Locals:         0       0       0       0       0       0       0       0       0       0       0       0       
      +0       0       0
   903 ;;      Temps:          0       0       0       0       0       0       0       0       0       0       0       0       
      +0       0       0
   904 ;;      Totals:         2       0       0       0       0       0       0       0       0       0       0       0       
      +0       0       0
   905 ;;Total ram usage:        2 bytes
   906 ;; Hardware stack levels used: 1
   907 ;; This function calls:
   908 ;;		Nothing
   909 ;; This function is called by:
   910 ;;		_EUSART2_Initialize
   911 ;; This function uses a non-reentrant model
   912 ;;
   913                           
   914                           	psect	text6
   915  0008F8                     __ptext6:
   916                           	callstack 0
   917  0008F8                     _EUSART2_SetOverrunErrorHandler:
   918                           	callstack 28
   919  0008F8                     
   920                           ;mcc_generated_files/eusart2.c: 162:     EUSART2_OverrunErrorHandler = interruptHandler;
   921  0008F8  C002  F032         	movff	EUSART2_SetOverrunErrorHandler@interruptHandler,_EUSART2_OverrunErrorHandler
   922  0008FC  C003  F033         	movff	EUSART2_SetOverrunErrorHandler@interruptHandler+1,_EUSART2_OverrunErrorHandler+1
   923  000900  0012               	return		;funcret
   924  000902                     __end_of_EUSART2_SetOverrunErrorHandler:
   925                           	callstack 0
   926                           
   927 ;; *************** function _EUSART2_SetFramingErrorHandler *****************
   928 ;; Defined at:
   929 ;;		line 157 in file "mcc_generated_files/eusart2.c"
   930 ;; Parameters:    Size  Location     Type
   931 ;;  interruptHan    2    0[COMRAM] PTR FTN()void 
   932 ;;		 -> EUSART2_DefaultFramingErrorHandler(1), 
   933 ;; Auto vars:     Size  Location     Type
   934 ;;		None
   935 ;; Return value:  Size  Location     Type
   936 ;;                  1    wreg      void 
   937 ;; Registers used:
   938 ;;		wreg, status,2, status,0
   939 ;; Tracked objects:
   940 ;;		On entry : 0/0
   941 ;;		On exit  : 0/0
   942 ;;		Unchanged: 0/0
   943 ;; Data sizes:     COMRAM   BANK0   BANK1   BANK2   BANK3   BANK4   BANK5   BANK6   BANK7   BANK8   BANK9  BANK10  BANK1
      +1  BANK12  BANK14
   944 ;;      Params:         2       0       0       0       0       0       0       0       0       0       0       0       
      +0       0       0
   945 ;;      Locals:         0       0       0       0       0       0       0       0       0       0       0       0       
      +0       0       0
   946 ;;      Temps:          0       0       0       0       0       0       0       0       0       0       0       0       
      +0       0       0
   947 ;;      Totals:         2       0       0       0       0       0       0       0       0       0       0       0       
      +0       0       0
   948 ;;Total ram usage:        2 bytes
   949 ;; Hardware stack levels used: 1
   950 ;; This function calls:
   951 ;;		Nothing
   952 ;; This function is called by:
   953 ;;		_EUSART2_Initialize
   954 ;; This function uses a non-reentrant model
   955 ;;
   956                           
   957                           	psect	text7
   958  000902                     __ptext7:
   959                           	callstack 0
   960  000902                     _EUSART2_SetFramingErrorHandler:
   961                           	callstack 28
   962  000902                     
   963                           ;mcc_generated_files/eusart2.c: 158:     EUSART2_FramingErrorHandler = interruptHandler;
   964  000902  C002  F034         	movff	EUSART2_SetFramingErrorHandler@interruptHandler,_EUSART2_FramingErrorHandler
   965  000906  C003  F035         	movff	EUSART2_SetFramingErrorHandler@interruptHandler+1,_EUSART2_FramingErrorHandler+1
   966  00090A  0012               	return		;funcret
   967  00090C                     __end_of_EUSART2_SetFramingErrorHandler:
   968                           	callstack 0
   969                           
   970 ;; *************** function _EUSART2_SetErrorHandler *****************
   971 ;; Defined at:
   972 ;;		line 165 in file "mcc_generated_files/eusart2.c"
   973 ;; Parameters:    Size  Location     Type
   974 ;;  interruptHan    2    0[COMRAM] PTR FTN()void 
   975 ;;		 -> EUSART2_DefaultErrorHandler(1), 
   976 ;; Auto vars:     Size  Location     Type
   977 ;;		None
   978 ;; Return value:  Size  Location     Type
   979 ;;                  1    wreg      void 
   980 ;; Registers used:
   981 ;;		wreg, status,2, status,0
   982 ;; Tracked objects:
   983 ;;		On entry : 0/0
   984 ;;		On exit  : 0/0
   985 ;;		Unchanged: 0/0
   986 ;; Data sizes:     COMRAM   BANK0   BANK1   BANK2   BANK3   BANK4   BANK5   BANK6   BANK7   BANK8   BANK9  BANK10  BANK1
      +1  BANK12  BANK14
   987 ;;      Params:         2       0       0       0       0       0       0       0       0       0       0       0       
      +0       0       0
   988 ;;      Locals:         0       0       0       0       0       0       0       0       0       0       0       0       
      +0       0       0
   989 ;;      Temps:          0       0       0       0       0       0       0       0       0       0       0       0       
      +0       0       0
   990 ;;      Totals:         2       0       0       0       0       0       0       0       0       0       0       0       
      +0       0       0
   991 ;;Total ram usage:        2 bytes
   992 ;; Hardware stack levels used: 1
   993 ;; This function calls:
   994 ;;		Nothing
   995 ;; This function is called by:
   996 ;;		_EUSART2_Initialize
   997 ;; This function uses a non-reentrant model
   998 ;;
   999                           
  1000                           	psect	text8
  1001  00090C                     __ptext8:
  1002                           	callstack 0
  1003  00090C                     _EUSART2_SetErrorHandler:
  1004                           	callstack 28
  1005  00090C                     
  1006                           ;mcc_generated_files/eusart2.c: 166:     EUSART2_ErrorHandler = interruptHandler;
  1007  00090C  C002  F030         	movff	EUSART2_SetErrorHandler@interruptHandler,_EUSART2_ErrorHandler
  1008  000910  C003  F031         	movff	EUSART2_SetErrorHandler@interruptHandler+1,_EUSART2_ErrorHandler+1
  1009  000914  0012               	return		;funcret
  1010  000916                     __end_of_EUSART2_SetErrorHandler:
  1011                           	callstack 0
  1012                           
  1013 ;; *************** function _BOOTLOADER_Initialize *****************
  1014 ;; Defined at:
  1015 ;;		line 139 in file "mcc_generated_files/pic18f_bootload.c"
  1016 ;; Parameters:    Size  Location     Type
  1017 ;;		None
  1018 ;; Auto vars:     Size  Location     Type
  1019 ;;		None
  1020 ;; Return value:  Size  Location     Type
  1021 ;;                  1    wreg      void 
  1022 ;; Registers used:
  1023 ;;		wreg, fsr1l, fsr1h, fsr2l, fsr2h, status,2, status,0, cstack
  1024 ;; Tracked objects:
  1025 ;;		On entry : 0/0
  1026 ;;		On exit  : 0/0
  1027 ;;		Unchanged: 0/0
  1028 ;; Data sizes:     COMRAM   BANK0   BANK1   BANK2   BANK3   BANK4   BANK5   BANK6   BANK7   BANK8   BANK9  BANK10  BANK1
      +1  BANK12  BANK14
  1029 ;;      Params:         0       0       0       0       0       0       0       0       0       0       0       0       
      +0       0       0
  1030 ;;      Locals:         0       0       0       0       0       0       0       0       0       0       0       0       
      +0       0       0
  1031 ;;      Temps:          0       0       0       0       0       0       0       0       0       0       0       0       
      +0       0       0
  1032 ;;      Totals:         0       0       0       0       0       0       0       0       0       0       0       0       
      +0       0       0
  1033 ;;Total ram usage:        0 bytes
  1034 ;; Hardware stack levels used: 1
  1035 ;; Hardware stack levels required when called: 4
  1036 ;; This function calls:
  1037 ;;		_Bootload_Required
  1038 ;;		_Run_Bootloader
  1039 ;; This function is called by:
  1040 ;;		_SYSTEM_Initialize
  1041 ;; This function uses a non-reentrant model
  1042 ;;
  1043                           
  1044                           	psect	text9
  1045  0007D2                     __ptext9:
  1046                           	callstack 0
  1047  0007D2                     _BOOTLOADER_Initialize:
  1048                           	callstack 25
  1049  0007D2                     
  1050                           ;mcc_generated_files/pic18f_bootload.c: 141:     EE_Key_1 = 0;
  1051  0007D2  0E00               	movlw	0
  1052  0007D4  6E00               	movwf	0,c
  1053                           
  1054                           ;mcc_generated_files/pic18f_bootload.c: 142:     EE_Key_2 = 0;
  1055  0007D6  0E00               	movlw	0
  1056  0007D8  6E01               	movwf	1,c
  1057  0007DA                     
  1058                           ;mcc_generated_files/pic18f_bootload.c: 143:     LATAbits.LATA7 = 1;
  1059  0007DA  8E82               	bsf	130,7,c	;volatile
  1060  0007DC                     
  1061                           ;mcc_generated_files/pic18f_bootload.c: 144:     if (Bootload_Required () == 1)
  1062  0007DC  EC7F  F003         	call	_Bootload_Required	;wreg free
  1063  0007E0  06E8               	decf	wreg,f,c
  1064  0007E2  A4D8               	btfss	status,2,c
  1065  0007E4  EFF6  F003         	goto	u621
  1066  0007E8  EFF8  F003         	goto	u620
  1067  0007EC                     u621:
  1068  0007EC  EFFA  F003         	goto	l1914
  1069  0007F0                     u620:
  1070  0007F0                     
  1071                           ;mcc_generated_files/pic18f_bootload.c: 145:     {;mcc_generated_files/pic18f_bootload.c
      +                          : 146:         Run_Bootloader ();
  1072  0007F0  EC10  F000         	call	_Run_Bootloader	;wreg free
  1073  0007F4                     l1914:
  1074                           
  1075                           ;mcc_generated_files/pic18f_bootload.c: 148:     STKPTR = 0x00;
  1076  0007F4  0E00               	movlw	0
  1077  0007F6  6EFC               	movwf	252,c	;volatile
  1078  0007F8                     
  1079                           ;mcc_generated_files/pic18f_bootload.c: 149:  BSR = 0x00;
  1080  0007F8  0E00               	movlw	0
  1081  0007FA  6EE0               	movwf	224,c	;volatile
  1082  0007FC                     
  1083                           ;mcc_generated_files/pic18f_bootload.c: 150:  LATAbits.LATA7 = 0;
  1084  0007FC  9E82               	bcf	130,7,c	;volatile
  1085  0007FE  EF00 F005          	goto	2560	;# 
  1086  000802  0012               	return		;funcret
  1087  000804                     __end_of_BOOTLOADER_Initialize:
  1088                           	callstack 0
  1089                           
  1090 ;; *************** function _Run_Bootloader *****************
  1091 ;; Defined at:
  1092 ;;		line 57 in file "mcc_generated_files/pic18f_uart.c"
  1093 ;; Parameters:    Size  Location     Type
  1094 ;;		None
  1095 ;; Auto vars:     Size  Location     Type
  1096 ;;  ch              1   33[COMRAM] unsigned char 
  1097 ;;  index           2   36[COMRAM] volatile unsigned short 
  1098 ;;  msg_length      2   34[COMRAM] unsigned short 
  1099 ;; Return value:  Size  Location     Type
  1100 ;;                  1    wreg      void 
  1101 ;; Registers used:
  1102 ;;		wreg, fsr1l, fsr1h, fsr2l, fsr2h, status,2, status,0, cstack
  1103 ;; Tracked objects:
  1104 ;;		On entry : 0/0
  1105 ;;		On exit  : 0/0
  1106 ;;		Unchanged: 0/0
  1107 ;; Data sizes:     COMRAM   BANK0   BANK1   BANK2   BANK3   BANK4   BANK5   BANK6   BANK7   BANK8   BANK9  BANK10  BANK1
      +1  BANK12  BANK14
  1108 ;;      Params:         0       0       0       0       0       0       0       0       0       0       0       0       
      +0       0       0
  1109 ;;      Locals:         5       0       0       0       0       0       0       0       0       0       0       0       
      +0       0       0
  1110 ;;      Temps:          1       0       0       0       0       0       0       0       0       0       0       0       
      +0       0       0
  1111 ;;      Totals:         6       0       0       0       0       0       0       0       0       0       0       0       
      +0       0       0
  1112 ;;Total ram usage:        6 bytes
  1113 ;; Hardware stack levels used: 1
  1114 ;; Hardware stack levels required when called: 3
  1115 ;; This function calls:
  1116 ;;		_Check_Device_Reset
  1117 ;;		_EUSART2_Read
  1118 ;;		_EUSART2_Write
  1119 ;;		_ProcessBootBuffer
  1120 ;; This function is called by:
  1121 ;;		_BOOTLOADER_Initialize
  1122 ;; This function uses a non-reentrant model
  1123 ;;
  1124                           
  1125                           	psect	text10
  1126  000020                     __ptext10:
  1127                           	callstack 0
  1128  000020                     _Run_Bootloader:
  1129                           	callstack 25
  1130  000020                     l146:
  1131  000020                     l147:
  1132  000020  010E               	movlb	14	; () banked
  1133  000022  A399               	btfss	153,1,b	;volatile
  1134  000024  EF16  F000         	goto	u531
  1135  000028  EF18  F000         	goto	u530
  1136  00002C                     u531:
  1137  00002C  EF10  F000         	goto	l147
  1138  000030                     u530:
  1139  000030                     
  1140                           ; BSR set to: 14
  1141                           ;mcc_generated_files/pic18f_uart.c: 66:         Check_Device_Reset ();
  1142  000030  EC59  F004         	call	_Check_Device_Reset	;wreg free
  1143  000034                     
  1144                           ;mcc_generated_files/pic18f_uart.c: 71:         BAUDCTL2bits.ABDEN = 1;
  1145  000034  010E               	movlb	14	; () banked
  1146  000036  819A               	bsf	154,0,b	;volatile
  1147                           
  1148                           ;mcc_generated_files/pic18f_uart.c: 72:         while (BAUDCTL2bits.ABDEN == 1)
  1149  000038  EF28  F000         	goto	l150
  1150  00003C                     l151:
  1151                           
  1152                           ; BSR set to: 14
  1153                           ;mcc_generated_files/pic18f_uart.c: 73:         {;mcc_generated_files/pic18f_uart.c: 74:
      +                                       if (BAUDCTL2bits.ABDOVF == 1)
  1154  00003C  AF9A               	btfss	154,7,b	;volatile
  1155  00003E  EF23  F000         	goto	u541
  1156  000042  EF25  F000         	goto	u540
  1157  000046                     u541:
  1158  000046  EF28  F000         	goto	l150
  1159  00004A                     u540:
  1160  00004A                     
  1161                           ; BSR set to: 14
  1162                           ;mcc_generated_files/pic18f_uart.c: 75:             {;mcc_generated_files/pic18f_uart.c:
      +                           76:                 BAUDCTL2bits.ABDEN = 0;
  1163  00004A  919A               	bcf	154,0,b	;volatile
  1164                           
  1165                           ;mcc_generated_files/pic18f_uart.c: 77:                 BAUDCTL2bits.ABDOVF = 0;
  1166  00004C  9F9A               	bcf	154,7,b	;volatile
  1167                           
  1168                           ;mcc_generated_files/pic18f_uart.c: 78:                 BAUDCTL2bits.ABDEN = 1;
  1169  00004E  819A               	bsf	154,0,b	;volatile
  1170  000050                     l150:
  1171                           
  1172                           ; BSR set to: 14
  1173                           ;mcc_generated_files/pic18f_uart.c: 72:         while (BAUDCTL2bits.ABDEN == 1)
  1174  000050  B19A               	btfsc	154,0,b	;volatile
  1175  000052  EF2D  F000         	goto	u551
  1176  000056  EF2F  F000         	goto	u550
  1177  00005A                     u551:
  1178  00005A  EF1E  F000         	goto	l151
  1179  00005E                     u550:
  1180  00005E                     
  1181                           ; BSR set to: 14
  1182                           ;mcc_generated_files/pic18f_uart.c: 82:         index = EUSART2_Read();
  1183  00005E  EC02  F004         	call	_EUSART2_Read	;wreg free
  1184  000062  6E22               	movwf	??_Run_Bootloader^0,c
  1185  000064  5022               	movf	??_Run_Bootloader^0,w,c
  1186  000066  6E26               	movwf	Run_Bootloader@index^0,c	;volatile
  1187  000068  6A27               	clrf	(Run_Bootloader@index+1)^0,c	;volatile
  1188  00006A                     
  1189                           ;mcc_generated_files/pic18f_uart.c: 88:         index = 0;
  1190  00006A  0E00               	movlw	0
  1191  00006C  6E27               	movwf	(Run_Bootloader@index+1)^0,c	;volatile
  1192  00006E  0E00               	movlw	0
  1193  000070  6E26               	movwf	Run_Bootloader@index^0,c	;volatile
  1194  000072                     
  1195                           ;mcc_generated_files/pic18f_uart.c: 89:         msg_length = 9;
  1196  000072  0E00               	movlw	0
  1197  000074  6E25               	movwf	(Run_Bootloader@msg_length+1)^0,c
  1198  000076  0E09               	movlw	9
  1199  000078  6E24               	movwf	Run_Bootloader@msg_length^0,c
  1200                           
  1201                           ;mcc_generated_files/pic18f_uart.c: 90:         uint8_t ch;;mcc_generated_files/pic18f_u
      +                          art.c: 92:         while (index < msg_length)
  1202  00007A  EF78  F000         	goto	l1882
  1203  00007E                     l1866:
  1204                           
  1205                           ;mcc_generated_files/pic18f_uart.c: 93:         {;mcc_generated_files/pic18f_uart.c: 94:
      +                                       ch = EUSART2_Read();
  1206  00007E  EC02  F004         	call	_EUSART2_Read	;wreg free
  1207  000082  6E23               	movwf	Run_Bootloader@ch^0,c
  1208  000084                     
  1209                           ;mcc_generated_files/pic18f_uart.c: 95:             frame.buffer [index ++] = ch;
  1210  000084  0E60               	movlw	low _frame
  1211  000086  2426               	addwf	Run_Bootloader@index^0,w,c	;volatile
  1212  000088  6ED9               	movwf	fsr2l,c
  1213  00008A  0E00               	movlw	high _frame
  1214  00008C  2027               	addwfc	(Run_Bootloader@index+1)^0,w,c	;volatile
  1215  00008E  6EDA               	movwf	fsr2h,c
  1216  000090  C023  FFDF         	movff	Run_Bootloader@ch,indf2
  1217  000094  4A26               	infsnz	Run_Bootloader@index^0,f,c	;volatile
  1218  000096  2A27               	incf	(Run_Bootloader@index+1)^0,f,c	;volatile
  1219  000098                     
  1220                           ;mcc_generated_files/pic18f_uart.c: 96:             if (index == 4)
  1221  000098  0E04               	movlw	4
  1222  00009A  1826               	xorwf	Run_Bootloader@index^0,w,c	;volatile
  1223  00009C  1027               	iorwf	(Run_Bootloader@index+1)^0,w,c	;volatile
  1224  00009E  A4D8               	btfss	status,2,c
  1225  0000A0  EF54  F000         	goto	u561
  1226  0000A4  EF56  F000         	goto	u560
  1227  0000A8                     u561:
  1228  0000A8  EF78  F000         	goto	l1882
  1229  0000AC                     u560:
  1230  0000AC                     
  1231                           ;mcc_generated_files/pic18f_uart.c: 97:             {;mcc_generated_files/pic18f_uart.c:
      +                           98:                 if ((frame.command == 2)
  1232  0000AC  0E02               	movlw	2
  1233  0000AE  0100               	movlb	0	; () banked
  1234  0000B0  1960               	xorwf	_frame& (0+255),w,b
  1235  0000B2  B4D8               	btfsc	status,2,c
  1236  0000B4  EF5E  F000         	goto	u571
  1237  0000B8  EF60  F000         	goto	u570
  1238  0000BC                     u571:
  1239  0000BC  EF72  F000         	goto	l1880
  1240  0000C0                     u570:
  1241  0000C0                     
  1242                           ; BSR set to: 0
  1243  0000C0  0E05               	movlw	5
  1244  0000C2  1960               	xorwf	_frame& (0+255),w,b
  1245  0000C4  B4D8               	btfsc	status,2,c
  1246  0000C6  EF67  F000         	goto	u581
  1247  0000CA  EF69  F000         	goto	u580
  1248  0000CE                     u581:
  1249  0000CE  EF72  F000         	goto	l1880
  1250  0000D2                     u580:
  1251  0000D2                     
  1252                           ; BSR set to: 0
  1253  0000D2  0E07               	movlw	7
  1254  0000D4  1960               	xorwf	_frame& (0+255),w,b
  1255  0000D6  A4D8               	btfss	status,2,c
  1256  0000D8  EF70  F000         	goto	u591
  1257  0000DC  EF72  F000         	goto	u590
  1258  0000E0                     u591:
  1259  0000E0  EF78  F000         	goto	l1882
  1260  0000E4                     u590:
  1261  0000E4                     l1880:
  1262                           
  1263                           ; BSR set to: 0
  1264                           ;mcc_generated_files/pic18f_uart.c: 101:                 {;mcc_generated_files/pic18f_ua
      +                          rt.c: 102:                     msg_length += frame.data_length;
  1265  0000E4  EE20  F061         	lfsr	2,_frame+1
  1266  0000E8  50DE               	movf	postinc2,w,c
  1267  0000EA  2624               	addwf	Run_Bootloader@msg_length^0,f,c
  1268  0000EC  50DD               	movf	postdec2,w,c
  1269  0000EE  2225               	addwfc	(Run_Bootloader@msg_length+1)^0,f,c
  1270  0000F0                     l1882:
  1271                           
  1272                           ;mcc_generated_files/pic18f_uart.c: 92:         while (index < msg_length)
  1273  0000F0  5024               	movf	Run_Bootloader@msg_length^0,w,c
  1274  0000F2  5C26               	subwf	Run_Bootloader@index^0,w,c	;volatile
  1275  0000F4  5025               	movf	(Run_Bootloader@msg_length+1)^0,w,c
  1276  0000F6  5827               	subwfb	(Run_Bootloader@index+1)^0,w,c	;volatile
  1277  0000F8  A0D8               	btfss	status,0,c
  1278  0000FA  EF81  F000         	goto	u601
  1279  0000FE  EF83  F000         	goto	u600
  1280  000102                     u601:
  1281  000102  EF3F  F000         	goto	l1866
  1282  000106                     u600:
  1283  000106                     
  1284                           ;mcc_generated_files/pic18f_uart.c: 107:         msg_length = ProcessBootBuffer ();
  1285  000106  ECBF  F001         	call	_ProcessBootBuffer	;wreg free
  1286  00010A  C01C  F024         	movff	?_ProcessBootBuffer,Run_Bootloader@msg_length
  1287  00010E  C01D  F025         	movff	?_ProcessBootBuffer+1,Run_Bootloader@msg_length+1
  1288  000112                     
  1289                           ;mcc_generated_files/pic18f_uart.c: 112:         EUSART2_Write(0x55);
  1290  000112  0E55               	movlw	85
  1291  000114  EC42  F004         	call	_EUSART2_Write
  1292  000118                     
  1293                           ;mcc_generated_files/pic18f_uart.c: 113:         index = 0;
  1294  000118  0E00               	movlw	0
  1295  00011A  6E27               	movwf	(Run_Bootloader@index+1)^0,c	;volatile
  1296  00011C  0E00               	movlw	0
  1297  00011E  6E26               	movwf	Run_Bootloader@index^0,c	;volatile
  1298                           
  1299                           ;mcc_generated_files/pic18f_uart.c: 114:         while (index < msg_length)
  1300  000120  EF9D  F000         	goto	l1894
  1301  000124                     l1890:
  1302                           
  1303                           ;mcc_generated_files/pic18f_uart.c: 115:         {;mcc_generated_files/pic18f_uart.c: 11
      +                          6:             EUSART2_Write (frame.buffer [index++]);
  1304  000124  0E60               	movlw	low _frame
  1305  000126  2426               	addwf	Run_Bootloader@index^0,w,c	;volatile
  1306  000128  6ED9               	movwf	fsr2l,c
  1307  00012A  0E00               	movlw	high _frame
  1308  00012C  2027               	addwfc	(Run_Bootloader@index+1)^0,w,c	;volatile
  1309  00012E  6EDA               	movwf	fsr2h,c
  1310  000130  50DF               	movf	indf2,w,c
  1311  000132  EC42  F004         	call	_EUSART2_Write
  1312  000136  4A26               	infsnz	Run_Bootloader@index^0,f,c	;volatile
  1313  000138  2A27               	incf	(Run_Bootloader@index+1)^0,f,c	;volatile
  1314  00013A                     l1894:
  1315                           
  1316                           ;mcc_generated_files/pic18f_uart.c: 114:         while (index < msg_length)
  1317  00013A  5024               	movf	Run_Bootloader@msg_length^0,w,c
  1318  00013C  5C26               	subwf	Run_Bootloader@index^0,w,c	;volatile
  1319  00013E  5025               	movf	(Run_Bootloader@msg_length+1)^0,w,c
  1320  000140  5827               	subwfb	(Run_Bootloader@index+1)^0,w,c	;volatile
  1321  000142  A0D8               	btfss	status,0,c
  1322  000144  EFA6  F000         	goto	u611
  1323  000148  EFA8  F000         	goto	u610
  1324  00014C                     u611:
  1325  00014C  EF92  F000         	goto	l1890
  1326  000150                     u610:
  1327  000150  EF10  F000         	goto	l146
  1328  000154  0012               	return		;funcret
  1329  000156                     __end_of_Run_Bootloader:
  1330                           	callstack 0
  1331                           
  1332 ;; *************** function _ProcessBootBuffer *****************
  1333 ;; Defined at:
  1334 ;;		line 187 in file "mcc_generated_files/pic18f_bootload.c"
  1335 ;; Parameters:    Size  Location     Type
  1336 ;;		None
  1337 ;; Auto vars:     Size  Location     Type
  1338 ;;  len             2   30[COMRAM] unsigned short 
  1339 ;; Return value:  Size  Location     Type
  1340 ;;                  2   26[COMRAM] unsigned short 
  1341 ;; Registers used:
  1342 ;;		wreg, fsr1l, fsr1h, fsr2l, fsr2h, status,2, status,0, cstack
  1343 ;; Tracked objects:
  1344 ;;		On entry : 0/0
  1345 ;;		On exit  : 0/0
  1346 ;;		Unchanged: 0/0
  1347 ;; Data sizes:     COMRAM   BANK0   BANK1   BANK2   BANK3   BANK4   BANK5   BANK6   BANK7   BANK8   BANK9  BANK10  BANK1
      +1  BANK12  BANK14
  1348 ;;      Params:         2       0       0       0       0       0       0       0       0       0       0       0       
      +0       0       0
  1349 ;;      Locals:         2       0       0       0       0       0       0       0       0       0       0       0       
      +0       0       0
  1350 ;;      Temps:          2       0       0       0       0       0       0       0       0       0       0       0       
      +0       0       0
  1351 ;;      Totals:         6       0       0       0       0       0       0       0       0       0       0       0       
      +0       0       0
  1352 ;;Total ram usage:        6 bytes
  1353 ;; Hardware stack levels used: 1
  1354 ;; Hardware stack levels required when called: 2
  1355 ;; This function calls:
  1356 ;;		_Calc_Checksum
  1357 ;;		_Erase_Flash
  1358 ;;		_Get_Version_Data
  1359 ;;		_Read_Config
  1360 ;;		_Write_Config
  1361 ;;		_Write_Flash
  1362 ;; This function is called by:
  1363 ;;		_Run_Bootloader
  1364 ;; This function uses a non-reentrant model
  1365 ;;
  1366                           
  1367                           	psect	text11
  1368  00037E                     __ptext11:
  1369                           	callstack 0
  1370  00037E                     _ProcessBootBuffer:
  1371                           	callstack 25
  1372  00037E                     
  1373                           ;mcc_generated_files/pic18f_bootload.c: 189:     uint16_t len;;mcc_generated_files/pic18
      +                          f_bootload.c: 190:     EE_Key_1 = frame.EE_key_1;
  1374  00037E  C063  F000         	movff	_frame+3,0
  1375                           
  1376                           ;mcc_generated_files/pic18f_bootload.c: 191:     EE_Key_2 = frame.EE_key_2;
  1377  000382  C064  F001         	movff	_frame+4,1
  1378                           
  1379                           ;mcc_generated_files/pic18f_bootload.c: 194:     switch (frame.command)
  1380  000386  EF06  F002         	goto	l1842
  1381  00038A                     l1826:
  1382                           
  1383                           ; BSR set to: 0
  1384                           ;mcc_generated_files/pic18f_bootload.c: 197:         len = Get_Version_Data();
  1385  00038A  EC11  F003         	call	_Get_Version_Data	;wreg free
  1386  00038E  C002  F020         	movff	?_Get_Version_Data,ProcessBootBuffer@len
  1387  000392  C003  F021         	movff	?_Get_Version_Data+1,ProcessBootBuffer@len+1
  1388                           
  1389                           ;mcc_generated_files/pic18f_bootload.c: 198:         break;
  1390  000396  EF30  F002         	goto	l334
  1391  00039A                     l1828:
  1392                           
  1393                           ; BSR set to: 0
  1394                           ;mcc_generated_files/pic18f_bootload.c: 200:         len = Write_Flash();
  1395  00039A  ECAB  F000         	call	_Write_Flash	;wreg free
  1396  00039E  C007  F020         	movff	?_Write_Flash,ProcessBootBuffer@len
  1397  0003A2  C008  F021         	movff	?_Write_Flash+1,ProcessBootBuffer@len+1
  1398                           
  1399                           ;mcc_generated_files/pic18f_bootload.c: 201:         break;
  1400  0003A6  EF30  F002         	goto	l334
  1401  0003AA                     l1830:
  1402                           
  1403                           ; BSR set to: 0
  1404                           ;mcc_generated_files/pic18f_bootload.c: 203:         len = Erase_Flash();
  1405  0003AA  EC43  F001         	call	_Erase_Flash	;wreg free
  1406  0003AE  C002  F020         	movff	?_Erase_Flash,ProcessBootBuffer@len
  1407  0003B2  C003  F021         	movff	?_Erase_Flash+1,ProcessBootBuffer@len+1
  1408                           
  1409                           ;mcc_generated_files/pic18f_bootload.c: 204:         break;
  1410  0003B6  EF30  F002         	goto	l334
  1411  0003BA                     l1832:
  1412                           
  1413                           ; BSR set to: 0
  1414                           ;mcc_generated_files/pic18f_bootload.c: 206:         len = Read_Config();
  1415  0003BA  EC53  F003         	call	_Read_Config	;wreg free
  1416  0003BE  C002  F020         	movff	?_Read_Config,ProcessBootBuffer@len
  1417  0003C2  C003  F021         	movff	?_Read_Config+1,ProcessBootBuffer@len+1
  1418                           
  1419                           ;mcc_generated_files/pic18f_bootload.c: 207:         break;
  1420  0003C6  EF30  F002         	goto	l334
  1421  0003CA                     l1834:
  1422                           
  1423                           ; BSR set to: 0
  1424                           ;mcc_generated_files/pic18f_bootload.c: 209:         len = Write_Config();
  1425  0003CA  EC8B  F002         	call	_Write_Config	;wreg free
  1426  0003CE  C002  F020         	movff	?_Write_Config,ProcessBootBuffer@len
  1427  0003D2  C003  F021         	movff	?_Write_Config+1,ProcessBootBuffer@len+1
  1428                           
  1429                           ;mcc_generated_files/pic18f_bootload.c: 210:         break;
  1430  0003D6  EF30  F002         	goto	l334
  1431  0003DA                     l1836:
  1432                           
  1433                           ; BSR set to: 0
  1434                           ;mcc_generated_files/pic18f_bootload.c: 212:         len = Calc_Checksum();
  1435  0003DA  EC35  F002         	call	_Calc_Checksum	;wreg free
  1436  0003DE  C002  F020         	movff	?_Calc_Checksum,ProcessBootBuffer@len
  1437  0003E2  C003  F021         	movff	?_Calc_Checksum+1,ProcessBootBuffer@len+1
  1438                           
  1439                           ;mcc_generated_files/pic18f_bootload.c: 213:         break;
  1440  0003E6  EF30  F002         	goto	l334
  1441  0003EA                     l1838:
  1442                           
  1443                           ; BSR set to: 0
  1444                           ;mcc_generated_files/pic18f_bootload.c: 215:         frame.data[0] = 0x01;
  1445  0003EA  0E01               	movlw	1
  1446  0003EC  6F69               	movwf	(_frame+9)& (0+255),b
  1447                           
  1448                           ;mcc_generated_files/pic18f_bootload.c: 216:         reset_pending = 1;
  1449  0003EE  0E01               	movlw	1
  1450  0003F0  6E2C               	movwf	_reset_pending^0,c
  1451                           
  1452                           ;mcc_generated_files/pic18f_bootload.c: 217:         len = 10;
  1453  0003F2  0E00               	movlw	0
  1454  0003F4  6E21               	movwf	(ProcessBootBuffer@len+1)^0,c
  1455  0003F6  0E0A               	movlw	10
  1456  0003F8  6E20               	movwf	ProcessBootBuffer@len^0,c
  1457                           
  1458                           ;mcc_generated_files/pic18f_bootload.c: 218:         break;
  1459  0003FA  EF30  F002         	goto	l334
  1460  0003FE                     l341:
  1461                           
  1462                           ; BSR set to: 0
  1463                           ;mcc_generated_files/pic18f_bootload.c: 220:         frame.data[0] = 0xFF;
  1464  0003FE  6969               	setf	(_frame+9)& (0+255),b
  1465  000400                     
  1466                           ; BSR set to: 0
  1467                           ;mcc_generated_files/pic18f_bootload.c: 221:         len = 10;
  1468  000400  0E00               	movlw	0
  1469  000402  6E21               	movwf	(ProcessBootBuffer@len+1)^0,c
  1470  000404  0E0A               	movlw	10
  1471  000406  6E20               	movwf	ProcessBootBuffer@len^0,c
  1472                           
  1473                           ;mcc_generated_files/pic18f_bootload.c: 222:     }
  1474  000408  EF30  F002         	goto	l334
  1475  00040C                     l1842:
  1476  00040C  0100               	movlb	0	; () banked
  1477  00040E  5160               	movf	_frame& (0+255),w,b
  1478  000410  6E1E               	movwf	??_ProcessBootBuffer^0,c
  1479  000412  6A1F               	clrf	(??_ProcessBootBuffer+1)^0,c
  1480                           
  1481                           ; Switch on 2 bytes has been partitioned into a top level switch of size 1, and 1 sub-sw
      +                          itches
  1482                           ; Switch size 1, requested type "simple"
  1483                           ; Number of cases is 1, Range of values is 0 to 0
  1484                           ; switch strategies available:
  1485                           ; Name         Instructions Cycles
  1486                           ; simple_byte            4     3 (average)
  1487                           ;	Chosen strategy is simple_byte
  1488  000414  501F               	movf	(??_ProcessBootBuffer+1)^0,w,c
  1489  000416  0A00               	xorlw	0	; case 0
  1490  000418  B4D8               	btfsc	status,2,c
  1491  00041A  EF11  F002         	goto	l1958
  1492  00041E  EFFF  F001         	goto	l341
  1493  000422                     l1958:
  1494                           
  1495                           ; BSR set to: 0
  1496                           ; Switch size 1, requested type "simple"
  1497                           ; Number of cases is 7, Range of values is 0 to 9
  1498                           ; switch strategies available:
  1499                           ; Name         Instructions Cycles
  1500                           ; simple_byte           22    12 (average)
  1501                           ;	Chosen strategy is simple_byte
  1502  000422  501E               	movf	??_ProcessBootBuffer^0,w,c
  1503  000424  0A00               	xorlw	0	; case 0
  1504  000426  B4D8               	btfsc	status,2,c
  1505  000428  EFC5  F001         	goto	l1826
  1506  00042C  0A02               	xorlw	2	; case 2
  1507  00042E  B4D8               	btfsc	status,2,c
  1508  000430  EFCD  F001         	goto	l1828
  1509  000434  0A01               	xorlw	1	; case 3
  1510  000436  B4D8               	btfsc	status,2,c
  1511  000438  EFD5  F001         	goto	l1830
  1512  00043C  0A05               	xorlw	5	; case 6
  1513  00043E  B4D8               	btfsc	status,2,c
  1514  000440  EFDD  F001         	goto	l1832
  1515  000444  0A01               	xorlw	1	; case 7
  1516  000446  B4D8               	btfsc	status,2,c
  1517  000448  EFE5  F001         	goto	l1834
  1518  00044C  0A0F               	xorlw	15	; case 8
  1519  00044E  B4D8               	btfsc	status,2,c
  1520  000450  EFED  F001         	goto	l1836
  1521  000454  0A01               	xorlw	1	; case 9
  1522  000456  B4D8               	btfsc	status,2,c
  1523  000458  EFF5  F001         	goto	l1838
  1524  00045C  EFFF  F001         	goto	l341
  1525  000460                     l334:
  1526                           
  1527                           ;mcc_generated_files/pic18f_bootload.c: 223:     return (len);
  1528  000460  C020  F01C         	movff	ProcessBootBuffer@len,?_ProcessBootBuffer
  1529  000464  C021  F01D         	movff	ProcessBootBuffer@len+1,?_ProcessBootBuffer+1
  1530  000468  0012               	return		;funcret
  1531  00046A                     __end_of_ProcessBootBuffer:
  1532                           	callstack 0
  1533                           
  1534 ;; *************** function _Write_Flash *****************
  1535 ;; Defined at:
  1536 ;;		line 277 in file "mcc_generated_files/pic18f_bootload.c"
  1537 ;; Parameters:    Size  Location     Type
  1538 ;;		None
  1539 ;; Auto vars:     Size  Location     Type
  1540 ;;  i               2   24[COMRAM] unsigned short 
  1541 ;;  address         4   20[COMRAM] unsigned long 
  1542 ;;  GIEBitValue     1   19[COMRAM] unsigned char 
  1543 ;; Return value:  Size  Location     Type
  1544 ;;                  2    5[COMRAM] unsigned short 
  1545 ;; Registers used:
  1546 ;;		wreg, fsr1l, fsr1h, fsr2l, fsr2h, status,2, status,0, cstack
  1547 ;; Tracked objects:
  1548 ;;		On entry : 0/0
  1549 ;;		On exit  : 0/0
  1550 ;;		Unchanged: 0/0
  1551 ;; Data sizes:     COMRAM   BANK0   BANK1   BANK2   BANK3   BANK4   BANK5   BANK6   BANK7   BANK8   BANK9  BANK10  BANK1
      +1  BANK12  BANK14
  1552 ;;      Params:         2       0       0       0       0       0       0       0       0       0       0       0       
      +0       0       0
  1553 ;;      Locals:         7       0       0       0       0       0       0       0       0       0       0       0       
      +0       0       0
  1554 ;;      Temps:         12       0       0       0       0       0       0       0       0       0       0       0       
      +0       0       0
  1555 ;;      Totals:        21       0       0       0       0       0       0       0       0       0       0       0       
      +0       0       0
  1556 ;;Total ram usage:       21 bytes
  1557 ;; Hardware stack levels used: 1
  1558 ;; Hardware stack levels required when called: 1
  1559 ;; This function calls:
  1560 ;;		_FLASH_ReadSector
  1561 ;;		_StartWrite
  1562 ;; This function is called by:
  1563 ;;		_ProcessBootBuffer
  1564 ;; This function uses a non-reentrant model
  1565 ;;
  1566                           
  1567                           	psect	text12
  1568  000156                     __ptext12:
  1569                           	callstack 0
  1570  000156                     _Write_Flash:
  1571                           	callstack 25
  1572  000156                     
  1573                           ;mcc_generated_files/pic18f_bootload.c: 279:     uint32_t address;;mcc_generated_files/p
      +                          ic18f_bootload.c: 280:  uint8_t GIEBitValue = INTCONbits.GIE;
  1574  000156  0E00               	movlw	0
  1575  000158  BEF2               	btfsc	242,7,c	;volatile
  1576  00015A  0E01               	movlw	1
  1577  00015C  6E15               	movwf	Write_Flash@GIEBitValue^0,c
  1578  00015E                     
  1579                           ;mcc_generated_files/pic18f_bootload.c: 282:     address = (((uint32_t)frame.address_U) 
      +                          << 16)
  1580  00015E  C066  F009         	movff	_frame+6,??_Write_Flash
  1581  000162  6A0A               	clrf	(??_Write_Flash+1)^0,c
  1582  000164  6A0B               	clrf	(??_Write_Flash+2)^0,c
  1583  000166  6A0C               	clrf	(??_Write_Flash+3)^0,c
  1584  000168  C00B  F00C         	movff	??_Write_Flash+2,??_Write_Flash+3
  1585  00016C  C00A  F00B         	movff	??_Write_Flash+1,??_Write_Flash+2
  1586  000170  C009  F00A         	movff	??_Write_Flash,??_Write_Flash+1
  1587  000174  6A09               	clrf	??_Write_Flash^0,c
  1588  000176  C067  F00D         	movff	_frame+7,??_Write_Flash+4
  1589  00017A  6A0E               	clrf	(??_Write_Flash+5)^0,c
  1590  00017C  6A0F               	clrf	(??_Write_Flash+6)^0,c
  1591  00017E  6A10               	clrf	(??_Write_Flash+7)^0,c
  1592  000180  C00E  F010         	movff	??_Write_Flash+5,??_Write_Flash+7
  1593  000184  C00D  F00F         	movff	??_Write_Flash+4,??_Write_Flash+6
  1594  000188  6A0E               	clrf	(??_Write_Flash+5)^0,c
  1595  00018A  6A0D               	clrf	(??_Write_Flash+4)^0,c
  1596  00018C  5009               	movf	??_Write_Flash^0,w,c
  1597  00018E  240D               	addwf	(??_Write_Flash+4)^0,w,c
  1598  000190  6E11               	movwf	(??_Write_Flash+8)^0,c
  1599  000192  500A               	movf	(??_Write_Flash+1)^0,w,c
  1600  000194  200E               	addwfc	(??_Write_Flash+5)^0,w,c
  1601  000196  6E12               	movwf	(??_Write_Flash+9)^0,c
  1602  000198  500B               	movf	(??_Write_Flash+2)^0,w,c
  1603  00019A  200F               	addwfc	(??_Write_Flash+6)^0,w,c
  1604  00019C  6E13               	movwf	(??_Write_Flash+10)^0,c
  1605  00019E  500C               	movf	(??_Write_Flash+3)^0,w,c
  1606  0001A0  2010               	addwfc	(??_Write_Flash+7)^0,w,c
  1607  0001A2  6E14               	movwf	(??_Write_Flash+11)^0,c
  1608  0001A4  0100               	movlb	0	; () banked
  1609  0001A6  5165               	movf	(_frame+5)& (0+255),w,b
  1610  0001A8  2411               	addwf	(??_Write_Flash+8)^0,w,c
  1611  0001AA  6E16               	movwf	Write_Flash@address^0,c
  1612  0001AC  0E00               	movlw	0
  1613  0001AE  2012               	addwfc	(??_Write_Flash+9)^0,w,c
  1614  0001B0  6E17               	movwf	(Write_Flash@address+1)^0,c
  1615  0001B2  0E00               	movlw	0
  1616  0001B4  2013               	addwfc	(??_Write_Flash+10)^0,w,c
  1617  0001B6  6E18               	movwf	(Write_Flash@address+2)^0,c
  1618  0001B8  0E00               	movlw	0
  1619  0001BA  2014               	addwfc	(??_Write_Flash+11)^0,w,c
  1620  0001BC  6E19               	movwf	(Write_Flash@address+3)^0,c
  1621  0001BE                     
  1622                           ; BSR set to: 0
  1623                           ;mcc_generated_files/pic18f_bootload.c: 285:     if (address < 0xa00)
  1624  0001BE  5019               	movf	(Write_Flash@address+3)^0,w,c
  1625  0001C0  1018               	iorwf	(Write_Flash@address+2)^0,w,c
  1626  0001C2  E107               	bnz	u441
  1627  0001C4  0E0A               	movlw	10
  1628  0001C6  5C17               	subwf	(Write_Flash@address+1)^0,w,c
  1629  0001C8  B0D8               	btfsc	status,0,c
  1630  0001CA  EFE9  F000         	goto	u441
  1631  0001CE  EFEB  F000         	goto	u440
  1632  0001D2                     u441:
  1633  0001D2  EFF3  F000         	goto	l1710
  1634  0001D6                     u440:
  1635  0001D6                     
  1636                           ; BSR set to: 0
  1637                           ;mcc_generated_files/pic18f_bootload.c: 286:     {;mcc_generated_files/pic18f_bootload.c
      +                          : 287:         frame.data[0] = 0xFE;
  1638  0001D6  0EFE               	movlw	254
  1639  0001D8  6F69               	movwf	(_frame+9)& (0+255),b
  1640                           
  1641                           ;mcc_generated_files/pic18f_bootload.c: 288:         return (10);
  1642  0001DA  0E00               	movlw	0
  1643  0001DC  6E08               	movwf	(?_Write_Flash+1)^0,c
  1644  0001DE  0E0A               	movlw	10
  1645  0001E0  6E07               	movwf	?_Write_Flash^0,c
  1646  0001E2  EF42  F001         	goto	l353
  1647  0001E6                     l1710:
  1648                           
  1649                           ; BSR set to: 0
  1650                           ;mcc_generated_files/pic18f_bootload.c: 290:     FLASH_ReadSector(address);
  1651  0001E6  C016  F002         	movff	Write_Flash@address,FLASH_ReadSector@flashAddr
  1652  0001EA  C017  F003         	movff	Write_Flash@address+1,FLASH_ReadSector@flashAddr+1
  1653  0001EE  C018  F004         	movff	Write_Flash@address+2,FLASH_ReadSector@flashAddr+2
  1654  0001F2  C019  F005         	movff	Write_Flash@address+3,FLASH_ReadSector@flashAddr+3
  1655  0001F6  ECCA  F003         	call	_FLASH_ReadSector	;wreg free
  1656  0001FA                     
  1657                           ;mcc_generated_files/pic18f_bootload.c: 292:     for (uint16_t i = 0; i < frame.data_len
      +                          gth; i ++)
  1658  0001FA  0E00               	movlw	0
  1659  0001FC  6E1B               	movwf	(Write_Flash@i+1)^0,c
  1660  0001FE  0E00               	movlw	0
  1661  000200  6E1A               	movwf	Write_Flash@i^0,c
  1662  000202  EF1B  F001         	goto	l1718
  1663  000206                     l1714:
  1664                           
  1665                           ; BSR set to: 0
  1666                           ;mcc_generated_files/pic18f_bootload.c: 293:     {;mcc_generated_files/pic18f_bootload.c
      +                          : 294:         PFM_Buffer [frame.address_L + i] = frame.data[i];
  1667  000206  0E69               	movlw	low (_frame+9)
  1668  000208  241A               	addwf	Write_Flash@i^0,w,c
  1669  00020A  6ED9               	movwf	fsr2l,c
  1670  00020C  0E00               	movlw	high (_frame+9)
  1671  00020E  201B               	addwfc	(Write_Flash@i+1)^0,w,c
  1672  000210  6EDA               	movwf	fsr2h,c
  1673  000212  0E00               	movlw	0
  1674  000214  6E09               	movwf	??_Write_Flash^0,c
  1675  000216  0E0D               	movlw	13
  1676  000218  6E0A               	movwf	(??_Write_Flash+1)^0,c
  1677  00021A  5165               	movf	(_frame+5)& (0+255),w,b
  1678  00021C  2609               	addwf	??_Write_Flash^0,f,c
  1679  00021E  0E00               	movlw	0
  1680  000220  220A               	addwfc	(??_Write_Flash+1)^0,f,c
  1681  000222  501A               	movf	Write_Flash@i^0,w,c
  1682  000224  2409               	addwf	??_Write_Flash^0,w,c
  1683  000226  6EE1               	movwf	fsr1l,c
  1684  000228  501B               	movf	(Write_Flash@i+1)^0,w,c
  1685  00022A  200A               	addwfc	(??_Write_Flash+1)^0,w,c
  1686  00022C  6EE2               	movwf	fsr1h,c
  1687  00022E  CFDF FFE7          	movff	indf2,indf1
  1688  000232                     
  1689                           ; BSR set to: 0
  1690                           ;mcc_generated_files/pic18f_bootload.c: 295:     }
  1691  000232  4A1A               	infsnz	Write_Flash@i^0,f,c
  1692  000234  2A1B               	incf	(Write_Flash@i+1)^0,f,c
  1693  000236                     l1718:
  1694  000236  0100               	movlb	0	; () banked
  1695  000238  5161               	movf	(_frame+1)& (0+255),w,b
  1696  00023A  5C1A               	subwf	Write_Flash@i^0,w,c
  1697  00023C  5162               	movf	(_frame+2)& (0+255),w,b
  1698  00023E  581B               	subwfb	(Write_Flash@i+1)^0,w,c
  1699  000240  A0D8               	btfss	status,0,c
  1700  000242  EF25  F001         	goto	u451
  1701  000246  EF27  F001         	goto	u450
  1702  00024A                     u451:
  1703  00024A  EF03  F001         	goto	l1714
  1704  00024E                     u450:
  1705  00024E                     
  1706                           ; BSR set to: 0
  1707                           ;mcc_generated_files/pic18f_bootload.c: 297:     NVMADRU = frame.address_U;
  1708  00024E  C067  FF7B         	movff	_frame+7,3963	;volatile
  1709                           
  1710                           ;mcc_generated_files/pic18f_bootload.c: 298:     NVMADRH = frame.address_H;
  1711  000252  C066  FF7A         	movff	_frame+6,3962	;volatile
  1712                           
  1713                           ;mcc_generated_files/pic18f_bootload.c: 299:     NVMADRL = frame.address_L;
  1714  000256  C065  FF79         	movff	_frame+5,3961	;volatile
  1715                           
  1716                           ;mcc_generated_files/pic18f_bootload.c: 302:     NVMCON0bits.NVMEN = 1;
  1717  00025A  8E7F               	bsf	127,7,c	;volatile
  1718                           
  1719                           ;mcc_generated_files/pic18f_bootload.c: 305:     INTCONbits.GIE = 0;
  1720  00025C  9EF2               	bcf	242,7,c	;volatile
  1721  00025E                     
  1722                           ; BSR set to: 0
  1723                           ;mcc_generated_files/pic18f_bootload.c: 308:     StartWrite();
  1724  00025E  EC64  F004         	call	_StartWrite	;wreg free
  1725  000262                     
  1726                           ;mcc_generated_files/pic18f_bootload.c: 311:     INTCONbits.GIE = GIEBitValue;
  1727  000262  B015               	btfsc	Write_Flash@GIEBitValue^0,0,c
  1728  000264  D002               	bra	u465
  1729  000266  9EF2               	bcf	242,7,c	;volatile
  1730  000268  D001               	bra	u466
  1731  00026A                     u465:
  1732  00026A  8EF2               	bsf	242,7,c	;volatile
  1733  00026C                     u466:
  1734  00026C                     
  1735                           ;mcc_generated_files/pic18f_bootload.c: 314:  NVMCON0bits.NVMEN = 0;
  1736  00026C  9E7F               	bcf	127,7,c	;volatile
  1737  00026E                     
  1738                           ;mcc_generated_files/pic18f_bootload.c: 316:     frame.data[0] = 0x01;
  1739  00026E  0E01               	movlw	1
  1740  000270  0100               	movlb	0	; () banked
  1741  000272  6F69               	movwf	(_frame+9)& (0+255),b
  1742  000274                     
  1743                           ; BSR set to: 0
  1744                           ;mcc_generated_files/pic18f_bootload.c: 317:     EE_Key_1 = 0x00;
  1745  000274  0E00               	movlw	0
  1746  000276  6E00               	movwf	0,c
  1747  000278                     
  1748                           ; BSR set to: 0
  1749                           ;mcc_generated_files/pic18f_bootload.c: 318:     EE_Key_2 = 0x00;
  1750  000278  0E00               	movlw	0
  1751  00027A  6E01               	movwf	1,c
  1752  00027C                     
  1753                           ; BSR set to: 0
  1754                           ;mcc_generated_files/pic18f_bootload.c: 319:     return (10);
  1755  00027C  0E00               	movlw	0
  1756  00027E  6E08               	movwf	(?_Write_Flash+1)^0,c
  1757  000280  0E0A               	movlw	10
  1758  000282  6E07               	movwf	?_Write_Flash^0,c
  1759  000284                     l353:
  1760                           
  1761                           ; BSR set to: 0
  1762  000284  0012               	return		;funcret
  1763  000286                     __end_of_Write_Flash:
  1764                           	callstack 0
  1765                           
  1766 ;; *************** function _FLASH_ReadSector *****************
  1767 ;; Defined at:
  1768 ;;		line 86 in file "mcc_generated_files/memory.c"
  1769 ;; Parameters:    Size  Location     Type
  1770 ;;  flashAddr       4    0[COMRAM] unsigned long 
  1771 ;; Auto vars:     Size  Location     Type
  1772 ;;  GIEBitValue     1    4[COMRAM] unsigned char 
  1773 ;; Return value:  Size  Location     Type
  1774 ;;                  1    wreg      void 
  1775 ;; Registers used:
  1776 ;;		wreg, status,2
  1777 ;; Tracked objects:
  1778 ;;		On entry : 0/0
  1779 ;;		On exit  : 0/0
  1780 ;;		Unchanged: 0/0
  1781 ;; Data sizes:     COMRAM   BANK0   BANK1   BANK2   BANK3   BANK4   BANK5   BANK6   BANK7   BANK8   BANK9  BANK10  BANK1
      +1  BANK12  BANK14
  1782 ;;      Params:         4       0       0       0       0       0       0       0       0       0       0       0       
      +0       0       0
  1783 ;;      Locals:         1       0       0       0       0       0       0       0       0       0       0       0       
      +0       0       0
  1784 ;;      Temps:          0       0       0       0       0       0       0       0       0       0       0       0       
      +0       0       0
  1785 ;;      Totals:         5       0       0       0       0       0       0       0       0       0       0       0       
      +0       0       0
  1786 ;;Total ram usage:        5 bytes
  1787 ;; Hardware stack levels used: 1
  1788 ;; This function calls:
  1789 ;;		Nothing
  1790 ;; This function is called by:
  1791 ;;		_Write_Flash
  1792 ;;		_FLASH_WriteWord
  1793 ;; This function uses a non-reentrant model
  1794 ;;
  1795                           
  1796                           	psect	text13
  1797  000794                     __ptext13:
  1798                           	callstack 0
  1799  000794                     _FLASH_ReadSector:
  1800                           	callstack 25
  1801  000794                     
  1802                           ;mcc_generated_files/memory.c: 86: void FLASH_ReadSector(uint32_t flashAddr);mcc_generat
      +                          ed_files/memory.c: 87: {;mcc_generated_files/memory.c: 88:     uint8_t GIEBitValue = INT
      +                          CONbits.GIE;
  1803  000794  0E00               	movlw	0
  1804  000796  BEF2               	btfsc	242,7,c	;volatile
  1805  000798  0E01               	movlw	1
  1806  00079A  6E06               	movwf	FLASH_ReadSector@GIEBitValue^0,c
  1807  00079C                     
  1808                           ;mcc_generated_files/memory.c: 91:     NVMCON0bits.NVMEN = 1;
  1809  00079C  8E7F               	bsf	127,7,c	;volatile
  1810  00079E                     
  1811                           ;mcc_generated_files/memory.c: 94:     NVMADRU = (uint8_t) ((flashAddr & 0x00FF0000) >> 
      +                          16);
  1812  00079E  C004  FF7B         	movff	FLASH_ReadSector@flashAddr+2,3963	;volatile
  1813  0007A2                     
  1814                           ;mcc_generated_files/memory.c: 95:     NVMADRH = (uint8_t) ((flashAddr & 0x0000FF00) >> 
      +                          8);
  1815  0007A2  C003  FF7A         	movff	FLASH_ReadSector@flashAddr+1,3962	;volatile
  1816  0007A6                     
  1817                           ;mcc_generated_files/memory.c: 96:     NVMADRL = (uint8_t) (flashAddr & 0x000000FF);
  1818  0007A6  C002  FF79         	movff	FLASH_ReadSector@flashAddr,3961	;volatile
  1819  0007AA                     
  1820                           ;mcc_generated_files/memory.c: 99:     INTCONbits.GIE = 0;
  1821  0007AA  9EF2               	bcf	242,7,c	;volatile
  1822  0007AC                     
  1823                           ;mcc_generated_files/memory.c: 102:     NVMCON2 = 0xBB;
  1824  0007AC  0EBB               	movlw	187
  1825  0007AE  6E81               	movwf	129,c	;volsfr
  1826  0007B0                     
  1827                           ;mcc_generated_files/memory.c: 103:     NVMCON2 = 0x44;
  1828  0007B0  0E44               	movlw	68
  1829  0007B2  6E81               	movwf	129,c	;volsfr
  1830  0007B4                     
  1831                           ;mcc_generated_files/memory.c: 106:     NVMCON1bits.SECRD = 1;
  1832  0007B4  8280               	bsf	128,1,c	;volsfr
  1833  0007B6                     l210:
  1834  0007B6  B280               	btfsc	128,1,c	;volsfr
  1835  0007B8  EFE0  F003         	goto	u411
  1836  0007BC  EFE2  F003         	goto	u410
  1837  0007C0                     u411:
  1838  0007C0  EFDB  F003         	goto	l210
  1839  0007C4                     u410:
  1840  0007C4                     
  1841                           ;mcc_generated_files/memory.c: 110:     INTCONbits.GIE = GIEBitValue;
  1842  0007C4  B006               	btfsc	FLASH_ReadSector@GIEBitValue^0,0,c
  1843  0007C6  D002               	bra	u425
  1844  0007C8  9EF2               	bcf	242,7,c	;volatile
  1845  0007CA  D001               	bra	u426
  1846  0007CC                     u425:
  1847  0007CC  8EF2               	bsf	242,7,c	;volatile
  1848  0007CE                     u426:
  1849                           
  1850                           ;mcc_generated_files/memory.c: 113:     NVMCON0bits.NVMEN = 0;
  1851  0007CE  9E7F               	bcf	127,7,c	;volatile
  1852  0007D0  0012               	return		;funcret
  1853  0007D2                     __end_of_FLASH_ReadSector:
  1854                           	callstack 0
  1855                           
  1856 ;; *************** function _Write_Config *****************
  1857 ;; Defined at:
  1858 ;;		line 400 in file "mcc_generated_files/pic18f_bootload.c"
  1859 ;; Parameters:    Size  Location     Type
  1860 ;;		None
  1861 ;; Auto vars:     Size  Location     Type
  1862 ;;  i               1    4[COMRAM] unsigned char 
  1863 ;; Return value:  Size  Location     Type
  1864 ;;                  2    0[COMRAM] unsigned short 
  1865 ;; Registers used:
  1866 ;;		wreg, fsr2l, fsr2h, status,2, status,0, cstack
  1867 ;; Tracked objects:
  1868 ;;		On entry : 0/0
  1869 ;;		On exit  : 0/0
  1870 ;;		Unchanged: 0/0
  1871 ;; Data sizes:     COMRAM   BANK0   BANK1   BANK2   BANK3   BANK4   BANK5   BANK6   BANK7   BANK8   BANK9  BANK10  BANK1
      +1  BANK12  BANK14
  1872 ;;      Params:         2       0       0       0       0       0       0       0       0       0       0       0       
      +0       0       0
  1873 ;;      Locals:         1       0       0       0       0       0       0       0       0       0       0       0       
      +0       0       0
  1874 ;;      Temps:          2       0       0       0       0       0       0       0       0       0       0       0       
      +0       0       0
  1875 ;;      Totals:         5       0       0       0       0       0       0       0       0       0       0       0       
      +0       0       0
  1876 ;;Total ram usage:        5 bytes
  1877 ;; Hardware stack levels used: 1
  1878 ;; Hardware stack levels required when called: 1
  1879 ;; This function calls:
  1880 ;;		_StartWrite
  1881 ;; This function is called by:
  1882 ;;		_ProcessBootBuffer
  1883 ;; This function uses a non-reentrant model
  1884 ;;
  1885                           
  1886                           	psect	text14
  1887  000516                     __ptext14:
  1888                           	callstack 0
  1889  000516                     _Write_Config:
  1890                           	callstack 25
  1891  000516                     
  1892                           ;mcc_generated_files/pic18f_bootload.c: 402:     TBLPTRL = frame.address_L;
  1893  000516  C065  FFF6         	movff	_frame+5,tblptrl	;volatile
  1894                           
  1895                           ;mcc_generated_files/pic18f_bootload.c: 403:     TBLPTRH = frame.address_H;
  1896  00051A  C066  FFF7         	movff	_frame+6,tblptrh	;volatile
  1897                           
  1898                           ;mcc_generated_files/pic18f_bootload.c: 404:     TBLPTRU = frame.address_U;
  1899  00051E  C067  FFF8         	movff	_frame+7,tblptru	;volatile
  1900  000522                     
  1901                           ;mcc_generated_files/pic18f_bootload.c: 405:     if (TBLPTR > 0x20000F)
  1902  000522  0E10               	movlw	16
  1903  000524  5CF6               	subwf	246,w,c	;volatile
  1904  000526  0E00               	movlw	0
  1905  000528  58F7               	subwfb	247,w,c	;volatile
  1906  00052A  0E20               	movlw	32
  1907  00052C  58F8               	subwfb	248,w,c	;volatile
  1908  00052E  A0D8               	btfss	status,0,c
  1909  000530  EF9C  F002         	goto	u501
  1910  000534  EF9E  F002         	goto	u500
  1911  000538                     u501:
  1912  000538  EFA2  F002         	goto	l1786
  1913  00053C                     u500:
  1914  00053C                     
  1915                           ;mcc_generated_files/pic18f_bootload.c: 406:         NVMCON1 = 0xC4;
  1916  00053C  0EC4               	movlw	196
  1917  00053E  6E80               	movwf	128,c	;volsfr
  1918  000540  EFA4  F002         	goto	l372
  1919  000544                     l1786:
  1920                           
  1921                           ;mcc_generated_files/pic18f_bootload.c: 408:         NVMCON1 = 0x84;
  1922  000544  0E84               	movlw	132
  1923  000546  6E80               	movwf	128,c	;volsfr
  1924  000548                     l372:
  1925                           
  1926                           ;mcc_generated_files/pic18f_bootload.c: 409:     for (uint8_t i= 0; i < frame.data_lengt
      +                          h; i ++)
  1927  000548  0E00               	movlw	0
  1928  00054A  6E06               	movwf	Write_Config@i^0,c
  1929  00054C  EFB5  F002         	goto	l1796
  1930  000550                     l1788:
  1931                           
  1932                           ; BSR set to: 0
  1933                           ;mcc_generated_files/pic18f_bootload.c: 410:     {;mcc_generated_files/pic18f_bootload.c
      +                          : 411:         TABLAT = frame.data[i];
  1934  000550  0E69               	movlw	low (_frame+9)
  1935  000552  2406               	addwf	Write_Config@i^0,w,c
  1936  000554  6ED9               	movwf	fsr2l,c
  1937  000556  6ADA               	clrf	fsr2h,c
  1938  000558  0E00               	movlw	high (_frame+9)
  1939  00055A  22DA               	addwfc	fsr2h,f,c
  1940  00055C  50DF               	movf	indf2,w,c
  1941  00055E  6EF5               	movwf	245,c	;volatile
  1942  000560  000C               	tblwt		*	;# 
  1943  000562                     
  1944                           ;mcc_generated_files/pic18f_bootload.c: 413:         StartWrite();
  1945  000562  EC64  F004         	call	_StartWrite	;wreg free
  1946  000566                     
  1947                           ;mcc_generated_files/pic18f_bootload.c: 414:         ++ TBLPTRL;
  1948  000566  2AF6               	incf	246,f,c	;volatile
  1949  000568                     
  1950                           ;mcc_generated_files/pic18f_bootload.c: 415:     }
  1951  000568  2A06               	incf	Write_Config@i^0,f,c
  1952  00056A                     l1796:
  1953  00056A  5006               	movf	Write_Config@i^0,w,c
  1954  00056C  6E04               	movwf	??_Write_Config^0,c
  1955  00056E  6A05               	clrf	(??_Write_Config+1)^0,c
  1956  000570  0100               	movlb	0	; () banked
  1957  000572  5161               	movf	(_frame+1)& (0+255),w,b
  1958  000574  5C04               	subwf	??_Write_Config^0,w,c
  1959  000576  5162               	movf	(_frame+2)& (0+255),w,b
  1960  000578  5805               	subwfb	(??_Write_Config+1)^0,w,c
  1961  00057A  A0D8               	btfss	status,0,c
  1962  00057C  EFC2  F002         	goto	u511
  1963  000580  EFC4  F002         	goto	u510
  1964  000584                     u511:
  1965  000584  EFA8  F002         	goto	l1788
  1966  000588                     u510:
  1967  000588                     
  1968                           ; BSR set to: 0
  1969                           ;mcc_generated_files/pic18f_bootload.c: 416:     frame.data[0] = 0x01;
  1970  000588  0E01               	movlw	1
  1971  00058A  6F69               	movwf	(_frame+9)& (0+255),b
  1972                           
  1973                           ;mcc_generated_files/pic18f_bootload.c: 417:     EE_Key_1 = 0x00;
  1974  00058C  0E00               	movlw	0
  1975  00058E  6E00               	movwf	0,c
  1976                           
  1977                           ;mcc_generated_files/pic18f_bootload.c: 418:     EE_Key_2 = 0x00;
  1978  000590  0E00               	movlw	0
  1979  000592  6E01               	movwf	1,c
  1980                           
  1981                           ;mcc_generated_files/pic18f_bootload.c: 419:     return (10);
  1982  000594  0E00               	movlw	0
  1983  000596  6E03               	movwf	(?_Write_Config+1)^0,c
  1984  000598  0E0A               	movlw	10
  1985  00059A  6E02               	movwf	?_Write_Config^0,c
  1986  00059C                     
  1987                           ; BSR set to: 0
  1988  00059C  0012               	return		;funcret
  1989  00059E                     __end_of_Write_Config:
  1990                           	callstack 0
  1991                           
  1992 ;; *************** function _StartWrite *****************
  1993 ;; Defined at:
  1994 ;;		line 467 in file "mcc_generated_files/pic18f_bootload.c"
  1995 ;; Parameters:    Size  Location     Type
  1996 ;;		None
  1997 ;; Auto vars:     Size  Location     Type
  1998 ;;		None
  1999 ;; Return value:  Size  Location     Type
  2000 ;;                  1    wreg      void 
  2001 ;; Registers used:
  2002 ;;		None
  2003 ;; Tracked objects:
  2004 ;;		On entry : 0/0
  2005 ;;		On exit  : 0/0
  2006 ;;		Unchanged: 0/0
  2007 ;; Data sizes:     COMRAM   BANK0   BANK1   BANK2   BANK3   BANK4   BANK5   BANK6   BANK7   BANK8   BANK9  BANK10  BANK1
      +1  BANK12  BANK14
  2008 ;;      Params:         0       0       0       0       0       0       0       0       0       0       0       0       
      +0       0       0
  2009 ;;      Locals:         0       0       0       0       0       0       0       0       0       0       0       0       
      +0       0       0
  2010 ;;      Temps:          0       0       0       0       0       0       0       0       0       0       0       0       
      +0       0       0
  2011 ;;      Totals:         0       0       0       0       0       0       0       0       0       0       0       0       
      +0       0       0
  2012 ;;Total ram usage:        0 bytes
  2013 ;; Hardware stack levels used: 1
  2014 ;; This function calls:
  2015 ;;		Nothing
  2016 ;; This function is called by:
  2017 ;;		_Write_Flash
  2018 ;;		_Write_Config
  2019 ;; This function uses a non-reentrant model
  2020 ;;
  2021                           
  2022                           	psect	text15
  2023  0008C8                     __ptext15:
  2024                           	callstack 0
  2025  0008C8                     _StartWrite:
  2026                           	callstack 25
  2027  0008C8  010F               	banksel	3969	;# 
  2028  0008CA  5000               	movf	0,w,c	;# 
  2029  0008CC  6F81               	movwf	3969,b	;# 
  2030  0008CE  5001               	movf	_EE_Key_2& (0+255),w,c	;# 
  2031  0008D0  6F81               	movwf	3969,b	;# 
  2032  0008D2  8A80               	bsf	3968,5,c	;# 
  2033                           
  2034                           ;mcc_generated_files/pic18f_bootload.c: 475:     __nop();
  2035  0008D4  F000               	nop	
  2036                           
  2037                           ;mcc_generated_files/pic18f_bootload.c: 476:     __nop();
  2038  0008D6  F000               	nop	
  2039  0008D8  0012               	return		;funcret
  2040  0008DA                     __end_of_StartWrite:
  2041                           	callstack 0
  2042                           
  2043 ;; *************** function _Read_Config *****************
  2044 ;; Defined at:
  2045 ;;		line 380 in file "mcc_generated_files/pic18f_bootload.c"
  2046 ;; Parameters:    Size  Location     Type
  2047 ;;		None
  2048 ;; Auto vars:     Size  Location     Type
  2049 ;;  i               1    4[COMRAM] unsigned char 
  2050 ;; Return value:  Size  Location     Type
  2051 ;;                  2    0[COMRAM] unsigned short 
  2052 ;; Registers used:
  2053 ;;		wreg, fsr2l, fsr2h, status,2, status,0
  2054 ;; Tracked objects:
  2055 ;;		On entry : 0/0
  2056 ;;		On exit  : 0/0
  2057 ;;		Unchanged: 0/0
  2058 ;; Data sizes:     COMRAM   BANK0   BANK1   BANK2   BANK3   BANK4   BANK5   BANK6   BANK7   BANK8   BANK9  BANK10  BANK1
      +1  BANK12  BANK14
  2059 ;;      Params:         2       0       0       0       0       0       0       0       0       0       0       0       
      +0       0       0
  2060 ;;      Locals:         1       0       0       0       0       0       0       0       0       0       0       0       
      +0       0       0
  2061 ;;      Temps:          2       0       0       0       0       0       0       0       0       0       0       0       
      +0       0       0
  2062 ;;      Totals:         5       0       0       0       0       0       0       0       0       0       0       0       
      +0       0       0
  2063 ;;Total ram usage:        5 bytes
  2064 ;; Hardware stack levels used: 1
  2065 ;; This function calls:
  2066 ;;		Nothing
  2067 ;; This function is called by:
  2068 ;;		_ProcessBootBuffer
  2069 ;; This function uses a non-reentrant model
  2070 ;;
  2071                           
  2072                           	psect	text16
  2073  0006A6                     __ptext16:
  2074                           	callstack 0
  2075  0006A6                     _Read_Config:
  2076                           	callstack 26
  2077  0006A6                     
  2078                           ;mcc_generated_files/pic18f_bootload.c: 382:     TBLPTRL = frame.address_L;
  2079  0006A6  C065  FFF6         	movff	_frame+5,tblptrl	;volatile
  2080                           
  2081                           ;mcc_generated_files/pic18f_bootload.c: 383:     TBLPTRH = frame.address_H;
  2082  0006AA  C066  FFF7         	movff	_frame+6,tblptrh	;volatile
  2083                           
  2084                           ;mcc_generated_files/pic18f_bootload.c: 384:     TBLPTRU = frame.address_U;
  2085  0006AE  C067  FFF8         	movff	_frame+7,tblptru	;volatile
  2086  0006B2                     
  2087                           ;mcc_generated_files/pic18f_bootload.c: 385:  NVMCON1 = 0xC0;
  2088  0006B2  0EC0               	movlw	192
  2089  0006B4  6E80               	movwf	128,c	;volsfr
  2090                           
  2091                           ;mcc_generated_files/pic18f_bootload.c: 386:     for (uint8_t i = 0; i < frame.data_leng
      +                          th; i++)
  2092  0006B6  0E00               	movlw	0
  2093  0006B8  6E06               	movwf	Read_Config@i^0,c
  2094  0006BA  EF69  F003         	goto	l1774
  2095  0006BE                     l366:
  2096                           
  2097                           ; BSR set to: 0
  2098  0006BE  0009               	tblrd		*+	;# 
  2099  0006C0                     
  2100                           ;mcc_generated_files/pic18f_bootload.c: 389:         frame.data[i] = TABLAT;
  2101  0006C0  0E69               	movlw	low (_frame+9)
  2102  0006C2  2406               	addwf	Read_Config@i^0,w,c
  2103  0006C4  6ED9               	movwf	fsr2l,c
  2104  0006C6  6ADA               	clrf	fsr2h,c
  2105  0006C8  0E00               	movlw	high (_frame+9)
  2106  0006CA  22DA               	addwfc	fsr2h,f,c
  2107  0006CC  CFF5 FFDF          	movff	tablat,indf2	;volatile
  2108  0006D0                     
  2109                           ;mcc_generated_files/pic18f_bootload.c: 390:     }
  2110  0006D0  2A06               	incf	Read_Config@i^0,f,c
  2111  0006D2                     l1774:
  2112  0006D2  5006               	movf	Read_Config@i^0,w,c
  2113  0006D4  6E04               	movwf	??_Read_Config^0,c
  2114  0006D6  6A05               	clrf	(??_Read_Config+1)^0,c
  2115  0006D8  0100               	movlb	0	; () banked
  2116  0006DA  5161               	movf	(_frame+1)& (0+255),w,b
  2117  0006DC  5C04               	subwf	??_Read_Config^0,w,c
  2118  0006DE  5162               	movf	(_frame+2)& (0+255),w,b
  2119  0006E0  5805               	subwfb	(??_Read_Config+1)^0,w,c
  2120  0006E2  A0D8               	btfss	status,0,c
  2121  0006E4  EF76  F003         	goto	u491
  2122  0006E8  EF78  F003         	goto	u490
  2123  0006EC                     u491:
  2124  0006EC  EF5F  F003         	goto	l366
  2125  0006F0                     u490:
  2126  0006F0                     
  2127                           ; BSR set to: 0
  2128                           ;mcc_generated_files/pic18f_bootload.c: 391:     return (9 + frame.data_length);
  2129  0006F0  0E09               	movlw	9
  2130  0006F2  2561               	addwf	(_frame+1)& (0+255),w,b
  2131  0006F4  6E02               	movwf	?_Read_Config^0,c
  2132  0006F6  0E00               	movlw	0
  2133  0006F8  2162               	addwfc	(_frame+2)& (0+255),w,b
  2134  0006FA  6E03               	movwf	(?_Read_Config+1)^0,c
  2135  0006FC                     
  2136                           ; BSR set to: 0
  2137  0006FC  0012               	return		;funcret
  2138  0006FE                     __end_of_Read_Config:
  2139                           	callstack 0
  2140                           
  2141 ;; *************** function _Get_Version_Data *****************
  2142 ;; Defined at:
  2143 ;;		line 233 in file "mcc_generated_files/pic18f_bootload.c"
  2144 ;; Parameters:    Size  Location     Type
  2145 ;;		None
  2146 ;; Auto vars:     Size  Location     Type
  2147 ;;  i               1    2[COMRAM] unsigned char 
  2148 ;; Return value:  Size  Location     Type
  2149 ;;                  2    0[COMRAM] unsigned short 
  2150 ;; Registers used:
  2151 ;;		wreg, fsr2l, fsr2h, status,2, status,0
  2152 ;; Tracked objects:
  2153 ;;		On entry : 0/0
  2154 ;;		On exit  : 0/0
  2155 ;;		Unchanged: 0/0
  2156 ;; Data sizes:     COMRAM   BANK0   BANK1   BANK2   BANK3   BANK4   BANK5   BANK6   BANK7   BANK8   BANK9  BANK10  BANK1
      +1  BANK12  BANK14
  2157 ;;      Params:         2       0       0       0       0       0       0       0       0       0       0       0       
      +0       0       0
  2158 ;;      Locals:         1       0       0       0       0       0       0       0       0       0       0       0       
      +0       0       0
  2159 ;;      Temps:          0       0       0       0       0       0       0       0       0       0       0       0       
      +0       0       0
  2160 ;;      Totals:         3       0       0       0       0       0       0       0       0       0       0       0       
      +0       0       0
  2161 ;;Total ram usage:        3 bytes
  2162 ;; Hardware stack levels used: 1
  2163 ;; This function calls:
  2164 ;;		Nothing
  2165 ;; This function is called by:
  2166 ;;		_ProcessBootBuffer
  2167 ;; This function uses a non-reentrant model
  2168 ;;
  2169                           
  2170                           	psect	text17
  2171  000622                     __ptext17:
  2172                           	callstack 0
  2173  000622                     _Get_Version_Data:
  2174                           	callstack 26
  2175  000622                     
  2176                           ;mcc_generated_files/pic18f_bootload.c: 235:     frame.data[0] = 0x01;
  2177  000622  0E01               	movlw	1
  2178  000624  0100               	movlb	0	; () banked
  2179  000626  6F69               	movwf	(_frame+9)& (0+255),b
  2180                           
  2181                           ;mcc_generated_files/pic18f_bootload.c: 236:     frame.data[1] = 0x01;
  2182  000628  0E01               	movlw	1
  2183  00062A  6F6A               	movwf	(_frame+10)& (0+255),b
  2184                           
  2185                           ;mcc_generated_files/pic18f_bootload.c: 237:     frame.data[2] = 0;
  2186  00062C  0E00               	movlw	0
  2187  00062E  6F6B               	movwf	(_frame+11)& (0+255),b
  2188                           
  2189                           ;mcc_generated_files/pic18f_bootload.c: 238:     frame.data[3] = 1;
  2190  000630  0E01               	movlw	1
  2191  000632  6F6C               	movwf	(_frame+12)& (0+255),b
  2192                           
  2193                           ;mcc_generated_files/pic18f_bootload.c: 239:     frame.data[4] = 0;
  2194  000634  0E00               	movlw	0
  2195  000636  6F6D               	movwf	(_frame+13)& (0+255),b
  2196                           
  2197                           ;mcc_generated_files/pic18f_bootload.c: 240:     frame.data[5] = 0;
  2198  000638  0E00               	movlw	0
  2199  00063A  6F6E               	movwf	(_frame+14)& (0+255),b
  2200                           
  2201                           ;mcc_generated_files/pic18f_bootload.c: 241:     TBLPTRU = 0x3F;
  2202  00063C  0E3F               	movlw	63
  2203  00063E  6EF8               	movwf	248,c	;volatile
  2204  000640                     
  2205                           ; BSR set to: 0
  2206                           ;mcc_generated_files/pic18f_bootload.c: 242:     TBLPTRH = 0xFF;
  2207  000640  68F7               	setf	247,c	;volatile
  2208                           
  2209                           ;mcc_generated_files/pic18f_bootload.c: 243:     TBLPTRL = 0xFE;
  2210  000642  0EFE               	movlw	254
  2211  000644  6EF6               	movwf	246,c	;volatile
  2212                           
  2213                           ;mcc_generated_files/pic18f_bootload.c: 244:     NVMCON1 = 0xC0;
  2214  000646  0EC0               	movlw	192
  2215  000648  6E80               	movwf	128,c	;volsfr
  2216  00064A  0009               	tblrd		*+	;# 
  2217  00064C                     
  2218                           ;mcc_generated_files/pic18f_bootload.c: 246:     frame.data[6] = TABLAT;
  2219  00064C  CFF5 F06F          	movff	tablat,_frame+15	;volatile
  2220  000650  0009               	tblrd		*+	;# 
  2221  000652                     
  2222                           ;mcc_generated_files/pic18f_bootload.c: 248:     frame.data[7] = TABLAT;
  2223  000652  CFF5 F070          	movff	tablat,_frame+16	;volatile
  2224                           
  2225                           ;mcc_generated_files/pic18f_bootload.c: 249:     frame.data[8] = 0;
  2226  000656  0E00               	movlw	0
  2227  000658  0100               	movlb	0	; () banked
  2228  00065A  6F71               	movwf	(_frame+17)& (0+255),b
  2229                           
  2230                           ;mcc_generated_files/pic18f_bootload.c: 250:     frame.data[9] = 0;
  2231  00065C  0E00               	movlw	0
  2232  00065E  6F72               	movwf	(_frame+18)& (0+255),b
  2233                           
  2234                           ;mcc_generated_files/pic18f_bootload.c: 252:     frame.data[10] = 128;
  2235  000660  0E80               	movlw	128
  2236  000662  6F73               	movwf	(_frame+19)& (0+255),b
  2237                           
  2238                           ;mcc_generated_files/pic18f_bootload.c: 253:     frame.data[11] = 128;
  2239  000664  0E80               	movlw	128
  2240  000666  6F74               	movwf	(_frame+20)& (0+255),b
  2241                           
  2242                           ;mcc_generated_files/pic18f_bootload.c: 255:     TBLPTRU = 0x30;
  2243  000668  0E30               	movlw	48
  2244  00066A  6EF8               	movwf	248,c	;volatile
  2245                           
  2246                           ;mcc_generated_files/pic18f_bootload.c: 256:     TBLPTRH = 0x00;
  2247  00066C  0E00               	movlw	0
  2248  00066E  6EF7               	movwf	247,c	;volatile
  2249                           
  2250                           ;mcc_generated_files/pic18f_bootload.c: 257:     TBLPTRL = 0x00;
  2251  000670  0E00               	movlw	0
  2252  000672  6EF6               	movwf	246,c	;volatile
  2253                           
  2254                           ;mcc_generated_files/pic18f_bootload.c: 259:     for (uint8_t i= 12; i < 16; i++)
  2255  000674  0E0C               	movlw	12
  2256  000676  6E04               	movwf	Get_Version_Data@i^0,c
  2257  000678                     l345:
  2258  000678  0009               	tblrd		*+	;# 
  2259  00067A                     
  2260                           ;mcc_generated_files/pic18f_bootload.c: 262:         frame.data[i] = TABLAT;
  2261  00067A  0E69               	movlw	low (_frame+9)
  2262  00067C  2404               	addwf	Get_Version_Data@i^0,w,c
  2263  00067E  6ED9               	movwf	fsr2l,c
  2264  000680  6ADA               	clrf	fsr2h,c
  2265  000682  0E00               	movlw	high (_frame+9)
  2266  000684  22DA               	addwfc	fsr2h,f,c
  2267  000686  CFF5 FFDF          	movff	tablat,indf2	;volatile
  2268  00068A                     
  2269                           ;mcc_generated_files/pic18f_bootload.c: 263:     }
  2270  00068A  2A04               	incf	Get_Version_Data@i^0,f,c
  2271  00068C  0E0F               	movlw	15
  2272  00068E  6404               	cpfsgt	Get_Version_Data@i^0,c
  2273  000690  EF4C  F003         	goto	u431
  2274  000694  EF4E  F003         	goto	u430
  2275  000698                     u431:
  2276  000698  EF3C  F003         	goto	l345
  2277  00069C                     u430:
  2278  00069C                     
  2279                           ;mcc_generated_files/pic18f_bootload.c: 265:     return 25;
  2280  00069C  0E00               	movlw	0
  2281  00069E  6E03               	movwf	(?_Get_Version_Data+1)^0,c
  2282  0006A0  0E19               	movlw	25
  2283  0006A2  6E02               	movwf	?_Get_Version_Data^0,c
  2284  0006A4  0012               	return		;funcret
  2285  0006A6                     __end_of_Get_Version_Data:
  2286                           	callstack 0
  2287                           
  2288 ;; *************** function _Erase_Flash *****************
  2289 ;; Defined at:
  2290 ;;		line 330 in file "mcc_generated_files/pic18f_bootload.c"
  2291 ;; Parameters:    Size  Location     Type
  2292 ;;		None
  2293 ;; Auto vars:     Size  Location     Type
  2294 ;;  blockStartAd    4   21[COMRAM] unsigned long 
  2295 ;;  i               2   18[COMRAM] unsigned short 
  2296 ;;  address         4   14[COMRAM] unsigned long 
  2297 ;;  GIEBitValue     1   20[COMRAM] unsigned char 
  2298 ;; Return value:  Size  Location     Type
  2299 ;;                  2    0[COMRAM] unsigned short 
  2300 ;; Registers used:
  2301 ;;		wreg, status,2, status,0, cstack
  2302 ;; Tracked objects:
  2303 ;;		On entry : 0/0
  2304 ;;		On exit  : 0/0
  2305 ;;		Unchanged: 0/0
  2306 ;; Data sizes:     COMRAM   BANK0   BANK1   BANK2   BANK3   BANK4   BANK5   BANK6   BANK7   BANK8   BANK9  BANK10  BANK1
      +1  BANK12  BANK14
  2307 ;;      Params:         2       0       0       0       0       0       0       0       0       0       0       0       
      +0       0       0
  2308 ;;      Locals:        11       0       0       0       0       0       0       0       0       0       0       0       
      +0       0       0
  2309 ;;      Temps:         12       0       0       0       0       0       0       0       0       0       0       0       
      +0       0       0
  2310 ;;      Totals:        25       0       0       0       0       0       0       0       0       0       0       0       
      +0       0       0
  2311 ;;Total ram usage:       25 bytes
  2312 ;; Hardware stack levels used: 1
  2313 ;; Hardware stack levels required when called: 1
  2314 ;; This function calls:
  2315 ;;		_StartErase
  2316 ;; This function is called by:
  2317 ;;		_ProcessBootBuffer
  2318 ;; This function uses a non-reentrant model
  2319 ;;
  2320                           
  2321                           	psect	text18
  2322  000286                     __ptext18:
  2323                           	callstack 0
  2324  000286                     _Erase_Flash:
  2325                           	callstack 25
  2326  000286                     
  2327                           ;mcc_generated_files/pic18f_bootload.c: 332:     uint32_t address;;mcc_generated_files/p
      +                          ic18f_bootload.c: 334:     TBLPTRL = frame.address_L;
  2328  000286  C065  FFF6         	movff	_frame+5,tblptrl	;volatile
  2329                           
  2330                           ;mcc_generated_files/pic18f_bootload.c: 335:     TBLPTRH = frame.address_H;
  2331  00028A  C066  FFF7         	movff	_frame+6,tblptrh	;volatile
  2332                           
  2333                           ;mcc_generated_files/pic18f_bootload.c: 336:     TBLPTRU = frame.address_U;
  2334  00028E  C067  FFF8         	movff	_frame+7,tblptru	;volatile
  2335  000292                     
  2336                           ;mcc_generated_files/pic18f_bootload.c: 337:     address = (((uint32_t)frame.address_U) 
      +                          << 16)
  2337  000292  C066  F004         	movff	_frame+6,??_Erase_Flash
  2338  000296  6A05               	clrf	(??_Erase_Flash+1)^0,c
  2339  000298  6A06               	clrf	(??_Erase_Flash+2)^0,c
  2340  00029A  6A07               	clrf	(??_Erase_Flash+3)^0,c
  2341  00029C  C006  F007         	movff	??_Erase_Flash+2,??_Erase_Flash+3
  2342  0002A0  C005  F006         	movff	??_Erase_Flash+1,??_Erase_Flash+2
  2343  0002A4  C004  F005         	movff	??_Erase_Flash,??_Erase_Flash+1
  2344  0002A8  6A04               	clrf	??_Erase_Flash^0,c
  2345  0002AA  C067  F008         	movff	_frame+7,??_Erase_Flash+4
  2346  0002AE  6A09               	clrf	(??_Erase_Flash+5)^0,c
  2347  0002B0  6A0A               	clrf	(??_Erase_Flash+6)^0,c
  2348  0002B2  6A0B               	clrf	(??_Erase_Flash+7)^0,c
  2349  0002B4  C009  F00B         	movff	??_Erase_Flash+5,??_Erase_Flash+7
  2350  0002B8  C008  F00A         	movff	??_Erase_Flash+4,??_Erase_Flash+6
  2351  0002BC  6A09               	clrf	(??_Erase_Flash+5)^0,c
  2352  0002BE  6A08               	clrf	(??_Erase_Flash+4)^0,c
  2353  0002C0  5004               	movf	??_Erase_Flash^0,w,c
  2354  0002C2  2408               	addwf	(??_Erase_Flash+4)^0,w,c
  2355  0002C4  6E0C               	movwf	(??_Erase_Flash+8)^0,c
  2356  0002C6  5005               	movf	(??_Erase_Flash+1)^0,w,c
  2357  0002C8  2009               	addwfc	(??_Erase_Flash+5)^0,w,c
  2358  0002CA  6E0D               	movwf	(??_Erase_Flash+9)^0,c
  2359  0002CC  5006               	movf	(??_Erase_Flash+2)^0,w,c
  2360  0002CE  200A               	addwfc	(??_Erase_Flash+6)^0,w,c
  2361  0002D0  6E0E               	movwf	(??_Erase_Flash+10)^0,c
  2362  0002D2  5007               	movf	(??_Erase_Flash+3)^0,w,c
  2363  0002D4  200B               	addwfc	(??_Erase_Flash+7)^0,w,c
  2364  0002D6  6E0F               	movwf	(??_Erase_Flash+11)^0,c
  2365  0002D8  0100               	movlb	0	; () banked
  2366  0002DA  5165               	movf	(_frame+5)& (0+255),w,b
  2367  0002DC  240C               	addwf	(??_Erase_Flash+8)^0,w,c
  2368  0002DE  6E10               	movwf	Erase_Flash@address^0,c
  2369  0002E0  0E00               	movlw	0
  2370  0002E2  200D               	addwfc	(??_Erase_Flash+9)^0,w,c
  2371  0002E4  6E11               	movwf	(Erase_Flash@address+1)^0,c
  2372  0002E6  0E00               	movlw	0
  2373  0002E8  200E               	addwfc	(??_Erase_Flash+10)^0,w,c
  2374  0002EA  6E12               	movwf	(Erase_Flash@address+2)^0,c
  2375  0002EC  0E00               	movlw	0
  2376  0002EE  200F               	addwfc	(??_Erase_Flash+11)^0,w,c
  2377  0002F0  6E13               	movwf	(Erase_Flash@address+3)^0,c
  2378  0002F2                     
  2379                           ; BSR set to: 0
  2380                           ;mcc_generated_files/pic18f_bootload.c: 341:     uint8_t GIEBitValue = INTCONbits.GIE;
  2381  0002F2  0E00               	movlw	0
  2382  0002F4  BEF2               	btfsc	242,7,c	;volatile
  2383  0002F6  0E01               	movlw	1
  2384  0002F8  6E16               	movwf	Erase_Flash@GIEBitValue^0,c
  2385  0002FA                     
  2386                           ; BSR set to: 0
  2387                           ;mcc_generated_files/pic18f_bootload.c: 344:     INTCONbits.GIE = 0;
  2388  0002FA  9EF2               	bcf	242,7,c	;volatile
  2389  0002FC                     
  2390                           ; BSR set to: 0
  2391                           ;mcc_generated_files/pic18f_bootload.c: 346:     for (uint16_t i=0; i < frame.data_lengt
      +                          h; i++)
  2392  0002FC  0E00               	movlw	0
  2393  0002FE  6E15               	movwf	(Erase_Flash@i+1)^0,c
  2394  000300  0E00               	movlw	0
  2395  000302  6E14               	movwf	Erase_Flash@i^0,c
  2396  000304  EFA1  F001         	goto	l1760
  2397  000308                     l1746:
  2398                           
  2399                           ; BSR set to: 0
  2400                           ;mcc_generated_files/pic18f_bootload.c: 347:     {;mcc_generated_files/pic18f_bootload.c
      +                          : 348:         uint32_t blockStartAddr = (uint32_t) (address & ((0x020000 - 1) ^ ((128 *
      +                           2) - 1)));
  2401  000308  0E00               	movlw	0
  2402  00030A  1410               	andwf	Erase_Flash@address^0,w,c
  2403  00030C  6E17               	movwf	Erase_Flash@blockStartAddr^0,c
  2404  00030E  0EFF               	movlw	255
  2405  000310  1411               	andwf	(Erase_Flash@address+1)^0,w,c
  2406  000312  6E18               	movwf	(Erase_Flash@blockStartAddr+1)^0,c
  2407  000314  0E01               	movlw	1
  2408  000316  1412               	andwf	(Erase_Flash@address+2)^0,w,c
  2409  000318  6E19               	movwf	(Erase_Flash@blockStartAddr+2)^0,c
  2410  00031A  0E00               	movlw	0
  2411  00031C  1413               	andwf	(Erase_Flash@address+3)^0,w,c
  2412  00031E  6E1A               	movwf	(Erase_Flash@blockStartAddr+3)^0,c
  2413  000320                     
  2414                           ; BSR set to: 0
  2415                           ;mcc_generated_files/pic18f_bootload.c: 352:         NVMADRU = (uint8_t) ((blockStartAdd
      +                          r & 0x00FF0000) >> 16);
  2416  000320  C019  FF7B         	movff	Erase_Flash@blockStartAddr+2,3963	;volatile
  2417  000324                     
  2418                           ; BSR set to: 0
  2419                           ;mcc_generated_files/pic18f_bootload.c: 353:         NVMADRH = (uint8_t) ((blockStartAdd
      +                          r & 0x0000FF00) >> 8);
  2420  000324  C018  FF7A         	movff	Erase_Flash@blockStartAddr+1,3962	;volatile
  2421  000328                     
  2422                           ; BSR set to: 0
  2423                           ;mcc_generated_files/pic18f_bootload.c: 356:         NVMCON0bits.NVMEN = 1;
  2424  000328  8E7F               	bsf	127,7,c	;volatile
  2425  00032A                     
  2426                           ; BSR set to: 0
  2427                           ;mcc_generated_files/pic18f_bootload.c: 358:         StartErase();
  2428  00032A  EC6D  F004         	call	_StartErase	;wreg free
  2429  00032E                     
  2430                           ;mcc_generated_files/pic18f_bootload.c: 359:         address += 128 * 2;
  2431  00032E  0E00               	movlw	0
  2432  000330  2610               	addwf	Erase_Flash@address^0,f,c
  2433  000332  0E01               	movlw	1
  2434  000334  2211               	addwfc	(Erase_Flash@address+1)^0,f,c
  2435  000336  0E00               	movlw	0
  2436  000338  2212               	addwfc	(Erase_Flash@address+2)^0,f,c
  2437  00033A  0E00               	movlw	0
  2438  00033C  2213               	addwfc	(Erase_Flash@address+3)^0,f,c
  2439  00033E                     
  2440                           ;mcc_generated_files/pic18f_bootload.c: 360:     }
  2441  00033E  4A14               	infsnz	Erase_Flash@i^0,f,c
  2442  000340  2A15               	incf	(Erase_Flash@i+1)^0,f,c
  2443  000342                     l1760:
  2444  000342  0100               	movlb	0	; () banked
  2445  000344  5161               	movf	(_frame+1)& (0+255),w,b
  2446  000346  5C14               	subwf	Erase_Flash@i^0,w,c
  2447  000348  5162               	movf	(_frame+2)& (0+255),w,b
  2448  00034A  5815               	subwfb	(Erase_Flash@i+1)^0,w,c
  2449  00034C  A0D8               	btfss	status,0,c
  2450  00034E  EFAB  F001         	goto	u471
  2451  000352  EFAD  F001         	goto	u470
  2452  000356                     u471:
  2453  000356  EF84  F001         	goto	l1746
  2454  00035A                     u470:
  2455  00035A                     
  2456                           ; BSR set to: 0
  2457                           ;mcc_generated_files/pic18f_bootload.c: 362:     INTCONbits.GIE = GIEBitValue;
  2458  00035A  B016               	btfsc	Erase_Flash@GIEBitValue^0,0,c
  2459  00035C  D002               	bra	u485
  2460  00035E  9EF2               	bcf	242,7,c	;volatile
  2461  000360  D001               	bra	u486
  2462  000362                     u485:
  2463  000362  8EF2               	bsf	242,7,c	;volatile
  2464  000364                     u486:
  2465                           
  2466                           ;mcc_generated_files/pic18f_bootload.c: 365:     NVMCON0bits.NVMEN = 0;
  2467  000364  9E7F               	bcf	127,7,c	;volatile
  2468  000366                     
  2469                           ;mcc_generated_files/pic18f_bootload.c: 367:     frame.data[0] = 0x01;
  2470  000366  0E01               	movlw	1
  2471  000368  0100               	movlb	0	; () banked
  2472  00036A  6F69               	movwf	(_frame+9)& (0+255),b
  2473                           
  2474                           ;mcc_generated_files/pic18f_bootload.c: 368:     frame.EE_key_1 = 0x00;
  2475  00036C  0E00               	movlw	0
  2476  00036E  6F63               	movwf	(_frame+3)& (0+255),b
  2477                           
  2478                           ;mcc_generated_files/pic18f_bootload.c: 369:     frame.EE_key_2 = 0x00;
  2479  000370  0E00               	movlw	0
  2480  000372  6F64               	movwf	(_frame+4)& (0+255),b
  2481                           
  2482                           ;mcc_generated_files/pic18f_bootload.c: 370:     return (10);
  2483  000374  0E00               	movlw	0
  2484  000376  6E03               	movwf	(?_Erase_Flash+1)^0,c
  2485  000378  0E0A               	movlw	10
  2486  00037A  6E02               	movwf	?_Erase_Flash^0,c
  2487  00037C                     
  2488                           ; BSR set to: 0
  2489  00037C  0012               	return		;funcret
  2490  00037E                     __end_of_Erase_Flash:
  2491                           	callstack 0
  2492                           
  2493 ;; *************** function _StartErase *****************
  2494 ;; Defined at:
  2495 ;;		line 480 in file "mcc_generated_files/pic18f_bootload.c"
  2496 ;; Parameters:    Size  Location     Type
  2497 ;;		None
  2498 ;; Auto vars:     Size  Location     Type
  2499 ;;		None
  2500 ;; Return value:  Size  Location     Type
  2501 ;;                  1    wreg      void 
  2502 ;; Registers used:
  2503 ;;		None
  2504 ;; Tracked objects:
  2505 ;;		On entry : 0/0
  2506 ;;		On exit  : 0/0
  2507 ;;		Unchanged: 0/0
  2508 ;; Data sizes:     COMRAM   BANK0   BANK1   BANK2   BANK3   BANK4   BANK5   BANK6   BANK7   BANK8   BANK9  BANK10  BANK1
      +1  BANK12  BANK14
  2509 ;;      Params:         0       0       0       0       0       0       0       0       0       0       0       0       
      +0       0       0
  2510 ;;      Locals:         0       0       0       0       0       0       0       0       0       0       0       0       
      +0       0       0
  2511 ;;      Temps:          0       0       0       0       0       0       0       0       0       0       0       0       
      +0       0       0
  2512 ;;      Totals:         0       0       0       0       0       0       0       0       0       0       0       0       
      +0       0       0
  2513 ;;Total ram usage:        0 bytes
  2514 ;; Hardware stack levels used: 1
  2515 ;; This function calls:
  2516 ;;		Nothing
  2517 ;; This function is called by:
  2518 ;;		_Erase_Flash
  2519 ;; This function uses a non-reentrant model
  2520 ;;
  2521                           
  2522                           	psect	text19
  2523  0008DA                     __ptext19:
  2524                           	callstack 0
  2525  0008DA                     _StartErase:
  2526                           	callstack 25
  2527  0008DA  010F               	banksel	3969	;# 
  2528  0008DC  5000               	movf	0,w,c	;# 
  2529  0008DE  6F81               	movwf	3969,b	;# 
  2530  0008E0  5001               	movf	_EE_Key_2& (0+255),w,c	;# 
  2531  0008E2  6F81               	movwf	3969,b	;# 
  2532  0008E4  8C80               	bsf	3968,6,c	;# 
  2533                           
  2534                           ;mcc_generated_files/pic18f_bootload.c: 488:     __nop();
  2535  0008E6  F000               	nop	
  2536                           
  2537                           ;mcc_generated_files/pic18f_bootload.c: 489:     __nop();
  2538  0008E8  F000               	nop	
  2539  0008EA  0012               	return		;funcret
  2540  0008EC                     __end_of_StartErase:
  2541                           	callstack 0
  2542                           
  2543 ;; *************** function _Calc_Checksum *****************
  2544 ;; Defined at:
  2545 ;;		line 430 in file "mcc_generated_files/pic18f_bootload.c"
  2546 ;; Parameters:    Size  Location     Type
  2547 ;;		None
  2548 ;; Auto vars:     Size  Location     Type
  2549 ;;  length          4   10[COMRAM] unsigned long 
  2550 ;;  i               4    6[COMRAM] unsigned long 
  2551 ;; Return value:  Size  Location     Type
  2552 ;;                  2    0[COMRAM] unsigned short 
  2553 ;; Registers used:
  2554 ;;		wreg, status,2, status,0
  2555 ;; Tracked objects:
  2556 ;;		On entry : 0/0
  2557 ;;		On exit  : 0/0
  2558 ;;		Unchanged: 0/0
  2559 ;; Data sizes:     COMRAM   BANK0   BANK1   BANK2   BANK3   BANK4   BANK5   BANK6   BANK7   BANK8   BANK9  BANK10  BANK1
      +1  BANK12  BANK14
  2560 ;;      Params:         2       0       0       0       0       0       0       0       0       0       0       0       
      +0       0       0
  2561 ;;      Locals:         8       0       0       0       0       0       0       0       0       0       0       0       
      +0       0       0
  2562 ;;      Temps:          4       0       0       0       0       0       0       0       0       0       0       0       
      +0       0       0
  2563 ;;      Totals:        14       0       0       0       0       0       0       0       0       0       0       0       
      +0       0       0
  2564 ;;Total ram usage:       14 bytes
  2565 ;; Hardware stack levels used: 1
  2566 ;; This function calls:
  2567 ;;		Nothing
  2568 ;; This function is called by:
  2569 ;;		_ProcessBootBuffer
  2570 ;; This function uses a non-reentrant model
  2571 ;;
  2572                           
  2573                           	psect	text20
  2574  00046A                     __ptext20:
  2575                           	callstack 0
  2576  00046A                     _Calc_Checksum:
  2577                           	callstack 26
  2578  00046A                     
  2579                           ;mcc_generated_files/pic18f_bootload.c: 433:     uint32_t i;;mcc_generated_files/pic18f_
      +                          bootload.c: 434:     uint32_t length;;mcc_generated_files/pic18f_bootload.c: 440:     TB
      +                          LPTRL = frame.address_L;
  2580  00046A  C065  FFF6         	movff	_frame+5,tblptrl	;volatile
  2581                           
  2582                           ;mcc_generated_files/pic18f_bootload.c: 441:     TBLPTRH = frame.address_H;
  2583  00046E  C066  FFF7         	movff	_frame+6,tblptrh	;volatile
  2584                           
  2585                           ;mcc_generated_files/pic18f_bootload.c: 442:     TBLPTRU = frame.address_U;
  2586  000472  C067  FFF8         	movff	_frame+7,tblptru	;volatile
  2587  000476                     
  2588                           ;mcc_generated_files/pic18f_bootload.c: 443:     NVMCON1 = 0x80;
  2589  000476  0E80               	movlw	128
  2590  000478  6E80               	movwf	128,c	;volsfr
  2591                           
  2592                           ;mcc_generated_files/pic18f_bootload.c: 444:     check_sum = 0;
  2593  00047A  0E00               	movlw	0
  2594  00047C  6E2B               	movwf	(_check_sum+1)^0,c
  2595  00047E  0E00               	movlw	0
  2596  000480  6E2A               	movwf	_check_sum^0,c
  2597  000482                     
  2598                           ;mcc_generated_files/pic18f_bootload.c: 445:     length = frame.data_length;
  2599  000482  C061  F00C         	movff	_frame+1,Calc_Checksum@length
  2600  000486  C062  F00D         	movff	_frame+2,Calc_Checksum@length+1
  2601  00048A  6A0E               	clrf	(Calc_Checksum@length+2)^0,c
  2602  00048C  6A0F               	clrf	(Calc_Checksum@length+3)^0,c
  2603  00048E                     
  2604                           ;mcc_generated_files/pic18f_bootload.c: 447:     length += ((uint32_t) frame.EE_key_1) <
      +                          < 16;
  2605  00048E  C063  F004         	movff	_frame+3,??_Calc_Checksum
  2606  000492  6A05               	clrf	(??_Calc_Checksum+1)^0,c
  2607  000494  6A06               	clrf	(??_Calc_Checksum+2)^0,c
  2608  000496  6A07               	clrf	(??_Calc_Checksum+3)^0,c
  2609  000498  C005  F007         	movff	??_Calc_Checksum+1,??_Calc_Checksum+3
  2610  00049C  C004  F006         	movff	??_Calc_Checksum,??_Calc_Checksum+2
  2611  0004A0  6A05               	clrf	(??_Calc_Checksum+1)^0,c
  2612  0004A2  6A04               	clrf	??_Calc_Checksum^0,c
  2613  0004A4  5004               	movf	??_Calc_Checksum^0,w,c
  2614  0004A6  260C               	addwf	Calc_Checksum@length^0,f,c
  2615  0004A8  5005               	movf	(??_Calc_Checksum+1)^0,w,c
  2616  0004AA  220D               	addwfc	(Calc_Checksum@length+1)^0,f,c
  2617  0004AC  5006               	movf	(??_Calc_Checksum+2)^0,w,c
  2618  0004AE  220E               	addwfc	(Calc_Checksum@length+2)^0,f,c
  2619  0004B0  5007               	movf	(??_Calc_Checksum+3)^0,w,c
  2620  0004B2  220F               	addwfc	(Calc_Checksum@length+3)^0,f,c
  2621  0004B4                     
  2622                           ;mcc_generated_files/pic18f_bootload.c: 449:     for (i = 0; i < length; i += 2)
  2623  0004B4  0E00               	movlw	0
  2624  0004B6  6E08               	movwf	Calc_Checksum@i^0,c
  2625  0004B8  0E00               	movlw	0
  2626  0004BA  6E09               	movwf	(Calc_Checksum@i+1)^0,c
  2627  0004BC  0E00               	movlw	0
  2628  0004BE  6E0A               	movwf	(Calc_Checksum@i+2)^0,c
  2629  0004C0  0E00               	movlw	0
  2630  0004C2  6E0B               	movwf	(Calc_Checksum@i+3)^0,c
  2631  0004C4  EF72  F002         	goto	l1818
  2632  0004C8                     l380:
  2633  0004C8  0009               	tblrd		*+	;# 
  2634  0004CA                     
  2635                           ;mcc_generated_files/pic18f_bootload.c: 452:         check_sum += (uint16_t)TABLAT;
  2636  0004CA  50F5               	movf	245,w,c	;volatile
  2637  0004CC  262A               	addwf	_check_sum^0,f,c
  2638  0004CE  0E00               	movlw	0
  2639  0004D0  222B               	addwfc	(_check_sum+1)^0,f,c
  2640  0004D2  0009               	tblrd		*+	;# 
  2641  0004D4                     
  2642                           ;mcc_generated_files/pic18f_bootload.c: 454:         check_sum += (uint16_t)TABLAT << 8;
  2643  0004D4  50F5               	movf	245,w,c	;volatile
  2644  0004D6  262B               	addwf	(_check_sum+1)^0,f,c
  2645  0004D8                     
  2646                           ;mcc_generated_files/pic18f_bootload.c: 455:      }
  2647  0004D8  0E02               	movlw	2
  2648  0004DA  2608               	addwf	Calc_Checksum@i^0,f,c
  2649  0004DC  0E00               	movlw	0
  2650  0004DE  2209               	addwfc	(Calc_Checksum@i+1)^0,f,c
  2651  0004E0  220A               	addwfc	(Calc_Checksum@i+2)^0,f,c
  2652  0004E2  220B               	addwfc	(Calc_Checksum@i+3)^0,f,c
  2653  0004E4                     l1818:
  2654  0004E4  500C               	movf	Calc_Checksum@length^0,w,c
  2655  0004E6  5C08               	subwf	Calc_Checksum@i^0,w,c
  2656  0004E8  500D               	movf	(Calc_Checksum@length+1)^0,w,c
  2657  0004EA  5809               	subwfb	(Calc_Checksum@i+1)^0,w,c
  2658  0004EC  500E               	movf	(Calc_Checksum@length+2)^0,w,c
  2659  0004EE  580A               	subwfb	(Calc_Checksum@i+2)^0,w,c
  2660  0004F0  500F               	movf	(Calc_Checksum@length+3)^0,w,c
  2661  0004F2  580B               	subwfb	(Calc_Checksum@i+3)^0,w,c
  2662  0004F4  A0D8               	btfss	status,0,c
  2663  0004F6  EF7F  F002         	goto	u521
  2664  0004FA  EF81  F002         	goto	u520
  2665  0004FE                     u521:
  2666  0004FE  EF64  F002         	goto	l380
  2667  000502                     u520:
  2668  000502                     
  2669                           ;mcc_generated_files/pic18f_bootload.c: 456:      frame.data[0] = (uint8_t) (check_sum &
      +                           0x00FF);
  2670  000502  C02A  F069         	movff	_check_sum,_frame+9
  2671  000506                     
  2672                           ;mcc_generated_files/pic18f_bootload.c: 457:      frame.data[1] = (uint8_t)((check_sum &
      +                           0xFF00) >> 8);
  2673  000506  502B               	movf	(_check_sum+1)^0,w,c
  2674  000508  0100               	movlb	0	; () banked
  2675  00050A  6F6A               	movwf	(_frame+10)& (0+255),b
  2676                           
  2677                           ;mcc_generated_files/pic18f_bootload.c: 458:      return (11);
  2678  00050C  0E00               	movlw	0
  2679  00050E  6E03               	movwf	(?_Calc_Checksum+1)^0,c
  2680  000510  0E0B               	movlw	11
  2681  000512  6E02               	movwf	?_Calc_Checksum^0,c
  2682  000514                     
  2683                           ; BSR set to: 0
  2684  000514  0012               	return		;funcret
  2685  000516                     __end_of_Calc_Checksum:
  2686                           	callstack 0
  2687                           
  2688 ;; *************** function _EUSART2_Write *****************
  2689 ;; Defined at:
  2690 ;;		line 132 in file "mcc_generated_files/eusart2.c"
  2691 ;; Parameters:    Size  Location     Type
  2692 ;;  txData          1    wreg     unsigned char 
  2693 ;; Auto vars:     Size  Location     Type
  2694 ;;  txData          1    0[COMRAM] unsigned char 
  2695 ;; Return value:  Size  Location     Type
  2696 ;;                  1    wreg      void 
  2697 ;; Registers used:
  2698 ;;		wreg
  2699 ;; Tracked objects:
  2700 ;;		On entry : 0/0
  2701 ;;		On exit  : 0/0
  2702 ;;		Unchanged: 0/0
  2703 ;; Data sizes:     COMRAM   BANK0   BANK1   BANK2   BANK3   BANK4   BANK5   BANK6   BANK7   BANK8   BANK9  BANK10  BANK1
      +1  BANK12  BANK14
  2704 ;;      Params:         0       0       0       0       0       0       0       0       0       0       0       0       
      +0       0       0
  2705 ;;      Locals:         1       0       0       0       0       0       0       0       0       0       0       0       
      +0       0       0
  2706 ;;      Temps:          0       0       0       0       0       0       0       0       0       0       0       0       
      +0       0       0
  2707 ;;      Totals:         1       0       0       0       0       0       0       0       0       0       0       0       
      +0       0       0
  2708 ;;Total ram usage:        1 bytes
  2709 ;; Hardware stack levels used: 1
  2710 ;; This function calls:
  2711 ;;		Nothing
  2712 ;; This function is called by:
  2713 ;;		_Run_Bootloader
  2714 ;; This function uses a non-reentrant model
  2715 ;;
  2716                           
  2717                           	psect	text21
  2718  000884                     __ptext21:
  2719                           	callstack 0
  2720  000884                     _EUSART2_Write:
  2721                           	callstack 27
  2722                           
  2723                           ; BSR set to: 0
  2724                           ;incstack = 0
  2725                           ;EUSART2_Write@txData stored from wreg
  2726  000884  6E02               	movwf	EUSART2_Write@txData^0,c
  2727  000886                     l67:
  2728                           
  2729                           ;mcc_generated_files/eusart2.c: 134:     while(0 == PIR3bits.TX2IF)
  2730  000886  010E               	movlb	14	; () banked
  2731  000888  ADC8               	btfss	200,6,b	;volatile
  2732  00088A  EF49  F004         	goto	u151
  2733  00088E  EF4B  F004         	goto	u150
  2734  000892                     u151:
  2735  000892  EF43  F004         	goto	l67
  2736  000896                     u150:
  2737  000896                     
  2738                           ; BSR set to: 14
  2739                           ;mcc_generated_files/eusart2.c: 138:     TX2REG = txData;
  2740  000896  C002  FE95         	movff	EUSART2_Write@txData,3733	;volatile
  2741  00089A                     
  2742                           ; BSR set to: 14
  2743  00089A  0012               	return		;funcret
  2744  00089C                     __end_of_EUSART2_Write:
  2745                           	callstack 0
  2746                           
  2747 ;; *************** function _EUSART2_Read *****************
  2748 ;; Defined at:
  2749 ;;		line 113 in file "mcc_generated_files/eusart2.c"
  2750 ;; Parameters:    Size  Location     Type
  2751 ;;		None
  2752 ;; Auto vars:     Size  Location     Type
  2753 ;;		None
  2754 ;; Return value:  Size  Location     Type
  2755 ;;                  1    wreg      unsigned char 
  2756 ;; Registers used:
  2757 ;;		wreg, status,2
  2758 ;; Tracked objects:
  2759 ;;		On entry : 0/0
  2760 ;;		On exit  : 0/0
  2761 ;;		Unchanged: 0/0
  2762 ;; Data sizes:     COMRAM   BANK0   BANK1   BANK2   BANK3   BANK4   BANK5   BANK6   BANK7   BANK8   BANK9  BANK10  BANK1
      +1  BANK12  BANK14
  2763 ;;      Params:         0       0       0       0       0       0       0       0       0       0       0       0       
      +0       0       0
  2764 ;;      Locals:         0       0       0       0       0       0       0       0       0       0       0       0       
      +0       0       0
  2765 ;;      Temps:          0       0       0       0       0       0       0       0       0       0       0       0       
      +0       0       0
  2766 ;;      Totals:         0       0       0       0       0       0       0       0       0       0       0       0       
      +0       0       0
  2767 ;;Total ram usage:        0 bytes
  2768 ;; Hardware stack levels used: 1
  2769 ;; This function calls:
  2770 ;;		Nothing
  2771 ;; This function is called by:
  2772 ;;		_Run_Bootloader
  2773 ;; This function uses a non-reentrant model
  2774 ;;
  2775                           
  2776                           	psect	text22
  2777  000804                     __ptext22:
  2778                           	callstack 0
  2779  000804                     _EUSART2_Read:
  2780                           	callstack 27
  2781  000804                     l60:
  2782                           
  2783                           ;mcc_generated_files/eusart2.c: 115:     while(!PIR3bits.RC2IF)
  2784  000804  010E               	movlb	14	; () banked
  2785  000806  AFC8               	btfss	200,7,b	;volatile
  2786  000808  EF08  F004         	goto	u131
  2787  00080C  EF0A  F004         	goto	u130
  2788  000810                     u131:
  2789  000810  EF02  F004         	goto	l60
  2790  000814                     u130:
  2791  000814                     
  2792                           ; BSR set to: 14
  2793                           ;mcc_generated_files/eusart2.c: 119:     eusart2RxLastError.status = 0;
  2794  000814  0E00               	movlw	0
  2795  000816  6E2F               	movwf	_eusart2RxLastError^0,c	;volatile
  2796  000818                     
  2797                           ; BSR set to: 14
  2798                           ;mcc_generated_files/eusart2.c: 121:     if(1 == RC2STAbits.OERR)
  2799  000818  A398               	btfss	152,1,b	;volatile
  2800  00081A  EF11  F004         	goto	u141
  2801  00081E  EF13  F004         	goto	u140
  2802  000822                     u141:
  2803  000822  EF15  F004         	goto	l1334
  2804  000826                     u140:
  2805  000826                     
  2806                           ; BSR set to: 14
  2807                           ;mcc_generated_files/eusart2.c: 122:     {;mcc_generated_files/eusart2.c: 125:         R
      +                          C2STAbits.CREN = 0;
  2808  000826  9998               	bcf	152,4,b	;volatile
  2809                           
  2810                           ;mcc_generated_files/eusart2.c: 126:         RC2STAbits.CREN = 1;
  2811  000828  8998               	bsf	152,4,b	;volatile
  2812  00082A                     l1334:
  2813                           
  2814                           ; BSR set to: 14
  2815                           ;mcc_generated_files/eusart2.c: 129:     return RC2REG;
  2816  00082A  5194               	movf	148,w,b	;volatile
  2817  00082C                     
  2818                           ; BSR set to: 14
  2819  00082C  0012               	return		;funcret
  2820  00082E                     __end_of_EUSART2_Read:
  2821                           	callstack 0
  2822                           
  2823 ;; *************** function _Check_Device_Reset *****************
  2824 ;; Defined at:
  2825 ;;		line 498 in file "mcc_generated_files/pic18f_bootload.c"
  2826 ;; Parameters:    Size  Location     Type
  2827 ;;		None
  2828 ;; Auto vars:     Size  Location     Type
  2829 ;;		None
  2830 ;; Return value:  Size  Location     Type
  2831 ;;                  1    wreg      void 
  2832 ;; Registers used:
  2833 ;;		wreg, status,2, status,0
  2834 ;; Tracked objects:
  2835 ;;		On entry : 0/0
  2836 ;;		On exit  : 0/0
  2837 ;;		Unchanged: 0/0
  2838 ;; Data sizes:     COMRAM   BANK0   BANK1   BANK2   BANK3   BANK4   BANK5   BANK6   BANK7   BANK8   BANK9  BANK10  BANK1
      +1  BANK12  BANK14
  2839 ;;      Params:         0       0       0       0       0       0       0       0       0       0       0       0       
      +0       0       0
  2840 ;;      Locals:         0       0       0       0       0       0       0       0       0       0       0       0       
      +0       0       0
  2841 ;;      Temps:          0       0       0       0       0       0       0       0       0       0       0       0       
      +0       0       0
  2842 ;;      Totals:         0       0       0       0       0       0       0       0       0       0       0       0       
      +0       0       0
  2843 ;;Total ram usage:        0 bytes
  2844 ;; Hardware stack levels used: 1
  2845 ;; This function calls:
  2846 ;;		Nothing
  2847 ;; This function is called by:
  2848 ;;		_Run_Bootloader
  2849 ;; This function uses a non-reentrant model
  2850 ;;
  2851                           
  2852                           	psect	text23
  2853  0008B2                     __ptext23:
  2854                           	callstack 0
  2855  0008B2                     _Check_Device_Reset:
  2856                           	callstack 27
  2857  0008B2                     
  2858                           ;mcc_generated_files/pic18f_bootload.c: 500:     if (reset_pending == 1)
  2859  0008B2  042C               	decf	_reset_pending^0,w,c
  2860  0008B4  A4D8               	btfss	status,2,c
  2861  0008B6  EF5F  F004         	goto	u161
  2862  0008BA  EF61  F004         	goto	u160
  2863  0008BE                     u161:
  2864  0008BE  EF63  F004         	goto	l392
  2865  0008C2                     u160:
  2866  0008C2                     
  2867                           ;mcc_generated_files/pic18f_bootload.c: 501:     {;mcc_generated_files/pic18f_bootload.c
      +                          : 502:         LATAbits.LATA7 = 0;
  2868  0008C2  9E82               	bcf	130,7,c	;volatile
  2869  0008C4  00FF               	reset		;# 
  2870  0008C6                     l392:
  2871  0008C6  0012               	return		;funcret
  2872  0008C8                     __end_of_Check_Device_Reset:
  2873                           	callstack 0
  2874                           
  2875 ;; *************** function _Bootload_Required *****************
  2876 ;; Defined at:
  2877 ;;		line 155 in file "mcc_generated_files/pic18f_bootload.c"
  2878 ;; Parameters:    Size  Location     Type
  2879 ;;		None
  2880 ;; Auto vars:     Size  Location     Type
  2881 ;;  i               1    0[COMRAM] unsigned char 
  2882 ;; Return value:  Size  Location     Type
  2883 ;;                  1    wreg      _Bool 
  2884 ;; Registers used:
  2885 ;;		wreg, status,2, status,0
  2886 ;; Tracked objects:
  2887 ;;		On entry : 0/0
  2888 ;;		On exit  : 0/0
  2889 ;;		Unchanged: 0/0
  2890 ;; Data sizes:     COMRAM   BANK0   BANK1   BANK2   BANK3   BANK4   BANK5   BANK6   BANK7   BANK8   BANK9  BANK10  BANK1
      +1  BANK12  BANK14
  2891 ;;      Params:         0       0       0       0       0       0       0       0       0       0       0       0       
      +0       0       0
  2892 ;;      Locals:         1       0       0       0       0       0       0       0       0       0       0       0       
      +0       0       0
  2893 ;;      Temps:          0       0       0       0       0       0       0       0       0       0       0       0       
      +0       0       0
  2894 ;;      Totals:         1       0       0       0       0       0       0       0       0       0       0       0       
      +0       0       0
  2895 ;;Total ram usage:        1 bytes
  2896 ;; Hardware stack levels used: 1
  2897 ;; This function calls:
  2898 ;;		Nothing
  2899 ;; This function is called by:
  2900 ;;		_BOOTLOADER_Initialize
  2901 ;; This function uses a non-reentrant model
  2902 ;;
  2903                           
  2904                           	psect	text24
  2905  0006FE                     __ptext24:
  2906                           	callstack 0
  2907  0006FE                     _Bootload_Required:
  2908                           	callstack 28
  2909  0006FE                     
  2910                           ;mcc_generated_files/pic18f_bootload.c: 161:     for (uint8_t i = 0; i != 0xFF; i++) __n
      +                          op();
  2911  0006FE  0E00               	movlw	0
  2912  000700  6E02               	movwf	Bootload_Required@i^0,c
  2913  000702                     l325:
  2914  000702  F000               	nop	
  2915  000704  2A02               	incf	Bootload_Required@i^0,f,c
  2916  000706  2802               	incf	Bootload_Required@i^0,w,c
  2917  000708  A4D8               	btfss	status,2,c
  2918  00070A  EF89  F003         	goto	u261
  2919  00070E  EF8B  F003         	goto	u260
  2920  000712                     u261:
  2921  000712  EF81  F003         	goto	l325
  2922  000716                     u260:
  2923  000716                     
  2924                           ;mcc_generated_files/pic18f_bootload.c: 163:     if (PORTBbits.RB4 == 0)
  2925  000716  B88D               	btfsc	141,4,c	;volatile
  2926  000718  EF90  F003         	goto	u271
  2927  00071C  EF92  F003         	goto	u270
  2928  000720                     u271:
  2929  000720  EF95  F003         	goto	l1432
  2930  000724                     u270:
  2931  000724                     l1428:
  2932                           
  2933                           ;mcc_generated_files/pic18f_bootload.c: 164:     {;mcc_generated_files/pic18f_bootload.c
      +                          : 165:         return (1);
  2934  000724  0E01               	movlw	1
  2935  000726  EFA9  F003         	goto	l328
  2936  00072A                     l1432:
  2937                           
  2938                           ;mcc_generated_files/pic18f_bootload.c: 173:     TBLPTR = 0xa00;
  2939  00072A  0E00               	movlw	0
  2940  00072C  6EF6               	movwf	246,c	;volatile
  2941  00072E  0E0A               	movlw	10
  2942  000730  6EF7               	movwf	247,c	;volatile
  2943  000732  0E00               	movlw	0
  2944  000734  6EF8               	movwf	248,c	;volatile
  2945                           
  2946                           ;mcc_generated_files/pic18f_bootload.c: 177:     NVMCON1 = 0x80;
  2947  000736  0E80               	movlw	128
  2948  000738  6E80               	movwf	128,c	;volsfr
  2949  00073A  0009               	tblrd		*+	;# 
  2950  00073C                     
  2951                           ;mcc_generated_files/pic18f_bootload.c: 179:     if (TABLAT == 0xFF)
  2952  00073C  28F5               	incf	245,w,c	;volatile
  2953  00073E  A4D8               	btfss	status,2,c
  2954  000740  EFA4  F003         	goto	u281
  2955  000744  EFA6  F003         	goto	u280
  2956  000748                     u281:
  2957  000748  EFA8  F003         	goto	l1440
  2958  00074C                     u280:
  2959  00074C  EF92  F003         	goto	l1428
  2960  000750                     l1440:
  2961                           
  2962                           ;mcc_generated_files/pic18f_bootload.c: 183:  return (0);
  2963  000750  0E00               	movlw	0
  2964  000752                     l328:
  2965  000752  0012               	return		;funcret
  2966  000754                     __end_of_Bootload_Required:
  2967                           	callstack 0
  2968  0000                     
  2969                           	psect	rparam
  2970  0000                     tosu	equ	0xFFF
  2971                           tosh	equ	0xFFE
  2972                           tosl	equ	0xFFD
  2973                           stkptr	equ	0xFFC
  2974                           pclatu	equ	0xFFB
  2975                           pclath	equ	0xFFA
  2976                           pcl	equ	0xFF9
  2977                           tblptru	equ	0xFF8
  2978                           tblptrh	equ	0xFF7
  2979                           tblptrl	equ	0xFF6
  2980                           tablat	equ	0xFF5
  2981                           prodh	equ	0xFF4
  2982                           prodl	equ	0xFF3
  2983                           indf0	equ	0xFEF
  2984                           postinc0	equ	0xFEE
  2985                           postdec0	equ	0xFED
  2986                           preinc0	equ	0xFEC
  2987                           plusw0	equ	0xFEB
  2988                           fsr0h	equ	0xFEA
  2989                           fsr0l	equ	0xFE9
  2990                           wreg	equ	0xFE8
  2991                           indf1	equ	0xFE7
  2992                           postinc1	equ	0xFE6
  2993                           postdec1	equ	0xFE5
  2994                           preinc1	equ	0xFE4
  2995                           plusw1	equ	0xFE3
  2996                           fsr1h	equ	0xFE2
  2997                           fsr1l	equ	0xFE1
  2998                           bsr	equ	0xFE0
  2999                           indf2	equ	0xFDF
  3000                           postinc2	equ	0xFDE
  3001                           postdec2	equ	0xFDD
  3002                           preinc2	equ	0xFDC
  3003                           plusw2	equ	0xFDB
  3004                           fsr2h	equ	0xFDA
  3005                           fsr2l	equ	0xFD9
  3006                           status	equ	0xFD8

Data Sizes:
    Strings     0
    Constant    0
    Data        0
    BSS         145
    Persistent  6
    Stack       0

Auto Spaces:
    Space          Size  Autos    Used
    COMRAM           94     38      52
    BANK0           160      0     137
    BANK1           256      0       0
    BANK2           256      0       0
    BANK3           256      0       0
    BANK4           256      0       0
    BANK5           256      0       0
    BANK6           256      0       0
    BANK7           256      0       0
    BANK8           256      0       0
    BANK9           256      0       0
    BANK10          256      0       0
    BANK11          256      0       0
    BANK12          256      0       0
    BANK14           31      0       0

Pointer List with Targets:

    EUSART2_SetErrorHandler@interruptHandler	PTR FTN()void  size(2) Largest target is 1
		 -> EUSART2_DefaultErrorHandler(), 

    EUSART2_ErrorHandler	PTR FTN()void  size(2) Largest target is 1
		 -> Absolute function(), EUSART2_DefaultErrorHandler(), 

    EUSART2_SetOverrunErrorHandler@interruptHandler	PTR FTN()void  size(2) Largest target is 1
		 -> EUSART2_DefaultOverrunErrorHandler(), 

    EUSART2_OverrunErrorHandler	PTR FTN()void  size(2) Largest target is 1
		 -> Absolute function(), EUSART2_DefaultOverrunErrorHandler(), 

    EUSART2_SetFramingErrorHandler@interruptHandler	PTR FTN()void  size(2) Largest target is 1
		 -> EUSART2_DefaultFramingErrorHandler(), 

    EUSART2_FramingErrorHandler	PTR FTN()void  size(2) Largest target is 1
		 -> Absolute function(), EUSART2_DefaultFramingErrorHandler(), 


Critical Paths under _main in COMRAM

    _EUSART2_Initialize->_EUSART2_SetErrorHandler
    _EUSART2_Initialize->_EUSART2_SetFramingErrorHandler
    _EUSART2_Initialize->_EUSART2_SetOverrunErrorHandler
    _BOOTLOADER_Initialize->_Run_Bootloader
    _Run_Bootloader->_ProcessBootBuffer
    _ProcessBootBuffer->_Write_Flash
    _Write_Flash->_FLASH_ReadSector

Critical Paths under _main in BANK0

    None.

Critical Paths under _main in BANK1

    None.

Critical Paths under _main in BANK2

    None.

Critical Paths under _main in BANK3

    None.

Critical Paths under _main in BANK4

    None.

Critical Paths under _main in BANK5

    None.

Critical Paths under _main in BANK6

    None.

Critical Paths under _main in BANK7

    None.

Critical Paths under _main in BANK8

    None.

Critical Paths under _main in BANK9

    None.

Critical Paths under _main in BANK10

    None.

Critical Paths under _main in BANK11

    None.

Critical Paths under _main in BANK12

    None.

Critical Paths under _main in BANK14

    None.

Call Graph Tables:

 ---------------------------------------------------------------------------------
 (Depth) Function   	        Calls       Base Space   Used Autos Params    Refs
 ---------------------------------------------------------------------------------
 (0) _main                                                 0     0      0    1255
                  _SYSTEM_Initialize
 ---------------------------------------------------------------------------------
 (1) _SYSTEM_Initialize                                    0     0      0    1255
              _BOOTLOADER_Initialize
                 _EUSART2_Initialize
              _OSCILLATOR_Initialize
             _PIN_MANAGER_Initialize
                     _PMD_Initialize
 ---------------------------------------------------------------------------------
 (2) _PMD_Initialize                                       0     0      0       0
 ---------------------------------------------------------------------------------
 (2) _PIN_MANAGER_Initialize                               0     0      0       0
 ---------------------------------------------------------------------------------
 (2) _OSCILLATOR_Initialize                                0     0      0       0
 ---------------------------------------------------------------------------------
 (2) _EUSART2_Initialize                                   0     0      0     294
            _EUSART2_SetErrorHandler
     _EUSART2_SetFramingErrorHandler
     _EUSART2_SetOverrunErrorHandler
 ---------------------------------------------------------------------------------
 (3) _EUSART2_SetOverrunErrorHandler                       2     0      2      98
                                              0 COMRAM     2     0      2
 ---------------------------------------------------------------------------------
 (3) _EUSART2_SetFramingErrorHandler                       2     0      2      98
                                              0 COMRAM     2     0      2
 ---------------------------------------------------------------------------------
 (3) _EUSART2_SetErrorHandler                              2     0      2      98
                                              0 COMRAM     2     0      2
 ---------------------------------------------------------------------------------
 (2) _BOOTLOADER_Initialize                                0     0      0     961
                  _Bootload_Required
                     _Run_Bootloader
 ---------------------------------------------------------------------------------
 (3) _Run_Bootloader                                       6     6      0     931
                                             32 COMRAM     6     6      0
                 _Check_Device_Reset
                       _EUSART2_Read
                      _EUSART2_Write
                  _ProcessBootBuffer
 ---------------------------------------------------------------------------------
 (4) _ProcessBootBuffer                                    6     4      2     731
                                             26 COMRAM     6     4      2
                      _Calc_Checksum
                        _Erase_Flash
                   _Get_Version_Data
                        _Read_Config
                       _Write_Config
                        _Write_Flash
 ---------------------------------------------------------------------------------
 (5) _Write_Flash                                         21    19      2     377
                                              5 COMRAM    21    19      2
                   _FLASH_ReadSector
                         _StartWrite
 ---------------------------------------------------------------------------------
 (6) _FLASH_ReadSector                                     5     1      4     241
                                              0 COMRAM     5     1      4
 ---------------------------------------------------------------------------------
 (5) _Write_Config                                         5     3      2      46
                                              0 COMRAM     5     3      2
                         _StartWrite
 ---------------------------------------------------------------------------------
 (6) _StartWrite                                           0     0      0       0
 ---------------------------------------------------------------------------------
 (5) _Read_Config                                          5     3      2      46
                                              0 COMRAM     5     3      2
 ---------------------------------------------------------------------------------
 (5) _Get_Version_Data                                     3     1      2      68
                                              0 COMRAM     3     1      2
 ---------------------------------------------------------------------------------
 (5) _Erase_Flash                                         25    23      2     116
                                              0 COMRAM    25    23      2
                         _StartErase
 ---------------------------------------------------------------------------------
 (6) _StartErase                                           0     0      0       0
 ---------------------------------------------------------------------------------
 (5) _Calc_Checksum                                       14    12      2      48
                                              0 COMRAM    14    12      2
 ---------------------------------------------------------------------------------
 (4) _EUSART2_Write                                        1     1      0      15
                                              0 COMRAM     1     1      0
 ---------------------------------------------------------------------------------
 (4) _EUSART2_Read                                         0     0      0       0
 ---------------------------------------------------------------------------------
 (4) _Check_Device_Reset                                   0     0      0       0
 ---------------------------------------------------------------------------------
 (3) _Bootload_Required                                    1     1      0      30
                                              0 COMRAM     1     1      0
 ---------------------------------------------------------------------------------
 Estimated maximum stack depth 6
 ---------------------------------------------------------------------------------

 Call Graph Graphs:

 _main (ROOT)
   _SYSTEM_Initialize
     _BOOTLOADER_Initialize
       _Bootload_Required
       _Run_Bootloader
         _Check_Device_Reset
         _EUSART2_Read
         _EUSART2_Write
         _ProcessBootBuffer
           _Calc_Checksum
           _Erase_Flash
             _StartErase
           _Get_Version_Data
           _Read_Config
           _Write_Config
             _StartWrite
           _Write_Flash
             _FLASH_ReadSector
             _StartWrite
     _EUSART2_Initialize
       _EUSART2_SetErrorHandler
       _EUSART2_SetFramingErrorHandler
       _EUSART2_SetOverrunErrorHandler
     _OSCILLATOR_Initialize
     _PIN_MANAGER_Initialize
     _PMD_Initialize

 Address spaces:
Name               Size   Autos  Total    Cost      Usage
BIGRAMl            CFE      0       0      34        0.0%
EEDATA             400      0       0       0        0.0%
BITBANK12          100      0       0      31        0.0%
BANK12             100      0       0      28        0.0%
BITBANK11          100      0       0      26        0.0%
BANK11             100      0       0      27        0.0%
BITBANK10          100      0       0      24        0.0%
BANK10             100      0       0      25        0.0%
BITBANK9           100      0       0      22        0.0%
BANK9              100      0       0      23        0.0%
BITBANK8           100      0       0      20        0.0%
BANK8              100      0       0      21        0.0%
BITBANK7           100      0       0      18        0.0%
BANK7              100      0       0      19        0.0%
BITBANK6           100      0       0      16        0.0%
BANK6              100      0       0      17        0.0%
BITBANK5           100      0       0      14        0.0%
BANK5              100      0       0      15        0.0%
BITBANK4           100      0       0      12        0.0%
BANK4              100      0       0      13        0.0%
BITBANK3           100      0       0      10        0.0%
BANK3              100      0       0      11        0.0%
BITBANK2           100      0       0       8        0.0%
BANK2              100      0       0       9        0.0%
BITBANK1           100      0       0       6        0.0%
BANK1              100      0       0       7        0.0%
BITBANK0            A0      0       0       4        0.0%
BANK0               A0      0      89       5       85.6%
BITCOMRAM           5E      0       0       0        0.0%
COMRAM              5E     26      34       1       55.3%
BIGRAMh             1F      0       0      33        0.0%
BITBANK14           1F      0       0      32        0.0%
BANK14              1F      0       0      29        0.0%
BITSFR_2             0      0       0     200        0.0%
SFR_2                0      0       0     200        0.0%
BITSFR_1             0      0       0     200        0.0%
SFR_1                0      0       0     200        0.0%
BITSFR               0      0       0     200        0.0%
SFR                  0      0       0     200        0.0%
STACK                0      0       0       2        0.0%
NULL                 0      0       0       0        0.0%
ABS                  0      0      BD      30        0.0%
DATA                 0      0      BD       3        0.0%
CODE                 0      0       0       0        0.0%


Microchip Technology PIC18 Macro Assembler V2.32 build 20210201212658 
Symbol Table                                                                                   Thu Jul 29 15:31:36 2021

                                 ??_Erase_Flash 0004                                              l43 0792  
                                            l60 0804                                              l70 089A  
                                            l64 082C                                              l82 090A  
                                            l67 0886                                              l85 0900  
                                            l88 0914                          __size_of_Calc_Checksum 00AC  
                                           l210 07B6                                             l123 08B0  
                                           l212 07C4                                             l213 07D0  
                                           l150 0050                                             l126 0882  
                                           l151 003C                                             l129 086A  
                                           l146 0020                                             l322 0802  
                                           l147 0020                                             l325 0702  
                                           l341 03FE                                             l326 0716  
                                           l342 0468                                             l334 0460  
                                           l328 0752                                             l361 035A  
                                           l345 0678                                             l353 0284  
                                           l362 037C                                             l347 06A4  
                                           l380 04C8                                             l372 0548  
                                           l356 024E                                             l381 0502  
                                           l382 0514                                             l366 06BE  
                                           l392 08C6                                             l368 06FC  
                                           l376 059C                                             l480 08F0  
                                           l385 08D8                                             l388 08EA  
                                           l469 0620                                             l479 08F0  
                          __size_of_Write_Flash 0130                                             _BSR 000FE0  
                                           u130 0814                                             u131 0810  
                                           u140 0826                                             u141 0822  
                                           u150 0896                                             u151 0892  
                                           u160 08C2                                             u161 08BE  
                                           u410 07C4                                             u411 07C0  
                                           u260 0716                                             u500 053C  
                                           u261 0712                                             u501 0538  
                                           u270 0724                                             u430 069C  
                                           u510 0588                                             u271 0720  
                                           u431 0698                                             u511 0584  
                                           u280 074C                                             u520 0502  
                                           u440 01D6                                             u600 0106  
                                           u281 0748                                             u521 04FE  
                                           u425 07CC                                             u441 01D2  
                                           u601 0102                                             u426 07CE  
                                           u450 024E                                             u610 0150  
                                           u530 0030                                             u451 024A  
                                           u611 014C                                             u531 002C  
                                           u540 004A                                             u620 07F0  
                                           u541 0046                                             u621 07EC  
                                           u470 035A                                             u550 005E  
                                           u471 0356                                             u551 005A  
                                           u560 00AC                                             u465 026A  
                                           u561 00A8                                             u490 06F0  
                                           u466 026C                                             u570 00C0  
                                           u491 06EC                                             u571 00BC  
                                           u580 00D2                                             u485 0362  
                                           u581 00CE                                             u486 0364  
                                           u590 00E4                                             u591 00E0  
        __end_of_EUSART2_SetFramingErrorHandler 090C         __size_of_EUSART2_SetFramingErrorHandler 000A  
                _EUSART2_SetFramingErrorHandler 0902                         __size_of_PMD_Initialize 001C  
                                           wreg 000FE8                           _BOOTLOADER_Initialize 07D2  
                                          l1330 0818                                            l1332 0826  
                                          l1340 0896                                            l1342 08B2  
                                          l1334 082A                                            l1326 0804  
                                          l1440 0750                                            l1432 072A  
                                          l1424 0704                                            l1344 08C2  
                                          l1328 0814                                            l1176 08C8  
                                          l1434 073C                                            l1426 0706  
                                          l1418 06FE                                            l1338 0886  
                                          l1178 08DA                                            l1428 0724  
                                          l1700 0156                                            l1460 05BC  
                                          l1710 01E6                                            l1702 015E  
                                          l1470 0604                                            l1462 05C8  
                                          l1454 0850                                            l1720 025E  
                                          l1712 01FA                                            l1704 01BE  
                                          l1480 086C                                            l1472 060A  
                                          l1464 05FE                                            l1456 059E  
                                          l1810 04B4                                            l1802 046A  
                                          l1730 0278                                            l1722 0262  
                                          l1714 0206                                            l1706 01D6  
                                          l1474 060C                                            l1466 0600  
                                          l1458 05BA                                            l1820 0506  
                                          l1812 04CA                                            l1804 0476  
                                          l1740 02F2                                            l1660 0794  
                                          l1732 027C                                            l1724 026C  
                                          l1716 0232                                            l1900 0776  
                                          l1476 060E                                            l1468 0602  
                                          l1814 04D4                                            l1806 0482  
                                          l1750 0324                                            l1742 02FA  
                                          l1670 07AA                                            l1662 079C  
                                          l1726 026E                                            l1718 0236  
                                          l1830 03AA                                            l1910 07DC  
                                          l1902 0782                                            l1478 0610  
                                          l1816 04D8                                            l1808 048E  
                                          l1752 0328                                            l1760 0342  
                                          l1744 02FC                                            l1736 0286  
                                          l1680 0640                                            l1672 07AC  
                                          l1664 079E                                            l1728 0274  
                                          l1840 0400                                            l1832 03BA  
                                          l1824 037E                                            l1912 07F0  
                                          l1904 078E                                            l1920 089C  
                                          l1818 04E4                                            l1762 0366  
                                          l1754 032A                                            l1746 0308  
                                          l1738 0292                                            l1690 067A  
                                          l1682 064C                                            l1770 06C0  
                                          l1674 07B0                                            l1666 07A2  
                                          l1834 03CA                                            l1826 038A  
                                          l1842 040C                                            l1914 07F4  
                                          l1906 07D2                                            l1850 08F8  
                                          l1922 08A8                                            l1756 032E  
                                          l1748 0320                                            l1692 068A  
                                          l1684 0652                                            l1772 06D0  
                                          l1780 0516                                            l1676 07B4  
                                          l1668 07A6                                            l1836 03DA  
                                          l1828 039A                                            l1860 005E  
