:040000000EEF00F00F
:0400080004EF05F00C
:100018000CEF05F017EF04F00E0199A316EF00F0AE
:1000280018EF00F010EF00F059EC04F00E019A817F
:1000380028EF00F09AAF23EF00F025EF00F028EF4B
:1000480000F09A919A9F9A819AB12DEF00F02FEFC4
:1000580000F01EEF00F002EC04F0226E2250266E33
:10006800276A000E276E000E266E000E256E090EFA
:10007800246E78EF00F002EC04F0236E600E262464
:10008800D96E000E2720DA6E23C0DFFF264A272A02
:10009800040E26182710D8A454EF00F056EF00F0ED
:1000A80078EF00F0020E00016019D8B45EEF00F09E
:1000B80060EF00F072EF00F0050E6019D8B467EF3A
:1000C80000F069EF00F072EF00F0070E6019D8A495
:1000D80070EF00F072EF00F078EF00F020EE61F0C2
:1000E800DE502426DD5025222450265C2550275832
:1000F800D8A081EF00F083EF00F03FEF00F0BFECF5
:1001080001F01CC024F01DC025F0550E42EC04F08F
:10011800000E276E000E266E9DEF00F0600E26245E
:10012800D96E000E2720DA6EDF5042EC04F0264A22
:10013800272A2450265C25502758D8A0A6EF00F07F
:10014800A8EF00F092EF00F010EF00F01200000EA0
:10015800F2BE010E156E66C009F00A6A0B6A0C6AD7
:100168000BC00CF00AC00BF009C00AF0096A67C09E
:100178000DF00E6A0F6A106A0EC010F00DC00FF075
:100188000E6A0D6A09500D24116E0A500E20126E67
:100198000B500F20136E0C501020146E0001655187
:1001A8001124166E000E1220176E000E1320186E02
:1001B800000E1420196E1950181007E10A0E175C6A
:1001C800D8B0E9EF00F0EBEF00F0F3EF00F0FE0E2F
:1001D800696F000E086E0A0E076E42EF01F016C036
:1001E80002F017C003F018C004F019C005F0CAECFB
:1001F80003F0000E1B6E000E1A6E1BEF01F0690E65
:100208001A24D96E000E1B20DA6E000E096E0D0E30
:100218000A6E65510926000E0A221A500924E16E59
:100228001B500A20E26EDFCFE7FF1A4A1B2A0001A3
:1002380061511A5C62511B58D8A025EF01F027EFD5
:1002480001F003EF01F067C07BFF66C07AFF65C06D
:1002580079FF7F8EF29E64EC04F015B002D0F29E16
:1002680001D0F28E7F9E010E0001696F000E006EB4
:10027800000E016E000E086E0A0E076E120065C0B1
:10028800F6FF66C0F7FF67C0F8FF66C004F0056AAE
:10029800066A076A06C007F005C006F004C005F044
:1002A800046A67C008F0096A0A6A0B6A09C00BF099
:1002B80008C00AF0096A086A045008240C6E055040
:1002C80009200D6E06500A200E6E07500B200F6E87
:1002D800000165510C24106E000E0D20116E000EE9
:1002E8000E20126E000E0F20136E000EF2BE010ECD
:1002F800166EF29E000E156E000E146EA1EF01F040
:10030800000E1014176EFF0E1114186E010E121441
:10031800196E000E13141A6E19C07BFF18C07AFFED
:100328007F8E6DEC04F0000E1026010E1122000ED7
:100338001222000E1322144A152A00016151145C7E
:1003480062511558D8A0ABEF01F0ADEF01F084EF82
:1003580001F016B002D0F29E01D0F28E7F9E010EFF
:100368000001696F000E636F000E646F000E036E6C
:100378000A0E026E120063C000F064C001F006EFBE
:1003880002F011EC03F002C020F003C021F030EFBE
:1003980002F0ABEC00F007C020F008C021F030EF0D
:1003A80002F043EC01F002C020F003C021F030EF6E
:1003B80002F053EC03F002C020F003C021F030EF4C
:1003C80002F08BEC02F002C020F003C021F030EF05
:1003D80002F035EC02F002C020F003C021F030EF4B
:1003E80002F0010E696F010E2C6E000E216E0A0ECE
:1003F800206E30EF02F06969000E216E0A0E206E41
:1004080030EF02F0000160511E6E1F6A1F50000A93
:10041800D8B411EF02F0FFEF01F01E50000AD8B473
:10042800C5EF01F0020AD8B4CDEF01F0010AD8B443
:10043800D5EF01F0050AD8B4DDEF01F0010AD8B410
:10044800E5EF01F00F0AD8B4EDEF01F0010AD8B4D6
:10045800F5EF01F0FFEF01F020C01CF021C01DF006
:10046800120065C0F6FF66C0F7FF67C0F8FF800E90
:10047800806E000E2B6E000E2A6E61C00CF062C0FA
:100488000DF00E6A0F6A63C004F0056A066A076A0F
:1004980005C007F004C006F0056A046A04500C267B
:1004A80005500D2206500E2207500F22000E086E2E
:1004B800000E096E000E0A6E000E0B6E72EF02F04F
:1004C8000900F5502A26000E2B220900F5502B268C
:1004D800020E0826000E09220A220B220C50085C84
:1004E8000D5009580E500A580F500B58D8A07FEFDE
:1004F80002F081EF02F064EF02F02AC069F02B509D
:1005080000016A6F000E036E0B0E026E120065C0CA
:10051800F6FF66C0F7FF67C0F8FF100EF65C000E26
:10052800F758200EF858D8A09CEF02F09EEF02F082
:10053800A2EF02F0C40E806EA4EF02F0840E806E6B
:10054800000E066EB5EF02F0690E0624D96EDA6A5F
:10055800000EDA22DF50F56E0C0064EC04F0F62A87
:10056800062A0650046E056A00016151045C625156
:100578000558D8A0C2EF02F0C4EF02F0A8EF02F0CD
:10058800010E696F000E006E000E016E000E036E04
:100598000A0E026E1200000E866E010E856E000EA7
:1005A800826E000E836E000E846E070E8B6E7F0EB9
:1005B800876E88688968FE0E8A6EFC0E0F01216FAF
:1005C8001C69EF0E146F070E296F7F0E0C6F000E5B
:1005D800206F000E286F000E136F000E0B6F000EB9
:1005E8001B6F000E276F000E0A6F000E126F000EB1
:1005F8001A6F000E1F6F0969116919691E69070EC4
:10060800266F0869106918691D690F0E256F0B0E92
:100618000E01FA6F190E886F1200010E0001696F42
:10062800010E6A6F000E6B6F010E6C6F000E6D6F1E
:10063800000E6E6F3F0EF86EF768FE0EF66EC00E77
:10064800806E0900F5CF6FF00900F5CF70F0000E4D
:100658000001716F000E726F800E736F800E746FE1
:10066800300EF86E000EF76E000EF66E0C0E046E6D
:100678000900690E0424D96EDA6A000EDA22F5CF71
:10068800DFFF042A0F0E04644CEF03F04EEF03F073
:100698003CEF03F0000E036E190E026E120065C0E7
:1006A800F6FF66C0F7FF67C0F8FFC00E806E000E49
:1006B800066E69EF03F00900690E0624D96EDA6A3E
:1006C800000EDA22F5CFDFFF062A0650046E056A0F
:1006D80000016151045C62510558D8A076EF03F01F
:1006E80078EF03F05FEF03F0090E6125026E000E4C
:1006F8006221036E1200000E026E00F0022A022828
:10070800D8A489EF03F08BEF03F081EF03F08DB8E5
:1007180090EF03F092EF03F095EF03F0010EA9EFCD
:1007280003F0000EF66E0A0EF76E000EF86E800EDD
:10073800806E0900F528D8A4A4EF03F0A6EF03F013
:10074800A8EF03F092EF03F0000E1200080E0E015E
:100758009A6F900E986F240E996F820E966F060E00
:10076800976F000E026E000E036E81EC04F0000E0F
:10077800026E000E036E7CEC04F0000E026E000E9A
:10078800036E86EC04F0000E2F6E1200000EF2BE0F
:10079800010E066E7F8E04C07BFF03C07AFF02C085
:1007A80079FFF29EBB0E816E440E816E808280B20C
:1007B800E0EF03F0E2EF03F0DBEF03F006B002D066
:1007C800F29E01D0F28E7F9E1200000E006E000E87
:1007D800016E828E7FEC03F0E806D8A4F6EF03F0F2
:1007E800F8EF03F0FAEF03F010EC00F0000EFC6EE7
:1007F800000EE06E829E00EF05F012000E01C8AFF9
:1008080008EF04F00AEF04F002EF04F0000E2F6E78
:1008180098A311EF04F013EF04F015EF04F0989982
:1008280098899451120000EE60F0890EEE6AE8068D
:10083800FDE100EE28F0080EEE6AE806FDE1000E84
:10084800F86E000176EF04F0000E0E01DC6F000E6A
:10085800DD6F000EDE6F000EDF6F000EE06F000E22
:10086800E16F1200600E0E01D36F000ED56F000EFF
:10087800D76F080ED96F000ED86F1200026E0E01E6
:10088800C8AD49EF04F04BEF04F043EF04F002C0A9
:1008980095FE120028EC04F0CFEC02F036EC04F0E0
:1008A800AAEC03F0E9EC03F012002C04D8A45FEFE3
:1008B80004F061EF04F063EF04F0829EFF00120081
:1008C8000F010050816F0150816F808A00F000F0A5
:1008D80012000F010050816F0150816F808C00F071
:1008E80000F012004EEC04F078EF04F00EEF00F088
:1008F80002C032F003C033F0120002C034F003C06B
:0E09080035F0120002C030F003C031F01200D2
:00000001FF
