Microchip MPLAB XC8 Compiler V2.32

Linker command line:

-W-3 --edf=C:\Program Files\Microchip\xc8\v2.32\pic\dat\en_msgs.txt -cn \
  -h+dist/No_Configurations/production\boot_pic18f47q10.X.production.sym \
  --cmf=dist/No_Configurations/production\boot_pic18f47q10.X.production.cmf \
  -z -Q18F47Q10 -oC:\Users\A51933\AppData\Local\Temp\xcAsnn0.4 \
  --defsym=__MPLAB_BUILD=1 \
  -Mdist/No_Configurations/production/boot_pic18f47q10.X.production.map -E1 \
  -ver=XC8 Compiler --acfsm=1493 -ASTACK=0E9h-0CFFh -pstack=STACK \
  -ACODE=00h-09FFh -ACONST=00h-09FFh -ACOMRAM=01h-05Fh -AABS1=00h-0E1Eh \
  -ABIGRAM=01h-0E1Eh -ARAM=060h-0FFh,0100h-01FFhx13,0E00h-0E1Eh \
  -ABANK0=060h-0FFh -ABANK1=0100h-01FFh -ABANK2=0200h-02FFh \
  -ABANK3=0300h-03FFh -ABANK4=0400h-04FFh -ABANK5=0500h-05FFh \
  -ABANK6=0600h-06FFh -ABANK7=0700h-07FFh -ABANK8=0800h-08FFh \
  -ABANK9=0900h-09FFh -ABANK10=0A00h-0AFFh -ABANK11=0B00h-0BFFh \
  -ABANK12=0C00h-0CFFh -ABANK13=0D00h-0DFFh -ABANK14=0E00h-0E1Eh \
  -ASFR=0E1Fh-0EFFh,0F00h-0F5Fh,0F60h-0FFFh -ACONFIG=0300000h-030000Bh \
  -AIDLOC=0200000h-02000FFh -AEEDATA=0310000h-03103FFh -peeprom_data=EEDATA \
  -preset_vec=00h,intcode=08h,intcodelo=018h,powerup,init -pramtop=0F00h \
  -pconst=CONST -AFARRAM=00h-00h \
  -prdata=COMRAM,nvrram=COMRAM,nvbit=COMRAM,rbss=COMRAM,rbit=COMRAM \
  -pfarbss=FARRAM,fardata=FARRAM,nvFARRAM=FARRAM \
  -pintsave_regs=BIGRAM,bigbss=BIGRAM,bigdata=BIGRAM -pbss=RAM \
  -pidata=CODE,irdata=CODE,ibigdata=CODE,ifardata=CODE -prparam=COMRAM \
  C:\Users\A51933\AppData\Local\Temp\xcAsnn0.o \
  dist/No_Configurations/production\boot_pic18f47q10.X.production.o 

Object code version is 3.11

Machine type is 18F47Q10



                Name                               Link     Load   Length Selector   Space Scale
C:\Users\A51933\AppData\Local\Temp\xcAsnn0.o
                init                                 1C       1C        4        C       0
                reset_vec                             0        0        4        0       0
dist/No_Configurations/production\boot_pic18f47q10.X.production.o
                intcodelo                            18       18        4        C       0
                intcode                               8        8        4        4       0
                text24                              6FE      6FE       56        C       0
                text23                              8B2      8B2       16        C       0
                text22                              804      804       2A        C       0
                text21                              884      884       18        C       0
                text20                              46A      46A       AC        C       0
                text19                              8DA      8DA       12        C       0
                text18                              286      286       F8        C       0
                text17                              622      622       84        C       0
                text16                              6A6      6A6       58        C       0
                text15                              8C8      8C8       12        C       0
                text14                              516      516       88        C       0
                text13                              794      794       3E        C       0
                text12                              156      156      130        C       0
                text11                              37E      37E       EC        C       0
                text10                               20       20      136        C       0
                text9                               7D2      7D2       32        C       0
                text8                               90C      90C        A        C       0
                text7                               902      902        A        C       0
                text6                               8F8      8F8        A        C       0
                text5                               754      754       40        C       0
                text4                               86C      86C       18        C       0
                text3                               59E      59E       84        C       0
                text2                               850      850       1C        C       0
                text1                               89C      89C       16        C       0
                cstackCOMRAM                          2        2       26        2       1
                bssBANK0                             60       60       89       60       1
                bssCOMRAM                            28       28        8        2       1
                cinit                               82E      82E       22        C       0
                nvCOMRAM                             30       30        6        2       1
                text0                               8EC      8EC        C        C       0

TOTAL           Name                               Link     Load   Length     Space
        CLASS   STACK          

        CLASS   CODE           
                intcodelo                            18       18        4         0
                intcode                               8        8        4         0
                init                                 1C       1C        4         0
                reset_vec                             0        0        4         0
                text24                              6FE      6FE       56         0
                text23                              8B2      8B2       16         0
                text22                              804      804       2A         0
                text21                              884      884       18         0
                text20                              46A      46A       AC         0
                text19                              8DA      8DA       12         0
                text18                              286      286       F8         0
                text17                              622      622       84         0
                text16                              6A6      6A6       58         0
                text15                              8C8      8C8       12         0
                text14                              516      516       88         0
                text13                              794      794       3E         0
                text12                              156      156      130         0
                text11                              37E      37E       EC         0
                text10                               20       20      136         0
                text9                               7D2      7D2       32         0
                text8                               90C      90C        A         0
                text7                               902      902        A         0
                text6                               8F8      8F8        A         0
                text5                               754      754       40         0
                text4                               86C      86C       18         0
                text3                               59E      59E       84         0
                text2                               850      850       1C         0
                text1                               89C      89C       16         0
                cinit                               82E      82E       22         0
                text0                               8EC      8EC        C         0

        CLASS   CONST          

        CLASS   COMRAM         
                cstackCOMRAM                          2        2       26         1
                bssCOMRAM                            28       28        8         1
                nvCOMRAM                             30       30        6         1

        CLASS   ABS1           
                abs_s1                                1        1        1         1
                abs_s1                              D00      D00      100         1

        CLASS   BIGRAM         

        CLASS   RAM            

        CLASS   BANK0          
                bssBANK0                             60       60       89         1

        CLASS   BANK1          

        CLASS   BANK2          

        CLASS   BANK3          

        CLASS   BANK4          

        CLASS   BANK5          

        CLASS   BANK6          

        CLASS   BANK7          

        CLASS   BANK8          

        CLASS   BANK9          

        CLASS   BANK10         

        CLASS   BANK11         

        CLASS   BANK12         

        CLASS   BANK13         

        CLASS   BANK14         

        CLASS   SFR            

        CLASS   CONFIG         

        CLASS   IDLOC          

        CLASS   EEDATA         

        CLASS   FARRAM         

        CLASS   MEDIUMCONST    

        CLASS   SMALLCONST     



SEGMENTS        Name                           Load    Length   Top    Selector   Space  Class

                reset_vec                      000000  000004  000004         0       0  CODE    
                cstackCOMRAM                   000002  000034  000036         2       1  COMRAM  
                intcode                        000008  000004  00000C         4       0  CODE    
                intcodelo                      000018  0008FE  000916         C       0  CODE    
                bssBANK0                       000060  000089  0000E9        60       1  BANK0   


UNUSED ADDRESS RANGES

        Name                Unused          Largest block    Delta
        BANK0            0E9-0FF            17
        BANK1            100-1FF           100
        BANK10           A00-AFF           100
        BANK11           B00-BFF           100
        BANK12           C00-CFF           100
        BANK14           E00-E1E            1F
        BANK2            200-2FF           100
        BANK3            300-3FF           100
        BANK4            400-4FF           100
        BANK5            500-5FF           100
        BANK6            600-6FF           100
        BANK7            700-7FF           100
        BANK8            800-8FF           100
        BANK9            900-9FF           100
        BIGRAM           036-05F            2A
                         0E9-CFF           C17
                         E00-E1E            1F
        CODE             004-007             4
                         00C-017             C
                         916-9FF            EA
        COMRAM           036-05F            2A
        CONFIG           300000-30000B             C
        CONST            004-007             4
                         00C-017             C
                         916-9FF            EA
        EEDATA           310000-3103FF           400
        IDLOC            200000-2000FF           100
        RAM              0E9-CFF           100
                         E00-E1E            1F
        SFR              E1F-FFF            E1
        STACK            0E9-CFF           C17

                                  Symbol Table

?_Calc_Checksum                                 cstackCOMRAM 002
?_Erase_Flash                                   cstackCOMRAM 002
?_Get_Version_Data                              cstackCOMRAM 002
?_ProcessBootBuffer                             cstackCOMRAM 01C
?_Read_Config                                   cstackCOMRAM 002
?_Write_Config                                  cstackCOMRAM 002
?_Write_Flash                                   cstackCOMRAM 007
Bootload_Required@i                             cstackCOMRAM 002
Calc_Checksum@i                                 cstackCOMRAM 008
Calc_Checksum@length                            cstackCOMRAM 00C
EUSART2_SetErrorHandler@interruptHandler        cstackCOMRAM 002
EUSART2_SetFramingErrorHandler@interruptHandler cstackCOMRAM 002
EUSART2_SetOverrunErrorHandler@interruptHandler cstackCOMRAM 002
EUSART2_Write@txData                            cstackCOMRAM 002
Erase_Flash@GIEBitValue                         cstackCOMRAM 016
Erase_Flash@address                             cstackCOMRAM 010
Erase_Flash@blockStartAddr                      cstackCOMRAM 017
Erase_Flash@i                                   cstackCOMRAM 014
FLASH_ReadSector@GIEBitValue                    cstackCOMRAM 006
FLASH_ReadSector@flashAddr                      cstackCOMRAM 002
Get_Version_Data@i                              cstackCOMRAM 004
ProcessBootBuffer@len                           cstackCOMRAM 020
Read_Config@i                                   cstackCOMRAM 006
Run_Bootloader@ch                               cstackCOMRAM 023
Run_Bootloader@index                            cstackCOMRAM 026
Run_Bootloader@msg_length                       cstackCOMRAM 024
Write_Config@i                                  cstackCOMRAM 006
Write_Flash@GIEBitValue                         cstackCOMRAM 015
Write_Flash@address                             cstackCOMRAM 016
Write_Flash@i                                   cstackCOMRAM 01A
_ANSELA                                         (abs)        F0C
_ANSELB                                         (abs)        F14
_ANSELC                                         (abs)        F1C
_ANSELD                                         (abs)        F21
_ANSELE                                         (abs)        F29
_BAUD2CON                                       (abs)        E9A
_BAUDCTL2bits                                   (abs)        E9A
_BOOTLOADER_Initialize                          text9        7D2
_BSR                                            (abs)        FE0
_Bootload_Required                              text24       6FE
_Calc_Checksum                                  text20       46A
_Check_Device_Reset                             text23       8B2
_EE_Key_1                                       (abs)        000
_EE_Key_2                                       (abs)        001
_EUSART2_DefaultErrorHandler                    (abs)        000
_EUSART2_DefaultFramingErrorHandler             (abs)        000
_EUSART2_DefaultOverrunErrorHandler             (abs)        000
_EUSART2_ErrorHandler                           nvCOMRAM     030
_EUSART2_FramingErrorHandler                    nvCOMRAM     034
_EUSART2_Initialize                             text5        754
_EUSART2_OverrunErrorHandler                    nvCOMRAM     032
_EUSART2_Read                                   text22       804
_EUSART2_SetErrorHandler                        text8        90C
_EUSART2_SetFramingErrorHandler                 text7        902
_EUSART2_SetOverrunErrorHandler                 text6        8F8
_EUSART2_Write                                  text21       884
_Erase_Flash                                    text18       286
_FLASH_ReadSector                               text13       794
_Get_Version_Data                               text17       622
_INLVLA                                         (abs)        F08
_INLVLB                                         (abs)        F10
_INLVLC                                         (abs)        F18
_INLVLD                                         (abs)        F1D
_INLVLE                                         (abs)        F25
_INTCONbits                                     (abs)        FF2
_LATA                                           (abs)        F82
_LATAbits                                       (abs)        F82
_LATB                                           (abs)        F83
_LATC                                           (abs)        F84
_LATD                                           (abs)        F85
_LATE                                           (abs)        F86
_NVMADRH                                        (abs)        F7A
_NVMADRL                                        (abs)        F79
_NVMADRU                                        (abs)        F7B
_NVMCON0bits                                    (abs)        F7F
_NVMCON1                                        (abs)        F80
_NVMCON1bits                                    (abs)        F80
_NVMCON2                                        (abs)        F81
_NVMDATH                                        (abs)        F7D
_NVMDATL                                        (abs)        F7C
_ODCONA                                         (abs)        F0A
_ODCONB                                         (abs)        F12
_ODCONC                                         (abs)        F1A
_ODCOND                                         (abs)        F1F
_ODCONE                                         (abs)        F27
_OSCCON1                                        (abs)        ED3
_OSCCON3                                        (abs)        ED5
_OSCEN                                          (abs)        ED7
_OSCFRQ                                         (abs)        ED9
_OSCILLATOR_Initialize                          text4        86C
_OSCTUNE                                        (abs)        ED8
_PFM_Buffer                                     (abs)        D00
_PIN_MANAGER_Initialize                         text3        59E
_PIR3bits                                       (abs)        EC8
_PIR7bits                                       (abs)        ECC
_PMD0                                           (abs)        EDC
_PMD1                                           (abs)        EDD
_PMD2                                           (abs)        EDE
_PMD3                                           (abs)        EDF
_PMD4                                           (abs)        EE0
_PMD5                                           (abs)        EE1
_PMD_Initialize                                 text2        850
_PORTBbits                                      (abs)        F8D
_ProcessBootBuffer                              text11       37E
_RC2REG                                         (abs)        E94
_RC2STA                                         (abs)        E98
_RC2STAbits                                     (abs)        E98
_RD0PPS                                         (abs)        EFA
_RX2PPS                                         (abs)        E88
_Read_Config                                    text16       6A6
_Run_Bootloader                                 text10       020
_SLRCONA                                        (abs)        F09
_SLRCONB                                        (abs)        F11
_SLRCONC                                        (abs)        F19
_SLRCOND                                        (abs)        F1E
_SLRCONE                                        (abs)        F26
_SP2BRGH                                        (abs)        E97
_SP2BRGL                                        (abs)        E96
_STKPTR                                         (abs)        FFC
_SYSTEM_Initialize                              text1        89C
_StartErase                                     text19       8DA
_StartWrite                                     text15       8C8
_TABLAT                                         (abs)        FF5
_TBLPTR                                         (abs)        FF6
_TBLPTRH                                        (abs)        FF7
_TBLPTRL                                        (abs)        FF6
_TBLPTRU                                        (abs)        FF8
_TRISA                                          (abs)        F87
_TRISB                                          (abs)        F88
_TRISC                                          (abs)        F89
_TRISD                                          (abs)        F8A
_TRISE                                          (abs)        F8B
_TX2REG                                         (abs)        E95
_TX2STA                                         (abs)        E99
_TX2STAbits                                     (abs)        E99
_WPUA                                           (abs)        F0B
_WPUB                                           (abs)        F13
_WPUC                                           (abs)        F1B
_WPUD                                           (abs)        F20
_WPUE                                           (abs)        F28
_Write_Config                                   text14       516
_Write_Flash                                    text12       156
__HRAM                                          (abs)        000
__Habs1                                         abs1         000
__Hbank0                                        bank0        000
__Hbank1                                        bank1        000
__Hbank10                                       bank10       000
__Hbank11                                       bank11       000
__Hbank12                                       bank12       000
__Hbank13                                       bank13       000
__Hbank14                                       bank14       000
__Hbank2                                        bank2        000
__Hbank3                                        bank3        000
__Hbank4                                        bank4        000
__Hbank5                                        bank5        000
__Hbank6                                        bank6        000
__Hbank7                                        bank7        000
__Hbank8                                        bank8        000
__Hbank9                                        bank9        000
__Hbigbss                                       bigbss       000
__Hbigdata                                      bigdata      000
__Hbigram                                       bigram       000
__Hbss                                          bss          000
__HbssBANK0                                     bssBANK0     000
__HbssCOMRAM                                    bssCOMRAM    000
__Hcinit                                        cinit        000
__Hclrtext                                      clrtext      000
__Hcomram                                       comram       000
__Hconfig                                       config       000
__Hconst                                        const        000
__HcstackCOMRAM                                 cstackCOMRAM 000
__Hdata                                         data         000
__Heeprom_data                                  eeprom_data  000
__Hfarbss                                       farbss       000
__Hfardata                                      fardata      000
__Hibigdata                                     ibigdata     000
__Hidata                                        idata        000
__Hidloc                                        idloc        000
__Hifardata                                     ifardata     000
__Hinit                                         init         020
__Hintcode                                      intcode      00C
__Hintcode_body                                 intcode_body 000
__Hintcodelo                                    intcodelo    01C
__Hintentry                                     intentry     000
__Hintret                                       intret       000
__Hintsave_regs                                 intsave_regs 000
__Hirdata                                       irdata       000
__Hmediumconst                                  mediumconst  000
__HnvCOMRAM                                     nvCOMRAM     000
__HnvFARRAM                                     nvFARRAM     000
__Hnvbit                                        nvbit        000
__Hnvrram                                       nvrram       000
__Hparam                                        rparam       000
__Hpowerup                                      powerup      01C
__Hram                                          ram          000
__Hramtop                                       ramtop       F00
__Hrbit                                         rbit         000
__Hrbss                                         rbss         000
__Hrdata                                        rdata        000
__Hreset_vec                                    reset_vec    004
__Hrparam                                       rparam       000
__Hsfr                                          sfr          000
__Hsmallconst                                   smallconst   000
__Hspace_0                                      (abs)        F00
__Hspace_1                                      (abs)        0E9
__Hspace_2                                      (abs)        000
__Hspace_4                                      (abs)        000
__Hstack                                        stack        000
__Hstruct                                       struct       000
__Htemp                                         temp         000
__Htext                                         text         000
__Htext0                                        text0        000
__Htext1                                        text1        000
__Htext10                                       text10       000
__Htext11                                       text11       000
__Htext12                                       text12       000
__Htext13                                       text13       000
__Htext14                                       text14       000
__Htext15                                       text15       000
__Htext16                                       text16       000
__Htext17                                       text17       000
__Htext18                                       text18       000
__Htext19                                       text19       000
__Htext2                                        text2        000
__Htext20                                       text20       000
__Htext21                                       text21       000
__Htext22                                       text22       000
__Htext23                                       text23       000
__Htext24                                       text24       000
__Htext3                                        text3        000
__Htext4                                        text4        000
__Htext5                                        text5        000
__Htext6                                        text6        000
__Htext7                                        text7        000
__Htext8                                        text8        000
__Htext9                                        text9        000
__LRAM                                          (abs)        001
__Labs1                                         abs1         000
__Lbank0                                        bank0        000
__Lbank1                                        bank1        000
__Lbank10                                       bank10       000
__Lbank11                                       bank11       000
__Lbank12                                       bank12       000
__Lbank13                                       bank13       000
__Lbank14                                       bank14       000
__Lbank2                                        bank2        000
__Lbank3                                        bank3        000
__Lbank4                                        bank4        000
__Lbank5                                        bank5        000
__Lbank6                                        bank6        000
__Lbank7                                        bank7        000
__Lbank8                                        bank8        000
__Lbank9                                        bank9        000
__Lbigbss                                       bigbss       000
__Lbigdata                                      bigdata      000
__Lbigram                                       bigram       000
__Lbss                                          bss          000
__LbssBANK0                                     bssBANK0     000
__LbssCOMRAM                                    bssCOMRAM    000
__Lcinit                                        cinit        000
__Lclrtext                                      clrtext      000
__Lcomram                                       comram       000
__Lconfig                                       config       000
__Lconst                                        const        000
__LcstackCOMRAM                                 cstackCOMRAM 000
__Ldata                                         data         000
__Leeprom_data                                  eeprom_data  000
__Lfarbss                                       farbss       000
__Lfardata                                      fardata      000
__Libigdata                                     ibigdata     000
__Lidata                                        idata        000
__Lidloc                                        idloc        000
__Lifardata                                     ifardata     000
__Linit                                         init         01C
__Lintcode                                      intcode      008
__Lintcode_body                                 intcode_body 000
__Lintcodelo                                    intcodelo    018
__Lintentry                                     intentry     000
__Lintret                                       intret       000
__Lintsave_regs                                 intsave_regs 000
__Lirdata                                       irdata       000
__Lmediumconst                                  mediumconst  000
__LnvCOMRAM                                     nvCOMRAM     000
__LnvFARRAM                                     nvFARRAM     000
__Lnvbit                                        nvbit        000
__Lnvrram                                       nvrram       000
__Lparam                                        rparam       000
__Lpowerup                                      powerup      01C
__Lram                                          ram          000
__Lramtop                                       ramtop       F00
__Lrbit                                         rbit         000
__Lrbss                                         rbss         000
__Lrdata                                        rdata        000
__Lreset_vec                                    reset_vec    000
__Lrparam                                       rparam       000
__Lsfr                                          sfr          000
__Lsmallconst                                   smallconst   000
__Lspace_0                                      (abs)        000
__Lspace_1                                      (abs)        000
__Lspace_2                                      (abs)        000
__Lspace_4                                      (abs)        000
__Lstack                                        stack        000
__Lstruct                                       struct       000
__Ltemp                                         temp         000
__Ltext                                         text         000
__Ltext0                                        text0        000
__Ltext1                                        text1        000
__Ltext10                                       text10       000
__Ltext11                                       text11       000
__Ltext12                                       text12       000
__Ltext13                                       text13       000
__Ltext14                                       text14       000
__Ltext15                                       text15       000
__Ltext16                                       text16       000
__Ltext17                                       text17       000
__Ltext18                                       text18       000
__Ltext19                                       text19       000
__Ltext2                                        text2        000
__Ltext20                                       text20       000
__Ltext21                                       text21       000
__Ltext22                                       text22       000
__Ltext23                                       text23       000
__Ltext24                                       text24       000
__Ltext3                                        text3        000
__Ltext4                                        text4        000
__Ltext5                                        text5        000
__Ltext6                                        text6        000
__Ltext7                                        text7        000
__Ltext8                                        text8        000
__Ltext9                                        text9        000
__S0                                            (abs)        916
__S1                                            (abs)        0E9
__S2                                            (abs)        000
__S4                                            (abs)        000
__S5                                            (abs)        000
___inthi_sp                                     stack        000
___intlo_sp                                     stack        000
___param_bank                                   (abs)        000
___rparam_used                                  (abs)        001
___sp                                           stack        000
__accesstop                                     (abs)        060
__activetblptr                                  (abs)        002
__end_of_BOOTLOADER_Initialize                  text9        804
__end_of_Bootload_Required                      text24       754
__end_of_Calc_Checksum                          text20       516
__end_of_Check_Device_Reset                     text23       8C8
__end_of_EUSART2_Initialize                     text5        794
__end_of_EUSART2_Read                           text22       82E
__end_of_EUSART2_SetErrorHandler                text8        916
__end_of_EUSART2_SetFramingErrorHandler         text7        90C
__end_of_EUSART2_SetOverrunErrorHandler         text6        902
__end_of_EUSART2_Write                          text21       89C
__end_of_Erase_Flash                            text18       37E
__end_of_FLASH_ReadSector                       text13       7D2
__end_of_Get_Version_Data                       text17       6A6
__end_of_OSCILLATOR_Initialize                  text4        884
__end_of_PIN_MANAGER_Initialize                 text3        622
__end_of_PMD_Initialize                         text2        86C
__end_of_ProcessBootBuffer                      text11       46A
__end_of_Read_Config                            text16       6FE
__end_of_Run_Bootloader                         text10       156
__end_of_SYSTEM_Initialize                      text1        8B2
__end_of_StartErase                             text19       8EC
__end_of_StartWrite                             text15       8DA
__end_of_Write_Config                           text14       59E
__end_of_Write_Flash                            text12       286
__end_of__initialization                        cinit        846
__end_of_main                                   text0        8F8
__initialization                                cinit        82E
__pbssBANK0                                     bssBANK0     060
__pbssCOMRAM                                    bssCOMRAM    028
__pcinit                                        cinit        82E
__pcstackCOMRAM                                 cstackCOMRAM 002
__pnvCOMRAM                                     nvCOMRAM     030
__ptext0                                        text0        8EC
__ptext1                                        text1        89C
__ptext10                                       text10       020
__ptext11                                       text11       37E
__ptext12                                       text12       156
__ptext13                                       text13       794
__ptext14                                       text14       516
__ptext15                                       text15       8C8
__ptext16                                       text16       6A6
__ptext17                                       text17       622
__ptext18                                       text18       286
__ptext19                                       text19       8DA
__ptext2                                        text2        850
__ptext20                                       text20       46A
__ptext21                                       text21       884
__ptext22                                       text22       804
__ptext23                                       text23       8B2
__ptext24                                       text24       6FE
__ptext3                                        text3        59E
__ptext4                                        text4        86C
__ptext5                                        text5        754
__ptext6                                        text6        8F8
__ptext7                                        text7        902
__ptext8                                        text8        90C
__ptext9                                        text9        7D2
__ramtop                                        ramtop       F00
__size_of_BOOTLOADER_Initialize                 (abs)        000
__size_of_Bootload_Required                     (abs)        000
__size_of_Calc_Checksum                         (abs)        000
__size_of_Check_Device_Reset                    (abs)        000
__size_of_EUSART2_Initialize                    (abs)        000
__size_of_EUSART2_Read                          (abs)        000
__size_of_EUSART2_SetErrorHandler               (abs)        000
__size_of_EUSART2_SetFramingErrorHandler        (abs)        000
__size_of_EUSART2_SetOverrunErrorHandler        (abs)        000
__size_of_EUSART2_Write                         (abs)        000
__size_of_Erase_Flash                           (abs)        000
__size_of_FLASH_ReadSector                      (abs)        000
__size_of_Get_Version_Data                      (abs)        000
__size_of_OSCILLATOR_Initialize                 (abs)        000
__size_of_PIN_MANAGER_Initialize                (abs)        000
__size_of_PMD_Initialize                        (abs)        000
__size_of_ProcessBootBuffer                     (abs)        000
__size_of_Read_Config                           (abs)        000
__size_of_Run_Bootloader                        (abs)        000
__size_of_SYSTEM_Initialize                     (abs)        000
__size_of_StartErase                            (abs)        000
__size_of_StartWrite                            (abs)        000
__size_of_Write_Config                          (abs)        000
__size_of_Write_Flash                           (abs)        000
__size_of_main                                  (abs)        000
_check_sum                                      bssCOMRAM    02A
_counter                                        bssCOMRAM    028
_eusart2RxLastError                             bssCOMRAM    02F
_frame                                          bssBANK0     060
_main                                           text0        8EC
_reset_pending                                  bssCOMRAM    02C
_rx_data                                        bssCOMRAM    02E
_sectorRAM                                      (abs)        D00
_tx_data                                        bssCOMRAM    02D
end_of_initialization                           cinit        846
intlevel0                                       text         000
intlevel1                                       text         000
intlevel2                                       text         000
intlevel3                                       text         000
isa$std                                         (abs)        001
isa$xinst                                       (abs)        000
stackhi                                         (abs)        CFF
stacklo                                         (abs)        0E9
start                                           init         01C
start_initialization                            cinit        82E


MODULE INFORMATION

Module		Function		Class		Link	Load	Size
mcc_generated_files/eusart2.c
		_EUSART2_Read  		CODE           	0804	0000	42
		_EUSART2_SetOverrunErrorHandler		CODE           	08F8	0000	10
		_EUSART2_SetErrorHandler		CODE           	090C	0000	10
		_EUSART2_Write 		CODE           	0884	0000	24
		_EUSART2_Initialize		CODE           	0754	0000	64
		_EUSART2_SetFramingErrorHandler		CODE           	0902	0000	10

mcc_generated_files/eusart2.c estimated size: 160

mcc_generated_files/pin_manager.c
		_PIN_MANAGER_Initialize		CODE           	059E	0000	132

mcc_generated_files/pin_manager.c estimated size: 132

mcc_generated_files/pic18f_uart.c
		_Run_Bootloader		CODE           	0020	0000	310

mcc_generated_files/pic18f_uart.c estimated size: 310

shared
		__initialization		CODE           	082E	0000	24

shared estimated size: 24

mcc_generated_files/mcc.c
		_PMD_Initialize		CODE           	0850	0000	28
		_OSCILLATOR_Initialize		CODE           	086C	0000	24
		_SYSTEM_Initialize		CODE           	089C	0000	22

mcc_generated_files/mcc.c estimated size: 74

mcc_generated_files/pic18f_bootload.c
		_ProcessBootBuffer		CODE           	037E	0000	236
		_Calc_Checksum 		CODE           	046A	0000	172
		_Write_Config  		CODE           	0516	0000	136
		_Write_Flash   		CODE           	0156	0000	304
		_Get_Version_Data		CODE           	0622	0000	132
		_Check_Device_Reset		CODE           	08B2	0000	22
		_StartErase    		CODE           	08DA	0000	18
		_Erase_Flash   		CODE           	0286	0000	248
		_Bootload_Required		CODE           	06FE	0000	86
		_Read_Config   		CODE           	06A6	0000	88
		_StartWrite    		CODE           	08C8	0000	18
		_BOOTLOADER_Initialize		CODE           	07D2	0000	50

mcc_generated_files/pic18f_bootload.c estimated size: 1510

mcc_generated_files/memory.c
		_FLASH_ReadSector		CODE           	0794	0000	62

mcc_generated_files/memory.c estimated size: 62

main.c
		_main          		CODE           	08EC	0000	12

main.c estimated size: 12

