:10000000FFFFFFFFFFFFFFFFFFFFFFFFFFFFFFFF00
:10001000FFFFFFFFFFFFFFFFFFFFFFFFFFFFFFFFF0
:10002000FFFFFFFFFFFFFFFFFFFFFFFFFFFFFFFFE0
:10003000FFFFFFFFFFFFFFFFFFFFFFFFFFFFFFFFD0
:100D000001EF07F0FFFFFFFF0B040B040B040B04C4
:100D100080030B0480030B040B040B040B040B0473
:100D20000B040B040B040B040B04800380038003EF
:100D30000B040B040B040B040B040B040B040B043B
:100D40000B040B040B04CF030B040B040B040B0468
:100D5000800380030B040B040B040B040B048003BF
:100D60000B040B040B040B040B040B040B040B040B
:100D70000B040B040B040B040B040B040B040B04FB
:100D800080030B040B040B040B040B040B040B0477
:100D90000B040B040B040B040B040B040B040B04DB
:100DA00080030B04800380030B040B040B040B046F
:100DB0000B040B040B040B040B040B040B040B04BB
:100DC0000B040B040B040B040B040B040B040B04AB
:100DD0000B040B040B040B040B040B040B040B049B
:100DE0000B040B040B040B0480030B040B040B0417
:100DF00080038003800380030B040B040B040B04AB
:100E0000FF00F7EF07F0000EC26E000EC16E000E7D
:100E1000BE6E000EC36E000EBF6E000EC06E070EDB
:100E2000CA6EF70ECB6EC668C768C868C968040189
:100E300018691069EF0E086F070E206FF70E286F04
:100E40000069000E196F000E296F000E216F100E41
:100E5000096F000E016F000E116F000E0201896F05
:100E6000000E886F000E876F000E866F000E040163
:100E7000226F000E2A6F000E026F000E0A6F000E26
:100E8000126F000E1A6F03690B6913691B69070E55
:100E9000236F2B6904690C6914691C690F0E246F98
:100EA0002C691200D68A000ED6BE010E026ED69EA6
:100EB000550E0401596FAA0E596F5991000E5F6FBC
:100EC0000D0E5E6F080E5D6F550E596FAA0E596FAD
:100ED000598102B002D0D69E01D0D68E0301658F13
:100EE0001200055006100710D8B479EF07F07BEF19
:100EF00007F088EF07F002D888EF07F00500FA6ED8
:100F00000550FD6E0650FE6E0750FF6EFA5012003F
:100F10001200430E03011B6FC70E196F000E186FEE
:100F2000B19EA18E2E0E026E100E036E000E046E88
:100F30000EEC08F0890E03011A6F1200B19E084AE8
:100F4000092AF40E085C010E0958D8A0AAEF07F090
:100F5000ACEF07F0B2EF07F071EC07F0000E096E8E
:100F6000000E086E1100C3B6B8EF07F0BBEF07F034
:100F7000010EBCEF07F0000EFF0A016E01460146AC
:100F80000146C3500118F70B0118C36E1200000E82
:100F90000001606F000E616F000E636F000E646FE2
:100FA000000E656F000E666F000E676F000E686FB3
:100FB000120003EC08F0660E026E0F0E036E000EB8
:100FC000046E0EEC08F0D68ED68CE5EF07F001EF3C
:100FD00007F0600E0001AD6F000EAF6F000EB36F33
:100FE000080EB16F000EB06F000EAC6F1200096AF0
:100FF000086A0401080E5D6F0D0E5E6F000E5F6FD4
:101000000001D9EF07F052EC07F0C7EC07F003EC52
:1010100007F0E9EC07F089EC07F0120002C505F5CE
:1010200003C506F504C507F51200FFFF1100120005
:10103000FFFFFFFFFFFFFFFFFFFFFFFFFFFFFFFFC0
:10104000FFFFFFFFFFFFFFFFFFFFFFFFFFFFFFFFB0
:10105000FFFFFFFFFFFFFFFFFFFFFFFFFFFFFFFFA0
:10106000FFFFFFFFFFFFFFFFFFFFFFFFFFFFFFFF90
:020000040001F9
:10FFF000FFFFFFFFFFFFFFFFFFFFFFFFFFFF2C13D0
:020000040020DA
:10000000FF0FFF0FFF0FFF0FFF0FFF0FFF0FFF0F80
:10001000FF0FFF0FFF0FFF0FFF0FFF0FFF0FFF0F70
:020000040030CA
:0A0000008CFFEFFF9FFFFFFFFFFFE3
:00000001FF
