

Microchip MPLAB XC8 Assembler V2.32 build 20210201212658 
                                                                                               Mon Aug 23 09:52:49 2021

Microchip MPLAB XC8 C Compiler v2.32 (Free license) build 20210201212658 Og1 
     1                           	processor	18F57Q43
     2                           	fnconf	rparam,??,?,0
     3                           	pagewidth 120
     4                           	opt	flic
     5                           	psect	nvCOMRAM,global,class=COMRAM,space=1,delta=1,lowdata,noexec
     6                           	psect	cinit,global,reloc=2,class=CODE,delta=1
     7                           	psect	bssCOMRAM,global,class=COMRAM,space=1,delta=1,lowdata,noexec
     8                           	psect	cstackCOMRAM,global,class=COMRAM,space=1,delta=1,lowdata,noexec
     9                           	psect	text0,global,reloc=2,class=CODE,delta=1
    10                           	psect	text1,global,reloc=2,class=CODE,delta=1
    11                           	psect	text2,global,reloc=2,class=CODE,delta=1
    12                           	psect	text3,global,reloc=2,class=CODE,delta=1
    13                           	psect	text4,global,reloc=2,class=CODE,delta=1
    14                           	psect	text5,global,reloc=2,class=CODE,delta=1
    15                           	psect	text6,global,reloc=2,class=CODE,delta=1
    16                           	psect	text7,global,reloc=2,class=CODE,delta=1
    17                           	psect	text8,global,reloc=4,class=CODE,delta=1
    18                           	psect	text9,global,reloc=4,class=CODE,delta=1
    19                           	psect	text10,global,reloc=2,class=CODE,delta=1
    20                           	psect	text11,global,reloc=2,class=CODE,delta=1
    21                           	psect	text12,global,reloc=2,class=CODE,delta=1
    22                           	psect	ivt0xD08,global,reloc=2,class=CODE,delta=1,noexec,keep,optim=
    23                           	psect	intsave_regs,global,class=BIGRAM,space=1,delta=1,noexec
    24                           	psect	text13,global,reloc=2,class=CODE,delta=1
    25                           	psect	rparam,global,class=COMRAM,space=1,delta=1,noexec
    26                           	psect	idloc,global,abs,ovrld,class=IDLOC,space=5,delta=1,noexec
    27                           	psect	config,global,abs,ovrld,class=CONFIG,space=4,delta=1,noexec
    28  0000                     
    29                           ; Version 2.35
    30                           ; Generated 04/06/2021 GMT
    31                           ; 
    32                           ; Copyright © 2021, Microchip Technology Inc. and its subsidiaries ("Microchip")
    33                           ; All rights reserved.
    34                           ; 
    35                           ; This software is developed by Microchip Technology Inc. and its subsidiaries ("Microch
      +                          ip").
    36                           ; 
    37                           ; Redistribution and use in source and binary forms, with or without modification, are
    38                           ; permitted provided that the following conditions are met:
    39                           ; 
    40                           ;     1. Redistributions of source code must retain the above copyright notice, this lis
      +                          t of
    41                           ;        conditions and the following disclaimer.
    42                           ; 
    43                           ;     2. Redistributions in binary form must reproduce the above copyright notice, this 
      +                          list
    44                           ;        of conditions and the following disclaimer in the documentation and/or other
    45                           ;        materials provided with the distribution. Publication is not required when
    46                           ;        this file is used in an embedded application.
    47                           ; 
    48                           ;     3. Microchip's name may not be used to endorse or promote products derived from th
      +                          is
    49                           ;        software without specific prior written permission.
    50                           ; 
    51                           ; THIS SOFTWARE IS PROVIDED BY MICROCHIP "AS IS" AND ANY EXPRESS OR IMPLIED WARRANTIES,
    52                           ; INCLUDING, BUT NOT LIMITED TO, THE IMPLIED WARRANTIES OF MERCHANTABILITY AND FITNESS F
      +                          OR
    53                           ; PURPOSE ARE DISCLAIMED.  IN NO EVENT SHALL MICROCHIP BE LIABLE FOR ANY DIRECT, INDIREC
      +                          T,
    54                           ; INCIDENTAL, SPECIAL, EXEMPLARY, OR CONSEQUENTIAL DAMAGES (INCLUDING BUT NOT LIMITED TO
    55                           ; PROCUREMENT OF SUBSTITUTE GOODS OR SERVICES; LOSS OF USE, DATA OR PROFITS; OR BUSINESS
    56                           ; INTERRUPTION) HOWSOEVER CAUSED AND ON ANY THEORY OF LIABILITY, WHETHER IN CONTRACT, ST
      +                          RICT
    57                           ; LIABILITY, OR TORT (INCLUDING NEGLIGENCE OR OTHERWISE) ARISING IN ANY WAY OUT OF THE U
      +                          SE OF
    58                           ; THIS SOFTWARE, EVEN IF ADVISED OF THE POSSIBILITY OF SUCH DAMAGE.
    59                           ; 
    60                           ; 
    61                           ; Code-generator required, PIC18F57Q43 Definitions
    62                           ; 
    63                           ; SFR Addresses
    64  0000                     
    65                           	psect	nvCOMRAM
    66  000505                     __pnvCOMRAM:
    67                           	callstack 0
    68  000505                     _TMR0_InterruptHandler:
    69                           	callstack 0
    70  000505                     	ds	3
    71  0000                     _PMD8	set	104
    72  0000                     _PMD7	set	103
    73  0000                     _PMD6	set	102
    74  0000                     _PMD5	set	101
    75  0000                     _PMD4	set	100
    76  0000                     _PMD3	set	99
    77  0000                     _PMD1	set	97
    78  0000                     _PMD0	set	96
    79  0000                     _ACTCON	set	172
    80  0000                     _OSCTUNE	set	176
    81  0000                     _OSCFRQ	set	177
    82  0000                     _OSCEN	set	179
    83  0000                     _OSCCON3	set	175
    84  0000                     _OSCCON1	set	173
    85  0000                     _RC4I2C	set	646
    86  0000                     _RC3I2C	set	647
    87  0000                     _RB2I2C	set	648
    88  0000                     _RB1I2C	set	649
    89  0000                     _T0CON0bits	set	794
    90  0000                     _T0CON0	set	794
    91  0000                     _TMR0L	set	792
    92  0000                     _TMR0H	set	793
    93  0000                     _T0CON1	set	795
    94  0000                     _IPR3bits	set	869
    95  0000                     _IVTBASEL	set	1117
    96  0000                     _IVTBASEH	set	1118
    97  0000                     _IVTBASEU	set	1119
    98  0000                     _IVTLOCKbits	set	1113
    99  0000                     _IVTLOCK	set	1113
   100  0000                     _INLVLF	set	1068
   101  0000                     _INLVLE	set	1060
   102  0000                     _INLVLD	set	1052
   103  0000                     _INLVLC	set	1044
   104  0000                     _INLVLB	set	1036
   105  0000                     _INLVLA	set	1028
   106  0000                     _SLRCONF	set	1067
   107  0000                     _SLRCONE	set	1059
   108  0000                     _SLRCOND	set	1051
   109  0000                     _SLRCONC	set	1043
   110  0000                     _SLRCONB	set	1035
   111  0000                     _SLRCONA	set	1027
   112  0000                     _ODCOND	set	1050
   113  0000                     _ODCONC	set	1042
   114  0000                     _ODCONB	set	1034
   115  0000                     _ODCONA	set	1026
   116  0000                     _ODCONF	set	1066
   117  0000                     _ODCONE	set	1058
   118  0000                     _WPUC	set	1041
   119  0000                     _WPUA	set	1025
   120  0000                     _WPUB	set	1033
   121  0000                     _WPUE	set	1057
   122  0000                     _WPUF	set	1065
   123  0000                     _WPUD	set	1049
   124  0000                     _ANSELA	set	1024
   125  0000                     _ANSELF	set	1064
   126  0000                     _ANSELE	set	1056
   127  0000                     _ANSELB	set	1032
   128  0000                     _ANSELC	set	1040
   129  0000                     _ANSELD	set	1048
   130  0000                     _LATFbits	set	1219
   131  0000                     _PIE3bits	set	1185
   132  0000                     _PIR3bits	set	1201
   133  0000                     _INTCON0bits	set	1238
   134  0000                     _TRISD	set	1225
   135  0000                     _TRISC	set	1224
   136  0000                     _TRISB	set	1223
   137  0000                     _TRISA	set	1222
   138  0000                     _TRISF	set	1227
   139  0000                     _TRISE	set	1226
   140  0000                     _LATC	set	1216
   141  0000                     _LATB	set	1215
   142  0000                     _LATF	set	1219
   143  0000                     _LATA	set	1214
   144  0000                     _LATD	set	1217
   145  0000                     _LATE	set	1218
   146  0000                     _GIE	set	9911
   147                           
   148                           ; #config settings
   149                           
   150                           	psect	cinit
   151  000FEE                     __pcinit:
   152                           	callstack 0
   153  000FEE                     start_initialization:
   154                           	callstack 0
   155  000FEE                     __initialization:
   156                           	callstack 0
   157                           
   158                           ; Clear objects allocated to COMRAM (2 bytes)
   159  000FEE  6A09               	clrf	(__pbssCOMRAM+1)& (0+255),c
   160  000FF0  6A08               	clrf	__pbssCOMRAM& (0+255),c
   161                           
   162                           ;
   163                           ; Setup IVTBASE
   164                           ;
   165  000FF2  0104               	movlb	4
   166  000FF4  0E08               	movlw	(ivt0xD08_base shr 0)& (0+255)
   167  000FF6  6F5D               	movwf	93,b
   168  000FF8  0E0D               	movlw	(ivt0xD08_base shr (0+8))& (0+255)
   169  000FFA  6F5E               	movwf	94,b
   170  000FFC  0E00               	movlw	(ivt0xD08_base shr (0+16))& (0+255)
   171  000FFE  6F5F               	movwf	95,b
   172  001000                     end_of_initialization:
   173                           	callstack 0
   174  001000                     __end_of__initialization:
   175                           	callstack 0
   176  001000  0100               	movlb	0
   177  001002  EFD9  F007         	goto	_main	;jump to C main() function
   178                           
   179                           	psect	bssCOMRAM
   180  000508                     __pbssCOMRAM:
   181                           	callstack 0
   182  000508                     TMR0_ISR@CountCallBack:
   183                           	callstack 0
   184  000508                     	ds	2
   185                           
   186                           	psect	cstackCOMRAM
   187  000501                     __pcstackCOMRAM:
   188                           	callstack 0
   189  000501                     ??_TMR0_UserInterruptHandler:
   190  000501                     
   191                           ; 1 bytes @ 0x0
   192  000501                     	ds	1
   193  000502                     INTERRUPT_Initialize@state:
   194                           	callstack 0
   195  000502                     TMR0_SetInterruptHandler@InterruptHandler:
   196                           	callstack 0
   197                           
   198                           ; 3 bytes @ 0x1
   199  000502                     	ds	3
   200  000505                     
   201                           ; 1 bytes @ 0x4
   202 ;;
   203 ;;Main: autosize = 0, tempsize = 0, incstack = 0, save=0
   204 ;;
   205 ;; *************** function _main *****************
   206 ;; Defined at:
   207 ;;		line 54 in file "main.c"
   208 ;; Parameters:    Size  Location     Type
   209 ;;		None
   210 ;; Auto vars:     Size  Location     Type
   211 ;;		None
   212 ;; Return value:  Size  Location     Type
   213 ;;                  1    wreg      void 
   214 ;; Registers used:
   215 ;;		wreg, status,2, status,0, cstack
   216 ;; Tracked objects:
   217 ;;		On entry : 0/0
   218 ;;		On exit  : 0/0
   219 ;;		Unchanged: 0/0
   220 ;; Data sizes:     COMRAM   BANK5   BANK6   BANK7   BANK8   BANK9  BANK10  BANK11  BANK12  BANK13  BANK14  BANK15  BANK1
      +6  BANK17  BANK18  BANK19  BANK20  BANK21  BANK22  BANK23  BANK24  BANK25  BANK26  BANK27  BANK28  BANK29  BANK30  BANK3
      +1  BANK32  BANK33  BANK34  BANK35  BANK36  BANK37
   221 ;;      Params:         0       0       0       0       0       0       0       0       0       0       0       0       
      +0       0       0       0       0       0       0       0       0       0       0       0       0       0       0       
      +0       0       0       0       0       0       0
   222 ;;      Locals:         0       0       0       0       0       0       0       0       0       0       0       0       
      +0       0       0       0       0       0       0       0       0       0       0       0       0       0       0       
      +0       0       0       0       0       0       0
   223 ;;      Temps:          0       0       0       0       0       0       0       0       0       0       0       0       
      +0       0       0       0       0       0       0       0       0       0       0       0       0       0       0       
      +0       0       0       0       0       0       0
   224 ;;      Totals:         0       0       0       0       0       0       0       0       0       0       0       0       
      +0       0       0       0       0       0       0       0       0       0       0       0       0       0       0       
      +0       0       0       0       0       0       0
   225 ;;Total ram usage:        0 bytes
   226 ;; Hardware stack levels required when called: 6
   227 ;; This function calls:
   228 ;;		_SYSTEM_Initialize
   229 ;;		_TMR0_SetInterruptHandler
   230 ;; This function is called by:
   231 ;;		Startup code after reset
   232 ;; This function uses a non-reentrant model
   233 ;;
   234                           
   235                           	psect	text0
   236  000FB2                     __ptext0:
   237                           	callstack 0
   238  000FB2                     _main:
   239                           	callstack 121
   240  000FB2                     
   241                           ;main.c: 57:     SYSTEM_Initialize();
   242  000FB2  EC03  F008         	call	_SYSTEM_Initialize	;wreg free
   243                           
   244                           ;main.c: 60:     TMR0_SetInterruptHandler(TMR0_UserInterruptHandler);
   245  000FB6  0E66               	movlw	low _TMR0_UserInterruptHandler
   246  000FB8  6E02               	movwf	TMR0_SetInterruptHandler@InterruptHandler^(0+1280),c
   247  000FBA  0E0F               	movlw	high _TMR0_UserInterruptHandler
   248  000FBC  6E03               	movwf	(TMR0_SetInterruptHandler@InterruptHandler+1)^(0+1280),c
   249  000FBE  0E00               	movlw	low (_TMR0_UserInterruptHandler shr (0+16))
   250  000FC0  6E04               	movwf	(TMR0_SetInterruptHandler@InterruptHandler+2)^(0+1280),c
   251  000FC2  EC0E  F008         	call	_TMR0_SetInterruptHandler	;wreg free
   252  000FC6                     
   253                           ;main.c: 67:     (INTCON0bits.GIEH = 1);
   254  000FC6  8ED6               	bsf	214,7,c	;volatile
   255  000FC8                     
   256                           ;main.c: 70:     (INTCON0bits.GIEL = 1);
   257  000FC8  8CD6               	bsf	214,6,c	;volatile
   258  000FCA                     l245:
   259  000FCA  EFE5  F007         	goto	l245
   260  000FCE  EF01  F007         	goto	start
   261  000FD2                     __end_of_main:
   262                           	callstack 0
   263                           
   264 ;; *************** function _SYSTEM_Initialize *****************
   265 ;; Defined at:
   266 ;;		line 50 in file "mcc_generated_files/mcc.c"
   267 ;; Parameters:    Size  Location     Type
   268 ;;		None
   269 ;; Auto vars:     Size  Location     Type
   270 ;;		None
   271 ;; Return value:  Size  Location     Type
   272 ;;                  1    wreg      void 
   273 ;; Registers used:
   274 ;;		wreg, status,2, status,0, cstack
   275 ;; Tracked objects:
   276 ;;		On entry : 0/0
   277 ;;		On exit  : 0/0
   278 ;;		Unchanged: 0/0
   279 ;; Data sizes:     COMRAM   BANK5   BANK6   BANK7   BANK8   BANK9  BANK10  BANK11  BANK12  BANK13  BANK14  BANK15  BANK1
      +6  BANK17  BANK18  BANK19  BANK20  BANK21  BANK22  BANK23  BANK24  BANK25  BANK26  BANK27  BANK28  BANK29  BANK30  BANK3
      +1  BANK32  BANK33  BANK34  BANK35  BANK36  BANK37
   280 ;;      Params:         0       0       0       0       0       0       0       0       0       0       0       0       
      +0       0       0       0       0       0       0       0       0       0       0       0       0       0       0       
      +0       0       0       0       0       0       0
   281 ;;      Locals:         0       0       0       0       0       0       0       0       0       0       0       0       
      +0       0       0       0       0       0       0       0       0       0       0       0       0       0       0       
      +0       0       0       0       0       0       0
   282 ;;      Temps:          0       0       0       0       0       0       0       0       0       0       0       0       
      +0       0       0       0       0       0       0       0       0       0       0       0       0       0       0       
      +0       0       0       0       0       0       0
   283 ;;      Totals:         0       0       0       0       0       0       0       0       0       0       0       0       
      +0       0       0       0       0       0       0       0       0       0       0       0       0       0       0       
      +0       0       0       0       0       0       0
   284 ;;Total ram usage:        0 bytes
   285 ;; Hardware stack levels used: 1
   286 ;; Hardware stack levels required when called: 5
   287 ;; This function calls:
   288 ;;		_INTERRUPT_Initialize
   289 ;;		_OSCILLATOR_Initialize
   290 ;;		_PIN_MANAGER_Initialize
   291 ;;		_PMD_Initialize
   292 ;;		_TMR0_Initialize
   293 ;; This function is called by:
   294 ;;		_main
   295 ;; This function uses a non-reentrant model
   296 ;;
   297                           
   298                           	psect	text1
   299  001006                     __ptext1:
   300                           	callstack 0
   301  001006                     _SYSTEM_Initialize:
   302                           	callstack 121
   303  001006                     
   304                           ;mcc_generated_files/mcc.c: 52:     INTERRUPT_Initialize();
   305  001006  EC52  F007         	call	_INTERRUPT_Initialize	;wreg free
   306                           
   307                           ;mcc_generated_files/mcc.c: 53:     PMD_Initialize();
   308  00100A  ECC7  F007         	call	_PMD_Initialize	;wreg free
   309                           
   310                           ;mcc_generated_files/mcc.c: 54:     PIN_MANAGER_Initialize();
   311  00100E  EC03  F007         	call	_PIN_MANAGER_Initialize	;wreg free
   312                           
   313                           ;mcc_generated_files/mcc.c: 55:     OSCILLATOR_Initialize();
   314  001012  ECE9  F007         	call	_OSCILLATOR_Initialize	;wreg free
   315  001016                     
   316                           ;mcc_generated_files/mcc.c: 56:     TMR0_Initialize();
   317  001016  EC89  F007         	call	_TMR0_Initialize	;wreg free
   318  00101A  0012               	return		;funcret
   319  00101C                     __end_of_SYSTEM_Initialize:
   320                           	callstack 0
   321                           
   322 ;; *************** function _TMR0_Initialize *****************
   323 ;; Defined at:
   324 ;;		line 62 in file "mcc_generated_files/tmr0.c"
   325 ;; Parameters:    Size  Location     Type
   326 ;;		None
   327 ;; Auto vars:     Size  Location     Type
   328 ;;		None
   329 ;; Return value:  Size  Location     Type
   330 ;;                  1    wreg      void 
   331 ;; Registers used:
   332 ;;		wreg, status,2, status,0, cstack
   333 ;; Tracked objects:
   334 ;;		On entry : 0/0
   335 ;;		On exit  : 0/0
   336 ;;		Unchanged: 0/0
   337 ;; Data sizes:     COMRAM   BANK5   BANK6   BANK7   BANK8   BANK9  BANK10  BANK11  BANK12  BANK13  BANK14  BANK15  BANK1
      +6  BANK17  BANK18  BANK19  BANK20  BANK21  BANK22  BANK23  BANK24  BANK25  BANK26  BANK27  BANK28  BANK29  BANK30  BANK3
      +1  BANK32  BANK33  BANK34  BANK35  BANK36  BANK37
   338 ;;      Params:         0       0       0       0       0       0       0       0       0       0       0       0       
      +0       0       0       0       0       0       0       0       0       0       0       0       0       0       0       
      +0       0       0       0       0       0       0
   339 ;;      Locals:         0       0       0       0       0       0       0       0       0       0       0       0       
      +0       0       0       0       0       0       0       0       0       0       0       0       0       0       0       
      +0       0       0       0       0       0       0
   340 ;;      Temps:          0       0       0       0       0       0       0       0       0       0       0       0       
      +0       0       0       0       0       0       0       0       0       0       0       0       0       0       0       
      +0       0       0       0       0       0       0
   341 ;;      Totals:         0       0       0       0       0       0       0       0       0       0       0       0       
      +0       0       0       0       0       0       0       0       0       0       0       0       0       0       0       
      +0       0       0       0       0       0       0
   342 ;;Total ram usage:        0 bytes
   343 ;; Hardware stack levels used: 1
   344 ;; Hardware stack levels required when called: 4
   345 ;; This function calls:
   346 ;;		_TMR0_SetInterruptHandler
   347 ;; This function is called by:
   348 ;;		_SYSTEM_Initialize
   349 ;; This function uses a non-reentrant model
   350 ;;
   351                           
   352                           	psect	text2
   353  000F12                     __ptext2:
   354                           	callstack 0
   355  000F12                     _TMR0_Initialize:
   356                           	callstack 121
   357  000F12                     
   358                           ;mcc_generated_files/tmr0.c: 67:     T0CON1 = 0x43;
   359  000F12  0E43               	movlw	67
   360  000F14  0103               	movlb	3	; () banked
   361  000F16  6F1B               	movwf	27,b	;volatile
   362                           
   363                           ;mcc_generated_files/tmr0.c: 70:     TMR0H = 0xC7;
   364  000F18  0EC7               	movlw	199
   365  000F1A  6F19               	movwf	25,b	;volatile
   366                           
   367                           ;mcc_generated_files/tmr0.c: 73:     TMR0L = 0x00;
   368  000F1C  0E00               	movlw	0
   369  000F1E  6F18               	movwf	24,b	;volatile
   370  000F20                     
   371                           ; BSR set to: 3
   372                           ;mcc_generated_files/tmr0.c: 76:     PIR3bits.TMR0IF = 0;
   373  000F20  9EB1               	bcf	177,7,c	;volatile
   374  000F22                     
   375                           ; BSR set to: 3
   376                           ;mcc_generated_files/tmr0.c: 79:     PIE3bits.TMR0IE = 1;
   377  000F22  8EA1               	bsf	161,7,c	;volatile
   378  000F24                     
   379                           ; BSR set to: 3
   380                           ;mcc_generated_files/tmr0.c: 82:     TMR0_SetInterruptHandler(TMR0_DefaultInterruptHandl
      +                          er);
   381  000F24  0E2E               	movlw	low _TMR0_DefaultInterruptHandler
   382  000F26  6E02               	movwf	TMR0_SetInterruptHandler@InterruptHandler^(0+1280),c
   383  000F28  0E10               	movlw	high _TMR0_DefaultInterruptHandler
   384  000F2A  6E03               	movwf	(TMR0_SetInterruptHandler@InterruptHandler+1)^(0+1280),c
   385  000F2C  0E00               	movlw	low (_TMR0_DefaultInterruptHandler shr (0+16))
   386  000F2E  6E04               	movwf	(TMR0_SetInterruptHandler@InterruptHandler+2)^(0+1280),c
   387  000F30  EC0E  F008         	call	_TMR0_SetInterruptHandler	;wreg free
   388  000F34                     
   389                           ;mcc_generated_files/tmr0.c: 85:     T0CON0 = 0x89;
   390  000F34  0E89               	movlw	137
   391  000F36  0103               	movlb	3	; () banked
   392  000F38  6F1A               	movwf	26,b	;volatile
   393  000F3A                     
   394                           ; BSR set to: 3
   395  000F3A  0012               	return		;funcret
   396  000F3C                     __end_of_TMR0_Initialize:
   397                           	callstack 0
   398                           
   399 ;; *************** function _TMR0_SetInterruptHandler *****************
   400 ;; Defined at:
   401 ;;		line 151 in file "mcc_generated_files/tmr0.c"
   402 ;; Parameters:    Size  Location     Type
   403 ;;  InterruptHan    3    1[COMRAM] PTR FTN()void 
   404 ;;		 -> TMR0_UserInterruptHandler(1), TMR0_DefaultInterruptHandler(1), 
   405 ;; Auto vars:     Size  Location     Type
   406 ;;		None
   407 ;; Return value:  Size  Location     Type
   408 ;;                  1    wreg      void 
   409 ;; Registers used:
   410 ;;		wreg, status,2, status,0
   411 ;; Tracked objects:
   412 ;;		On entry : 0/0
   413 ;;		On exit  : 0/0
   414 ;;		Unchanged: 0/0
   415 ;; Data sizes:     COMRAM   BANK5   BANK6   BANK7   BANK8   BANK9  BANK10  BANK11  BANK12  BANK13  BANK14  BANK15  BANK1
      +6  BANK17  BANK18  BANK19  BANK20  BANK21  BANK22  BANK23  BANK24  BANK25  BANK26  BANK27  BANK28  BANK29  BANK30  BANK3
      +1  BANK32  BANK33  BANK34  BANK35  BANK36  BANK37
   416 ;;      Params:         3       0       0       0       0       0       0       0       0       0       0       0       
      +0       0       0       0       0       0       0       0       0       0       0       0       0       0       0       
      +0       0       0       0       0       0       0
   417 ;;      Locals:         0       0       0       0       0       0       0       0       0       0       0       0       
      +0       0       0       0       0       0       0       0       0       0       0       0       0       0       0       
      +0       0       0       0       0       0       0
   418 ;;      Temps:          0       0       0       0       0       0       0       0       0       0       0       0       
      +0       0       0       0       0       0       0       0       0       0       0       0       0       0       0       
      +0       0       0       0       0       0       0
   419 ;;      Totals:         3       0       0       0       0       0       0       0       0       0       0       0       
      +0       0       0       0       0       0       0       0       0       0       0       0       0       0       0       
      +0       0       0       0       0       0       0
   420 ;;Total ram usage:        3 bytes
   421 ;; Hardware stack levels used: 1
   422 ;; Hardware stack levels required when called: 3
   423 ;; This function calls:
   424 ;;		Nothing
   425 ;; This function is called by:
   426 ;;		_TMR0_Initialize
   427 ;;		_main
   428 ;; This function uses a non-reentrant model
   429 ;;
   430                           
   431                           	psect	text3
   432  00101C                     __ptext3:
   433                           	callstack 0
   434  00101C                     _TMR0_SetInterruptHandler:
   435                           	callstack 123
   436  00101C                     
   437                           ;mcc_generated_files/tmr0.c: 152:     TMR0_InterruptHandler = InterruptHandler;
   438  00101C  C502  F505         	movff	TMR0_SetInterruptHandler@InterruptHandler,_TMR0_InterruptHandler
   439  001020  C503  F506         	movff	TMR0_SetInterruptHandler@InterruptHandler+1,_TMR0_InterruptHandler+1
   440  001024  C504  F507         	movff	TMR0_SetInterruptHandler@InterruptHandler+2,_TMR0_InterruptHandler+2
   441  001028  0012               	return		;funcret
   442  00102A                     __end_of_TMR0_SetInterruptHandler:
   443                           	callstack 0
   444                           
   445 ;; *************** function _PMD_Initialize *****************
   446 ;; Defined at:
   447 ;;		line 75 in file "mcc_generated_files/mcc.c"
   448 ;; Parameters:    Size  Location     Type
   449 ;;		None
   450 ;; Auto vars:     Size  Location     Type
   451 ;;		None
   452 ;; Return value:  Size  Location     Type
   453 ;;                  1    wreg      void 
   454 ;; Registers used:
   455 ;;		wreg, status,2
   456 ;; Tracked objects:
   457 ;;		On entry : 0/0
   458 ;;		On exit  : 0/0
   459 ;;		Unchanged: 0/0
   460 ;; Data sizes:     COMRAM   BANK5   BANK6   BANK7   BANK8   BANK9  BANK10  BANK11  BANK12  BANK13  BANK14  BANK15  BANK1
      +6  BANK17  BANK18  BANK19  BANK20  BANK21  BANK22  BANK23  BANK24  BANK25  BANK26  BANK27  BANK28  BANK29  BANK30  BANK3
      +1  BANK32  BANK33  BANK34  BANK35  BANK36  BANK37
   461 ;;      Params:         0       0       0       0       0       0       0       0       0       0       0       0       
      +0       0       0       0       0       0       0       0       0       0       0       0       0       0       0       
      +0       0       0       0       0       0       0
   462 ;;      Locals:         0       0       0       0       0       0       0       0       0       0       0       0       
      +0       0       0       0       0       0       0       0       0       0       0       0       0       0       0       
      +0       0       0       0       0       0       0
   463 ;;      Temps:          0       0       0       0       0       0       0       0       0       0       0       0       
      +0       0       0       0       0       0       0       0       0       0       0       0       0       0       0       
      +0       0       0       0       0       0       0
   464 ;;      Totals:         0       0       0       0       0       0       0       0       0       0       0       0       
      +0       0       0       0       0       0       0       0       0       0       0       0       0       0       0       
      +0       0       0       0       0       0       0
   465 ;;Total ram usage:        0 bytes
   466 ;; Hardware stack levels used: 1
   467 ;; Hardware stack levels required when called: 3
   468 ;; This function calls:
   469 ;;		Nothing
   470 ;; This function is called by:
   471 ;;		_SYSTEM_Initialize
   472 ;; This function uses a non-reentrant model
   473 ;;
   474                           
   475                           	psect	text4
   476  000F8E                     __ptext4:
   477                           	callstack 0
   478  000F8E                     _PMD_Initialize:
   479                           	callstack 122
   480  000F8E                     
   481                           ;mcc_generated_files/mcc.c: 78:     PMD0 = 0x00;
   482  000F8E  0E00               	movlw	0
   483  000F90  0100               	movlb	0	; () banked
   484  000F92  6F60               	movwf	96,b	;volatile
   485                           
   486                           ;mcc_generated_files/mcc.c: 80:     PMD1 = 0x00;
   487  000F94  0E00               	movlw	0
   488  000F96  6F61               	movwf	97,b	;volatile
   489                           
   490                           ;mcc_generated_files/mcc.c: 82:     PMD3 = 0x00;
   491  000F98  0E00               	movlw	0
   492  000F9A  6F63               	movwf	99,b	;volatile
   493                           
   494                           ;mcc_generated_files/mcc.c: 84:     PMD4 = 0x00;
   495  000F9C  0E00               	movlw	0
   496  000F9E  6F64               	movwf	100,b	;volatile
   497                           
   498                           ;mcc_generated_files/mcc.c: 86:     PMD5 = 0x00;
   499  000FA0  0E00               	movlw	0
   500  000FA2  6F65               	movwf	101,b	;volatile
   501                           
   502                           ;mcc_generated_files/mcc.c: 88:     PMD6 = 0x00;
   503  000FA4  0E00               	movlw	0
   504  000FA6  6F66               	movwf	102,b	;volatile
   505                           
   506                           ;mcc_generated_files/mcc.c: 90:     PMD7 = 0x00;
   507  000FA8  0E00               	movlw	0
   508  000FAA  6F67               	movwf	103,b	;volatile
   509                           
   510                           ;mcc_generated_files/mcc.c: 92:     PMD8 = 0x00;
   511  000FAC  0E00               	movlw	0
   512  000FAE  6F68               	movwf	104,b	;volatile
   513  000FB0                     
   514                           ; BSR set to: 0
   515  000FB0  0012               	return		;funcret
   516  000FB2                     __end_of_PMD_Initialize:
   517                           	callstack 0
   518                           
   519 ;; *************** function _PIN_MANAGER_Initialize *****************
   520 ;; Defined at:
   521 ;;		line 55 in file "mcc_generated_files/pin_manager.c"
   522 ;; Parameters:    Size  Location     Type
   523 ;;		None
   524 ;; Auto vars:     Size  Location     Type
   525 ;;		None
   526 ;; Return value:  Size  Location     Type
   527 ;;                  1    wreg      void 
   528 ;; Registers used:
   529 ;;		wreg, status,2
   530 ;; Tracked objects:
   531 ;;		On entry : 0/0
   532 ;;		On exit  : 0/0
   533 ;;		Unchanged: 0/0
   534 ;; Data sizes:     COMRAM   BANK5   BANK6   BANK7   BANK8   BANK9  BANK10  BANK11  BANK12  BANK13  BANK14  BANK15  BANK1
      +6  BANK17  BANK18  BANK19  BANK20  BANK21  BANK22  BANK23  BANK24  BANK25  BANK26  BANK27  BANK28  BANK29  BANK30  BANK3
      +1  BANK32  BANK33  BANK34  BANK35  BANK36  BANK37
   535 ;;      Params:         0       0       0       0       0       0       0       0       0       0       0       0       
      +0       0       0       0       0       0       0       0       0       0       0       0       0       0       0       
      +0       0       0       0       0       0       0
   536 ;;      Locals:         0       0       0       0       0       0       0       0       0       0       0       0       
      +0       0       0       0       0       0       0       0       0       0       0       0       0       0       0       
      +0       0       0       0       0       0       0
   537 ;;      Temps:          0       0       0       0       0       0       0       0       0       0       0       0       
      +0       0       0       0       0       0       0       0       0       0       0       0       0       0       0       
      +0       0       0       0       0       0       0
   538 ;;      Totals:         0       0       0       0       0       0       0       0       0       0       0       0       
      +0       0       0       0       0       0       0       0       0       0       0       0       0       0       0       
      +0       0       0       0       0       0       0
   539 ;;Total ram usage:        0 bytes
   540 ;; Hardware stack levels used: 1
   541 ;; Hardware stack levels required when called: 3
   542 ;; This function calls:
   543 ;;		Nothing
   544 ;; This function is called by:
   545 ;;		_SYSTEM_Initialize
   546 ;; This function uses a non-reentrant model
   547 ;;
   548                           
   549                           	psect	text5
   550  000E06                     __ptext5:
   551                           	callstack 0
   552  000E06                     _PIN_MANAGER_Initialize:
   553                           	callstack 122
   554  000E06                     
   555                           ;mcc_generated_files/pin_manager.c: 60:     LATE = 0x00;
   556  000E06  0E00               	movlw	0
   557  000E08  6EC2               	movwf	194,c	;volatile
   558                           
   559                           ;mcc_generated_files/pin_manager.c: 61:     LATD = 0x00;
   560  000E0A  0E00               	movlw	0
   561  000E0C  6EC1               	movwf	193,c	;volatile
   562                           
   563                           ;mcc_generated_files/pin_manager.c: 62:     LATA = 0x00;
   564  000E0E  0E00               	movlw	0
   565  000E10  6EBE               	movwf	190,c	;volatile
   566                           
   567                           ;mcc_generated_files/pin_manager.c: 63:     LATF = 0x00;
   568  000E12  0E00               	movlw	0
   569  000E14  6EC3               	movwf	195,c	;volatile
   570                           
   571                           ;mcc_generated_files/pin_manager.c: 64:     LATB = 0x00;
   572  000E16  0E00               	movlw	0
   573  000E18  6EBF               	movwf	191,c	;volatile
   574                           
   575                           ;mcc_generated_files/pin_manager.c: 65:     LATC = 0x00;
   576  000E1A  0E00               	movlw	0
   577  000E1C  6EC0               	movwf	192,c	;volatile
   578                           
   579                           ;mcc_generated_files/pin_manager.c: 70:     TRISE = 0x07;
   580  000E1E  0E07               	movlw	7
   581  000E20  6ECA               	movwf	202,c	;volatile
   582                           
   583                           ;mcc_generated_files/pin_manager.c: 71:     TRISF = 0xF7;
   584  000E22  0EF7               	movlw	247
   585  000E24  6ECB               	movwf	203,c	;volatile
   586  000E26                     
   587                           ;mcc_generated_files/pin_manager.c: 72:     TRISA = 0xFF;
   588  000E26  68C6               	setf	198,c	;volatile
   589  000E28                     
   590                           ;mcc_generated_files/pin_manager.c: 73:     TRISB = 0xFF;
   591  000E28  68C7               	setf	199,c	;volatile
   592  000E2A                     
   593                           ;mcc_generated_files/pin_manager.c: 74:     TRISC = 0xFF;
   594  000E2A  68C8               	setf	200,c	;volatile
   595  000E2C                     
   596                           ;mcc_generated_files/pin_manager.c: 75:     TRISD = 0xFF;
   597  000E2C  68C9               	setf	201,c	;volatile
   598  000E2E                     
   599                           ;mcc_generated_files/pin_manager.c: 80:     ANSELD = 0xFF;
   600  000E2E  0104               	movlb	4	; () banked
   601  000E30  6918               	setf	24,b	;volatile
   602  000E32                     
   603                           ; BSR set to: 4
   604                           ;mcc_generated_files/pin_manager.c: 81:     ANSELC = 0xFF;
   605  000E32  6910               	setf	16,b	;volatile
   606                           
   607                           ;mcc_generated_files/pin_manager.c: 82:     ANSELB = 0xEF;
   608  000E34  0EEF               	movlw	239
   609  000E36  6F08               	movwf	8,b	;volatile
   610                           
   611                           ;mcc_generated_files/pin_manager.c: 83:     ANSELE = 0x07;
   612  000E38  0E07               	movlw	7
   613  000E3A  6F20               	movwf	32,b	;volatile
   614                           
   615                           ;mcc_generated_files/pin_manager.c: 84:     ANSELF = 0xF7;
   616  000E3C  0EF7               	movlw	247
   617  000E3E  6F28               	movwf	40,b	;volatile
   618  000E40                     
   619                           ; BSR set to: 4
   620                           ;mcc_generated_files/pin_manager.c: 85:     ANSELA = 0xFF;
   621  000E40  6900               	setf	0,b	;volatile
   622                           
   623                           ;mcc_generated_files/pin_manager.c: 90:     WPUD = 0x00;
   624  000E42  0E00               	movlw	0
   625  000E44  6F19               	movwf	25,b	;volatile
   626                           
   627                           ;mcc_generated_files/pin_manager.c: 91:     WPUF = 0x00;
   628  000E46  0E00               	movlw	0
   629  000E48  6F29               	movwf	41,b	;volatile
   630                           
   631                           ;mcc_generated_files/pin_manager.c: 92:     WPUE = 0x00;
   632  000E4A  0E00               	movlw	0
   633  000E4C  6F21               	movwf	33,b	;volatile
   634                           
   635                           ;mcc_generated_files/pin_manager.c: 93:     WPUB = 0x10;
   636  000E4E  0E10               	movlw	16
   637  000E50  6F09               	movwf	9,b	;volatile
   638                           
   639                           ;mcc_generated_files/pin_manager.c: 94:     WPUA = 0x00;
   640  000E52  0E00               	movlw	0
   641  000E54  6F01               	movwf	1,b	;volatile
   642                           
   643                           ;mcc_generated_files/pin_manager.c: 95:     WPUC = 0x00;
   644  000E56  0E00               	movlw	0
   645  000E58  6F11               	movwf	17,b	;volatile
   646                           
   647                           ;mcc_generated_files/pin_manager.c: 100:     RB1I2C = 0x00;
   648  000E5A  0E00               	movlw	0
   649  000E5C  0102               	movlb	2	; () banked
   650  000E5E  6F89               	movwf	137,b	;volatile
   651                           
   652                           ;mcc_generated_files/pin_manager.c: 101:     RB2I2C = 0x00;
   653  000E60  0E00               	movlw	0
   654  000E62  6F88               	movwf	136,b	;volatile
   655                           
   656                           ;mcc_generated_files/pin_manager.c: 102:     RC3I2C = 0x00;
   657  000E64  0E00               	movlw	0
   658  000E66  6F87               	movwf	135,b	;volatile
   659                           
   660                           ;mcc_generated_files/pin_manager.c: 103:     RC4I2C = 0x00;
   661  000E68  0E00               	movlw	0
   662  000E6A  6F86               	movwf	134,b	;volatile
   663                           
   664                           ;mcc_generated_files/pin_manager.c: 108:     ODCONE = 0x00;
   665  000E6C  0E00               	movlw	0
   666  000E6E  0104               	movlb	4	; () banked
   667  000E70  6F22               	movwf	34,b	;volatile
   668                           
   669                           ;mcc_generated_files/pin_manager.c: 109:     ODCONF = 0x00;
   670  000E72  0E00               	movlw	0
   671  000E74  6F2A               	movwf	42,b	;volatile
   672                           
   673                           ;mcc_generated_files/pin_manager.c: 110:     ODCONA = 0x00;
   674  000E76  0E00               	movlw	0
   675  000E78  6F02               	movwf	2,b	;volatile
   676                           
   677                           ;mcc_generated_files/pin_manager.c: 111:     ODCONB = 0x00;
   678  000E7A  0E00               	movlw	0
   679  000E7C  6F0A               	movwf	10,b	;volatile
   680                           
   681                           ;mcc_generated_files/pin_manager.c: 112:     ODCONC = 0x00;
   682  000E7E  0E00               	movlw	0
   683  000E80  6F12               	movwf	18,b	;volatile
   684                           
   685                           ;mcc_generated_files/pin_manager.c: 113:     ODCOND = 0x00;
   686  000E82  0E00               	movlw	0
   687  000E84  6F1A               	movwf	26,b	;volatile
   688  000E86                     
   689                           ; BSR set to: 4
   690                           ;mcc_generated_files/pin_manager.c: 118:     SLRCONA = 0xFF;
   691  000E86  6903               	setf	3,b	;volatile
   692  000E88                     
   693                           ; BSR set to: 4
   694                           ;mcc_generated_files/pin_manager.c: 119:     SLRCONB = 0xFF;
   695  000E88  690B               	setf	11,b	;volatile
   696  000E8A                     
   697                           ; BSR set to: 4
   698                           ;mcc_generated_files/pin_manager.c: 120:     SLRCONC = 0xFF;
   699  000E8A  6913               	setf	19,b	;volatile
   700  000E8C                     
   701                           ; BSR set to: 4
   702                           ;mcc_generated_files/pin_manager.c: 121:     SLRCOND = 0xFF;
   703  000E8C  691B               	setf	27,b	;volatile
   704                           
   705                           ;mcc_generated_files/pin_manager.c: 122:     SLRCONE = 0x07;
   706  000E8E  0E07               	movlw	7
   707  000E90  6F23               	movwf	35,b	;volatile
   708  000E92                     
   709                           ; BSR set to: 4
   710                           ;mcc_generated_files/pin_manager.c: 123:     SLRCONF = 0xFF;
   711  000E92  692B               	setf	43,b	;volatile
   712  000E94                     
   713                           ; BSR set to: 4
   714                           ;mcc_generated_files/pin_manager.c: 128:     INLVLA = 0xFF;
   715  000E94  6904               	setf	4,b	;volatile
   716  000E96                     
   717                           ; BSR set to: 4
   718                           ;mcc_generated_files/pin_manager.c: 129:     INLVLB = 0xFF;
   719  000E96  690C               	setf	12,b	;volatile
   720  000E98                     
   721                           ; BSR set to: 4
   722                           ;mcc_generated_files/pin_manager.c: 130:     INLVLC = 0xFF;
   723  000E98  6914               	setf	20,b	;volatile
   724  000E9A                     
   725                           ; BSR set to: 4
   726                           ;mcc_generated_files/pin_manager.c: 131:     INLVLD = 0xFF;
   727  000E9A  691C               	setf	28,b	;volatile
   728                           
   729                           ;mcc_generated_files/pin_manager.c: 132:     INLVLE = 0x0F;
   730  000E9C  0E0F               	movlw	15
   731  000E9E  6F24               	movwf	36,b	;volatile
   732  000EA0                     
   733                           ; BSR set to: 4
   734                           ;mcc_generated_files/pin_manager.c: 133:     INLVLF = 0xFF;
   735  000EA0  692C               	setf	44,b	;volatile
   736  000EA2                     
   737                           ; BSR set to: 4
   738  000EA2  0012               	return		;funcret
   739  000EA4                     __end_of_PIN_MANAGER_Initialize:
   740                           	callstack 0
   741                           
   742 ;; *************** function _OSCILLATOR_Initialize *****************
   743 ;; Defined at:
   744 ;;		line 59 in file "mcc_generated_files/mcc.c"
   745 ;; Parameters:    Size  Location     Type
   746 ;;		None
   747 ;; Auto vars:     Size  Location     Type
   748 ;;		None
   749 ;; Return value:  Size  Location     Type
   750 ;;                  1    wreg      void 
   751 ;; Registers used:
   752 ;;		wreg, status,2
   753 ;; Tracked objects:
   754 ;;		On entry : 0/0
   755 ;;		On exit  : 0/0
   756 ;;		Unchanged: 0/0
   757 ;; Data sizes:     COMRAM   BANK5   BANK6   BANK7   BANK8   BANK9  BANK10  BANK11  BANK12  BANK13  BANK14  BANK15  BANK1
      +6  BANK17  BANK18  BANK19  BANK20  BANK21  BANK22  BANK23  BANK24  BANK25  BANK26  BANK27  BANK28  BANK29  BANK30  BANK3
      +1  BANK32  BANK33  BANK34  BANK35  BANK36  BANK37
   758 ;;      Params:         0       0       0       0       0       0       0       0       0       0       0       0       
      +0       0       0       0       0       0       0       0       0       0       0       0       0       0       0       
      +0       0       0       0       0       0       0
   759 ;;      Locals:         0       0       0       0       0       0       0       0       0       0       0       0       
      +0       0       0       0       0       0       0       0       0       0       0       0       0       0       0       
      +0       0       0       0       0       0       0
   760 ;;      Temps:          0       0       0       0       0       0       0       0       0       0       0       0       
      +0       0       0       0       0       0       0       0       0       0       0       0       0       0       0       
      +0       0       0       0       0       0       0
   761 ;;      Totals:         0       0       0       0       0       0       0       0       0       0       0       0       
      +0       0       0       0       0       0       0       0       0       0       0       0       0       0       0       
      +0       0       0       0       0       0       0
   762 ;;Total ram usage:        0 bytes
   763 ;; Hardware stack levels used: 1
   764 ;; Hardware stack levels required when called: 3
   765 ;; This function calls:
   766 ;;		Nothing
   767 ;; This function is called by:
   768 ;;		_SYSTEM_Initialize
   769 ;; This function uses a non-reentrant model
   770 ;;
   771                           
   772                           	psect	text6
   773  000FD2                     __ptext6:
   774                           	callstack 0
   775  000FD2                     _OSCILLATOR_Initialize:
   776                           	callstack 122
   777  000FD2                     
   778                           ;mcc_generated_files/mcc.c: 62:     OSCCON1 = 0x60;
   779  000FD2  0E60               	movlw	96
   780  000FD4  0100               	movlb	0	; () banked
   781  000FD6  6FAD               	movwf	173,b	;volatile
   782                           
   783                           ;mcc_generated_files/mcc.c: 64:     OSCCON3 = 0x00;
   784  000FD8  0E00               	movlw	0
   785  000FDA  6FAF               	movwf	175,b	;volatile
   786                           
   787                           ;mcc_generated_files/mcc.c: 66:     OSCEN = 0x00;
   788  000FDC  0E00               	movlw	0
   789  000FDE  6FB3               	movwf	179,b	;volatile
   790                           
   791                           ;mcc_generated_files/mcc.c: 68:     OSCFRQ = 0x08;
   792  000FE0  0E08               	movlw	8
   793  000FE2  6FB1               	movwf	177,b	;volatile
   794                           
   795                           ;mcc_generated_files/mcc.c: 70:     OSCTUNE = 0x00;
   796  000FE4  0E00               	movlw	0
   797  000FE6  6FB0               	movwf	176,b	;volatile
   798                           
   799                           ;mcc_generated_files/mcc.c: 72:     ACTCON = 0x00;
   800  000FE8  0E00               	movlw	0
   801  000FEA  6FAC               	movwf	172,b	;volatile
   802  000FEC                     
   803                           ; BSR set to: 0
   804  000FEC  0012               	return		;funcret
   805  000FEE                     __end_of_OSCILLATOR_Initialize:
   806                           	callstack 0
   807                           
   808 ;; *************** function _INTERRUPT_Initialize *****************
   809 ;; Defined at:
   810 ;;		line 52 in file "mcc_generated_files/interrupt_manager.c"
   811 ;; Parameters:    Size  Location     Type
   812 ;;		None
   813 ;; Auto vars:     Size  Location     Type
   814 ;;  state           1    1[COMRAM] _Bool 
   815 ;; Return value:  Size  Location     Type
   816 ;;                  1    wreg      void 
   817 ;; Registers used:
   818 ;;		wreg, status,2
   819 ;; Tracked objects:
   820 ;;		On entry : 0/0
   821 ;;		On exit  : 0/0
   822 ;;		Unchanged: 0/0
   823 ;; Data sizes:     COMRAM   BANK5   BANK6   BANK7   BANK8   BANK9  BANK10  BANK11  BANK12  BANK13  BANK14  BANK15  BANK1
      +6  BANK17  BANK18  BANK19  BANK20  BANK21  BANK22  BANK23  BANK24  BANK25  BANK26  BANK27  BANK28  BANK29  BANK30  BANK3
      +1  BANK32  BANK33  BANK34  BANK35  BANK36  BANK37
   824 ;;      Params:         0       0       0       0       0       0       0       0       0       0       0       0       
      +0       0       0       0       0       0       0       0       0       0       0       0       0       0       0       
      +0       0       0       0       0       0       0
   825 ;;      Locals:         1       0       0       0       0       0       0       0       0       0       0       0       
      +0       0       0       0       0       0       0       0       0       0       0       0       0       0       0       
      +0       0       0       0       0       0       0
   826 ;;      Temps:          0       0       0       0       0       0       0       0       0       0       0       0       
      +0       0       0       0       0       0       0       0       0       0       0       0       0       0       0       
      +0       0       0       0       0       0       0
   827 ;;      Totals:         1       0       0       0       0       0       0       0       0       0       0       0       
      +0       0       0       0       0       0       0       0       0       0       0       0       0       0       0       
      +0       0       0       0       0       0       0
   828 ;;Total ram usage:        1 bytes
   829 ;; Hardware stack levels used: 1
   830 ;; Hardware stack levels required when called: 3
   831 ;; This function calls:
   832 ;;		Nothing
   833 ;; This function is called by:
   834 ;;		_SYSTEM_Initialize
   835 ;; This function uses a non-reentrant model
   836 ;;
   837                           
   838                           	psect	text7
   839  000EA4                     __ptext7:
   840                           	callstack 0
   841  000EA4                     _INTERRUPT_Initialize:
   842                           	callstack 122
   843  000EA4                     
   844                           ;mcc_generated_files/interrupt_manager.c: 54:     INTCON0bits.IPEN = 1;
   845  000EA4  8AD6               	bsf	214,5,c	;volatile
   846  000EA6                     
   847                           ;mcc_generated_files/interrupt_manager.c: 56:     _Bool state = (unsigned char)GIE;
   848  000EA6  0E00               	movlw	0
   849  000EA8  BED6               	btfsc	1238,7,c	;volatile
   850  000EAA  0E01               	movlw	1
   851  000EAC  6E02               	movwf	INTERRUPT_Initialize@state^(0+1280),c
   852  000EAE                     
   853                           ;mcc_generated_files/interrupt_manager.c: 57:     GIE = 0;
   854  000EAE  9ED6               	bcf	1238,7,c	;volatile
   855                           
   856                           ;mcc_generated_files/interrupt_manager.c: 58:     IVTLOCK = 0x55;
   857  000EB0  0E55               	movlw	85
   858  000EB2  0104               	movlb	4	; () banked
   859  000EB4  6F59               	movwf	89,b	;volatile
   860                           
   861                           ;mcc_generated_files/interrupt_manager.c: 59:     IVTLOCK = 0xAA;
   862  000EB6  0EAA               	movlw	170
   863  000EB8  6F59               	movwf	89,b	;volatile
   864  000EBA                     
   865                           ; BSR set to: 4
   866                           ;mcc_generated_files/interrupt_manager.c: 60:     IVTLOCKbits.IVTLOCKED = 0x00;
   867  000EBA  9159               	bcf	89,0,b	;volatile
   868                           
   869                           ;mcc_generated_files/interrupt_manager.c: 62:     IVTBASEU = 0;
   870  000EBC  0E00               	movlw	0
   871  000EBE  6F5F               	movwf	95,b	;volatile
   872                           
   873                           ;mcc_generated_files/interrupt_manager.c: 63:     IVTBASEH = 13;
   874  000EC0  0E0D               	movlw	13
   875  000EC2  6F5E               	movwf	94,b	;volatile
   876                           
   877                           ;mcc_generated_files/interrupt_manager.c: 64:     IVTBASEL = 8;
   878  000EC4  0E08               	movlw	8
   879  000EC6  6F5D               	movwf	93,b	;volatile
   880                           
   881                           ;mcc_generated_files/interrupt_manager.c: 66:     IVTLOCK = 0x55;
   882  000EC8  0E55               	movlw	85
   883  000ECA  6F59               	movwf	89,b	;volatile
   884                           
   885                           ;mcc_generated_files/interrupt_manager.c: 67:     IVTLOCK = 0xAA;
   886  000ECC  0EAA               	movlw	170
   887  000ECE  6F59               	movwf	89,b	;volatile
   888  000ED0                     
   889                           ; BSR set to: 4
   890                           ;mcc_generated_files/interrupt_manager.c: 68:     IVTLOCKbits.IVTLOCKED = 0x01;
   891  000ED0  8159               	bsf	89,0,b	;volatile
   892  000ED2                     
   893                           ; BSR set to: 4
   894                           ;mcc_generated_files/interrupt_manager.c: 70:     GIE = state;
   895  000ED2  B002               	btfsc	INTERRUPT_Initialize@state^(0+1280),0,c
   896  000ED4  D002               	bra	u15
   897  000ED6  9ED6               	bcf	1238,7,c	;volatile
   898  000ED8  D001               	bra	u16
   899  000EDA                     u15:
   900  000EDA  8ED6               	bsf	1238,7,c	;volatile
   901  000EDC                     u16:
   902  000EDC                     
   903                           ;mcc_generated_files/interrupt_manager.c: 72:     IPR3bits.TMR0IP = 1;
   904  000EDC  0103               	movlb	3	; () banked
   905  000EDE  8F65               	bsf	101,7,b	;volatile
   906  000EE0                     
   907                           ; BSR set to: 3
   908  000EE0  0012               	return		;funcret
   909  000EE2                     __end_of_INTERRUPT_Initialize:
   910                           	callstack 0
   911                           
   912 ;; *************** function _Default_ISR *****************
   913 ;; Defined at:
   914 ;;		line 75 in file "mcc_generated_files/interrupt_manager.c"
   915 ;; Parameters:    Size  Location     Type
   916 ;;		None
   917 ;; Auto vars:     Size  Location     Type
   918 ;;		None
   919 ;; Return value:  Size  Location     Type
   920 ;;                  1    wreg      void 
   921 ;; Registers used:
   922 ;;		None
   923 ;; Tracked objects:
   924 ;;		On entry : 0/0
   925 ;;		On exit  : 0/0
   926 ;;		Unchanged: 0/0
   927 ;; Data sizes:     COMRAM   BANK5   BANK6   BANK7   BANK8   BANK9  BANK10  BANK11  BANK12  BANK13  BANK14  BANK15  BANK1
      +6  BANK17  BANK18  BANK19  BANK20  BANK21  BANK22  BANK23  BANK24  BANK25  BANK26  BANK27  BANK28  BANK29  BANK30  BANK3
      +1  BANK32  BANK33  BANK34  BANK35  BANK36  BANK37
   928 ;;      Params:         0       0       0       0       0       0       0       0       0       0       0       0       
      +0       0       0       0       0       0       0       0       0       0       0       0       0       0       0       
      +0       0       0       0       0       0       0
   929 ;;      Locals:         0       0       0       0       0       0       0       0       0       0       0       0       
      +0       0       0       0       0       0       0       0       0       0       0       0       0       0       0       
      +0       0       0       0       0       0       0
   930 ;;      Temps:          0       0       0       0       0       0       0       0       0       0       0       0       
      +0       0       0       0       0       0       0       0       0       0       0       0       0       0       0       
      +0       0       0       0       0       0       0
   931 ;;      Totals:         0       0       0       0       0       0       0       0       0       0       0       0       
      +0       0       0       0       0       0       0       0       0       0       0       0       0       0       0       
      +0       0       0       0       0       0       0
   932 ;;Total ram usage:        0 bytes
   933 ;; Hardware stack levels used: 1
   934 ;; This function calls:
   935 ;;		Nothing
   936 ;; This function is called by:
   937 ;;		Interrupt level 2
   938 ;; This function uses a non-reentrant model
   939 ;;
   940                           
   941                           	psect	text8
   942  00102C                     __ptext8:
   943                           	callstack 0
   944  00102C                     _Default_ISR:
   945                           	callstack 123
   946  00102C  0011               	retfie		f
   947  00102E                     __end_of_Default_ISR:
   948                           	callstack 0
   949                           
   950 ;; *************** function _TMR0_ISR *****************
   951 ;; Defined at:
   952 ;;		line 122 in file "mcc_generated_files/tmr0.c"
   953 ;; Parameters:    Size  Location     Type
   954 ;;		None
   955 ;; Auto vars:     Size  Location     Type
   956 ;;		None
   957 ;; Return value:  Size  Location     Type
   958 ;;                  1    wreg      void 
   959 ;; Registers used:
   960 ;;		wreg, status,2, status,0, pclath, tosl, cstack
   961 ;; Tracked objects:
   962 ;;		On entry : 0/0
   963 ;;		On exit  : 0/0
   964 ;;		Unchanged: 0/0
   965 ;; Data sizes:     COMRAM   BANK5   BANK6   BANK7   BANK8   BANK9  BANK10  BANK11  BANK12  BANK13  BANK14  BANK15  BANK1
      +6  BANK17  BANK18  BANK19  BANK20  BANK21  BANK22  BANK23  BANK24  BANK25  BANK26  BANK27  BANK28  BANK29  BANK30  BANK3
      +1  BANK32  BANK33  BANK34  BANK35  BANK36  BANK37
   966 ;;      Params:         0       0       0       0       0       0       0       0       0       0       0       0       
      +0       0       0       0       0       0       0       0       0       0       0       0       0       0       0       
      +0       0       0       0       0       0       0
   967 ;;      Locals:         0       0       0       0       0       0       0       0       0       0       0       0       
      +0       0       0       0       0       0       0       0       0       0       0       0       0       0       0       
      +0       0       0       0       0       0       0
   968 ;;      Temps:          0       0       0       0       0       0       0       0       0       0       0       0       
      +0       0       0       0       0       0       0       0       0       0       0       0       0       0       0       
      +0       0       0       0       0       0       0
   969 ;;      Totals:         0       0       0       0       0       0       0       0       0       0       0       0       
      +0       0       0       0       0       0       0       0       0       0       0       0       0       0       0       
      +0       0       0       0       0       0       0
   970 ;;Total ram usage:        0 bytes
   971 ;; Hardware stack levels used: 1
   972 ;; Hardware stack levels required when called: 2
   973 ;; This function calls:
   974 ;;		_TMR0_CallBack
   975 ;; This function is called by:
   976 ;;		Interrupt level 2
   977 ;; This function uses a non-reentrant model
   978 ;;
   979                           
   980                           	psect	text9
   981  000F3C                     __ptext9:
   982                           	callstack 0
   983  000F3C                     _TMR0_ISR:
   984                           	callstack 121
   985  000F3C                     
   986                           ;mcc_generated_files/tmr0.c: 124:     static volatile uint16_t CountCallBack = 0;;mcc_ge
      +                          nerated_files/tmr0.c: 127:     PIR3bits.TMR0IF = 0;
   987  000F3C  9EB1               	bcf	177,7,c	;volatile
   988  000F3E                     
   989                           ;mcc_generated_files/tmr0.c: 129:     if (++CountCallBack >= 500)
   990  000F3E  4A08               	infsnz	TMR0_ISR@CountCallBack^(0+1280),f,c	;volatile
   991  000F40  2A09               	incf	(TMR0_ISR@CountCallBack+1)^(0+1280),f,c	;volatile
   992  000F42  0EF4               	movlw	244
   993  000F44  5C08               	subwf	TMR0_ISR@CountCallBack^(0+1280),w,c	;volatile
   994  000F46  0E01               	movlw	1
   995  000F48  5809               	subwfb	(TMR0_ISR@CountCallBack+1)^(0+1280),w,c	;volatile
   996  000F4A  A0D8               	btfss	status,0,c
   997  000F4C  EFAA  F007         	goto	i2u5_41
   998  000F50  EFAC  F007         	goto	i2u5_40
   999  000F54                     i2u5_41:
  1000  000F54  EFB2  F007         	goto	i2l217
  1001  000F58                     i2u5_40:
  1002  000F58                     
  1003                           ;mcc_generated_files/tmr0.c: 130:     {;mcc_generated_files/tmr0.c: 132:         TMR0_Ca
      +                          llBack();
  1004  000F58  EC71  F007         	call	_TMR0_CallBack	;wreg free
  1005  000F5C                     
  1006                           ;mcc_generated_files/tmr0.c: 135:         CountCallBack = 0;
  1007  000F5C  0E00               	movlw	0
  1008  000F5E  6E09               	movwf	(TMR0_ISR@CountCallBack+1)^(0+1280),c	;volatile
  1009  000F60  0E00               	movlw	0
  1010  000F62  6E08               	movwf	TMR0_ISR@CountCallBack^(0+1280),c	;volatile
  1011  000F64                     i2l217:
  1012  000F64  0011               	retfie		f
  1013  000F66                     __end_of_TMR0_ISR:
  1014                           	callstack 0
  1015                           
  1016 ;; *************** function _TMR0_CallBack *****************
  1017 ;; Defined at:
  1018 ;;		line 141 in file "mcc_generated_files/tmr0.c"
  1019 ;; Parameters:    Size  Location     Type
  1020 ;;		None
  1021 ;; Auto vars:     Size  Location     Type
  1022 ;;		None
  1023 ;; Return value:  Size  Location     Type
  1024 ;;                  1    wreg      void 
  1025 ;; Registers used:
  1026 ;;		wreg, status,2, status,0, pclath, tosl, cstack
  1027 ;; Tracked objects:
  1028 ;;		On entry : 0/0
  1029 ;;		On exit  : 0/0
  1030 ;;		Unchanged: 0/0
  1031 ;; Data sizes:     COMRAM   BANK5   BANK6   BANK7   BANK8   BANK9  BANK10  BANK11  BANK12  BANK13  BANK14  BANK15  BANK1
      +6  BANK17  BANK18  BANK19  BANK20  BANK21  BANK22  BANK23  BANK24  BANK25  BANK26  BANK27  BANK28  BANK29  BANK30  BANK3
      +1  BANK32  BANK33  BANK34  BANK35  BANK36  BANK37
  1032 ;;      Params:         0       0       0       0       0       0       0       0       0       0       0       0       
      +0       0       0       0       0       0       0       0       0       0       0       0       0       0       0       
      +0       0       0       0       0       0       0
  1033 ;;      Locals:         0       0       0       0       0       0       0       0       0       0       0       0       
      +0       0       0       0       0       0       0       0       0       0       0       0       0       0       0       
      +0       0       0       0       0       0       0
  1034 ;;      Temps:          0       0       0       0       0       0       0       0       0       0       0       0       
      +0       0       0       0       0       0       0       0       0       0       0       0       0       0       0       
      +0       0       0       0       0       0       0
  1035 ;;      Totals:         0       0       0       0       0       0       0       0       0       0       0       0       
      +0       0       0       0       0       0       0       0       0       0       0       0       0       0       0       
      +0       0       0       0       0       0       0
  1036 ;;Total ram usage:        0 bytes
  1037 ;; Hardware stack levels used: 1
  1038 ;; Hardware stack levels required when called: 1
  1039 ;; This function calls:
  1040 ;;		Absolute function
  1041 ;;		_TMR0_DefaultInterruptHandler
  1042 ;;		_TMR0_UserInterruptHandler
  1043 ;; This function is called by:
  1044 ;;		_TMR0_ISR
  1045 ;; This function uses a non-reentrant model
  1046 ;;
  1047                           
  1048                           	psect	text10
  1049  000EE2                     __ptext10:
  1050                           	callstack 0
  1051  000EE2                     _TMR0_CallBack:
  1052                           	callstack 121
  1053  000EE2                     
  1054                           ;mcc_generated_files/tmr0.c: 145:     if(TMR0_InterruptHandler)
  1055  000EE2  5005               	movf	_TMR0_InterruptHandler^(0+1280),w,c
  1056  000EE4  1006               	iorwf	(_TMR0_InterruptHandler+1)^(0+1280),w,c
  1057  000EE6  1007               	iorwf	(_TMR0_InterruptHandler+2)^(0+1280),w,c
  1058  000EE8  B4D8               	btfsc	status,2,c
  1059  000EEA  EF79  F007         	goto	i2u3_41
  1060  000EEE  EF7B  F007         	goto	i2u3_40
  1061  000EF2                     i2u3_41:
  1062  000EF2  EF88  F007         	goto	i2l221
  1063  000EF6                     i2u3_40:
  1064  000EF6                     
  1065                           ;mcc_generated_files/tmr0.c: 146:     {;mcc_generated_files/tmr0.c: 147:         TMR0_In
      +                          terruptHandler();
  1066  000EF6  D802               	call	i2u4_48
  1067  000EF8  EF88  F007         	goto	i2u4_49
  1068  000EFC                     i2u4_48:
  1069  000EFC  0005               	push	
  1070  000EFE  6EFA               	movwf	pclath,c
  1071  000F00  5005               	movf	_TMR0_InterruptHandler^(0+1280),w,c
  1072  000F02  6EFD               	movwf	tosl,c
  1073  000F04  5006               	movf	(_TMR0_InterruptHandler+1)^(0+1280),w,c
  1074  000F06  6EFE               	movwf	tosh,c
  1075  000F08  5007               	movf	(_TMR0_InterruptHandler+2)^(0+1280),w,c
  1076  000F0A  6EFF               	movwf	tosu,c
  1077  000F0C  50FA               	movf	pclath,w,c
  1078  000F0E  0012               	return		;indir
  1079  000F10                     i2u4_49:
  1080  000F10                     i2l221:
  1081  000F10  0012               	return		;funcret
  1082  000F12                     __end_of_TMR0_CallBack:
  1083                           	callstack 0
  1084                           
  1085 ;; *************** function _TMR0_DefaultInterruptHandler *****************
  1086 ;; Defined at:
  1087 ;;		line 155 in file "mcc_generated_files/tmr0.c"
  1088 ;; Parameters:    Size  Location     Type
  1089 ;;		None
  1090 ;; Auto vars:     Size  Location     Type
  1091 ;;		None
  1092 ;; Return value:  Size  Location     Type
  1093 ;;                  1    wreg      void 
  1094 ;; Registers used:
  1095 ;;		None
  1096 ;; Tracked objects:
  1097 ;;		On entry : 0/0
  1098 ;;		On exit  : 0/0
  1099 ;;		Unchanged: 0/0
  1100 ;; Data sizes:     COMRAM   BANK5   BANK6   BANK7   BANK8   BANK9  BANK10  BANK11  BANK12  BANK13  BANK14  BANK15  BANK1
      +6  BANK17  BANK18  BANK19  BANK20  BANK21  BANK22  BANK23  BANK24  BANK25  BANK26  BANK27  BANK28  BANK29  BANK30  BANK3
      +1  BANK32  BANK33  BANK34  BANK35  BANK36  BANK37
  1101 ;;      Params:         0       0       0       0       0       0       0       0       0       0       0       0       
      +0       0       0       0       0       0       0       0       0       0       0       0       0       0       0       
      +0       0       0       0       0       0       0
  1102 ;;      Locals:         0       0       0       0       0       0       0       0       0       0       0       0       
      +0       0       0       0       0       0       0       0       0       0       0       0       0       0       0       
      +0       0       0       0       0       0       0
  1103 ;;      Temps:          0       0       0       0       0       0       0       0       0       0       0       0       
      +0       0       0       0       0       0       0       0       0       0       0       0       0       0       0       
      +0       0       0       0       0       0       0
  1104 ;;      Totals:         0       0       0       0       0       0       0       0       0       0       0       0       
      +0       0       0       0       0       0       0       0       0       0       0       0       0       0       0       
      +0       0       0       0       0       0       0
  1105 ;;Total ram usage:        0 bytes
  1106 ;; Hardware stack levels used: 1
  1107 ;; This function calls:
  1108 ;;		Nothing
  1109 ;; This function is called by:
  1110 ;;		_TMR0_Initialize
  1111 ;;		_TMR0_CallBack
  1112 ;; This function uses a non-reentrant model
  1113 ;;
  1114                           
  1115                           	psect	text11
  1116  00102E                     __ptext11:
  1117                           	callstack 0
  1118  00102E                     _TMR0_DefaultInterruptHandler:
  1119                           	callstack 121
  1120  00102E  0012               	return		;funcret
  1121  001030                     __end_of_TMR0_DefaultInterruptHandler:
  1122                           	callstack 0
  1123                           
  1124 ;; *************** function _TMR0_UserInterruptHandler *****************
  1125 ;; Defined at:
  1126 ;;		line 46 in file "main.c"
  1127 ;; Parameters:    Size  Location     Type
  1128 ;;		None
  1129 ;; Auto vars:     Size  Location     Type
  1130 ;;		None
  1131 ;; Return value:  Size  Location     Type
  1132 ;;                  1    wreg      void 
  1133 ;; Registers used:
  1134 ;;		wreg, status,2, status,0
  1135 ;; Tracked objects:
  1136 ;;		On entry : 0/0
  1137 ;;		On exit  : 0/0
  1138 ;;		Unchanged: 0/0
  1139 ;; Data sizes:     COMRAM   BANK5   BANK6   BANK7   BANK8   BANK9  BANK10  BANK11  BANK12  BANK13  BANK14  BANK15  BANK1
      +6  BANK17  BANK18  BANK19  BANK20  BANK21  BANK22  BANK23  BANK24  BANK25  BANK26  BANK27  BANK28  BANK29  BANK30  BANK3
      +1  BANK32  BANK33  BANK34  BANK35  BANK36  BANK37
  1140 ;;      Params:         0       0       0       0       0       0       0       0       0       0       0       0       
      +0       0       0       0       0       0       0       0       0       0       0       0       0       0       0       
      +0       0       0       0       0       0       0
  1141 ;;      Locals:         0       0       0       0       0       0       0       0       0       0       0       0       
      +0       0       0       0       0       0       0       0       0       0       0       0       0       0       0       
      +0       0       0       0       0       0       0
  1142 ;;      Temps:          1       0       0       0       0       0       0       0       0       0       0       0       
      +0       0       0       0       0       0       0       0       0       0       0       0       0       0       0       
      +0       0       0       0       0       0       0
  1143 ;;      Totals:         1       0       0       0       0       0       0       0       0       0       0       0       
      +0       0       0       0       0       0       0       0       0       0       0       0       0       0       0       
      +0       0       0       0       0       0       0
  1144 ;;Total ram usage:        1 bytes
  1145 ;; Hardware stack levels used: 1
  1146 ;; This function calls:
  1147 ;;		Nothing
  1148 ;; This function is called by:
  1149 ;;		_main
  1150 ;;		_TMR0_CallBack
  1151 ;; This function uses a non-reentrant model
  1152 ;;
  1153                           
  1154                           	psect	text12
  1155  000F66                     __ptext12:
  1156                           	callstack 0
  1157  000F66                     _TMR0_UserInterruptHandler:
  1158                           	callstack 121
  1159  000F66  B6C3               	btfsc	195,3,c	;volatile
  1160  000F68  EFB8  F007         	goto	i2u2_41
  1161  000F6C  EFBB  F007         	goto	i2u2_40
  1162  000F70                     i2u2_41:
  1163  000F70  0E01               	movlw	1
  1164  000F72  EFBC  F007         	goto	i2u2_46
  1165  000F76                     i2u2_40:
  1166  000F76  0E00               	movlw	0
  1167  000F78                     i2u2_46:
  1168  000F78  0AFF               	xorlw	255
  1169  000F7A  6E01               	movwf	??_TMR0_UserInterruptHandler^(0+1280),c
  1170  000F7C  4601               	rlncf	??_TMR0_UserInterruptHandler^(0+1280),f,c
  1171  000F7E  4601               	rlncf	??_TMR0_UserInterruptHandler^(0+1280),f,c
  1172  000F80  4601               	rlncf	??_TMR0_UserInterruptHandler^(0+1280),f,c
  1173  000F82  50C3               	movf	195,w,c	;volatile
  1174  000F84  1801               	xorwf	??_TMR0_UserInterruptHandler^(0+1280),w,c
  1175  000F86  0BF7               	andlw	-9
  1176  000F88  1801               	xorwf	??_TMR0_UserInterruptHandler^(0+1280),w,c
  1177  000F8A  6EC3               	movwf	195,c	;volatile
  1178  000F8C  0012               	return		;funcret
  1179  000F8E                     __end_of_TMR0_UserInterruptHandler:
  1180                           	callstack 0
  1181                           
  1182                           ;
  1183                           ; Interrupt Vector Table @ 0xD08
  1184                           ;
  1185                           
  1186                           	psect	ivt0xD08
  1187  000D08                     __pivt0xD08:
  1188                           	callstack 0
  1189  000D08                     ivt0xD08_base:
  1190                           	callstack 0
  1191                           
  1192                           ; Vector 0 : SWINT
  1193  000D08  040B               	dw	_Default_ISR shr (0+2)
  1194                           
  1195                           ; Vector 1 : HLVD
  1196  000D0A  040B               	dw	_Default_ISR shr (0+2)
  1197                           
  1198                           ; Vector 2 : OSF
  1199  000D0C  040B               	dw	_Default_ISR shr (0+2)
  1200                           
  1201                           ; Vector 3 : CSW
  1202  000D0E  040B               	dw	_Default_ISR shr (0+2)
  1203                           
  1204                           ; Vector 4 : Undefined
  1205  000D10  0380               	dw	ivt0xD08_undefint shr (0+2)
  1206                           
  1207                           ; Vector 5 : CLC1
  1208  000D12  040B               	dw	_Default_ISR shr (0+2)
  1209                           
  1210                           ; Vector 6 : Undefined
  1211  000D14  0380               	dw	ivt0xD08_undefint shr (0+2)
  1212                           
  1213                           ; Vector 7 : IOC
  1214  000D16  040B               	dw	_Default_ISR shr (0+2)
  1215                           
  1216                           ; Vector 8 : INT0
  1217  000D18  040B               	dw	_Default_ISR shr (0+2)
  1218                           
  1219                           ; Vector 9 : ZCD
  1220  000D1A  040B               	dw	_Default_ISR shr (0+2)
  1221                           
  1222                           ; Vector 10 : AD
  1223  000D1C  040B               	dw	_Default_ISR shr (0+2)
  1224                           
  1225                           ; Vector 11 : ACT
  1226  000D1E  040B               	dw	_Default_ISR shr (0+2)
  1227                           
  1228                           ; Vector 12 : CMP1
  1229  000D20  040B               	dw	_Default_ISR shr (0+2)
  1230                           
  1231                           ; Vector 13 : SMT1
  1232  000D22  040B               	dw	_Default_ISR shr (0+2)
  1233                           
  1234                           ; Vector 14 : SMT1PRA
  1235  000D24  040B               	dw	_Default_ISR shr (0+2)
  1236                           
  1237                           ; Vector 15 : SMT1PRW
  1238  000D26  040B               	dw	_Default_ISR shr (0+2)
  1239                           
  1240                           ; Vector 16 : ADT
  1241  000D28  040B               	dw	_Default_ISR shr (0+2)
  1242                           
  1243                           ; Vector 17 : Undefined
  1244  000D2A  0380               	dw	ivt0xD08_undefint shr (0+2)
  1245                           
  1246                           ; Vector 18 : Undefined
  1247  000D2C  0380               	dw	ivt0xD08_undefint shr (0+2)
  1248                           
  1249                           ; Vector 19 : Undefined
  1250  000D2E  0380               	dw	ivt0xD08_undefint shr (0+2)
  1251                           
  1252                           ; Vector 20 : DMA1SCNT
  1253  000D30  040B               	dw	_Default_ISR shr (0+2)
  1254                           
  1255                           ; Vector 21 : DMA1DCNT
  1256  000D32  040B               	dw	_Default_ISR shr (0+2)
  1257                           
  1258                           ; Vector 22 : DMA1OR
  1259  000D34  040B               	dw	_Default_ISR shr (0+2)
  1260                           
  1261                           ; Vector 23 : DMA1A
  1262  000D36  040B               	dw	_Default_ISR shr (0+2)
  1263                           
  1264                           ; Vector 24 : SPI1RX
  1265  000D38  040B               	dw	_Default_ISR shr (0+2)
  1266                           
  1267                           ; Vector 25 : SPI1TX
  1268  000D3A  040B               	dw	_Default_ISR shr (0+2)
  1269                           
  1270                           ; Vector 26 : SPI1
  1271  000D3C  040B               	dw	_Default_ISR shr (0+2)
  1272                           
  1273                           ; Vector 27 : TMR2
  1274  000D3E  040B               	dw	_Default_ISR shr (0+2)
  1275                           
  1276                           ; Vector 28 : TMR1
  1277  000D40  040B               	dw	_Default_ISR shr (0+2)
  1278                           
  1279                           ; Vector 29 : TMR1G
  1280  000D42  040B               	dw	_Default_ISR shr (0+2)
  1281                           
  1282                           ; Vector 30 : CCP1
  1283  000D44  040B               	dw	_Default_ISR shr (0+2)
  1284                           
  1285                           ; Vector 31 : TMR0
  1286  000D46  03CF               	dw	_TMR0_ISR shr (0+2)
  1287                           
  1288                           ; Vector 32 : U1RX
  1289  000D48  040B               	dw	_Default_ISR shr (0+2)
  1290                           
  1291                           ; Vector 33 : U1TX
  1292  000D4A  040B               	dw	_Default_ISR shr (0+2)
  1293                           
  1294                           ; Vector 34 : U1E
  1295  000D4C  040B               	dw	_Default_ISR shr (0+2)
  1296                           
  1297                           ; Vector 35 : U1
  1298  000D4E  040B               	dw	_Default_ISR shr (0+2)
  1299                           
  1300                           ; Vector 36 : Undefined
  1301  000D50  0380               	dw	ivt0xD08_undefint shr (0+2)
  1302                           
  1303                           ; Vector 37 : Undefined
  1304  000D52  0380               	dw	ivt0xD08_undefint shr (0+2)
  1305                           
  1306                           ; Vector 38 : PWM1PR
  1307  000D54  040B               	dw	_Default_ISR shr (0+2)
  1308                           
  1309                           ; Vector 39 : PWM1
  1310  000D56  040B               	dw	_Default_ISR shr (0+2)
  1311                           
  1312                           ; Vector 40 : SPI2RX
  1313  000D58  040B               	dw	_Default_ISR shr (0+2)
  1314                           
  1315                           ; Vector 41 : SPI2TX
  1316  000D5A  040B               	dw	_Default_ISR shr (0+2)
  1317                           
  1318                           ; Vector 42 : SPI2
  1319  000D5C  040B               	dw	_Default_ISR shr (0+2)
  1320                           
  1321                           ; Vector 43 : Undefined
  1322  000D5E  0380               	dw	ivt0xD08_undefint shr (0+2)
  1323                           
  1324                           ; Vector 44 : TMR3
  1325  000D60  040B               	dw	_Default_ISR shr (0+2)
  1326                           
  1327                           ; Vector 45 : TMR3G
  1328  000D62  040B               	dw	_Default_ISR shr (0+2)
  1329                           
  1330                           ; Vector 46 : PWM2PR
  1331  000D64  040B               	dw	_Default_ISR shr (0+2)
  1332                           
  1333                           ; Vector 47 : PWM2
  1334  000D66  040B               	dw	_Default_ISR shr (0+2)
  1335                           
  1336                           ; Vector 48 : INT1
  1337  000D68  040B               	dw	_Default_ISR shr (0+2)
  1338                           
  1339                           ; Vector 49 : CLC2
  1340  000D6A  040B               	dw	_Default_ISR shr (0+2)
  1341                           
  1342                           ; Vector 50 : CWG1
  1343  000D6C  040B               	dw	_Default_ISR shr (0+2)
  1344                           
  1345                           ; Vector 51 : NCO1
  1346  000D6E  040B               	dw	_Default_ISR shr (0+2)
  1347                           
  1348                           ; Vector 52 : DMA2SCNT
  1349  000D70  040B               	dw	_Default_ISR shr (0+2)
  1350                           
  1351                           ; Vector 53 : DMA2DCNT
  1352  000D72  040B               	dw	_Default_ISR shr (0+2)
  1353                           
  1354                           ; Vector 54 : DMA2OR
  1355  000D74  040B               	dw	_Default_ISR shr (0+2)
  1356                           
  1357                           ; Vector 55 : DMA2A
  1358  000D76  040B               	dw	_Default_ISR shr (0+2)
  1359                           
  1360                           ; Vector 56 : I2C1RX
  1361  000D78  040B               	dw	_Default_ISR shr (0+2)
  1362                           
  1363                           ; Vector 57 : I2C1TX
  1364  000D7A  040B               	dw	_Default_ISR shr (0+2)
  1365                           
  1366                           ; Vector 58 : I2C1
  1367  000D7C  040B               	dw	_Default_ISR shr (0+2)
  1368                           
  1369                           ; Vector 59 : I2C1E
  1370  000D7E  040B               	dw	_Default_ISR shr (0+2)
  1371                           
  1372                           ; Vector 60 : Undefined
  1373  000D80  0380               	dw	ivt0xD08_undefint shr (0+2)
  1374                           
  1375                           ; Vector 61 : CLC3
  1376  000D82  040B               	dw	_Default_ISR shr (0+2)
  1377                           
  1378                           ; Vector 62 : PWM3PR
  1379  000D84  040B               	dw	_Default_ISR shr (0+2)
  1380                           
  1381                           ; Vector 63 : PWM3
  1382  000D86  040B               	dw	_Default_ISR shr (0+2)
  1383                           
  1384                           ; Vector 64 : U2RX
  1385  000D88  040B               	dw	_Default_ISR shr (0+2)
  1386                           
  1387                           ; Vector 65 : U2TX
  1388  000D8A  040B               	dw	_Default_ISR shr (0+2)
  1389                           
  1390                           ; Vector 66 : U2E
  1391  000D8C  040B               	dw	_Default_ISR shr (0+2)
  1392                           
  1393                           ; Vector 67 : U2
  1394  000D8E  040B               	dw	_Default_ISR shr (0+2)
  1395                           
  1396                           ; Vector 68 : TMR5
  1397  000D90  040B               	dw	_Default_ISR shr (0+2)
  1398                           
  1399                           ; Vector 69 : TMR5G
  1400  000D92  040B               	dw	_Default_ISR shr (0+2)
  1401                           
  1402                           ; Vector 70 : CCP2
  1403  000D94  040B               	dw	_Default_ISR shr (0+2)
  1404                           
  1405                           ; Vector 71 : SCAN
  1406  000D96  040B               	dw	_Default_ISR shr (0+2)
  1407                           
  1408                           ; Vector 72 : U3RX
  1409  000D98  040B               	dw	_Default_ISR shr (0+2)
  1410                           
  1411                           ; Vector 73 : U3TX
  1412  000D9A  040B               	dw	_Default_ISR shr (0+2)
  1413                           
  1414                           ; Vector 74 : U3E
  1415  000D9C  040B               	dw	_Default_ISR shr (0+2)
  1416                           
  1417                           ; Vector 75 : U3
  1418  000D9E  040B               	dw	_Default_ISR shr (0+2)
  1419                           
  1420                           ; Vector 76 : Undefined
  1421  000DA0  0380               	dw	ivt0xD08_undefint shr (0+2)
  1422                           
  1423                           ; Vector 77 : CLC4
  1424  000DA2  040B               	dw	_Default_ISR shr (0+2)
  1425                           
  1426                           ; Vector 78 : Undefined
  1427  000DA4  0380               	dw	ivt0xD08_undefint shr (0+2)
  1428                           
  1429                           ; Vector 79 : Undefined
  1430  000DA6  0380               	dw	ivt0xD08_undefint shr (0+2)
  1431                           
  1432                           ; Vector 80 : INT2
  1433  000DA8  040B               	dw	_Default_ISR shr (0+2)
  1434                           
  1435                           ; Vector 81 : CLC5
  1436  000DAA  040B               	dw	_Default_ISR shr (0+2)
  1437                           
  1438                           ; Vector 82 : CWG2
  1439  000DAC  040B               	dw	_Default_ISR shr (0+2)
  1440                           
  1441                           ; Vector 83 : NCO2
  1442  000DAE  040B               	dw	_Default_ISR shr (0+2)
  1443                           
  1444                           ; Vector 84 : DMA3SCNT
  1445  000DB0  040B               	dw	_Default_ISR shr (0+2)
  1446                           
  1447                           ; Vector 85 : DMA3DCNT
  1448  000DB2  040B               	dw	_Default_ISR shr (0+2)
  1449                           
  1450                           ; Vector 86 : DMA3OR
  1451  000DB4  040B               	dw	_Default_ISR shr (0+2)
  1452                           
  1453                           ; Vector 87 : DMA3A
  1454  000DB6  040B               	dw	_Default_ISR shr (0+2)
  1455                           
  1456                           ; Vector 88 : CCP3
  1457  000DB8  040B               	dw	_Default_ISR shr (0+2)
  1458                           
  1459                           ; Vector 89 : CLC6
  1460  000DBA  040B               	dw	_Default_ISR shr (0+2)
  1461                           
  1462                           ; Vector 90 : CWG3
  1463  000DBC  040B               	dw	_Default_ISR shr (0+2)
  1464                           
  1465                           ; Vector 91 : TMR4
  1466  000DBE  040B               	dw	_Default_ISR shr (0+2)
  1467                           
  1468                           ; Vector 92 : DMA4SCNT
  1469  000DC0  040B               	dw	_Default_ISR shr (0+2)
  1470                           
  1471                           ; Vector 93 : DMA4DCNT
  1472  000DC2  040B               	dw	_Default_ISR shr (0+2)
  1473                           
  1474                           ; Vector 94 : DMA4OR
  1475  000DC4  040B               	dw	_Default_ISR shr (0+2)
  1476                           
  1477                           ; Vector 95 : DMA4A
  1478  000DC6  040B               	dw	_Default_ISR shr (0+2)
  1479                           
  1480                           ; Vector 96 : U4RX
  1481  000DC8  040B               	dw	_Default_ISR shr (0+2)
  1482                           
  1483                           ; Vector 97 : U4TX
  1484  000DCA  040B               	dw	_Default_ISR shr (0+2)
  1485                           
  1486                           ; Vector 98 : U4E
  1487  000DCC  040B               	dw	_Default_ISR shr (0+2)
  1488                           
  1489                           ; Vector 99 : U4
  1490  000DCE  040B               	dw	_Default_ISR shr (0+2)
  1491                           
  1492                           ; Vector 100 : DMA5SCNT
  1493  000DD0  040B               	dw	_Default_ISR shr (0+2)
  1494                           
  1495                           ; Vector 101 : DMA5DCNT
  1496  000DD2  040B               	dw	_Default_ISR shr (0+2)
  1497                           
  1498                           ; Vector 102 : DMA5OR
  1499  000DD4  040B               	dw	_Default_ISR shr (0+2)
  1500                           
  1501                           ; Vector 103 : DMA5A
  1502  000DD6  040B               	dw	_Default_ISR shr (0+2)
  1503                           
  1504                           ; Vector 104 : U5RX
  1505  000DD8  040B               	dw	_Default_ISR shr (0+2)
  1506                           
  1507                           ; Vector 105 : U5TX
  1508  000DDA  040B               	dw	_Default_ISR shr (0+2)
  1509                           
  1510                           ; Vector 106 : U5E
  1511  000DDC  040B               	dw	_Default_ISR shr (0+2)
  1512                           
  1513                           ; Vector 107 : U5
  1514  000DDE  040B               	dw	_Default_ISR shr (0+2)
  1515                           
  1516                           ; Vector 108 : DMA6SCNT
  1517  000DE0  040B               	dw	_Default_ISR shr (0+2)
  1518                           
  1519                           ; Vector 109 : DMA6DCNT
  1520  000DE2  040B               	dw	_Default_ISR shr (0+2)
  1521                           
  1522                           ; Vector 110 : DMA6OR
  1523  000DE4  040B               	dw	_Default_ISR shr (0+2)
  1524                           
  1525                           ; Vector 111 : DMA6A
  1526  000DE6  040B               	dw	_Default_ISR shr (0+2)
  1527                           
  1528                           ; Vector 112 : Undefined
  1529  000DE8  0380               	dw	ivt0xD08_undefint shr (0+2)
  1530                           
  1531                           ; Vector 113 : CLC7
  1532  000DEA  040B               	dw	_Default_ISR shr (0+2)
  1533                           
  1534                           ; Vector 114 : CMP2
  1535  000DEC  040B               	dw	_Default_ISR shr (0+2)
  1536                           
  1537                           ; Vector 115 : NCO3
  1538  000DEE  040B               	dw	_Default_ISR shr (0+2)
  1539                           
  1540                           ; Vector 116 : Undefined
  1541  000DF0  0380               	dw	ivt0xD08_undefint shr (0+2)
  1542                           
  1543                           ; Vector 117 : Undefined
  1544  000DF2  0380               	dw	ivt0xD08_undefint shr (0+2)
  1545                           
  1546                           ; Vector 118 : Undefined
  1547  000DF4  0380               	dw	ivt0xD08_undefint shr (0+2)
  1548                           
  1549                           ; Vector 119 : Undefined
  1550  000DF6  0380               	dw	ivt0xD08_undefint shr (0+2)
  1551                           
  1552                           ; Vector 120 : NVM
  1553  000DF8  040B               	dw	_Default_ISR shr (0+2)
  1554                           
  1555                           ; Vector 121 : CLC8
  1556  000DFA  040B               	dw	_Default_ISR shr (0+2)
  1557                           
  1558                           ; Vector 122 : CRC
  1559  000DFC  040B               	dw	_Default_ISR shr (0+2)
  1560                           
  1561                           ; Vector 123 : TMR6
  1562  000DFE  040B               	dw	_Default_ISR shr (0+2)
  1563  000E00                     ivt0xD08_undefint:
  1564                           	callstack 0
  1565  000E00  00FF               	reset	
  1566  0000                     
  1567                           	psect	text13
  1568  000000                     __ptext13:
  1569                           	callstack 0
  1570  000000                     
  1571                           	psect	rparam
  1572  0000                     
  1573                           	psect	idloc
  1574                           
  1575                           ;Config register IDLOC0 @ 0x200000
  1576                           ;	unspecified, using default values
  1577  200000                     	org	2097152
  1578  200000  0FFF               	dw	4095
  1579                           
  1580                           ;Config register IDLOC1 @ 0x200002
  1581                           ;	unspecified, using default values
  1582  200002                     	org	2097154
  1583  200002  0FFF               	dw	4095
  1584                           
  1585                           ;Config register IDLOC2 @ 0x200004
  1586                           ;	unspecified, using default values
  1587  200004                     	org	2097156
  1588  200004  0FFF               	dw	4095
  1589                           
  1590                           ;Config register IDLOC3 @ 0x200006
  1591                           ;	unspecified, using default values
  1592  200006                     	org	2097158
  1593  200006  0FFF               	dw	4095
  1594                           
  1595                           ;Config register IDLOC4 @ 0x200008
  1596                           ;	unspecified, using default values
  1597  200008                     	org	2097160
  1598  200008  0FFF               	dw	4095
  1599                           
  1600                           ;Config register IDLOC5 @ 0x20000A
  1601                           ;	unspecified, using default values
  1602  20000A                     	org	2097162
  1603  20000A  0FFF               	dw	4095
  1604                           
  1605                           ;Config register IDLOC6 @ 0x20000C
  1606                           ;	unspecified, using default values
  1607  20000C                     	org	2097164
  1608  20000C  0FFF               	dw	4095
  1609                           
  1610                           ;Config register IDLOC7 @ 0x20000E
  1611                           ;	unspecified, using default values
  1612  20000E                     	org	2097166
  1613  20000E  0FFF               	dw	4095
  1614                           
  1615                           ;Config register IDLOC8 @ 0x200010
  1616                           ;	unspecified, using default values
  1617  200010                     	org	2097168
  1618  200010  0FFF               	dw	4095
  1619                           
  1620                           ;Config register IDLOC9 @ 0x200012
  1621                           ;	unspecified, using default values
  1622  200012                     	org	2097170
  1623  200012  0FFF               	dw	4095
  1624                           
  1625                           ;Config register IDLOC10 @ 0x200014
  1626                           ;	unspecified, using default values
  1627  200014                     	org	2097172
  1628  200014  0FFF               	dw	4095
  1629                           
  1630                           ;Config register IDLOC11 @ 0x200016
  1631                           ;	unspecified, using default values
  1632  200016                     	org	2097174
  1633  200016  0FFF               	dw	4095
  1634                           
  1635                           ;Config register IDLOC12 @ 0x200018
  1636                           ;	unspecified, using default values
  1637  200018                     	org	2097176
  1638  200018  0FFF               	dw	4095
  1639                           
  1640                           ;Config register IDLOC13 @ 0x20001A
  1641                           ;	unspecified, using default values
  1642  20001A                     	org	2097178
  1643  20001A  0FFF               	dw	4095
  1644                           
  1645                           ;Config register IDLOC14 @ 0x20001C
  1646                           ;	unspecified, using default values
  1647  20001C                     	org	2097180
  1648  20001C  0FFF               	dw	4095
  1649                           
  1650                           ;Config register IDLOC15 @ 0x20001E
  1651                           ;	unspecified, using default values
  1652  20001E                     	org	2097182
  1653  20001E  0FFF               	dw	4095
  1654                           
  1655                           	psect	config
  1656                           
  1657                           ;Config register CONFIG1 @ 0x300000
  1658                           ;	External Oscillator Selection
  1659                           ;	FEXTOSC = OFF, Oscillator not enabled
  1660                           ;	Reset Oscillator Selection
  1661                           ;	RSTOSC = HFINTOSC_64MHZ, HFINTOSC with HFFRQ = 64 MHz and CDIV = 1:1
  1662  300000                     	org	3145728
  1663  300000  8C                 	db	140
  1664                           
  1665                           ;Config register CONFIG2 @ 0x300001
  1666                           ;	Clock out Enable bit
  1667                           ;	CLKOUTEN = OFF, CLKOUT function is disabled
  1668                           ;	PRLOCKED One-Way Set Enable bit
  1669                           ;	PR1WAY = ON, PRLOCKED bit can be cleared and set only once
  1670                           ;	Clock Switch Enable bit
  1671                           ;	CSWEN = ON, Writing to NOSC and NDIV is allowed
  1672                           ;	Fail-Safe Clock Monitor Enable bit
  1673                           ;	FCMEN = ON, Fail-Safe Clock Monitor enabled
  1674  300001                     	org	3145729
  1675  300001  FF                 	db	255
  1676                           
  1677                           ;Config register CONFIG3 @ 0x300002
  1678                           ;	MCLR Enable bit
  1679                           ;	MCLRE = EXTMCLR, If LVP = 0, MCLR pin is MCLR; If LVP = 1, RE3 pin function is MCLR
  1680                           ;	Power-up timer selection bits
  1681                           ;	PWRTS = PWRT_OFF, PWRT is disabled
  1682                           ;	Multi-vector enable bit
  1683                           ;	MVECEN = ON, Multi-vector enabled, Vector table used for interrupts
  1684                           ;	IVTLOCK bit One-way set enable bit
  1685                           ;	IVT1WAY = OFF, IVTLOCKED bit can be cleared and set repeatedly
  1686                           ;	Low Power BOR Enable bit
  1687                           ;	LPBOREN = OFF, Low-Power BOR disabled
  1688                           ;	Brown-out Reset Enable bits
  1689                           ;	BOREN = SBORDIS, Brown-out Reset enabled , SBOREN bit is ignored
  1690  300002                     	org	3145730
  1691  300002  EF                 	db	239
  1692                           
  1693                           ;Config register CONFIG4 @ 0x300003
  1694                           ;	Brown-out Reset Voltage Selection bits
  1695                           ;	BORV = VBOR_1P9, Brown-out Reset Voltage (VBOR) set to 1.9V
  1696                           ;	ZCD Disable bit
  1697                           ;	ZCD = OFF, ZCD module is disabled. ZCD can be enabled by setting the ZCDSEN bit of ZCD
      +                          CON
  1698                           ;	PPSLOCK bit One-Way Set Enable bit
  1699                           ;	PPS1WAY = ON, PPSLOCKED bit can be cleared and set only once; PPS registers remain loc
      +                          ked after one clear/set cycle
  1700                           ;	Stack Full/Underflow Reset Enable bit
  1701                           ;	STVREN = ON, Stack full/underflow will cause Reset
  1702                           ;	Low Voltage Programming Enable bit
  1703                           ;	LVP = ON, Low voltage programming enabled. MCLR/VPP pin function is MCLR. MCLRE config
      +                          uration bit is ignored
  1704                           ;	Extended Instruction Set Enable bit
  1705                           ;	XINST = OFF, Extended Instruction Set and Indexed Addressing Mode disabled
  1706  300003                     	org	3145731
  1707  300003  FF                 	db	255
  1708                           
  1709                           ;Config register CONFIG5 @ 0x300004
  1710                           ;	WDT Period selection bits
  1711                           ;	WDTCPS = WDTCPS_31, Divider ratio 1:65536; software control of WDTPS
  1712                           ;	WDT operating mode
  1713                           ;	WDTE = OFF, WDT Disabled; SWDTEN is ignored
  1714  300004                     	org	3145732
  1715  300004  9F                 	db	159
  1716                           
  1717                           ;Config register CONFIG6 @ 0x300005
  1718                           ;	WDT Window Select bits
  1719                           ;	WDTCWS = WDTCWS_7, window always open (100%); software control; keyed access not requi
      +                          red
  1720                           ;	WDT input clock selector
  1721                           ;	WDTCCS = SC, Software Control
  1722  300005                     	org	3145733
  1723  300005  FF                 	db	255
  1724                           
  1725                           ;Config register CONFIG7 @ 0x300006
  1726                           ;	Boot Block Size selection bits
  1727                           ;	BBSIZE = BBSIZE_512, Boot Block size is 512 words
  1728                           ;	Boot Block enable bit
  1729                           ;	BBEN = OFF, Boot block disabled
  1730                           ;	Storage Area Flash enable bit
  1731                           ;	SAFEN = OFF, SAF disabled
  1732                           ;	Background Debugger
  1733                           ;	DEBUG = OFF, Background Debugger disabled
  1734  300006                     	org	3145734
  1735  300006  FF                 	db	255
  1736                           
  1737                           ;Config register CONFIG8 @ 0x300007
  1738                           ;	Boot Block Write Protection bit
  1739                           ;	WRTB = OFF, Boot Block not Write protected
  1740                           ;	Configuration Register Write Protection bit
  1741                           ;	WRTC = OFF, Configuration registers not Write protected
  1742                           ;	Data EEPROM Write Protection bit
  1743                           ;	WRTD = OFF, Data EEPROM not Write protected
  1744                           ;	SAF Write protection bit
  1745                           ;	WRTSAF = OFF, SAF not Write Protected
  1746                           ;	Application Block write protection bit
  1747                           ;	WRTAPP = OFF, Application Block not write protected
  1748  300007                     	org	3145735
  1749  300007  FF                 	db	255
  1750                           
  1751                           ; Padding undefined space
  1752  300008                     	org	3145736
  1753  300008  FF                 	db	255
  1754                           
  1755                           ;Config register CONFIG10 @ 0x300009
  1756                           ;	PFM and Data EEPROM Code Protection bit
  1757                           ;	CP = OFF, PFM and Data EEPROM code protection disabled
  1758  300009                     	org	3145737
  1759  300009  FF                 	db	255
  1760                           tosu	equ	0x4FF
  1761                           tosh	equ	0x4FE
  1762                           tosl	equ	0x4FD
  1763                           stkptr	equ	0x4FC
  1764                           pclatu	equ	0x4FB
  1765                           pclath	equ	0x4FA
  1766                           pcl	equ	0x4F9
  1767                           tblptru	equ	0x4F8
  1768                           tblptrh	equ	0x4F7
  1769                           tblptrl	equ	0x4F6
  1770                           tablat	equ	0x4F5
  1771                           prodh	equ	0x4F4
  1772                           prodl	equ	0x4F3
  1773                           indf0	equ	0x4EF
  1774                           postinc0	equ	0x4EE
  1775                           postdec0	equ	0x4ED
  1776                           preinc0	equ	0x4EC
  1777                           plusw0	equ	0x4EB
  1778                           fsr0h	equ	0x4EA
  1779                           fsr0l	equ	0x4E9
  1780                           wreg	equ	0x4E8
  1781                           indf1	equ	0x4E7
  1782                           postinc1	equ	0x4E6
  1783                           postdec1	equ	0x4E5
  1784                           preinc1	equ	0x4E4
  1785                           plusw1	equ	0x4E3
  1786                           fsr1h	equ	0x4E2
  1787                           fsr1l	equ	0x4E1
  1788                           bsr	equ	0x4E0
  1789                           indf2	equ	0x4DF
  1790                           postinc2	equ	0x4DE
  1791                           postdec2	equ	0x4DD
  1792                           preinc2	equ	0x4DC
  1793                           plusw2	equ	0x4DB
  1794                           fsr2h	equ	0x4DA
  1795                           fsr2l	equ	0x4D9
  1796                           status	equ	0x4D8

Data Sizes:
    Strings     0
    Constant    0
    Data        0
    BSS         2
    Persistent  3
    Stack       0

Auto Spaces:
    Space          Size  Autos    Used
    COMRAM           95      4       9
    BANK5           160      0       0
    BANK6           256      0       0
    BANK7           256      0       0
    BANK8           256      0       0
    BANK9           256      0       0
    BANK10          256      0       0
    BANK11          256      0       0
    BANK12          256      0       0
    BANK13          256      0       0
    BANK14          256      0       0
    BANK15          256      0       0
    BANK16          256      0       0
    BANK17          256      0       0
    BANK18          256      0       0
    BANK19          256      0       0
    BANK20          256      0       0
    BANK21          256      0       0
    BANK22          256      0       0
    BANK23          256      0       0
    BANK24          256      0       0
    BANK25          256      0       0
    BANK26          256      0       0
    BANK27          256      0       0
    BANK28          256      0       0
    BANK29          256      0       0
    BANK30          256      0       0
    BANK31          256      0       0
    BANK32          256      0       0
    BANK33          256      0       0
    BANK34          256      0       0
    BANK35          256      0       0
    BANK36          256      0       0
    BANK37          256      0       0

Pointer List with Targets:

    TMR0_SetInterruptHandler@InterruptHandler	PTR FTN()void  size(3) Largest target is 1
		 -> TMR0_UserInterruptHandler(), TMR0_DefaultInterruptHandler(), 

    TMR0_InterruptHandler	PTR FTN()void  size(3) Largest target is 1
		 -> TMR0_UserInterruptHandler(), Absolute function(), TMR0_DefaultInterruptHandler(), 


Critical Paths under _main in COMRAM

    _main->_TMR0_SetInterruptHandler
    _TMR0_Initialize->_TMR0_SetInterruptHandler

Critical Paths under _Default_ISR in COMRAM

    None.

Critical Paths under _TMR0_ISR in COMRAM

    _TMR0_CallBack->_TMR0_UserInterruptHandler

Critical Paths under _main in BANK5

    None.

Critical Paths under _Default_ISR in BANK5

    None.

Critical Paths under _TMR0_ISR in BANK5

    None.

Critical Paths under _main in BANK6

    None.

Critical Paths under _Default_ISR in BANK6

    None.

Critical Paths under _TMR0_ISR in BANK6

    None.

Critical Paths under _main in BANK7

    None.

Critical Paths under _Default_ISR in BANK7

    None.

Critical Paths under _TMR0_ISR in BANK7

    None.

Critical Paths under _main in BANK8

    None.

Critical Paths under _Default_ISR in BANK8

    None.

Critical Paths under _TMR0_ISR in BANK8

    None.

Critical Paths under _main in BANK9

    None.

Critical Paths under _Default_ISR in BANK9

    None.

Critical Paths under _TMR0_ISR in BANK9

    None.

Critical Paths under _main in BANK10

    None.

Critical Paths under _Default_ISR in BANK10

    None.

Critical Paths under _TMR0_ISR in BANK10

    None.

Critical Paths under _main in BANK11

    None.

Critical Paths under _Default_ISR in BANK11

    None.

Critical Paths under _TMR0_ISR in BANK11

    None.

Critical Paths under _main in BANK12

    None.

Critical Paths under _Default_ISR in BANK12

    None.

Critical Paths under _TMR0_ISR in BANK12

    None.

Critical Paths under _main in BANK13

    None.

Critical Paths under _Default_ISR in BANK13

    None.

Critical Paths under _TMR0_ISR in BANK13

    None.

Critical Paths under _main in BANK14

    None.

Critical Paths under _Default_ISR in BANK14

    None.

Critical Paths under _TMR0_ISR in BANK14

    None.

Critical Paths under _main in BANK15

    None.

Critical Paths under _Default_ISR in BANK15

    None.

Critical Paths under _TMR0_ISR in BANK15

    None.

Critical Paths under _main in BANK16

    None.

Critical Paths under _Default_ISR in BANK16

    None.

Critical Paths under _TMR0_ISR in BANK16

    None.

Critical Paths under _main in BANK17

    None.

Critical Paths under _Default_ISR in BANK17

    None.

Critical Paths under _TMR0_ISR in BANK17

    None.

Critical Paths under _main in BANK18

    None.

Critical Paths under _Default_ISR in BANK18

    None.

Critical Paths under _TMR0_ISR in BANK18

    None.

Critical Paths under _main in BANK19

    None.

Critical Paths under _Default_ISR in BANK19

    None.

Critical Paths under _TMR0_ISR in BANK19

    None.

Critical Paths under _main in BANK20

    None.

Critical Paths under _Default_ISR in BANK20

    None.

Critical Paths under _TMR0_ISR in BANK20

    None.

Critical Paths under _main in BANK21

    None.

Critical Paths under _Default_ISR in BANK21

    None.

Critical Paths under _TMR0_ISR in BANK21

    None.

Critical Paths under _main in BANK22

    None.

Critical Paths under _Default_ISR in BANK22

    None.

Critical Paths under _TMR0_ISR in BANK22

    None.

Critical Paths under _main in BANK23

    None.

Critical Paths under _Default_ISR in BANK23

    None.

Critical Paths under _TMR0_ISR in BANK23

    None.

Critical Paths under _main in BANK24

    None.

Critical Paths under _Default_ISR in BANK24

    None.

Critical Paths under _TMR0_ISR in BANK24

    None.

Critical Paths under _main in BANK25

    None.

Critical Paths under _Default_ISR in BANK25

    None.

Critical Paths under _TMR0_ISR in BANK25

    None.

Critical Paths under _main in BANK26

    None.

Critical Paths under _Default_ISR in BANK26

    None.

Critical Paths under _TMR0_ISR in BANK26

    None.

Critical Paths under _main in BANK27

    None.

Critical Paths under _Default_ISR in BANK27

    None.

Critical Paths under _TMR0_ISR in BANK27

    None.

Critical Paths under _main in BANK28

    None.

Critical Paths under _Default_ISR in BANK28

    None.

Critical Paths under _TMR0_ISR in BANK28

    None.

Critical Paths under _main in BANK29

    None.

Critical Paths under _Default_ISR in BANK29

    None.

Critical Paths under _TMR0_ISR in BANK29

    None.

Critical Paths under _main in BANK30

    None.

Critical Paths under _Default_ISR in BANK30

    None.

Critical Paths under _TMR0_ISR in BANK30

    None.

Critical Paths under _main in BANK31

    None.

Critical Paths under _Default_ISR in BANK31

    None.

Critical Paths under _TMR0_ISR in BANK31

    None.

Critical Paths under _main in BANK32

    None.

Critical Paths under _Default_ISR in BANK32

    None.

Critical Paths under _TMR0_ISR in BANK32

    None.

Critical Paths under _main in BANK33

    None.

Critical Paths under _Default_ISR in BANK33

    None.

Critical Paths under _TMR0_ISR in BANK33

    None.

Critical Paths under _main in BANK34

    None.

Critical Paths under _Default_ISR in BANK34

    None.

Critical Paths under _TMR0_ISR in BANK34

    None.

Critical Paths under _main in BANK35

    None.

Critical Paths under _Default_ISR in BANK35

    None.

Critical Paths under _TMR0_ISR in BANK35

    None.

Critical Paths under _main in BANK36

    None.

Critical Paths under _Default_ISR in BANK36

    None.

Critical Paths under _TMR0_ISR in BANK36

    None.

Critical Paths under _main in BANK37

    None.

Critical Paths under _Default_ISR in BANK37

    None.

Critical Paths under _TMR0_ISR in BANK37

    None.

Call Graph Tables:

 ---------------------------------------------------------------------------------
 (Depth) Function   	        Calls       Base Space   Used Autos Params    Refs
 ---------------------------------------------------------------------------------
 (0) _main                                                 0     0      0     363
                  _SYSTEM_Initialize
           _TMR0_SetInterruptHandler
 ---------------------------------------------------------------------------------
 (1) _SYSTEM_Initialize                                    0     0      0     189
               _INTERRUPT_Initialize
              _OSCILLATOR_Initialize
             _PIN_MANAGER_Initialize
                     _PMD_Initialize
                    _TMR0_Initialize
 ---------------------------------------------------------------------------------
 (2) _TMR0_Initialize                                      0     0      0     174
           _TMR0_SetInterruptHandler
 ---------------------------------------------------------------------------------
 (1) _TMR0_SetInterruptHandler                             3     0      3     174
                                              1 COMRAM     3     0      3
 ---------------------------------------------------------------------------------
 (2) _PMD_Initialize                                       0     0      0       0
 ---------------------------------------------------------------------------------
 (2) _PIN_MANAGER_Initialize                               0     0      0       0
 ---------------------------------------------------------------------------------
 (2) _OSCILLATOR_Initialize                                0     0      0       0
 ---------------------------------------------------------------------------------
 (2) _INTERRUPT_Initialize                                 1     1      0      15
                                              1 COMRAM     1     1      0
 ---------------------------------------------------------------------------------
 Estimated maximum stack depth 2
 ---------------------------------------------------------------------------------
 (Depth) Function   	        Calls       Base Space   Used Autos Params    Refs
 ---------------------------------------------------------------------------------
 (4) _Default_ISR                                          0     0      0       0
 ---------------------------------------------------------------------------------
 Estimated maximum stack depth 4
 ---------------------------------------------------------------------------------
 (Depth) Function   	        Calls       Base Space   Used Autos Params    Refs
 ---------------------------------------------------------------------------------
 (4) _TMR0_ISR                                             0     0      0       0
                      _TMR0_CallBack
 ---------------------------------------------------------------------------------
 (5) _TMR0_CallBack                                        0     0      0       0
                   Absolute function *
       _TMR0_DefaultInterruptHandler *
          _TMR0_UserInterruptHandler *
 ---------------------------------------------------------------------------------
 (6) _TMR0_UserInterruptHandler                            1     1      0       0
                                              0 COMRAM     1     1      0
 ---------------------------------------------------------------------------------
 (6) _TMR0_DefaultInterruptHandler                         0     0      0       0
 ---------------------------------------------------------------------------------
 (6) Absolute function(Fake)                               0     0      0       0
 ---------------------------------------------------------------------------------
 Estimated maximum stack depth 6
 ---------------------------------------------------------------------------------

 Call Graph Graphs:

 _main (ROOT)
   _SYSTEM_Initialize
     _INTERRUPT_Initialize
     _OSCILLATOR_Initialize
     _PIN_MANAGER_Initialize
     _PMD_Initialize
     _TMR0_Initialize
       _TMR0_SetInterruptHandler
   _TMR0_SetInterruptHandler

 _Default_ISR (ROOT)

 _TMR0_ISR (ROOT)
   _TMR0_CallBack
     Absolute function(Fake) *
     _TMR0_DefaultInterruptHandler *
     _TMR0_UserInterruptHandler *

 Address spaces:
Name               Size   Autos  Total    Cost      Usage
BIGRAM            20FF      0       0      71        0.0%
EEDATA             400      0       0       0        0.0%
BITBANK37          100      0       0      70        0.0%
BANK37             100      0       0      68        0.0%
BITBANK36          100      0       0      66        0.0%
BANK36             100      0       0      67        0.0%
BITBANK35          100      0       0      64        0.0%
BANK35             100      0       0      65        0.0%
BITBANK34          100      0       0      62        0.0%
BANK34             100      0       0      63        0.0%
BITBANK33          100      0       0      60        0.0%
BANK33             100      0       0      61        0.0%
BITBANK32          100      0       0      58        0.0%
BANK32             100      0       0      59        0.0%
BITBANK31          100      0       0      56        0.0%
BANK31             100      0       0      57        0.0%
BITBANK30          100      0       0      54        0.0%
BANK30             100      0       0      55        0.0%
BITBANK29          100      0       0      52        0.0%
BANK29             100      0       0      53        0.0%
BITBANK28          100      0       0      50        0.0%
BANK28             100      0       0      51        0.0%
BITBANK27          100      0       0      48        0.0%
BANK27             100      0       0      49        0.0%
BITBANK26          100      0       0      46        0.0%
BANK26             100      0       0      47        0.0%
BITBANK25          100      0       0      44        0.0%
BANK25             100      0       0      45        0.0%
BITBANK24          100      0       0      42        0.0%
BANK24             100      0       0      43        0.0%
BITBANK23          100      0       0      40        0.0%
BANK23             100      0       0      41        0.0%
BITBANK22          100      0       0      38        0.0%
BANK22             100      0       0      39        0.0%
BITBANK21          100      0       0      36        0.0%
BANK21             100      0       0      37        0.0%
BITBANK20          100      0       0      34        0.0%
BANK20             100      0       0      35        0.0%
BITBANK19          100      0       0      32        0.0%
BANK19             100      0       0      33        0.0%
BITBANK18          100      0       0      30        0.0%
BANK18             100      0       0      31        0.0%
BITBANK17          100      0       0      28        0.0%
BANK17             100      0       0      29        0.0%
BITBANK16          100      0       0      26        0.0%
BANK16             100      0       0      27        0.0%
BITBANK15          100      0       0      24        0.0%
BANK15             100      0       0      25        0.0%
BITBANK14          100      0       0      22        0.0%
BANK14             100      0       0      23        0.0%
BITBANK13          100      0       0      20        0.0%
BANK13             100      0       0      21        0.0%
BITBANK12          100      0       0      18        0.0%
BANK12             100      0       0      19        0.0%
BITBANK11          100      0       0      16        0.0%
BANK11             100      0       0      17        0.0%
BITBANK10          100      0       0      14        0.0%
BANK10             100      0       0      15        0.0%
BITBANK9           100      0       0      12        0.0%
BANK9              100      0       0      13        0.0%
BITBANK8           100      0       0      10        0.0%
BANK8              100      0       0      11        0.0%
BITBANK7           100      0       0       8        0.0%
BANK7              100      0       0       9        0.0%
BITBANK6           100      0       0       6        0.0%
BANK6              100      0       0       7        0.0%
BITBANK5            A0      0       0       4        0.0%
BANK5               A0      0       0       5        0.0%
BITCOMRAM           5F      0       0       0        0.0%
COMRAM              5F      4       9       1        9.5%
BITSFR_5             0      0       0     200        0.0%
SFR_5                0      0       0     200        0.0%
BITSFR_4             0      0       0     200        0.0%
SFR_4                0      0       0     200        0.0%
BITSFR_3             0      0       0     200        0.0%
SFR_3                0      0       0     200        0.0%
BITSFR_2             0      0       0     200        0.0%
SFR_2                0      0       0     200        0.0%
BITSFR_1             0      0       0     200        0.0%
SFR_1                0      0       0     200        0.0%
BITSFR               0      0       0     200        0.0%
SFR                  0      0       0     200        0.0%
STACK                0      0       0       2        0.0%
NULL                 0      0       0       0        0.0%
ABS                  0      0       9      69        0.0%
DATA                 0      0       9       3        0.0%
CODE                 0      0       0       0        0.0%


Microchip Technology PIC18 Macro Assembler V2.32 build 20210201212658 
Symbol Table                                                                                   Mon Aug 23 09:52:49 2021

                                      l41 101A                                        l44 0FEC  
                                      l47 0FB0                                        u15 0EDA  
                                      u16 0EDC                                       l142 0EA2  
                                     l224 1028                                       l164 0EE0  
                                     l245 0FCA                                       l246 0FCA  
                                     l194 0F3A                                       l930 0EAE  
                                     l932 0EBA                                       l940 0F8E  
                                     l934 0ED0                                       l926 0EA4  
                                     l950 0E2C                                       l942 0E06  
                                     l936 0ED2                                       l928 0EA6  
                                     l960 0E88                                       l952 0E2E  
                                     l944 0E26                                       l938 0EDC  
                                     l970 0E96                                       l962 0E8A  
                                     l954 0E32                                       l946 0E28  
                                     l972 0E98                                       l964 0E8C  
                                     l956 0E40                                       l948 0E2A  
                                     l974 0E9A                                       l966 0E92  
                                     l958 0E86                                       l976 0EA0  
                                     l968 0E94                                       l978 0FD2  
                                     _GIE 0026B7                   __size_of_PMD_Initialize 0024  
                                     tosl 0004FD                                      l1030 0F22  
                                    l1024 101C                                      l1032 0F24  
                                    l1040 0FB2                                      l1034 0F34  
                                    l1026 0F12                                      l1042 0FC6  
                                    l1028 0F20                                      l1036 1006  
                                    l1044 0FC8                                      l1038 1016  
                                    _LATA 0004BE                                      _LATB 0004BF  
                                    _LATC 0004C0                                      _LATD 0004C1  
                                    _LATE 0004C2                                      _LATF 0004C3  
                                    _PMD0 000060                                      _PMD1 000061  
                                    _PMD3 000063                                      _PMD4 000064  
                                    _PMD5 000065                                      _PMD6 000066  
                                    _PMD7 000067                                      _PMD8 000068  
                                    _WPUA 000401                                      _WPUB 000409  
                                    _WPUC 000411                                      _WPUD 000419  
                                    _WPUE 000421                                      _WPUF 000429  
                                    _main 0FB2                                      start 0E02  
                            ___param_bank 000000                   __end_of_TMR0_Initialize 0F3C  
          ??_TMR0_DefaultInterruptHandler 0501            __size_of_OSCILLATOR_Initialize 001C  
           __end_of_OSCILLATOR_Initialize 0FEE                                     ?_main 0501  
                                   i2l221 0F10                                     i2l240 0F8C  
                                   i2l217 0F64                                     i2l227 102E  
                                   i2l238 0F66                                     i2l169 102C  
                                   i2l990 0F66                                     i2l996 0EE2  
                                   i2l998 0EF6                                     _OSCEN 0000B3  
                                   _TMR0H 000319                                     _TMR0L 000318  
                                   _TRISA 0004C6                                     _TRISB 0004C7  
                                   _TRISC 0004C8                                     _TRISD 0004C9  
                                   _TRISE 0004CA                                     _TRISF 0004CB  
                             _Default_ISR 102C         __size_of_TMR0_SetInterruptHandler 000E  
               ?_TMR0_SetInterruptHandler 0502                          __end_of_TMR0_ISR 0F66  
                                   pclath 0004FA                                     status 0004D8  
                         __initialization 0FEE                              __end_of_main 0FD2  
                                  ??_main 0505                             __activetblptr 000003  
                                  _ACTCON 0000AC                                    _ANSELA 000400  
                                  _ANSELB 000408                                    _ANSELC 000410  
                                  _ANSELD 000418                                    _ANSELE 000420  
                                  _ANSELF 000428                          ivt0xD08_undefint 0E00  
                                  _T0CON0 00031A                                    _T0CON1 00031B  
                                  _RB1I2C 000289                                    _RB2I2C 000288  
                                  _RC3I2C 000287                                    _RC4I2C 000286  
                                  _ODCONA 000402                                    _ODCONB 00040A  
                                  _ODCONC 000412                                    _ODCOND 00041A  
                                  _ODCONE 000422                                    _ODCONF 00042A  
                                  i2l1010 0F3C                                    i2l1012 0F3E  
                                  i2l1014 0F58                                    i2l1016 0F5C  
                                  _INLVLA 000404                                    _INLVLB 00040C  
                                  _INLVLC 000414                                    _INLVLD 00041C  
                                  _INLVLE 000424                                    _INLVLF 00042C  
                                  _OSCFRQ 0000B1                                    i2u2_40 0F76  
                                  i2u2_41 0F70                                    i2u2_46 0F78  
                                  i2u3_40 0EF6                                    i2u3_41 0EF2  
                                  i2u4_48 0EFC                                    i2u5_40 0F58  
                                  i2u4_49 0F10                                    i2u5_41 0F54  
                        ?_TMR0_Initialize 0501                                    isa$std 000001  
                          _PMD_Initialize 0F8E                     __end_of_TMR0_CallBack 0F12  
TMR0_SetInterruptHandler@InterruptHandler 0502             __size_of_INTERRUPT_Initialize 003E  
                       _SYSTEM_Initialize 1006                                __accesstop 0560  
                 __end_of__initialization 1000                        ?_SYSTEM_Initialize 0501  
                            ivt0xD08_base 0D08                             ___rparam_used 000001  
                          __pcstackCOMRAM 0501                       ??_SYSTEM_Initialize 0505  
                               ?_TMR0_ISR 0501                    __end_of_PMD_Initialize 0FB2  
                   TMR0_ISR@CountCallBack 0508                 __end_of_SYSTEM_Initialize 101C  
                              __pnvCOMRAM 0505                                   IVTBASEH 00045E  
                                 IVTBASEL 00045D                                   IVTBASEU 00045F  
                              __pivt0xD08 0D08          __end_of_TMR0_SetInterruptHandler 102A  
                              ??_TMR0_ISR 0502                           ?_PMD_Initialize 0501  
                            ?_Default_ISR 0501                                   _OSCCON1 0000AD  
                                 _OSCCON3 0000AF                                   _IVTLOCK 000459  
                                 _OSCTUNE 0000B0                                   _SLRCONA 000403  
                                 _SLRCONB 00040B                                   _SLRCONC 000413  
                                 _SLRCOND 00041B                                   _SLRCONE 000423  
                                 _SLRCONF 00042B                 INTERRUPT_Initialize@state 0502  
                                 __Hparam 0000                                   __Lparam 0000  
            fp__TMR0_UserInterruptHandler 0000                                   __pcinit 0FEE  
                                 __ramtop 2600                                   __ptext0 0FB2  
                                 __ptext1 1006                                   __ptext2 0F12  
                                 __ptext3 101C                                   __ptext4 0F8E  
                                 __ptext5 0E06                                   __ptext6 0FD2  
                                 __ptext7 0EA4                                   __ptext8 102C  
                                 __ptext9 0F3C                     _OSCILLATOR_Initialize 0FD2  
                ??_PIN_MANAGER_Initialize 0502                __size_of_SYSTEM_Initialize 0016  
                    end_of_initialization 1000                  _TMR0_SetInterruptHandler 101C  
            __end_of_INTERRUPT_Initialize 0EE2                         __size_of_TMR0_ISR 002A  
                  ?_OSCILLATOR_Initialize 0501                       start_initialization 0FEE  
                __size_of_TMR0_Initialize 002A           __size_of_PIN_MANAGER_Initialize 009E  
                    __size_of_Default_ISR 0002                          ??_PMD_Initialize 0502  
                  __size_of_TMR0_CallBack 0030                               __pbssCOMRAM 0508  
      __size_of_TMR0_UserInterruptHandler 0028                ?_TMR0_UserInterruptHandler 0501  
                   _TMR0_InterruptHandler 0505                    _PIN_MANAGER_Initialize 0E06  
       __end_of_TMR0_UserInterruptHandler 0F8E                             _TMR0_CallBack 0EE2  
                    _INTERRUPT_Initialize 0EA4                         ??_TMR0_Initialize 0505  
                                _LATFbits 0004C3                                  _IPR3bits 000365  
                                _PIE3bits 0004A1                                  _IVTBASEH 00045E  
                                _IVTBASEL 00045D                                  _IVTBASEU 00045F  
              ??_TMR0_SetInterruptHandler 0505                                  _PIR3bits 0004B1  
                                _TMR0_ISR 0F3C                            ?_TMR0_CallBack 0501  
                             _INTCON0bits 0004D6                     ?_INTERRUPT_Initialize 0501  
                                __Hrparam 0000                                  __Lrparam 0000  
                 ??_OSCILLATOR_Initialize 0502                                _T0CON0bits 00031A  
                                __ptext10 0EE2                                  __ptext11 102E  
                                __ptext12 0F66                                  __ptext13 0000  
                           __size_of_main 0020      __end_of_TMR0_DefaultInterruptHandler 1030  
   __size_of_TMR0_DefaultInterruptHandler 0002              _TMR0_DefaultInterruptHandler 102E  
                             _IVTLOCKbits 000459                                  isa$xinst 000000  
                           ??_Default_ISR 0501                           ??_TMR0_CallBack 0502  
             ??_TMR0_UserInterruptHandler 0501                    ??_INTERRUPT_Initialize 0502  
                                intlevel2 0000                   ?_PIN_MANAGER_Initialize 0501  
         fp__TMR0_DefaultInterruptHandler 0000             ?_TMR0_DefaultInterruptHandler 0501  
                         _TMR0_Initialize 0F12                       __end_of_Default_ISR 102E  
          __end_of_PIN_MANAGER_Initialize 0EA4                 _TMR0_UserInterruptHandler 0F66  
