:040000005DEF00F0C0
:100008002E002E002E002E00C8022E002E002E00DC
:100018002E002E002E002E002E002E002E002E0068
:100028002E002E002E002E002E002E002E002E0058
:100038002E002E002E002E002E002E002E002E0048
:100048002E002E002E002E002E002E002E002E0038
:100058002E002E002E002E002E002E002E002E0028
:100068002E002E002E002E002E002E002E002E0018
:100078002E002E002E002E002E002E002E002E0008
:100088002E002E002E002E002E002E002E002E00F8
:100098002E002E002E002E002E002E002E002E00E8
:1000A8002E002E002E002E002E002E002E002E00D8
:1000B800FF0000EF05F06400F4FF09F509C50AF533
:1000C8000B6A0C6A0D6A0CC50DF50BC50CF50AC553
:1000D8000BF50A6A6400F8FF0EF50EC50FF5106AF5
:1000E800116A126A10C512F50FC511F5106A0F6A68
:1000F8000A500F24136E0B501020146E0C50112050
:10010800156E0D501220166E6400F0FF17F517508B
:100118001324186E000E1420196E000E15201A6E86
:10012800000E16201B6E1B501A1007E10D0E195CED
:10013800D8B0A1EF00F0A3EF00F0ADEF00F0FE0E95
:100148006100A1F300F4000E086E0A0E076E0BEFB3
:1001580001F018C502F519C503F51AC504F51BC544
:1001680005F5D8EC04F0000E1D6E000E1C6ED8EFDD
:1001780000F0000E1C24D96E140E1D20DA6E000E3D
:10018800096E150E0A6E6400F0FF0BF50B50092678
:10019800000E0A221C500924E16E1D500A20E26E4E
:1001A800DFC4E7F41C4A1D2A24EEF8F3DE501C5C79
:1001B800DE501D58D8A0E3EF00F0E5EF00F0BDEFEA
:1001C80000F06400F8FF45F06400F4FF44F06400B8
:1001D800F0FF43F000014151F80B0509416FD69E2D
:1001E80070EC05F00001408140B1FDEF00F0FFEF39
:1001F80000F0F8EF00F0010E6100A1F300F4000E2A
:10020800006E000E016E000E086E0A0E076E1200D8
:100218000201B2AF12EF01F014EF01F00CEF01F0A0
:1002280066EC05F00201AB8D24EF01F0B2AB1FEFD5
:1002380001F021EF01F024EF01F0AB9DB29BAB8DF3
:10024800ABBD29EF01F02BEF01F01AEF01F0000E22
:10025800286E000E276E000E266E090E256E74EFAE
:1002680001F013EC03F0246EF70E2724D96E130E59
:100278002820DA6E610090F4DFF4274A282A040E59
:1002880027182810D8A44BEF01F04DEF01F074EFB8
:1002980001F06400DCFFE8F4020AD8B456EF01F07C
:1002A80058EF01F06EEF01F06400DCFFE8F4050A96
:1002B800D8B461EF01F063EF01F06EEF01F0640074
:1002C800DCFFE8F4070AD8A46CEF01F06EEF01F048
:1002D80074EF01F024EEF8F3DE502526DD502622D7
:1002E8002550275C26502858D8A07DEF01F07FEFD5
:1002F80001F035EF01F03CEC02F01EC525F51FC5F5
:1003080026F5550E4FEC05F0000E286E000E276EF0
:1003180099EF01F0F70E2724D96E130E2820DA6E14
:10032800DF504FEC05F0274A282A2550275C265035
:100338002858D8A0A2EF01F0A4EF01F08EEF01F049
:100348000CEF01F012006400F0FFF6F46400F4FF13
:10035800F7F46400F8FFF8F46400F4FF04F504C54A
:1003680005F5066A076A086A07C508F506C507F5A8
:1003780005C506F5056A6400F8FF09F509C50AF51B
:100388000B6A0C6A0D6A0BC50DF50AC50CF50B6AEC
:100398000A6A05500A240E6E06500B200F6E07508D
:1003A8000C20106E08500D20116E6400F0FF12F53D
:1003B80012500E24136E000E0F20146E000E102023
:1003C800156E000E1120166E000ED6BE010E196EA7
:1003D800D69E000E186E000E176E16EF02F0000E75
:1003E80013141A6EFF0E14141B6E000E15141C6ED7
:1003F800000E16141D6E610070F445F061006CF477
:1004080044F000014151F80B0609416F70EC05F00A
:10041800000E1326010E1422000E1522000E1622BD
:10042800174A182A24EEF8F3DE50175CDE501858E5
:10043800D8A021EF02F023EF02F0F3EF01F019B09A
:1004480002D0D69E01D0D68EF80E00014117010EBB
:100458006100A1F300F4000E6100A1F3FAF3000EAD
:100468006100A1F3FBF3000E036E0A0E026E120088
:100478006400E8FF00F56400ECFF01F58AEF02F084
:10048800BAEC02F002C522F503C523F5B5EF02F078
:100498005FEC00F007C522F508C523F5B5EF02F0BB
:1004A800A7EC01F002C522F503C523F5B5EF02F06C
:1004B8003DEC04F002C522F503C523F5B5EF02F0C3
:1004C80060EC03F002C522F503C523F5B5EF02F091
:1004D800F6EC03F002C522F503C523F5B5EF02F0EB
:1004E800010E6100A1F300F4010E2D6E000E236EC3
:1004F8000A0E226EB5EF02F0FF0E6100A1F300F4C0
:10050800000E236E0A0E226EB5EF02F024EEF7F30A
:10051800DF50206E216A2150000AD8B496EF02F00D
:1005280080EF02F02050000AD8B444EF02F0020A2B
:10053800D8B44CEF02F0010AD8B454EF02F0050A1F
:10054800D8B45CEF02F0010AD8B464EF02F00F0AE5
:10055800D8B46CEF02F0010AD8B474EF02F080EF5F
:1005680002F022C51EF523C51FF51200010E610019
:10057800A1F300F4010E6100A1F301F4000E610083
:10058800A1F302F4010E6100A1F303F4000E61006F
:10059800A1F304F4000E6100A1F305F43F0EF86E18
:1005A800F768FE0EF66EC00E0001416F090025EED9
:1005B80006F0F5C4DFF4090025EE07F0F5C4DFF412
:1005C800000E6100A1F308F4000E6100A1F309F424
:1005D800800E6100A1F30AF4800E6100A1F30BF410
:1005E800300EF86E000EF76E000EF66E0C0E046EEE
:1005F8000900000E0424D96EDA6A140EDA22F5C452
:10060800DFF4042A0F0E04640CEF03F00EEF03F07E
:10061800FCEF02F0000E036E190E026E1200B7A076
:1006280018EF03F01AEF03F013EF03F0000E306E2B
:100638000201B2A722EF03F024EF03F032EF03F038
:10064800308202D832EF03F00500FA6E3550FD6EA5
:100658003650FE6EF850FF6EFA5012000201B2A337
:1006680038EF03F03AEF03F048EF03F0308402D894
:1006780048EF03F00500FA6E3350FD6E3450FE6EFD
:10068800F850FF6EFA5012003050D8B44EEF03F015
:1006980050EF03F05DEF03F002D85DEF03F00500C3
:1006A800FA6E3150FD6E3250FE6EF850FF6EFA5001
:1006B80012000201A15112006400F0FFF6F4640078
:1006C800F4FFF7F46400F8FFF8F4100EF65C000E7F
:1006D800F758200EF858D8A074EF03F076EF03F01F
:1006E8007BEF03F0C40E0001416F7EEF03F0840E30
:1006F8000001416F000E086E8FEF03F0000E082412
:10070800D96EDA6A140EDA22DF50F56E0C0070EC3E
:1007180005F0F62A082A24EEF8F30850066E076A50
:10072800DE50065CDE500758D8A09DEF03F09FEF1F
:1007380003F082EF03F0010E6100A1F300F4000E54
:10074800006E000E016E000E036E0A0E026E12009D
:10075800000E0C6E00F00C2A0C28D8A4B6EF03F09B
:10076800B8EF03F0AEEF03F0D0B0BDEF03F0BFEF8A
:1007780003F0C2EF03F0010EF5EF03F0000E610085
:10078800A1F3FCF30D0E6100A1F3FDF3000E61006F
:10079800A1F3FEF3FE0E6100A1F3F8F3F20E61007F
:1007A800A1F3F9F3F6EC03F0FE0EF66EFF0EF76E0A
:1007B800000EF86E09006100D4F30AF50B6A09000F
:1007C800F5500B262B500A1809E12C500B18D8B4F9
:1007D800F0EF03F0F2EF03F0F4EF03F0BFEF03F0F4
:1007E800000E12006400F0FFF6F46400F4FFF7F462
:1007F8006400F8FFF8F4800E0001416F000E2C6EC3
:10080800000E2B6E6400E0FF06F56400E4FF07F5B8
:10081800000E096E000E086E1EEF04F00900F55078
:100828002B26000E2C220900F5502C26020E082635
:10083800000E09220650085C07500958D8A027EF77
:1008480004F029EF04F012EF04F025EE00F0610047
:10085800ACF4DFF42BC504F52CC505F505C504F586
:10086800056A610011F401F4000E036E0B0E026EAE
:1008780012006400F0FFF6F46400F4FFF7F464007B
:10088800F8FFF8F4C00E0001416F000E086E57EF34
:1008980004F00900000E0824D96EDA6A140EDA2270
:1008A800F5C4DFF4082A24EEF8F30850066E076A48
:1008B800DE50065CDE500758D8A065EF04F067EFFD
:1008C80004F04DEF04F024EEF8F3610078F304F53A
:1008D800610074F305F5090E0424026E000E05206C
:1008E800036E1200000E0201A56F000EA66F000E27
:1008F800A76F000EA86F000EA96F000EAA6FB00EAA
:10090800AB6F800EAC6F000EAD6F820EAE6F060E31
:10091800AF6F000EB06F000EB16F000EB26F000E19
:10092800B36F260E026E0B0E036E85EC05F0240ED7
:10093800026E0B0E036E80EC05F0280E026E0B0E95
:10094800036E8AEC05F0000E306E1200000EBE6ECB
:10095800000EBF6E000EC06E3F0EC66E700EC76EE4
:10096800C868FE0E0401106F500E086F370E006F36
:10097800000E096F000E016F010E116F000E026F5D
:10098800000E0A6F000E126F370E036FF00E0B6F1A
:1009980013693F0E046FF00E0C6F1469100E0201FC
:1009A800106F0D0E726F1200000ED6BE010E066E8D
:1009B800610010F445F061000CF444F0610008F4A3
:1009C80043F000014151F80B0209416FD69E550EC4
:1009D800426FAA0E426F408140B1F5EF04F0F7EF85
:1009E80004F0F0EF04F006B002D0D69E01D0D68E07
:1009F800F80E00014117120004EEF7F310EE09F1AA
:100A0800EE6AE550E150FCE1E250FAE101EE29F12D
:100A1800080EEE6AE806FDE10401080E5D6F000E9F
:100A28005E6F000E5F6F000EF86E00017AEF05F042
:100A3800000E006E000E016EACEC03F0E806D8A4C0
:100A480028EF05F02AEF05F02CEF05F00CEC01F08B
:100A5800000EFC6E000EE06E80EF06F01200000E35
:100A68000001636F000E646F000E656F000E666F05
:100A7800000E676F000E686F1200600E0001AD6F08
:100A8800000EAF6F000EB36F080EB16F000EB06F9F
:100A9800000EAC6F1200026EB7A255EF05F057EFCB
:100AA80005F050EF05F0610008F4A3F2120033ECF2
:100AB80005F0AAEC04F041EC05F076EC04F01CEC2F
:100AC80005F012002D04D8A46CEF05F06EEF05F0C8
:100AD8006FEF05F0FF00120000010050426F015057
:0A0AE800426F408100F000F01200A0
:100AF4005BEC05F07CEF05F05DEF00F002C533F52B
:100B040003C534F5120002C535F503C536F51200E8
:0A0B140002C531F503C532F51200E9
:0A0B2000B398110012001200120039
:020000040020DA
:10000000FF0FFF0FFF0FFF0FFF0FFF0FFF0FFF0F80
:10001000FF0FFF0FFF0FFF0FFF0FFF0FFF0FFF0F70
:020000040030CA
:0A0000008CFFEFFF9FFFFFFFFFFFE3
:00000001FF
