Microchip MPLAB XC8 Compiler V2.32

Linker command line:

-W-3 --edf=C:\Program Files\Microchip\xc8\v2.32\pic\dat\en_msgs.txt \
  -pivt0x8=08h -cn \
  -h+dist/default/production\boot_pic18f16q41.X.production.sym \
  --cmf=dist/default/production\boot_pic18f16q41.X.production.cmf -z \
  -Q18F16Q41 -oC:\Users\A51933\AppData\Local\Temp\xcAsg0k.4 \
  --defsym=__MPLAB_BUILD=1 \
  -Mdist/default/production/boot_pic18f16q41.X.production.map -E1 \
  -ver=XC8 Compiler --acfsm=1493 -ASTACK=0560h-013F6h -pstack=STACK \
  -ACODE=00h-0CFFh -ACONST=00h-0CFFh -ACOMRAM=0501h-055Fh \
  -AABS1=0500h-015FFh -ABIGRAM=0501h-015FFh \
  -ARAM=0560h-05FFh,0600h-06FFhx16 -ABANK5=0560h-05FFh -ABANK6=0600h-06FFh \
  -ABANK7=0700h-07FFh -ABANK8=0800h-08FFh -ABANK9=0900h-09FFh \
  -ABANK10=0A00h-0AFFh -ABANK11=0B00h-0BFFh -ABANK12=0C00h-0CFFh \
  -ABANK13=0D00h-0DFFh -ABANK14=0E00h-0EFFh -ABANK15=0F00h-0FFFh \
  -ABANK16=01000h-010FFh -ABANK17=01100h-011FFh -ABANK18=01200h-012FFh \
  -ABANK19=01300h-013FFh -ABANK20=01400h-014FFh -ABANK21=01500h-015FFh \
  -ASFR=00h-0FFhx4,0400h-045Fh,0460h-04FFh -ACONFIG=0300000h-0300011h \
  -AIDLOC=0200000h-020001Fh -AEEDATA=0380000h-03801FFh -peeprom_data=EEDATA \
  -preset_vec=00h -ppowerup=CODE,init -pramtop=01600h -pconst=CONST \
  -AFARRAM=00h-00h \
  -prdata=COMRAM,nvrram=COMRAM,nvbit=COMRAM,rbss=COMRAM,rbit=COMRAM \
  -pfarbss=FARRAM,fardata=FARRAM,nvFARRAM=FARRAM \
  -pintsave_regs=BIGRAM,bigbss=BIGRAM,bigdata=BIGRAM -pbss=RAM \
  -pidata=CODE,irdata=CODE,ibigdata=CODE,ifardata=CODE -prparam=COMRAM \
  C:\Users\A51933\AppData\Local\Temp\xcAsg0k.o \
  dist/default/production\boot_pic18f16q41.X.production.o 

Object code version is 3.11

Machine type is 18F16Q41



                Name                               Link     Load   Length Selector   Space Scale
C:\Users\A51933\AppData\Local\Temp\xcAsg0k.o
                idloc                            200000   200000       20        0       5
                config                           300000   300000        A        0       4
                init                                 BA       BA        4        4       0
                reset_vec                             0        0        4        0       0
dist/default/production\boot_pic18f16q41.X.production.o
                idloc                            200000   200000       20        0       5
                config                           300000   300000        A        0       4
                ivt0x8                                8        8       B2        4       0
                text27                              B20      B20        4      2C8       0
                text26                              7EC      7EC       8E        4       0
                text25                              758      758       94        4       0
                text24                              ACC      ACC       14        4       0
                text23                              AE0      AE0       12        4       0
                text22                              34E      34E      12A        4       0
                text21                              574      574       B2        4       0
                text20                              87A      87A       72        4       0
                text19                              6C0      6C0       98        4       0
                text18                              9B0      9B0       50        4       0
                text17                               BE       BE      15A        4       0
                text16                              478      478       FC        4       0
                text15                              B28      B28        2      2C8       0
                text14                              B26      B26        2      2C8       0
                text13                              B24      B24        2      2C8       0
                text12                              626      626       9A        4       0
                text11                              A9E      A9E       18        4       0
                text10                              218      218      136        4       0
                text9                               A38      A38       2E        4       0
                text8                               A82      A82       1C        4       0
                text7                               954      954       5C        4       0
                text6                               A66      A66       1C        4       0
                text5                               B14      B14        A      2BD       0
                text4                               B0A      B0A        A      2BD       0
                text3                               B00      B00        A      2BD       0
                text2                               8EC      8EC       68        4       0
                text1                               AB6      AB6       16        4       0
                cstackCOMRAM                        502      502       27      502       1
                bssBIGRAM                          13F7     13F7      109     13F7       1
                bssCOMRAM                           529      529        8      502       1
                cinit                               A00      A00       38        4       0
                nvCOMRAM                            531      531        6      502       1
                text0                               AF4      AF4        C      2BD       0

TOTAL           Name                               Link     Load   Length     Space
        CLASS   STACK          

        CLASS   CODE           
                init                                 BA       BA        4         0
                reset_vec                             0        0        4         0
                ivt0x8                                8        8       B2         0
                text27                              B20      B20        4         0
                text26                              7EC      7EC       8E         0
                text25                              758      758       94         0
                text24                              ACC      ACC       14         0
                text23                              AE0      AE0       12         0
                text22                              34E      34E      12A         0
                text21                              574      574       B2         0
                text20                              87A      87A       72         0
                text19                              6C0      6C0       98         0
                text18                              9B0      9B0       50         0
                text17                               BE       BE      15A         0
                text16                              478      478       FC         0
                text15                              B28      B28        2         0
                text14                              B26      B26        2         0
                text13                              B24      B24        2         0
                text12                              626      626       9A         0
                text11                              A9E      A9E       18         0
                text10                              218      218      136         0
                text9                               A38      A38       2E         0
                text8                               A82      A82       1C         0
                text7                               954      954       5C         0
                text6                               A66      A66       1C         0
                text5                               B14      B14        A         0
                text4                               B0A      B0A        A         0
                text3                               B00      B00        A         0
                text2                               8EC      8EC       68         0
                text1                               AB6      AB6       16         0
                cinit                               A00      A00       38         0
                text0                               AF4      AF4        C         0

        CLASS   CONST          

        CLASS   COMRAM         
                cstackCOMRAM                        502      502       27         1
                bssCOMRAM                           529      529        8         1
                nvCOMRAM                            531      531        6         1

        CLASS   ABS1           
                abs_s1                              501      501        1         1
                abs_s1                             1500     1500      100         1

        CLASS   BIGRAM         
                bssBIGRAM                          13F7     13F7      109         1

        CLASS   RAM            

        CLASS   BANK5          

        CLASS   BANK6          

        CLASS   BANK7          

        CLASS   BANK8          

        CLASS   BANK9          

        CLASS   BANK10         

        CLASS   BANK11         

        CLASS   BANK12         

        CLASS   BANK13         

        CLASS   BANK14         

        CLASS   BANK15         

        CLASS   BANK16         

        CLASS   BANK17         

        CLASS   BANK18         

        CLASS   BANK19         

        CLASS   BANK20         

        CLASS   BANK21         

        CLASS   SFR            

        CLASS   CONFIG         
                config                           300000   300000        A         4

        CLASS   IDLOC          
                idloc                            200000   200000       20         5

        CLASS   EEDATA         

        CLASS   FARRAM         

        CLASS   MEDIUMCONST    

        CLASS   SMALLCONST     



SEGMENTS        Name                           Load    Length   Top    Selector   Space  Class

                reset_vec                      000000  000004  000004         0       0  CODE    
                ivt0x8                         000008  000AEA  000AF2         4       0  CODE    
                cstackCOMRAM                   000502  000035  000537       502       1  COMRAM  
                text0                          000AF4  00002A  000B1E       2BD       0  CODE    
                text27                         000B20  00000A  000B2A       2C8       0  CODE    
                bssBIGRAM                      0013F7  000109  001500      13F7       1  BIGRAM  


UNUSED ADDRESS RANGES

        Name                Unused          Largest block    Delta
        BANK10           000A00-000AFF              100
        BANK11           000B00-000BFF              100
        BANK12           000C00-000CFF              100
        BANK13           000D00-000DFF              100
        BANK14           000E00-000EFF              100
        BANK15           000F00-000FFF              100
        BANK16           001000-0010FF              100
        BANK17           001100-0011FF              100
        BANK18           001200-0012FF              100
        BANK19           001300-0013F6               F7
        BANK5            000560-0005FF               A0
        BANK6            000600-0006FF              100
        BANK7            000700-0007FF              100
        BANK8            000800-0008FF              100
        BANK9            000900-0009FF              100
        BIGRAM           000537-0013F6              EC0
        CODE             000004-000007                4
                         000AF2-000AF3                2
                         000B1E-000B1F                2
                         000B2A-000CFF              1D6
        COMRAM           000537-00055F               29
        CONFIG           30000A-300011                8
        CONST            000004-000007                4
                         000AF2-000AF3                2
                         000B1E-000B1F                2
                         000B2A-000CFF              1D6
        EEDATA           380000-3801FF              200
        RAM              000560-0013F6              100
        SFR              000000-0004FF              100
        STACK            000560-0013F6              E97

                                  Symbol Table

?_Calc_Checksum                               cstackCOMRAM 000502
?_Erase_Flash                                 cstackCOMRAM 000502
?_Get_Version_Data                            cstackCOMRAM 000502
?_ProcessBootBuffer                           cstackCOMRAM 00051E
?_Read_Config                                 cstackCOMRAM 000502
?_Write_Config                                cstackCOMRAM 000502
?_Write_Flash                                 cstackCOMRAM 000507
Bootload_Required@Stored_Checksum             cstackCOMRAM 00050A
Bootload_Required@i                           cstackCOMRAM 00050C
Calc_Checksum@i                               cstackCOMRAM 000508
Calc_Checksum@length                          cstackCOMRAM 000506
Erase_Flash@GIEBitValue                       cstackCOMRAM 000519
Erase_Flash@address                           cstackCOMRAM 000513
Erase_Flash@blockStartAddr                    cstackCOMRAM 00051A
Erase_Flash@i                                 cstackCOMRAM 000517
FLASH_ReadPage@GIEBitValue                    cstackCOMRAM 000506
FLASH_ReadPage@flashAddr                      cstackCOMRAM 000502
Get_Version_Data@i                            cstackCOMRAM 000504
IVTBASEH                                      (abs)        00045E
IVTBASEL                                      (abs)        00045D
IVTBASEU                                      (abs)        00045F
ProcessBootBuffer@len                         cstackCOMRAM 000522
Read_Config@i                                 cstackCOMRAM 000508
Run_Bootloader@ch                             cstackCOMRAM 000524
Run_Bootloader@index                          cstackCOMRAM 000527
Run_Bootloader@msg_length                     cstackCOMRAM 000525
UART1_SetErrorHandler@interruptHandler        cstackCOMRAM 000502
UART1_SetFramingErrorHandler@interruptHandler cstackCOMRAM 000502
UART1_SetOverrunErrorHandler@interruptHandler cstackCOMRAM 000502
UART1_Write@txData                            cstackCOMRAM 000502
Write_Config@i                                cstackCOMRAM 000508
Write_Flash@address                           cstackCOMRAM 000518
Write_Flash@i                                 cstackCOMRAM 00051C
_ACTCON                                       (abs)        0000AC
_ANSELA                                       (abs)        000400
_ANSELB                                       (abs)        000408
_ANSELC                                       (abs)        000410
_BOOTLOADER_Initialize                        text9        000A38
_BSR                                          (abs)        0004E0
_Bootload_Required                            text25       000758
_Calc_Checksum                                text26       0007EC
_Check_Device_Reset                           text24       000ACC
_EE_Key_1                                     (abs)        000500
_EE_Key_2                                     (abs)        000501
_Erase_Flash                                  text22       00034E
_FLASH_ReadPage                               text18       0009B0
_Get_Version_Data                             text21       000574
_INLVLA                                       (abs)        000404
_INLVLB                                       (abs)        00040C
_INLVLC                                       (abs)        000414
_INTCON0bits                                  (abs)        0004D6
_LATA                                         (abs)        0004BE
_LATB                                         (abs)        0004BF
_LATC                                         (abs)        0004C0
_MEMORY_ISR                                   text27       000B20
_NVMADRH                                      (abs)        000044
_NVMADRL                                      (abs)        000043
_NVMADRU                                      (abs)        000045
_NVMCON0bits                                  (abs)        000040
_NVMCON1                                      (abs)        000041
_NVMCON1bits                                  (abs)        000041
_NVMDATL                                      (abs)        000046
_NVMLOCK                                      (abs)        000042
_ODCONA                                       (abs)        000402
_ODCONB                                       (abs)        00040A
_ODCONC                                       (abs)        000412
_OSCCON1                                      (abs)        0000AD
_OSCCON3                                      (abs)        0000AF
_OSCEN                                        (abs)        0000B3
_OSCFRQ                                       (abs)        0000B1
_OSCILLATOR_Initialize                        text8        000A82
_OSCTUNE                                      (abs)        0000B0
_PFM_Buffer                                   (abs)        001500
_PIN_MANAGER_Initialize                       text7        000954
_PIR0bits                                     (abs)        0004B3
_PIR4bits                                     (abs)        0004B7
_PMD0                                         (abs)        000063
_PMD1                                         (abs)        000064
_PMD2                                         (abs)        000065
_PMD3                                         (abs)        000066
_PMD4                                         (abs)        000067
_PMD5                                         (abs)        000068
_PMD_Initialize                               text6        000A66
_PORTCbits                                    (abs)        0004D0
_ProcessBootBuffer                            text16       000478
_RB7PPS                                       (abs)        000210
_Read_Config                                  text20       00087A
_Run_Bootloader                               text10       000218
_SLRCONA                                      (abs)        000403
_SLRCONB                                      (abs)        00040B
_SLRCONC                                      (abs)        000413
_STKPTR                                       (abs)        0004FC
_SYSTEM_Initialize                            text1        000AB6
_StartWrite                                   text23       000AE0
_TABLAT                                       (abs)        0004F5
_TBLPTR                                       (abs)        0004F6
_TBLPTRH                                      (abs)        0004F7
_TBLPTRL                                      (abs)        0004F6
_TBLPTRU                                      (abs)        0004F8
_TRISA                                        (abs)        0004C6
_TRISB                                        (abs)        0004C7
_TRISC                                        (abs)        0004C8
_U1BRGH                                       (abs)        0002AF
_U1BRGL                                       (abs)        0002AE
_U1CON0                                       (abs)        0002AB
_U1CON0bits                                   (abs)        0002AB
_U1CON1                                       (abs)        0002AC
_U1CON2                                       (abs)        0002AD
_U1ERRIE                                      (abs)        0002B3
_U1ERRIR                                      (abs)        0002B2
_U1ERRIRbits                                  (abs)        0002B2
_U1FIFO                                       (abs)        0002B0
_U1P1H                                        (abs)        0002A6
_U1P1L                                        (abs)        0002A5
_U1P2H                                        (abs)        0002A8
_U1P2L                                        (abs)        0002A7
_U1P3H                                        (abs)        0002AA
_U1P3L                                        (abs)        0002A9
_U1RXB                                        (abs)        0002A1
_U1RXPPS                                      (abs)        000272
_U1TXB                                        (abs)        0002A3
_U1UIR                                        (abs)        0002B1
_UART1_DefaultErrorHandler                    text15       000B28
_UART1_DefaultFramingErrorHandler             text14       000B26
_UART1_DefaultOverrunErrorHandler             text13       000B24
_UART1_ErrorHandler                           nvCOMRAM     000531
_UART1_FramingErrorHandler                    nvCOMRAM     000535
_UART1_Initialize                             text2        0008EC
_UART1_OverrunErrorHandler                    nvCOMRAM     000533
_UART1_Read                                   text12       000626
_UART1_SetErrorHandler                        text5        000B14
_UART1_SetFramingErrorHandler                 text4        000B0A
_UART1_SetOverrunErrorHandler                 text3        000B00
_UART1_Write                                  text11       000A9E
_WPUA                                         (abs)        000401
_WPUB                                         (abs)        000409
_WPUC                                         (abs)        000411
_Write_Config                                 text19       0006C0
_Write_Flash                                  text17       0000BE
__HRAM                                        (abs)        000000
__Habs1                                       abs1         000000
__Hbank10                                     bank10       000000
__Hbank11                                     bank11       000000
__Hbank12                                     bank12       000000
__Hbank13                                     bank13       000000
__Hbank14                                     bank14       000000
__Hbank15                                     bank15       000000
__Hbank16                                     bank16       000000
__Hbank17                                     bank17       000000
__Hbank18                                     bank18       000000
__Hbank19                                     bank19       000000
__Hbank20                                     bank20       000000
__Hbank21                                     bank21       000000
__Hbank5                                      bank5        000000
__Hbank6                                      bank6        000000
__Hbank7                                      bank7        000000
__Hbank8                                      bank8        000000
__Hbank9                                      bank9        000000
__Hbigbss                                     bigbss       000000
__Hbigdata                                    bigdata      000000
__Hbigram                                     bigram       000000
__Hbss                                        bss          000000
__HbssBIGRAM                                  bssBIGRAM    000000
__HbssCOMRAM                                  bssCOMRAM    000000
__Hcinit                                      cinit        000000
__Hclrtext                                    clrtext      000000
__Hcomram                                     comram       000000
__Hconfig                                     config       30000A
__Hconst                                      const        000000
__HcstackCOMRAM                               cstackCOMRAM 000000
__Hdata                                       data         000000
__Heeprom_data                                eeprom_data  000000
__Hfarbss                                     farbss       000000
__Hfardata                                    fardata      000000
__Hibigdata                                   ibigdata     000000
__Hidata                                      idata        000000
__Hidloc                                      idloc        200020
__Hifardata                                   ifardata     000000
__Hinit                                       init         0000BE
__Hintsave_regs                               intsave_regs 000000
__Hirdata                                     irdata       000000
__Hivt0x8                                     ivt0x8       0000BA
__Hmediumconst                                mediumconst  000000
__HnvCOMRAM                                   nvCOMRAM     000000
__HnvFARRAM                                   nvFARRAM     000000
__Hnvbit                                      nvbit        000000
__Hnvrram                                     nvrram       000000
__Hparam                                      rparam       000000
__Hpowerup                                    powerup      000000
__Hram                                        ram          000000
__Hramtop                                     ramtop       001600
__Hrbit                                       rbit         000000
__Hrbss                                       rbss         000000
__Hrdata                                      rdata        000000
__Hreset_vec                                  reset_vec    000004
__Hrparam                                     rparam       000000
__Hsfr                                        sfr          000000
__Hsmallconst                                 smallconst   000000
__Hspace_0                                    (abs)        001600
__Hspace_1                                    (abs)        001500
__Hspace_2                                    (abs)        000000
__Hspace_4                                    (abs)        60000A
__Hstack                                      stack        000000
__Hstruct                                     struct       000000
__Htemp                                       temp         000000
__Htext                                       text         000000
__Htext0                                      text0        000000
__Htext1                                      text1        000000
__Htext10                                     text10       000000
__Htext11                                     text11       000000
__Htext12                                     text12       000000
__Htext13                                     text13       000000
__Htext14                                     text14       000000
__Htext15                                     text15       000000
__Htext16                                     text16       000000
__Htext17                                     text17       000000
__Htext18                                     text18       000000
__Htext19                                     text19       000000
__Htext2                                      text2        000000
__Htext20                                     text20       000000
__Htext21                                     text21       000000
__Htext22                                     text22       000000
__Htext23                                     text23       000000
__Htext24                                     text24       000000
__Htext25                                     text25       000000
__Htext26                                     text26       000000
__Htext27                                     text27       000000
__Htext28                                     text28       000000
__Htext3                                      text3        000000
__Htext4                                      text4        000000
__Htext5                                      text5        000000
__Htext6                                      text6        000000
__Htext7                                      text7        000000
__Htext8                                      text8        000000
__Htext9                                      text9        000000
__LRAM                                        (abs)        000001
__Labs1                                       abs1         000000
__Lbank10                                     bank10       000000
__Lbank11                                     bank11       000000
__Lbank12                                     bank12       000000
__Lbank13                                     bank13       000000
__Lbank14                                     bank14       000000
__Lbank15                                     bank15       000000
__Lbank16                                     bank16       000000
__Lbank17                                     bank17       000000
__Lbank18                                     bank18       000000
__Lbank19                                     bank19       000000
__Lbank20                                     bank20       000000
__Lbank21                                     bank21       000000
__Lbank5                                      bank5        000000
__Lbank6                                      bank6        000000
__Lbank7                                      bank7        000000
__Lbank8                                      bank8        000000
__Lbank9                                      bank9        000000
__Lbigbss                                     bigbss       000000
__Lbigdata                                    bigdata      000000
__Lbigram                                     bigram       000000
__Lbss                                        bss          000000
__LbssBIGRAM                                  bssBIGRAM    000000
__LbssCOMRAM                                  bssCOMRAM    000000
__Lcinit                                      cinit        000000
__Lclrtext                                    clrtext      000000
__Lcomram                                     comram       000000
__Lconfig                                     config       000000
__Lconst                                      const        000000
__LcstackCOMRAM                               cstackCOMRAM 000000
__Ldata                                       data         000000
__Leeprom_data                                eeprom_data  000000
__Lfarbss                                     farbss       000000
__Lfardata                                    fardata      000000
__Libigdata                                   ibigdata     000000
__Lidata                                      idata        000000
__Lidloc                                      idloc        000000
__Lifardata                                   ifardata     000000
__Linit                                       init         0000BA
__Lintsave_regs                               intsave_regs 000000
__Lirdata                                     irdata       000000
__Livt0x8                                     ivt0x8       000008
__Lmediumconst                                mediumconst  000000
__LnvCOMRAM                                   nvCOMRAM     000000
__LnvFARRAM                                   nvFARRAM     000000
__Lnvbit                                      nvbit        000000
__Lnvrram                                     nvrram       000000
__Lparam                                      rparam       000000
__Lpowerup                                    powerup      000000
__Lram                                        ram          000000
__Lramtop                                     ramtop       001600
__Lrbit                                       rbit         000000
__Lrbss                                       rbss         000000
__Lrdata                                      rdata        000000
__Lreset_vec                                  reset_vec    000000
__Lrparam                                     rparam       000000
__Lsfr                                        sfr          000000
__Lsmallconst                                 smallconst   000000
__Lspace_0                                    (abs)        000000
__Lspace_1                                    (abs)        000000
__Lspace_2                                    (abs)        000000
__Lspace_4                                    (abs)        000000
__Lstack                                      stack        000000
__Lstruct                                     struct       000000
__Ltemp                                       temp         000000
__Ltext                                       text         000000
__Ltext0                                      text0        000000
__Ltext1                                      text1        000000
__Ltext10                                     text10       000000
__Ltext11                                     text11       000000
__Ltext12                                     text12       000000
__Ltext13                                     text13       000000
__Ltext14                                     text14       000000
__Ltext15                                     text15       000000
__Ltext16                                     text16       000000
__Ltext17                                     text17       000000
__Ltext18                                     text18       000000
__Ltext19                                     text19       000000
__Ltext2                                      text2        000000
__Ltext20                                     text20       000000
__Ltext21                                     text21       000000
__Ltext22                                     text22       000000
__Ltext23                                     text23       000000
__Ltext24                                     text24       000000
__Ltext25                                     text25       000000
__Ltext26                                     text26       000000
__Ltext27                                     text27       000000
__Ltext28                                     text28       000000
__Ltext3                                      text3        000000
__Ltext4                                      text4        000000
__Ltext5                                      text5        000000
__Ltext6                                      text6        000000
__Ltext7                                      text7        000000
__Ltext8                                      text8        000000
__Ltext9                                      text9        000000
__S0                                          (abs)        000B2A
__S1                                          (abs)        001500
__S2                                          (abs)        000000
__S4                                          (abs)        000000
__S5                                          (abs)        000000
___inthi_sp                                   stack        000000
___intlo_sp                                   stack        000000
___param_bank                                 (abs)        000000
___rparam_used                                (abs)        000001
___sp                                         stack        000000
__accesstop                                   (abs)        000560
__activetblptr                                (abs)        000002
__end_of_BOOTLOADER_Initialize                text9        000A66
__end_of_Bootload_Required                    text25       0007EC
__end_of_Calc_Checksum                        text26       00087A
__end_of_Check_Device_Reset                   text24       000AE0
__end_of_Erase_Flash                          text22       000478
__end_of_FLASH_ReadPage                       text18       000A00
__end_of_Get_Version_Data                     text21       000626
__end_of_MEMORY_ISR                           text27       000B24
__end_of_OSCILLATOR_Initialize                text8        000A9E
__end_of_PIN_MANAGER_Initialize               text7        0009B0
__end_of_PMD_Initialize                       text6        000A82
__end_of_ProcessBootBuffer                    text16       000574
__end_of_Read_Config                          text20       0008EC
__end_of_Run_Bootloader                       text10       00034E
__end_of_SYSTEM_Initialize                    text1        000ACC
__end_of_StartWrite                           text23       000AF2
__end_of_UART1_DefaultErrorHandler            text15       000B2A
__end_of_UART1_DefaultFramingErrorHandler     text14       000B28
__end_of_UART1_DefaultOverrunErrorHandler     text13       000B26
__end_of_UART1_Initialize                     text2        000954
__end_of_UART1_Read                           text12       0006C0
__end_of_UART1_SetErrorHandler                text5        000B1E
__end_of_UART1_SetFramingErrorHandler         text4        000B14
__end_of_UART1_SetOverrunErrorHandler         text3        000B0A
__end_of_UART1_Write                          text11       000AB6
__end_of_Write_Config                         text19       000758
__end_of_Write_Flash                          text17       000218
__end_of__initialization                      cinit        000A2E
__end_of_main                                 text0        000B00
__initialization                              cinit        000A00
__pbssBIGRAM                                  bssBIGRAM    0013F7
__pbssCOMRAM                                  bssCOMRAM    000529
__pcinit                                      cinit        000A00
__pcstackCOMRAM                               cstackCOMRAM 000502
__pivt0x8                                     ivt0x8       000008
__pnvCOMRAM                                   nvCOMRAM     000531
__ptext0                                      text0        000AF4
__ptext1                                      text1        000AB6
__ptext10                                     text10       000218
__ptext11                                     text11       000A9E
__ptext12                                     text12       000626
__ptext13                                     text13       000B24
__ptext14                                     text14       000B26
__ptext15                                     text15       000B28
__ptext16                                     text16       000478
__ptext17                                     text17       0000BE
__ptext18                                     text18       0009B0
__ptext19                                     text19       0006C0
__ptext2                                      text2        0008EC
__ptext20                                     text20       00087A
__ptext21                                     text21       000574
__ptext22                                     text22       00034E
__ptext23                                     text23       000AE0
__ptext24                                     text24       000ACC
__ptext25                                     text25       000758
__ptext26                                     text26       0007EC
__ptext27                                     text27       000B20
__ptext28                                     text28       000000
__ptext3                                      text3        000B00
__ptext4                                      text4        000B0A
__ptext5                                      text5        000B14
__ptext6                                      text6        000A66
__ptext7                                      text7        000954
__ptext8                                      text8        000A82
__ptext9                                      text9        000A38
__ramtop                                      ramtop       001600
__size_of_BOOTLOADER_Initialize               (abs)        000000
__size_of_Bootload_Required                   (abs)        000000
__size_of_Calc_Checksum                       (abs)        000000
__size_of_Check_Device_Reset                  (abs)        000000
__size_of_Erase_Flash                         (abs)        000000
__size_of_FLASH_ReadPage                      (abs)        000000
__size_of_Get_Version_Data                    (abs)        000000
__size_of_MEMORY_ISR                          (abs)        000000
__size_of_OSCILLATOR_Initialize               (abs)        000000
__size_of_PIN_MANAGER_Initialize              (abs)        000000
__size_of_PMD_Initialize                      (abs)        000000
__size_of_ProcessBootBuffer                   (abs)        000000
__size_of_Read_Config                         (abs)        000000
__size_of_Run_Bootloader                      (abs)        000000
__size_of_SYSTEM_Initialize                   (abs)        000000
__size_of_StartWrite                          (abs)        000000
__size_of_UART1_DefaultErrorHandler           (abs)        000000
__size_of_UART1_DefaultFramingErrorHandler    (abs)        000000
__size_of_UART1_DefaultOverrunErrorHandler    (abs)        000000
__size_of_UART1_Initialize                    (abs)        000000
__size_of_UART1_Read                          (abs)        000000
__size_of_UART1_SetErrorHandler               (abs)        000000
__size_of_UART1_SetFramingErrorHandler        (abs)        000000
__size_of_UART1_SetOverrunErrorHandler        (abs)        000000
__size_of_UART1_Write                         (abs)        000000
__size_of_Write_Config                        (abs)        000000
__size_of_Write_Flash                         (abs)        000000
__size_of_main                                (abs)        000000
_bufferRAM                                    (abs)        001500
_check_sum                                    bssCOMRAM    00052B
_counter                                      bssCOMRAM    000529
_frame                                        bssBIGRAM    0013F7
_main                                         text0        000AF4
_reset_pending                                bssCOMRAM    00052D
_rx_data                                      bssCOMRAM    00052F
_tx_data                                      bssCOMRAM    00052E
_uart1RxLastError                             bssCOMRAM    000530
end_of_initialization                         cinit        000A2E
intlevel0                                     text         000000
intlevel1                                     text         000000
intlevel2                                     text         000000
intlevel3                                     text         000000
isa$std                                       (abs)        000001
isa$xinst                                     (abs)        000000
ivt0x8_base                                   ivt0x8       000008
ivt0x8_undefint                               ivt0x8       0000B8
stackhi                                       (abs)        0013F6
stacklo                                       (abs)        000560
start                                         init         0000BA
start_initialization                          cinit        000A00


MODULE INFORMATION

Module		Function		Class		Link	Load	Size
mcc_generated_files/pin_manager.c
		_PIN_MANAGER_Initialize		CODE           	0954	0000	92

mcc_generated_files/pin_manager.c estimated size: 92

mcc_generated_files/pic18f_uart.c
		_Run_Bootloader		CODE           	0218	0000	310

mcc_generated_files/pic18f_uart.c estimated size: 310

mcc_generated_files/uart1.c
		_UART1_Write   		CODE           	0A9E	0000	24
		_UART1_SetFramingErrorHandler		CODE           	0B0A	0000	10
		_UART1_SetOverrunErrorHandler		CODE           	0B00	0000	10
		_UART1_Initialize		CODE           	08EC	0000	104
		_UART1_SetErrorHandler		CODE           	0B14	0000	10
		_UART1_Read    		CODE           	0626	0000	154
		_UART1_DefaultFramingErrorHandler		CODE           	0B26	0000	2
		_UART1_DefaultErrorHandler		CODE           	0B28	0000	2
		_UART1_DefaultOverrunErrorHandler		CODE           	0B24	0000	2

mcc_generated_files/uart1.c estimated size: 318

shared
		__initialization		CODE           	0A00	0000	46

shared estimated size: 46

mcc_generated_files/mcc.c
		_PMD_Initialize		CODE           	0A66	0000	28
		_OSCILLATOR_Initialize		CODE           	0A82	0000	28
		_SYSTEM_Initialize		CODE           	0AB6	0000	22

mcc_generated_files/mcc.c estimated size: 78

mcc_generated_files/pic18f_bootload.c
		_ProcessBootBuffer		CODE           	0478	0000	252
		_Calc_Checksum 		CODE           	07EC	0000	142
		_Write_Config  		CODE           	06C0	0000	152
		_Write_Flash   		CODE           	00BE	0000	346
		_Get_Version_Data		CODE           	0574	0000	178
		_Check_Device_Reset		CODE           	0ACC	0000	20
		_Erase_Flash   		CODE           	034E	0000	298
		_Bootload_Required		CODE           	0758	0000	148
		_Read_Config   		CODE           	087A	0000	114
		_StartWrite    		CODE           	0AE0	0000	18
		_BOOTLOADER_Initialize		CODE           	0A38	0000	46

mcc_generated_files/pic18f_bootload.c estimated size: 1714

mcc_generated_files/memory.c
		_FLASH_ReadPage		CODE           	09B0	0000	80
		_MEMORY_ISR    		CODE           	0B20	0000	4

mcc_generated_files/memory.c estimated size: 84

main.c
		_main          		CODE           	0AF4	0000	12

main.c estimated size: 12

