

Microchip MPLAB XC8 Assembler V2.32 build 20210201212658 
                                                                                               Mon Aug 23 09:13:22 2021

Microchip MPLAB XC8 C Compiler v2.32 (Free license) build 20210201212658 Og1 
     1                           	processor	18F16Q41
     2                           	fnconf	rparam,??,?,0
     3                           	pagewidth 120
     4                           	opt	flic
     5                           	psect	text0,global,reloc=4,class=CODE,delta=1
     6                           	psect	nvCOMRAM,global,class=COMRAM,space=1,delta=1,lowdata,noexec
     7                           	psect	cinit,global,reloc=2,class=CODE,delta=1
     8                           	psect	bssCOMRAM,global,class=COMRAM,space=1,delta=1,lowdata,noexec
     9                           	psect	bssBIGRAM,global,class=BIGRAM,space=1,delta=1,noexec
    10                           	psect	cstackCOMRAM,global,class=COMRAM,space=1,delta=1,lowdata,noexec
    11                           	psect	text1,global,reloc=2,class=CODE,delta=1
    12                           	psect	text2,global,reloc=2,class=CODE,delta=1
    13                           	psect	text3,global,reloc=2,class=CODE,delta=1
    14                           	psect	text4,global,reloc=2,class=CODE,delta=1
    15                           	psect	text5,global,reloc=2,class=CODE,delta=1
    16                           	psect	text6,global,reloc=2,class=CODE,delta=1
    17                           	psect	text7,global,reloc=2,class=CODE,delta=1
    18                           	psect	text8,global,reloc=2,class=CODE,delta=1
    19                           	psect	text9,global,reloc=2,class=CODE,delta=1
    20                           	psect	text10,global,reloc=2,class=CODE,delta=1
    21                           	psect	text11,global,reloc=2,class=CODE,delta=1
    22                           	psect	text12,global,reloc=2,class=CODE,delta=1
    23                           	psect	text13,global,reloc=2,class=CODE,delta=1
    24                           	psect	text14,global,reloc=2,class=CODE,delta=1
    25                           	psect	text15,global,reloc=2,class=CODE,delta=1
    26                           	psect	text16,global,reloc=2,class=CODE,delta=1
    27                           	psect	text17,global,reloc=2,class=CODE,delta=1
    28                           	psect	text18,global,reloc=2,class=CODE,delta=1
    29                           	psect	text19,global,reloc=2,class=CODE,delta=1
    30                           	psect	text20,global,reloc=2,class=CODE,delta=1
    31                           	psect	text21,global,reloc=2,class=CODE,delta=1
    32                           	psect	text22,global,reloc=2,class=CODE,delta=1
    33                           	psect	text23,global,reloc=2,class=CODE,delta=1
    34                           	psect	text24,global,reloc=2,class=CODE,delta=1
    35                           	psect	text25,global,reloc=2,class=CODE,delta=1
    36                           	psect	text26,global,reloc=2,class=CODE,delta=1
    37                           	psect	text27,global,reloc=4,class=CODE,delta=1
    38                           	psect	ivt0x8,global,reloc=2,class=CODE,delta=1,noexec,keep,optim=
    39                           	psect	intsave_regs,global,class=BIGRAM,space=1,delta=1,noexec
    40                           	psect	text28,global,reloc=4,class=CODE,delta=1
    41                           	psect	rparam,global,class=COMRAM,space=1,delta=1,noexec
    42                           	psect	idloc,global,abs,ovrld,class=IDLOC,space=5,delta=1,noexec
    43                           	psect	config,global,abs,ovrld,class=CONFIG,space=4,delta=1,noexec
    44                           	dabs	1,0x1500,2,_bufferRAM
    45                           	dabs	1,0x1500,256,_PFM_Buffer
    46                           	dabs	1,0x501,1,_EE_Key_2
    47  0000                     
    48                           ; Version 2.35
    49                           ; Generated 04/06/2021 GMT
    50                           ; 
    51                           ; Copyright © 2021, Microchip Technology Inc. and its subsidiaries ("Microchip")
    52                           ; All rights reserved.
    53                           ; 
    54                           ; This software is developed by Microchip Technology Inc. and its subsidiaries ("Microch
      +                          ip").
    55                           ; 
    56                           ; Redistribution and use in source and binary forms, with or without modification, are
    57                           ; permitted provided that the following conditions are met:
    58                           ; 
    59                           ;     1. Redistributions of source code must retain the above copyright notice, this lis
      +                          t of
    60                           ;        conditions and the following disclaimer.
    61                           ; 
    62                           ;     2. Redistributions in binary form must reproduce the above copyright notice, this 
      +                          list
    63                           ;        of conditions and the following disclaimer in the documentation and/or other
    64                           ;        materials provided with the distribution. Publication is not required when
    65                           ;        this file is used in an embedded application.
    66                           ; 
    67                           ;     3. Microchip's name may not be used to endorse or promote products derived from th
      +                          is
    68                           ;        software without specific prior written permission.
    69                           ; 
    70                           ; THIS SOFTWARE IS PROVIDED BY MICROCHIP "AS IS" AND ANY EXPRESS OR IMPLIED WARRANTIES,
    71                           ; INCLUDING, BUT NOT LIMITED TO, THE IMPLIED WARRANTIES OF MERCHANTABILITY AND FITNESS F
      +                          OR
    72                           ; PURPOSE ARE DISCLAIMED.  IN NO EVENT SHALL MICROCHIP BE LIABLE FOR ANY DIRECT, INDIREC
      +                          T,
    73                           ; INCIDENTAL, SPECIAL, EXEMPLARY, OR CONSEQUENTIAL DAMAGES (INCLUDING BUT NOT LIMITED TO
    74                           ; PROCUREMENT OF SUBSTITUTE GOODS OR SERVICES; LOSS OF USE, DATA OR PROFITS; OR BUSINESS
    75                           ; INTERRUPTION) HOWSOEVER CAUSED AND ON ANY THEORY OF LIABILITY, WHETHER IN CONTRACT, ST
      +                          RICT
    76                           ; LIABILITY, OR TORT (INCLUDING NEGLIGENCE OR OTHERWISE) ARISING IN ANY WAY OUT OF THE U
      +                          SE OF
    77                           ; THIS SOFTWARE, EVEN IF ADVISED OF THE POSSIBILITY OF SUCH DAMAGE.
    78                           ; 
    79                           ; 
    80                           ; Code-generator required, PIC18F16Q41 Definitions
    81                           ; 
    82                           ; SFR Addresses
    83  0000                     
    84                           ; 1 bytes @ 0x27
    85 ;;
    86 ;;Main: autosize = 0, tempsize = 0, incstack = 0, save=0
    87 ;;
    88 ;; *************** function _main *****************
    89 ;; Defined at:
    90 ;;		line 49 in file "main.c"
    91 ;; Parameters:    Size  Location     Type
    92 ;;		None
    93 ;; Auto vars:     Size  Location     Type
    94 ;;		None
    95 ;; Return value:  Size  Location     Type
    96 ;;                  1    wreg      void 
    97 ;; Registers used:
    98 ;;		wreg, fsr1l, fsr1h, fsr2l, fsr2h, status,2, status,0, pclath, tosl, cstack
    99 ;; Tracked objects:
   100 ;;		On entry : 0/0
   101 ;;		On exit  : 0/0
   102 ;;		Unchanged: 0/0
   103 ;; Data sizes:     COMRAM   BANK5   BANK6   BANK7   BANK8   BANK9  BANK10  BANK11  BANK12  BANK13  BANK14  BANK15  BANK1
      +6  BANK17  BANK18  BANK19  BANK20
   104 ;;      Params:         0       0       0       0       0       0       0       0       0       0       0       0       
      +0       0       0       0       0
   105 ;;      Locals:         0       0       0       0       0       0       0       0       0       0       0       0       
      +0       0       0       0       0
   106 ;;      Temps:          0       0       0       0       0       0       0       0       0       0       0       0       
      +0       0       0       0       0
   107 ;;      Totals:         0       0       0       0       0       0       0       0       0       0       0       0       
      +0       0       0       0       0
   108 ;;Total ram usage:        0 bytes
   109 ;; Hardware stack levels required when called: 7
   110 ;; This function calls:
   111 ;;		_SYSTEM_Initialize
   112 ;; This function is called by:
   113 ;;		Startup code after reset
   114 ;; This function uses a non-reentrant model
   115 ;;
   116                           
   117                           	psect	text0
   118  000AF4                     __ptext0:
   119                           	callstack 0
   120  000AF4                     _main:
   121                           	callstack 120
   122  000AF4                     
   123                           ;main.c: 52:     SYSTEM_Initialize();
   124  000AF4  EC5B  F005         	call	_SYSTEM_Initialize	;wreg free
   125  000AF8                     l468:
   126  000AF8  EF7C  F005         	goto	l468
   127  000AFC  EF5D  F000         	goto	start
   128  000B00                     __end_of_main:
   129                           	callstack 0
   130                           
   131                           	psect	nvCOMRAM
   132  000531                     __pnvCOMRAM:
   133                           	callstack 0
   134  000531                     _UART1_ErrorHandler:
   135                           	callstack 0
   136  000531                     	ds	2
   137  000533                     _UART1_OverrunErrorHandler:
   138                           	callstack 0
   139  000533                     	ds	2
   140  000535                     _UART1_FramingErrorHandler:
   141                           	callstack 0
   142  000535                     	ds	2
   143  0000                     _NVMDATL	set	70
   144  0000                     _NVMLOCK	set	66
   145  0000                     _NVMCON0bits	set	64
   146  0000                     _NVMCON1bits	set	65
   147  0000                     _NVMADRL	set	67
   148  0000                     _NVMADRH	set	68
   149  0000                     _NVMADRU	set	69
   150  0000                     _NVMCON1	set	65
   151  0000                     _PMD5	set	104
   152  0000                     _PMD4	set	103
   153  0000                     _PMD3	set	102
   154  0000                     _PMD2	set	101
   155  0000                     _PMD1	set	100
   156  0000                     _PMD0	set	99
   157  0000                     _ACTCON	set	172
   158  0000                     _OSCTUNE	set	176
   159  0000                     _OSCFRQ	set	177
   160  0000                     _OSCEN	set	179
   161  0000                     _OSCCON3	set	175
   162  0000                     _OSCCON1	set	173
   163  0000                     _U1RXPPS	set	626
   164  0000                     _RB7PPS	set	528
   165  0000                     _U1TXB	set	675
   166  0000                     _U1RXB	set	673
   167  0000                     _U1ERRIRbits	set	690
   168  0000                     _U1CON0bits	set	683
   169  0000                     _U1ERRIE	set	691
   170  0000                     _U1ERRIR	set	690
   171  0000                     _U1UIR	set	689
   172  0000                     _U1FIFO	set	688
   173  0000                     _U1BRGH	set	687
   174  0000                     _U1BRGL	set	686
   175  0000                     _U1CON2	set	685
   176  0000                     _U1CON1	set	684
   177  0000                     _U1CON0	set	683
   178  0000                     _U1P3H	set	682
   179  0000                     _U1P3L	set	681
   180  0000                     _U1P2H	set	680
   181  0000                     _U1P2L	set	679
   182  0000                     _U1P1H	set	678
   183  0000                     _U1P1L	set	677
   184  0000                     _INLVLC	set	1044
   185  0000                     _INLVLB	set	1036
   186  0000                     _INLVLA	set	1028
   187  0000                     _SLRCONC	set	1043
   188  0000                     _SLRCONB	set	1035
   189  0000                     _SLRCONA	set	1027
   190  0000                     _ODCONC	set	1042
   191  0000                     _ODCONB	set	1034
   192  0000                     _ODCONA	set	1026
   193  0000                     _WPUC	set	1041
   194  0000                     _WPUA	set	1025
   195  0000                     _WPUB	set	1033
   196  0000                     _ANSELA	set	1024
   197  0000                     _ANSELB	set	1032
   198  0000                     _ANSELC	set	1040
   199  0000                     _TBLPTR	set	1270
   200  0000                     _PIR0bits	set	1203
   201  0000                     _INTCON0bits	set	1238
   202  0000                     _TBLPTRL	set	1270
   203  0000                     _TBLPTRH	set	1271
   204  0000                     _TBLPTRU	set	1272
   205  0000                     _TABLAT	set	1269
   206  0000                     _PORTCbits	set	1232
   207  0000                     _BSR	set	1248
   208  0000                     _STKPTR	set	1276
   209  0000                     _TRISC	set	1224
   210  0000                     _TRISB	set	1223
   211  0000                     _TRISA	set	1222
   212  0000                     _LATC	set	1216
   213  0000                     _LATB	set	1215
   214  0000                     _LATA	set	1214
   215  0000                     _PIR4bits	set	1207
   216                           
   217                           ; #config settings
   218                           
   219                           	psect	cinit
   220  000A00                     __pcinit:
   221                           	callstack 0
   222  000A00                     start_initialization:
   223                           	callstack 0
   224  000A00                     __initialization:
   225                           	callstack 0
   226                           
   227                           ; Clear objects allocated to BIGRAM (265 bytes)
   228  000A00  EE04  F3F7         	lfsr	0,__pbssBIGRAM
   229  000A04  EE10 F109          	lfsr	1,265
   230  000A08                     clear_0:
   231  000A08  6AEE               	clrf	postinc0,c
   232  000A0A  50E5               	movf	postdec1,w,c
   233  000A0C  50E1               	movf	fsr1l,w,c
   234  000A0E  E1FC               	bnz	clear_0
   235  000A10  50E2               	movf	fsr1h,w,c
   236  000A12  E1FA               	bnz	clear_0
   237                           
   238                           ; Clear objects allocated to COMRAM (8 bytes)
   239  000A14  EE01  F129         	lfsr	0,__pbssCOMRAM
   240  000A18  0E08               	movlw	8
   241  000A1A                     clear_1:
   242  000A1A  6AEE               	clrf	postinc0,c
   243  000A1C  06E8               	decf	wreg,f,c
   244  000A1E  E1FD               	bnz	clear_1
   245                           
   246                           ;
   247                           ; Setup IVTBASE
   248                           ;
   249  000A20  0104               	movlb	4
   250  000A22  0E08               	movlw	(ivt0x8_base shr 0)& (0+255)
   251  000A24  6F5D               	movwf	93,b
   252  000A26  0E00               	movlw	(ivt0x8_base shr (0+8))& (0+255)
   253  000A28  6F5E               	movwf	94,b
   254  000A2A  0E00               	movlw	(ivt0x8_base shr (0+16))& (0+255)
   255  000A2C  6F5F               	movwf	95,b
   256  000A2E                     end_of_initialization:
   257                           	callstack 0
   258  000A2E                     __end_of__initialization:
   259                           	callstack 0
   260  000A2E  0E00               	movlw	low (__Lmediumconst shr (0+16))
   261  000A30  6EF8               	movwf	tblptru,c
   262  000A32  0100               	movlb	0
   263  000A34  EF7A  F005         	goto	_main	;jump to C main() function
   264                           
   265                           	psect	bssCOMRAM
   266  000529                     __pbssCOMRAM:
   267                           	callstack 0
   268  000529                     _counter:
   269                           	callstack 0
   270  000529                     	ds	2
   271  00052B                     _check_sum:
   272                           	callstack 0
   273  00052B                     	ds	2
   274  00052D                     _reset_pending:
   275                           	callstack 0
   276  00052D                     	ds	1
   277  00052E                     _tx_data:
   278                           	callstack 0
   279  00052E                     	ds	1
   280  00052F                     _rx_data:
   281                           	callstack 0
   282  00052F                     	ds	1
   283  000530                     _uart1RxLastError:
   284                           	callstack 0
   285  000530                     	ds	1
   286                           
   287                           	psect	bssBIGRAM
   288  0013F7                     __pbssBIGRAM:
   289                           	callstack 0
   290  0013F7                     _frame:
   291                           	callstack 0
   292  0013F7                     	ds	265
   293                           
   294                           	psect	cstackCOMRAM
   295  000502                     __pcstackCOMRAM:
   296                           	callstack 0
   297  000502                     ?_Calc_Checksum:
   298                           	callstack 0
   299  000502                     ?_Get_Version_Data:
   300                           	callstack 0
   301  000502                     ?_Erase_Flash:
   302                           	callstack 0
   303  000502                     ?_Read_Config:
   304                           	callstack 0
   305  000502                     ?_Write_Config:
   306                           	callstack 0
   307  000502                     UART1_Write@txData:
   308                           	callstack 0
   309  000502                     UART1_SetFramingErrorHandler@interruptHandler:
   310                           	callstack 0
   311  000502                     UART1_SetOverrunErrorHandler@interruptHandler:
   312                           	callstack 0
   313  000502                     UART1_SetErrorHandler@interruptHandler:
   314                           	callstack 0
   315  000502                     FLASH_ReadPage@flashAddr:
   316                           	callstack 0
   317                           
   318                           ; 4 bytes @ 0x0
   319  000502                     	ds	2
   320  000504                     ??_Calc_Checksum:
   321  000504                     ??_Erase_Flash:
   322  000504                     ??_Read_Config:
   323  000504                     ??_Write_Config:
   324  000504                     Get_Version_Data@i:
   325                           	callstack 0
   326                           
   327                           ; 1 bytes @ 0x2
   328  000504                     	ds	2
   329  000506                     FLASH_ReadPage@GIEBitValue:
   330                           	callstack 0
   331  000506                     Calc_Checksum@length:
   332                           	callstack 0
   333                           
   334                           ; 2 bytes @ 0x4
   335  000506                     	ds	1
   336  000507                     ?_Write_Flash:
   337                           	callstack 0
   338                           
   339                           ; 2 bytes @ 0x5
   340  000507                     	ds	1
   341  000508                     Read_Config@i:
   342                           	callstack 0
   343  000508                     Write_Config@i:
   344                           	callstack 0
   345  000508                     Calc_Checksum@i:
   346                           	callstack 0
   347                           
   348                           ; 2 bytes @ 0x6
   349  000508                     	ds	1
   350  000509                     ??_Write_Flash:
   351                           
   352                           ; 1 bytes @ 0x7
   353  000509                     	ds	1
   354  00050A                     Bootload_Required@Stored_Checksum:
   355                           	callstack 0
   356                           
   357                           ; 2 bytes @ 0x8
   358  00050A                     	ds	2
   359  00050C                     Bootload_Required@i:
   360                           	callstack 0
   361                           
   362                           ; 1 bytes @ 0xA
   363  00050C                     	ds	7
   364  000513                     Erase_Flash@address:
   365                           	callstack 0
   366                           
   367                           ; 4 bytes @ 0x11
   368  000513                     	ds	4
   369  000517                     Erase_Flash@i:
   370                           	callstack 0
   371                           
   372                           ; 2 bytes @ 0x15
   373  000517                     	ds	1
   374  000518                     Write_Flash@address:
   375                           	callstack 0
   376                           
   377                           ; 4 bytes @ 0x16
   378  000518                     	ds	1
   379  000519                     Erase_Flash@GIEBitValue:
   380                           	callstack 0
   381                           
   382                           ; 1 bytes @ 0x17
   383  000519                     	ds	1
   384  00051A                     Erase_Flash@blockStartAddr:
   385                           	callstack 0
   386                           
   387                           ; 4 bytes @ 0x18
   388  00051A                     	ds	2
   389  00051C                     Write_Flash@i:
   390                           	callstack 0
   391                           
   392                           ; 2 bytes @ 0x1A
   393  00051C                     	ds	2
   394  00051E                     ?_ProcessBootBuffer:
   395                           	callstack 0
   396                           
   397                           ; 2 bytes @ 0x1C
   398  00051E                     	ds	2
   399  000520                     ??_ProcessBootBuffer:
   400                           
   401                           ; 1 bytes @ 0x1E
   402  000520                     	ds	2
   403  000522                     ProcessBootBuffer@len:
   404                           	callstack 0
   405                           
   406                           ; 2 bytes @ 0x20
   407  000522                     	ds	2
   408  000524                     Run_Bootloader@ch:
   409                           	callstack 0
   410                           
   411                           ; 1 bytes @ 0x22
   412  000524                     	ds	1
   413  000525                     Run_Bootloader@msg_length:
   414                           	callstack 0
   415                           
   416                           ; 2 bytes @ 0x23
   417  000525                     	ds	2
   418  000527                     Run_Bootloader@index:
   419                           	callstack 0
   420                           
   421                           ; 2 bytes @ 0x25
   422  000527                     	ds	2
   423  000529                     
   424 ;; *************** function _SYSTEM_Initialize *****************
   425 ;; Defined at:
   426 ;;		line 50 in file "mcc_generated_files/mcc.c"
   427 ;; Parameters:    Size  Location     Type
   428 ;;		None
   429 ;; Auto vars:     Size  Location     Type
   430 ;;		None
   431 ;; Return value:  Size  Location     Type
   432 ;;                  1    wreg      void 
   433 ;; Registers used:
   434 ;;		wreg, fsr1l, fsr1h, fsr2l, fsr2h, status,2, status,0, pclath, tosl, cstack
   435 ;; Tracked objects:
   436 ;;		On entry : 0/0
   437 ;;		On exit  : 0/0
   438 ;;		Unchanged: 0/0
   439 ;; Data sizes:     COMRAM   BANK5   BANK6   BANK7   BANK8   BANK9  BANK10  BANK11  BANK12  BANK13  BANK14  BANK15  BANK1
      +6  BANK17  BANK18  BANK19  BANK20
   440 ;;      Params:         0       0       0       0       0       0       0       0       0       0       0       0       
      +0       0       0       0       0
   441 ;;      Locals:         0       0       0       0       0       0       0       0       0       0       0       0       
      +0       0       0       0       0
   442 ;;      Temps:          0       0       0       0       0       0       0       0       0       0       0       0       
      +0       0       0       0       0
   443 ;;      Totals:         0       0       0       0       0       0       0       0       0       0       0       0       
      +0       0       0       0       0
   444 ;;Total ram usage:        0 bytes
   445 ;; Hardware stack levels used: 1
   446 ;; Hardware stack levels required when called: 6
   447 ;; This function calls:
   448 ;;		_BOOTLOADER_Initialize
   449 ;;		_OSCILLATOR_Initialize
   450 ;;		_PIN_MANAGER_Initialize
   451 ;;		_PMD_Initialize
   452 ;;		_UART1_Initialize
   453 ;; This function is called by:
   454 ;;		_main
   455 ;; This function uses a non-reentrant model
   456 ;;
   457                           
   458                           	psect	text1
   459  000AB6                     __ptext1:
   460                           	callstack 0
   461  000AB6                     _SYSTEM_Initialize:
   462                           	callstack 120
   463  000AB6                     
   464                           ;mcc_generated_files/mcc.c: 52:     PMD_Initialize();
   465  000AB6  EC33  F005         	call	_PMD_Initialize	;wreg free
   466                           
   467                           ;mcc_generated_files/mcc.c: 53:     PIN_MANAGER_Initialize();
   468  000ABA  ECAA  F004         	call	_PIN_MANAGER_Initialize	;wreg free
   469                           
   470                           ;mcc_generated_files/mcc.c: 54:     OSCILLATOR_Initialize();
   471  000ABE  EC41  F005         	call	_OSCILLATOR_Initialize	;wreg free
   472  000AC2                     
   473                           ;mcc_generated_files/mcc.c: 55:     UART1_Initialize();
   474  000AC2  EC76  F004         	call	_UART1_Initialize	;wreg free
   475  000AC6                     
   476                           ;mcc_generated_files/mcc.c: 56:     BOOTLOADER_Initialize();
   477  000AC6  EC1C  F005         	call	_BOOTLOADER_Initialize	;wreg free
   478  000ACA  0012               	return		;funcret
   479  000ACC                     __end_of_SYSTEM_Initialize:
   480                           	callstack 0
   481                           
   482 ;; *************** function _UART1_Initialize *****************
   483 ;; Defined at:
   484 ;;		line 66 in file "mcc_generated_files/uart1.c"
   485 ;; Parameters:    Size  Location     Type
   486 ;;		None
   487 ;; Auto vars:     Size  Location     Type
   488 ;;		None
   489 ;; Return value:  Size  Location     Type
   490 ;;                  1    wreg      void 
   491 ;; Registers used:
   492 ;;		wreg, status,2, status,0, cstack
   493 ;; Tracked objects:
   494 ;;		On entry : 0/0
   495 ;;		On exit  : 0/0
   496 ;;		Unchanged: 0/0
   497 ;; Data sizes:     COMRAM   BANK5   BANK6   BANK7   BANK8   BANK9  BANK10  BANK11  BANK12  BANK13  BANK14  BANK15  BANK1
      +6  BANK17  BANK18  BANK19  BANK20
   498 ;;      Params:         0       0       0       0       0       0       0       0       0       0       0       0       
      +0       0       0       0       0
   499 ;;      Locals:         0       0       0       0       0       0       0       0       0       0       0       0       
      +0       0       0       0       0
   500 ;;      Temps:          0       0       0       0       0       0       0       0       0       0       0       0       
      +0       0       0       0       0
   501 ;;      Totals:         0       0       0       0       0       0       0       0       0       0       0       0       
      +0       0       0       0       0
   502 ;;Total ram usage:        0 bytes
   503 ;; Hardware stack levels used: 1
   504 ;; Hardware stack levels required when called: 2
   505 ;; This function calls:
   506 ;;		_UART1_SetErrorHandler
   507 ;;		_UART1_SetFramingErrorHandler
   508 ;;		_UART1_SetOverrunErrorHandler
   509 ;; This function is called by:
   510 ;;		_SYSTEM_Initialize
   511 ;; This function uses a non-reentrant model
   512 ;;
   513                           
   514                           	psect	text2
   515  0008EC                     __ptext2:
   516                           	callstack 0
   517  0008EC                     _UART1_Initialize:
   518                           	callstack 123
   519  0008EC                     
   520                           ;mcc_generated_files/uart1.c: 73:     U1P1L = 0x00;
   521  0008EC  0E00               	movlw	0
   522  0008EE  0102               	movlb	2	; () banked
   523  0008F0  6FA5               	movwf	165,b	;volatile
   524                           
   525                           ;mcc_generated_files/uart1.c: 76:     U1P1H = 0x00;
   526  0008F2  0E00               	movlw	0
   527  0008F4  6FA6               	movwf	166,b	;volatile
   528                           
   529                           ;mcc_generated_files/uart1.c: 79:     U1P2L = 0x00;
   530  0008F6  0E00               	movlw	0
   531  0008F8  6FA7               	movwf	167,b	;volatile
   532                           
   533                           ;mcc_generated_files/uart1.c: 82:     U1P2H = 0x00;
   534  0008FA  0E00               	movlw	0
   535  0008FC  6FA8               	movwf	168,b	;volatile
   536                           
   537                           ;mcc_generated_files/uart1.c: 85:     U1P3L = 0x00;
   538  0008FE  0E00               	movlw	0
   539  000900  6FA9               	movwf	169,b	;volatile
   540                           
   541                           ;mcc_generated_files/uart1.c: 88:     U1P3H = 0x00;
   542  000902  0E00               	movlw	0
   543  000904  6FAA               	movwf	170,b	;volatile
   544                           
   545                           ;mcc_generated_files/uart1.c: 91:     U1CON0 = 0xB0;
   546  000906  0EB0               	movlw	176
   547  000908  6FAB               	movwf	171,b	;volatile
   548                           
   549                           ;mcc_generated_files/uart1.c: 94:     U1CON1 = 0x80;
   550  00090A  0E80               	movlw	128
   551  00090C  6FAC               	movwf	172,b	;volatile
   552                           
   553                           ;mcc_generated_files/uart1.c: 97:     U1CON2 = 0x00;
   554  00090E  0E00               	movlw	0
   555  000910  6FAD               	movwf	173,b	;volatile
   556                           
   557                           ;mcc_generated_files/uart1.c: 100:     U1BRGL = 0x82;
   558  000912  0E82               	movlw	130
   559  000914  6FAE               	movwf	174,b	;volatile
   560                           
   561                           ;mcc_generated_files/uart1.c: 103:     U1BRGH = 0x06;
   562  000916  0E06               	movlw	6
   563  000918  6FAF               	movwf	175,b	;volatile
   564                           
   565                           ;mcc_generated_files/uart1.c: 106:     U1FIFO = 0x00;
   566  00091A  0E00               	movlw	0
   567  00091C  6FB0               	movwf	176,b	;volatile
   568                           
   569                           ;mcc_generated_files/uart1.c: 109:     U1UIR = 0x00;
   570  00091E  0E00               	movlw	0
   571  000920  6FB1               	movwf	177,b	;volatile
   572                           
   573                           ;mcc_generated_files/uart1.c: 112:     U1ERRIR = 0x00;
   574  000922  0E00               	movlw	0
   575  000924  6FB2               	movwf	178,b	;volatile
   576                           
   577                           ;mcc_generated_files/uart1.c: 115:     U1ERRIE = 0x00;
   578  000926  0E00               	movlw	0
   579  000928  6FB3               	movwf	179,b	;volatile
   580  00092A                     
   581                           ; BSR set to: 2
   582                           ;mcc_generated_files/uart1.c: 118:     UART1_SetFramingErrorHandler(UART1_DefaultFraming
      +                          ErrorHandler);
   583  00092A  0E26               	movlw	low _UART1_DefaultFramingErrorHandler
   584  00092C  6E02               	movwf	UART1_SetFramingErrorHandler@interruptHandler^(0+1280),c
   585  00092E  0E0B               	movlw	high _UART1_DefaultFramingErrorHandler
   586  000930  6E03               	movwf	(UART1_SetFramingErrorHandler@interruptHandler+1)^(0+1280),c
   587  000932  EC85  F005         	call	_UART1_SetFramingErrorHandler	;wreg free
   588  000936                     
   589                           ;mcc_generated_files/uart1.c: 119:     UART1_SetOverrunErrorHandler(UART1_DefaultOverrun
      +                          ErrorHandler);
   590  000936  0E24               	movlw	low _UART1_DefaultOverrunErrorHandler
   591  000938  6E02               	movwf	UART1_SetOverrunErrorHandler@interruptHandler^(0+1280),c
   592  00093A  0E0B               	movlw	high _UART1_DefaultOverrunErrorHandler
   593  00093C  6E03               	movwf	(UART1_SetOverrunErrorHandler@interruptHandler+1)^(0+1280),c
   594  00093E  EC80  F005         	call	_UART1_SetOverrunErrorHandler	;wreg free
   595  000942                     
   596                           ;mcc_generated_files/uart1.c: 120:     UART1_SetErrorHandler(UART1_DefaultErrorHandler);
   597  000942  0E28               	movlw	low _UART1_DefaultErrorHandler
   598  000944  6E02               	movwf	UART1_SetErrorHandler@interruptHandler^(0+1280),c
   599  000946  0E0B               	movlw	high _UART1_DefaultErrorHandler
   600  000948  6E03               	movwf	(UART1_SetErrorHandler@interruptHandler+1)^(0+1280),c
   601  00094A  EC8A  F005         	call	_UART1_SetErrorHandler	;wreg free
   602  00094E                     
   603                           ;mcc_generated_files/uart1.c: 122:     uart1RxLastError.status = 0;
   604  00094E  0E00               	movlw	0
   605  000950  6E30               	movwf	_uart1RxLastError^(0+1280),c	;volatile
   606  000952  0012               	return		;funcret
   607  000954                     __end_of_UART1_Initialize:
   608                           	callstack 0
   609                           
   610 ;; *************** function _UART1_SetOverrunErrorHandler *****************
   611 ;; Defined at:
   612 ;;		line 194 in file "mcc_generated_files/uart1.c"
   613 ;; Parameters:    Size  Location     Type
   614 ;;  interruptHan    2    0[COMRAM] PTR FTN()void 
   615 ;;		 -> UART1_DefaultOverrunErrorHandler(1), 
   616 ;; Auto vars:     Size  Location     Type
   617 ;;		None
   618 ;; Return value:  Size  Location     Type
   619 ;;                  1    wreg      void 
   620 ;; Registers used:
   621 ;;		wreg, status,2, status,0
   622 ;; Tracked objects:
   623 ;;		On entry : 0/0
   624 ;;		On exit  : 0/0
   625 ;;		Unchanged: 0/0
   626 ;; Data sizes:     COMRAM   BANK5   BANK6   BANK7   BANK8   BANK9  BANK10  BANK11  BANK12  BANK13  BANK14  BANK15  BANK1
      +6  BANK17  BANK18  BANK19  BANK20
   627 ;;      Params:         2       0       0       0       0       0       0       0       0       0       0       0       
      +0       0       0       0       0
   628 ;;      Locals:         0       0       0       0       0       0       0       0       0       0       0       0       
      +0       0       0       0       0
   629 ;;      Temps:          0       0       0       0       0       0       0       0       0       0       0       0       
      +0       0       0       0       0
   630 ;;      Totals:         2       0       0       0       0       0       0       0       0       0       0       0       
      +0       0       0       0       0
   631 ;;Total ram usage:        2 bytes
   632 ;; Hardware stack levels used: 1
   633 ;; Hardware stack levels required when called: 1
   634 ;; This function calls:
   635 ;;		Nothing
   636 ;; This function is called by:
   637 ;;		_UART1_Initialize
   638 ;; This function uses a non-reentrant model
   639 ;;
   640                           
   641                           	psect	text3
   642  000B00                     __ptext3:
   643                           	callstack 0
   644  000B00                     _UART1_SetOverrunErrorHandler:
   645                           	callstack 123
   646  000B00                     
   647                           ;mcc_generated_files/uart1.c: 195:     UART1_OverrunErrorHandler = interruptHandler;
   648  000B00  C502  F533         	movff	UART1_SetOverrunErrorHandler@interruptHandler,_UART1_OverrunErrorHandler
   649  000B04  C503  F534         	movff	UART1_SetOverrunErrorHandler@interruptHandler+1,_UART1_OverrunErrorHandler+1
   650  000B08  0012               	return		;funcret
   651  000B0A                     __end_of_UART1_SetOverrunErrorHandler:
   652                           	callstack 0
   653                           
   654 ;; *************** function _UART1_SetFramingErrorHandler *****************
   655 ;; Defined at:
   656 ;;		line 190 in file "mcc_generated_files/uart1.c"
   657 ;; Parameters:    Size  Location     Type
   658 ;;  interruptHan    2    0[COMRAM] PTR FTN()void 
   659 ;;		 -> UART1_DefaultFramingErrorHandler(1), 
   660 ;; Auto vars:     Size  Location     Type
   661 ;;		None
   662 ;; Return value:  Size  Location     Type
   663 ;;                  1    wreg      void 
   664 ;; Registers used:
   665 ;;		wreg, status,2, status,0
   666 ;; Tracked objects:
   667 ;;		On entry : 0/0
   668 ;;		On exit  : 0/0
   669 ;;		Unchanged: 0/0
   670 ;; Data sizes:     COMRAM   BANK5   BANK6   BANK7   BANK8   BANK9  BANK10  BANK11  BANK12  BANK13  BANK14  BANK15  BANK1
      +6  BANK17  BANK18  BANK19  BANK20
   671 ;;      Params:         2       0       0       0       0       0       0       0       0       0       0       0       
      +0       0       0       0       0
   672 ;;      Locals:         0       0       0       0       0       0       0       0       0       0       0       0       
      +0       0       0       0       0
   673 ;;      Temps:          0       0       0       0       0       0       0       0       0       0       0       0       
      +0       0       0       0       0
   674 ;;      Totals:         2       0       0       0       0       0       0       0       0       0       0       0       
      +0       0       0       0       0
   675 ;;Total ram usage:        2 bytes
   676 ;; Hardware stack levels used: 1
   677 ;; Hardware stack levels required when called: 1
   678 ;; This function calls:
   679 ;;		Nothing
   680 ;; This function is called by:
   681 ;;		_UART1_Initialize
   682 ;; This function uses a non-reentrant model
   683 ;;
   684                           
   685                           	psect	text4
   686  000B0A                     __ptext4:
   687                           	callstack 0
   688  000B0A                     _UART1_SetFramingErrorHandler:
   689                           	callstack 123
   690  000B0A                     
   691                           ;mcc_generated_files/uart1.c: 191:     UART1_FramingErrorHandler = interruptHandler;
   692  000B0A  C502  F535         	movff	UART1_SetFramingErrorHandler@interruptHandler,_UART1_FramingErrorHandler
   693  000B0E  C503  F536         	movff	UART1_SetFramingErrorHandler@interruptHandler+1,_UART1_FramingErrorHandler+1
   694  000B12  0012               	return		;funcret
   695  000B14                     __end_of_UART1_SetFramingErrorHandler:
   696                           	callstack 0
   697                           
   698 ;; *************** function _UART1_SetErrorHandler *****************
   699 ;; Defined at:
   700 ;;		line 198 in file "mcc_generated_files/uart1.c"
   701 ;; Parameters:    Size  Location     Type
   702 ;;  interruptHan    2    0[COMRAM] PTR FTN()void 
   703 ;;		 -> UART1_DefaultErrorHandler(1), 
   704 ;; Auto vars:     Size  Location     Type
   705 ;;		None
   706 ;; Return value:  Size  Location     Type
   707 ;;                  1    wreg      void 
   708 ;; Registers used:
   709 ;;		wreg, status,2, status,0
   710 ;; Tracked objects:
   711 ;;		On entry : 0/0
   712 ;;		On exit  : 0/0
   713 ;;		Unchanged: 0/0
   714 ;; Data sizes:     COMRAM   BANK5   BANK6   BANK7   BANK8   BANK9  BANK10  BANK11  BANK12  BANK13  BANK14  BANK15  BANK1
      +6  BANK17  BANK18  BANK19  BANK20
   715 ;;      Params:         2       0       0       0       0       0       0       0       0       0       0       0       
      +0       0       0       0       0
   716 ;;      Locals:         0       0       0       0       0       0       0       0       0       0       0       0       
      +0       0       0       0       0
   717 ;;      Temps:          0       0       0       0       0       0       0       0       0       0       0       0       
      +0       0       0       0       0
   718 ;;      Totals:         2       0       0       0       0       0       0       0       0       0       0       0       
      +0       0       0       0       0
   719 ;;Total ram usage:        2 bytes
   720 ;; Hardware stack levels used: 1
   721 ;; Hardware stack levels required when called: 1
   722 ;; This function calls:
   723 ;;		Nothing
   724 ;; This function is called by:
   725 ;;		_UART1_Initialize
   726 ;; This function uses a non-reentrant model
   727 ;;
   728                           
   729                           	psect	text5
   730  000B14                     __ptext5:
   731                           	callstack 0
   732  000B14                     _UART1_SetErrorHandler:
   733                           	callstack 123
   734  000B14                     
   735                           ;mcc_generated_files/uart1.c: 199:     UART1_ErrorHandler = interruptHandler;
   736  000B14  C502  F531         	movff	UART1_SetErrorHandler@interruptHandler,_UART1_ErrorHandler
   737  000B18  C503  F532         	movff	UART1_SetErrorHandler@interruptHandler+1,_UART1_ErrorHandler+1
   738  000B1C  0012               	return		;funcret
   739  000B1E                     __end_of_UART1_SetErrorHandler:
   740                           	callstack 0
   741                           
   742 ;; *************** function _PMD_Initialize *****************
   743 ;; Defined at:
   744 ;;		line 75 in file "mcc_generated_files/mcc.c"
   745 ;; Parameters:    Size  Location     Type
   746 ;;		None
   747 ;; Auto vars:     Size  Location     Type
   748 ;;		None
   749 ;; Return value:  Size  Location     Type
   750 ;;                  1    wreg      void 
   751 ;; Registers used:
   752 ;;		wreg, status,2
   753 ;; Tracked objects:
   754 ;;		On entry : 0/0
   755 ;;		On exit  : 0/0
   756 ;;		Unchanged: 0/0
   757 ;; Data sizes:     COMRAM   BANK5   BANK6   BANK7   BANK8   BANK9  BANK10  BANK11  BANK12  BANK13  BANK14  BANK15  BANK1
      +6  BANK17  BANK18  BANK19  BANK20
   758 ;;      Params:         0       0       0       0       0       0       0       0       0       0       0       0       
      +0       0       0       0       0
   759 ;;      Locals:         0       0       0       0       0       0       0       0       0       0       0       0       
      +0       0       0       0       0
   760 ;;      Temps:          0       0       0       0       0       0       0       0       0       0       0       0       
      +0       0       0       0       0
   761 ;;      Totals:         0       0       0       0       0       0       0       0       0       0       0       0       
      +0       0       0       0       0
   762 ;;Total ram usage:        0 bytes
   763 ;; Hardware stack levels used: 1
   764 ;; Hardware stack levels required when called: 1
   765 ;; This function calls:
   766 ;;		Nothing
   767 ;; This function is called by:
   768 ;;		_SYSTEM_Initialize
   769 ;; This function uses a non-reentrant model
   770 ;;
   771                           
   772                           	psect	text6
   773  000A66                     __ptext6:
   774                           	callstack 0
   775  000A66                     _PMD_Initialize:
   776                           	callstack 124
   777  000A66                     
   778                           ;mcc_generated_files/mcc.c: 78:     PMD0 = 0x00;
   779  000A66  0E00               	movlw	0
   780  000A68  0100               	movlb	0	; () banked
   781  000A6A  6F63               	movwf	99,b	;volatile
   782                           
   783                           ;mcc_generated_files/mcc.c: 80:     PMD1 = 0x00;
   784  000A6C  0E00               	movlw	0
   785  000A6E  6F64               	movwf	100,b	;volatile
   786                           
   787                           ;mcc_generated_files/mcc.c: 82:     PMD2 = 0x00;
   788  000A70  0E00               	movlw	0
   789  000A72  6F65               	movwf	101,b	;volatile
   790                           
   791                           ;mcc_generated_files/mcc.c: 84:     PMD3 = 0x00;
   792  000A74  0E00               	movlw	0
   793  000A76  6F66               	movwf	102,b	;volatile
   794                           
   795                           ;mcc_generated_files/mcc.c: 86:     PMD4 = 0x00;
   796  000A78  0E00               	movlw	0
   797  000A7A  6F67               	movwf	103,b	;volatile
   798                           
   799                           ;mcc_generated_files/mcc.c: 88:     PMD5 = 0x00;
   800  000A7C  0E00               	movlw	0
   801  000A7E  6F68               	movwf	104,b	;volatile
   802  000A80                     
   803                           ; BSR set to: 0
   804  000A80  0012               	return		;funcret
   805  000A82                     __end_of_PMD_Initialize:
   806                           	callstack 0
   807                           
   808 ;; *************** function _PIN_MANAGER_Initialize *****************
   809 ;; Defined at:
   810 ;;		line 55 in file "mcc_generated_files/pin_manager.c"
   811 ;; Parameters:    Size  Location     Type
   812 ;;		None
   813 ;; Auto vars:     Size  Location     Type
   814 ;;		None
   815 ;; Return value:  Size  Location     Type
   816 ;;                  1    wreg      void 
   817 ;; Registers used:
   818 ;;		wreg, status,2
   819 ;; Tracked objects:
   820 ;;		On entry : 0/0
   821 ;;		On exit  : 0/0
   822 ;;		Unchanged: 0/0
   823 ;; Data sizes:     COMRAM   BANK5   BANK6   BANK7   BANK8   BANK9  BANK10  BANK11  BANK12  BANK13  BANK14  BANK15  BANK1
      +6  BANK17  BANK18  BANK19  BANK20
   824 ;;      Params:         0       0       0       0       0       0       0       0       0       0       0       0       
      +0       0       0       0       0
   825 ;;      Locals:         0       0       0       0       0       0       0       0       0       0       0       0       
      +0       0       0       0       0
   826 ;;      Temps:          0       0       0       0       0       0       0       0       0       0       0       0       
      +0       0       0       0       0
   827 ;;      Totals:         0       0       0       0       0       0       0       0       0       0       0       0       
      +0       0       0       0       0
   828 ;;Total ram usage:        0 bytes
   829 ;; Hardware stack levels used: 1
   830 ;; Hardware stack levels required when called: 1
   831 ;; This function calls:
   832 ;;		Nothing
   833 ;; This function is called by:
   834 ;;		_SYSTEM_Initialize
   835 ;; This function uses a non-reentrant model
   836 ;;
   837                           
   838                           	psect	text7
   839  000954                     __ptext7:
   840                           	callstack 0
   841  000954                     _PIN_MANAGER_Initialize:
   842                           	callstack 124
   843  000954                     
   844                           ;mcc_generated_files/pin_manager.c: 60:     LATA = 0x00;
   845  000954  0E00               	movlw	0
   846  000956  6EBE               	movwf	190,c	;volatile
   847                           
   848                           ;mcc_generated_files/pin_manager.c: 61:     LATB = 0x00;
   849  000958  0E00               	movlw	0
   850  00095A  6EBF               	movwf	191,c	;volatile
   851                           
   852                           ;mcc_generated_files/pin_manager.c: 62:     LATC = 0x00;
   853  00095C  0E00               	movlw	0
   854  00095E  6EC0               	movwf	192,c	;volatile
   855                           
   856                           ;mcc_generated_files/pin_manager.c: 67:     TRISA = 0x3F;
   857  000960  0E3F               	movlw	63
   858  000962  6EC6               	movwf	198,c	;volatile
   859                           
   860                           ;mcc_generated_files/pin_manager.c: 68:     TRISB = 0x70;
   861  000964  0E70               	movlw	112
   862  000966  6EC7               	movwf	199,c	;volatile
   863  000968                     
   864                           ;mcc_generated_files/pin_manager.c: 69:     TRISC = 0xFF;
   865  000968  68C8               	setf	200,c	;volatile
   866                           
   867                           ;mcc_generated_files/pin_manager.c: 74:     ANSELC = 0xFE;
   868  00096A  0EFE               	movlw	254
   869  00096C  0104               	movlb	4	; () banked
   870  00096E  6F10               	movwf	16,b	;volatile
   871                           
   872                           ;mcc_generated_files/pin_manager.c: 75:     ANSELB = 0x50;
   873  000970  0E50               	movlw	80
   874  000972  6F08               	movwf	8,b	;volatile
   875                           
   876                           ;mcc_generated_files/pin_manager.c: 76:     ANSELA = 0x37;
   877  000974  0E37               	movlw	55
   878  000976  6F00               	movwf	0,b	;volatile
   879                           
   880                           ;mcc_generated_files/pin_manager.c: 81:     WPUB = 0x00;
   881  000978  0E00               	movlw	0
   882  00097A  6F09               	movwf	9,b	;volatile
   883                           
   884                           ;mcc_generated_files/pin_manager.c: 82:     WPUA = 0x00;
   885  00097C  0E00               	movlw	0
   886  00097E  6F01               	movwf	1,b	;volatile
   887                           
   888                           ;mcc_generated_files/pin_manager.c: 83:     WPUC = 0x01;
   889  000980  0E01               	movlw	1
   890  000982  6F11               	movwf	17,b	;volatile
   891                           
   892                           ;mcc_generated_files/pin_manager.c: 88:     ODCONA = 0x00;
   893  000984  0E00               	movlw	0
   894  000986  6F02               	movwf	2,b	;volatile
   895                           
   896                           ;mcc_generated_files/pin_manager.c: 89:     ODCONB = 0x00;
   897  000988  0E00               	movlw	0
   898  00098A  6F0A               	movwf	10,b	;volatile
   899                           
   900                           ;mcc_generated_files/pin_manager.c: 90:     ODCONC = 0x00;
   901  00098C  0E00               	movlw	0
   902  00098E  6F12               	movwf	18,b	;volatile
   903                           
   904                           ;mcc_generated_files/pin_manager.c: 95:     SLRCONA = 0x37;
   905  000990  0E37               	movlw	55
   906  000992  6F03               	movwf	3,b	;volatile
   907                           
   908                           ;mcc_generated_files/pin_manager.c: 96:     SLRCONB = 0xF0;
   909  000994  0EF0               	movlw	240
   910  000996  6F0B               	movwf	11,b	;volatile
   911  000998                     
   912                           ; BSR set to: 4
   913                           ;mcc_generated_files/pin_manager.c: 97:     SLRCONC = 0xFF;
   914  000998  6913               	setf	19,b	;volatile
   915                           
   916                           ;mcc_generated_files/pin_manager.c: 102:     INLVLA = 0x3F;
   917  00099A  0E3F               	movlw	63
   918  00099C  6F04               	movwf	4,b	;volatile
   919                           
   920                           ;mcc_generated_files/pin_manager.c: 103:     INLVLB = 0xF0;
   921  00099E  0EF0               	movlw	240
   922  0009A0  6F0C               	movwf	12,b	;volatile
   923  0009A2                     
   924                           ; BSR set to: 4
   925                           ;mcc_generated_files/pin_manager.c: 104:     INLVLC = 0xFF;
   926  0009A2  6914               	setf	20,b	;volatile
   927                           
   928                           ;mcc_generated_files/pin_manager.c: 113:     RB7PPS = 0x10;
   929  0009A4  0E10               	movlw	16
   930  0009A6  0102               	movlb	2	; () banked
   931  0009A8  6F10               	movwf	16,b	;volatile
   932                           
   933                           ;mcc_generated_files/pin_manager.c: 114:     U1RXPPS = 0x0D;
   934  0009AA  0E0D               	movlw	13
   935  0009AC  6F72               	movwf	114,b	;volatile
   936  0009AE                     
   937                           ; BSR set to: 2
   938  0009AE  0012               	return		;funcret
   939  0009B0                     __end_of_PIN_MANAGER_Initialize:
   940                           	callstack 0
   941                           
   942 ;; *************** function _OSCILLATOR_Initialize *****************
   943 ;; Defined at:
   944 ;;		line 59 in file "mcc_generated_files/mcc.c"
   945 ;; Parameters:    Size  Location     Type
   946 ;;		None
   947 ;; Auto vars:     Size  Location     Type
   948 ;;		None
   949 ;; Return value:  Size  Location     Type
   950 ;;                  1    wreg      void 
   951 ;; Registers used:
   952 ;;		wreg, status,2
   953 ;; Tracked objects:
   954 ;;		On entry : 0/0
   955 ;;		On exit  : 0/0
   956 ;;		Unchanged: 0/0
   957 ;; Data sizes:     COMRAM   BANK5   BANK6   BANK7   BANK8   BANK9  BANK10  BANK11  BANK12  BANK13  BANK14  BANK15  BANK1
      +6  BANK17  BANK18  BANK19  BANK20
   958 ;;      Params:         0       0       0       0       0       0       0       0       0       0       0       0       
      +0       0       0       0       0
   959 ;;      Locals:         0       0       0       0       0       0       0       0       0       0       0       0       
      +0       0       0       0       0
   960 ;;      Temps:          0       0       0       0       0       0       0       0       0       0       0       0       
      +0       0       0       0       0
   961 ;;      Totals:         0       0       0       0       0       0       0       0       0       0       0       0       
      +0       0       0       0       0
   962 ;;Total ram usage:        0 bytes
   963 ;; Hardware stack levels used: 1
   964 ;; Hardware stack levels required when called: 1
   965 ;; This function calls:
   966 ;;		Nothing
   967 ;; This function is called by:
   968 ;;		_SYSTEM_Initialize
   969 ;; This function uses a non-reentrant model
   970 ;;
   971                           
   972                           	psect	text8
   973  000A82                     __ptext8:
   974                           	callstack 0
   975  000A82                     _OSCILLATOR_Initialize:
   976                           	callstack 124
   977  000A82                     
   978                           ;mcc_generated_files/mcc.c: 62:     OSCCON1 = 0x60;
   979  000A82  0E60               	movlw	96
   980  000A84  0100               	movlb	0	; () banked
   981  000A86  6FAD               	movwf	173,b	;volatile
   982                           
   983                           ;mcc_generated_files/mcc.c: 64:     OSCCON3 = 0x00;
   984  000A88  0E00               	movlw	0
   985  000A8A  6FAF               	movwf	175,b	;volatile
   986                           
   987                           ;mcc_generated_files/mcc.c: 66:     OSCEN = 0x00;
   988  000A8C  0E00               	movlw	0
   989  000A8E  6FB3               	movwf	179,b	;volatile
   990                           
   991                           ;mcc_generated_files/mcc.c: 68:     OSCFRQ = 0x08;
   992  000A90  0E08               	movlw	8
   993  000A92  6FB1               	movwf	177,b	;volatile
   994                           
   995                           ;mcc_generated_files/mcc.c: 70:     OSCTUNE = 0x00;
   996  000A94  0E00               	movlw	0
   997  000A96  6FB0               	movwf	176,b	;volatile
   998                           
   999                           ;mcc_generated_files/mcc.c: 72:     ACTCON = 0x00;
  1000  000A98  0E00               	movlw	0
  1001  000A9A  6FAC               	movwf	172,b	;volatile
  1002  000A9C                     
  1003                           ; BSR set to: 0
  1004  000A9C  0012               	return		;funcret
  1005  000A9E                     __end_of_OSCILLATOR_Initialize:
  1006                           	callstack 0
  1007                           
  1008 ;; *************** function _BOOTLOADER_Initialize *****************
  1009 ;; Defined at:
  1010 ;;		line 123 in file "mcc_generated_files/pic18f_bootload.c"
  1011 ;; Parameters:    Size  Location     Type
  1012 ;;		None
  1013 ;; Auto vars:     Size  Location     Type
  1014 ;;		None
  1015 ;; Return value:  Size  Location     Type
  1016 ;;                  1    wreg      void 
  1017 ;; Registers used:
  1018 ;;		wreg, fsr1l, fsr1h, fsr2l, fsr2h, status,2, status,0, pclath, tosl, cstack
  1019 ;; Tracked objects:
  1020 ;;		On entry : 0/0
  1021 ;;		On exit  : 0/0
  1022 ;;		Unchanged: 0/0
  1023 ;; Data sizes:     COMRAM   BANK5   BANK6   BANK7   BANK8   BANK9  BANK10  BANK11  BANK12  BANK13  BANK14  BANK15  BANK1
      +6  BANK17  BANK18  BANK19  BANK20
  1024 ;;      Params:         0       0       0       0       0       0       0       0       0       0       0       0       
      +0       0       0       0       0
  1025 ;;      Locals:         0       0       0       0       0       0       0       0       0       0       0       0       
      +0       0       0       0       0
  1026 ;;      Temps:          0       0       0       0       0       0       0       0       0       0       0       0       
      +0       0       0       0       0
  1027 ;;      Totals:         0       0       0       0       0       0       0       0       0       0       0       0       
      +0       0       0       0       0
  1028 ;;Total ram usage:        0 bytes
  1029 ;; Hardware stack levels used: 1
  1030 ;; Hardware stack levels required when called: 5
  1031 ;; This function calls:
  1032 ;;		_Bootload_Required
  1033 ;;		_Run_Bootloader
  1034 ;; This function is called by:
  1035 ;;		_SYSTEM_Initialize
  1036 ;; This function uses a non-reentrant model
  1037 ;;
  1038                           
  1039                           	psect	text9
  1040  000A38                     __ptext9:
  1041                           	callstack 0
  1042  000A38                     _BOOTLOADER_Initialize:
  1043                           	callstack 120
  1044  000A38                     
  1045                           ;mcc_generated_files/pic18f_bootload.c: 125:     EE_Key_1 = 0;
  1046  000A38  0E00               	movlw	0
  1047  000A3A  6E00               	movwf	0,c
  1048                           
  1049                           ;mcc_generated_files/pic18f_bootload.c: 126:     EE_Key_2 = 0;
  1050  000A3C  0E00               	movlw	0
  1051  000A3E  6E01               	movwf	1,c
  1052  000A40                     
  1053                           ;mcc_generated_files/pic18f_bootload.c: 127:     if (Bootload_Required () == 1)
  1054  000A40  ECAC  F003         	call	_Bootload_Required	;wreg free
  1055  000A44  06E8               	decf	wreg,f,c
  1056  000A46  A4D8               	btfss	status,2,c
  1057  000A48  EF28  F005         	goto	u691
  1058  000A4C  EF2A  F005         	goto	u690
  1059  000A50                     u691:
  1060  000A50  EF2C  F005         	goto	l1943
  1061  000A54                     u690:
  1062  000A54                     
  1063                           ;mcc_generated_files/pic18f_bootload.c: 128:     {;mcc_generated_files/pic18f_bootload.c
      +                          : 129:         Run_Bootloader ();
  1064  000A54  EC0C  F001         	call	_Run_Bootloader	;wreg free
  1065  000A58                     l1943:
  1066                           
  1067                           ;mcc_generated_files/pic18f_bootload.c: 131:     STKPTR = 0x00;
  1068  000A58  0E00               	movlw	0
  1069  000A5A  6EFC               	movwf	252,c	;volatile
  1070  000A5C                     
  1071                           ;mcc_generated_files/pic18f_bootload.c: 132:  BSR = 0x00;
  1072  000A5C  0E00               	movlw	0
  1073  000A5E  6EE0               	movwf	224,c	;volatile
  1074  000A60  EF80 F006          	goto	3328	;# 
  1075  000A64  0012               	return		;funcret
  1076  000A66                     __end_of_BOOTLOADER_Initialize:
  1077                           	callstack 0
  1078                           
  1079 ;; *************** function _Run_Bootloader *****************
  1080 ;; Defined at:
  1081 ;;		line 57 in file "mcc_generated_files/pic18f_uart.c"
  1082 ;; Parameters:    Size  Location     Type
  1083 ;;		None
  1084 ;; Auto vars:     Size  Location     Type
  1085 ;;  ch              1   34[COMRAM] unsigned char 
  1086 ;;  index           2   37[COMRAM] volatile unsigned short 
  1087 ;;  msg_length      2   35[COMRAM] unsigned short 
  1088 ;; Return value:  Size  Location     Type
  1089 ;;                  1    wreg      void 
  1090 ;; Registers used:
  1091 ;;		wreg, fsr1l, fsr1h, fsr2l, fsr2h, status,2, status,0, pclath, tosl, cstack
  1092 ;; Tracked objects:
  1093 ;;		On entry : 0/0
  1094 ;;		On exit  : 0/0
  1095 ;;		Unchanged: 0/0
  1096 ;; Data sizes:     COMRAM   BANK5   BANK6   BANK7   BANK8   BANK9  BANK10  BANK11  BANK12  BANK13  BANK14  BANK15  BANK1
      +6  BANK17  BANK18  BANK19  BANK20
  1097 ;;      Params:         0       0       0       0       0       0       0       0       0       0       0       0       
      +0       0       0       0       0
  1098 ;;      Locals:         5       0       0       0       0       0       0       0       0       0       0       0       
      +0       0       0       0       0
  1099 ;;      Temps:          0       0       0       0       0       0       0       0       0       0       0       0       
      +0       0       0       0       0
  1100 ;;      Totals:         5       0       0       0       0       0       0       0       0       0       0       0       
      +0       0       0       0       0
  1101 ;;Total ram usage:        5 bytes
  1102 ;; Hardware stack levels used: 1
  1103 ;; Hardware stack levels required when called: 4
  1104 ;; This function calls:
  1105 ;;		_Check_Device_Reset
  1106 ;;		_ProcessBootBuffer
  1107 ;;		_UART1_Read
  1108 ;;		_UART1_Write
  1109 ;; This function is called by:
  1110 ;;		_BOOTLOADER_Initialize
  1111 ;; This function uses a non-reentrant model
  1112 ;;
  1113                           
  1114                           	psect	text10
  1115  000218                     __ptext10:
  1116                           	callstack 0
  1117  000218                     _Run_Bootloader:
  1118                           	callstack 120
  1119  000218                     l179:
  1120  000218                     l180:
  1121  000218  0102               	movlb	2	; () banked
  1122  00021A  AFB2               	btfss	178,7,b	;volatile
  1123  00021C  EF12  F001         	goto	u571
  1124  000220  EF14  F001         	goto	u570
  1125  000224                     u571:
  1126  000224  EF0C  F001         	goto	l180
  1127  000228                     u570:
  1128  000228                     
  1129                           ; BSR set to: 2
  1130                           ;mcc_generated_files/pic18f_uart.c: 66:         Check_Device_Reset ();
  1131  000228  EC66  F005         	call	_Check_Device_Reset	;wreg free
  1132  00022C                     
  1133                           ;mcc_generated_files/pic18f_uart.c: 71:         U1CON0bits.ABDEN = 1;
  1134  00022C  0102               	movlb	2	; () banked
  1135  00022E  8DAB               	bsf	171,6,b	;volatile
  1136                           
  1137                           ;mcc_generated_files/pic18f_uart.c: 72:         while (U1CON0bits.ABDEN == 1)
  1138  000230  EF24  F001         	goto	l183
  1139  000234                     l184:
  1140                           
  1141                           ; BSR set to: 2
  1142                           ;mcc_generated_files/pic18f_uart.c: 73:         {;mcc_generated_files/pic18f_uart.c: 74:
      +                                       if (U1ERRIRbits.ABDOVF == 1)
  1143  000234  ABB2               	btfss	178,5,b	;volatile
  1144  000236  EF1F  F001         	goto	u581
  1145  00023A  EF21  F001         	goto	u580
  1146  00023E                     u581:
  1147  00023E  EF24  F001         	goto	l183
  1148  000242                     u580:
  1149  000242                     
  1150                           ; BSR set to: 2
  1151                           ;mcc_generated_files/pic18f_uart.c: 75:             {;mcc_generated_files/pic18f_uart.c:
      +                           76:                 U1CON0bits.ABDEN = 0;
  1152  000242  9DAB               	bcf	171,6,b	;volatile
  1153                           
  1154                           ;mcc_generated_files/pic18f_uart.c: 77:                 U1ERRIRbits.ABDOVF = 0;
  1155  000244  9BB2               	bcf	178,5,b	;volatile
  1156                           
  1157                           ;mcc_generated_files/pic18f_uart.c: 78:                 U1CON0bits.ABDEN = 1;
  1158  000246  8DAB               	bsf	171,6,b	;volatile
  1159  000248                     l183:
  1160                           
  1161                           ; BSR set to: 2
  1162                           ;mcc_generated_files/pic18f_uart.c: 72:         while (U1CON0bits.ABDEN == 1)
  1163  000248  BDAB               	btfsc	171,6,b	;volatile
  1164  00024A  EF29  F001         	goto	u591
  1165  00024E  EF2B  F001         	goto	u590
  1166  000252                     u591:
  1167  000252  EF1A  F001         	goto	l184
  1168  000256                     u590:
  1169  000256                     
  1170                           ; BSR set to: 2
  1171                           ;mcc_generated_files/pic18f_uart.c: 86:         index = 0;
  1172  000256  0E00               	movlw	0
  1173  000258  6E28               	movwf	(Run_Bootloader@index+1)^(0+1280),c	;volatile
  1174  00025A  0E00               	movlw	0
  1175  00025C  6E27               	movwf	Run_Bootloader@index^(0+1280),c	;volatile
  1176                           
  1177                           ;mcc_generated_files/pic18f_uart.c: 87:         msg_length = 9;
  1178  00025E  0E00               	movlw	0
  1179  000260  6E26               	movwf	(Run_Bootloader@msg_length+1)^(0+1280),c
  1180  000262  0E09               	movlw	9
  1181  000264  6E25               	movwf	Run_Bootloader@msg_length^(0+1280),c
  1182                           
  1183                           ;mcc_generated_files/pic18f_uart.c: 88:         uint8_t ch;;mcc_generated_files/pic18f_u
      +                          art.c: 90:         while (index < msg_length)
  1184  000266  EF74  F001         	goto	l1881
  1185  00026A                     l1865:
  1186                           
  1187                           ;mcc_generated_files/pic18f_uart.c: 91:         {;mcc_generated_files/pic18f_uart.c: 92:
      +                                       ch = UART1_Read();
  1188  00026A  EC13  F003         	call	_UART1_Read	;wreg free
  1189  00026E  6E24               	movwf	Run_Bootloader@ch^(0+1280),c
  1190  000270                     
  1191                           ;mcc_generated_files/pic18f_uart.c: 93:             frame.buffer [index ++] = ch;
  1192  000270  0EF7               	movlw	low _frame
  1193  000272  2427               	addwf	Run_Bootloader@index^(0+1280),w,c	;volatile
  1194  000274  6ED9               	movwf	fsr2l,c
  1195  000276  0E13               	movlw	high _frame
  1196  000278  2028               	addwfc	(Run_Bootloader@index+1)^(0+1280),w,c	;volatile
  1197  00027A  6EDA               	movwf	fsr2h,c
  1198  00027C  0061  F490  F4DF   	movff	Run_Bootloader@ch,indf2
  1199  000282  4A27               	infsnz	Run_Bootloader@index^(0+1280),f,c	;volatile
  1200  000284  2A28               	incf	(Run_Bootloader@index+1)^(0+1280),f,c	;volatile
  1201  000286                     
  1202                           ;mcc_generated_files/pic18f_uart.c: 94:             if (index == 4)
  1203  000286  0E04               	movlw	4
  1204  000288  1827               	xorwf	Run_Bootloader@index^(0+1280),w,c	;volatile
  1205  00028A  1028               	iorwf	(Run_Bootloader@index+1)^(0+1280),w,c	;volatile
  1206  00028C  A4D8               	btfss	status,2,c
  1207  00028E  EF4B  F001         	goto	u601
  1208  000292  EF4D  F001         	goto	u600
  1209  000296                     u601:
  1210  000296  EF74  F001         	goto	l1881
  1211  00029A                     u600:
  1212  00029A                     
  1213                           ;mcc_generated_files/pic18f_uart.c: 95:             {;mcc_generated_files/pic18f_uart.c:
      +                           96:                 if ((frame.command == 2)
  1214  00029A  0064  FFDC  F4E8   	movff	_frame,wreg
  1215  0002A0  0A02               	xorlw	2
  1216  0002A2  B4D8               	btfsc	status,2,c
  1217  0002A4  EF56  F001         	goto	u611
  1218  0002A8  EF58  F001         	goto	u610
  1219  0002AC                     u611:
  1220  0002AC  EF6E  F001         	goto	l1879
  1221  0002B0                     u610:
  1222  0002B0  0064  FFDC  F4E8   	movff	_frame,wreg
  1223  0002B6  0A05               	xorlw	5
  1224  0002B8  B4D8               	btfsc	status,2,c
  1225  0002BA  EF61  F001         	goto	u621
  1226  0002BE  EF63  F001         	goto	u620
  1227  0002C2                     u621:
  1228  0002C2  EF6E  F001         	goto	l1879
  1229  0002C6                     u620:
  1230  0002C6  0064  FFDC  F4E8   	movff	_frame,wreg
  1231  0002CC  0A07               	xorlw	7
  1232  0002CE  A4D8               	btfss	status,2,c
  1233  0002D0  EF6C  F001         	goto	u631
  1234  0002D4  EF6E  F001         	goto	u630
  1235  0002D8                     u631:
  1236  0002D8  EF74  F001         	goto	l1881
  1237  0002DC                     u630:
  1238  0002DC                     l1879:
  1239                           
  1240                           ;mcc_generated_files/pic18f_uart.c: 99:                 {;mcc_generated_files/pic18f_uar
      +                          t.c: 100:                     msg_length += frame.data_length;
  1241  0002DC  EE24  F3F8         	lfsr	2,_frame+1
  1242  0002E0  50DE               	movf	postinc2,w,c
  1243  0002E2  2625               	addwf	Run_Bootloader@msg_length^(0+1280),f,c
  1244  0002E4  50DD               	movf	postdec2,w,c
  1245  0002E6  2226               	addwfc	(Run_Bootloader@msg_length+1)^(0+1280),f,c
  1246  0002E8                     l1881:
  1247                           
  1248                           ;mcc_generated_files/pic18f_uart.c: 90:         while (index < msg_length)
  1249  0002E8  5025               	movf	Run_Bootloader@msg_length^(0+1280),w,c
  1250  0002EA  5C27               	subwf	Run_Bootloader@index^(0+1280),w,c	;volatile
  1251  0002EC  5026               	movf	(Run_Bootloader@msg_length+1)^(0+1280),w,c
  1252  0002EE  5828               	subwfb	(Run_Bootloader@index+1)^(0+1280),w,c	;volatile
  1253  0002F0  A0D8               	btfss	status,0,c
  1254  0002F2  EF7D  F001         	goto	u641
  1255  0002F6  EF7F  F001         	goto	u640
  1256  0002FA                     u641:
  1257  0002FA  EF35  F001         	goto	l1865
  1258  0002FE                     u640:
  1259  0002FE                     
  1260                           ;mcc_generated_files/pic18f_uart.c: 105:         msg_length = ProcessBootBuffer ();
  1261  0002FE  EC3C  F002         	call	_ProcessBootBuffer	;wreg free
  1262  000302  C51E  F525         	movff	?_ProcessBootBuffer,Run_Bootloader@msg_length
  1263  000306  C51F  F526         	movff	?_ProcessBootBuffer+1,Run_Bootloader@msg_length+1
  1264  00030A                     
  1265                           ;mcc_generated_files/pic18f_uart.c: 110:         UART1_Write(0x55);
  1266  00030A  0E55               	movlw	85
  1267  00030C  EC4F  F005         	call	_UART1_Write
  1268  000310                     
  1269                           ;mcc_generated_files/pic18f_uart.c: 111:         index = 0;
  1270  000310  0E00               	movlw	0
  1271  000312  6E28               	movwf	(Run_Bootloader@index+1)^(0+1280),c	;volatile
  1272  000314  0E00               	movlw	0
  1273  000316  6E27               	movwf	Run_Bootloader@index^(0+1280),c	;volatile
  1274                           
  1275                           ;mcc_generated_files/pic18f_uart.c: 112:         while (index < msg_length)
  1276  000318  EF99  F001         	goto	l1893
  1277  00031C                     l1889:
  1278                           
  1279                           ;mcc_generated_files/pic18f_uart.c: 113:         {;mcc_generated_files/pic18f_uart.c: 11
      +                          4:             UART1_Write (frame.buffer [index++]);
  1280  00031C  0EF7               	movlw	low _frame
  1281  00031E  2427               	addwf	Run_Bootloader@index^(0+1280),w,c	;volatile
  1282  000320  6ED9               	movwf	fsr2l,c
  1283  000322  0E13               	movlw	high _frame
  1284  000324  2028               	addwfc	(Run_Bootloader@index+1)^(0+1280),w,c	;volatile
  1285  000326  6EDA               	movwf	fsr2h,c
  1286  000328  50DF               	movf	indf2,w,c
  1287  00032A  EC4F  F005         	call	_UART1_Write
  1288  00032E  4A27               	infsnz	Run_Bootloader@index^(0+1280),f,c	;volatile
  1289  000330  2A28               	incf	(Run_Bootloader@index+1)^(0+1280),f,c	;volatile
  1290  000332                     l1893:
  1291                           
  1292                           ;mcc_generated_files/pic18f_uart.c: 112:         while (index < msg_length)
  1293  000332  5025               	movf	Run_Bootloader@msg_length^(0+1280),w,c
  1294  000334  5C27               	subwf	Run_Bootloader@index^(0+1280),w,c	;volatile
  1295  000336  5026               	movf	(Run_Bootloader@msg_length+1)^(0+1280),w,c
  1296  000338  5828               	subwfb	(Run_Bootloader@index+1)^(0+1280),w,c	;volatile
  1297  00033A  A0D8               	btfss	status,0,c
  1298  00033C  EFA2  F001         	goto	u651
  1299  000340  EFA4  F001         	goto	u650
  1300  000344                     u651:
  1301  000344  EF8E  F001         	goto	l1889
  1302  000348                     u650:
  1303  000348  EF0C  F001         	goto	l179
  1304  00034C  0012               	return		;funcret
  1305  00034E                     __end_of_Run_Bootloader:
  1306                           	callstack 0
  1307                           
  1308 ;; *************** function _UART1_Write *****************
  1309 ;; Defined at:
  1310 ;;		line 170 in file "mcc_generated_files/uart1.c"
  1311 ;; Parameters:    Size  Location     Type
  1312 ;;  txData          1    wreg     unsigned char 
  1313 ;; Auto vars:     Size  Location     Type
  1314 ;;  txData          1    0[COMRAM] unsigned char 
  1315 ;; Return value:  Size  Location     Type
  1316 ;;                  1    wreg      void 
  1317 ;; Registers used:
  1318 ;;		wreg
  1319 ;; Tracked objects:
  1320 ;;		On entry : 0/0
  1321 ;;		On exit  : 0/0
  1322 ;;		Unchanged: 0/0
  1323 ;; Data sizes:     COMRAM   BANK5   BANK6   BANK7   BANK8   BANK9  BANK10  BANK11  BANK12  BANK13  BANK14  BANK15  BANK1
      +6  BANK17  BANK18  BANK19  BANK20
  1324 ;;      Params:         0       0       0       0       0       0       0       0       0       0       0       0       
      +0       0       0       0       0
  1325 ;;      Locals:         1       0       0       0       0       0       0       0       0       0       0       0       
      +0       0       0       0       0
  1326 ;;      Temps:          0       0       0       0       0       0       0       0       0       0       0       0       
      +0       0       0       0       0
  1327 ;;      Totals:         1       0       0       0       0       0       0       0       0       0       0       0       
      +0       0       0       0       0
  1328 ;;Total ram usage:        1 bytes
  1329 ;; Hardware stack levels used: 1
  1330 ;; Hardware stack levels required when called: 1
  1331 ;; This function calls:
  1332 ;;		Nothing
  1333 ;; This function is called by:
  1334 ;;		_Run_Bootloader
  1335 ;; This function uses a non-reentrant model
  1336 ;;
  1337                           
  1338                           	psect	text11
  1339  000A9E                     __ptext11:
  1340                           	callstack 0
  1341  000A9E                     _UART1_Write:
  1342                           	callstack 122
  1343                           
  1344                           ;incstack = 0
  1345                           ;UART1_Write@txData stored from wreg
  1346  000A9E  6E02               	movwf	UART1_Write@txData^(0+1280),c
  1347  000AA0                     l89:
  1348                           
  1349                           ;mcc_generated_files/uart1.c: 172:     while(0 == PIR4bits.U1TXIF)
  1350  000AA0  A2B7               	btfss	183,1,c	;volatile
  1351  000AA2  EF55  F005         	goto	u201
  1352  000AA6  EF57  F005         	goto	u200
  1353  000AAA                     u201:
  1354  000AAA  EF50  F005         	goto	l89
  1355  000AAE                     u200:
  1356  000AAE                     
  1357                           ;mcc_generated_files/uart1.c: 176:     U1TXB = txData;
  1358  000AAE  0061  F408  F2A3   	movff	UART1_Write@txData,675	;volatile
  1359  000AB4  0012               	return		;funcret
  1360  000AB6                     __end_of_UART1_Write:
  1361                           	callstack 0
  1362                           
  1363 ;; *************** function _UART1_Read *****************
  1364 ;; Defined at:
  1365 ;;		line 145 in file "mcc_generated_files/uart1.c"
  1366 ;; Parameters:    Size  Location     Type
  1367 ;;		None
  1368 ;; Auto vars:     Size  Location     Type
  1369 ;;		None
  1370 ;; Return value:  Size  Location     Type
  1371 ;;                  1    wreg      unsigned char 
  1372 ;; Registers used:
  1373 ;;		wreg, status,2, pclath, tosl, cstack
  1374 ;; Tracked objects:
  1375 ;;		On entry : 0/0
  1376 ;;		On exit  : 0/0
  1377 ;;		Unchanged: 0/0
  1378 ;; Data sizes:     COMRAM   BANK5   BANK6   BANK7   BANK8   BANK9  BANK10  BANK11  BANK12  BANK13  BANK14  BANK15  BANK1
      +6  BANK17  BANK18  BANK19  BANK20
  1379 ;;      Params:         0       0       0       0       0       0       0       0       0       0       0       0       
      +0       0       0       0       0
  1380 ;;      Locals:         0       0       0       0       0       0       0       0       0       0       0       0       
      +0       0       0       0       0
  1381 ;;      Temps:          0       0       0       0       0       0       0       0       0       0       0       0       
      +0       0       0       0       0
  1382 ;;      Totals:         0       0       0       0       0       0       0       0       0       0       0       0       
      +0       0       0       0       0
  1383 ;;Total ram usage:        0 bytes
  1384 ;; Hardware stack levels used: 1
  1385 ;; Hardware stack levels required when called: 2
  1386 ;; This function calls:
  1387 ;;		Absolute function
  1388 ;;		_UART1_DefaultErrorHandler
  1389 ;;		_UART1_DefaultFramingErrorHandler
  1390 ;;		_UART1_DefaultOverrunErrorHandler
  1391 ;; This function is called by:
  1392 ;;		_Run_Bootloader
  1393 ;; This function uses a non-reentrant model
  1394 ;;
  1395                           
  1396                           	psect	text12
  1397  000626                     __ptext12:
  1398                           	callstack 0
  1399  000626                     _UART1_Read:
  1400                           	callstack 121
  1401  000626                     l80:
  1402                           
  1403                           ;mcc_generated_files/uart1.c: 147:     while(!PIR4bits.U1RXIF)
  1404  000626  A0B7               	btfss	183,0,c	;volatile
  1405  000628  EF18  F003         	goto	u131
  1406  00062C  EF1A  F003         	goto	u130
  1407  000630                     u131:
  1408  000630  EF13  F003         	goto	l80
  1409  000634                     u130:
  1410  000634                     
  1411                           ;mcc_generated_files/uart1.c: 151:     uart1RxLastError.status = 0;
  1412  000634  0E00               	movlw	0
  1413  000636  6E30               	movwf	_uart1RxLastError^(0+1280),c	;volatile
  1414  000638                     
  1415                           ;mcc_generated_files/uart1.c: 153:     if(U1ERRIRbits.FERIF){
  1416  000638  0102               	movlb	2	; () banked
  1417  00063A  A7B2               	btfss	178,3,b	;volatile
  1418  00063C  EF22  F003         	goto	u141
  1419  000640  EF24  F003         	goto	u140
  1420  000644                     u141:
  1421  000644  EF32  F003         	goto	l1335
  1422  000648                     u140:
  1423  000648                     
  1424                           ; BSR set to: 2
  1425                           ;mcc_generated_files/uart1.c: 154:         uart1RxLastError.ferr = 1;
  1426  000648  8230               	bsf	_uart1RxLastError^(0+1280),1,c	;volatile
  1427  00064A                     
  1428                           ; BSR set to: 2
  1429                           ;mcc_generated_files/uart1.c: 155:         UART1_FramingErrorHandler();
  1430  00064A  D802               	call	u158
  1431  00064C  EF32  F003         	goto	u159
  1432  000650                     u158:
  1433  000650  0005               	push	
  1434  000652  6EFA               	movwf	pclath,c
  1435  000654  5035               	movf	_UART1_FramingErrorHandler^(0+1280),w,c
  1436  000656  6EFD               	movwf	tosl,c
  1437  000658  5036               	movf	(_UART1_FramingErrorHandler+1)^(0+1280),w,c
  1438  00065A  6EFE               	movwf	tosh,c
  1439  00065C  50F8               	movf	tblptru,w,c
  1440  00065E  6EFF               	movwf	tosu,c
  1441  000660  50FA               	movf	pclath,w,c
  1442  000662  0012               	return		;indir
  1443  000664                     u159:
  1444  000664                     l1335:
  1445                           
  1446                           ;mcc_generated_files/uart1.c: 158:     if(U1ERRIRbits.RXFOIF){
  1447  000664  0102               	movlb	2	; () banked
  1448  000666  A3B2               	btfss	178,1,b	;volatile
  1449  000668  EF38  F003         	goto	u161
  1450  00066C  EF3A  F003         	goto	u160
  1451  000670                     u161:
  1452  000670  EF48  F003         	goto	l1341
  1453  000674                     u160:
  1454  000674                     
  1455                           ; BSR set to: 2
  1456                           ;mcc_generated_files/uart1.c: 159:         uart1RxLastError.oerr = 1;
  1457  000674  8430               	bsf	_uart1RxLastError^(0+1280),2,c	;volatile
  1458  000676                     
  1459                           ; BSR set to: 2
  1460                           ;mcc_generated_files/uart1.c: 160:         UART1_OverrunErrorHandler();
  1461  000676  D802               	call	u178
  1462  000678  EF48  F003         	goto	u179
  1463  00067C                     u178:
  1464  00067C  0005               	push	
  1465  00067E  6EFA               	movwf	pclath,c
  1466  000680  5033               	movf	_UART1_OverrunErrorHandler^(0+1280),w,c
  1467  000682  6EFD               	movwf	tosl,c
  1468  000684  5034               	movf	(_UART1_OverrunErrorHandler+1)^(0+1280),w,c
  1469  000686  6EFE               	movwf	tosh,c
  1470  000688  50F8               	movf	tblptru,w,c
  1471  00068A  6EFF               	movwf	tosu,c
  1472  00068C  50FA               	movf	pclath,w,c
  1473  00068E  0012               	return		;indir
  1474  000690                     u179:
  1475  000690                     l1341:
  1476                           
  1477                           ;mcc_generated_files/uart1.c: 163:     if(uart1RxLastError.status){
  1478  000690  5030               	movf	_uart1RxLastError^(0+1280),w,c	;volatile
  1479  000692  B4D8               	btfsc	status,2,c
  1480  000694  EF4E  F003         	goto	u181
  1481  000698  EF50  F003         	goto	u180
  1482  00069C                     u181:
  1483  00069C  EF5D  F003         	goto	l1345
  1484  0006A0                     u180:
  1485  0006A0                     
  1486                           ;mcc_generated_files/uart1.c: 164:         UART1_ErrorHandler();
  1487  0006A0  D802               	call	u198
  1488  0006A2  EF5D  F003         	goto	u199
  1489  0006A6                     u198:
  1490  0006A6  0005               	push	
  1491  0006A8  6EFA               	movwf	pclath,c
  1492  0006AA  5031               	movf	_UART1_ErrorHandler^(0+1280),w,c
  1493  0006AC  6EFD               	movwf	tosl,c
  1494  0006AE  5032               	movf	(_UART1_ErrorHandler+1)^(0+1280),w,c
  1495  0006B0  6EFE               	movwf	tosh,c
  1496  0006B2  50F8               	movf	tblptru,w,c
  1497  0006B4  6EFF               	movwf	tosu,c
  1498  0006B6  50FA               	movf	pclath,w,c
  1499  0006B8  0012               	return		;indir
  1500  0006BA                     u199:
  1501  0006BA                     l1345:
  1502                           
  1503                           ;mcc_generated_files/uart1.c: 167:     return U1RXB;
  1504  0006BA  0102               	movlb	2	; () banked
  1505  0006BC  51A1               	movf	161,w,b	;volatile
  1506  0006BE                     
  1507                           ; BSR set to: 2
  1508  0006BE  0012               	return		;funcret
  1509  0006C0                     __end_of_UART1_Read:
  1510                           	callstack 0
  1511                           
  1512 ;; *************** function _UART1_DefaultOverrunErrorHandler *****************
  1513 ;; Defined at:
  1514 ;;		line 185 in file "mcc_generated_files/uart1.c"
  1515 ;; Parameters:    Size  Location     Type
  1516 ;;		None
  1517 ;; Auto vars:     Size  Location     Type
  1518 ;;		None
  1519 ;; Return value:  Size  Location     Type
  1520 ;;                  1    wreg      void 
  1521 ;; Registers used:
  1522 ;;		None
  1523 ;; Tracked objects:
  1524 ;;		On entry : 0/0
  1525 ;;		On exit  : 0/0
  1526 ;;		Unchanged: 0/0
  1527 ;; Data sizes:     COMRAM   BANK5   BANK6   BANK7   BANK8   BANK9  BANK10  BANK11  BANK12  BANK13  BANK14  BANK15  BANK1
      +6  BANK17  BANK18  BANK19  BANK20
  1528 ;;      Params:         0       0       0       0       0       0       0       0       0       0       0       0       
      +0       0       0       0       0
  1529 ;;      Locals:         0       0       0       0       0       0       0       0       0       0       0       0       
      +0       0       0       0       0
  1530 ;;      Temps:          0       0       0       0       0       0       0       0       0       0       0       0       
      +0       0       0       0       0
  1531 ;;      Totals:         0       0       0       0       0       0       0       0       0       0       0       0       
      +0       0       0       0       0
  1532 ;;Total ram usage:        0 bytes
  1533 ;; Hardware stack levels used: 1
  1534 ;; Hardware stack levels required when called: 1
  1535 ;; This function calls:
  1536 ;;		Nothing
  1537 ;; This function is called by:
  1538 ;;		_UART1_Initialize
  1539 ;;		_UART1_Read
  1540 ;; This function uses a non-reentrant model
  1541 ;;
  1542                           
  1543                           	psect	text13
  1544  000B24                     __ptext13:
  1545                           	callstack 0
  1546  000B24                     _UART1_DefaultOverrunErrorHandler:
  1547                           	callstack 121
  1548  000B24  0012               	return		;funcret
  1549  000B26                     __end_of_UART1_DefaultOverrunErrorHandler:
  1550                           	callstack 0
  1551                           
  1552 ;; *************** function _UART1_DefaultFramingErrorHandler *****************
  1553 ;; Defined at:
  1554 ;;		line 183 in file "mcc_generated_files/uart1.c"
  1555 ;; Parameters:    Size  Location     Type
  1556 ;;		None
  1557 ;; Auto vars:     Size  Location     Type
  1558 ;;		None
  1559 ;; Return value:  Size  Location     Type
  1560 ;;                  1    wreg      void 
  1561 ;; Registers used:
  1562 ;;		None
  1563 ;; Tracked objects:
  1564 ;;		On entry : 0/0
  1565 ;;		On exit  : 0/0
  1566 ;;		Unchanged: 0/0
  1567 ;; Data sizes:     COMRAM   BANK5   BANK6   BANK7   BANK8   BANK9  BANK10  BANK11  BANK12  BANK13  BANK14  BANK15  BANK1
      +6  BANK17  BANK18  BANK19  BANK20
  1568 ;;      Params:         0       0       0       0       0       0       0       0       0       0       0       0       
      +0       0       0       0       0
  1569 ;;      Locals:         0       0       0       0       0       0       0       0       0       0       0       0       
      +0       0       0       0       0
  1570 ;;      Temps:          0       0       0       0       0       0       0       0       0       0       0       0       
      +0       0       0       0       0
  1571 ;;      Totals:         0       0       0       0       0       0       0       0       0       0       0       0       
      +0       0       0       0       0
  1572 ;;Total ram usage:        0 bytes
  1573 ;; Hardware stack levels used: 1
  1574 ;; Hardware stack levels required when called: 1
  1575 ;; This function calls:
  1576 ;;		Nothing
  1577 ;; This function is called by:
  1578 ;;		_UART1_Initialize
  1579 ;;		_UART1_Read
  1580 ;; This function uses a non-reentrant model
  1581 ;;
  1582                           
  1583                           	psect	text14
  1584  000B26                     __ptext14:
  1585                           	callstack 0
  1586  000B26                     _UART1_DefaultFramingErrorHandler:
  1587                           	callstack 121
  1588  000B26  0012               	return		;funcret
  1589  000B28                     __end_of_UART1_DefaultFramingErrorHandler:
  1590                           	callstack 0
  1591                           
  1592 ;; *************** function _UART1_DefaultErrorHandler *****************
  1593 ;; Defined at:
  1594 ;;		line 187 in file "mcc_generated_files/uart1.c"
  1595 ;; Parameters:    Size  Location     Type
  1596 ;;		None
  1597 ;; Auto vars:     Size  Location     Type
  1598 ;;		None
  1599 ;; Return value:  Size  Location     Type
  1600 ;;                  1    wreg      void 
  1601 ;; Registers used:
  1602 ;;		None
  1603 ;; Tracked objects:
  1604 ;;		On entry : 0/0
  1605 ;;		On exit  : 0/0
  1606 ;;		Unchanged: 0/0
  1607 ;; Data sizes:     COMRAM   BANK5   BANK6   BANK7   BANK8   BANK9  BANK10  BANK11  BANK12  BANK13  BANK14  BANK15  BANK1
      +6  BANK17  BANK18  BANK19  BANK20
  1608 ;;      Params:         0       0       0       0       0       0       0       0       0       0       0       0       
      +0       0       0       0       0
  1609 ;;      Locals:         0       0       0       0       0       0       0       0       0       0       0       0       
      +0       0       0       0       0
  1610 ;;      Temps:          0       0       0       0       0       0       0       0       0       0       0       0       
      +0       0       0       0       0
  1611 ;;      Totals:         0       0       0       0       0       0       0       0       0       0       0       0       
      +0       0       0       0       0
  1612 ;;Total ram usage:        0 bytes
  1613 ;; Hardware stack levels used: 1
  1614 ;; Hardware stack levels required when called: 1
  1615 ;; This function calls:
  1616 ;;		Nothing
  1617 ;; This function is called by:
  1618 ;;		_UART1_Initialize
  1619 ;;		_UART1_Read
  1620 ;; This function uses a non-reentrant model
  1621 ;;
  1622                           
  1623                           	psect	text15
  1624  000B28                     __ptext15:
  1625                           	callstack 0
  1626  000B28                     _UART1_DefaultErrorHandler:
  1627                           	callstack 121
  1628  000B28  0012               	return		;funcret
  1629  000B2A                     __end_of_UART1_DefaultErrorHandler:
  1630                           	callstack 0
  1631                           
  1632 ;; *************** function _ProcessBootBuffer *****************
  1633 ;; Defined at:
  1634 ;;		line 177 in file "mcc_generated_files/pic18f_bootload.c"
  1635 ;; Parameters:    Size  Location     Type
  1636 ;;		None
  1637 ;; Auto vars:     Size  Location     Type
  1638 ;;  len             2   32[COMRAM] unsigned short 
  1639 ;; Return value:  Size  Location     Type
  1640 ;;                  2   28[COMRAM] unsigned short 
  1641 ;; Registers used:
  1642 ;;		wreg, fsr1l, fsr1h, fsr2l, fsr2h, status,2, status,0, cstack
  1643 ;; Tracked objects:
  1644 ;;		On entry : 0/0
  1645 ;;		On exit  : 0/0
  1646 ;;		Unchanged: 0/0
  1647 ;; Data sizes:     COMRAM   BANK5   BANK6   BANK7   BANK8   BANK9  BANK10  BANK11  BANK12  BANK13  BANK14  BANK15  BANK1
      +6  BANK17  BANK18  BANK19  BANK20
  1648 ;;      Params:         2       0       0       0       0       0       0       0       0       0       0       0       
      +0       0       0       0       0
  1649 ;;      Locals:         2       0       0       0       0       0       0       0       0       0       0       0       
      +0       0       0       0       0
  1650 ;;      Temps:          2       0       0       0       0       0       0       0       0       0       0       0       
      +0       0       0       0       0
  1651 ;;      Totals:         6       0       0       0       0       0       0       0       0       0       0       0       
      +0       0       0       0       0
  1652 ;;Total ram usage:        6 bytes
  1653 ;; Hardware stack levels used: 1
  1654 ;; Hardware stack levels required when called: 3
  1655 ;; This function calls:
  1656 ;;		_Calc_Checksum
  1657 ;;		_Erase_Flash
  1658 ;;		_Get_Version_Data
  1659 ;;		_Read_Config
  1660 ;;		_Write_Config
  1661 ;;		_Write_Flash
  1662 ;; This function is called by:
  1663 ;;		_Run_Bootloader
  1664 ;; This function uses a non-reentrant model
  1665 ;;
  1666                           
  1667                           	psect	text16
  1668  000478                     __ptext16:
  1669                           	callstack 0
  1670  000478                     _ProcessBootBuffer:
  1671                           	callstack 120
  1672  000478                     
  1673                           ;mcc_generated_files/pic18f_bootload.c: 179:     uint16_t len;;mcc_generated_files/pic18
      +                          f_bootload.c: 180:     EE_Key_1 = frame.EE_key_1;
  1674  000478  0064  FFE8  F500   	movff	_frame+3,1280
  1675                           
  1676                           ;mcc_generated_files/pic18f_bootload.c: 181:     EE_Key_2 = frame.EE_key_2;
  1677  00047E  0064  FFEC  F501   	movff	_frame+4,1281
  1678                           
  1679                           ;mcc_generated_files/pic18f_bootload.c: 184:     switch (frame.command)
  1680  000484  EF8A  F002         	goto	l1845
  1681  000488                     l1829:
  1682                           
  1683                           ;mcc_generated_files/pic18f_bootload.c: 187:         len = Get_Version_Data();
  1684  000488  ECBA  F002         	call	_Get_Version_Data	;wreg free
  1685  00048C  C502  F522         	movff	?_Get_Version_Data,ProcessBootBuffer@len
  1686  000490  C503  F523         	movff	?_Get_Version_Data+1,ProcessBootBuffer@len+1
  1687                           
  1688                           ;mcc_generated_files/pic18f_bootload.c: 188:         break;
  1689  000494  EFB5  F002         	goto	l326
  1690  000498                     l1831:
  1691                           
  1692                           ;mcc_generated_files/pic18f_bootload.c: 190:         len = Write_Flash();
  1693  000498  EC5F  F000         	call	_Write_Flash	;wreg free
  1694  00049C  C507  F522         	movff	?_Write_Flash,ProcessBootBuffer@len
  1695  0004A0  C508  F523         	movff	?_Write_Flash+1,ProcessBootBuffer@len+1
  1696                           
  1697                           ;mcc_generated_files/pic18f_bootload.c: 191:         break;
  1698  0004A4  EFB5  F002         	goto	l326
  1699  0004A8                     l1833:
  1700                           
  1701                           ;mcc_generated_files/pic18f_bootload.c: 193:         len = Erase_Flash();
  1702  0004A8  ECA7  F001         	call	_Erase_Flash	;wreg free
  1703  0004AC  C502  F522         	movff	?_Erase_Flash,ProcessBootBuffer@len
  1704  0004B0  C503  F523         	movff	?_Erase_Flash+1,ProcessBootBuffer@len+1
  1705                           
  1706                           ;mcc_generated_files/pic18f_bootload.c: 194:         break;
  1707  0004B4  EFB5  F002         	goto	l326
  1708  0004B8                     l1835:
  1709                           
  1710                           ;mcc_generated_files/pic18f_bootload.c: 196:         len = Read_Config();
  1711  0004B8  EC3D  F004         	call	_Read_Config	;wreg free
  1712  0004BC  C502  F522         	movff	?_Read_Config,ProcessBootBuffer@len
  1713  0004C0  C503  F523         	movff	?_Read_Config+1,ProcessBootBuffer@len+1
  1714                           
  1715                           ;mcc_generated_files/pic18f_bootload.c: 197:         break;
  1716  0004C4  EFB5  F002         	goto	l326
  1717  0004C8                     l1837:
  1718                           
  1719                           ;mcc_generated_files/pic18f_bootload.c: 199:         len = Write_Config();
  1720  0004C8  EC60  F003         	call	_Write_Config	;wreg free
  1721  0004CC  C502  F522         	movff	?_Write_Config,ProcessBootBuffer@len
  1722  0004D0  C503  F523         	movff	?_Write_Config+1,ProcessBootBuffer@len+1
  1723                           
  1724                           ;mcc_generated_files/pic18f_bootload.c: 200:         break;
  1725  0004D4  EFB5  F002         	goto	l326
  1726  0004D8                     l1839:
  1727                           
  1728                           ;mcc_generated_files/pic18f_bootload.c: 202:         len = Calc_Checksum();
  1729  0004D8  ECF6  F003         	call	_Calc_Checksum	;wreg free
  1730  0004DC  C502  F522         	movff	?_Calc_Checksum,ProcessBootBuffer@len
  1731  0004E0  C503  F523         	movff	?_Calc_Checksum+1,ProcessBootBuffer@len+1
  1732                           
  1733                           ;mcc_generated_files/pic18f_bootload.c: 203:         break;
  1734  0004E4  EFB5  F002         	goto	l326
  1735  0004E8                     l332:
  1736                           
  1737                           ;mcc_generated_files/pic18f_bootload.c: 205:         frame.data[0] = 0x01;
  1738  0004E8  0E01               	movlw	1
  1739  0004EA  0061 F3A1  F400    	movff	wreg,_frame+9
  1740  0004F0                     
  1741                           ;mcc_generated_files/pic18f_bootload.c: 206:         reset_pending = 1;
  1742  0004F0  0E01               	movlw	1
  1743  0004F2  6E2D               	movwf	_reset_pending^(0+1280),c
  1744                           
  1745                           ;mcc_generated_files/pic18f_bootload.c: 207:         len = 10;
  1746  0004F4  0E00               	movlw	0
  1747  0004F6  6E23               	movwf	(ProcessBootBuffer@len+1)^(0+1280),c
  1748  0004F8  0E0A               	movlw	10
  1749  0004FA  6E22               	movwf	ProcessBootBuffer@len^(0+1280),c
  1750                           
  1751                           ;mcc_generated_files/pic18f_bootload.c: 208:         break;
  1752  0004FC  EFB5  F002         	goto	l326
  1753  000500                     l333:
  1754                           
  1755                           ;mcc_generated_files/pic18f_bootload.c: 210:         frame.data[0] = 0xFF;
  1756  000500  0EFF               	movlw	255
  1757  000502  0061 F3A1  F400    	movff	wreg,_frame+9
  1758  000508                     
  1759                           ;mcc_generated_files/pic18f_bootload.c: 211:         len = 10;
  1760  000508  0E00               	movlw	0
  1761  00050A  6E23               	movwf	(ProcessBootBuffer@len+1)^(0+1280),c
  1762  00050C  0E0A               	movlw	10
  1763  00050E  6E22               	movwf	ProcessBootBuffer@len^(0+1280),c
  1764                           
  1765                           ;mcc_generated_files/pic18f_bootload.c: 212:     }
  1766  000510  EFB5  F002         	goto	l326
  1767  000514                     l1845:
  1768  000514  EE24  F3F7         	lfsr	2,_frame
  1769  000518  50DF               	movf	indf2,w,c
  1770  00051A  6E20               	movwf	??_ProcessBootBuffer^(0+1280),c
  1771  00051C  6A21               	clrf	(??_ProcessBootBuffer+1)^(0+1280),c
  1772                           
  1773                           ; Switch on 2 bytes has been partitioned into a top level switch of size 1, and 1 sub-sw
      +                          itches
  1774                           ; Switch size 1, requested type "simple"
  1775                           ; Number of cases is 1, Range of values is 0 to 0
  1776                           ; switch strategies available:
  1777                           ; Name         Instructions Cycles
  1778                           ; simple_byte            4     3 (average)
  1779                           ;	Chosen strategy is simple_byte
  1780  00051E  5021               	movf	(??_ProcessBootBuffer+1)^(0+1280),w,c
  1781  000520  0A00               	xorlw	0	; case 0
  1782  000522  B4D8               	btfsc	status,2,c
  1783  000524  EF96  F002         	goto	l1987
  1784  000528  EF80  F002         	goto	l333
  1785  00052C                     l1987:
  1786                           
  1787                           ; Switch size 1, requested type "simple"
  1788                           ; Number of cases is 7, Range of values is 0 to 9
  1789                           ; switch strategies available:
  1790                           ; Name         Instructions Cycles
  1791                           ; simple_byte           22    12 (average)
  1792                           ;	Chosen strategy is simple_byte
  1793  00052C  5020               	movf	??_ProcessBootBuffer^(0+1280),w,c
  1794  00052E  0A00               	xorlw	0	; case 0
  1795  000530  B4D8               	btfsc	status,2,c
  1796  000532  EF44  F002         	goto	l1829
  1797  000536  0A02               	xorlw	2	; case 2
  1798  000538  B4D8               	btfsc	status,2,c
  1799  00053A  EF4C  F002         	goto	l1831
  1800  00053E  0A01               	xorlw	1	; case 3
  1801  000540  B4D8               	btfsc	status,2,c
  1802  000542  EF54  F002         	goto	l1833
  1803  000546  0A05               	xorlw	5	; case 6
  1804  000548  B4D8               	btfsc	status,2,c
  1805  00054A  EF5C  F002         	goto	l1835
  1806  00054E  0A01               	xorlw	1	; case 7
  1807  000550  B4D8               	btfsc	status,2,c
  1808  000552  EF64  F002         	goto	l1837
  1809  000556  0A0F               	xorlw	15	; case 8
  1810  000558  B4D8               	btfsc	status,2,c
  1811  00055A  EF6C  F002         	goto	l1839
  1812  00055E  0A01               	xorlw	1	; case 9
  1813  000560  B4D8               	btfsc	status,2,c
  1814  000562  EF74  F002         	goto	l332
  1815  000566  EF80  F002         	goto	l333
  1816  00056A                     l326:
  1817                           
  1818                           ;mcc_generated_files/pic18f_bootload.c: 213:     return (len);
  1819  00056A  C522  F51E         	movff	ProcessBootBuffer@len,?_ProcessBootBuffer
  1820  00056E  C523  F51F         	movff	ProcessBootBuffer@len+1,?_ProcessBootBuffer+1
  1821  000572  0012               	return		;funcret
  1822  000574                     __end_of_ProcessBootBuffer:
  1823                           	callstack 0
  1824                           
  1825 ;; *************** function _Write_Flash *****************
  1826 ;; Defined at:
  1827 ;;		line 267 in file "mcc_generated_files/pic18f_bootload.c"
  1828 ;; Parameters:    Size  Location     Type
  1829 ;;		None
  1830 ;; Auto vars:     Size  Location     Type
  1831 ;;  i               2   26[COMRAM] unsigned short 
  1832 ;;  address         4   22[COMRAM] unsigned long 
  1833 ;; Return value:  Size  Location     Type
  1834 ;;                  2    5[COMRAM] unsigned short 
  1835 ;; Registers used:
  1836 ;;		wreg, fsr1l, fsr1h, fsr2l, fsr2h, status,2, status,0, cstack
  1837 ;; Tracked objects:
  1838 ;;		On entry : 0/0
  1839 ;;		On exit  : 0/0
  1840 ;;		Unchanged: 0/0
  1841 ;; Data sizes:     COMRAM   BANK5   BANK6   BANK7   BANK8   BANK9  BANK10  BANK11  BANK12  BANK13  BANK14  BANK15  BANK1
      +6  BANK17  BANK18  BANK19  BANK20
  1842 ;;      Params:         2       0       0       0       0       0       0       0       0       0       0       0       
      +0       0       0       0       0
  1843 ;;      Locals:         6       0       0       0       0       0       0       0       0       0       0       0       
      +0       0       0       0       0
  1844 ;;      Temps:         15       0       0       0       0       0       0       0       0       0       0       0       
      +0       0       0       0       0
  1845 ;;      Totals:        23       0       0       0       0       0       0       0       0       0       0       0       
      +0       0       0       0       0
  1846 ;;Total ram usage:       23 bytes
  1847 ;; Hardware stack levels used: 1
  1848 ;; Hardware stack levels required when called: 2
  1849 ;; This function calls:
  1850 ;;		_FLASH_ReadPage
  1851 ;;		_StartWrite
  1852 ;; This function is called by:
  1853 ;;		_ProcessBootBuffer
  1854 ;; This function uses a non-reentrant model
  1855 ;;
  1856                           
  1857                           	psect	text17
  1858  0000BE                     __ptext17:
  1859                           	callstack 0
  1860  0000BE                     _Write_Flash:
  1861                           	callstack 120
  1862  0000BE                     
  1863                           ;mcc_generated_files/pic18f_bootload.c: 269:     uint32_t address;;mcc_generated_files/p
      +                          ic18f_bootload.c: 271:     address = (((uint32_t)frame.address_U) << 16)
  1864  0000BE  0064  FFF4  F509   	movff	_frame+6,??_Write_Flash
  1865  0000C4  C509  F50A         	movff	??_Write_Flash,??_Write_Flash+1
  1866  0000C8  6A0B               	clrf	(??_Write_Flash+2)^(0+1280),c
  1867  0000CA  6A0C               	clrf	(??_Write_Flash+3)^(0+1280),c
  1868  0000CC  6A0D               	clrf	(??_Write_Flash+4)^(0+1280),c
  1869  0000CE  C50C  F50D         	movff	??_Write_Flash+3,??_Write_Flash+4
  1870  0000D2  C50B  F50C         	movff	??_Write_Flash+2,??_Write_Flash+3
  1871  0000D6  C50A  F50B         	movff	??_Write_Flash+1,??_Write_Flash+2
  1872  0000DA  6A0A               	clrf	(??_Write_Flash+1)^(0+1280),c
  1873  0000DC  0064  FFF8  F50E   	movff	_frame+7,??_Write_Flash+5
  1874  0000E2  C50E  F50F         	movff	??_Write_Flash+5,??_Write_Flash+6
  1875  0000E6  6A10               	clrf	(??_Write_Flash+7)^(0+1280),c
  1876  0000E8  6A11               	clrf	(??_Write_Flash+8)^(0+1280),c
  1877  0000EA  6A12               	clrf	(??_Write_Flash+9)^(0+1280),c
  1878  0000EC  C510  F512         	movff	??_Write_Flash+7,??_Write_Flash+9
  1879  0000F0  C50F  F511         	movff	??_Write_Flash+6,??_Write_Flash+8
  1880  0000F4  6A10               	clrf	(??_Write_Flash+7)^(0+1280),c
  1881  0000F6  6A0F               	clrf	(??_Write_Flash+6)^(0+1280),c
  1882  0000F8  500A               	movf	(??_Write_Flash+1)^(0+1280),w,c
  1883  0000FA  240F               	addwf	(??_Write_Flash+6)^(0+1280),w,c
  1884  0000FC  6E13               	movwf	(??_Write_Flash+10)^(0+1280),c
  1885  0000FE  500B               	movf	(??_Write_Flash+2)^(0+1280),w,c
  1886  000100  2010               	addwfc	(??_Write_Flash+7)^(0+1280),w,c
  1887  000102  6E14               	movwf	(??_Write_Flash+11)^(0+1280),c
  1888  000104  500C               	movf	(??_Write_Flash+3)^(0+1280),w,c
  1889  000106  2011               	addwfc	(??_Write_Flash+8)^(0+1280),w,c
  1890  000108  6E15               	movwf	(??_Write_Flash+12)^(0+1280),c
  1891  00010A  500D               	movf	(??_Write_Flash+4)^(0+1280),w,c
  1892  00010C  2012               	addwfc	(??_Write_Flash+9)^(0+1280),w,c
  1893  00010E  6E16               	movwf	(??_Write_Flash+13)^(0+1280),c
  1894  000110  0064  FFF0  F517   	movff	_frame+5,??_Write_Flash+14
  1895  000116  5017               	movf	(??_Write_Flash+14)^(0+1280),w,c
  1896  000118  2413               	addwf	(??_Write_Flash+10)^(0+1280),w,c
  1897  00011A  6E18               	movwf	Write_Flash@address^(0+1280),c
  1898  00011C  0E00               	movlw	0
  1899  00011E  2014               	addwfc	(??_Write_Flash+11)^(0+1280),w,c
  1900  000120  6E19               	movwf	(Write_Flash@address+1)^(0+1280),c
  1901  000122  0E00               	movlw	0
  1902  000124  2015               	addwfc	(??_Write_Flash+12)^(0+1280),w,c
  1903  000126  6E1A               	movwf	(Write_Flash@address+2)^(0+1280),c
  1904  000128  0E00               	movlw	0
  1905  00012A  2016               	addwfc	(??_Write_Flash+13)^(0+1280),w,c
  1906  00012C  6E1B               	movwf	(Write_Flash@address+3)^(0+1280),c
  1907                           
  1908                           ;mcc_generated_files/pic18f_bootload.c: 274:     if (address < 0xd00)
  1909  00012E  501B               	movf	(Write_Flash@address+3)^(0+1280),w,c
  1910  000130  101A               	iorwf	(Write_Flash@address+2)^(0+1280),w,c
  1911  000132  E107               	bnz	u491
  1912  000134  0E0D               	movlw	13
  1913  000136  5C19               	subwf	(Write_Flash@address+1)^(0+1280),w,c
  1914  000138  B0D8               	btfsc	status,0,c
  1915  00013A  EFA1  F000         	goto	u491
  1916  00013E  EFA3  F000         	goto	u490
  1917  000142                     u491:
  1918  000142  EFAD  F000         	goto	l1733
  1919  000146                     u490:
  1920  000146                     
  1921                           ;mcc_generated_files/pic18f_bootload.c: 275:     {;mcc_generated_files/pic18f_bootload.c
      +                          : 276:         frame.data[0] = 0xFE;
  1922  000146  0EFE               	movlw	254
  1923  000148  0061 F3A1  F400    	movff	wreg,_frame+9
  1924  00014E                     
  1925                           ;mcc_generated_files/pic18f_bootload.c: 277:         return (10);
  1926  00014E  0E00               	movlw	0
  1927  000150  6E08               	movwf	(?_Write_Flash+1)^(0+1280),c
  1928  000152  0E0A               	movlw	10
  1929  000154  6E07               	movwf	?_Write_Flash^(0+1280),c
  1930  000156  EF0B  F001         	goto	l345
  1931  00015A                     l1733:
  1932                           
  1933                           ;mcc_generated_files/pic18f_bootload.c: 279:     FLASH_ReadPage(address);
  1934  00015A  C518  F502         	movff	Write_Flash@address,FLASH_ReadPage@flashAddr
  1935  00015E  C519  F503         	movff	Write_Flash@address+1,FLASH_ReadPage@flashAddr+1
  1936  000162  C51A  F504         	movff	Write_Flash@address+2,FLASH_ReadPage@flashAddr+2
  1937  000166  C51B  F505         	movff	Write_Flash@address+3,FLASH_ReadPage@flashAddr+3
  1938  00016A  ECD8  F004         	call	_FLASH_ReadPage	;wreg free
  1939  00016E                     
  1940                           ;mcc_generated_files/pic18f_bootload.c: 281:     for (uint16_t i = 0; i < frame.data_len
      +                          gth; i ++)
  1941  00016E  0E00               	movlw	0
  1942  000170  6E1D               	movwf	(Write_Flash@i+1)^(0+1280),c
  1943  000172  0E00               	movlw	0
  1944  000174  6E1C               	movwf	Write_Flash@i^(0+1280),c
  1945  000176  EFD8  F000         	goto	l1741
  1946  00017A                     l1737:
  1947                           
  1948                           ;mcc_generated_files/pic18f_bootload.c: 282:     {;mcc_generated_files/pic18f_bootload.c
      +                          : 283:         PFM_Buffer [frame.address_L + i] = frame.data[i];
  1949  00017A  0E00               	movlw	low (_frame+9)
  1950  00017C  241C               	addwf	Write_Flash@i^(0+1280),w,c
  1951  00017E  6ED9               	movwf	fsr2l,c
  1952  000180  0E14               	movlw	high (_frame+9)
  1953  000182  201D               	addwfc	(Write_Flash@i+1)^(0+1280),w,c
  1954  000184  6EDA               	movwf	fsr2h,c
  1955  000186  0E00               	movlw	0
  1956  000188  6E09               	movwf	??_Write_Flash^(0+1280),c
  1957  00018A  0E15               	movlw	21
  1958  00018C  6E0A               	movwf	(??_Write_Flash+1)^(0+1280),c
  1959  00018E  0064  FFF0  F50B   	movff	_frame+5,??_Write_Flash+2
  1960  000194  500B               	movf	(??_Write_Flash+2)^(0+1280),w,c
  1961  000196  2609               	addwf	??_Write_Flash^(0+1280),f,c
  1962  000198  0E00               	movlw	0
  1963  00019A  220A               	addwfc	(??_Write_Flash+1)^(0+1280),f,c
  1964  00019C  501C               	movf	Write_Flash@i^(0+1280),w,c
  1965  00019E  2409               	addwf	??_Write_Flash^(0+1280),w,c
  1966  0001A0  6EE1               	movwf	fsr1l,c
  1967  0001A2  501D               	movf	(Write_Flash@i+1)^(0+1280),w,c
  1968  0001A4  200A               	addwfc	(??_Write_Flash+1)^(0+1280),w,c
  1969  0001A6  6EE2               	movwf	fsr1h,c
  1970  0001A8  C4DF F4E7          	movff	indf2,indf1
  1971  0001AC                     
  1972                           ;mcc_generated_files/pic18f_bootload.c: 284:     }
  1973  0001AC  4A1C               	infsnz	Write_Flash@i^(0+1280),f,c
  1974  0001AE  2A1D               	incf	(Write_Flash@i+1)^(0+1280),f,c
  1975  0001B0                     l1741:
  1976  0001B0  EE24  F3F8         	lfsr	2,_frame+1
  1977  0001B4  50DE               	movf	postinc2,w,c
  1978  0001B6  5C1C               	subwf	Write_Flash@i^(0+1280),w,c
  1979  0001B8  50DE               	movf	postinc2,w,c
  1980  0001BA  581D               	subwfb	(Write_Flash@i+1)^(0+1280),w,c
  1981  0001BC  A0D8               	btfss	status,0,c
  1982  0001BE  EFE3  F000         	goto	u501
  1983  0001C2  EFE5  F000         	goto	u500
  1984  0001C6                     u501:
  1985  0001C6  EFBD  F000         	goto	l1737
  1986  0001CA                     u500:
  1987  0001CA                     
  1988                           ;mcc_generated_files/pic18f_bootload.c: 286:     NVMADRU = frame.address_U;
  1989  0001CA  0064  FFF8  F045   	movff	_frame+7,69	;volatile
  1990                           
  1991                           ;mcc_generated_files/pic18f_bootload.c: 287:     NVMADRH = frame.address_H;
  1992  0001D0  0064  FFF4  F044   	movff	_frame+6,68	;volatile
  1993                           
  1994                           ;mcc_generated_files/pic18f_bootload.c: 288:     NVMADRL = frame.address_L;
  1995  0001D6  0064  FFF0  F043   	movff	_frame+5,67	;volatile
  1996  0001DC                     
  1997                           ;mcc_generated_files/pic18f_bootload.c: 291:     NVMCON1bits.NVMCMD = 0b101;
  1998  0001DC  0100               	movlb	0	; () banked
  1999  0001DE  5141               	movf	65,w,b	;volsfr
  2000  0001E0  0BF8               	andlw	-8
  2001  0001E2  0905               	iorlw	5
  2002  0001E4  6F41               	movwf	65,b	;volsfr
  2003  0001E6                     
  2004                           ; BSR set to: 0
  2005                           ;mcc_generated_files/pic18f_bootload.c: 294:     INTCON0bits.GIE = 0;
  2006  0001E6  9ED6               	bcf	214,7,c	;volatile
  2007  0001E8                     
  2008                           ; BSR set to: 0
  2009                           ;mcc_generated_files/pic18f_bootload.c: 297:     StartWrite();
  2010  0001E8  EC70  F005         	call	_StartWrite	;wreg free
  2011  0001EC                     
  2012                           ;mcc_generated_files/pic18f_bootload.c: 300:     NVMCON0bits.GO = 1;
  2013  0001EC  0100               	movlb	0	; () banked
  2014  0001EE  8140               	bsf	64,0,b	;volatile
  2015  0001F0                     l349:
  2016                           
  2017                           ; BSR set to: 0
  2018  0001F0  B140               	btfsc	64,0,b	;volatile
  2019  0001F2  EFFD  F000         	goto	u511
  2020  0001F6  EFFF  F000         	goto	u510
  2021  0001FA                     u511:
  2022  0001FA  EFF8  F000         	goto	l349
  2023  0001FE                     u510:
  2024  0001FE                     
  2025                           ; BSR set to: 0
  2026                           ;mcc_generated_files/pic18f_bootload.c: 303:     frame.data[0] = 0x01;
  2027  0001FE  0E01               	movlw	1
  2028  000200  0061 F3A1  F400    	movff	wreg,_frame+9
  2029  000206                     
  2030                           ; BSR set to: 0
  2031                           ;mcc_generated_files/pic18f_bootload.c: 304:     EE_Key_1 = 0x00;
  2032  000206  0E00               	movlw	0
  2033  000208  6E00               	movwf	0,c
  2034                           
  2035                           ;mcc_generated_files/pic18f_bootload.c: 305:     EE_Key_2 = 0x00;
  2036  00020A  0E00               	movlw	0
  2037  00020C  6E01               	movwf	1,c
  2038                           
  2039                           ;mcc_generated_files/pic18f_bootload.c: 306:     return (10);
  2040  00020E  0E00               	movlw	0
  2041  000210  6E08               	movwf	(?_Write_Flash+1)^(0+1280),c
  2042  000212  0E0A               	movlw	10
  2043  000214  6E07               	movwf	?_Write_Flash^(0+1280),c
  2044  000216                     l345:
  2045  000216  0012               	return		;funcret
  2046  000218                     __end_of_Write_Flash:
  2047                           	callstack 0
  2048                           
  2049 ;; *************** function _FLASH_ReadPage *****************
  2050 ;; Defined at:
  2051 ;;		line 93 in file "mcc_generated_files/memory.c"
  2052 ;; Parameters:    Size  Location     Type
  2053 ;;  flashAddr       4    0[COMRAM] unsigned long 
  2054 ;; Auto vars:     Size  Location     Type
  2055 ;;  GIEBitValue     1    4[COMRAM] unsigned char 
  2056 ;; Return value:  Size  Location     Type
  2057 ;;                  1    wreg      void 
  2058 ;; Registers used:
  2059 ;;		wreg, status,2
  2060 ;; Tracked objects:
  2061 ;;		On entry : 0/0
  2062 ;;		On exit  : 0/0
  2063 ;;		Unchanged: 0/0
  2064 ;; Data sizes:     COMRAM   BANK5   BANK6   BANK7   BANK8   BANK9  BANK10  BANK11  BANK12  BANK13  BANK14  BANK15  BANK1
      +6  BANK17  BANK18  BANK19  BANK20
  2065 ;;      Params:         4       0       0       0       0       0       0       0       0       0       0       0       
      +0       0       0       0       0
  2066 ;;      Locals:         1       0       0       0       0       0       0       0       0       0       0       0       
      +0       0       0       0       0
  2067 ;;      Temps:          0       0       0       0       0       0       0       0       0       0       0       0       
      +0       0       0       0       0
  2068 ;;      Totals:         5       0       0       0       0       0       0       0       0       0       0       0       
      +0       0       0       0       0
  2069 ;;Total ram usage:        5 bytes
  2070 ;; Hardware stack levels used: 1
  2071 ;; Hardware stack levels required when called: 1
  2072 ;; This function calls:
  2073 ;;		Nothing
  2074 ;; This function is called by:
  2075 ;;		_Write_Flash
  2076 ;;		_FLASH_WriteWord
  2077 ;; This function uses a non-reentrant model
  2078 ;;
  2079                           
  2080                           	psect	text18
  2081  0009B0                     __ptext18:
  2082                           	callstack 0
  2083  0009B0                     _FLASH_ReadPage:
  2084                           	callstack 120
  2085  0009B0                     
  2086                           ;mcc_generated_files/memory.c: 93: void FLASH_ReadPage(uint32_t flashAddr);mcc_generated
      +                          _files/memory.c: 94: {;mcc_generated_files/memory.c: 95:     uint8_t GIEBitValue = INTCO
      +                          N0bits.GIE;
  2087  0009B0  0E00               	movlw	0
  2088  0009B2  BED6               	btfsc	214,7,c	;volatile
  2089  0009B4  0E01               	movlw	1
  2090  0009B6  6E06               	movwf	FLASH_ReadPage@GIEBitValue^(0+1280),c
  2091  0009B8                     
  2092                           ;mcc_generated_files/memory.c: 98:     NVMADRU = (uint8_t) ((flashAddr & 0x00FF0000) >> 
      +                          16);
  2093  0009B8  0061  F410  F045   	movff	FLASH_ReadPage@flashAddr+2,69	;volatile
  2094  0009BE                     
  2095                           ;mcc_generated_files/memory.c: 99:     NVMADRH = (uint8_t) ((flashAddr & 0x0000FF00) >> 
      +                          8);
  2096  0009BE  0061  F40C  F044   	movff	FLASH_ReadPage@flashAddr+1,68	;volatile
  2097  0009C4                     
  2098                           ;mcc_generated_files/memory.c: 100:     NVMADRL = (uint8_t) (flashAddr & 0x000000FF);
  2099  0009C4  0061  F408  F043   	movff	FLASH_ReadPage@flashAddr,67	;volatile
  2100  0009CA                     
  2101                           ;mcc_generated_files/memory.c: 103:     NVMCON1bits.NVMCMD = 0b010;
  2102  0009CA  0100               	movlb	0	; () banked
  2103  0009CC  5141               	movf	65,w,b	;volsfr
  2104  0009CE  0BF8               	andlw	-8
  2105  0009D0  0902               	iorlw	2
  2106  0009D2  6F41               	movwf	65,b	;volsfr
  2107  0009D4                     
  2108                           ; BSR set to: 0
  2109                           ;mcc_generated_files/memory.c: 106:     INTCON0bits.GIE = 0;
  2110  0009D4  9ED6               	bcf	214,7,c	;volatile
  2111  0009D6                     
  2112                           ; BSR set to: 0
  2113                           ;mcc_generated_files/memory.c: 109:     NVMLOCK = 0x55;
  2114  0009D6  0E55               	movlw	85
  2115  0009D8  6F42               	movwf	66,b	;volatile
  2116  0009DA                     
  2117                           ; BSR set to: 0
  2118                           ;mcc_generated_files/memory.c: 110:     NVMLOCK = 0xAA;
  2119  0009DA  0EAA               	movlw	170
  2120  0009DC  6F42               	movwf	66,b	;volatile
  2121  0009DE                     
  2122                           ; BSR set to: 0
  2123                           ;mcc_generated_files/memory.c: 113:     NVMCON0bits.GO = 1;
  2124  0009DE  8140               	bsf	64,0,b	;volatile
  2125  0009E0                     l423:
  2126                           
  2127                           ; BSR set to: 0
  2128  0009E0  B140               	btfsc	64,0,b	;volatile
  2129  0009E2  EFF5  F004         	goto	u451
  2130  0009E6  EFF7  F004         	goto	u450
  2131  0009EA                     u451:
  2132  0009EA  EFF0  F004         	goto	l423
  2133  0009EE                     u450:
  2134  0009EE                     
  2135                           ; BSR set to: 0
  2136                           ;mcc_generated_files/memory.c: 117:     INTCON0bits.GIE = GIEBitValue;
  2137  0009EE  B006               	btfsc	FLASH_ReadPage@GIEBitValue^(0+1280),0,c
  2138  0009F0  D002               	bra	u465
  2139  0009F2  9ED6               	bcf	214,7,c	;volatile
  2140  0009F4  D001               	bra	u466
  2141  0009F6                     u465:
  2142  0009F6  8ED6               	bsf	214,7,c	;volatile
  2143  0009F8                     u466:
  2144  0009F8                     
  2145                           ;mcc_generated_files/memory.c: 120:     NVMCON1bits.NVMCMD = 0b000;
  2146  0009F8  0EF8               	movlw	-8
  2147  0009FA  0100               	movlb	0	; () banked
  2148  0009FC  1741               	andwf	65,f,b	;volsfr
  2149  0009FE                     
  2150                           ; BSR set to: 0
  2151  0009FE  0012               	return		;funcret
  2152  000A00                     __end_of_FLASH_ReadPage:
  2153                           	callstack 0
  2154                           
  2155 ;; *************** function _Write_Config *****************
  2156 ;; Defined at:
  2157 ;;		line 387 in file "mcc_generated_files/pic18f_bootload.c"
  2158 ;; Parameters:    Size  Location     Type
  2159 ;;		None
  2160 ;; Auto vars:     Size  Location     Type
  2161 ;;  i               1    6[COMRAM] unsigned char 
  2162 ;; Return value:  Size  Location     Type
  2163 ;;                  2    0[COMRAM] unsigned short 
  2164 ;; Registers used:
  2165 ;;		wreg, fsr2l, fsr2h, status,2, status,0, cstack
  2166 ;; Tracked objects:
  2167 ;;		On entry : 0/0
  2168 ;;		On exit  : 0/0
  2169 ;;		Unchanged: 0/0
  2170 ;; Data sizes:     COMRAM   BANK5   BANK6   BANK7   BANK8   BANK9  BANK10  BANK11  BANK12  BANK13  BANK14  BANK15  BANK1
      +6  BANK17  BANK18  BANK19  BANK20
  2171 ;;      Params:         2       0       0       0       0       0       0       0       0       0       0       0       
      +0       0       0       0       0
  2172 ;;      Locals:         1       0       0       0       0       0       0       0       0       0       0       0       
      +0       0       0       0       0
  2173 ;;      Temps:          4       0       0       0       0       0       0       0       0       0       0       0       
      +0       0       0       0       0
  2174 ;;      Totals:         7       0       0       0       0       0       0       0       0       0       0       0       
      +0       0       0       0       0
  2175 ;;Total ram usage:        7 bytes
  2176 ;; Hardware stack levels used: 1
  2177 ;; Hardware stack levels required when called: 2
  2178 ;; This function calls:
  2179 ;;		_StartWrite
  2180 ;; This function is called by:
  2181 ;;		_ProcessBootBuffer
  2182 ;; This function uses a non-reentrant model
  2183 ;;
  2184                           
  2185                           	psect	text19
  2186  0006C0                     __ptext19:
  2187                           	callstack 0
  2188  0006C0                     _Write_Config:
  2189                           	callstack 120
  2190  0006C0                     
  2191                           ;mcc_generated_files/pic18f_bootload.c: 389:     TBLPTRL = frame.address_L;
  2192  0006C0  0064  FFF0  F4F6   	movff	_frame+5,tblptrl	;volatile
  2193                           
  2194                           ;mcc_generated_files/pic18f_bootload.c: 390:     TBLPTRH = frame.address_H;
  2195  0006C6  0064  FFF4  F4F7   	movff	_frame+6,tblptrh	;volatile
  2196                           
  2197                           ;mcc_generated_files/pic18f_bootload.c: 391:     TBLPTRU = frame.address_U;
  2198  0006CC  0064  FFF8  F4F8   	movff	_frame+7,tblptru	;volatile
  2199  0006D2                     
  2200                           ;mcc_generated_files/pic18f_bootload.c: 392:     if (TBLPTR > 0x20000F)
  2201  0006D2  0E10               	movlw	16
  2202  0006D4  5CF6               	subwf	246,w,c	;volatile
  2203  0006D6  0E00               	movlw	0
  2204  0006D8  58F7               	subwfb	247,w,c	;volatile
  2205  0006DA  0E20               	movlw	32
  2206  0006DC  58F8               	subwfb	248,w,c	;volatile
  2207  0006DE  A0D8               	btfss	status,0,c
  2208  0006E0  EF74  F003         	goto	u551
  2209  0006E4  EF76  F003         	goto	u550
  2210  0006E8                     u551:
  2211  0006E8  EF7B  F003         	goto	l1811
  2212  0006EC                     u550:
  2213  0006EC                     
  2214                           ;mcc_generated_files/pic18f_bootload.c: 393:         NVMCON1 = 0xC4;
  2215  0006EC  0EC4               	movlw	196
  2216  0006EE  0100               	movlb	0	; () banked
  2217  0006F0  6F41               	movwf	65,b	;volsfr
  2218  0006F2  EF7E  F003         	goto	l367
  2219  0006F6                     l1811:
  2220                           
  2221                           ;mcc_generated_files/pic18f_bootload.c: 395:         NVMCON1 = 0x84;
  2222  0006F6  0E84               	movlw	132
  2223  0006F8  0100               	movlb	0	; () banked
  2224  0006FA  6F41               	movwf	65,b	;volsfr
  2225  0006FC                     l367:
  2226                           
  2227                           ; BSR set to: 0
  2228                           ;mcc_generated_files/pic18f_bootload.c: 396:     for (uint8_t i= 0; i < frame.data_lengt
      +                          h; i ++)
  2229  0006FC  0E00               	movlw	0
  2230  0006FE  6E08               	movwf	Write_Config@i^(0+1280),c
  2231  000700  EF8F  F003         	goto	l1821
  2232  000704                     l1813:
  2233                           
  2234                           ;mcc_generated_files/pic18f_bootload.c: 397:     {;mcc_generated_files/pic18f_bootload.c
      +                          : 398:         TABLAT = frame.data[i];
  2235  000704  0E00               	movlw	low (_frame+9)
  2236  000706  2408               	addwf	Write_Config@i^(0+1280),w,c
  2237  000708  6ED9               	movwf	fsr2l,c
  2238  00070A  6ADA               	clrf	fsr2h,c
  2239  00070C  0E14               	movlw	high (_frame+9)
  2240  00070E  22DA               	addwfc	fsr2h,f,c
  2241  000710  50DF               	movf	indf2,w,c
  2242  000712  6EF5               	movwf	245,c	;volatile
  2243  000714  000C               	tblwt		*	;# 
  2244  000716                     
  2245                           ;mcc_generated_files/pic18f_bootload.c: 400:         StartWrite();
  2246  000716  EC70  F005         	call	_StartWrite	;wreg free
  2247  00071A                     
  2248                           ;mcc_generated_files/pic18f_bootload.c: 401:         ++ TBLPTRL;
  2249  00071A  2AF6               	incf	246,f,c	;volatile
  2250  00071C                     
  2251                           ;mcc_generated_files/pic18f_bootload.c: 402:     }
  2252  00071C  2A08               	incf	Write_Config@i^(0+1280),f,c
  2253  00071E                     l1821:
  2254  00071E  EE24  F3F8         	lfsr	2,_frame+1
  2255  000722  5008               	movf	Write_Config@i^(0+1280),w,c
  2256  000724  6E06               	movwf	(??_Write_Config+2)^(0+1280),c
  2257  000726  6A07               	clrf	(??_Write_Config+3)^(0+1280),c
  2258  000728  50DE               	movf	postinc2,w,c
  2259  00072A  5C06               	subwf	(??_Write_Config+2)^(0+1280),w,c
  2260  00072C  50DE               	movf	postinc2,w,c
  2261  00072E  5807               	subwfb	(??_Write_Config+3)^(0+1280),w,c
  2262  000730  A0D8               	btfss	status,0,c
  2263  000732  EF9D  F003         	goto	u561
  2264  000736  EF9F  F003         	goto	u560
  2265  00073A                     u561:
  2266  00073A  EF82  F003         	goto	l1813
  2267  00073E                     u560:
  2268  00073E                     
  2269                           ;mcc_generated_files/pic18f_bootload.c: 403:     frame.data[0] = 0x01;
  2270  00073E  0E01               	movlw	1
  2271  000740  0061 F3A1  F400    	movff	wreg,_frame+9
  2272  000746                     
  2273                           ;mcc_generated_files/pic18f_bootload.c: 404:     EE_Key_1 = 0x00;
  2274  000746  0E00               	movlw	0
  2275  000748  6E00               	movwf	0,c
  2276                           
  2277                           ;mcc_generated_files/pic18f_bootload.c: 405:     EE_Key_2 = 0x00;
  2278  00074A  0E00               	movlw	0
  2279  00074C  6E01               	movwf	1,c
  2280                           
  2281                           ;mcc_generated_files/pic18f_bootload.c: 406:     return (10);
  2282  00074E  0E00               	movlw	0
  2283  000750  6E03               	movwf	(?_Write_Config+1)^(0+1280),c
  2284  000752  0E0A               	movlw	10
  2285  000754  6E02               	movwf	?_Write_Config^(0+1280),c
  2286  000756  0012               	return		;funcret
  2287  000758                     __end_of_Write_Config:
  2288                           	callstack 0
  2289                           
  2290 ;; *************** function _Read_Config *****************
  2291 ;; Defined at:
  2292 ;;		line 367 in file "mcc_generated_files/pic18f_bootload.c"
  2293 ;; Parameters:    Size  Location     Type
  2294 ;;		None
  2295 ;; Auto vars:     Size  Location     Type
  2296 ;;  i               1    6[COMRAM] unsigned char 
  2297 ;; Return value:  Size  Location     Type
  2298 ;;                  2    0[COMRAM] unsigned short 
  2299 ;; Registers used:
  2300 ;;		wreg, fsr2l, fsr2h, status,2, status,0
  2301 ;; Tracked objects:
  2302 ;;		On entry : 0/0
  2303 ;;		On exit  : 0/0
  2304 ;;		Unchanged: 0/0
  2305 ;; Data sizes:     COMRAM   BANK5   BANK6   BANK7   BANK8   BANK9  BANK10  BANK11  BANK12  BANK13  BANK14  BANK15  BANK1
      +6  BANK17  BANK18  BANK19  BANK20
  2306 ;;      Params:         2       0       0       0       0       0       0       0       0       0       0       0       
      +0       0       0       0       0
  2307 ;;      Locals:         1       0       0       0       0       0       0       0       0       0       0       0       
      +0       0       0       0       0
  2308 ;;      Temps:          4       0       0       0       0       0       0       0       0       0       0       0       
      +0       0       0       0       0
  2309 ;;      Totals:         7       0       0       0       0       0       0       0       0       0       0       0       
      +0       0       0       0       0
  2310 ;;Total ram usage:        7 bytes
  2311 ;; Hardware stack levels used: 1
  2312 ;; Hardware stack levels required when called: 1
  2313 ;; This function calls:
  2314 ;;		Nothing
  2315 ;; This function is called by:
  2316 ;;		_ProcessBootBuffer
  2317 ;; This function uses a non-reentrant model
  2318 ;;
  2319                           
  2320                           	psect	text20
  2321  00087A                     __ptext20:
  2322                           	callstack 0
  2323  00087A                     _Read_Config:
  2324                           	callstack 121
  2325  00087A                     
  2326                           ;mcc_generated_files/pic18f_bootload.c: 369:     TBLPTRL = frame.address_L;
  2327  00087A  0064  FFF0  F4F6   	movff	_frame+5,tblptrl	;volatile
  2328                           
  2329                           ;mcc_generated_files/pic18f_bootload.c: 370:     TBLPTRH = frame.address_H;
  2330  000880  0064  FFF4  F4F7   	movff	_frame+6,tblptrh	;volatile
  2331                           
  2332                           ;mcc_generated_files/pic18f_bootload.c: 371:     TBLPTRU = frame.address_U;
  2333  000886  0064  FFF8  F4F8   	movff	_frame+7,tblptru	;volatile
  2334  00088C                     
  2335                           ;mcc_generated_files/pic18f_bootload.c: 372:  NVMCON1 = 0xC0;
  2336  00088C  0EC0               	movlw	192
  2337  00088E  0100               	movlb	0	; () banked
  2338  000890  6F41               	movwf	65,b	;volsfr
  2339                           
  2340                           ;mcc_generated_files/pic18f_bootload.c: 373:     for (uint8_t i = 0; i < frame.data_leng
      +                          th; i++)
  2341  000892  0E00               	movlw	0
  2342  000894  6E08               	movwf	Read_Config@i^(0+1280),c
  2343  000896  EF57  F004         	goto	l1799
  2344  00089A                     l361:
  2345  00089A  0009               	tblrd		*+	;# 
  2346  00089C                     
  2347                           ;mcc_generated_files/pic18f_bootload.c: 376:         frame.data[i] = TABLAT;
  2348  00089C  0E00               	movlw	low (_frame+9)
  2349  00089E  2408               	addwf	Read_Config@i^(0+1280),w,c
  2350  0008A0  6ED9               	movwf	fsr2l,c
  2351  0008A2  6ADA               	clrf	fsr2h,c
  2352  0008A4  0E14               	movlw	high (_frame+9)
  2353  0008A6  22DA               	addwfc	fsr2h,f,c
  2354  0008A8  C4F5 F4DF          	movff	tablat,indf2	;volatile
  2355  0008AC                     
  2356                           ;mcc_generated_files/pic18f_bootload.c: 377:     }
  2357  0008AC  2A08               	incf	Read_Config@i^(0+1280),f,c
  2358  0008AE                     l1799:
  2359  0008AE  EE24  F3F8         	lfsr	2,_frame+1
  2360  0008B2  5008               	movf	Read_Config@i^(0+1280),w,c
  2361  0008B4  6E06               	movwf	(??_Read_Config+2)^(0+1280),c
  2362  0008B6  6A07               	clrf	(??_Read_Config+3)^(0+1280),c
  2363  0008B8  50DE               	movf	postinc2,w,c
  2364  0008BA  5C06               	subwf	(??_Read_Config+2)^(0+1280),w,c
  2365  0008BC  50DE               	movf	postinc2,w,c
  2366  0008BE  5807               	subwfb	(??_Read_Config+3)^(0+1280),w,c
  2367  0008C0  A0D8               	btfss	status,0,c
  2368  0008C2  EF65  F004         	goto	u541
  2369  0008C6  EF67  F004         	goto	u540
  2370  0008CA                     u541:
  2371  0008CA  EF4D  F004         	goto	l361
  2372  0008CE                     u540:
  2373  0008CE                     
  2374                           ;mcc_generated_files/pic18f_bootload.c: 378:     return (9 + frame.data_length);
  2375  0008CE  EE24  F3F8         	lfsr	2,_frame+1
  2376  0008D2  0061 F378  F504    	movff	postinc2,??_Read_Config
  2377  0008D8  0061 F374  F505    	movff	postdec2,??_Read_Config+1
  2378  0008DE  0E09               	movlw	9
  2379  0008E0  2404               	addwf	??_Read_Config^(0+1280),w,c
  2380  0008E2  6E02               	movwf	?_Read_Config^(0+1280),c
  2381  0008E4  0E00               	movlw	0
  2382  0008E6  2005               	addwfc	(??_Read_Config+1)^(0+1280),w,c
  2383  0008E8  6E03               	movwf	(?_Read_Config+1)^(0+1280),c
  2384  0008EA  0012               	return		;funcret
  2385  0008EC                     __end_of_Read_Config:
  2386                           	callstack 0
  2387                           
  2388 ;; *************** function _Get_Version_Data *****************
  2389 ;; Defined at:
  2390 ;;		line 223 in file "mcc_generated_files/pic18f_bootload.c"
  2391 ;; Parameters:    Size  Location     Type
  2392 ;;		None
  2393 ;; Auto vars:     Size  Location     Type
  2394 ;;  i               1    2[COMRAM] unsigned char 
  2395 ;; Return value:  Size  Location     Type
  2396 ;;                  2    0[COMRAM] unsigned short 
  2397 ;; Registers used:
  2398 ;;		wreg, fsr2l, fsr2h, status,2, status,0
  2399 ;; Tracked objects:
  2400 ;;		On entry : 0/0
  2401 ;;		On exit  : 0/0
  2402 ;;		Unchanged: 0/0
  2403 ;; Data sizes:     COMRAM   BANK5   BANK6   BANK7   BANK8   BANK9  BANK10  BANK11  BANK12  BANK13  BANK14  BANK15  BANK1
      +6  BANK17  BANK18  BANK19  BANK20
  2404 ;;      Params:         2       0       0       0       0       0       0       0       0       0       0       0       
      +0       0       0       0       0
  2405 ;;      Locals:         1       0       0       0       0       0       0       0       0       0       0       0       
      +0       0       0       0       0
  2406 ;;      Temps:          0       0       0       0       0       0       0       0       0       0       0       0       
      +0       0       0       0       0
  2407 ;;      Totals:         3       0       0       0       0       0       0       0       0       0       0       0       
      +0       0       0       0       0
  2408 ;;Total ram usage:        3 bytes
  2409 ;; Hardware stack levels used: 1
  2410 ;; Hardware stack levels required when called: 1
  2411 ;; This function calls:
  2412 ;;		Nothing
  2413 ;; This function is called by:
  2414 ;;		_ProcessBootBuffer
  2415 ;; This function uses a non-reentrant model
  2416 ;;
  2417                           
  2418                           	psect	text21
  2419  000574                     __ptext21:
  2420                           	callstack 0
  2421  000574                     _Get_Version_Data:
  2422                           	callstack 121
  2423  000574                     
  2424                           ;mcc_generated_files/pic18f_bootload.c: 225:     frame.data[0] = 0x01;
  2425  000574  0E01               	movlw	1
  2426  000576  0061 F3A1  F400    	movff	wreg,_frame+9
  2427                           
  2428                           ;mcc_generated_files/pic18f_bootload.c: 226:     frame.data[1] = 0x01;
  2429  00057C  0E01               	movlw	1
  2430  00057E  0061 F3A1  F401    	movff	wreg,_frame+10
  2431                           
  2432                           ;mcc_generated_files/pic18f_bootload.c: 227:     frame.data[2] = 0;
  2433  000584  0E00               	movlw	0
  2434  000586  0061 F3A1  F402    	movff	wreg,_frame+11
  2435                           
  2436                           ;mcc_generated_files/pic18f_bootload.c: 228:     frame.data[3] = 1;
  2437  00058C  0E01               	movlw	1
  2438  00058E  0061 F3A1  F403    	movff	wreg,_frame+12
  2439                           
  2440                           ;mcc_generated_files/pic18f_bootload.c: 229:     frame.data[4] = 0;
  2441  000594  0E00               	movlw	0
  2442  000596  0061 F3A1  F404    	movff	wreg,_frame+13
  2443                           
  2444                           ;mcc_generated_files/pic18f_bootload.c: 230:     frame.data[5] = 0;
  2445  00059C  0E00               	movlw	0
  2446  00059E  0061 F3A1  F405    	movff	wreg,_frame+14
  2447  0005A4                     
  2448                           ;mcc_generated_files/pic18f_bootload.c: 231:     TBLPTRU = 0x3F;
  2449  0005A4  0E3F               	movlw	63
  2450  0005A6  6EF8               	movwf	248,c	;volatile
  2451  0005A8                     
  2452                           ;mcc_generated_files/pic18f_bootload.c: 232:     TBLPTRH = 0xFF;
  2453  0005A8  68F7               	setf	247,c	;volatile
  2454                           
  2455                           ;mcc_generated_files/pic18f_bootload.c: 233:     TBLPTRL = 0xFE;
  2456  0005AA  0EFE               	movlw	254
  2457  0005AC  6EF6               	movwf	246,c	;volatile
  2458                           
  2459                           ;mcc_generated_files/pic18f_bootload.c: 234:     NVMCON1 = 0xC0;
  2460  0005AE  0EC0               	movlw	192
  2461  0005B0  0100               	movlb	0	; () banked
  2462  0005B2  6F41               	movwf	65,b	;volsfr
  2463  0005B4  0009               	tblrd		*+	;# 
  2464  0005B6                     
  2465                           ;mcc_generated_files/pic18f_bootload.c: 236:     frame.data[6] = TABLAT;
  2466  0005B6  EE25  F006         	lfsr	2,_frame+15
  2467  0005BA  C4F5 F4DF          	movff	tablat,indf2	;volatile
  2468  0005BE  0009               	tblrd		*+	;# 
  2469  0005C0                     
  2470                           ;mcc_generated_files/pic18f_bootload.c: 238:     frame.data[7] = TABLAT;
  2471  0005C0  EE25  F007         	lfsr	2,_frame+16
  2472  0005C4  C4F5 F4DF          	movff	tablat,indf2	;volatile
  2473  0005C8                     
  2474                           ;mcc_generated_files/pic18f_bootload.c: 239:     frame.data[8] = 0;
  2475  0005C8  0E00               	movlw	0
  2476  0005CA  0061 F3A1  F408    	movff	wreg,_frame+17
  2477  0005D0                     
  2478                           ;mcc_generated_files/pic18f_bootload.c: 240:     frame.data[9] = 0;
  2479  0005D0  0E00               	movlw	0
  2480  0005D2  0061 F3A1  F409    	movff	wreg,_frame+18
  2481  0005D8                     
  2482                           ;mcc_generated_files/pic18f_bootload.c: 242:     frame.data[10] = 128;
  2483  0005D8  0E80               	movlw	128
  2484  0005DA  0061 F3A1  F40A    	movff	wreg,_frame+19
  2485  0005E0                     
  2486                           ;mcc_generated_files/pic18f_bootload.c: 243:     frame.data[11] = 128;
  2487  0005E0  0E80               	movlw	128
  2488  0005E2  0061 F3A1  F40B    	movff	wreg,_frame+20
  2489                           
  2490                           ;mcc_generated_files/pic18f_bootload.c: 245:     TBLPTRU = 0x30;
  2491  0005E8  0E30               	movlw	48
  2492  0005EA  6EF8               	movwf	248,c	;volatile
  2493                           
  2494                           ;mcc_generated_files/pic18f_bootload.c: 246:     TBLPTRH = 0x00;
  2495  0005EC  0E00               	movlw	0
  2496  0005EE  6EF7               	movwf	247,c	;volatile
  2497                           
  2498                           ;mcc_generated_files/pic18f_bootload.c: 247:     TBLPTRL = 0x00;
  2499  0005F0  0E00               	movlw	0
  2500  0005F2  6EF6               	movwf	246,c	;volatile
  2501                           
  2502                           ;mcc_generated_files/pic18f_bootload.c: 249:     for (uint8_t i= 12; i < 16; i++)
  2503  0005F4  0E0C               	movlw	12
  2504  0005F6  6E04               	movwf	Get_Version_Data@i^(0+1280),c
  2505  0005F8                     l337:
  2506  0005F8  0009               	tblrd		*+	;# 
  2507  0005FA                     
  2508                           ;mcc_generated_files/pic18f_bootload.c: 252:         frame.data[i] = TABLAT;
  2509  0005FA  0E00               	movlw	low (_frame+9)
  2510  0005FC  2404               	addwf	Get_Version_Data@i^(0+1280),w,c
  2511  0005FE  6ED9               	movwf	fsr2l,c
  2512  000600  6ADA               	clrf	fsr2h,c
  2513  000602  0E14               	movlw	high (_frame+9)
  2514  000604  22DA               	addwfc	fsr2h,f,c
  2515  000606  C4F5 F4DF          	movff	tablat,indf2	;volatile
  2516  00060A                     
  2517                           ;mcc_generated_files/pic18f_bootload.c: 253:     }
  2518  00060A  2A04               	incf	Get_Version_Data@i^(0+1280),f,c
  2519  00060C  0E0F               	movlw	15
  2520  00060E  6404               	cpfsgt	Get_Version_Data@i^(0+1280),c
  2521  000610  EF0C  F003         	goto	u481
  2522  000614  EF0E  F003         	goto	u480
  2523  000618                     u481:
  2524  000618  EFFC  F002         	goto	l337
  2525  00061C                     u480:
  2526  00061C                     
  2527                           ;mcc_generated_files/pic18f_bootload.c: 255:     return 25;
  2528  00061C  0E00               	movlw	0
  2529  00061E  6E03               	movwf	(?_Get_Version_Data+1)^(0+1280),c
  2530  000620  0E19               	movlw	25
  2531  000622  6E02               	movwf	?_Get_Version_Data^(0+1280),c
  2532  000624  0012               	return		;funcret
  2533  000626                     __end_of_Get_Version_Data:
  2534                           	callstack 0
  2535                           
  2536 ;; *************** function _Erase_Flash *****************
  2537 ;; Defined at:
  2538 ;;		line 317 in file "mcc_generated_files/pic18f_bootload.c"
  2539 ;; Parameters:    Size  Location     Type
  2540 ;;		None
  2541 ;; Auto vars:     Size  Location     Type
  2542 ;;  blockStartAd    4   24[COMRAM] unsigned long 
  2543 ;;  i               2   21[COMRAM] unsigned short 
  2544 ;;  address         4   17[COMRAM] unsigned long 
  2545 ;;  GIEBitValue     1   23[COMRAM] unsigned char 
  2546 ;; Return value:  Size  Location     Type
  2547 ;;                  2    0[COMRAM] unsigned short 
  2548 ;; Registers used:
  2549 ;;		wreg, fsr2l, fsr2h, status,2, status,0, cstack
  2550 ;; Tracked objects:
  2551 ;;		On entry : 0/0
  2552 ;;		On exit  : 0/0
  2553 ;;		Unchanged: 0/0
  2554 ;; Data sizes:     COMRAM   BANK5   BANK6   BANK7   BANK8   BANK9  BANK10  BANK11  BANK12  BANK13  BANK14  BANK15  BANK1
      +6  BANK17  BANK18  BANK19  BANK20
  2555 ;;      Params:         2       0       0       0       0       0       0       0       0       0       0       0       
      +0       0       0       0       0
  2556 ;;      Locals:        11       0       0       0       0       0       0       0       0       0       0       0       
      +0       0       0       0       0
  2557 ;;      Temps:         15       0       0       0       0       0       0       0       0       0       0       0       
      +0       0       0       0       0
  2558 ;;      Totals:        28       0       0       0       0       0       0       0       0       0       0       0       
      +0       0       0       0       0
  2559 ;;Total ram usage:       28 bytes
  2560 ;; Hardware stack levels used: 1
  2561 ;; Hardware stack levels required when called: 2
  2562 ;; This function calls:
  2563 ;;		_StartWrite
  2564 ;; This function is called by:
  2565 ;;		_ProcessBootBuffer
  2566 ;; This function uses a non-reentrant model
  2567 ;;
  2568                           
  2569                           	psect	text22
  2570  00034E                     __ptext22:
  2571                           	callstack 0
  2572  00034E                     _Erase_Flash:
  2573                           	callstack 120
  2574  00034E                     
  2575                           ;mcc_generated_files/pic18f_bootload.c: 319:     uint32_t address;;mcc_generated_files/p
      +                          ic18f_bootload.c: 321:     TBLPTRL = frame.address_L;
  2576  00034E  0064  FFF0  F4F6   	movff	_frame+5,tblptrl	;volatile
  2577                           
  2578                           ;mcc_generated_files/pic18f_bootload.c: 322:     TBLPTRH = frame.address_H;
  2579  000354  0064  FFF4  F4F7   	movff	_frame+6,tblptrh	;volatile
  2580                           
  2581                           ;mcc_generated_files/pic18f_bootload.c: 323:     TBLPTRU = frame.address_U;
  2582  00035A  0064  FFF8  F4F8   	movff	_frame+7,tblptru	;volatile
  2583  000360                     
  2584                           ;mcc_generated_files/pic18f_bootload.c: 324:     address = (((uint32_t)frame.address_U) 
      +                          << 16)
  2585  000360  0064  FFF4  F504   	movff	_frame+6,??_Erase_Flash
  2586  000366  C504  F505         	movff	??_Erase_Flash,??_Erase_Flash+1
  2587  00036A  6A06               	clrf	(??_Erase_Flash+2)^(0+1280),c
  2588  00036C  6A07               	clrf	(??_Erase_Flash+3)^(0+1280),c
  2589  00036E  6A08               	clrf	(??_Erase_Flash+4)^(0+1280),c
  2590  000370  C507  F508         	movff	??_Erase_Flash+3,??_Erase_Flash+4
  2591  000374  C506  F507         	movff	??_Erase_Flash+2,??_Erase_Flash+3
  2592  000378  C505  F506         	movff	??_Erase_Flash+1,??_Erase_Flash+2
  2593  00037C  6A05               	clrf	(??_Erase_Flash+1)^(0+1280),c
  2594  00037E  0064  FFF8  F509   	movff	_frame+7,??_Erase_Flash+5
  2595  000384  C509  F50A         	movff	??_Erase_Flash+5,??_Erase_Flash+6
  2596  000388  6A0B               	clrf	(??_Erase_Flash+7)^(0+1280),c
  2597  00038A  6A0C               	clrf	(??_Erase_Flash+8)^(0+1280),c
  2598  00038C  6A0D               	clrf	(??_Erase_Flash+9)^(0+1280),c
  2599  00038E  C50B  F50D         	movff	??_Erase_Flash+7,??_Erase_Flash+9
  2600  000392  C50A  F50C         	movff	??_Erase_Flash+6,??_Erase_Flash+8
  2601  000396  6A0B               	clrf	(??_Erase_Flash+7)^(0+1280),c
  2602  000398  6A0A               	clrf	(??_Erase_Flash+6)^(0+1280),c
  2603  00039A  5005               	movf	(??_Erase_Flash+1)^(0+1280),w,c
  2604  00039C  240A               	addwf	(??_Erase_Flash+6)^(0+1280),w,c
  2605  00039E  6E0E               	movwf	(??_Erase_Flash+10)^(0+1280),c
  2606  0003A0  5006               	movf	(??_Erase_Flash+2)^(0+1280),w,c
  2607  0003A2  200B               	addwfc	(??_Erase_Flash+7)^(0+1280),w,c
  2608  0003A4  6E0F               	movwf	(??_Erase_Flash+11)^(0+1280),c
  2609  0003A6  5007               	movf	(??_Erase_Flash+3)^(0+1280),w,c
  2610  0003A8  200C               	addwfc	(??_Erase_Flash+8)^(0+1280),w,c
  2611  0003AA  6E10               	movwf	(??_Erase_Flash+12)^(0+1280),c
  2612  0003AC  5008               	movf	(??_Erase_Flash+4)^(0+1280),w,c
  2613  0003AE  200D               	addwfc	(??_Erase_Flash+9)^(0+1280),w,c
  2614  0003B0  6E11               	movwf	(??_Erase_Flash+13)^(0+1280),c
  2615  0003B2  0064  FFF0  F512   	movff	_frame+5,??_Erase_Flash+14
  2616  0003B8  5012               	movf	(??_Erase_Flash+14)^(0+1280),w,c
  2617  0003BA  240E               	addwf	(??_Erase_Flash+10)^(0+1280),w,c
  2618  0003BC  6E13               	movwf	Erase_Flash@address^(0+1280),c
  2619  0003BE  0E00               	movlw	0
  2620  0003C0  200F               	addwfc	(??_Erase_Flash+11)^(0+1280),w,c
  2621  0003C2  6E14               	movwf	(Erase_Flash@address+1)^(0+1280),c
  2622  0003C4  0E00               	movlw	0
  2623  0003C6  2010               	addwfc	(??_Erase_Flash+12)^(0+1280),w,c
  2624  0003C8  6E15               	movwf	(Erase_Flash@address+2)^(0+1280),c
  2625  0003CA  0E00               	movlw	0
  2626  0003CC  2011               	addwfc	(??_Erase_Flash+13)^(0+1280),w,c
  2627  0003CE  6E16               	movwf	(Erase_Flash@address+3)^(0+1280),c
  2628  0003D0                     
  2629                           ;mcc_generated_files/pic18f_bootload.c: 328:     uint8_t GIEBitValue = INTCON0bits.GIE;
  2630  0003D0  0E00               	movlw	0
  2631  0003D2  BED6               	btfsc	214,7,c	;volatile
  2632  0003D4  0E01               	movlw	1
  2633  0003D6  6E19               	movwf	Erase_Flash@GIEBitValue^(0+1280),c
  2634  0003D8                     
  2635                           ;mcc_generated_files/pic18f_bootload.c: 331:     INTCON0bits.GIE = 0;
  2636  0003D8  9ED6               	bcf	214,7,c	;volatile
  2637  0003DA                     
  2638                           ;mcc_generated_files/pic18f_bootload.c: 333:     for (uint16_t i=0; i < frame.data_lengt
      +                          h; i++)
  2639  0003DA  0E00               	movlw	0
  2640  0003DC  6E18               	movwf	(Erase_Flash@i+1)^(0+1280),c
  2641  0003DE  0E00               	movlw	0
  2642  0003E0  6E17               	movwf	Erase_Flash@i^(0+1280),c
  2643  0003E2  EF16  F002         	goto	l1779
  2644  0003E6                     l1765:
  2645                           
  2646                           ;mcc_generated_files/pic18f_bootload.c: 334:     {;mcc_generated_files/pic18f_bootload.c
      +                          : 335:         uint32_t blockStartAddr = (uint32_t) (address & ((0x010000 - 1) ^ ((128 *
      +                           2) - 1)));
  2647  0003E6  0E00               	movlw	0
  2648  0003E8  1413               	andwf	Erase_Flash@address^(0+1280),w,c
  2649  0003EA  6E1A               	movwf	Erase_Flash@blockStartAddr^(0+1280),c
  2650  0003EC  0EFF               	movlw	255
  2651  0003EE  1414               	andwf	(Erase_Flash@address+1)^(0+1280),w,c
  2652  0003F0  6E1B               	movwf	(Erase_Flash@blockStartAddr+1)^(0+1280),c
  2653  0003F2  0E00               	movlw	0
  2654  0003F4  1415               	andwf	(Erase_Flash@address+2)^(0+1280),w,c
  2655  0003F6  6E1C               	movwf	(Erase_Flash@blockStartAddr+2)^(0+1280),c
  2656  0003F8  0E00               	movlw	0
  2657  0003FA  1416               	andwf	(Erase_Flash@address+3)^(0+1280),w,c
  2658  0003FC  6E1D               	movwf	(Erase_Flash@blockStartAddr+3)^(0+1280),c
  2659  0003FE                     
  2660                           ;mcc_generated_files/pic18f_bootload.c: 339:         NVMADRU = (uint8_t) ((blockStartAdd
      +                          r & 0x00FF0000) >> 16);
  2661  0003FE  0061  F470  F045   	movff	Erase_Flash@blockStartAddr+2,69	;volatile
  2662  000404                     
  2663                           ;mcc_generated_files/pic18f_bootload.c: 340:         NVMADRH = (uint8_t) ((blockStartAdd
      +                          r & 0x0000FF00) >> 8);
  2664  000404  0061  F46C  F044   	movff	Erase_Flash@blockStartAddr+1,68	;volatile
  2665  00040A                     
  2666                           ;mcc_generated_files/pic18f_bootload.c: 343:         NVMCON1bits.NVMCMD = 0b110;
  2667  00040A  0100               	movlb	0	; () banked
  2668  00040C  5141               	movf	65,w,b	;volsfr
  2669  00040E  0BF8               	andlw	-8
  2670  000410  0906               	iorlw	6
  2671  000412  6F41               	movwf	65,b	;volsfr
  2672  000414                     
  2673                           ; BSR set to: 0
  2674                           ;mcc_generated_files/pic18f_bootload.c: 346:         StartWrite();
  2675  000414  EC70  F005         	call	_StartWrite	;wreg free
  2676  000418                     
  2677                           ;mcc_generated_files/pic18f_bootload.c: 347:         address += 128 * 2;
  2678  000418  0E00               	movlw	0
  2679  00041A  2613               	addwf	Erase_Flash@address^(0+1280),f,c
  2680  00041C  0E01               	movlw	1
  2681  00041E  2214               	addwfc	(Erase_Flash@address+1)^(0+1280),f,c
  2682  000420  0E00               	movlw	0
  2683  000422  2215               	addwfc	(Erase_Flash@address+2)^(0+1280),f,c
  2684  000424  0E00               	movlw	0
  2685  000426  2216               	addwfc	(Erase_Flash@address+3)^(0+1280),f,c
  2686  000428                     
  2687                           ;mcc_generated_files/pic18f_bootload.c: 348:     }
  2688  000428  4A17               	infsnz	Erase_Flash@i^(0+1280),f,c
  2689  00042A  2A18               	incf	(Erase_Flash@i+1)^(0+1280),f,c
  2690  00042C                     l1779:
  2691  00042C  EE24  F3F8         	lfsr	2,_frame+1
  2692  000430  50DE               	movf	postinc2,w,c
  2693  000432  5C17               	subwf	Erase_Flash@i^(0+1280),w,c
  2694  000434  50DE               	movf	postinc2,w,c
  2695  000436  5818               	subwfb	(Erase_Flash@i+1)^(0+1280),w,c
  2696  000438  A0D8               	btfss	status,0,c
  2697  00043A  EF21  F002         	goto	u521
  2698  00043E  EF23  F002         	goto	u520
  2699  000442                     u521:
  2700  000442  EFF3  F001         	goto	l1765
  2701  000446                     u520:
  2702  000446                     
  2703                           ;mcc_generated_files/pic18f_bootload.c: 350:     INTCON0bits.GIE = GIEBitValue;
  2704  000446  B019               	btfsc	Erase_Flash@GIEBitValue^(0+1280),0,c
  2705  000448  D002               	bra	u535
  2706  00044A  9ED6               	bcf	214,7,c	;volatile
  2707  00044C  D001               	bra	u536
  2708  00044E                     u535:
  2709  00044E  8ED6               	bsf	214,7,c	;volatile
  2710  000450                     u536:
  2711  000450                     
  2712                           ;mcc_generated_files/pic18f_bootload.c: 353:     NVMCON1bits.NVMCMD = 0b000;
  2713  000450  0EF8               	movlw	-8
  2714  000452  0100               	movlb	0	; () banked
  2715  000454  1741               	andwf	65,f,b	;volsfr
  2716  000456                     
  2717                           ; BSR set to: 0
  2718                           ;mcc_generated_files/pic18f_bootload.c: 354:     frame.data[0] = 0x01;
  2719  000456  0E01               	movlw	1
  2720  000458  0061 F3A1  F400    	movff	wreg,_frame+9
  2721  00045E                     
  2722                           ; BSR set to: 0
  2723                           ;mcc_generated_files/pic18f_bootload.c: 355:     frame.EE_key_1 = 0x00;
  2724  00045E  0E00               	movlw	0
  2725  000460  0061 F3A1  F3FA    	movff	wreg,_frame+3
  2726  000466                     
  2727                           ; BSR set to: 0
  2728                           ;mcc_generated_files/pic18f_bootload.c: 356:     frame.EE_key_2 = 0x00;
  2729  000466  0E00               	movlw	0
  2730  000468  0061 F3A1  F3FB    	movff	wreg,_frame+4
  2731                           
  2732                           ;mcc_generated_files/pic18f_bootload.c: 357:     return (10);
  2733  00046E  0E00               	movlw	0
  2734  000470  6E03               	movwf	(?_Erase_Flash+1)^(0+1280),c
  2735  000472  0E0A               	movlw	10
  2736  000474  6E02               	movwf	?_Erase_Flash^(0+1280),c
  2737  000476                     
  2738                           ; BSR set to: 0
  2739  000476  0012               	return		;funcret
  2740  000478                     __end_of_Erase_Flash:
  2741                           	callstack 0
  2742                           
  2743 ;; *************** function _StartWrite *****************
  2744 ;; Defined at:
  2745 ;;		line 454 in file "mcc_generated_files/pic18f_bootload.c"
  2746 ;; Parameters:    Size  Location     Type
  2747 ;;		None
  2748 ;; Auto vars:     Size  Location     Type
  2749 ;;		None
  2750 ;; Return value:  Size  Location     Type
  2751 ;;                  1    wreg      void 
  2752 ;; Registers used:
  2753 ;;		None
  2754 ;; Tracked objects:
  2755 ;;		On entry : 0/0
  2756 ;;		On exit  : 0/0
  2757 ;;		Unchanged: 0/0
  2758 ;; Data sizes:     COMRAM   BANK5   BANK6   BANK7   BANK8   BANK9  BANK10  BANK11  BANK12  BANK13  BANK14  BANK15  BANK1
      +6  BANK17  BANK18  BANK19  BANK20
  2759 ;;      Params:         0       0       0       0       0       0       0       0       0       0       0       0       
      +0       0       0       0       0
  2760 ;;      Locals:         0       0       0       0       0       0       0       0       0       0       0       0       
      +0       0       0       0       0
  2761 ;;      Temps:          0       0       0       0       0       0       0       0       0       0       0       0       
      +0       0       0       0       0
  2762 ;;      Totals:         0       0       0       0       0       0       0       0       0       0       0       0       
      +0       0       0       0       0
  2763 ;;Total ram usage:        0 bytes
  2764 ;; Hardware stack levels used: 1
  2765 ;; Hardware stack levels required when called: 1
  2766 ;; This function calls:
  2767 ;;		Nothing
  2768 ;; This function is called by:
  2769 ;;		_Write_Flash
  2770 ;;		_Erase_Flash
  2771 ;;		_Write_Config
  2772 ;; This function uses a non-reentrant model
  2773 ;;
  2774                           
  2775                           	psect	text23
  2776  000AE0                     __ptext23:
  2777                           	callstack 0
  2778  000AE0                     _StartWrite:
  2779                           	callstack 120
  2780  000AE0  0100               	banksel	66	;# 
  2781  000AE2  5000               	movf	0,w,c	;# 
  2782  000AE4  6F42               	movwf	66,b	;# 
  2783  000AE6  5001               	movf	_EE_Key_2& (0+255),w,c	;# 
  2784  000AE8  6F42               	movwf	66,b	;# 
  2785  000AEA  8140               	bsf	64,0,b	;# 
  2786                           
  2787                           ;mcc_generated_files/pic18f_bootload.c: 462:     __nop();
  2788  000AEC  F000               	nop	
  2789                           
  2790                           ;mcc_generated_files/pic18f_bootload.c: 463:     __nop();
  2791  000AEE  F000               	nop	
  2792  000AF0  0012               	return		;funcret
  2793  000AF2                     __end_of_StartWrite:
  2794                           	callstack 0
  2795                           
  2796 ;; *************** function _Check_Device_Reset *****************
  2797 ;; Defined at:
  2798 ;;		line 472 in file "mcc_generated_files/pic18f_bootload.c"
  2799 ;; Parameters:    Size  Location     Type
  2800 ;;		None
  2801 ;; Auto vars:     Size  Location     Type
  2802 ;;		None
  2803 ;; Return value:  Size  Location     Type
  2804 ;;                  1    wreg      void 
  2805 ;; Registers used:
  2806 ;;		wreg, status,2, status,0
  2807 ;; Tracked objects:
  2808 ;;		On entry : 0/0
  2809 ;;		On exit  : 0/0
  2810 ;;		Unchanged: 0/0
  2811 ;; Data sizes:     COMRAM   BANK5   BANK6   BANK7   BANK8   BANK9  BANK10  BANK11  BANK12  BANK13  BANK14  BANK15  BANK1
      +6  BANK17  BANK18  BANK19  BANK20
  2812 ;;      Params:         0       0       0       0       0       0       0       0       0       0       0       0       
      +0       0       0       0       0
  2813 ;;      Locals:         0       0       0       0       0       0       0       0       0       0       0       0       
      +0       0       0       0       0
  2814 ;;      Temps:          0       0       0       0       0       0       0       0       0       0       0       0       
      +0       0       0       0       0
  2815 ;;      Totals:         0       0       0       0       0       0       0       0       0       0       0       0       
      +0       0       0       0       0
  2816 ;;Total ram usage:        0 bytes
  2817 ;; Hardware stack levels used: 1
  2818 ;; Hardware stack levels required when called: 1
  2819 ;; This function calls:
  2820 ;;		Nothing
  2821 ;; This function is called by:
  2822 ;;		_Run_Bootloader
  2823 ;; This function uses a non-reentrant model
  2824 ;;
  2825                           
  2826                           	psect	text24
  2827  000ACC                     __ptext24:
  2828                           	callstack 0
  2829  000ACC                     _Check_Device_Reset:
  2830                           	callstack 122
  2831  000ACC                     
  2832                           ;mcc_generated_files/pic18f_bootload.c: 474:     if (reset_pending == 1)
  2833  000ACC  042D               	decf	_reset_pending^(0+1280),w,c
  2834  000ACE  A4D8               	btfss	status,2,c
  2835  000AD0  EF6C  F005         	goto	u211
  2836  000AD4  EF6E  F005         	goto	u210
  2837  000AD8                     u211:
  2838  000AD8  EF6F  F005         	goto	l384
  2839  000ADC                     u210:
  2840  000ADC  00FF               	reset		;# 
  2841  000ADE                     l384:
  2842  000ADE  0012               	return		;funcret
  2843  000AE0                     __end_of_Check_Device_Reset:
  2844                           	callstack 0
  2845                           
  2846 ;; *************** function _Bootload_Required *****************
  2847 ;; Defined at:
  2848 ;;		line 137 in file "mcc_generated_files/pic18f_bootload.c"
  2849 ;; Parameters:    Size  Location     Type
  2850 ;;		None
  2851 ;; Auto vars:     Size  Location     Type
  2852 ;;  i               1   10[COMRAM] unsigned char 
  2853 ;;  Stored_Check    2    8[COMRAM] unsigned short 
  2854 ;; Return value:  Size  Location     Type
  2855 ;;                  1    wreg      _Bool 
  2856 ;; Registers used:
  2857 ;;		wreg, fsr2l, fsr2h, status,2, status,0, cstack
  2858 ;; Tracked objects:
  2859 ;;		On entry : 0/0
  2860 ;;		On exit  : 0/0
  2861 ;;		Unchanged: 0/0
  2862 ;; Data sizes:     COMRAM   BANK5   BANK6   BANK7   BANK8   BANK9  BANK10  BANK11  BANK12  BANK13  BANK14  BANK15  BANK1
      +6  BANK17  BANK18  BANK19  BANK20
  2863 ;;      Params:         0       0       0       0       0       0       0       0       0       0       0       0       
      +0       0       0       0       0
  2864 ;;      Locals:         3       0       0       0       0       0       0       0       0       0       0       0       
      +0       0       0       0       0
  2865 ;;      Temps:          0       0       0       0       0       0       0       0       0       0       0       0       
      +0       0       0       0       0
  2866 ;;      Totals:         3       0       0       0       0       0       0       0       0       0       0       0       
      +0       0       0       0       0
  2867 ;;Total ram usage:        3 bytes
  2868 ;; Hardware stack levels used: 1
  2869 ;; Hardware stack levels required when called: 2
  2870 ;; This function calls:
  2871 ;;		_Calc_Checksum
  2872 ;; This function is called by:
  2873 ;;		_BOOTLOADER_Initialize
  2874 ;; This function uses a non-reentrant model
  2875 ;;
  2876                           
  2877                           	psect	text25
  2878  000758                     __ptext25:
  2879                           	callstack 0
  2880  000758                     _Bootload_Required:
  2881                           	callstack 122
  2882  000758                     
  2883                           ;mcc_generated_files/pic18f_bootload.c: 143:     for (uint8_t i = 0; i != 0xFF; i++) __n
      +                          op();
  2884  000758  0E00               	movlw	0
  2885  00075A  6E0C               	movwf	Bootload_Required@i^(0+1280),c
  2886  00075C                     l317:
  2887  00075C  F000               	nop	
  2888  00075E  2A0C               	incf	Bootload_Required@i^(0+1280),f,c
  2889  000760  280C               	incf	Bootload_Required@i^(0+1280),w,c
  2890  000762  A4D8               	btfss	status,2,c
  2891  000764  EFB6  F003         	goto	u661
  2892  000768  EFB8  F003         	goto	u660
  2893  00076C                     u661:
  2894  00076C  EFAE  F003         	goto	l317
  2895  000770                     u660:
  2896  000770                     
  2897                           ;mcc_generated_files/pic18f_bootload.c: 145:     if (PORTCbits.RC0 == 0)
  2898  000770  B0D0               	btfsc	208,0,c	;volatile
  2899  000772  EFBD  F003         	goto	u671
  2900  000776  EFBF  F003         	goto	u670
  2901  00077A                     u671:
  2902  00077A  EFC2  F003         	goto	l319
  2903  00077E                     u670:
  2904  00077E                     l1905:
  2905                           
  2906                           ;mcc_generated_files/pic18f_bootload.c: 146:     {;mcc_generated_files/pic18f_bootload.c
      +                          : 147:         return (1);
  2907  00077E  0E01               	movlw	1
  2908  000780  EFF5  F003         	goto	l320
  2909  000784                     l319:
  2910                           
  2911                           ;mcc_generated_files/pic18f_bootload.c: 153:     uint16_t Stored_Checksum;;mcc_generated
      +                          _files/pic18f_bootload.c: 155:     frame.address_L = (uint8_t) (0xd00 & 0x0000FF);
  2912  000784  0E00               	movlw	0
  2913  000786  0061 F3A1  F3FC    	movff	wreg,_frame+5
  2914                           
  2915                           ;mcc_generated_files/pic18f_bootload.c: 156:     frame.address_H = (uint8_t) ((0xd00 & 0
      +                          x00FF00) >> 8);
  2916  00078C  0E0D               	movlw	13
  2917  00078E  0061 F3A1  F3FD    	movff	wreg,_frame+6
  2918                           
  2919                           ;mcc_generated_files/pic18f_bootload.c: 157:     frame.address_U = (uint8_t) ((0xd00 & 0
      +                          xFF0000) >> 16);
  2920  000794  0E00               	movlw	0
  2921  000796  0061 F3A1  F3FE    	movff	wreg,_frame+7
  2922                           
  2923                           ;mcc_generated_files/pic18f_bootload.c: 158:     frame.data_length = (0x010000 - 0xd00 -
      +                           2) & 0x00FFFF;
  2924  00079C  0EFE               	movlw	254
  2925  00079E  0061 F3A1  F3F8    	movff	wreg,_frame+1
  2926  0007A4  0EF2               	movlw	242
  2927  0007A6  0061 F3A1  F3F9    	movff	wreg,_frame+2
  2928  0007AC                     
  2929                           ;mcc_generated_files/pic18f_bootload.c: 162:     Calc_Checksum ();
  2930  0007AC  ECF6  F003         	call	_Calc_Checksum	;wreg free
  2931  0007B0                     
  2932                           ;mcc_generated_files/pic18f_bootload.c: 163:     TBLPTR = (0x010000 - 2);
  2933  0007B0  0EFE               	movlw	254
  2934  0007B2  6EF6               	movwf	246,c	;volatile
  2935  0007B4  0EFF               	movlw	255
  2936  0007B6  6EF7               	movwf	247,c	;volatile
  2937  0007B8  0E00               	movlw	0
  2938  0007BA  6EF8               	movwf	248,c	;volatile
  2939  0007BC  0009               	tblrd		*+	;# 
  2940  0007BE                     
  2941                           ;mcc_generated_files/pic18f_bootload.c: 165:     Stored_Checksum = TABLAT;
  2942  0007BE  0061 F3D4  F50A    	movff	tablat,Bootload_Required@Stored_Checksum	;volatile
  2943  0007C4  6A0B               	clrf	(Bootload_Required@Stored_Checksum+1)^(0+1280),c
  2944  0007C6  0009               	tblrd		*+	;# 
  2945  0007C8                     
  2946                           ;mcc_generated_files/pic18f_bootload.c: 167:     Stored_Checksum += ((uint16_t)TABLAT) <
      +                          < 8;
  2947  0007C8  50F5               	movf	245,w,c	;volatile
  2948  0007CA  260B               	addwf	(Bootload_Required@Stored_Checksum+1)^(0+1280),f,c
  2949  0007CC                     
  2950                           ;mcc_generated_files/pic18f_bootload.c: 169:     if (Stored_Checksum != check_sum)
  2951  0007CC  502B               	movf	_check_sum^(0+1280),w,c
  2952  0007CE  180A               	xorwf	Bootload_Required@Stored_Checksum^(0+1280),w,c
  2953  0007D0  E109               	bnz	u680
  2954  0007D2  502C               	movf	(_check_sum+1)^(0+1280),w,c
  2955  0007D4  180B               	xorwf	(Bootload_Required@Stored_Checksum+1)^(0+1280),w,c
  2956  0007D6  B4D8               	btfsc	status,2,c
  2957  0007D8  EFF0  F003         	goto	u681
  2958  0007DC  EFF2  F003         	goto	u680
  2959  0007E0                     u681:
  2960  0007E0  EFF4  F003         	goto	l1923
  2961  0007E4                     u680:
  2962  0007E4  EFBF  F003         	goto	l1905
  2963  0007E8                     l1923:
  2964                           
  2965                           ;mcc_generated_files/pic18f_bootload.c: 173:  return (0);
  2966  0007E8  0E00               	movlw	0
  2967  0007EA                     l320:
  2968  0007EA  0012               	return		;funcret
  2969  0007EC                     __end_of_Bootload_Required:
  2970                           	callstack 0
  2971                           
  2972 ;; *************** function _Calc_Checksum *****************
  2973 ;; Defined at:
  2974 ;;		line 417 in file "mcc_generated_files/pic18f_bootload.c"
  2975 ;; Parameters:    Size  Location     Type
  2976 ;;		None
  2977 ;; Auto vars:     Size  Location     Type
  2978 ;;  i               2    6[COMRAM] unsigned short 
  2979 ;;  length          2    4[COMRAM] unsigned short 
  2980 ;; Return value:  Size  Location     Type
  2981 ;;                  2    0[COMRAM] unsigned short 
  2982 ;; Registers used:
  2983 ;;		wreg, fsr2l, fsr2h, status,2, status,0
  2984 ;; Tracked objects:
  2985 ;;		On entry : 0/0
  2986 ;;		On exit  : 0/0
  2987 ;;		Unchanged: 0/0
  2988 ;; Data sizes:     COMRAM   BANK5   BANK6   BANK7   BANK8   BANK9  BANK10  BANK11  BANK12  BANK13  BANK14  BANK15  BANK1
      +6  BANK17  BANK18  BANK19  BANK20
  2989 ;;      Params:         2       0       0       0       0       0       0       0       0       0       0       0       
      +0       0       0       0       0
  2990 ;;      Locals:         4       0       0       0       0       0       0       0       0       0       0       0       
      +0       0       0       0       0
  2991 ;;      Temps:          2       0       0       0       0       0       0       0       0       0       0       0       
      +0       0       0       0       0
  2992 ;;      Totals:         8       0       0       0       0       0       0       0       0       0       0       0       
      +0       0       0       0       0
  2993 ;;Total ram usage:        8 bytes
  2994 ;; Hardware stack levels used: 1
  2995 ;; Hardware stack levels required when called: 1
  2996 ;; This function calls:
  2997 ;;		Nothing
  2998 ;; This function is called by:
  2999 ;;		_Bootload_Required
  3000 ;;		_ProcessBootBuffer
  3001 ;; This function uses a non-reentrant model
  3002 ;;
  3003                           
  3004                           	psect	text26
  3005  0007EC                     __ptext26:
  3006                           	callstack 0
  3007  0007EC                     _Calc_Checksum:
  3008                           	callstack 121
  3009  0007EC                     
  3010                           ;mcc_generated_files/pic18f_bootload.c: 423:     uint16_t i;;mcc_generated_files/pic18f_
      +                          bootload.c: 424:     uint16_t length;;mcc_generated_files/pic18f_bootload.c: 427:     TB
      +                          LPTRL = frame.address_L;
  3011  0007EC  0064  FFF0  F4F6   	movff	_frame+5,tblptrl	;volatile
  3012                           
  3013                           ;mcc_generated_files/pic18f_bootload.c: 428:     TBLPTRH = frame.address_H;
  3014  0007F2  0064  FFF4  F4F7   	movff	_frame+6,tblptrh	;volatile
  3015                           
  3016                           ;mcc_generated_files/pic18f_bootload.c: 429:     TBLPTRU = frame.address_U;
  3017  0007F8  0064  FFF8  F4F8   	movff	_frame+7,tblptru	;volatile
  3018  0007FE                     
  3019                           ;mcc_generated_files/pic18f_bootload.c: 430:     NVMCON1 = 0x80;
  3020  0007FE  0E80               	movlw	128
  3021  000800  0100               	movlb	0	; () banked
  3022  000802  6F41               	movwf	65,b	;volsfr
  3023                           
  3024                           ;mcc_generated_files/pic18f_bootload.c: 431:     check_sum = 0;
  3025  000804  0E00               	movlw	0
  3026  000806  6E2C               	movwf	(_check_sum+1)^(0+1280),c
  3027  000808  0E00               	movlw	0
  3028  00080A  6E2B               	movwf	_check_sum^(0+1280),c
  3029  00080C                     
  3030                           ; BSR set to: 0
  3031                           ;mcc_generated_files/pic18f_bootload.c: 432:     length = frame.data_length;
  3032  00080C  0064  FFE0  F506   	movff	_frame+1,Calc_Checksum@length
  3033  000812  0064  FFE4  F507   	movff	_frame+2,Calc_Checksum@length+1
  3034                           
  3035                           ;mcc_generated_files/pic18f_bootload.c: 436:     for (i = 0; i < length; i += 2)
  3036  000818  0E00               	movlw	0
  3037  00081A  6E09               	movwf	(Calc_Checksum@i+1)^(0+1280),c
  3038  00081C  0E00               	movlw	0
  3039  00081E  6E08               	movwf	Calc_Checksum@i^(0+1280),c
  3040  000820  EF1E  F004         	goto	l1683
  3041  000824                     l375:
  3042  000824  0009               	tblrd		*+	;# 
  3043  000826                     
  3044                           ;mcc_generated_files/pic18f_bootload.c: 439:         check_sum += (uint16_t)TABLAT;
  3045  000826  50F5               	movf	245,w,c	;volatile
  3046  000828  262B               	addwf	_check_sum^(0+1280),f,c
  3047  00082A  0E00               	movlw	0
  3048  00082C  222C               	addwfc	(_check_sum+1)^(0+1280),f,c
  3049  00082E  0009               	tblrd		*+	;# 
  3050  000830                     
  3051                           ;mcc_generated_files/pic18f_bootload.c: 441:         check_sum += (uint16_t)TABLAT << 8;
  3052  000830  50F5               	movf	245,w,c	;volatile
  3053  000832  262C               	addwf	(_check_sum+1)^(0+1280),f,c
  3054  000834                     
  3055                           ;mcc_generated_files/pic18f_bootload.c: 442:      }
  3056  000834  0E02               	movlw	2
  3057  000836  2608               	addwf	Calc_Checksum@i^(0+1280),f,c
  3058  000838  0E00               	movlw	0
  3059  00083A  2209               	addwfc	(Calc_Checksum@i+1)^(0+1280),f,c
  3060  00083C                     l1683:
  3061  00083C  5006               	movf	Calc_Checksum@length^(0+1280),w,c
  3062  00083E  5C08               	subwf	Calc_Checksum@i^(0+1280),w,c
  3063  000840  5007               	movf	(Calc_Checksum@length+1)^(0+1280),w,c
  3064  000842  5809               	subwfb	(Calc_Checksum@i+1)^(0+1280),w,c
  3065  000844  A0D8               	btfss	status,0,c
  3066  000846  EF27  F004         	goto	u471
  3067  00084A  EF29  F004         	goto	u470
  3068  00084E                     u471:
  3069  00084E  EF12  F004         	goto	l375
  3070  000852                     u470:
  3071  000852                     
  3072                           ;mcc_generated_files/pic18f_bootload.c: 443:      frame.data[0] = (uint8_t) (check_sum &
      +                           0x00FF);
  3073  000852  EE25  F000         	lfsr	2,_frame+9
  3074  000856  0061  F4AC  F4DF   	movff	_check_sum,indf2
  3075  00085C                     
  3076                           ;mcc_generated_files/pic18f_bootload.c: 444:      frame.data[1] = (uint8_t)((check_sum &
      +                           0xFF00) >> 8);
  3077  00085C  C52B  F504         	movff	_check_sum,??_Calc_Checksum
  3078  000860  C52C  F505         	movff	_check_sum+1,??_Calc_Checksum+1
  3079  000864  C505  F504         	movff	??_Calc_Checksum+1,??_Calc_Checksum
  3080  000868  6A05               	clrf	(??_Calc_Checksum+1)^(0+1280),c
  3081  00086A  0061  F411  F401   	movff	??_Calc_Checksum,_frame+10
  3082  000870                     
  3083                           ;mcc_generated_files/pic18f_bootload.c: 445:      return (11);
  3084  000870  0E00               	movlw	0
  3085  000872  6E03               	movwf	(?_Calc_Checksum+1)^(0+1280),c
  3086  000874  0E0B               	movlw	11
  3087  000876  6E02               	movwf	?_Calc_Checksum^(0+1280),c
  3088  000878  0012               	return		;funcret
  3089  00087A                     __end_of_Calc_Checksum:
  3090                           	callstack 0
  3091                           
  3092 ;; *************** function _MEMORY_ISR *****************
  3093 ;; Defined at:
  3094 ;;		line 278 in file "mcc_generated_files/memory.c"
  3095 ;; Parameters:    Size  Location     Type
  3096 ;;		None
  3097 ;; Auto vars:     Size  Location     Type
  3098 ;;		None
  3099 ;; Return value:  Size  Location     Type
  3100 ;;                  1    wreg      void 
  3101 ;; Registers used:
  3102 ;;		None
  3103 ;; Tracked objects:
  3104 ;;		On entry : 0/0
  3105 ;;		On exit  : 0/0
  3106 ;;		Unchanged: 0/0
  3107 ;; Data sizes:     COMRAM   BANK5   BANK6   BANK7   BANK8   BANK9  BANK10  BANK11  BANK12  BANK13  BANK14  BANK15  BANK1
      +6  BANK17  BANK18  BANK19  BANK20
  3108 ;;      Params:         0       0       0       0       0       0       0       0       0       0       0       0       
      +0       0       0       0       0
  3109 ;;      Locals:         0       0       0       0       0       0       0       0       0       0       0       0       
      +0       0       0       0       0
  3110 ;;      Temps:          0       0       0       0       0       0       0       0       0       0       0       0       
      +0       0       0       0       0
  3111 ;;      Totals:         0       0       0       0       0       0       0       0       0       0       0       0       
      +0       0       0       0       0
  3112 ;;Total ram usage:        0 bytes
  3113 ;; Hardware stack levels used: 1
  3114 ;; This function calls:
  3115 ;;		Nothing
  3116 ;; This function is called by:
  3117 ;;		Interrupt level 2
  3118 ;; This function uses a non-reentrant model
  3119 ;;
  3120                           
  3121                           	psect	text27
  3122  000B20                     __ptext27:
  3123                           	callstack 0
  3124  000B20                     _MEMORY_ISR:
  3125                           	callstack 120
  3126  000B20                     
  3127                           ;mcc_generated_files/memory.c: 281:     PIR0bits.NVMIF = 0;
  3128  000B20  98B3               	bcf	179,4,c	;volatile
  3129  000B22  0011               	retfie		f
  3130  000B24                     __end_of_MEMORY_ISR:
  3131                           	callstack 0
  3132                           
  3133                           ;
  3134                           ; Interrupt Vector Table @ 0x8
  3135                           ;
  3136                           
  3137                           	psect	ivt0x8
  3138  000008                     __pivt0x8:
  3139                           	callstack 0
  3140  000008                     ivt0x8_base:
  3141                           	callstack 0
  3142                           
  3143                           ; Vector 0 : SWINT
  3144  000008  002E               	dw	ivt0x8_undefint shr (0+2)
  3145                           
  3146                           ; Vector 1 : HLVD
  3147  00000A  002E               	dw	ivt0x8_undefint shr (0+2)
  3148                           
  3149                           ; Vector 2 : OSF
  3150  00000C  002E               	dw	ivt0x8_undefint shr (0+2)
  3151                           
  3152                           ; Vector 3 : CSW
  3153  00000E  002E               	dw	ivt0x8_undefint shr (0+2)
  3154                           
  3155                           ; Vector 4 : NVMIP
  3156  000010  02C8               	dw	_MEMORY_ISR shr (0+2)
  3157                           
  3158                           ; Vector 5 : CLC1
  3159  000012  002E               	dw	ivt0x8_undefint shr (0+2)
  3160                           
  3161                           ; Vector 6 : CRC
  3162  000014  002E               	dw	ivt0x8_undefint shr (0+2)
  3163                           
  3164                           ; Vector 7 : IOC
  3165  000016  002E               	dw	ivt0x8_undefint shr (0+2)
  3166                           
  3167                           ; Vector 8 : INT0
  3168  000018  002E               	dw	ivt0x8_undefint shr (0+2)
  3169                           
  3170                           ; Vector 9 : ZCD
  3171  00001A  002E               	dw	ivt0x8_undefint shr (0+2)
  3172                           
  3173                           ; Vector 10 : AD
  3174  00001C  002E               	dw	ivt0x8_undefint shr (0+2)
  3175                           
  3176                           ; Vector 11 : ACT
  3177  00001E  002E               	dw	ivt0x8_undefint shr (0+2)
  3178                           
  3179                           ; Vector 12 : CMP1
  3180  000020  002E               	dw	ivt0x8_undefint shr (0+2)
  3181                           
  3182                           ; Vector 13 : SMT1
  3183  000022  002E               	dw	ivt0x8_undefint shr (0+2)
  3184                           
  3185                           ; Vector 14 : SMT1PRA
  3186  000024  002E               	dw	ivt0x8_undefint shr (0+2)
  3187                           
  3188                           ; Vector 15 : SMT1PWA
  3189  000026  002E               	dw	ivt0x8_undefint shr (0+2)
  3190                           
  3191                           ; Vector 16 : ADT
  3192  000028  002E               	dw	ivt0x8_undefint shr (0+2)
  3193                           
  3194                           ; Vector 17 : Undefined
  3195  00002A  002E               	dw	ivt0x8_undefint shr (0+2)
  3196                           
  3197                           ; Vector 18 : Undefined
  3198  00002C  002E               	dw	ivt0x8_undefint shr (0+2)
  3199                           
  3200                           ; Vector 19 : Undefined
  3201  00002E  002E               	dw	ivt0x8_undefint shr (0+2)
  3202                           
  3203                           ; Vector 20 : DMA1SCNT
  3204  000030  002E               	dw	ivt0x8_undefint shr (0+2)
  3205                           
  3206                           ; Vector 21 : DMA1DCNT
  3207  000032  002E               	dw	ivt0x8_undefint shr (0+2)
  3208                           
  3209                           ; Vector 22 : DMA1OR
  3210  000034  002E               	dw	ivt0x8_undefint shr (0+2)
  3211                           
  3212                           ; Vector 23 : DMA1A
  3213  000036  002E               	dw	ivt0x8_undefint shr (0+2)
  3214                           
  3215                           ; Vector 24 : SPI1RX
  3216  000038  002E               	dw	ivt0x8_undefint shr (0+2)
  3217                           
  3218                           ; Vector 25 : SPI1TX
  3219  00003A  002E               	dw	ivt0x8_undefint shr (0+2)
  3220                           
  3221                           ; Vector 26 : SPI1
  3222  00003C  002E               	dw	ivt0x8_undefint shr (0+2)
  3223                           
  3224                           ; Vector 27 : TMR2
  3225  00003E  002E               	dw	ivt0x8_undefint shr (0+2)
  3226                           
  3227                           ; Vector 28 : TMR1
  3228  000040  002E               	dw	ivt0x8_undefint shr (0+2)
  3229                           
  3230                           ; Vector 29 : TMR1G
  3231  000042  002E               	dw	ivt0x8_undefint shr (0+2)
  3232                           
  3233                           ; Vector 30 : CCP1
  3234  000044  002E               	dw	ivt0x8_undefint shr (0+2)
  3235                           
  3236                           ; Vector 31 : TMR0
  3237  000046  002E               	dw	ivt0x8_undefint shr (0+2)
  3238                           
  3239                           ; Vector 32 : U1RX
  3240  000048  002E               	dw	ivt0x8_undefint shr (0+2)
  3241                           
  3242                           ; Vector 33 : U1TX
  3243  00004A  002E               	dw	ivt0x8_undefint shr (0+2)
  3244                           
  3245                           ; Vector 34 : U1E
  3246  00004C  002E               	dw	ivt0x8_undefint shr (0+2)
  3247                           
  3248                           ; Vector 35 : U1
  3249  00004E  002E               	dw	ivt0x8_undefint shr (0+2)
  3250                           
  3251                           ; Vector 36 : TMR3
  3252  000050  002E               	dw	ivt0x8_undefint shr (0+2)
  3253                           
  3254                           ; Vector 37 : TMR3G
  3255  000052  002E               	dw	ivt0x8_undefint shr (0+2)
  3256                           
  3257                           ; Vector 38 : PWM1PR
  3258  000054  002E               	dw	ivt0x8_undefint shr (0+2)
  3259                           
  3260                           ; Vector 39 : PWM1
  3261  000056  002E               	dw	ivt0x8_undefint shr (0+2)
  3262                           
  3263                           ; Vector 40 : SPI2RX
  3264  000058  002E               	dw	ivt0x8_undefint shr (0+2)
  3265                           
  3266                           ; Vector 41 : SPI2TX
  3267  00005A  002E               	dw	ivt0x8_undefint shr (0+2)
  3268                           
  3269                           ; Vector 42 : SPI2
  3270  00005C  002E               	dw	ivt0x8_undefint shr (0+2)
  3271                           
  3272                           ; Vector 43 : Undefined
  3273  00005E  002E               	dw	ivt0x8_undefint shr (0+2)
  3274                           
  3275                           ; Vector 44 : CMP2
  3276  000060  002E               	dw	ivt0x8_undefint shr (0+2)
  3277                           
  3278                           ; Vector 45 : CLC2
  3279  000062  002E               	dw	ivt0x8_undefint shr (0+2)
  3280                           
  3281                           ; Vector 46 : PWM2PR
  3282  000064  002E               	dw	ivt0x8_undefint shr (0+2)
  3283                           
  3284                           ; Vector 47 : PWM2
  3285  000066  002E               	dw	ivt0x8_undefint shr (0+2)
  3286                           
  3287                           ; Vector 48 : INT1
  3288  000068  002E               	dw	ivt0x8_undefint shr (0+2)
  3289                           
  3290                           ; Vector 49 : CWG1
  3291  00006A  002E               	dw	ivt0x8_undefint shr (0+2)
  3292                           
  3293                           ; Vector 50 : NCO1
  3294  00006C  002E               	dw	ivt0x8_undefint shr (0+2)
  3295                           
  3296                           ; Vector 51 : DMA2SCNT
  3297  00006E  002E               	dw	ivt0x8_undefint shr (0+2)
  3298                           
  3299                           ; Vector 52 : DMA2DCNT
  3300  000070  002E               	dw	ivt0x8_undefint shr (0+2)
  3301                           
  3302                           ; Vector 53 : DMA2OR
  3303  000072  002E               	dw	ivt0x8_undefint shr (0+2)
  3304                           
  3305                           ; Vector 54 : DMA2A
  3306  000074  002E               	dw	ivt0x8_undefint shr (0+2)
  3307                           
  3308                           ; Vector 55 : Undefined
  3309  000076  002E               	dw	ivt0x8_undefint shr (0+2)
  3310                           
  3311                           ; Vector 56 : I2C1RX
  3312  000078  002E               	dw	ivt0x8_undefint shr (0+2)
  3313                           
  3314                           ; Vector 57 : I2C1TX
  3315  00007A  002E               	dw	ivt0x8_undefint shr (0+2)
  3316                           
  3317                           ; Vector 58 : I2C1
  3318  00007C  002E               	dw	ivt0x8_undefint shr (0+2)
  3319                           
  3320                           ; Vector 59 : I2C1E
  3321  00007E  002E               	dw	ivt0x8_undefint shr (0+2)
  3322                           
  3323                           ; Vector 60 : Undefined
  3324  000080  002E               	dw	ivt0x8_undefint shr (0+2)
  3325                           
  3326                           ; Vector 61 : CLC3
  3327  000082  002E               	dw	ivt0x8_undefint shr (0+2)
  3328                           
  3329                           ; Vector 62 : PWM3PR
  3330  000084  002E               	dw	ivt0x8_undefint shr (0+2)
  3331                           
  3332                           ; Vector 63 : PWM3
  3333  000086  002E               	dw	ivt0x8_undefint shr (0+2)
  3334                           
  3335                           ; Vector 64 : U2RX
  3336  000088  002E               	dw	ivt0x8_undefint shr (0+2)
  3337                           
  3338                           ; Vector 65 : U2TX
  3339  00008A  002E               	dw	ivt0x8_undefint shr (0+2)
  3340                           
  3341                           ; Vector 66 : U2E
  3342  00008C  002E               	dw	ivt0x8_undefint shr (0+2)
  3343                           
  3344                           ; Vector 67 : U2
  3345  00008E  002E               	dw	ivt0x8_undefint shr (0+2)
  3346                           
  3347                           ; Vector 68 : Undefined
  3348  000090  002E               	dw	ivt0x8_undefint shr (0+2)
  3349                           
  3350                           ; Vector 69 : CLC4
  3351  000092  002E               	dw	ivt0x8_undefint shr (0+2)
  3352                           
  3353                           ; Vector 70 : Undefined
  3354  000094  002E               	dw	ivt0x8_undefint shr (0+2)
  3355                           
  3356                           ; Vector 71 : SCAN
  3357  000096  002E               	dw	ivt0x8_undefint shr (0+2)
  3358                           
  3359                           ; Vector 72 : U3RX
  3360  000098  002E               	dw	ivt0x8_undefint shr (0+2)
  3361                           
  3362                           ; Vector 73 : U3TX
  3363  00009A  002E               	dw	ivt0x8_undefint shr (0+2)
  3364                           
  3365                           ; Vector 74 : U3E
  3366  00009C  002E               	dw	ivt0x8_undefint shr (0+2)
  3367                           
  3368                           ; Vector 75 : U3
  3369  00009E  002E               	dw	ivt0x8_undefint shr (0+2)
  3370                           
  3371                           ; Vector 76 : DMA3SCNT
  3372  0000A0  002E               	dw	ivt0x8_undefint shr (0+2)
  3373                           
  3374                           ; Vector 77 : DMA3DCNT
  3375  0000A2  002E               	dw	ivt0x8_undefint shr (0+2)
  3376                           
  3377                           ; Vector 78 : DMA3OR
  3378  0000A4  002E               	dw	ivt0x8_undefint shr (0+2)
  3379                           
  3380                           ; Vector 79 : DMA3A
  3381  0000A6  002E               	dw	ivt0x8_undefint shr (0+2)
  3382                           
  3383                           ; Vector 80 : INT2
  3384  0000A8  002E               	dw	ivt0x8_undefint shr (0+2)
  3385                           
  3386                           ; Vector 81 : Undefined
  3387  0000AA  002E               	dw	ivt0x8_undefint shr (0+2)
  3388                           
  3389                           ; Vector 82 : Undefined
  3390  0000AC  002E               	dw	ivt0x8_undefint shr (0+2)
  3391                           
  3392                           ; Vector 83 : TMR4
  3393  0000AE  002E               	dw	ivt0x8_undefint shr (0+2)
  3394                           
  3395                           ; Vector 84 : DMA4SCNT
  3396  0000B0  002E               	dw	ivt0x8_undefint shr (0+2)
  3397                           
  3398                           ; Vector 85 : DMA4DCNT
  3399  0000B2  002E               	dw	ivt0x8_undefint shr (0+2)
  3400                           
  3401                           ; Vector 86 : DMA4OR
  3402  0000B4  002E               	dw	ivt0x8_undefint shr (0+2)
  3403                           
  3404                           ; Vector 87 : DMA4A
  3405  0000B6  002E               	dw	ivt0x8_undefint shr (0+2)
  3406  0000B8                     ivt0x8_undefint:
  3407                           	callstack 0
  3408  0000B8  00FF               	reset	
  3409  0000                     
  3410                           	psect	text28
  3411  000000                     __ptext28:
  3412                           	callstack 0
  3413  000000                     
  3414                           	psect	rparam
