

Microchip MPLAB XC8 Assembler V2.32 build 20210201212658 
                                                                                               Thu Jul 29 15:40:45 2021

Microchip MPLAB XC8 C Compiler v2.32 (Free license) build 20210201212658 Og1 
     1                           	processor	18F47Q10
     2                           	fnconf	rparam,??,?,0
     3                           	pagewidth 120
     4                           	opt	flic
     5                           	psect	intcode,global,reloc=2,class=CODE,delta=1
     6                           	psect	intcodelo,global,reloc=2,class=CODE,delta=1
     7                           	psect	text0,global,reloc=2,class=CODE,delta=1
     8                           	psect	nvCOMRAM,global,class=COMRAM,space=1,delta=1,lowdata,noexec
     9                           	psect	cinit,global,reloc=2,class=CODE,delta=1
    10                           	psect	bssCOMRAM,global,class=COMRAM,space=1,delta=1,lowdata,noexec
    11                           	psect	bssBANK0,global,class=BANK0,space=1,delta=1,lowdata,noexec
    12                           	psect	cstackCOMRAM,global,class=COMRAM,space=1,delta=1,lowdata,noexec
    13                           	psect	text1,global,reloc=2,class=CODE,delta=1
    14                           	psect	text2,global,reloc=2,class=CODE,delta=1
    15                           	psect	text3,global,reloc=2,class=CODE,delta=1
    16                           	psect	text4,global,reloc=2,class=CODE,delta=1
    17                           	psect	text5,global,reloc=2,class=CODE,delta=1
    18                           	psect	text6,global,reloc=2,class=CODE,delta=1
    19                           	psect	text7,global,reloc=2,class=CODE,delta=1
    20                           	psect	text8,global,reloc=2,class=CODE,delta=1
    21                           	psect	text9,global,reloc=2,class=CODE,delta=1
    22                           	psect	text10,global,reloc=2,class=CODE,delta=1
    23                           	psect	text11,global,reloc=2,class=CODE,delta=1
    24                           	psect	text12,global,reloc=2,class=CODE,delta=1
    25                           	psect	text13,global,reloc=2,class=CODE,delta=1
    26                           	psect	text14,global,reloc=2,class=CODE,delta=1
    27                           	psect	text15,global,reloc=2,class=CODE,delta=1
    28                           	psect	text16,global,reloc=2,class=CODE,delta=1
    29                           	psect	text17,global,reloc=2,class=CODE,delta=1
    30                           	psect	text18,global,reloc=2,class=CODE,delta=1
    31                           	psect	text19,global,reloc=2,class=CODE,delta=1
    32                           	psect	text20,global,reloc=2,class=CODE,delta=1
    33                           	psect	text21,global,reloc=2,class=CODE,delta=1
    34                           	psect	text22,global,reloc=2,class=CODE,delta=1
    35                           	psect	text23,global,reloc=2,class=CODE,delta=1
    36                           	psect	text24,global,reloc=2,class=CODE,delta=1
    37                           	psect	intsave_regs,global,class=BIGRAM,space=1,delta=1,noexec
    38                           	psect	rparam,global,class=COMRAM,space=1,delta=1,noexec
    39                           	psect	idloc,global,abs,ovrld,class=IDLOC,space=5,delta=1,noexec
    40                           	psect	config,global,abs,ovrld,class=CONFIG,space=4,delta=1,noexec
    41                           	dabs	1,0xD00,256,_PFM_Buffer
    42                           	dabs	1,0x1,1,_EE_Key_2
    43                           	dabs	1,0xD00,1,_sectorRAM
    44  0000                     
    45                           ; Version 2.35
    46                           ; Generated 04/06/2021 GMT
    47                           ; 
    48                           ; Copyright © 2021, Microchip Technology Inc. and its subsidiaries ("Microchip")
    49                           ; All rights reserved.
    50                           ; 
    51                           ; This software is developed by Microchip Technology Inc. and its subsidiaries ("Microch
      +                          ip").
    52                           ; 
    53                           ; Redistribution and use in source and binary forms, with or without modification, are
    54                           ; permitted provided that the following conditions are met:
    55                           ; 
    56                           ;     1. Redistributions of source code must retain the above copyright notice, this lis
      +                          t of
    57                           ;        conditions and the following disclaimer.
    58                           ; 
    59                           ;     2. Redistributions in binary form must reproduce the above copyright notice, this 
      +                          list
    60                           ;        of conditions and the following disclaimer in the documentation and/or other
    61                           ;        materials provided with the distribution. Publication is not required when
    62                           ;        this file is used in an embedded application.
    63                           ; 
    64                           ;     3. Microchip's name may not be used to endorse or promote products derived from th
      +                          is
    65                           ;        software without specific prior written permission.
    66                           ; 
    67                           ; THIS SOFTWARE IS PROVIDED BY MICROCHIP "AS IS" AND ANY EXPRESS OR IMPLIED WARRANTIES,
    68                           ; INCLUDING, BUT NOT LIMITED TO, THE IMPLIED WARRANTIES OF MERCHANTABILITY AND FITNESS F
      +                          OR
    69                           ; PURPOSE ARE DISCLAIMED.  IN NO EVENT SHALL MICROCHIP BE LIABLE FOR ANY DIRECT, INDIREC
      +                          T,
    70                           ; INCIDENTAL, SPECIAL, EXEMPLARY, OR CONSEQUENTIAL DAMAGES (INCLUDING BUT NOT LIMITED TO
    71                           ; PROCUREMENT OF SUBSTITUTE GOODS OR SERVICES; LOSS OF USE, DATA OR PROFITS; OR BUSINESS
    72                           ; INTERRUPTION) HOWSOEVER CAUSED AND ON ANY THEORY OF LIABILITY, WHETHER IN CONTRACT, ST
      +                          RICT
    73                           ; LIABILITY, OR TORT (INCLUDING NEGLIGENCE OR OTHERWISE) ARISING IN ANY WAY OUT OF THE U
      +                          SE OF
    74                           ; THIS SOFTWARE, EVEN IF ADVISED OF THE POSSIBILITY OF SUCH DAMAGE.
    75                           ; 
    76                           ; 
    77                           ; Code-generator required, PIC18F47Q10 Definitions
    78                           ; 
    79                           ; SFR Addresses
    80  0000                     
    81                           	psect	intcode
    82  000008  EF04 F005          	goto	2568	;# 
    83                           
    84                           	psect	intcodelo
    85  000018  EF0C F005          	goto	2584	;# 
    86  0000                     
    87 ;; Function _EUSART2_DefaultFramingErrorHandler is unused but had its address taken
    88  0000                     
    89 ;; Function _EUSART2_DefaultOverrunErrorHandler is unused but had its address taken
    90  0000                     
    91 ;; Function _EUSART2_DefaultErrorHandler is unused but had its address taken
    92  0000                     
    93                           ; 1 bytes @ 0x26
    94 ;;
    95 ;;Main: autosize = 0, tempsize = 0, incstack = 0, save=0
    96 ;;
    97 ;; *************** function _main *****************
    98 ;; Defined at:
    99 ;;		line 49 in file "main.c"
   100 ;; Parameters:    Size  Location     Type
   101 ;;		None
   102 ;; Auto vars:     Size  Location     Type
   103 ;;		None
   104 ;; Return value:  Size  Location     Type
   105 ;;                  1    wreg      void 
   106 ;; Registers used:
   107 ;;		wreg, fsr1l, fsr1h, fsr2l, fsr2h, status,2, status,0, cstack
   108 ;; Tracked objects:
   109 ;;		On entry : 0/0
   110 ;;		On exit  : 0/0
   111 ;;		Unchanged: 0/0
   112 ;; Data sizes:     COMRAM   BANK0   BANK1   BANK2   BANK3   BANK4   BANK5   BANK6   BANK7   BANK8   BANK9  BANK10  BANK1
      +1  BANK12  BANK14
   113 ;;      Params:         0       0       0       0       0       0       0       0       0       0       0       0       
      +0       0       0
   114 ;;      Locals:         0       0       0       0       0       0       0       0       0       0       0       0       
      +0       0       0
   115 ;;      Temps:          0       0       0       0       0       0       0       0       0       0       0       0       
      +0       0       0
   116 ;;      Totals:         0       0       0       0       0       0       0       0       0       0       0       0       
      +0       0       0
   117 ;;Total ram usage:        0 bytes
   118 ;; Hardware stack levels required when called: 6
   119 ;; This function calls:
   120 ;;		_SYSTEM_Initialize
   121 ;; This function is called by:
   122 ;;		Startup code after reset
   123 ;; This function uses a non-reentrant model
   124 ;;
   125                           
   126                           	psect	text0
   127  0008EC                     __ptext0:
   128                           	callstack 0
   129  0008EC                     _main:
   130                           	callstack 25
   131  0008EC                     
   132                           ;main.c: 52:     SYSTEM_Initialize();
   133  0008EC  EC4E  F004         	call	_SYSTEM_Initialize	;wreg free
   134  0008F0                     l479:
   135  0008F0  EF78  F004         	goto	l479
   136  0008F4  EF0E  F000         	goto	start
   137  0008F8                     __end_of_main:
   138                           	callstack 0
   139                           
   140                           	psect	nvCOMRAM
   141  000030                     __pnvCOMRAM:
   142                           	callstack 0
   143  000030                     _EUSART2_ErrorHandler:
   144                           	callstack 0
   145  000030                     	ds	2
   146  000032                     _EUSART2_OverrunErrorHandler:
   147                           	callstack 0
   148  000032                     	ds	2
   149  000034                     _EUSART2_FramingErrorHandler:
   150                           	callstack 0
   151  000034                     	ds	2
   152  0000                     _RX2PPS	set	3720
   153  0000                     _RD0PPS	set	3834
   154  0000                     _PIR7bits	set	3788
   155  0000                     _BAUDCTL2bits	set	3738
   156  0000                     _PMD5	set	3809
   157  0000                     _PMD4	set	3808
   158  0000                     _PMD3	set	3807
   159  0000                     _PMD2	set	3806
   160  0000                     _PMD1	set	3805
   161  0000                     _PMD0	set	3804
   162  0000                     _OSCTUNE	set	3800
   163  0000                     _OSCFRQ	set	3801
   164  0000                     _OSCEN	set	3799
   165  0000                     _OSCCON3	set	3797
   166  0000                     _OSCCON1	set	3795
   167  0000                     _TX2REG	set	3733
   168  0000                     _RC2REG	set	3732
   169  0000                     _RC2STAbits	set	3736
   170  0000                     _TX2STAbits	set	3737
   171  0000                     _PIR3bits	set	3784
   172  0000                     _SP2BRGH	set	3735
   173  0000                     _SP2BRGL	set	3734
   174  0000                     _TX2STA	set	3737
   175  0000                     _RC2STA	set	3736
   176  0000                     _BAUD2CON	set	3738
   177  0000                     _INLVLE	set	3877
   178  0000                     _INLVLD	set	3869
   179  0000                     _INLVLC	set	3864
   180  0000                     _INLVLB	set	3856
   181  0000                     _INLVLA	set	3848
   182  0000                     _SLRCONE	set	3878
   183  0000                     _SLRCOND	set	3870
   184  0000                     _SLRCONC	set	3865
   185  0000                     _SLRCONB	set	3857
   186  0000                     _SLRCONA	set	3849
   187  0000                     _ODCOND	set	3871
   188  0000                     _ODCONC	set	3866
   189  0000                     _ODCONB	set	3858
   190  0000                     _ODCONA	set	3850
   191  0000                     _ODCONE	set	3879
   192  0000                     _WPUC	set	3867
   193  0000                     _WPUA	set	3851
   194  0000                     _WPUB	set	3859
   195  0000                     _WPUE	set	3880
   196  0000                     _WPUD	set	3872
   197  0000                     _ANSELA	set	3852
   198  0000                     _ANSELE	set	3881
   199  0000                     _ANSELB	set	3860
   200  0000                     _ANSELC	set	3868
   201  0000                     _ANSELD	set	3873
   202  0000                     _TBLPTR	set	4086
   203  0000                     _TRISD	set	3978
   204  0000                     _TRISC	set	3977
   205  0000                     _TRISB	set	3976
   206  0000                     _TRISA	set	3975
   207  0000                     _TRISE	set	3979
   208  0000                     _LATC	set	3972
   209  0000                     _LATB	set	3971
   210  0000                     _LATA	set	3970
   211  0000                     _LATD	set	3973
   212  0000                     _LATE	set	3974
   213  0000                     _NVMCON1	set	3968
   214  0000                     _PORTBbits	set	3981
   215  0000                     _BSR	set	4064
   216  0000                     _STKPTR	set	4092
   217  0000                     _LATAbits	set	3970
   218  0000                     _NVMCON2	set	3969
   219  0000                     _NVMCON0bits	set	3967
   220  0000                     _INTCONbits	set	4082
   221  0000                     _NVMDATL	set	3964
   222  0000                     _NVMDATH	set	3965
   223  0000                     _NVMCON1bits	set	3968
   224  0000                     _NVMADRL	set	3961
   225  0000                     _NVMADRH	set	3962
   226  0000                     _NVMADRU	set	3963
   227  0000                     _TABLAT	set	4085
   228  0000                     _TBLPTRL	set	4086
   229  0000                     _TBLPTRH	set	4087
   230  0000                     _TBLPTRU	set	4088
   231                           
   232                           ; #config settings
   233                           
   234                           	psect	cinit
   235  00082E                     __pcinit:
   236                           	callstack 0
   237  00082E                     start_initialization:
   238                           	callstack 0
   239  00082E                     __initialization:
   240                           	callstack 0
   241                           
   242                           ; Clear objects allocated to BANK0 (137 bytes)
   243  00082E  EE00  F060         	lfsr	0,__pbssBANK0
   244  000832  0E89               	movlw	137
   245  000834                     clear_0:
   246  000834  6AEE               	clrf	postinc0,c
   247  000836  06E8               	decf	wreg,f,c
   248  000838  E1FD               	bnz	clear_0
   249                           
   250                           ; Clear objects allocated to COMRAM (8 bytes)
   251  00083A  EE00  F028         	lfsr	0,__pbssCOMRAM
   252  00083E  0E08               	movlw	8
   253  000840                     clear_1:
   254  000840  6AEE               	clrf	postinc0,c
   255  000842  06E8               	decf	wreg,f,c
   256  000844  E1FD               	bnz	clear_1
   257  000846                     end_of_initialization:
   258                           	callstack 0
   259  000846                     __end_of__initialization:
   260                           	callstack 0
   261  000846  0E00               	movlw	low (__Lmediumconst shr (0+16))
   262  000848  6EF8               	movwf	tblptru,c
   263  00084A  0100               	movlb	0
   264  00084C  EF76  F004         	goto	_main	;jump to C main() function
   265                           
   266                           	psect	bssCOMRAM
   267  000028                     __pbssCOMRAM:
   268                           	callstack 0
   269  000028                     _counter:
   270                           	callstack 0
   271  000028                     	ds	2
   272  00002A                     _check_sum:
   273                           	callstack 0
   274  00002A                     	ds	2
   275  00002C                     _reset_pending:
   276                           	callstack 0
   277  00002C                     	ds	1
   278  00002D                     _tx_data:
   279                           	callstack 0
   280  00002D                     	ds	1
   281  00002E                     _rx_data:
   282                           	callstack 0
   283  00002E                     	ds	1
   284  00002F                     _eusart2RxLastError:
   285                           	callstack 0
   286  00002F                     	ds	1
   287                           
   288                           	psect	bssBANK0
   289  000060                     __pbssBANK0:
   290                           	callstack 0
   291  000060                     _frame:
   292                           	callstack 0
   293  000060                     	ds	137
   294                           
   295                           	psect	cstackCOMRAM
   296  000002                     __pcstackCOMRAM:
   297                           	callstack 0
   298  000002                     ?_Get_Version_Data:
   299                           	callstack 0
   300  000002                     ?_Erase_Flash:
   301                           	callstack 0
   302  000002                     ?_Read_Config:
   303                           	callstack 0
   304  000002                     ?_Write_Config:
   305                           	callstack 0
   306  000002                     ?_Calc_Checksum:
   307                           	callstack 0
   308  000002                     EUSART2_Write@txData:
   309                           	callstack 0
   310  000002                     Bootload_Required@i:
   311                           	callstack 0
   312  000002                     EUSART2_SetFramingErrorHandler@interruptHandler:
   313                           	callstack 0
   314  000002                     EUSART2_SetOverrunErrorHandler@interruptHandler:
   315                           	callstack 0
   316  000002                     EUSART2_SetErrorHandler@interruptHandler:
   317                           	callstack 0
   318  000002                     FLASH_ReadSector@flashAddr:
   319                           	callstack 0
   320                           
   321                           ; 4 bytes @ 0x0
   322  000002                     	ds	2
   323  000004                     ??_Erase_Flash:
   324  000004                     ??_Read_Config:
   325  000004                     ??_Write_Config:
   326  000004                     ??_Calc_Checksum:
   327  000004                     Get_Version_Data@i:
   328                           	callstack 0
   329                           
   330                           ; 1 bytes @ 0x2
   331  000004                     	ds	2
   332  000006                     FLASH_ReadSector@GIEBitValue:
   333                           	callstack 0
   334  000006                     Read_Config@i:
   335                           	callstack 0
   336  000006                     Write_Config@i:
   337                           	callstack 0
   338                           
   339                           ; 1 bytes @ 0x4
   340  000006                     	ds	1
   341  000007                     ?_Write_Flash:
   342                           	callstack 0
   343                           
   344                           ; 2 bytes @ 0x5
   345  000007                     	ds	1
   346  000008                     Calc_Checksum@i:
   347                           	callstack 0
   348                           
   349                           ; 4 bytes @ 0x6
   350  000008                     	ds	1
   351  000009                     ??_Write_Flash:
   352                           
   353                           ; 1 bytes @ 0x7
   354  000009                     	ds	3
   355  00000C                     Calc_Checksum@length:
   356                           	callstack 0
   357                           
   358                           ; 4 bytes @ 0xA
   359  00000C                     	ds	4
   360  000010                     Erase_Flash@address:
   361                           	callstack 0
   362                           
   363                           ; 4 bytes @ 0xE
   364  000010                     	ds	4
   365  000014                     Erase_Flash@i:
   366                           	callstack 0
   367                           
   368                           ; 2 bytes @ 0x12
   369  000014                     	ds	1
   370  000015                     Write_Flash@GIEBitValue:
   371                           	callstack 0
   372                           
   373                           ; 1 bytes @ 0x13
   374  000015                     	ds	1
   375  000016                     Erase_Flash@GIEBitValue:
   376                           	callstack 0
   377  000016                     Write_Flash@address:
   378                           	callstack 0
   379                           
   380                           ; 4 bytes @ 0x14
   381  000016                     	ds	1
   382  000017                     Erase_Flash@blockStartAddr:
   383                           	callstack 0
   384                           
   385                           ; 4 bytes @ 0x15
   386  000017                     	ds	3
   387  00001A                     Write_Flash@i:
   388                           	callstack 0
   389                           
   390                           ; 2 bytes @ 0x18
   391  00001A                     	ds	2
   392  00001C                     ?_ProcessBootBuffer:
   393                           	callstack 0
   394                           
   395                           ; 2 bytes @ 0x1A
   396  00001C                     	ds	2
   397  00001E                     ??_ProcessBootBuffer:
   398                           
   399                           ; 1 bytes @ 0x1C
   400  00001E                     	ds	2
   401  000020                     ProcessBootBuffer@len:
   402                           	callstack 0
   403                           
   404                           ; 2 bytes @ 0x1E
   405  000020                     	ds	2
   406  000022                     ??_Run_Bootloader:
   407                           
   408                           ; 1 bytes @ 0x20
   409  000022                     	ds	1
   410  000023                     Run_Bootloader@ch:
   411                           	callstack 0
   412                           
   413                           ; 1 bytes @ 0x21
   414  000023                     	ds	1
   415  000024                     Run_Bootloader@msg_length:
   416                           	callstack 0
   417                           
   418                           ; 2 bytes @ 0x22
   419  000024                     	ds	2
   420  000026                     Run_Bootloader@index:
   421                           	callstack 0
   422                           
   423                           ; 2 bytes @ 0x24
   424  000026                     	ds	2
   425  000028                     
   426 ;; *************** function _SYSTEM_Initialize *****************
   427 ;; Defined at:
   428 ;;		line 50 in file "mcc_generated_files/mcc.c"
   429 ;; Parameters:    Size  Location     Type
   430 ;;		None
   431 ;; Auto vars:     Size  Location     Type
   432 ;;		None
   433 ;; Return value:  Size  Location     Type
   434 ;;                  1    wreg      void 
   435 ;; Registers used:
   436 ;;		wreg, fsr1l, fsr1h, fsr2l, fsr2h, status,2, status,0, cstack
   437 ;; Tracked objects:
   438 ;;		On entry : 0/0
   439 ;;		On exit  : 0/0
   440 ;;		Unchanged: 0/0
   441 ;; Data sizes:     COMRAM   BANK0   BANK1   BANK2   BANK3   BANK4   BANK5   BANK6   BANK7   BANK8   BANK9  BANK10  BANK1
      +1  BANK12  BANK14
   442 ;;      Params:         0       0       0       0       0       0       0       0       0       0       0       0       
      +0       0       0
   443 ;;      Locals:         0       0       0       0       0       0       0       0       0       0       0       0       
      +0       0       0
   444 ;;      Temps:          0       0       0       0       0       0       0       0       0       0       0       0       
      +0       0       0
   445 ;;      Totals:         0       0       0       0       0       0       0       0       0       0       0       0       
      +0       0       0
   446 ;;Total ram usage:        0 bytes
   447 ;; Hardware stack levels used: 1
   448 ;; Hardware stack levels required when called: 5
   449 ;; This function calls:
   450 ;;		_BOOTLOADER_Initialize
   451 ;;		_EUSART2_Initialize
   452 ;;		_OSCILLATOR_Initialize
   453 ;;		_PIN_MANAGER_Initialize
   454 ;;		_PMD_Initialize
   455 ;; This function is called by:
   456 ;;		_main
   457 ;; This function uses a non-reentrant model
   458 ;;
   459                           
   460                           	psect	text1
   461  00089C                     __ptext1:
   462                           	callstack 0
   463  00089C                     _SYSTEM_Initialize:
   464                           	callstack 25
   465  00089C                     
   466                           ;mcc_generated_files/mcc.c: 52:     PMD_Initialize();
   467  00089C  EC28  F004         	call	_PMD_Initialize	;wreg free
   468                           
   469                           ;mcc_generated_files/mcc.c: 53:     PIN_MANAGER_Initialize();
   470  0008A0  ECCF  F002         	call	_PIN_MANAGER_Initialize	;wreg free
   471                           
   472                           ;mcc_generated_files/mcc.c: 54:     OSCILLATOR_Initialize();
   473  0008A4  EC36  F004         	call	_OSCILLATOR_Initialize	;wreg free
   474  0008A8                     
   475                           ;mcc_generated_files/mcc.c: 55:     EUSART2_Initialize();
   476  0008A8  ECAA  F003         	call	_EUSART2_Initialize	;wreg free
   477  0008AC                     
   478                           ;mcc_generated_files/mcc.c: 56:     BOOTLOADER_Initialize();
   479  0008AC  ECE9  F003         	call	_BOOTLOADER_Initialize	;wreg free
   480  0008B0  0012               	return		;funcret
   481  0008B2                     __end_of_SYSTEM_Initialize:
   482                           	callstack 0
   483                           
   484 ;; *************** function _PMD_Initialize *****************
   485 ;; Defined at:
   486 ;;		line 73 in file "mcc_generated_files/mcc.c"
   487 ;; Parameters:    Size  Location     Type
   488 ;;		None
   489 ;; Auto vars:     Size  Location     Type
   490 ;;		None
   491 ;; Return value:  Size  Location     Type
   492 ;;                  1    wreg      void 
   493 ;; Registers used:
   494 ;;		wreg, status,2
   495 ;; Tracked objects:
   496 ;;		On entry : 0/0
   497 ;;		On exit  : 0/0
   498 ;;		Unchanged: 0/0
   499 ;; Data sizes:     COMRAM   BANK0   BANK1   BANK2   BANK3   BANK4   BANK5   BANK6   BANK7   BANK8   BANK9  BANK10  BANK1
      +1  BANK12  BANK14
   500 ;;      Params:         0       0       0       0       0       0       0       0       0       0       0       0       
      +0       0       0
   501 ;;      Locals:         0       0       0       0       0       0       0       0       0       0       0       0       
      +0       0       0
   502 ;;      Temps:          0       0       0       0       0       0       0       0       0       0       0       0       
      +0       0       0
   503 ;;      Totals:         0       0       0       0       0       0       0       0       0       0       0       0       
      +0       0       0
   504 ;;Total ram usage:        0 bytes
   505 ;; Hardware stack levels used: 1
   506 ;; This function calls:
   507 ;;		Nothing
   508 ;; This function is called by:
   509 ;;		_SYSTEM_Initialize
   510 ;; This function uses a non-reentrant model
   511 ;;
   512                           
   513                           	psect	text2
   514  000850                     __ptext2:
   515                           	callstack 0
   516  000850                     _PMD_Initialize:
   517                           	callstack 29
   518  000850                     
   519                           ;mcc_generated_files/mcc.c: 76:     PMD0 = 0x00;
   520  000850  0E00               	movlw	0
   521  000852  010E               	movlb	14	; () banked
   522  000854  6FDC               	movwf	220,b	;volatile
   523                           
   524                           ;mcc_generated_files/mcc.c: 78:     PMD1 = 0x00;
   525  000856  0E00               	movlw	0
   526  000858  6FDD               	movwf	221,b	;volatile
   527                           
   528                           ;mcc_generated_files/mcc.c: 80:     PMD2 = 0x00;
   529  00085A  0E00               	movlw	0
   530  00085C  6FDE               	movwf	222,b	;volatile
   531                           
   532                           ;mcc_generated_files/mcc.c: 82:     PMD3 = 0x00;
   533  00085E  0E00               	movlw	0
   534  000860  6FDF               	movwf	223,b	;volatile
   535                           
   536                           ;mcc_generated_files/mcc.c: 84:     PMD4 = 0x00;
   537  000862  0E00               	movlw	0
   538  000864  6FE0               	movwf	224,b	;volatile
   539                           
   540                           ;mcc_generated_files/mcc.c: 86:     PMD5 = 0x00;
   541  000866  0E00               	movlw	0
   542  000868  6FE1               	movwf	225,b	;volatile
   543  00086A                     
   544                           ; BSR set to: 14
   545  00086A  0012               	return		;funcret
   546  00086C                     __end_of_PMD_Initialize:
   547                           	callstack 0
   548                           
   549 ;; *************** function _PIN_MANAGER_Initialize *****************
   550 ;; Defined at:
   551 ;;		line 55 in file "mcc_generated_files/pin_manager.c"
   552 ;; Parameters:    Size  Location     Type
   553 ;;		None
   554 ;; Auto vars:     Size  Location     Type
   555 ;;		None
   556 ;; Return value:  Size  Location     Type
   557 ;;                  1    wreg      void 
   558 ;; Registers used:
   559 ;;		wreg, status,2
   560 ;; Tracked objects:
   561 ;;		On entry : 0/0
   562 ;;		On exit  : 0/0
   563 ;;		Unchanged: 0/0
   564 ;; Data sizes:     COMRAM   BANK0   BANK1   BANK2   BANK3   BANK4   BANK5   BANK6   BANK7   BANK8   BANK9  BANK10  BANK1
      +1  BANK12  BANK14
   565 ;;      Params:         0       0       0       0       0       0       0       0       0       0       0       0       
      +0       0       0
   566 ;;      Locals:         0       0       0       0       0       0       0       0       0       0       0       0       
      +0       0       0
   567 ;;      Temps:          0       0       0       0       0       0       0       0       0       0       0       0       
      +0       0       0
   568 ;;      Totals:         0       0       0       0       0       0       0       0       0       0       0       0       
      +0       0       0
   569 ;;Total ram usage:        0 bytes
   570 ;; Hardware stack levels used: 1
   571 ;; This function calls:
   572 ;;		Nothing
   573 ;; This function is called by:
   574 ;;		_SYSTEM_Initialize
   575 ;; This function uses a non-reentrant model
   576 ;;
   577                           
   578                           	psect	text3
   579  00059E                     __ptext3:
   580                           	callstack 0
   581  00059E                     _PIN_MANAGER_Initialize:
   582                           	callstack 29
   583  00059E                     
   584                           ;mcc_generated_files/pin_manager.c: 60:     LATE = 0x00;
   585  00059E  0E00               	movlw	0
   586  0005A0  6E86               	movwf	134,c	;volatile
   587                           
   588                           ;mcc_generated_files/pin_manager.c: 61:     LATD = 0x01;
   589  0005A2  0E01               	movlw	1
   590  0005A4  6E85               	movwf	133,c	;volatile
   591                           
   592                           ;mcc_generated_files/pin_manager.c: 62:     LATA = 0x00;
   593  0005A6  0E00               	movlw	0
   594  0005A8  6E82               	movwf	130,c	;volatile
   595                           
   596                           ;mcc_generated_files/pin_manager.c: 63:     LATB = 0x00;
   597  0005AA  0E00               	movlw	0
   598  0005AC  6E83               	movwf	131,c	;volatile
   599                           
   600                           ;mcc_generated_files/pin_manager.c: 64:     LATC = 0x00;
   601  0005AE  0E00               	movlw	0
   602  0005B0  6E84               	movwf	132,c	;volatile
   603                           
   604                           ;mcc_generated_files/pin_manager.c: 69:     TRISE = 0x07;
   605  0005B2  0E07               	movlw	7
   606  0005B4  6E8B               	movwf	139,c	;volatile
   607                           
   608                           ;mcc_generated_files/pin_manager.c: 70:     TRISA = 0x7F;
   609  0005B6  0E7F               	movlw	127
   610  0005B8  6E87               	movwf	135,c	;volatile
   611  0005BA                     
   612                           ;mcc_generated_files/pin_manager.c: 71:     TRISB = 0xFF;
   613  0005BA  6888               	setf	136,c	;volatile
   614  0005BC                     
   615                           ;mcc_generated_files/pin_manager.c: 72:     TRISC = 0xFF;
   616  0005BC  6889               	setf	137,c	;volatile
   617                           
   618                           ;mcc_generated_files/pin_manager.c: 73:     TRISD = 0xFE;
   619  0005BE  0EFE               	movlw	254
   620  0005C0  6E8A               	movwf	138,c	;volatile
   621                           
   622                           ;mcc_generated_files/pin_manager.c: 78:     ANSELD = 0xFC;
   623  0005C2  0EFC               	movlw	252
   624  0005C4  010F               	movlb	15	; () banked
   625  0005C6  6F21               	movwf	33,b	;volatile
   626  0005C8                     
   627                           ; BSR set to: 15
   628                           ;mcc_generated_files/pin_manager.c: 79:     ANSELC = 0xFF;
   629  0005C8  691C               	setf	28,b	;volatile
   630                           
   631                           ;mcc_generated_files/pin_manager.c: 80:     ANSELB = 0xEF;
   632  0005CA  0EEF               	movlw	239
   633  0005CC  6F14               	movwf	20,b	;volatile
   634                           
   635                           ;mcc_generated_files/pin_manager.c: 81:     ANSELE = 0x07;
   636  0005CE  0E07               	movlw	7
   637  0005D0  6F29               	movwf	41,b	;volatile
   638                           
   639                           ;mcc_generated_files/pin_manager.c: 82:     ANSELA = 0x7F;
   640  0005D2  0E7F               	movlw	127
   641  0005D4  6F0C               	movwf	12,b	;volatile
   642                           
   643                           ;mcc_generated_files/pin_manager.c: 87:     WPUD = 0x00;
   644  0005D6  0E00               	movlw	0
   645  0005D8  6F20               	movwf	32,b	;volatile
   646                           
   647                           ;mcc_generated_files/pin_manager.c: 88:     WPUE = 0x00;
   648  0005DA  0E00               	movlw	0
   649  0005DC  6F28               	movwf	40,b	;volatile
   650                           
   651                           ;mcc_generated_files/pin_manager.c: 89:     WPUB = 0x00;
   652  0005DE  0E00               	movlw	0
   653  0005E0  6F13               	movwf	19,b	;volatile
   654                           
   655                           ;mcc_generated_files/pin_manager.c: 90:     WPUA = 0x00;
   656  0005E2  0E00               	movlw	0
   657  0005E4  6F0B               	movwf	11,b	;volatile
   658                           
   659                           ;mcc_generated_files/pin_manager.c: 91:     WPUC = 0x00;
   660  0005E6  0E00               	movlw	0
   661  0005E8  6F1B               	movwf	27,b	;volatile
   662                           
   663                           ;mcc_generated_files/pin_manager.c: 96:     ODCONE = 0x00;
   664  0005EA  0E00               	movlw	0
   665  0005EC  6F27               	movwf	39,b	;volatile
   666                           
   667                           ;mcc_generated_files/pin_manager.c: 97:     ODCONA = 0x00;
   668  0005EE  0E00               	movlw	0
   669  0005F0  6F0A               	movwf	10,b	;volatile
   670                           
   671                           ;mcc_generated_files/pin_manager.c: 98:     ODCONB = 0x00;
   672  0005F2  0E00               	movlw	0
   673  0005F4  6F12               	movwf	18,b	;volatile
   674                           
   675                           ;mcc_generated_files/pin_manager.c: 99:     ODCONC = 0x00;
   676  0005F6  0E00               	movlw	0
   677  0005F8  6F1A               	movwf	26,b	;volatile
   678                           
   679                           ;mcc_generated_files/pin_manager.c: 100:     ODCOND = 0x00;
   680  0005FA  0E00               	movlw	0
   681  0005FC  6F1F               	movwf	31,b	;volatile
   682  0005FE                     
   683                           ; BSR set to: 15
   684                           ;mcc_generated_files/pin_manager.c: 105:     SLRCONA = 0xFF;
   685  0005FE  6909               	setf	9,b	;volatile
   686  000600                     
   687                           ; BSR set to: 15
   688                           ;mcc_generated_files/pin_manager.c: 106:     SLRCONB = 0xFF;
   689  000600  6911               	setf	17,b	;volatile
   690  000602                     
   691                           ; BSR set to: 15
   692                           ;mcc_generated_files/pin_manager.c: 107:     SLRCONC = 0xFF;
   693  000602  6919               	setf	25,b	;volatile
   694  000604                     
   695                           ; BSR set to: 15
   696                           ;mcc_generated_files/pin_manager.c: 108:     SLRCOND = 0xFF;
   697  000604  691E               	setf	30,b	;volatile
   698                           
   699                           ;mcc_generated_files/pin_manager.c: 109:     SLRCONE = 0x07;
   700  000606  0E07               	movlw	7
   701  000608  6F26               	movwf	38,b	;volatile
   702  00060A                     
   703                           ; BSR set to: 15
   704                           ;mcc_generated_files/pin_manager.c: 114:     INLVLA = 0xFF;
   705  00060A  6908               	setf	8,b	;volatile
   706  00060C                     
   707                           ; BSR set to: 15
   708                           ;mcc_generated_files/pin_manager.c: 115:     INLVLB = 0xFF;
   709  00060C  6910               	setf	16,b	;volatile
   710  00060E                     
   711                           ; BSR set to: 15
   712                           ;mcc_generated_files/pin_manager.c: 116:     INLVLC = 0xFF;
   713  00060E  6918               	setf	24,b	;volatile
   714  000610                     
   715                           ; BSR set to: 15
   716                           ;mcc_generated_files/pin_manager.c: 117:     INLVLD = 0xFF;
   717  000610  691D               	setf	29,b	;volatile
   718                           
   719                           ;mcc_generated_files/pin_manager.c: 118:     INLVLE = 0x0F;
   720  000612  0E0F               	movlw	15
   721  000614  6F25               	movwf	37,b	;volatile
   722                           
   723                           ;mcc_generated_files/pin_manager.c: 127:     RD0PPS = 0x0B;
   724  000616  0E0B               	movlw	11
   725  000618  010E               	movlb	14	; () banked
   726  00061A  6FFA               	movwf	250,b	;volatile
   727                           
   728                           ;mcc_generated_files/pin_manager.c: 128:     RX2PPS = 0x19;
   729  00061C  0E19               	movlw	25
   730  00061E  6F88               	movwf	136,b	;volatile
   731  000620                     
   732                           ; BSR set to: 14
   733  000620  0012               	return		;funcret
   734  000622                     __end_of_PIN_MANAGER_Initialize:
   735                           	callstack 0
   736                           
   737 ;; *************** function _OSCILLATOR_Initialize *****************
   738 ;; Defined at:
   739 ;;		line 59 in file "mcc_generated_files/mcc.c"
   740 ;; Parameters:    Size  Location     Type
   741 ;;		None
   742 ;; Auto vars:     Size  Location     Type
   743 ;;		None
   744 ;; Return value:  Size  Location     Type
   745 ;;                  1    wreg      void 
   746 ;; Registers used:
   747 ;;		wreg, status,2
   748 ;; Tracked objects:
   749 ;;		On entry : 0/0
   750 ;;		On exit  : 0/0
   751 ;;		Unchanged: 0/0
   752 ;; Data sizes:     COMRAM   BANK0   BANK1   BANK2   BANK3   BANK4   BANK5   BANK6   BANK7   BANK8   BANK9  BANK10  BANK1
      +1  BANK12  BANK14
   753 ;;      Params:         0       0       0       0       0       0       0       0       0       0       0       0       
      +0       0       0
   754 ;;      Locals:         0       0       0       0       0       0       0       0       0       0       0       0       
      +0       0       0
   755 ;;      Temps:          0       0       0       0       0       0       0       0       0       0       0       0       
      +0       0       0
   756 ;;      Totals:         0       0       0       0       0       0       0       0       0       0       0       0       
      +0       0       0
   757 ;;Total ram usage:        0 bytes
   758 ;; Hardware stack levels used: 1
   759 ;; This function calls:
   760 ;;		Nothing
   761 ;; This function is called by:
   762 ;;		_SYSTEM_Initialize
   763 ;; This function uses a non-reentrant model
   764 ;;
   765                           
   766                           	psect	text4
   767  00086C                     __ptext4:
   768                           	callstack 0
   769  00086C                     _OSCILLATOR_Initialize:
   770                           	callstack 29
   771  00086C                     
   772                           ;mcc_generated_files/mcc.c: 62:     OSCCON1 = 0x60;
   773  00086C  0E60               	movlw	96
   774  00086E  010E               	movlb	14	; () banked
   775  000870  6FD3               	movwf	211,b	;volatile
   776                           
   777                           ;mcc_generated_files/mcc.c: 64:     OSCCON3 = 0x00;
   778  000872  0E00               	movlw	0
   779  000874  6FD5               	movwf	213,b	;volatile
   780                           
   781                           ;mcc_generated_files/mcc.c: 66:     OSCEN = 0x00;
   782  000876  0E00               	movlw	0
   783  000878  6FD7               	movwf	215,b	;volatile
   784                           
   785                           ;mcc_generated_files/mcc.c: 68:     OSCFRQ = 0x08;
   786  00087A  0E08               	movlw	8
   787  00087C  6FD9               	movwf	217,b	;volatile
   788                           
   789                           ;mcc_generated_files/mcc.c: 70:     OSCTUNE = 0x00;
   790  00087E  0E00               	movlw	0
   791  000880  6FD8               	movwf	216,b	;volatile
   792  000882                     
   793                           ; BSR set to: 14
   794  000882  0012               	return		;funcret
   795  000884                     __end_of_OSCILLATOR_Initialize:
   796                           	callstack 0
   797                           
   798 ;; *************** function _EUSART2_Initialize *****************
   799 ;; Defined at:
   800 ;;		line 66 in file "mcc_generated_files/eusart2.c"
   801 ;; Parameters:    Size  Location     Type
   802 ;;		None
   803 ;; Auto vars:     Size  Location     Type
   804 ;;		None
   805 ;; Return value:  Size  Location     Type
   806 ;;                  1    wreg      void 
   807 ;; Registers used:
   808 ;;		wreg, status,2, status,0, cstack
   809 ;; Tracked objects:
   810 ;;		On entry : 0/0
   811 ;;		On exit  : 0/0
   812 ;;		Unchanged: 0/0
   813 ;; Data sizes:     COMRAM   BANK0   BANK1   BANK2   BANK3   BANK4   BANK5   BANK6   BANK7   BANK8   BANK9  BANK10  BANK1
      +1  BANK12  BANK14
   814 ;;      Params:         0       0       0       0       0       0       0       0       0       0       0       0       
      +0       0       0
   815 ;;      Locals:         0       0       0       0       0       0       0       0       0       0       0       0       
      +0       0       0
   816 ;;      Temps:          0       0       0       0       0       0       0       0       0       0       0       0       
      +0       0       0
   817 ;;      Totals:         0       0       0       0       0       0       0       0       0       0       0       0       
      +0       0       0
   818 ;;Total ram usage:        0 bytes
   819 ;; Hardware stack levels used: 1
   820 ;; Hardware stack levels required when called: 1
   821 ;; This function calls:
   822 ;;		_EUSART2_SetErrorHandler
   823 ;;		_EUSART2_SetFramingErrorHandler
   824 ;;		_EUSART2_SetOverrunErrorHandler
   825 ;; This function is called by:
   826 ;;		_SYSTEM_Initialize
   827 ;; This function uses a non-reentrant model
   828 ;;
   829                           
   830                           	psect	text5
   831  000754                     __ptext5:
   832                           	callstack 0
   833  000754                     _EUSART2_Initialize:
   834                           	callstack 28
   835  000754                     
   836                           ;mcc_generated_files/eusart2.c: 71:     BAUD2CON = 0x08;
   837  000754  0E08               	movlw	8
   838  000756  010E               	movlb	14	; () banked
   839  000758  6F9A               	movwf	154,b	;volatile
   840                           
   841                           ;mcc_generated_files/eusart2.c: 74:     RC2STA = 0x90;
   842  00075A  0E90               	movlw	144
   843  00075C  6F98               	movwf	152,b	;volatile
   844                           
   845                           ;mcc_generated_files/eusart2.c: 77:     TX2STA = 0x24;
   846  00075E  0E24               	movlw	36
   847  000760  6F99               	movwf	153,b	;volatile
   848                           
   849                           ;mcc_generated_files/eusart2.c: 80:     SP2BRGL = 0x82;
   850  000762  0E82               	movlw	130
   851  000764  6F96               	movwf	150,b	;volatile
   852                           
   853                           ;mcc_generated_files/eusart2.c: 83:     SP2BRGH = 0x06;
   854  000766  0E06               	movlw	6
   855  000768  6F97               	movwf	151,b	;volatile
   856  00076A                     
   857                           ; BSR set to: 14
   858                           ;mcc_generated_files/eusart2.c: 86:     EUSART2_SetFramingErrorHandler(EUSART2_DefaultFr
      +                          amingErrorHandler);
   859  00076A  0E00               	movlw	0
   860  00076C  6E02               	movwf	EUSART2_SetFramingErrorHandler@interruptHandler^0,c
   861  00076E  0E00               	movlw	0
   862  000770  6E03               	movwf	(EUSART2_SetFramingErrorHandler@interruptHandler+1)^0,c
   863  000772  EC81  F004         	call	_EUSART2_SetFramingErrorHandler	;wreg free
   864  000776                     
   865                           ;mcc_generated_files/eusart2.c: 87:     EUSART2_SetOverrunErrorHandler(EUSART2_DefaultOv
      +                          errunErrorHandler);
   866  000776  0E00               	movlw	0
   867  000778  6E02               	movwf	EUSART2_SetOverrunErrorHandler@interruptHandler^0,c
   868  00077A  0E00               	movlw	0
   869  00077C  6E03               	movwf	(EUSART2_SetOverrunErrorHandler@interruptHandler+1)^0,c
   870  00077E  EC7C  F004         	call	_EUSART2_SetOverrunErrorHandler	;wreg free
   871  000782                     
   872                           ;mcc_generated_files/eusart2.c: 88:     EUSART2_SetErrorHandler(EUSART2_DefaultErrorHand
      +                          ler);
   873  000782  0E00               	movlw	0
   874  000784  6E02               	movwf	EUSART2_SetErrorHandler@interruptHandler^0,c
   875  000786  0E00               	movlw	0
   876  000788  6E03               	movwf	(EUSART2_SetErrorHandler@interruptHandler+1)^0,c
   877  00078A  EC86  F004         	call	_EUSART2_SetErrorHandler	;wreg free
   878  00078E                     
   879                           ;mcc_generated_files/eusart2.c: 90:     eusart2RxLastError.status = 0;
   880  00078E  0E00               	movlw	0
   881  000790  6E2F               	movwf	_eusart2RxLastError^0,c	;volatile
   882  000792  0012               	return		;funcret
   883  000794                     __end_of_EUSART2_Initialize:
   884                           	callstack 0
   885                           
   886 ;; *************** function _EUSART2_SetOverrunErrorHandler *****************
   887 ;; Defined at:
   888 ;;		line 161 in file "mcc_generated_files/eusart2.c"
   889 ;; Parameters:    Size  Location     Type
   890 ;;  interruptHan    2    0[COMRAM] PTR FTN()void 
   891 ;;		 -> EUSART2_DefaultOverrunErrorHandler(1), 
   892 ;; Auto vars:     Size  Location     Type
   893 ;;		None
   894 ;; Return value:  Size  Location     Type
   895 ;;                  1    wreg      void 
   896 ;; Registers used:
   897 ;;		wreg, status,2, status,0
   898 ;; Tracked objects:
   899 ;;		On entry : 0/0
   900 ;;		On exit  : 0/0
   901 ;;		Unchanged: 0/0
   902 ;; Data sizes:     COMRAM   BANK0   BANK1   BANK2   BANK3   BANK4   BANK5   BANK6   BANK7   BANK8   BANK9  BANK10  BANK1
      +1  BANK12  BANK14
   903 ;;      Params:         2       0       0       0       0       0       0       0       0       0       0       0       
      +0       0       0
   904 ;;      Locals:         0       0       0       0       0       0       0       0       0       0       0       0       
      +0       0       0
   905 ;;      Temps:          0       0       0       0       0       0       0       0       0       0       0       0       
      +0       0       0
   906 ;;      Totals:         2       0       0       0       0       0       0       0       0       0       0       0       
      +0       0       0
   907 ;;Total ram usage:        2 bytes
   908 ;; Hardware stack levels used: 1
   909 ;; This function calls:
   910 ;;		Nothing
   911 ;; This function is called by:
   912 ;;		_EUSART2_Initialize
   913 ;; This function uses a non-reentrant model
   914 ;;
   915                           
   916                           	psect	text6
   917  0008F8                     __ptext6:
   918                           	callstack 0
   919  0008F8                     _EUSART2_SetOverrunErrorHandler:
   920                           	callstack 28
   921  0008F8                     
   922                           ;mcc_generated_files/eusart2.c: 162:     EUSART2_OverrunErrorHandler = interruptHandler;
   923  0008F8  C002  F032         	movff	EUSART2_SetOverrunErrorHandler@interruptHandler,_EUSART2_OverrunErrorHandler
   924  0008FC  C003  F033         	movff	EUSART2_SetOverrunErrorHandler@interruptHandler+1,_EUSART2_OverrunErrorHandler+1
   925  000900  0012               	return		;funcret
   926  000902                     __end_of_EUSART2_SetOverrunErrorHandler:
   927                           	callstack 0
   928                           
   929 ;; *************** function _EUSART2_SetFramingErrorHandler *****************
   930 ;; Defined at:
   931 ;;		line 157 in file "mcc_generated_files/eusart2.c"
   932 ;; Parameters:    Size  Location     Type
   933 ;;  interruptHan    2    0[COMRAM] PTR FTN()void 
   934 ;;		 -> EUSART2_DefaultFramingErrorHandler(1), 
   935 ;; Auto vars:     Size  Location     Type
   936 ;;		None
   937 ;; Return value:  Size  Location     Type
   938 ;;                  1    wreg      void 
   939 ;; Registers used:
   940 ;;		wreg, status,2, status,0
   941 ;; Tracked objects:
   942 ;;		On entry : 0/0
   943 ;;		On exit  : 0/0
   944 ;;		Unchanged: 0/0
   945 ;; Data sizes:     COMRAM   BANK0   BANK1   BANK2   BANK3   BANK4   BANK5   BANK6   BANK7   BANK8   BANK9  BANK10  BANK1
      +1  BANK12  BANK14
   946 ;;      Params:         2       0       0       0       0       0       0       0       0       0       0       0       
      +0       0       0
   947 ;;      Locals:         0       0       0       0       0       0       0       0       0       0       0       0       
      +0       0       0
   948 ;;      Temps:          0       0       0       0       0       0       0       0       0       0       0       0       
      +0       0       0
   949 ;;      Totals:         2       0       0       0       0       0       0       0       0       0       0       0       
      +0       0       0
   950 ;;Total ram usage:        2 bytes
   951 ;; Hardware stack levels used: 1
   952 ;; This function calls:
   953 ;;		Nothing
   954 ;; This function is called by:
   955 ;;		_EUSART2_Initialize
   956 ;; This function uses a non-reentrant model
   957 ;;
   958                           
   959                           	psect	text7
   960  000902                     __ptext7:
   961                           	callstack 0
   962  000902                     _EUSART2_SetFramingErrorHandler:
   963                           	callstack 28
   964  000902                     
   965                           ;mcc_generated_files/eusart2.c: 158:     EUSART2_FramingErrorHandler = interruptHandler;
   966  000902  C002  F034         	movff	EUSART2_SetFramingErrorHandler@interruptHandler,_EUSART2_FramingErrorHandler
   967  000906  C003  F035         	movff	EUSART2_SetFramingErrorHandler@interruptHandler+1,_EUSART2_FramingErrorHandler+1
   968  00090A  0012               	return		;funcret
   969  00090C                     __end_of_EUSART2_SetFramingErrorHandler:
   970                           	callstack 0
   971                           
   972 ;; *************** function _EUSART2_SetErrorHandler *****************
   973 ;; Defined at:
   974 ;;		line 165 in file "mcc_generated_files/eusart2.c"
   975 ;; Parameters:    Size  Location     Type
   976 ;;  interruptHan    2    0[COMRAM] PTR FTN()void 
   977 ;;		 -> EUSART2_DefaultErrorHandler(1), 
   978 ;; Auto vars:     Size  Location     Type
   979 ;;		None
   980 ;; Return value:  Size  Location     Type
   981 ;;                  1    wreg      void 
   982 ;; Registers used:
   983 ;;		wreg, status,2, status,0
   984 ;; Tracked objects:
   985 ;;		On entry : 0/0
   986 ;;		On exit  : 0/0
   987 ;;		Unchanged: 0/0
   988 ;; Data sizes:     COMRAM   BANK0   BANK1   BANK2   BANK3   BANK4   BANK5   BANK6   BANK7   BANK8   BANK9  BANK10  BANK1
      +1  BANK12  BANK14
   989 ;;      Params:         2       0       0       0       0       0       0       0       0       0       0       0       
      +0       0       0
   990 ;;      Locals:         0       0       0       0       0       0       0       0       0       0       0       0       
      +0       0       0
   991 ;;      Temps:          0       0       0       0       0       0       0       0       0       0       0       0       
      +0       0       0
   992 ;;      Totals:         2       0       0       0       0       0       0       0       0       0       0       0       
      +0       0       0
   993 ;;Total ram usage:        2 bytes
   994 ;; Hardware stack levels used: 1
   995 ;; This function calls:
   996 ;;		Nothing
   997 ;; This function is called by:
   998 ;;		_EUSART2_Initialize
   999 ;; This function uses a non-reentrant model
  1000 ;;
  1001                           
  1002                           	psect	text8
  1003  00090C                     __ptext8:
  1004                           	callstack 0
  1005  00090C                     _EUSART2_SetErrorHandler:
  1006                           	callstack 28
  1007  00090C                     
  1008                           ;mcc_generated_files/eusart2.c: 166:     EUSART2_ErrorHandler = interruptHandler;
  1009  00090C  C002  F030         	movff	EUSART2_SetErrorHandler@interruptHandler,_EUSART2_ErrorHandler
  1010  000910  C003  F031         	movff	EUSART2_SetErrorHandler@interruptHandler+1,_EUSART2_ErrorHandler+1
  1011  000914  0012               	return		;funcret
  1012  000916                     __end_of_EUSART2_SetErrorHandler:
  1013                           	callstack 0
  1014                           
  1015 ;; *************** function _BOOTLOADER_Initialize *****************
  1016 ;; Defined at:
  1017 ;;		line 139 in file "mcc_generated_files/pic18f_bootload.c"
  1018 ;; Parameters:    Size  Location     Type
  1019 ;;		None
  1020 ;; Auto vars:     Size  Location     Type
  1021 ;;		None
  1022 ;; Return value:  Size  Location     Type
  1023 ;;                  1    wreg      void 
  1024 ;; Registers used:
  1025 ;;		wreg, fsr1l, fsr1h, fsr2l, fsr2h, status,2, status,0, cstack
  1026 ;; Tracked objects:
  1027 ;;		On entry : 0/0
  1028 ;;		On exit  : 0/0
  1029 ;;		Unchanged: 0/0
  1030 ;; Data sizes:     COMRAM   BANK0   BANK1   BANK2   BANK3   BANK4   BANK5   BANK6   BANK7   BANK8   BANK9  BANK10  BANK1
      +1  BANK12  BANK14
  1031 ;;      Params:         0       0       0       0       0       0       0       0       0       0       0       0       
      +0       0       0
  1032 ;;      Locals:         0       0       0       0       0       0       0       0       0       0       0       0       
      +0       0       0
  1033 ;;      Temps:          0       0       0       0       0       0       0       0       0       0       0       0       
      +0       0       0
  1034 ;;      Totals:         0       0       0       0       0       0       0       0       0       0       0       0       
      +0       0       0
  1035 ;;Total ram usage:        0 bytes
  1036 ;; Hardware stack levels used: 1
  1037 ;; Hardware stack levels required when called: 4
  1038 ;; This function calls:
  1039 ;;		_Bootload_Required
  1040 ;;		_Run_Bootloader
  1041 ;; This function is called by:
  1042 ;;		_SYSTEM_Initialize
  1043 ;; This function uses a non-reentrant model
  1044 ;;
  1045                           
  1046                           	psect	text9
  1047  0007D2                     __ptext9:
  1048                           	callstack 0
  1049  0007D2                     _BOOTLOADER_Initialize:
  1050                           	callstack 25
  1051  0007D2                     
  1052                           ;mcc_generated_files/pic18f_bootload.c: 141:     EE_Key_1 = 0;
  1053  0007D2  0E00               	movlw	0
  1054  0007D4  6E00               	movwf	0,c
  1055                           
  1056                           ;mcc_generated_files/pic18f_bootload.c: 142:     EE_Key_2 = 0;
  1057  0007D6  0E00               	movlw	0
  1058  0007D8  6E01               	movwf	1,c
  1059  0007DA                     
  1060                           ;mcc_generated_files/pic18f_bootload.c: 143:     LATAbits.LATA7 = 1;
  1061  0007DA  8E82               	bsf	130,7,c	;volatile
  1062  0007DC                     
  1063                           ;mcc_generated_files/pic18f_bootload.c: 144:     if (Bootload_Required () == 1)
  1064  0007DC  EC7F  F003         	call	_Bootload_Required	;wreg free
  1065  0007E0  06E8               	decf	wreg,f,c
  1066  0007E2  A4D8               	btfss	status,2,c
  1067  0007E4  EFF6  F003         	goto	u621
  1068  0007E8  EFF8  F003         	goto	u620
  1069  0007EC                     u621:
  1070  0007EC  EFFA  F003         	goto	l1914
  1071  0007F0                     u620:
  1072  0007F0                     
  1073                           ;mcc_generated_files/pic18f_bootload.c: 145:     {;mcc_generated_files/pic18f_bootload.c
      +                          : 146:         Run_Bootloader ();
  1074  0007F0  EC10  F000         	call	_Run_Bootloader	;wreg free
  1075  0007F4                     l1914:
  1076                           
  1077                           ;mcc_generated_files/pic18f_bootload.c: 148:     STKPTR = 0x00;
  1078  0007F4  0E00               	movlw	0
  1079  0007F6  6EFC               	movwf	252,c	;volatile
  1080  0007F8                     
  1081                           ;mcc_generated_files/pic18f_bootload.c: 149:  BSR = 0x00;
  1082  0007F8  0E00               	movlw	0
  1083  0007FA  6EE0               	movwf	224,c	;volatile
  1084  0007FC                     
  1085                           ;mcc_generated_files/pic18f_bootload.c: 150:  LATAbits.LATA7 = 0;
  1086  0007FC  9E82               	bcf	130,7,c	;volatile
  1087  0007FE  EF00 F005          	goto	2560	;# 
  1088  000802  0012               	return		;funcret
  1089  000804                     __end_of_BOOTLOADER_Initialize:
  1090                           	callstack 0
  1091                           
  1092 ;; *************** function _Run_Bootloader *****************
  1093 ;; Defined at:
  1094 ;;		line 57 in file "mcc_generated_files/pic18f_uart.c"
  1095 ;; Parameters:    Size  Location     Type
  1096 ;;		None
  1097 ;; Auto vars:     Size  Location     Type
  1098 ;;  ch              1   33[COMRAM] unsigned char 
  1099 ;;  index           2   36[COMRAM] volatile unsigned short 
  1100 ;;  msg_length      2   34[COMRAM] unsigned short 
  1101 ;; Return value:  Size  Location     Type
  1102 ;;                  1    wreg      void 
  1103 ;; Registers used:
  1104 ;;		wreg, fsr1l, fsr1h, fsr2l, fsr2h, status,2, status,0, cstack
  1105 ;; Tracked objects:
  1106 ;;		On entry : 0/0
  1107 ;;		On exit  : 0/0
  1108 ;;		Unchanged: 0/0
  1109 ;; Data sizes:     COMRAM   BANK0   BANK1   BANK2   BANK3   BANK4   BANK5   BANK6   BANK7   BANK8   BANK9  BANK10  BANK1
      +1  BANK12  BANK14
  1110 ;;      Params:         0       0       0       0       0       0       0       0       0       0       0       0       
      +0       0       0
  1111 ;;      Locals:         5       0       0       0       0       0       0       0       0       0       0       0       
      +0       0       0
  1112 ;;      Temps:          1       0       0       0       0       0       0       0       0       0       0       0       
      +0       0       0
  1113 ;;      Totals:         6       0       0       0       0       0       0       0       0       0       0       0       
      +0       0       0
  1114 ;;Total ram usage:        6 bytes
  1115 ;; Hardware stack levels used: 1
  1116 ;; Hardware stack levels required when called: 3
  1117 ;; This function calls:
  1118 ;;		_Check_Device_Reset
  1119 ;;		_EUSART2_Read
  1120 ;;		_EUSART2_Write
  1121 ;;		_ProcessBootBuffer
  1122 ;; This function is called by:
  1123 ;;		_BOOTLOADER_Initialize
  1124 ;; This function uses a non-reentrant model
  1125 ;;
  1126                           
  1127                           	psect	text10
  1128  000020                     __ptext10:
  1129                           	callstack 0
  1130  000020                     _Run_Bootloader:
  1131                           	callstack 25
  1132  000020                     l146:
  1133  000020                     l147:
  1134  000020  010E               	movlb	14	; () banked
  1135  000022  A399               	btfss	153,1,b	;volatile
  1136  000024  EF16  F000         	goto	u531
  1137  000028  EF18  F000         	goto	u530
  1138  00002C                     u531:
  1139  00002C  EF10  F000         	goto	l147
  1140  000030                     u530:
  1141  000030                     
  1142                           ; BSR set to: 14
  1143                           ;mcc_generated_files/pic18f_uart.c: 66:         Check_Device_Reset ();
  1144  000030  EC59  F004         	call	_Check_Device_Reset	;wreg free
  1145  000034                     
  1146                           ;mcc_generated_files/pic18f_uart.c: 71:         BAUDCTL2bits.ABDEN = 1;
  1147  000034  010E               	movlb	14	; () banked
  1148  000036  819A               	bsf	154,0,b	;volatile
  1149                           
  1150                           ;mcc_generated_files/pic18f_uart.c: 72:         while (BAUDCTL2bits.ABDEN == 1)
  1151  000038  EF28  F000         	goto	l150
  1152  00003C                     l151:
  1153                           
  1154                           ; BSR set to: 14
  1155                           ;mcc_generated_files/pic18f_uart.c: 73:         {;mcc_generated_files/pic18f_uart.c: 74:
      +                                       if (BAUDCTL2bits.ABDOVF == 1)
  1156  00003C  AF9A               	btfss	154,7,b	;volatile
  1157  00003E  EF23  F000         	goto	u541
  1158  000042  EF25  F000         	goto	u540
  1159  000046                     u541:
  1160  000046  EF28  F000         	goto	l150
  1161  00004A                     u540:
  1162  00004A                     
  1163                           ; BSR set to: 14
  1164                           ;mcc_generated_files/pic18f_uart.c: 75:             {;mcc_generated_files/pic18f_uart.c:
      +                           76:                 BAUDCTL2bits.ABDEN = 0;
  1165  00004A  919A               	bcf	154,0,b	;volatile
  1166                           
  1167                           ;mcc_generated_files/pic18f_uart.c: 77:                 BAUDCTL2bits.ABDOVF = 0;
  1168  00004C  9F9A               	bcf	154,7,b	;volatile
  1169                           
  1170                           ;mcc_generated_files/pic18f_uart.c: 78:                 BAUDCTL2bits.ABDEN = 1;
  1171  00004E  819A               	bsf	154,0,b	;volatile
  1172  000050                     l150:
  1173                           
  1174                           ; BSR set to: 14
  1175                           ;mcc_generated_files/pic18f_uart.c: 72:         while (BAUDCTL2bits.ABDEN == 1)
  1176  000050  B19A               	btfsc	154,0,b	;volatile
  1177  000052  EF2D  F000         	goto	u551
  1178  000056  EF2F  F000         	goto	u550
  1179  00005A                     u551:
  1180  00005A  EF1E  F000         	goto	l151
  1181  00005E                     u550:
  1182  00005E                     
  1183                           ; BSR set to: 14
  1184                           ;mcc_generated_files/pic18f_uart.c: 82:         index = EUSART2_Read();
  1185  00005E  EC02  F004         	call	_EUSART2_Read	;wreg free
  1186  000062  6E22               	movwf	??_Run_Bootloader^0,c
  1187  000064  5022               	movf	??_Run_Bootloader^0,w,c
  1188  000066  6E26               	movwf	Run_Bootloader@index^0,c	;volatile
  1189  000068  6A27               	clrf	(Run_Bootloader@index+1)^0,c	;volatile
  1190  00006A                     
  1191                           ;mcc_generated_files/pic18f_uart.c: 88:         index = 0;
  1192  00006A  0E00               	movlw	0
  1193  00006C  6E27               	movwf	(Run_Bootloader@index+1)^0,c	;volatile
  1194  00006E  0E00               	movlw	0
  1195  000070  6E26               	movwf	Run_Bootloader@index^0,c	;volatile
  1196  000072                     
  1197                           ;mcc_generated_files/pic18f_uart.c: 89:         msg_length = 9;
  1198  000072  0E00               	movlw	0
  1199  000074  6E25               	movwf	(Run_Bootloader@msg_length+1)^0,c
  1200  000076  0E09               	movlw	9
  1201  000078  6E24               	movwf	Run_Bootloader@msg_length^0,c
  1202                           
  1203                           ;mcc_generated_files/pic18f_uart.c: 90:         uint8_t ch;;mcc_generated_files/pic18f_u
      +                          art.c: 92:         while (index < msg_length)
  1204  00007A  EF78  F000         	goto	l1882
  1205  00007E                     l1866:
  1206                           
  1207                           ;mcc_generated_files/pic18f_uart.c: 93:         {;mcc_generated_files/pic18f_uart.c: 94:
      +                                       ch = EUSART2_Read();
  1208  00007E  EC02  F004         	call	_EUSART2_Read	;wreg free
  1209  000082  6E23               	movwf	Run_Bootloader@ch^0,c
  1210  000084                     
  1211                           ;mcc_generated_files/pic18f_uart.c: 95:             frame.buffer [index ++] = ch;
  1212  000084  0E60               	movlw	low _frame
  1213  000086  2426               	addwf	Run_Bootloader@index^0,w,c	;volatile
  1214  000088  6ED9               	movwf	fsr2l,c
  1215  00008A  0E00               	movlw	high _frame
  1216  00008C  2027               	addwfc	(Run_Bootloader@index+1)^0,w,c	;volatile
  1217  00008E  6EDA               	movwf	fsr2h,c
  1218  000090  C023  FFDF         	movff	Run_Bootloader@ch,indf2
  1219  000094  4A26               	infsnz	Run_Bootloader@index^0,f,c	;volatile
  1220  000096  2A27               	incf	(Run_Bootloader@index+1)^0,f,c	;volatile
  1221  000098                     
  1222                           ;mcc_generated_files/pic18f_uart.c: 96:             if (index == 4)
  1223  000098  0E04               	movlw	4
  1224  00009A  1826               	xorwf	Run_Bootloader@index^0,w,c	;volatile
  1225  00009C  1027               	iorwf	(Run_Bootloader@index+1)^0,w,c	;volatile
  1226  00009E  A4D8               	btfss	status,2,c
  1227  0000A0  EF54  F000         	goto	u561
  1228  0000A4  EF56  F000         	goto	u560
  1229  0000A8                     u561:
  1230  0000A8  EF78  F000         	goto	l1882
  1231  0000AC                     u560:
  1232  0000AC                     
  1233                           ;mcc_generated_files/pic18f_uart.c: 97:             {;mcc_generated_files/pic18f_uart.c:
      +                           98:                 if ((frame.command == 2)
  1234  0000AC  0E02               	movlw	2
  1235  0000AE  0100               	movlb	0	; () banked
  1236  0000B0  1960               	xorwf	_frame& (0+255),w,b
  1237  0000B2  B4D8               	btfsc	status,2,c
  1238  0000B4  EF5E  F000         	goto	u571
  1239  0000B8  EF60  F000         	goto	u570
  1240  0000BC                     u571:
  1241  0000BC  EF72  F000         	goto	l1880
  1242  0000C0                     u570:
  1243  0000C0                     
  1244                           ; BSR set to: 0
  1245  0000C0  0E05               	movlw	5
  1246  0000C2  1960               	xorwf	_frame& (0+255),w,b
  1247  0000C4  B4D8               	btfsc	status,2,c
  1248  0000C6  EF67  F000         	goto	u581
  1249  0000CA  EF69  F000         	goto	u580
  1250  0000CE                     u581:
  1251  0000CE  EF72  F000         	goto	l1880
  1252  0000D2                     u580:
  1253  0000D2                     
  1254                           ; BSR set to: 0
  1255  0000D2  0E07               	movlw	7
  1256  0000D4  1960               	xorwf	_frame& (0+255),w,b
  1257  0000D6  A4D8               	btfss	status,2,c
  1258  0000D8  EF70  F000         	goto	u591
  1259  0000DC  EF72  F000         	goto	u590
  1260  0000E0                     u591:
  1261  0000E0  EF78  F000         	goto	l1882
  1262  0000E4                     u590:
  1263  0000E4                     l1880:
  1264                           
  1265                           ; BSR set to: 0
  1266                           ;mcc_generated_files/pic18f_uart.c: 101:                 {;mcc_generated_files/pic18f_ua
      +                          rt.c: 102:                     msg_length += frame.data_length;
  1267  0000E4  EE20  F061         	lfsr	2,_frame+1
  1268  0000E8  50DE               	movf	postinc2,w,c
  1269  0000EA  2624               	addwf	Run_Bootloader@msg_length^0,f,c
  1270  0000EC  50DD               	movf	postdec2,w,c
  1271  0000EE  2225               	addwfc	(Run_Bootloader@msg_length+1)^0,f,c
  1272  0000F0                     l1882:
  1273                           
  1274                           ;mcc_generated_files/pic18f_uart.c: 92:         while (index < msg_length)
  1275  0000F0  5024               	movf	Run_Bootloader@msg_length^0,w,c
  1276  0000F2  5C26               	subwf	Run_Bootloader@index^0,w,c	;volatile
  1277  0000F4  5025               	movf	(Run_Bootloader@msg_length+1)^0,w,c
  1278  0000F6  5827               	subwfb	(Run_Bootloader@index+1)^0,w,c	;volatile
  1279  0000F8  A0D8               	btfss	status,0,c
  1280  0000FA  EF81  F000         	goto	u601
  1281  0000FE  EF83  F000         	goto	u600
  1282  000102                     u601:
  1283  000102  EF3F  F000         	goto	l1866
  1284  000106                     u600:
  1285  000106                     
  1286                           ;mcc_generated_files/pic18f_uart.c: 107:         msg_length = ProcessBootBuffer ();
  1287  000106  ECBF  F001         	call	_ProcessBootBuffer	;wreg free
  1288  00010A  C01C  F024         	movff	?_ProcessBootBuffer,Run_Bootloader@msg_length
  1289  00010E  C01D  F025         	movff	?_ProcessBootBuffer+1,Run_Bootloader@msg_length+1
  1290  000112                     
  1291                           ;mcc_generated_files/pic18f_uart.c: 112:         EUSART2_Write(0x55);
  1292  000112  0E55               	movlw	85
  1293  000114  EC42  F004         	call	_EUSART2_Write
  1294  000118                     
  1295                           ;mcc_generated_files/pic18f_uart.c: 113:         index = 0;
  1296  000118  0E00               	movlw	0
  1297  00011A  6E27               	movwf	(Run_Bootloader@index+1)^0,c	;volatile
  1298  00011C  0E00               	movlw	0
  1299  00011E  6E26               	movwf	Run_Bootloader@index^0,c	;volatile
  1300                           
  1301                           ;mcc_generated_files/pic18f_uart.c: 114:         while (index < msg_length)
  1302  000120  EF9D  F000         	goto	l1894
  1303  000124                     l1890:
  1304                           
  1305                           ;mcc_generated_files/pic18f_uart.c: 115:         {;mcc_generated_files/pic18f_uart.c: 11
      +                          6:             EUSART2_Write (frame.buffer [index++]);
  1306  000124  0E60               	movlw	low _frame
  1307  000126  2426               	addwf	Run_Bootloader@index^0,w,c	;volatile
  1308  000128  6ED9               	movwf	fsr2l,c
  1309  00012A  0E00               	movlw	high _frame
  1310  00012C  2027               	addwfc	(Run_Bootloader@index+1)^0,w,c	;volatile
  1311  00012E  6EDA               	movwf	fsr2h,c
  1312  000130  50DF               	movf	indf2,w,c
  1313  000132  EC42  F004         	call	_EUSART2_Write
  1314  000136  4A26               	infsnz	Run_Bootloader@index^0,f,c	;volatile
  1315  000138  2A27               	incf	(Run_Bootloader@index+1)^0,f,c	;volatile
  1316  00013A                     l1894:
  1317                           
  1318                           ;mcc_generated_files/pic18f_uart.c: 114:         while (index < msg_length)
  1319  00013A  5024               	movf	Run_Bootloader@msg_length^0,w,c
  1320  00013C  5C26               	subwf	Run_Bootloader@index^0,w,c	;volatile
  1321  00013E  5025               	movf	(Run_Bootloader@msg_length+1)^0,w,c
  1322  000140  5827               	subwfb	(Run_Bootloader@index+1)^0,w,c	;volatile
  1323  000142  A0D8               	btfss	status,0,c
  1324  000144  EFA6  F000         	goto	u611
  1325  000148  EFA8  F000         	goto	u610
  1326  00014C                     u611:
  1327  00014C  EF92  F000         	goto	l1890
  1328  000150                     u610:
  1329  000150  EF10  F000         	goto	l146
  1330  000154  0012               	return		;funcret
  1331  000156                     __end_of_Run_Bootloader:
  1332                           	callstack 0
  1333                           
  1334 ;; *************** function _ProcessBootBuffer *****************
  1335 ;; Defined at:
  1336 ;;		line 187 in file "mcc_generated_files/pic18f_bootload.c"
  1337 ;; Parameters:    Size  Location     Type
  1338 ;;		None
  1339 ;; Auto vars:     Size  Location     Type
  1340 ;;  len             2   30[COMRAM] unsigned short 
  1341 ;; Return value:  Size  Location     Type
  1342 ;;                  2   26[COMRAM] unsigned short 
  1343 ;; Registers used:
  1344 ;;		wreg, fsr1l, fsr1h, fsr2l, fsr2h, status,2, status,0, cstack
  1345 ;; Tracked objects:
  1346 ;;		On entry : 0/0
  1347 ;;		On exit  : 0/0
  1348 ;;		Unchanged: 0/0
  1349 ;; Data sizes:     COMRAM   BANK0   BANK1   BANK2   BANK3   BANK4   BANK5   BANK6   BANK7   BANK8   BANK9  BANK10  BANK1
      +1  BANK12  BANK14
  1350 ;;      Params:         2       0       0       0       0       0       0       0       0       0       0       0       
      +0       0       0
  1351 ;;      Locals:         2       0       0       0       0       0       0       0       0       0       0       0       
      +0       0       0
  1352 ;;      Temps:          2       0       0       0       0       0       0       0       0       0       0       0       
      +0       0       0
  1353 ;;      Totals:         6       0       0       0       0       0       0       0       0       0       0       0       
      +0       0       0
  1354 ;;Total ram usage:        6 bytes
  1355 ;; Hardware stack levels used: 1
  1356 ;; Hardware stack levels required when called: 2
  1357 ;; This function calls:
  1358 ;;		_Calc_Checksum
  1359 ;;		_Erase_Flash
  1360 ;;		_Get_Version_Data
  1361 ;;		_Read_Config
  1362 ;;		_Write_Config
  1363 ;;		_Write_Flash
  1364 ;; This function is called by:
  1365 ;;		_Run_Bootloader
  1366 ;; This function uses a non-reentrant model
  1367 ;;
  1368                           
  1369                           	psect	text11
  1370  00037E                     __ptext11:
  1371                           	callstack 0
  1372  00037E                     _ProcessBootBuffer:
  1373                           	callstack 25
  1374  00037E                     
  1375                           ;mcc_generated_files/pic18f_bootload.c: 189:     uint16_t len;;mcc_generated_files/pic18
      +                          f_bootload.c: 190:     EE_Key_1 = frame.EE_key_1;
  1376  00037E  C063  F000         	movff	_frame+3,0
  1377                           
  1378                           ;mcc_generated_files/pic18f_bootload.c: 191:     EE_Key_2 = frame.EE_key_2;
  1379  000382  C064  F001         	movff	_frame+4,1
  1380                           
  1381                           ;mcc_generated_files/pic18f_bootload.c: 194:     switch (frame.command)
  1382  000386  EF06  F002         	goto	l1842
  1383  00038A                     l1826:
  1384                           
  1385                           ; BSR set to: 0
  1386                           ;mcc_generated_files/pic18f_bootload.c: 197:         len = Get_Version_Data();
  1387  00038A  EC11  F003         	call	_Get_Version_Data	;wreg free
  1388  00038E  C002  F020         	movff	?_Get_Version_Data,ProcessBootBuffer@len
  1389  000392  C003  F021         	movff	?_Get_Version_Data+1,ProcessBootBuffer@len+1
  1390                           
  1391                           ;mcc_generated_files/pic18f_bootload.c: 198:         break;
  1392  000396  EF30  F002         	goto	l334
  1393  00039A                     l1828:
  1394                           
  1395                           ; BSR set to: 0
  1396                           ;mcc_generated_files/pic18f_bootload.c: 200:         len = Write_Flash();
  1397  00039A  ECAB  F000         	call	_Write_Flash	;wreg free
  1398  00039E  C007  F020         	movff	?_Write_Flash,ProcessBootBuffer@len
  1399  0003A2  C008  F021         	movff	?_Write_Flash+1,ProcessBootBuffer@len+1
  1400                           
  1401                           ;mcc_generated_files/pic18f_bootload.c: 201:         break;
  1402  0003A6  EF30  F002         	goto	l334
  1403  0003AA                     l1830:
  1404                           
  1405                           ; BSR set to: 0
  1406                           ;mcc_generated_files/pic18f_bootload.c: 203:         len = Erase_Flash();
  1407  0003AA  EC43  F001         	call	_Erase_Flash	;wreg free
  1408  0003AE  C002  F020         	movff	?_Erase_Flash,ProcessBootBuffer@len
  1409  0003B2  C003  F021         	movff	?_Erase_Flash+1,ProcessBootBuffer@len+1
  1410                           
  1411                           ;mcc_generated_files/pic18f_bootload.c: 204:         break;
  1412  0003B6  EF30  F002         	goto	l334
  1413  0003BA                     l1832:
  1414                           
  1415                           ; BSR set to: 0
  1416                           ;mcc_generated_files/pic18f_bootload.c: 206:         len = Read_Config();
  1417  0003BA  EC53  F003         	call	_Read_Config	;wreg free
  1418  0003BE  C002  F020         	movff	?_Read_Config,ProcessBootBuffer@len
  1419  0003C2  C003  F021         	movff	?_Read_Config+1,ProcessBootBuffer@len+1
  1420                           
  1421                           ;mcc_generated_files/pic18f_bootload.c: 207:         break;
  1422  0003C6  EF30  F002         	goto	l334
  1423  0003CA                     l1834:
  1424                           
  1425                           ; BSR set to: 0
  1426                           ;mcc_generated_files/pic18f_bootload.c: 209:         len = Write_Config();
  1427  0003CA  EC8B  F002         	call	_Write_Config	;wreg free
  1428  0003CE  C002  F020         	movff	?_Write_Config,ProcessBootBuffer@len
  1429  0003D2  C003  F021         	movff	?_Write_Config+1,ProcessBootBuffer@len+1
  1430                           
  1431                           ;mcc_generated_files/pic18f_bootload.c: 210:         break;
  1432  0003D6  EF30  F002         	goto	l334
  1433  0003DA                     l1836:
  1434                           
  1435                           ; BSR set to: 0
  1436                           ;mcc_generated_files/pic18f_bootload.c: 212:         len = Calc_Checksum();
  1437  0003DA  EC35  F002         	call	_Calc_Checksum	;wreg free
  1438  0003DE  C002  F020         	movff	?_Calc_Checksum,ProcessBootBuffer@len
  1439  0003E2  C003  F021         	movff	?_Calc_Checksum+1,ProcessBootBuffer@len+1
  1440                           
  1441                           ;mcc_generated_files/pic18f_bootload.c: 213:         break;
  1442  0003E6  EF30  F002         	goto	l334
  1443  0003EA                     l1838:
  1444                           
  1445                           ; BSR set to: 0
  1446                           ;mcc_generated_files/pic18f_bootload.c: 215:         frame.data[0] = 0x01;
  1447  0003EA  0E01               	movlw	1
  1448  0003EC  6F69               	movwf	(_frame+9)& (0+255),b
  1449                           
  1450                           ;mcc_generated_files/pic18f_bootload.c: 216:         reset_pending = 1;
  1451  0003EE  0E01               	movlw	1
  1452  0003F0  6E2C               	movwf	_reset_pending^0,c
  1453                           
  1454                           ;mcc_generated_files/pic18f_bootload.c: 217:         len = 10;
  1455  0003F2  0E00               	movlw	0
  1456  0003F4  6E21               	movwf	(ProcessBootBuffer@len+1)^0,c
  1457  0003F6  0E0A               	movlw	10
  1458  0003F8  6E20               	movwf	ProcessBootBuffer@len^0,c
  1459                           
  1460                           ;mcc_generated_files/pic18f_bootload.c: 218:         break;
  1461  0003FA  EF30  F002         	goto	l334
  1462  0003FE                     l341:
  1463                           
  1464                           ; BSR set to: 0
  1465                           ;mcc_generated_files/pic18f_bootload.c: 220:         frame.data[0] = 0xFF;
  1466  0003FE  6969               	setf	(_frame+9)& (0+255),b
  1467  000400                     
  1468                           ; BSR set to: 0
  1469                           ;mcc_generated_files/pic18f_bootload.c: 221:         len = 10;
  1470  000400  0E00               	movlw	0
  1471  000402  6E21               	movwf	(ProcessBootBuffer@len+1)^0,c
  1472  000404  0E0A               	movlw	10
  1473  000406  6E20               	movwf	ProcessBootBuffer@len^0,c
  1474                           
  1475                           ;mcc_generated_files/pic18f_bootload.c: 222:     }
  1476  000408  EF30  F002         	goto	l334
  1477  00040C                     l1842:
  1478  00040C  0100               	movlb	0	; () banked
  1479  00040E  5160               	movf	_frame& (0+255),w,b
  1480  000410  6E1E               	movwf	??_ProcessBootBuffer^0,c
  1481  000412  6A1F               	clrf	(??_ProcessBootBuffer+1)^0,c
  1482                           
  1483                           ; Switch on 2 bytes has been partitioned into a top level switch of size 1, and 1 sub-sw
      +                          itches
  1484                           ; Switch size 1, requested type "simple"
  1485                           ; Number of cases is 1, Range of values is 0 to 0
  1486                           ; switch strategies available:
  1487                           ; Name         Instructions Cycles
  1488                           ; simple_byte            4     3 (average)
  1489                           ;	Chosen strategy is simple_byte
  1490  000414  501F               	movf	(??_ProcessBootBuffer+1)^0,w,c
  1491  000416  0A00               	xorlw	0	; case 0
  1492  000418  B4D8               	btfsc	status,2,c
  1493  00041A  EF11  F002         	goto	l1958
  1494  00041E  EFFF  F001         	goto	l341
  1495  000422                     l1958:
  1496                           
  1497                           ; BSR set to: 0
  1498                           ; Switch size 1, requested type "simple"
  1499                           ; Number of cases is 7, Range of values is 0 to 9
  1500                           ; switch strategies available:
  1501                           ; Name         Instructions Cycles
  1502                           ; simple_byte           22    12 (average)
  1503                           ;	Chosen strategy is simple_byte
  1504  000422  501E               	movf	??_ProcessBootBuffer^0,w,c
  1505  000424  0A00               	xorlw	0	; case 0
  1506  000426  B4D8               	btfsc	status,2,c
  1507  000428  EFC5  F001         	goto	l1826
  1508  00042C  0A02               	xorlw	2	; case 2
  1509  00042E  B4D8               	btfsc	status,2,c
  1510  000430  EFCD  F001         	goto	l1828
  1511  000434  0A01               	xorlw	1	; case 3
  1512  000436  B4D8               	btfsc	status,2,c
  1513  000438  EFD5  F001         	goto	l1830
  1514  00043C  0A05               	xorlw	5	; case 6
  1515  00043E  B4D8               	btfsc	status,2,c
  1516  000440  EFDD  F001         	goto	l1832
  1517  000444  0A01               	xorlw	1	; case 7
  1518  000446  B4D8               	btfsc	status,2,c
  1519  000448  EFE5  F001         	goto	l1834
  1520  00044C  0A0F               	xorlw	15	; case 8
  1521  00044E  B4D8               	btfsc	status,2,c
  1522  000450  EFED  F001         	goto	l1836
  1523  000454  0A01               	xorlw	1	; case 9
  1524  000456  B4D8               	btfsc	status,2,c
  1525  000458  EFF5  F001         	goto	l1838
  1526  00045C  EFFF  F001         	goto	l341
  1527  000460                     l334:
  1528                           
  1529                           ;mcc_generated_files/pic18f_bootload.c: 223:     return (len);
  1530  000460  C020  F01C         	movff	ProcessBootBuffer@len,?_ProcessBootBuffer
  1531  000464  C021  F01D         	movff	ProcessBootBuffer@len+1,?_ProcessBootBuffer+1
  1532  000468  0012               	return		;funcret
  1533  00046A                     __end_of_ProcessBootBuffer:
  1534                           	callstack 0
  1535                           
  1536 ;; *************** function _Write_Flash *****************
  1537 ;; Defined at:
  1538 ;;		line 277 in file "mcc_generated_files/pic18f_bootload.c"
  1539 ;; Parameters:    Size  Location     Type
  1540 ;;		None
  1541 ;; Auto vars:     Size  Location     Type
  1542 ;;  i               2   24[COMRAM] unsigned short 
  1543 ;;  address         4   20[COMRAM] unsigned long 
  1544 ;;  GIEBitValue     1   19[COMRAM] unsigned char 
  1545 ;; Return value:  Size  Location     Type
  1546 ;;                  2    5[COMRAM] unsigned short 
  1547 ;; Registers used:
  1548 ;;		wreg, fsr1l, fsr1h, fsr2l, fsr2h, status,2, status,0, cstack
  1549 ;; Tracked objects:
  1550 ;;		On entry : 0/0
  1551 ;;		On exit  : 0/0
  1552 ;;		Unchanged: 0/0
  1553 ;; Data sizes:     COMRAM   BANK0   BANK1   BANK2   BANK3   BANK4   BANK5   BANK6   BANK7   BANK8   BANK9  BANK10  BANK1
      +1  BANK12  BANK14
  1554 ;;      Params:         2       0       0       0       0       0       0       0       0       0       0       0       
      +0       0       0
  1555 ;;      Locals:         7       0       0       0       0       0       0       0       0       0       0       0       
      +0       0       0
  1556 ;;      Temps:         12       0       0       0       0       0       0       0       0       0       0       0       
      +0       0       0
  1557 ;;      Totals:        21       0       0       0       0       0       0       0       0       0       0       0       
      +0       0       0
  1558 ;;Total ram usage:       21 bytes
  1559 ;; Hardware stack levels used: 1
  1560 ;; Hardware stack levels required when called: 1
  1561 ;; This function calls:
  1562 ;;		_FLASH_ReadSector
  1563 ;;		_StartWrite
  1564 ;; This function is called by:
  1565 ;;		_ProcessBootBuffer
  1566 ;; This function uses a non-reentrant model
  1567 ;;
  1568                           
  1569                           	psect	text12
  1570  000156                     __ptext12:
  1571                           	callstack 0
  1572  000156                     _Write_Flash:
  1573                           	callstack 25
  1574  000156                     
  1575                           ;mcc_generated_files/pic18f_bootload.c: 279:     uint32_t address;;mcc_generated_files/p
      +                          ic18f_bootload.c: 280:  uint8_t GIEBitValue = INTCONbits.GIE;
  1576  000156  0E00               	movlw	0
  1577  000158  BEF2               	btfsc	242,7,c	;volatile
  1578  00015A  0E01               	movlw	1
  1579  00015C  6E15               	movwf	Write_Flash@GIEBitValue^0,c
  1580  00015E                     
  1581                           ;mcc_generated_files/pic18f_bootload.c: 282:     address = (((uint32_t)frame.address_U) 
      +                          << 16)
  1582  00015E  C066  F009         	movff	_frame+6,??_Write_Flash
  1583  000162  6A0A               	clrf	(??_Write_Flash+1)^0,c
  1584  000164  6A0B               	clrf	(??_Write_Flash+2)^0,c
  1585  000166  6A0C               	clrf	(??_Write_Flash+3)^0,c
  1586  000168  C00B  F00C         	movff	??_Write_Flash+2,??_Write_Flash+3
  1587  00016C  C00A  F00B         	movff	??_Write_Flash+1,??_Write_Flash+2
  1588  000170  C009  F00A         	movff	??_Write_Flash,??_Write_Flash+1
  1589  000174  6A09               	clrf	??_Write_Flash^0,c
  1590  000176  C067  F00D         	movff	_frame+7,??_Write_Flash+4
  1591  00017A  6A0E               	clrf	(??_Write_Flash+5)^0,c
  1592  00017C  6A0F               	clrf	(??_Write_Flash+6)^0,c
  1593  00017E  6A10               	clrf	(??_Write_Flash+7)^0,c
  1594  000180  C00E  F010         	movff	??_Write_Flash+5,??_Write_Flash+7
  1595  000184  C00D  F00F         	movff	??_Write_Flash+4,??_Write_Flash+6
  1596  000188  6A0E               	clrf	(??_Write_Flash+5)^0,c
  1597  00018A  6A0D               	clrf	(??_Write_Flash+4)^0,c
  1598  00018C  5009               	movf	??_Write_Flash^0,w,c
  1599  00018E  240D               	addwf	(??_Write_Flash+4)^0,w,c
  1600  000190  6E11               	movwf	(??_Write_Flash+8)^0,c
  1601  000192  500A               	movf	(??_Write_Flash+1)^0,w,c
  1602  000194  200E               	addwfc	(??_Write_Flash+5)^0,w,c
  1603  000196  6E12               	movwf	(??_Write_Flash+9)^0,c
  1604  000198  500B               	movf	(??_Write_Flash+2)^0,w,c
  1605  00019A  200F               	addwfc	(??_Write_Flash+6)^0,w,c
  1606  00019C  6E13               	movwf	(??_Write_Flash+10)^0,c
  1607  00019E  500C               	movf	(??_Write_Flash+3)^0,w,c
  1608  0001A0  2010               	addwfc	(??_Write_Flash+7)^0,w,c
  1609  0001A2  6E14               	movwf	(??_Write_Flash+11)^0,c
  1610  0001A4  0100               	movlb	0	; () banked
  1611  0001A6  5165               	movf	(_frame+5)& (0+255),w,b
  1612  0001A8  2411               	addwf	(??_Write_Flash+8)^0,w,c
  1613  0001AA  6E16               	movwf	Write_Flash@address^0,c
  1614  0001AC  0E00               	movlw	0
  1615  0001AE  2012               	addwfc	(??_Write_Flash+9)^0,w,c
  1616  0001B0  6E17               	movwf	(Write_Flash@address+1)^0,c
  1617  0001B2  0E00               	movlw	0
  1618  0001B4  2013               	addwfc	(??_Write_Flash+10)^0,w,c
  1619  0001B6  6E18               	movwf	(Write_Flash@address+2)^0,c
  1620  0001B8  0E00               	movlw	0
  1621  0001BA  2014               	addwfc	(??_Write_Flash+11)^0,w,c
  1622  0001BC  6E19               	movwf	(Write_Flash@address+3)^0,c
  1623  0001BE                     
  1624                           ; BSR set to: 0
  1625                           ;mcc_generated_files/pic18f_bootload.c: 285:     if (address < 0xa00)
  1626  0001BE  5019               	movf	(Write_Flash@address+3)^0,w,c
  1627  0001C0  1018               	iorwf	(Write_Flash@address+2)^0,w,c
  1628  0001C2  E107               	bnz	u441
  1629  0001C4  0E0A               	movlw	10
  1630  0001C6  5C17               	subwf	(Write_Flash@address+1)^0,w,c
  1631  0001C8  B0D8               	btfsc	status,0,c
  1632  0001CA  EFE9  F000         	goto	u441
  1633  0001CE  EFEB  F000         	goto	u440
  1634  0001D2                     u441:
  1635  0001D2  EFF3  F000         	goto	l1710
  1636  0001D6                     u440:
  1637  0001D6                     
  1638                           ; BSR set to: 0
  1639                           ;mcc_generated_files/pic18f_bootload.c: 286:     {;mcc_generated_files/pic18f_bootload.c
      +                          : 287:         frame.data[0] = 0xFE;
  1640  0001D6  0EFE               	movlw	254
  1641  0001D8  6F69               	movwf	(_frame+9)& (0+255),b
  1642                           
  1643                           ;mcc_generated_files/pic18f_bootload.c: 288:         return (10);
  1644  0001DA  0E00               	movlw	0
  1645  0001DC  6E08               	movwf	(?_Write_Flash+1)^0,c
  1646  0001DE  0E0A               	movlw	10
  1647  0001E0  6E07               	movwf	?_Write_Flash^0,c
  1648  0001E2  EF42  F001         	goto	l353
  1649  0001E6                     l1710:
  1650                           
  1651                           ; BSR set to: 0
  1652                           ;mcc_generated_files/pic18f_bootload.c: 290:     FLASH_ReadSector(address);
  1653  0001E6  C016  F002         	movff	Write_Flash@address,FLASH_ReadSector@flashAddr
  1654  0001EA  C017  F003         	movff	Write_Flash@address+1,FLASH_ReadSector@flashAddr+1
  1655  0001EE  C018  F004         	movff	Write_Flash@address+2,FLASH_ReadSector@flashAddr+2
  1656  0001F2  C019  F005         	movff	Write_Flash@address+3,FLASH_ReadSector@flashAddr+3
  1657  0001F6  ECCA  F003         	call	_FLASH_ReadSector	;wreg free
  1658  0001FA                     
  1659                           ;mcc_generated_files/pic18f_bootload.c: 292:     for (uint16_t i = 0; i < frame.data_len
      +                          gth; i ++)
  1660  0001FA  0E00               	movlw	0
  1661  0001FC  6E1B               	movwf	(Write_Flash@i+1)^0,c
  1662  0001FE  0E00               	movlw	0
  1663  000200  6E1A               	movwf	Write_Flash@i^0,c
  1664  000202  EF1B  F001         	goto	l1718
  1665  000206                     l1714:
  1666                           
  1667                           ; BSR set to: 0
  1668                           ;mcc_generated_files/pic18f_bootload.c: 293:     {;mcc_generated_files/pic18f_bootload.c
      +                          : 294:         PFM_Buffer [frame.address_L + i] = frame.data[i];
  1669  000206  0E69               	movlw	low (_frame+9)
  1670  000208  241A               	addwf	Write_Flash@i^0,w,c
  1671  00020A  6ED9               	movwf	fsr2l,c
  1672  00020C  0E00               	movlw	high (_frame+9)
  1673  00020E  201B               	addwfc	(Write_Flash@i+1)^0,w,c
  1674  000210  6EDA               	movwf	fsr2h,c
  1675  000212  0E00               	movlw	0
  1676  000214  6E09               	movwf	??_Write_Flash^0,c
  1677  000216  0E0D               	movlw	13
  1678  000218  6E0A               	movwf	(??_Write_Flash+1)^0,c
  1679  00021A  5165               	movf	(_frame+5)& (0+255),w,b
  1680  00021C  2609               	addwf	??_Write_Flash^0,f,c
  1681  00021E  0E00               	movlw	0
  1682  000220  220A               	addwfc	(??_Write_Flash+1)^0,f,c
  1683  000222  501A               	movf	Write_Flash@i^0,w,c
  1684  000224  2409               	addwf	??_Write_Flash^0,w,c
  1685  000226  6EE1               	movwf	fsr1l,c
  1686  000228  501B               	movf	(Write_Flash@i+1)^0,w,c
  1687  00022A  200A               	addwfc	(??_Write_Flash+1)^0,w,c
  1688  00022C  6EE2               	movwf	fsr1h,c
  1689  00022E  CFDF FFE7          	movff	indf2,indf1
  1690  000232                     
  1691                           ; BSR set to: 0
  1692                           ;mcc_generated_files/pic18f_bootload.c: 295:     }
  1693  000232  4A1A               	infsnz	Write_Flash@i^0,f,c
  1694  000234  2A1B               	incf	(Write_Flash@i+1)^0,f,c
  1695  000236                     l1718:
  1696  000236  0100               	movlb	0	; () banked
  1697  000238  5161               	movf	(_frame+1)& (0+255),w,b
  1698  00023A  5C1A               	subwf	Write_Flash@i^0,w,c
  1699  00023C  5162               	movf	(_frame+2)& (0+255),w,b
  1700  00023E  581B               	subwfb	(Write_Flash@i+1)^0,w,c
  1701  000240  A0D8               	btfss	status,0,c
  1702  000242  EF25  F001         	goto	u451
  1703  000246  EF27  F001         	goto	u450
  1704  00024A                     u451:
  1705  00024A  EF03  F001         	goto	l1714
  1706  00024E                     u450:
  1707  00024E                     
  1708                           ; BSR set to: 0
  1709                           ;mcc_generated_files/pic18f_bootload.c: 297:     NVMADRU = frame.address_U;
  1710  00024E  C067  FF7B         	movff	_frame+7,3963	;volatile
  1711                           
  1712                           ;mcc_generated_files/pic18f_bootload.c: 298:     NVMADRH = frame.address_H;
  1713  000252  C066  FF7A         	movff	_frame+6,3962	;volatile
  1714                           
  1715                           ;mcc_generated_files/pic18f_bootload.c: 299:     NVMADRL = frame.address_L;
  1716  000256  C065  FF79         	movff	_frame+5,3961	;volatile
  1717                           
  1718                           ;mcc_generated_files/pic18f_bootload.c: 302:     NVMCON0bits.NVMEN = 1;
  1719  00025A  8E7F               	bsf	127,7,c	;volatile
  1720                           
  1721                           ;mcc_generated_files/pic18f_bootload.c: 305:     INTCONbits.GIE = 0;
  1722  00025C  9EF2               	bcf	242,7,c	;volatile
  1723  00025E                     
  1724                           ; BSR set to: 0
  1725                           ;mcc_generated_files/pic18f_bootload.c: 308:     StartWrite();
  1726  00025E  EC64  F004         	call	_StartWrite	;wreg free
  1727  000262                     
  1728                           ;mcc_generated_files/pic18f_bootload.c: 311:     INTCONbits.GIE = GIEBitValue;
  1729  000262  B015               	btfsc	Write_Flash@GIEBitValue^0,0,c
  1730  000264  D002               	bra	u465
  1731  000266  9EF2               	bcf	242,7,c	;volatile
  1732  000268  D001               	bra	u466
  1733  00026A                     u465:
  1734  00026A  8EF2               	bsf	242,7,c	;volatile
  1735  00026C                     u466:
  1736  00026C                     
  1737                           ;mcc_generated_files/pic18f_bootload.c: 314:  NVMCON0bits.NVMEN = 0;
  1738  00026C  9E7F               	bcf	127,7,c	;volatile
  1739  00026E                     
  1740                           ;mcc_generated_files/pic18f_bootload.c: 316:     frame.data[0] = 0x01;
  1741  00026E  0E01               	movlw	1
  1742  000270  0100               	movlb	0	; () banked
  1743  000272  6F69               	movwf	(_frame+9)& (0+255),b
  1744  000274                     
  1745                           ; BSR set to: 0
  1746                           ;mcc_generated_files/pic18f_bootload.c: 317:     EE_Key_1 = 0x00;
  1747  000274  0E00               	movlw	0
  1748  000276  6E00               	movwf	0,c
  1749  000278                     
  1750                           ; BSR set to: 0
  1751                           ;mcc_generated_files/pic18f_bootload.c: 318:     EE_Key_2 = 0x00;
  1752  000278  0E00               	movlw	0
  1753  00027A  6E01               	movwf	1,c
  1754  00027C                     
  1755                           ; BSR set to: 0
  1756                           ;mcc_generated_files/pic18f_bootload.c: 319:     return (10);
  1757  00027C  0E00               	movlw	0
  1758  00027E  6E08               	movwf	(?_Write_Flash+1)^0,c
  1759  000280  0E0A               	movlw	10
  1760  000282  6E07               	movwf	?_Write_Flash^0,c
  1761  000284                     l353:
  1762                           
  1763                           ; BSR set to: 0
  1764  000284  0012               	return		;funcret
  1765  000286                     __end_of_Write_Flash:
  1766                           	callstack 0
  1767                           
  1768 ;; *************** function _FLASH_ReadSector *****************
  1769 ;; Defined at:
  1770 ;;		line 86 in file "mcc_generated_files/memory.c"
  1771 ;; Parameters:    Size  Location     Type
  1772 ;;  flashAddr       4    0[COMRAM] unsigned long 
  1773 ;; Auto vars:     Size  Location     Type
  1774 ;;  GIEBitValue     1    4[COMRAM] unsigned char 
  1775 ;; Return value:  Size  Location     Type
  1776 ;;                  1    wreg      void 
  1777 ;; Registers used:
  1778 ;;		wreg, status,2
  1779 ;; Tracked objects:
  1780 ;;		On entry : 0/0
  1781 ;;		On exit  : 0/0
  1782 ;;		Unchanged: 0/0
  1783 ;; Data sizes:     COMRAM   BANK0   BANK1   BANK2   BANK3   BANK4   BANK5   BANK6   BANK7   BANK8   BANK9  BANK10  BANK1
      +1  BANK12  BANK14
  1784 ;;      Params:         4       0       0       0       0       0       0       0       0       0       0       0       
      +0       0       0
  1785 ;;      Locals:         1       0       0       0       0       0       0       0       0       0       0       0       
      +0       0       0
  1786 ;;      Temps:          0       0       0       0       0       0       0       0       0       0       0       0       
      +0       0       0
  1787 ;;      Totals:         5       0       0       0       0       0       0       0       0       0       0       0       
      +0       0       0
  1788 ;;Total ram usage:        5 bytes
  1789 ;; Hardware stack levels used: 1
  1790 ;; This function calls:
  1791 ;;		Nothing
  1792 ;; This function is called by:
  1793 ;;		_Write_Flash
  1794 ;;		_FLASH_WriteWord
  1795 ;; This function uses a non-reentrant model
  1796 ;;
  1797                           
  1798                           	psect	text13
  1799  000794                     __ptext13:
  1800                           	callstack 0
  1801  000794                     _FLASH_ReadSector:
  1802                           	callstack 25
  1803  000794                     
  1804                           ;mcc_generated_files/memory.c: 86: void FLASH_ReadSector(uint32_t flashAddr);mcc_generat
      +                          ed_files/memory.c: 87: {;mcc_generated_files/memory.c: 88:     uint8_t GIEBitValue = INT
      +                          CONbits.GIE;
  1805  000794  0E00               	movlw	0
  1806  000796  BEF2               	btfsc	242,7,c	;volatile
  1807  000798  0E01               	movlw	1
  1808  00079A  6E06               	movwf	FLASH_ReadSector@GIEBitValue^0,c
  1809  00079C                     
  1810                           ;mcc_generated_files/memory.c: 91:     NVMCON0bits.NVMEN = 1;
  1811  00079C  8E7F               	bsf	127,7,c	;volatile
  1812  00079E                     
  1813                           ;mcc_generated_files/memory.c: 94:     NVMADRU = (uint8_t) ((flashAddr & 0x00FF0000) >> 
      +                          16);
  1814  00079E  C004  FF7B         	movff	FLASH_ReadSector@flashAddr+2,3963	;volatile
  1815  0007A2                     
  1816                           ;mcc_generated_files/memory.c: 95:     NVMADRH = (uint8_t) ((flashAddr & 0x0000FF00) >> 
      +                          8);
  1817  0007A2  C003  FF7A         	movff	FLASH_ReadSector@flashAddr+1,3962	;volatile
  1818  0007A6                     
  1819                           ;mcc_generated_files/memory.c: 96:     NVMADRL = (uint8_t) (flashAddr & 0x000000FF);
  1820  0007A6  C002  FF79         	movff	FLASH_ReadSector@flashAddr,3961	;volatile
  1821  0007AA                     
  1822                           ;mcc_generated_files/memory.c: 99:     INTCONbits.GIE = 0;
  1823  0007AA  9EF2               	bcf	242,7,c	;volatile
  1824  0007AC                     
  1825                           ;mcc_generated_files/memory.c: 102:     NVMCON2 = 0xBB;
  1826  0007AC  0EBB               	movlw	187
  1827  0007AE  6E81               	movwf	129,c	;volsfr
  1828  0007B0                     
  1829                           ;mcc_generated_files/memory.c: 103:     NVMCON2 = 0x44;
  1830  0007B0  0E44               	movlw	68
  1831  0007B2  6E81               	movwf	129,c	;volsfr
  1832  0007B4                     
  1833                           ;mcc_generated_files/memory.c: 106:     NVMCON1bits.SECRD = 1;
  1834  0007B4  8280               	bsf	128,1,c	;volsfr
  1835  0007B6                     l210:
  1836  0007B6  B280               	btfsc	128,1,c	;volsfr
  1837  0007B8  EFE0  F003         	goto	u411
  1838  0007BC  EFE2  F003         	goto	u410
  1839  0007C0                     u411:
  1840  0007C0  EFDB  F003         	goto	l210
  1841  0007C4                     u410:
  1842  0007C4                     
  1843                           ;mcc_generated_files/memory.c: 110:     INTCONbits.GIE = GIEBitValue;
  1844  0007C4  B006               	btfsc	FLASH_ReadSector@GIEBitValue^0,0,c
  1845  0007C6  D002               	bra	u425
  1846  0007C8  9EF2               	bcf	242,7,c	;volatile
  1847  0007CA  D001               	bra	u426
  1848  0007CC                     u425:
  1849  0007CC  8EF2               	bsf	242,7,c	;volatile
  1850  0007CE                     u426:
  1851                           
  1852                           ;mcc_generated_files/memory.c: 113:     NVMCON0bits.NVMEN = 0;
  1853  0007CE  9E7F               	bcf	127,7,c	;volatile
  1854  0007D0  0012               	return		;funcret
  1855  0007D2                     __end_of_FLASH_ReadSector:
  1856                           	callstack 0
  1857                           
  1858 ;; *************** function _Write_Config *****************
  1859 ;; Defined at:
  1860 ;;		line 400 in file "mcc_generated_files/pic18f_bootload.c"
  1861 ;; Parameters:    Size  Location     Type
  1862 ;;		None
  1863 ;; Auto vars:     Size  Location     Type
  1864 ;;  i               1    4[COMRAM] unsigned char 
  1865 ;; Return value:  Size  Location     Type
  1866 ;;                  2    0[COMRAM] unsigned short 
  1867 ;; Registers used:
  1868 ;;		wreg, fsr2l, fsr2h, status,2, status,0, cstack
  1869 ;; Tracked objects:
  1870 ;;		On entry : 0/0
  1871 ;;		On exit  : 0/0
  1872 ;;		Unchanged: 0/0
  1873 ;; Data sizes:     COMRAM   BANK0   BANK1   BANK2   BANK3   BANK4   BANK5   BANK6   BANK7   BANK8   BANK9  BANK10  BANK1
      +1  BANK12  BANK14
  1874 ;;      Params:         2       0       0       0       0       0       0       0       0       0       0       0       
      +0       0       0
  1875 ;;      Locals:         1       0       0       0       0       0       0       0       0       0       0       0       
      +0       0       0
  1876 ;;      Temps:          2       0       0       0       0       0       0       0       0       0       0       0       
      +0       0       0
  1877 ;;      Totals:         5       0       0       0       0       0       0       0       0       0       0       0       
      +0       0       0
  1878 ;;Total ram usage:        5 bytes
  1879 ;; Hardware stack levels used: 1
  1880 ;; Hardware stack levels required when called: 1
  1881 ;; This function calls:
  1882 ;;		_StartWrite
  1883 ;; This function is called by:
  1884 ;;		_ProcessBootBuffer
  1885 ;; This function uses a non-reentrant model
  1886 ;;
  1887                           
  1888                           	psect	text14
  1889  000516                     __ptext14:
  1890                           	callstack 0
  1891  000516                     _Write_Config:
  1892                           	callstack 25
  1893  000516                     
  1894                           ;mcc_generated_files/pic18f_bootload.c: 402:     TBLPTRL = frame.address_L;
  1895  000516  C065  FFF6         	movff	_frame+5,tblptrl	;volatile
  1896                           
  1897                           ;mcc_generated_files/pic18f_bootload.c: 403:     TBLPTRH = frame.address_H;
  1898  00051A  C066  FFF7         	movff	_frame+6,tblptrh	;volatile
  1899                           
  1900                           ;mcc_generated_files/pic18f_bootload.c: 404:     TBLPTRU = frame.address_U;
  1901  00051E  C067  FFF8         	movff	_frame+7,tblptru	;volatile
  1902  000522                     
  1903                           ;mcc_generated_files/pic18f_bootload.c: 405:     if (TBLPTR > 0x20000F)
  1904  000522  0E10               	movlw	16
  1905  000524  5CF6               	subwf	246,w,c	;volatile
  1906  000526  0E00               	movlw	0
  1907  000528  58F7               	subwfb	247,w,c	;volatile
  1908  00052A  0E20               	movlw	32
  1909  00052C  58F8               	subwfb	248,w,c	;volatile
  1910  00052E  A0D8               	btfss	status,0,c
  1911  000530  EF9C  F002         	goto	u501
  1912  000534  EF9E  F002         	goto	u500
  1913  000538                     u501:
  1914  000538  EFA2  F002         	goto	l1786
  1915  00053C                     u500:
  1916  00053C                     
  1917                           ;mcc_generated_files/pic18f_bootload.c: 406:         NVMCON1 = 0xC4;
  1918  00053C  0EC4               	movlw	196
  1919  00053E  6E80               	movwf	128,c	;volsfr
  1920  000540  EFA4  F002         	goto	l372
  1921  000544                     l1786:
  1922                           
  1923                           ;mcc_generated_files/pic18f_bootload.c: 408:         NVMCON1 = 0x84;
  1924  000544  0E84               	movlw	132
  1925  000546  6E80               	movwf	128,c	;volsfr
  1926  000548                     l372:
  1927                           
  1928                           ;mcc_generated_files/pic18f_bootload.c: 409:     for (uint8_t i= 0; i < frame.data_lengt
      +                          h; i ++)
  1929  000548  0E00               	movlw	0
  1930  00054A  6E06               	movwf	Write_Config@i^0,c
  1931  00054C  EFB5  F002         	goto	l1796
  1932  000550                     l1788:
  1933                           
  1934                           ; BSR set to: 0
  1935                           ;mcc_generated_files/pic18f_bootload.c: 410:     {;mcc_generated_files/pic18f_bootload.c
      +                          : 411:         TABLAT = frame.data[i];
  1936  000550  0E69               	movlw	low (_frame+9)
  1937  000552  2406               	addwf	Write_Config@i^0,w,c
  1938  000554  6ED9               	movwf	fsr2l,c
  1939  000556  6ADA               	clrf	fsr2h,c
  1940  000558  0E00               	movlw	high (_frame+9)
  1941  00055A  22DA               	addwfc	fsr2h,f,c
  1942  00055C  50DF               	movf	indf2,w,c
  1943  00055E  6EF5               	movwf	245,c	;volatile
  1944  000560  000C               	tblwt		*	;# 
  1945  000562                     
  1946                           ;mcc_generated_files/pic18f_bootload.c: 413:         StartWrite();
  1947  000562  EC64  F004         	call	_StartWrite	;wreg free
  1948  000566                     
  1949                           ;mcc_generated_files/pic18f_bootload.c: 414:         ++ TBLPTRL;
  1950  000566  2AF6               	incf	246,f,c	;volatile
  1951  000568                     
  1952                           ;mcc_generated_files/pic18f_bootload.c: 415:     }
  1953  000568  2A06               	incf	Write_Config@i^0,f,c
  1954  00056A                     l1796:
  1955  00056A  5006               	movf	Write_Config@i^0,w,c
  1956  00056C  6E04               	movwf	??_Write_Config^0,c
  1957  00056E  6A05               	clrf	(??_Write_Config+1)^0,c
  1958  000570  0100               	movlb	0	; () banked
  1959  000572  5161               	movf	(_frame+1)& (0+255),w,b
  1960  000574  5C04               	subwf	??_Write_Config^0,w,c
  1961  000576  5162               	movf	(_frame+2)& (0+255),w,b
  1962  000578  5805               	subwfb	(??_Write_Config+1)^0,w,c
  1963  00057A  A0D8               	btfss	status,0,c
  1964  00057C  EFC2  F002         	goto	u511
  1965  000580  EFC4  F002         	goto	u510
  1966  000584                     u511:
  1967  000584  EFA8  F002         	goto	l1788
  1968  000588                     u510:
  1969  000588                     
  1970                           ; BSR set to: 0
  1971                           ;mcc_generated_files/pic18f_bootload.c: 416:     frame.data[0] = 0x01;
  1972  000588  0E01               	movlw	1
  1973  00058A  6F69               	movwf	(_frame+9)& (0+255),b
  1974                           
  1975                           ;mcc_generated_files/pic18f_bootload.c: 417:     EE_Key_1 = 0x00;
  1976  00058C  0E00               	movlw	0
  1977  00058E  6E00               	movwf	0,c
  1978                           
  1979                           ;mcc_generated_files/pic18f_bootload.c: 418:     EE_Key_2 = 0x00;
  1980  000590  0E00               	movlw	0
  1981  000592  6E01               	movwf	1,c
  1982                           
  1983                           ;mcc_generated_files/pic18f_bootload.c: 419:     return (10);
  1984  000594  0E00               	movlw	0
  1985  000596  6E03               	movwf	(?_Write_Config+1)^0,c
  1986  000598  0E0A               	movlw	10
  1987  00059A  6E02               	movwf	?_Write_Config^0,c
  1988  00059C                     
  1989                           ; BSR set to: 0
  1990  00059C  0012               	return		;funcret
  1991  00059E                     __end_of_Write_Config:
  1992                           	callstack 0
  1993                           
  1994 ;; *************** function _StartWrite *****************
  1995 ;; Defined at:
  1996 ;;		line 467 in file "mcc_generated_files/pic18f_bootload.c"
  1997 ;; Parameters:    Size  Location     Type
  1998 ;;		None
  1999 ;; Auto vars:     Size  Location     Type
  2000 ;;		None
  2001 ;; Return value:  Size  Location     Type
  2002 ;;                  1    wreg      void 
  2003 ;; Registers used:
  2004 ;;		None
  2005 ;; Tracked objects:
  2006 ;;		On entry : 0/0
  2007 ;;		On exit  : 0/0
  2008 ;;		Unchanged: 0/0
  2009 ;; Data sizes:     COMRAM   BANK0   BANK1   BANK2   BANK3   BANK4   BANK5   BANK6   BANK7   BANK8   BANK9  BANK10  BANK1
      +1  BANK12  BANK14
  2010 ;;      Params:         0       0       0       0       0       0       0       0       0       0       0       0       
      +0       0       0
  2011 ;;      Locals:         0       0       0       0       0       0       0       0       0       0       0       0       
      +0       0       0
  2012 ;;      Temps:          0       0       0       0       0       0       0       0       0       0       0       0       
      +0       0       0
  2013 ;;      Totals:         0       0       0       0       0       0       0       0       0       0       0       0       
      +0       0       0
  2014 ;;Total ram usage:        0 bytes
  2015 ;; Hardware stack levels used: 1
  2016 ;; This function calls:
  2017 ;;		Nothing
  2018 ;; This function is called by:
  2019 ;;		_Write_Flash
  2020 ;;		_Write_Config
  2021 ;; This function uses a non-reentrant model
  2022 ;;
  2023                           
  2024                           	psect	text15
  2025  0008C8                     __ptext15:
  2026                           	callstack 0
  2027  0008C8                     _StartWrite:
  2028                           	callstack 25
  2029  0008C8  010F               	banksel	3969	;# 
  2030  0008CA  5000               	movf	0,w,c	;# 
  2031  0008CC  6F81               	movwf	3969,b	;# 
  2032  0008CE  5001               	movf	_EE_Key_2& (0+255),w,c	;# 
  2033  0008D0  6F81               	movwf	3969,b	;# 
  2034  0008D2  8A80               	bsf	3968,5,c	;# 
  2035                           
  2036                           ;mcc_generated_files/pic18f_bootload.c: 475:     __nop();
  2037  0008D4  F000               	nop	
  2038                           
  2039                           ;mcc_generated_files/pic18f_bootload.c: 476:     __nop();
  2040  0008D6  F000               	nop	
  2041  0008D8  0012               	return		;funcret
  2042  0008DA                     __end_of_StartWrite:
  2043                           	callstack 0
  2044                           
  2045 ;; *************** function _Read_Config *****************
  2046 ;; Defined at:
  2047 ;;		line 380 in file "mcc_generated_files/pic18f_bootload.c"
  2048 ;; Parameters:    Size  Location     Type
  2049 ;;		None
  2050 ;; Auto vars:     Size  Location     Type
  2051 ;;  i               1    4[COMRAM] unsigned char 
  2052 ;; Return value:  Size  Location     Type
  2053 ;;                  2    0[COMRAM] unsigned short 
  2054 ;; Registers used:
  2055 ;;		wreg, fsr2l, fsr2h, status,2, status,0
  2056 ;; Tracked objects:
  2057 ;;		On entry : 0/0
  2058 ;;		On exit  : 0/0
  2059 ;;		Unchanged: 0/0
  2060 ;; Data sizes:     COMRAM   BANK0   BANK1   BANK2   BANK3   BANK4   BANK5   BANK6   BANK7   BANK8   BANK9  BANK10  BANK1
      +1  BANK12  BANK14
  2061 ;;      Params:         2       0       0       0       0       0       0       0       0       0       0       0       
      +0       0       0
  2062 ;;      Locals:         1       0       0       0       0       0       0       0       0       0       0       0       
      +0       0       0
  2063 ;;      Temps:          2       0       0       0       0       0       0       0       0       0       0       0       
      +0       0       0
  2064 ;;      Totals:         5       0       0       0       0       0       0       0       0       0       0       0       
      +0       0       0
  2065 ;;Total ram usage:        5 bytes
  2066 ;; Hardware stack levels used: 1
  2067 ;; This function calls:
  2068 ;;		Nothing
  2069 ;; This function is called by:
  2070 ;;		_ProcessBootBuffer
  2071 ;; This function uses a non-reentrant model
  2072 ;;
  2073                           
  2074                           	psect	text16
  2075  0006A6                     __ptext16:
  2076                           	callstack 0
  2077  0006A6                     _Read_Config:
  2078                           	callstack 26
  2079  0006A6                     
  2080                           ;mcc_generated_files/pic18f_bootload.c: 382:     TBLPTRL = frame.address_L;
  2081  0006A6  C065  FFF6         	movff	_frame+5,tblptrl	;volatile
  2082                           
  2083                           ;mcc_generated_files/pic18f_bootload.c: 383:     TBLPTRH = frame.address_H;
  2084  0006AA  C066  FFF7         	movff	_frame+6,tblptrh	;volatile
  2085                           
  2086                           ;mcc_generated_files/pic18f_bootload.c: 384:     TBLPTRU = frame.address_U;
  2087  0006AE  C067  FFF8         	movff	_frame+7,tblptru	;volatile
  2088  0006B2                     
  2089                           ;mcc_generated_files/pic18f_bootload.c: 385:  NVMCON1 = 0xC0;
  2090  0006B2  0EC0               	movlw	192
  2091  0006B4  6E80               	movwf	128,c	;volsfr
  2092                           
  2093                           ;mcc_generated_files/pic18f_bootload.c: 386:     for (uint8_t i = 0; i < frame.data_leng
      +                          th; i++)
  2094  0006B6  0E00               	movlw	0
  2095  0006B8  6E06               	movwf	Read_Config@i^0,c
  2096  0006BA  EF69  F003         	goto	l1774
  2097  0006BE                     l366:
  2098                           
  2099                           ; BSR set to: 0
  2100  0006BE  0009               	tblrd		*+	;# 
  2101  0006C0                     
  2102                           ;mcc_generated_files/pic18f_bootload.c: 389:         frame.data[i] = TABLAT;
  2103  0006C0  0E69               	movlw	low (_frame+9)
  2104  0006C2  2406               	addwf	Read_Config@i^0,w,c
  2105  0006C4  6ED9               	movwf	fsr2l,c
  2106  0006C6  6ADA               	clrf	fsr2h,c
  2107  0006C8  0E00               	movlw	high (_frame+9)
  2108  0006CA  22DA               	addwfc	fsr2h,f,c
  2109  0006CC  CFF5 FFDF          	movff	tablat,indf2	;volatile
  2110  0006D0                     
  2111                           ;mcc_generated_files/pic18f_bootload.c: 390:     }
  2112  0006D0  2A06               	incf	Read_Config@i^0,f,c
  2113  0006D2                     l1774:
  2114  0006D2  5006               	movf	Read_Config@i^0,w,c
  2115  0006D4  6E04               	movwf	??_Read_Config^0,c
  2116  0006D6  6A05               	clrf	(??_Read_Config+1)^0,c
  2117  0006D8  0100               	movlb	0	; () banked
  2118  0006DA  5161               	movf	(_frame+1)& (0+255),w,b
  2119  0006DC  5C04               	subwf	??_Read_Config^0,w,c
  2120  0006DE  5162               	movf	(_frame+2)& (0+255),w,b
  2121  0006E0  5805               	subwfb	(??_Read_Config+1)^0,w,c
  2122  0006E2  A0D8               	btfss	status,0,c
  2123  0006E4  EF76  F003         	goto	u491
  2124  0006E8  EF78  F003         	goto	u490
  2125  0006EC                     u491:
  2126  0006EC  EF5F  F003         	goto	l366
  2127  0006F0                     u490:
  2128  0006F0                     
  2129                           ; BSR set to: 0
  2130                           ;mcc_generated_files/pic18f_bootload.c: 391:     return (9 + frame.data_length);
  2131  0006F0  0E09               	movlw	9
  2132  0006F2  2561               	addwf	(_frame+1)& (0+255),w,b
  2133  0006F4  6E02               	movwf	?_Read_Config^0,c
  2134  0006F6  0E00               	movlw	0
  2135  0006F8  2162               	addwfc	(_frame+2)& (0+255),w,b
  2136  0006FA  6E03               	movwf	(?_Read_Config+1)^0,c
  2137  0006FC                     
  2138                           ; BSR set to: 0
  2139  0006FC  0012               	return		;funcret
  2140  0006FE                     __end_of_Read_Config:
  2141                           	callstack 0
  2142                           
  2143 ;; *************** function _Get_Version_Data *****************
  2144 ;; Defined at:
  2145 ;;		line 233 in file "mcc_generated_files/pic18f_bootload.c"
  2146 ;; Parameters:    Size  Location     Type
  2147 ;;		None
  2148 ;; Auto vars:     Size  Location     Type
  2149 ;;  i               1    2[COMRAM] unsigned char 
  2150 ;; Return value:  Size  Location     Type
  2151 ;;                  2    0[COMRAM] unsigned short 
  2152 ;; Registers used:
  2153 ;;		wreg, fsr2l, fsr2h, status,2, status,0
  2154 ;; Tracked objects:
  2155 ;;		On entry : 0/0
  2156 ;;		On exit  : 0/0
  2157 ;;		Unchanged: 0/0
  2158 ;; Data sizes:     COMRAM   BANK0   BANK1   BANK2   BANK3   BANK4   BANK5   BANK6   BANK7   BANK8   BANK9  BANK10  BANK1
      +1  BANK12  BANK14
  2159 ;;      Params:         2       0       0       0       0       0       0       0       0       0       0       0       
      +0       0       0
  2160 ;;      Locals:         1       0       0       0       0       0       0       0       0       0       0       0       
      +0       0       0
  2161 ;;      Temps:          0       0       0       0       0       0       0       0       0       0       0       0       
      +0       0       0
  2162 ;;      Totals:         3       0       0       0       0       0       0       0       0       0       0       0       
      +0       0       0
  2163 ;;Total ram usage:        3 bytes
  2164 ;; Hardware stack levels used: 1
  2165 ;; This function calls:
  2166 ;;		Nothing
  2167 ;; This function is called by:
  2168 ;;		_ProcessBootBuffer
  2169 ;; This function uses a non-reentrant model
  2170 ;;
  2171                           
  2172                           	psect	text17
  2173  000622                     __ptext17:
  2174                           	callstack 0
  2175  000622                     _Get_Version_Data:
  2176                           	callstack 26
  2177  000622                     
  2178                           ;mcc_generated_files/pic18f_bootload.c: 235:     frame.data[0] = 0x01;
  2179  000622  0E01               	movlw	1
  2180  000624  0100               	movlb	0	; () banked
  2181  000626  6F69               	movwf	(_frame+9)& (0+255),b
  2182                           
  2183                           ;mcc_generated_files/pic18f_bootload.c: 236:     frame.data[1] = 0x01;
  2184  000628  0E01               	movlw	1
  2185  00062A  6F6A               	movwf	(_frame+10)& (0+255),b
  2186                           
  2187                           ;mcc_generated_files/pic18f_bootload.c: 237:     frame.data[2] = 0;
  2188  00062C  0E00               	movlw	0
  2189  00062E  6F6B               	movwf	(_frame+11)& (0+255),b
  2190                           
  2191                           ;mcc_generated_files/pic18f_bootload.c: 238:     frame.data[3] = 1;
  2192  000630  0E01               	movlw	1
  2193  000632  6F6C               	movwf	(_frame+12)& (0+255),b
  2194                           
  2195                           ;mcc_generated_files/pic18f_bootload.c: 239:     frame.data[4] = 0;
  2196  000634  0E00               	movlw	0
  2197  000636  6F6D               	movwf	(_frame+13)& (0+255),b
  2198                           
  2199                           ;mcc_generated_files/pic18f_bootload.c: 240:     frame.data[5] = 0;
  2200  000638  0E00               	movlw	0
  2201  00063A  6F6E               	movwf	(_frame+14)& (0+255),b
  2202                           
  2203                           ;mcc_generated_files/pic18f_bootload.c: 241:     TBLPTRU = 0x3F;
  2204  00063C  0E3F               	movlw	63
  2205  00063E  6EF8               	movwf	248,c	;volatile
  2206  000640                     
  2207                           ; BSR set to: 0
  2208                           ;mcc_generated_files/pic18f_bootload.c: 242:     TBLPTRH = 0xFF;
  2209  000640  68F7               	setf	247,c	;volatile
  2210                           
  2211                           ;mcc_generated_files/pic18f_bootload.c: 243:     TBLPTRL = 0xFE;
  2212  000642  0EFE               	movlw	254
  2213  000644  6EF6               	movwf	246,c	;volatile
  2214                           
  2215                           ;mcc_generated_files/pic18f_bootload.c: 244:     NVMCON1 = 0xC0;
  2216  000646  0EC0               	movlw	192
  2217  000648  6E80               	movwf	128,c	;volsfr
  2218  00064A  0009               	tblrd		*+	;# 
  2219  00064C                     
  2220                           ;mcc_generated_files/pic18f_bootload.c: 246:     frame.data[6] = TABLAT;
  2221  00064C  CFF5 F06F          	movff	tablat,_frame+15	;volatile
  2222  000650  0009               	tblrd		*+	;# 
  2223  000652                     
  2224                           ;mcc_generated_files/pic18f_bootload.c: 248:     frame.data[7] = TABLAT;
  2225  000652  CFF5 F070          	movff	tablat,_frame+16	;volatile
  2226                           
  2227                           ;mcc_generated_files/pic18f_bootload.c: 249:     frame.data[8] = 0;
  2228  000656  0E00               	movlw	0
  2229  000658  0100               	movlb	0	; () banked
  2230  00065A  6F71               	movwf	(_frame+17)& (0+255),b
  2231                           
  2232                           ;mcc_generated_files/pic18f_bootload.c: 250:     frame.data[9] = 0;
  2233  00065C  0E00               	movlw	0
  2234  00065E  6F72               	movwf	(_frame+18)& (0+255),b
  2235                           
  2236                           ;mcc_generated_files/pic18f_bootload.c: 252:     frame.data[10] = 128;
  2237  000660  0E80               	movlw	128
  2238  000662  6F73               	movwf	(_frame+19)& (0+255),b
  2239                           
  2240                           ;mcc_generated_files/pic18f_bootload.c: 253:     frame.data[11] = 128;
  2241  000664  0E80               	movlw	128
  2242  000666  6F74               	movwf	(_frame+20)& (0+255),b
  2243                           
  2244                           ;mcc_generated_files/pic18f_bootload.c: 255:     TBLPTRU = 0x30;
  2245  000668  0E30               	movlw	48
  2246  00066A  6EF8               	movwf	248,c	;volatile
  2247                           
  2248                           ;mcc_generated_files/pic18f_bootload.c: 256:     TBLPTRH = 0x00;
  2249  00066C  0E00               	movlw	0
  2250  00066E  6EF7               	movwf	247,c	;volatile
  2251                           
  2252                           ;mcc_generated_files/pic18f_bootload.c: 257:     TBLPTRL = 0x00;
  2253  000670  0E00               	movlw	0
  2254  000672  6EF6               	movwf	246,c	;volatile
  2255                           
  2256                           ;mcc_generated_files/pic18f_bootload.c: 259:     for (uint8_t i= 12; i < 16; i++)
  2257  000674  0E0C               	movlw	12
  2258  000676  6E04               	movwf	Get_Version_Data@i^0,c
  2259  000678                     l345:
  2260  000678  0009               	tblrd		*+	;# 
  2261  00067A                     
  2262                           ;mcc_generated_files/pic18f_bootload.c: 262:         frame.data[i] = TABLAT;
  2263  00067A  0E69               	movlw	low (_frame+9)
  2264  00067C  2404               	addwf	Get_Version_Data@i^0,w,c
  2265  00067E  6ED9               	movwf	fsr2l,c
  2266  000680  6ADA               	clrf	fsr2h,c
  2267  000682  0E00               	movlw	high (_frame+9)
  2268  000684  22DA               	addwfc	fsr2h,f,c
  2269  000686  CFF5 FFDF          	movff	tablat,indf2	;volatile
  2270  00068A                     
  2271                           ;mcc_generated_files/pic18f_bootload.c: 263:     }
  2272  00068A  2A04               	incf	Get_Version_Data@i^0,f,c
  2273  00068C  0E0F               	movlw	15
  2274  00068E  6404               	cpfsgt	Get_Version_Data@i^0,c
  2275  000690  EF4C  F003         	goto	u431
  2276  000694  EF4E  F003         	goto	u430
  2277  000698                     u431:
  2278  000698  EF3C  F003         	goto	l345
  2279  00069C                     u430:
  2280  00069C                     
  2281                           ;mcc_generated_files/pic18f_bootload.c: 265:     return 25;
  2282  00069C  0E00               	movlw	0
  2283  00069E  6E03               	movwf	(?_Get_Version_Data+1)^0,c
  2284  0006A0  0E19               	movlw	25
  2285  0006A2  6E02               	movwf	?_Get_Version_Data^0,c
  2286  0006A4  0012               	return		;funcret
  2287  0006A6                     __end_of_Get_Version_Data:
  2288                           	callstack 0
  2289                           
  2290 ;; *************** function _Erase_Flash *****************
  2291 ;; Defined at:
  2292 ;;		line 330 in file "mcc_generated_files/pic18f_bootload.c"
  2293 ;; Parameters:    Size  Location     Type
  2294 ;;		None
  2295 ;; Auto vars:     Size  Location     Type
  2296 ;;  blockStartAd    4   21[COMRAM] unsigned long 
  2297 ;;  i               2   18[COMRAM] unsigned short 
  2298 ;;  address         4   14[COMRAM] unsigned long 
  2299 ;;  GIEBitValue     1   20[COMRAM] unsigned char 
  2300 ;; Return value:  Size  Location     Type
  2301 ;;                  2    0[COMRAM] unsigned short 
  2302 ;; Registers used:
  2303 ;;		wreg, status,2, status,0, cstack
  2304 ;; Tracked objects:
  2305 ;;		On entry : 0/0
  2306 ;;		On exit  : 0/0
  2307 ;;		Unchanged: 0/0
  2308 ;; Data sizes:     COMRAM   BANK0   BANK1   BANK2   BANK3   BANK4   BANK5   BANK6   BANK7   BANK8   BANK9  BANK10  BANK1
      +1  BANK12  BANK14
  2309 ;;      Params:         2       0       0       0       0       0       0       0       0       0       0       0       
      +0       0       0
  2310 ;;      Locals:        11       0       0       0       0       0       0       0       0       0       0       0       
      +0       0       0
  2311 ;;      Temps:         12       0       0       0       0       0       0       0       0       0       0       0       
      +0       0       0
  2312 ;;      Totals:        25       0       0       0       0       0       0       0       0       0       0       0       
      +0       0       0
  2313 ;;Total ram usage:       25 bytes
  2314 ;; Hardware stack levels used: 1
  2315 ;; Hardware stack levels required when called: 1
  2316 ;; This function calls:
  2317 ;;		_StartErase
  2318 ;; This function is called by:
  2319 ;;		_ProcessBootBuffer
  2320 ;; This function uses a non-reentrant model
  2321 ;;
  2322                           
  2323                           	psect	text18
  2324  000286                     __ptext18:
  2325                           	callstack 0
  2326  000286                     _Erase_Flash:
  2327                           	callstack 25
  2328  000286                     
  2329                           ;mcc_generated_files/pic18f_bootload.c: 332:     uint32_t address;;mcc_generated_files/p
      +                          ic18f_bootload.c: 334:     TBLPTRL = frame.address_L;
  2330  000286  C065  FFF6         	movff	_frame+5,tblptrl	;volatile
  2331                           
  2332                           ;mcc_generated_files/pic18f_bootload.c: 335:     TBLPTRH = frame.address_H;
  2333  00028A  C066  FFF7         	movff	_frame+6,tblptrh	;volatile
  2334                           
  2335                           ;mcc_generated_files/pic18f_bootload.c: 336:     TBLPTRU = frame.address_U;
  2336  00028E  C067  FFF8         	movff	_frame+7,tblptru	;volatile
  2337  000292                     
  2338                           ;mcc_generated_files/pic18f_bootload.c: 337:     address = (((uint32_t)frame.address_U) 
      +                          << 16)
  2339  000292  C066  F004         	movff	_frame+6,??_Erase_Flash
  2340  000296  6A05               	clrf	(??_Erase_Flash+1)^0,c
  2341  000298  6A06               	clrf	(??_Erase_Flash+2)^0,c
  2342  00029A  6A07               	clrf	(??_Erase_Flash+3)^0,c
  2343  00029C  C006  F007         	movff	??_Erase_Flash+2,??_Erase_Flash+3
  2344  0002A0  C005  F006         	movff	??_Erase_Flash+1,??_Erase_Flash+2
  2345  0002A4  C004  F005         	movff	??_Erase_Flash,??_Erase_Flash+1
  2346  0002A8  6A04               	clrf	??_Erase_Flash^0,c
  2347  0002AA  C067  F008         	movff	_frame+7,??_Erase_Flash+4
  2348  0002AE  6A09               	clrf	(??_Erase_Flash+5)^0,c
  2349  0002B0  6A0A               	clrf	(??_Erase_Flash+6)^0,c
  2350  0002B2  6A0B               	clrf	(??_Erase_Flash+7)^0,c
  2351  0002B4  C009  F00B         	movff	??_Erase_Flash+5,??_Erase_Flash+7
  2352  0002B8  C008  F00A         	movff	??_Erase_Flash+4,??_Erase_Flash+6
  2353  0002BC  6A09               	clrf	(??_Erase_Flash+5)^0,c
  2354  0002BE  6A08               	clrf	(??_Erase_Flash+4)^0,c
  2355  0002C0  5004               	movf	??_Erase_Flash^0,w,c
  2356  0002C2  2408               	addwf	(??_Erase_Flash+4)^0,w,c
  2357  0002C4  6E0C               	movwf	(??_Erase_Flash+8)^0,c
  2358  0002C6  5005               	movf	(??_Erase_Flash+1)^0,w,c
  2359  0002C8  2009               	addwfc	(??_Erase_Flash+5)^0,w,c
  2360  0002CA  6E0D               	movwf	(??_Erase_Flash+9)^0,c
  2361  0002CC  5006               	movf	(??_Erase_Flash+2)^0,w,c
  2362  0002CE  200A               	addwfc	(??_Erase_Flash+6)^0,w,c
  2363  0002D0  6E0E               	movwf	(??_Erase_Flash+10)^0,c
  2364  0002D2  5007               	movf	(??_Erase_Flash+3)^0,w,c
  2365  0002D4  200B               	addwfc	(??_Erase_Flash+7)^0,w,c
  2366  0002D6  6E0F               	movwf	(??_Erase_Flash+11)^0,c
  2367  0002D8  0100               	movlb	0	; () banked
  2368  0002DA  5165               	movf	(_frame+5)& (0+255),w,b
  2369  0002DC  240C               	addwf	(??_Erase_Flash+8)^0,w,c
  2370  0002DE  6E10               	movwf	Erase_Flash@address^0,c
  2371  0002E0  0E00               	movlw	0
  2372  0002E2  200D               	addwfc	(??_Erase_Flash+9)^0,w,c
  2373  0002E4  6E11               	movwf	(Erase_Flash@address+1)^0,c
  2374  0002E6  0E00               	movlw	0
  2375  0002E8  200E               	addwfc	(??_Erase_Flash+10)^0,w,c
  2376  0002EA  6E12               	movwf	(Erase_Flash@address+2)^0,c
  2377  0002EC  0E00               	movlw	0
  2378  0002EE  200F               	addwfc	(??_Erase_Flash+11)^0,w,c
  2379  0002F0  6E13               	movwf	(Erase_Flash@address+3)^0,c
  2380  0002F2                     
  2381                           ; BSR set to: 0
  2382                           ;mcc_generated_files/pic18f_bootload.c: 341:     uint8_t GIEBitValue = INTCONbits.GIE;
  2383  0002F2  0E00               	movlw	0
  2384  0002F4  BEF2               	btfsc	242,7,c	;volatile
  2385  0002F6  0E01               	movlw	1
  2386  0002F8  6E16               	movwf	Erase_Flash@GIEBitValue^0,c
  2387  0002FA                     
  2388                           ; BSR set to: 0
  2389                           ;mcc_generated_files/pic18f_bootload.c: 344:     INTCONbits.GIE = 0;
  2390  0002FA  9EF2               	bcf	242,7,c	;volatile
  2391  0002FC                     
  2392                           ; BSR set to: 0
  2393                           ;mcc_generated_files/pic18f_bootload.c: 346:     for (uint16_t i=0; i < frame.data_lengt
      +                          h; i++)
  2394  0002FC  0E00               	movlw	0
  2395  0002FE  6E15               	movwf	(Erase_Flash@i+1)^0,c
  2396  000300  0E00               	movlw	0
  2397  000302  6E14               	movwf	Erase_Flash@i^0,c
  2398  000304  EFA1  F001         	goto	l1760
  2399  000308                     l1746:
  2400                           
  2401                           ; BSR set to: 0
  2402                           ;mcc_generated_files/pic18f_bootload.c: 347:     {;mcc_generated_files/pic18f_bootload.c
      +                          : 348:         uint32_t blockStartAddr = (uint32_t) (address & ((0x020000 - 1) ^ ((128 *
      +                           2) - 1)));
  2403  000308  0E00               	movlw	0
  2404  00030A  1410               	andwf	Erase_Flash@address^0,w,c
  2405  00030C  6E17               	movwf	Erase_Flash@blockStartAddr^0,c
  2406  00030E  0EFF               	movlw	255
  2407  000310  1411               	andwf	(Erase_Flash@address+1)^0,w,c
  2408  000312  6E18               	movwf	(Erase_Flash@blockStartAddr+1)^0,c
  2409  000314  0E01               	movlw	1
  2410  000316  1412               	andwf	(Erase_Flash@address+2)^0,w,c
  2411  000318  6E19               	movwf	(Erase_Flash@blockStartAddr+2)^0,c
  2412  00031A  0E00               	movlw	0
  2413  00031C  1413               	andwf	(Erase_Flash@address+3)^0,w,c
  2414  00031E  6E1A               	movwf	(Erase_Flash@blockStartAddr+3)^0,c
  2415  000320                     
  2416                           ; BSR set to: 0
  2417                           ;mcc_generated_files/pic18f_bootload.c: 352:         NVMADRU = (uint8_t) ((blockStartAdd
      +                          r & 0x00FF0000) >> 16);
  2418  000320  C019  FF7B         	movff	Erase_Flash@blockStartAddr+2,3963	;volatile
  2419  000324                     
  2420                           ; BSR set to: 0
  2421                           ;mcc_generated_files/pic18f_bootload.c: 353:         NVMADRH = (uint8_t) ((blockStartAdd
      +                          r & 0x0000FF00) >> 8);
  2422  000324  C018  FF7A         	movff	Erase_Flash@blockStartAddr+1,3962	;volatile
  2423  000328                     
  2424                           ; BSR set to: 0
  2425                           ;mcc_generated_files/pic18f_bootload.c: 356:         NVMCON0bits.NVMEN = 1;
  2426  000328  8E7F               	bsf	127,7,c	;volatile
  2427  00032A                     
  2428                           ; BSR set to: 0
  2429                           ;mcc_generated_files/pic18f_bootload.c: 358:         StartErase();
  2430  00032A  EC6D  F004         	call	_StartErase	;wreg free
  2431  00032E                     
  2432                           ;mcc_generated_files/pic18f_bootload.c: 359:         address += 128 * 2;
  2433  00032E  0E00               	movlw	0
  2434  000330  2610               	addwf	Erase_Flash@address^0,f,c
  2435  000332  0E01               	movlw	1
  2436  000334  2211               	addwfc	(Erase_Flash@address+1)^0,f,c
  2437  000336  0E00               	movlw	0
  2438  000338  2212               	addwfc	(Erase_Flash@address+2)^0,f,c
  2439  00033A  0E00               	movlw	0
  2440  00033C  2213               	addwfc	(Erase_Flash@address+3)^0,f,c
  2441  00033E                     
  2442                           ;mcc_generated_files/pic18f_bootload.c: 360:     }
  2443  00033E  4A14               	infsnz	Erase_Flash@i^0,f,c
  2444  000340  2A15               	incf	(Erase_Flash@i+1)^0,f,c
  2445  000342                     l1760:
  2446  000342  0100               	movlb	0	; () banked
  2447  000344  5161               	movf	(_frame+1)& (0+255),w,b
  2448  000346  5C14               	subwf	Erase_Flash@i^0,w,c
  2449  000348  5162               	movf	(_frame+2)& (0+255),w,b
  2450  00034A  5815               	subwfb	(Erase_Flash@i+1)^0,w,c
  2451  00034C  A0D8               	btfss	status,0,c
  2452  00034E  EFAB  F001         	goto	u471
  2453  000352  EFAD  F001         	goto	u470
  2454  000356                     u471:
  2455  000356  EF84  F001         	goto	l1746
  2456  00035A                     u470:
  2457  00035A                     
  2458                           ; BSR set to: 0
  2459                           ;mcc_generated_files/pic18f_bootload.c: 362:     INTCONbits.GIE = GIEBitValue;
  2460  00035A  B016               	btfsc	Erase_Flash@GIEBitValue^0,0,c
  2461  00035C  D002               	bra	u485
  2462  00035E  9EF2               	bcf	242,7,c	;volatile
  2463  000360  D001               	bra	u486
  2464  000362                     u485:
  2465  000362  8EF2               	bsf	242,7,c	;volatile
  2466  000364                     u486:
  2467                           
  2468                           ;mcc_generated_files/pic18f_bootload.c: 365:     NVMCON0bits.NVMEN = 0;
  2469  000364  9E7F               	bcf	127,7,c	;volatile
  2470  000366                     
  2471                           ;mcc_generated_files/pic18f_bootload.c: 367:     frame.data[0] = 0x01;
  2472  000366  0E01               	movlw	1
  2473  000368  0100               	movlb	0	; () banked
  2474  00036A  6F69               	movwf	(_frame+9)& (0+255),b
  2475                           
  2476                           ;mcc_generated_files/pic18f_bootload.c: 368:     frame.EE_key_1 = 0x00;
  2477  00036C  0E00               	movlw	0
  2478  00036E  6F63               	movwf	(_frame+3)& (0+255),b
  2479                           
  2480                           ;mcc_generated_files/pic18f_bootload.c: 369:     frame.EE_key_2 = 0x00;
  2481  000370  0E00               	movlw	0
  2482  000372  6F64               	movwf	(_frame+4)& (0+255),b
  2483                           
  2484                           ;mcc_generated_files/pic18f_bootload.c: 370:     return (10);
  2485  000374  0E00               	movlw	0
  2486  000376  6E03               	movwf	(?_Erase_Flash+1)^0,c
  2487  000378  0E0A               	movlw	10
  2488  00037A  6E02               	movwf	?_Erase_Flash^0,c
  2489  00037C                     
  2490                           ; BSR set to: 0
  2491  00037C  0012               	return		;funcret
  2492  00037E                     __end_of_Erase_Flash:
  2493                           	callstack 0
  2494                           
  2495 ;; *************** function _StartErase *****************
  2496 ;; Defined at:
  2497 ;;		line 480 in file "mcc_generated_files/pic18f_bootload.c"
  2498 ;; Parameters:    Size  Location     Type
  2499 ;;		None
  2500 ;; Auto vars:     Size  Location     Type
  2501 ;;		None
  2502 ;; Return value:  Size  Location     Type
  2503 ;;                  1    wreg      void 
  2504 ;; Registers used:
  2505 ;;		None
  2506 ;; Tracked objects:
  2507 ;;		On entry : 0/0
  2508 ;;		On exit  : 0/0
  2509 ;;		Unchanged: 0/0
  2510 ;; Data sizes:     COMRAM   BANK0   BANK1   BANK2   BANK3   BANK4   BANK5   BANK6   BANK7   BANK8   BANK9  BANK10  BANK1
      +1  BANK12  BANK14
  2511 ;;      Params:         0       0       0       0       0       0       0       0       0       0       0       0       
      +0       0       0
  2512 ;;      Locals:         0       0       0       0       0       0       0       0       0       0       0       0       
      +0       0       0
  2513 ;;      Temps:          0       0       0       0       0       0       0       0       0       0       0       0       
      +0       0       0
  2514 ;;      Totals:         0       0       0       0       0       0       0       0       0       0       0       0       
      +0       0       0
  2515 ;;Total ram usage:        0 bytes
  2516 ;; Hardware stack levels used: 1
  2517 ;; This function calls:
  2518 ;;		Nothing
  2519 ;; This function is called by:
  2520 ;;		_Erase_Flash
  2521 ;; This function uses a non-reentrant model
  2522 ;;
  2523                           
  2524                           	psect	text19
  2525  0008DA                     __ptext19:
  2526                           	callstack 0
  2527  0008DA                     _StartErase:
  2528                           	callstack 25
  2529  0008DA  010F               	banksel	3969	;# 
  2530  0008DC  5000               	movf	0,w,c	;# 
  2531  0008DE  6F81               	movwf	3969,b	;# 
  2532  0008E0  5001               	movf	_EE_Key_2& (0+255),w,c	;# 
  2533  0008E2  6F81               	movwf	3969,b	;# 
  2534  0008E4  8C80               	bsf	3968,6,c	;# 
  2535                           
  2536                           ;mcc_generated_files/pic18f_bootload.c: 488:     __nop();
  2537  0008E6  F000               	nop	
  2538                           
  2539                           ;mcc_generated_files/pic18f_bootload.c: 489:     __nop();
  2540  0008E8  F000               	nop	
  2541  0008EA  0012               	return		;funcret
  2542  0008EC                     __end_of_StartErase:
  2543                           	callstack 0
  2544                           
  2545 ;; *************** function _Calc_Checksum *****************
  2546 ;; Defined at:
  2547 ;;		line 430 in file "mcc_generated_files/pic18f_bootload.c"
  2548 ;; Parameters:    Size  Location     Type
  2549 ;;		None
  2550 ;; Auto vars:     Size  Location     Type
  2551 ;;  length          4   10[COMRAM] unsigned long 
  2552 ;;  i               4    6[COMRAM] unsigned long 
  2553 ;; Return value:  Size  Location     Type
  2554 ;;                  2    0[COMRAM] unsigned short 
  2555 ;; Registers used:
  2556 ;;		wreg, status,2, status,0
  2557 ;; Tracked objects:
  2558 ;;		On entry : 0/0
  2559 ;;		On exit  : 0/0
  2560 ;;		Unchanged: 0/0
  2561 ;; Data sizes:     COMRAM   BANK0   BANK1   BANK2   BANK3   BANK4   BANK5   BANK6   BANK7   BANK8   BANK9  BANK10  BANK1
      +1  BANK12  BANK14
  2562 ;;      Params:         2       0       0       0       0       0       0       0       0       0       0       0       
      +0       0       0
  2563 ;;      Locals:         8       0       0       0       0       0       0       0       0       0       0       0       
      +0       0       0
  2564 ;;      Temps:          4       0       0       0       0       0       0       0       0       0       0       0       
      +0       0       0
  2565 ;;      Totals:        14       0       0       0       0       0       0       0       0       0       0       0       
      +0       0       0
  2566 ;;Total ram usage:       14 bytes
  2567 ;; Hardware stack levels used: 1
  2568 ;; This function calls:
  2569 ;;		Nothing
  2570 ;; This function is called by:
  2571 ;;		_ProcessBootBuffer
  2572 ;; This function uses a non-reentrant model
  2573 ;;
  2574                           
  2575                           	psect	text20
  2576  00046A                     __ptext20:
  2577                           	callstack 0
  2578  00046A                     _Calc_Checksum:
  2579                           	callstack 26
  2580  00046A                     
  2581                           ;mcc_generated_files/pic18f_bootload.c: 433:     uint32_t i;;mcc_generated_files/pic18f_
      +                          bootload.c: 434:     uint32_t length;;mcc_generated_files/pic18f_bootload.c: 440:     TB
      +                          LPTRL = frame.address_L;
  2582  00046A  C065  FFF6         	movff	_frame+5,tblptrl	;volatile
  2583                           
  2584                           ;mcc_generated_files/pic18f_bootload.c: 441:     TBLPTRH = frame.address_H;
  2585  00046E  C066  FFF7         	movff	_frame+6,tblptrh	;volatile
  2586                           
  2587                           ;mcc_generated_files/pic18f_bootload.c: 442:     TBLPTRU = frame.address_U;
  2588  000472  C067  FFF8         	movff	_frame+7,tblptru	;volatile
  2589  000476                     
  2590                           ;mcc_generated_files/pic18f_bootload.c: 443:     NVMCON1 = 0x80;
  2591  000476  0E80               	movlw	128
  2592  000478  6E80               	movwf	128,c	;volsfr
  2593                           
  2594                           ;mcc_generated_files/pic18f_bootload.c: 444:     check_sum = 0;
  2595  00047A  0E00               	movlw	0
  2596  00047C  6E2B               	movwf	(_check_sum+1)^0,c
  2597  00047E  0E00               	movlw	0
  2598  000480  6E2A               	movwf	_check_sum^0,c
  2599  000482                     
  2600                           ;mcc_generated_files/pic18f_bootload.c: 445:     length = frame.data_length;
  2601  000482  C061  F00C         	movff	_frame+1,Calc_Checksum@length
  2602  000486  C062  F00D         	movff	_frame+2,Calc_Checksum@length+1
  2603  00048A  6A0E               	clrf	(Calc_Checksum@length+2)^0,c
  2604  00048C  6A0F               	clrf	(Calc_Checksum@length+3)^0,c
  2605  00048E                     
  2606                           ;mcc_generated_files/pic18f_bootload.c: 447:     length += ((uint32_t) frame.EE_key_1) <
      +                          < 16;
  2607  00048E  C063  F004         	movff	_frame+3,??_Calc_Checksum
  2608  000492  6A05               	clrf	(??_Calc_Checksum+1)^0,c
  2609  000494  6A06               	clrf	(??_Calc_Checksum+2)^0,c
  2610  000496  6A07               	clrf	(??_Calc_Checksum+3)^0,c
  2611  000498  C005  F007         	movff	??_Calc_Checksum+1,??_Calc_Checksum+3
  2612  00049C  C004  F006         	movff	??_Calc_Checksum,??_Calc_Checksum+2
  2613  0004A0  6A05               	clrf	(??_Calc_Checksum+1)^0,c
  2614  0004A2  6A04               	clrf	??_Calc_Checksum^0,c
  2615  0004A4  5004               	movf	??_Calc_Checksum^0,w,c
  2616  0004A6  260C               	addwf	Calc_Checksum@length^0,f,c
  2617  0004A8  5005               	movf	(??_Calc_Checksum+1)^0,w,c
  2618  0004AA  220D               	addwfc	(Calc_Checksum@length+1)^0,f,c
  2619  0004AC  5006               	movf	(??_Calc_Checksum+2)^0,w,c
  2620  0004AE  220E               	addwfc	(Calc_Checksum@length+2)^0,f,c
  2621  0004B0  5007               	movf	(??_Calc_Checksum+3)^0,w,c
  2622  0004B2  220F               	addwfc	(Calc_Checksum@length+3)^0,f,c
  2623  0004B4                     
  2624                           ;mcc_generated_files/pic18f_bootload.c: 449:     for (i = 0; i < length; i += 2)
  2625  0004B4  0E00               	movlw	0
  2626  0004B6  6E08               	movwf	Calc_Checksum@i^0,c
  2627  0004B8  0E00               	movlw	0
  2628  0004BA  6E09               	movwf	(Calc_Checksum@i+1)^0,c
  2629  0004BC  0E00               	movlw	0
  2630  0004BE  6E0A               	movwf	(Calc_Checksum@i+2)^0,c
  2631  0004C0  0E00               	movlw	0
  2632  0004C2  6E0B               	movwf	(Calc_Checksum@i+3)^0,c
  2633  0004C4  EF72  F002         	goto	l1818
  2634  0004C8                     l380:
  2635  0004C8  0009               	tblrd		*+	;# 
  2636  0004CA                     
  2637                           ;mcc_generated_files/pic18f_bootload.c: 452:         check_sum += (uint16_t)TABLAT;
  2638  0004CA  50F5               	movf	245,w,c	;volatile
  2639  0004CC  262A               	addwf	_check_sum^0,f,c
  2640  0004CE  0E00               	movlw	0
  2641  0004D0  222B               	addwfc	(_check_sum+1)^0,f,c
  2642  0004D2  0009               	tblrd		*+	;# 
  2643  0004D4                     
  2644                           ;mcc_generated_files/pic18f_bootload.c: 454:         check_sum += (uint16_t)TABLAT << 8;
  2645  0004D4  50F5               	movf	245,w,c	;volatile
  2646  0004D6  262B               	addwf	(_check_sum+1)^0,f,c
  2647  0004D8                     
  2648                           ;mcc_generated_files/pic18f_bootload.c: 455:      }
  2649  0004D8  0E02               	movlw	2
  2650  0004DA  2608               	addwf	Calc_Checksum@i^0,f,c
  2651  0004DC  0E00               	movlw	0
  2652  0004DE  2209               	addwfc	(Calc_Checksum@i+1)^0,f,c
  2653  0004E0  220A               	addwfc	(Calc_Checksum@i+2)^0,f,c
  2654  0004E2  220B               	addwfc	(Calc_Checksum@i+3)^0,f,c
  2655  0004E4                     l1818:
  2656  0004E4  500C               	movf	Calc_Checksum@length^0,w,c
  2657  0004E6  5C08               	subwf	Calc_Checksum@i^0,w,c
  2658  0004E8  500D               	movf	(Calc_Checksum@length+1)^0,w,c
  2659  0004EA  5809               	subwfb	(Calc_Checksum@i+1)^0,w,c
  2660  0004EC  500E               	movf	(Calc_Checksum@length+2)^0,w,c
  2661  0004EE  580A               	subwfb	(Calc_Checksum@i+2)^0,w,c
  2662  0004F0  500F               	movf	(Calc_Checksum@length+3)^0,w,c
  2663  0004F2  580B               	subwfb	(Calc_Checksum@i+3)^0,w,c
  2664  0004F4  A0D8               	btfss	status,0,c
  2665  0004F6  EF7F  F002         	goto	u521
  2666  0004FA  EF81  F002         	goto	u520
  2667  0004FE                     u521:
  2668  0004FE  EF64  F002         	goto	l380
  2669  000502                     u520:
  2670  000502                     
  2671                           ;mcc_generated_files/pic18f_bootload.c: 456:      frame.data[0] = (uint8_t) (check_sum &
      +                           0x00FF);
  2672  000502  C02A  F069         	movff	_check_sum,_frame+9
  2673  000506                     
  2674                           ;mcc_generated_files/pic18f_bootload.c: 457:      frame.data[1] = (uint8_t)((check_sum &
      +                           0xFF00) >> 8);
  2675  000506  502B               	movf	(_check_sum+1)^0,w,c
  2676  000508  0100               	movlb	0	; () banked
  2677  00050A  6F6A               	movwf	(_frame+10)& (0+255),b
  2678                           
  2679                           ;mcc_generated_files/pic18f_bootload.c: 458:      return (11);
  2680  00050C  0E00               	movlw	0
  2681  00050E  6E03               	movwf	(?_Calc_Checksum+1)^0,c
  2682  000510  0E0B               	movlw	11
  2683  000512  6E02               	movwf	?_Calc_Checksum^0,c
  2684  000514                     
  2685                           ; BSR set to: 0
  2686  000514  0012               	return		;funcret
  2687  000516                     __end_of_Calc_Checksum:
  2688                           	callstack 0
  2689                           
  2690 ;; *************** function _EUSART2_Write *****************
  2691 ;; Defined at:
  2692 ;;		line 132 in file "mcc_generated_files/eusart2.c"
  2693 ;; Parameters:    Size  Location     Type
  2694 ;;  txData          1    wreg     unsigned char 
  2695 ;; Auto vars:     Size  Location     Type
  2696 ;;  txData          1    0[COMRAM] unsigned char 
  2697 ;; Return value:  Size  Location     Type
  2698 ;;                  1    wreg      void 
  2699 ;; Registers used:
  2700 ;;		wreg
  2701 ;; Tracked objects:
  2702 ;;		On entry : 0/0
  2703 ;;		On exit  : 0/0
  2704 ;;		Unchanged: 0/0
  2705 ;; Data sizes:     COMRAM   BANK0   BANK1   BANK2   BANK3   BANK4   BANK5   BANK6   BANK7   BANK8   BANK9  BANK10  BANK1
      +1  BANK12  BANK14
  2706 ;;      Params:         0       0       0       0       0       0       0       0       0       0       0       0       
      +0       0       0
  2707 ;;      Locals:         1       0       0       0       0       0       0       0       0       0       0       0       
      +0       0       0
  2708 ;;      Temps:          0       0       0       0       0       0       0       0       0       0       0       0       
      +0       0       0
  2709 ;;      Totals:         1       0       0       0       0       0       0       0       0       0       0       0       
      +0       0       0
  2710 ;;Total ram usage:        1 bytes
  2711 ;; Hardware stack levels used: 1
  2712 ;; This function calls:
  2713 ;;		Nothing
  2714 ;; This function is called by:
  2715 ;;		_Run_Bootloader
  2716 ;; This function uses a non-reentrant model
  2717 ;;
  2718                           
  2719                           	psect	text21
  2720  000884                     __ptext21:
  2721                           	callstack 0
  2722  000884                     _EUSART2_Write:
  2723                           	callstack 27
  2724                           
  2725                           ; BSR set to: 0
  2726                           ;incstack = 0
  2727                           ;EUSART2_Write@txData stored from wreg
  2728  000884  6E02               	movwf	EUSART2_Write@txData^0,c
  2729  000886                     l67:
  2730                           
  2731                           ;mcc_generated_files/eusart2.c: 134:     while(0 == PIR3bits.TX2IF)
  2732  000886  010E               	movlb	14	; () banked
  2733  000888  ADC8               	btfss	200,6,b	;volatile
  2734  00088A  EF49  F004         	goto	u151
  2735  00088E  EF4B  F004         	goto	u150
  2736  000892                     u151:
  2737  000892  EF43  F004         	goto	l67
  2738  000896                     u150:
  2739  000896                     
  2740                           ; BSR set to: 14
  2741                           ;mcc_generated_files/eusart2.c: 138:     TX2REG = txData;
  2742  000896  C002  FE95         	movff	EUSART2_Write@txData,3733	;volatile
  2743  00089A                     
  2744                           ; BSR set to: 14
  2745  00089A  0012               	return		;funcret
  2746  00089C                     __end_of_EUSART2_Write:
  2747                           	callstack 0
  2748                           
  2749 ;; *************** function _EUSART2_Read *****************
  2750 ;; Defined at:
  2751 ;;		line 113 in file "mcc_generated_files/eusart2.c"
  2752 ;; Parameters:    Size  Location     Type
  2753 ;;		None
  2754 ;; Auto vars:     Size  Location     Type
  2755 ;;		None
  2756 ;; Return value:  Size  Location     Type
  2757 ;;                  1    wreg      unsigned char 
  2758 ;; Registers used:
  2759 ;;		wreg, status,2
  2760 ;; Tracked objects:
  2761 ;;		On entry : 0/0
  2762 ;;		On exit  : 0/0
  2763 ;;		Unchanged: 0/0
  2764 ;; Data sizes:     COMRAM   BANK0   BANK1   BANK2   BANK3   BANK4   BANK5   BANK6   BANK7   BANK8   BANK9  BANK10  BANK1
      +1  BANK12  BANK14
  2765 ;;      Params:         0       0       0       0       0       0       0       0       0       0       0       0       
      +0       0       0
  2766 ;;      Locals:         0       0       0       0       0       0       0       0       0       0       0       0       
      +0       0       0
  2767 ;;      Temps:          0       0       0       0       0       0       0       0       0       0       0       0       
      +0       0       0
  2768 ;;      Totals:         0       0       0       0       0       0       0       0       0       0       0       0       
      +0       0       0
  2769 ;;Total ram usage:        0 bytes
  2770 ;; Hardware stack levels used: 1
  2771 ;; This function calls:
  2772 ;;		Nothing
  2773 ;; This function is called by:
  2774 ;;		_Run_Bootloader
  2775 ;; This function uses a non-reentrant model
  2776 ;;
  2777                           
  2778                           	psect	text22
  2779  000804                     __ptext22:
  2780                           	callstack 0
  2781  000804                     _EUSART2_Read:
  2782                           	callstack 27
  2783  000804                     l60:
  2784                           
  2785                           ;mcc_generated_files/eusart2.c: 115:     while(!PIR3bits.RC2IF)
  2786  000804  010E               	movlb	14	; () banked
  2787  000806  AFC8               	btfss	200,7,b	;volatile
  2788  000808  EF08  F004         	goto	u131
  2789  00080C  EF0A  F004         	goto	u130
  2790  000810                     u131:
  2791  000810  EF02  F004         	goto	l60
  2792  000814                     u130:
  2793  000814                     
  2794                           ; BSR set to: 14
  2795                           ;mcc_generated_files/eusart2.c: 119:     eusart2RxLastError.status = 0;
  2796  000814  0E00               	movlw	0
  2797  000816  6E2F               	movwf	_eusart2RxLastError^0,c	;volatile
  2798  000818                     
  2799                           ; BSR set to: 14
  2800                           ;mcc_generated_files/eusart2.c: 121:     if(1 == RC2STAbits.OERR)
  2801  000818  A398               	btfss	152,1,b	;volatile
  2802  00081A  EF11  F004         	goto	u141
  2803  00081E  EF13  F004         	goto	u140
  2804  000822                     u141:
  2805  000822  EF15  F004         	goto	l1334
  2806  000826                     u140:
  2807  000826                     
  2808                           ; BSR set to: 14
  2809                           ;mcc_generated_files/eusart2.c: 122:     {;mcc_generated_files/eusart2.c: 125:         R
      +                          C2STAbits.CREN = 0;
  2810  000826  9998               	bcf	152,4,b	;volatile
  2811                           
  2812                           ;mcc_generated_files/eusart2.c: 126:         RC2STAbits.CREN = 1;
  2813  000828  8998               	bsf	152,4,b	;volatile
  2814  00082A                     l1334:
  2815                           
  2816                           ; BSR set to: 14
  2817                           ;mcc_generated_files/eusart2.c: 129:     return RC2REG;
  2818  00082A  5194               	movf	148,w,b	;volatile
  2819  00082C                     
  2820                           ; BSR set to: 14
  2821  00082C  0012               	return		;funcret
  2822  00082E                     __end_of_EUSART2_Read:
  2823                           	callstack 0
  2824                           
  2825 ;; *************** function _Check_Device_Reset *****************
  2826 ;; Defined at:
  2827 ;;		line 498 in file "mcc_generated_files/pic18f_bootload.c"
  2828 ;; Parameters:    Size  Location     Type
  2829 ;;		None
  2830 ;; Auto vars:     Size  Location     Type
  2831 ;;		None
  2832 ;; Return value:  Size  Location     Type
  2833 ;;                  1    wreg      void 
  2834 ;; Registers used:
  2835 ;;		wreg, status,2, status,0
  2836 ;; Tracked objects:
  2837 ;;		On entry : 0/0
  2838 ;;		On exit  : 0/0
  2839 ;;		Unchanged: 0/0
  2840 ;; Data sizes:     COMRAM   BANK0   BANK1   BANK2   BANK3   BANK4   BANK5   BANK6   BANK7   BANK8   BANK9  BANK10  BANK1
      +1  BANK12  BANK14
  2841 ;;      Params:         0       0       0       0       0       0       0       0       0       0       0       0       
      +0       0       0
  2842 ;;      Locals:         0       0       0       0       0       0       0       0       0       0       0       0       
      +0       0       0
  2843 ;;      Temps:          0       0       0       0       0       0       0       0       0       0       0       0       
      +0       0       0
  2844 ;;      Totals:         0       0       0       0       0       0       0       0       0       0       0       0       
      +0       0       0
  2845 ;;Total ram usage:        0 bytes
  2846 ;; Hardware stack levels used: 1
  2847 ;; This function calls:
  2848 ;;		Nothing
  2849 ;; This function is called by:
  2850 ;;		_Run_Bootloader
  2851 ;; This function uses a non-reentrant model
  2852 ;;
  2853                           
  2854                           	psect	text23
  2855  0008B2                     __ptext23:
  2856                           	callstack 0
  2857  0008B2                     _Check_Device_Reset:
  2858                           	callstack 27
  2859  0008B2                     
  2860                           ;mcc_generated_files/pic18f_bootload.c: 500:     if (reset_pending == 1)
  2861  0008B2  042C               	decf	_reset_pending^0,w,c
  2862  0008B4  A4D8               	btfss	status,2,c
  2863  0008B6  EF5F  F004         	goto	u161
  2864  0008BA  EF61  F004         	goto	u160
  2865  0008BE                     u161:
  2866  0008BE  EF63  F004         	goto	l392
  2867  0008C2                     u160:
  2868  0008C2                     
  2869                           ;mcc_generated_files/pic18f_bootload.c: 501:     {;mcc_generated_files/pic18f_bootload.c
      +                          : 502:         LATAbits.LATA7 = 0;
  2870  0008C2  9E82               	bcf	130,7,c	;volatile
  2871  0008C4  00FF               	reset		;# 
  2872  0008C6                     l392:
  2873  0008C6  0012               	return		;funcret
  2874  0008C8                     __end_of_Check_Device_Reset:
  2875                           	callstack 0
  2876                           
  2877 ;; *************** function _Bootload_Required *****************
  2878 ;; Defined at:
  2879 ;;		line 155 in file "mcc_generated_files/pic18f_bootload.c"
  2880 ;; Parameters:    Size  Location     Type
  2881 ;;		None
  2882 ;; Auto vars:     Size  Location     Type
  2883 ;;  i               1    0[COMRAM] unsigned char 
  2884 ;; Return value:  Size  Location     Type
  2885 ;;                  1    wreg      _Bool 
  2886 ;; Registers used:
  2887 ;;		wreg, status,2, status,0
  2888 ;; Tracked objects:
  2889 ;;		On entry : 0/0
  2890 ;;		On exit  : 0/0
  2891 ;;		Unchanged: 0/0
  2892 ;; Data sizes:     COMRAM   BANK0   BANK1   BANK2   BANK3   BANK4   BANK5   BANK6   BANK7   BANK8   BANK9  BANK10  BANK1
      +1  BANK12  BANK14
  2893 ;;      Params:         0       0       0       0       0       0       0       0       0       0       0       0       
      +0       0       0
  2894 ;;      Locals:         1       0       0       0       0       0       0       0       0       0       0       0       
      +0       0       0
  2895 ;;      Temps:          0       0       0       0       0       0       0       0       0       0       0       0       
      +0       0       0
  2896 ;;      Totals:         1       0       0       0       0       0       0       0       0       0       0       0       
      +0       0       0
  2897 ;;Total ram usage:        1 bytes
  2898 ;; Hardware stack levels used: 1
  2899 ;; This function calls:
  2900 ;;		Nothing
  2901 ;; This function is called by:
  2902 ;;		_BOOTLOADER_Initialize
  2903 ;; This function uses a non-reentrant model
  2904 ;;
  2905                           
  2906                           	psect	text24
  2907  0006FE                     __ptext24:
  2908                           	callstack 0
  2909  0006FE                     _Bootload_Required:
  2910                           	callstack 28
  2911  0006FE                     
  2912                           ;mcc_generated_files/pic18f_bootload.c: 161:     for (uint8_t i = 0; i != 0xFF; i++) __n
      +                          op();
  2913  0006FE  0E00               	movlw	0
  2914  000700  6E02               	movwf	Bootload_Required@i^0,c
  2915  000702                     l325:
  2916  000702  F000               	nop	
  2917  000704  2A02               	incf	Bootload_Required@i^0,f,c
  2918  000706  2802               	incf	Bootload_Required@i^0,w,c
  2919  000708  A4D8               	btfss	status,2,c
  2920  00070A  EF89  F003         	goto	u261
  2921  00070E  EF8B  F003         	goto	u260
  2922  000712                     u261:
  2923  000712  EF81  F003         	goto	l325
  2924  000716                     u260:
  2925  000716                     
  2926                           ;mcc_generated_files/pic18f_bootload.c: 163:     if (PORTBbits.RB4 == 0)
  2927  000716  B88D               	btfsc	141,4,c	;volatile
  2928  000718  EF90  F003         	goto	u271
  2929  00071C  EF92  F003         	goto	u270
  2930  000720                     u271:
  2931  000720  EF95  F003         	goto	l1432
  2932  000724                     u270:
  2933  000724                     l1428:
  2934                           
  2935                           ;mcc_generated_files/pic18f_bootload.c: 164:     {;mcc_generated_files/pic18f_bootload.c
      +                          : 165:         return (1);
  2936  000724  0E01               	movlw	1
  2937  000726  EFA9  F003         	goto	l328
  2938  00072A                     l1432:
  2939                           
  2940                           ;mcc_generated_files/pic18f_bootload.c: 173:     TBLPTR = 0xa00;
  2941  00072A  0E00               	movlw	0
  2942  00072C  6EF6               	movwf	246,c	;volatile
  2943  00072E  0E0A               	movlw	10
  2944  000730  6EF7               	movwf	247,c	;volatile
  2945  000732  0E00               	movlw	0
  2946  000734  6EF8               	movwf	248,c	;volatile
  2947                           
  2948                           ;mcc_generated_files/pic18f_bootload.c: 177:     NVMCON1 = 0x80;
  2949  000736  0E80               	movlw	128
  2950  000738  6E80               	movwf	128,c	;volsfr
  2951  00073A  0009               	tblrd		*+	;# 
  2952  00073C                     
  2953                           ;mcc_generated_files/pic18f_bootload.c: 179:     if (TABLAT == 0xFF)
  2954  00073C  28F5               	incf	245,w,c	;volatile
  2955  00073E  A4D8               	btfss	status,2,c
  2956  000740  EFA4  F003         	goto	u281
  2957  000744  EFA6  F003         	goto	u280
  2958  000748                     u281:
  2959  000748  EFA8  F003         	goto	l1440
  2960  00074C                     u280:
  2961  00074C  EF92  F003         	goto	l1428
  2962  000750                     l1440:
  2963                           
  2964                           ;mcc_generated_files/pic18f_bootload.c: 183:  return (0);
  2965  000750  0E00               	movlw	0
  2966  000752                     l328:
  2967  000752  0012               	return		;funcret
  2968  000754                     __end_of_Bootload_Required:
  2969                           	callstack 0
  2970  0000                     
  2971                           	psect	rparam
  2972  0000                     
  2973                           	psect	idloc
  2974                           
  2975                           ;Config register IDLOC0 @ 0x200000
  2976                           ;	unspecified, using default values
  2977  200000                     	org	2097152
  2978  200000  FFFF               	dw	65535
  2979                           
  2980                           ;Config register IDLOC1 @ 0x200002
  2981                           ;	unspecified, using default values
  2982  200002                     	org	2097154
  2983  200002  FFFF               	dw	65535
  2984                           
  2985                           ;Config register IDLOC2 @ 0x200004
  2986                           ;	unspecified, using default values
  2987  200004                     	org	2097156
  2988  200004  FFFF               	dw	65535
  2989                           
  2990                           ;Config register IDLOC3 @ 0x200006
  2991                           ;	unspecified, using default values
  2992  200006                     	org	2097158
  2993  200006  FFFF               	dw	65535
  2994                           
  2995                           ;Config register IDLOC4 @ 0x200008
  2996                           ;	unspecified, using default values
  2997  200008                     	org	2097160
  2998  200008  FFFF               	dw	65535
  2999                           
  3000                           ;Config register IDLOC5 @ 0x20000A
  3001                           ;	unspecified, using default values
  3002  20000A                     	org	2097162
  3003  20000A  FFFF               	dw	65535
  3004                           
  3005                           ;Config register IDLOC6 @ 0x20000C
  3006                           ;	unspecified, using default values
  3007  20000C                     	org	2097164
  3008  20000C  FFFF               	dw	65535
  3009                           
  3010                           ;Config register IDLOC7 @ 0x20000E
  3011                           ;	unspecified, using default values
  3012  20000E                     	org	2097166
  3013  20000E  FFFF               	dw	65535
  3014                           
  3015                           ;Config register IDLOC8 @ 0x200010
  3016                           ;	unspecified, using default values
  3017  200010                     	org	2097168
  3018  200010  FFFF               	dw	65535
  3019                           
  3020                           ;Config register IDLOC9 @ 0x200012
  3021                           ;	unspecified, using default values
  3022  200012                     	org	2097170
  3023  200012  FFFF               	dw	65535
  3024                           
  3025                           ;Config register IDLOC10 @ 0x200014
  3026                           ;	unspecified, using default values
  3027  200014                     	org	2097172
  3028  200014  FFFF               	dw	65535
  3029                           
  3030                           ;Config register IDLOC11 @ 0x200016
  3031                           ;	unspecified, using default values
  3032  200016                     	org	2097174
  3033  200016  FFFF               	dw	65535
  3034                           
  3035                           ;Config register IDLOC12 @ 0x200018
  3036                           ;	unspecified, using default values
  3037  200018                     	org	2097176
  3038  200018  FFFF               	dw	65535
  3039                           
  3040                           ;Config register IDLOC13 @ 0x20001A
  3041                           ;	unspecified, using default values
  3042  20001A                     	org	2097178
  3043  20001A  FFFF               	dw	65535
  3044                           
  3045                           ;Config register IDLOC14 @ 0x20001C
  3046                           ;	unspecified, using default values
  3047  20001C                     	org	2097180
  3048  20001C  FFFF               	dw	65535
  3049                           
  3050                           ;Config register IDLOC15 @ 0x20001E
  3051                           ;	unspecified, using default values
  3052  20001E                     	org	2097182
  3053  20001E  FFFF               	dw	65535
  3054                           
  3055                           ;Config register IDLOC16 @ 0x200020
  3056                           ;	unspecified, using default values
  3057  200020                     	org	2097184
  3058  200020  FFFF               	dw	65535
  3059                           
  3060                           ;Config register IDLOC17 @ 0x200022
  3061                           ;	unspecified, using default values
  3062  200022                     	org	2097186
  3063  200022  FFFF               	dw	65535
  3064                           
  3065                           ;Config register IDLOC18 @ 0x200024
  3066                           ;	unspecified, using default values
  3067  200024                     	org	2097188
  3068  200024  FFFF               	dw	65535
  3069                           
  3070                           ;Config register IDLOC19 @ 0x200026
  3071                           ;	unspecified, using default values
  3072  200026                     	org	2097190
  3073  200026  FFFF               	dw	65535
  3074                           
  3075                           ;Config register IDLOC20 @ 0x200028
  3076                           ;	unspecified, using default values
  3077  200028                     	org	2097192
  3078  200028  FFFF               	dw	65535
  3079                           
  3080                           ;Config register IDLOC21 @ 0x20002A
  3081                           ;	unspecified, using default values
  3082  20002A                     	org	2097194
  3083  20002A  FFFF               	dw	65535
  3084                           
  3085                           ;Config register IDLOC22 @ 0x20002C
  3086                           ;	unspecified, using default values
  3087  20002C                     	org	2097196
  3088  20002C  FFFF               	dw	65535
  3089                           
  3090                           ;Config register IDLOC23 @ 0x20002E
  3091                           ;	unspecified, using default values
  3092  20002E                     	org	2097198
  3093  20002E  FFFF               	dw	65535
  3094                           
  3095                           ;Config register IDLOC24 @ 0x200030
  3096                           ;	unspecified, using default values
  3097  200030                     	org	2097200
  3098  200030  FFFF               	dw	65535
  3099                           
  3100                           ;Config register IDLOC25 @ 0x200032
  3101                           ;	unspecified, using default values
  3102  200032                     	org	2097202
  3103  200032  FFFF               	dw	65535
  3104                           
  3105                           ;Config register IDLOC26 @ 0x200034
  3106                           ;	unspecified, using default values
  3107  200034                     	org	2097204
  3108  200034  FFFF               	dw	65535
  3109                           
  3110                           ;Config register IDLOC27 @ 0x200036
  3111                           ;	unspecified, using default values
  3112  200036                     	org	2097206
  3113  200036  FFFF               	dw	65535
  3114                           
  3115                           ;Config register IDLOC28 @ 0x200038
  3116                           ;	unspecified, using default values
  3117  200038                     	org	2097208
  3118  200038  FFFF               	dw	65535
  3119                           
  3120                           ;Config register IDLOC29 @ 0x20003A
  3121                           ;	unspecified, using default values
  3122  20003A                     	org	2097210
  3123  20003A  FFFF               	dw	65535
  3124                           
  3125                           ;Config register IDLOC30 @ 0x20003C
  3126                           ;	unspecified, using default values
  3127  20003C                     	org	2097212
  3128  20003C  FFFF               	dw	65535
  3129                           
  3130                           ;Config register IDLOC31 @ 0x20003E
  3131                           ;	unspecified, using default values
  3132  20003E                     	org	2097214
  3133  20003E  FFFF               	dw	65535
  3134                           
  3135                           ;Config register IDLOC32 @ 0x200040
  3136                           ;	unspecified, using default values
  3137  200040                     	org	2097216
  3138  200040  FFFF               	dw	65535
  3139                           
  3140                           ;Config register IDLOC33 @ 0x200042
  3141                           ;	unspecified, using default values
  3142  200042                     	org	2097218
  3143  200042  FFFF               	dw	65535
  3144                           
  3145                           ;Config register IDLOC34 @ 0x200044
  3146                           ;	unspecified, using default values
  3147  200044                     	org	2097220
  3148  200044  FFFF               	dw	65535
  3149                           
  3150                           ;Config register IDLOC35 @ 0x200046
  3151                           ;	unspecified, using default values
  3152  200046                     	org	2097222
  3153  200046  FFFF               	dw	65535
  3154                           
  3155                           ;Config register IDLOC36 @ 0x200048
  3156                           ;	unspecified, using default values
  3157  200048                     	org	2097224
  3158  200048  FFFF               	dw	65535
  3159                           
  3160                           ;Config register IDLOC37 @ 0x20004A
  3161                           ;	unspecified, using default values
  3162  20004A                     	org	2097226
  3163  20004A  FFFF               	dw	65535
  3164                           
  3165                           ;Config register IDLOC38 @ 0x20004C
  3166                           ;	unspecified, using default values
  3167  20004C                     	org	2097228
  3168  20004C  FFFF               	dw	65535
  3169                           
  3170                           ;Config register IDLOC39 @ 0x20004E
  3171                           ;	unspecified, using default values
  3172  20004E                     	org	2097230
  3173  20004E  FFFF               	dw	65535
  3174                           
  3175                           ;Config register IDLOC40 @ 0x200050
  3176                           ;	unspecified, using default values
  3177  200050                     	org	2097232
  3178  200050  FFFF               	dw	65535
  3179                           
  3180                           ;Config register IDLOC41 @ 0x200052
  3181                           ;	unspecified, using default values
  3182  200052                     	org	2097234
  3183  200052  FFFF               	dw	65535
  3184                           
  3185                           ;Config register IDLOC42 @ 0x200054
  3186                           ;	unspecified, using default values
  3187  200054                     	org	2097236
  3188  200054  FFFF               	dw	65535
  3189                           
  3190                           ;Config register IDLOC43 @ 0x200056
  3191                           ;	unspecified, using default values
  3192  200056                     	org	2097238
  3193  200056  FFFF               	dw	65535
  3194                           
  3195                           ;Config register IDLOC44 @ 0x200058
  3196                           ;	unspecified, using default values
  3197  200058                     	org	2097240
  3198  200058  FFFF               	dw	65535
  3199                           
  3200                           ;Config register IDLOC45 @ 0x20005A
  3201                           ;	unspecified, using default values
  3202  20005A                     	org	2097242
  3203  20005A  FFFF               	dw	65535
  3204                           
  3205                           ;Config register IDLOC46 @ 0x20005C
  3206                           ;	unspecified, using default values
  3207  20005C                     	org	2097244
  3208  20005C  FFFF               	dw	65535
  3209                           
  3210                           ;Config register IDLOC47 @ 0x20005E
  3211                           ;	unspecified, using default values
  3212  20005E                     	org	2097246
  3213  20005E  FFFF               	dw	65535
  3214                           
  3215                           ;Config register IDLOC48 @ 0x200060
  3216                           ;	unspecified, using default values
  3217  200060                     	org	2097248
  3218  200060  FFFF               	dw	65535
  3219                           
  3220                           ;Config register IDLOC49 @ 0x200062
  3221                           ;	unspecified, using default values
  3222  200062                     	org	2097250
  3223  200062  FFFF               	dw	65535
  3224                           
  3225                           ;Config register IDLOC50 @ 0x200064
  3226                           ;	unspecified, using default values
  3227  200064                     	org	2097252
  3228  200064  FFFF               	dw	65535
  3229                           
  3230                           ;Config register IDLOC51 @ 0x200066
  3231                           ;	unspecified, using default values
  3232  200066                     	org	2097254
  3233  200066  FFFF               	dw	65535
  3234                           
  3235                           ;Config register IDLOC52 @ 0x200068
  3236                           ;	unspecified, using default values
  3237  200068                     	org	2097256
  3238  200068  FFFF               	dw	65535
  3239                           
  3240                           ;Config register IDLOC53 @ 0x20006A
  3241                           ;	unspecified, using default values
  3242  20006A                     	org	2097258
  3243  20006A  FFFF               	dw	65535
  3244                           
  3245                           ;Config register IDLOC54 @ 0x20006C
  3246                           ;	unspecified, using default values
  3247  20006C                     	org	2097260
  3248  20006C  FFFF               	dw	65535
  3249                           
  3250                           ;Config register IDLOC55 @ 0x20006E
  3251                           ;	unspecified, using default values
  3252  20006E                     	org	2097262
  3253  20006E  FFFF               	dw	65535
  3254                           
  3255                           ;Config register IDLOC56 @ 0x200070
  3256                           ;	unspecified, using default values
  3257  200070                     	org	2097264
  3258  200070  FFFF               	dw	65535
  3259                           
  3260                           ;Config register IDLOC57 @ 0x200072
  3261                           ;	unspecified, using default values
  3262  200072                     	org	2097266
  3263  200072  FFFF               	dw	65535
  3264                           
  3265                           ;Config register IDLOC58 @ 0x200074
  3266                           ;	unspecified, using default values
  3267  200074                     	org	2097268
  3268  200074  FFFF               	dw	65535
  3269                           
  3270                           ;Config register IDLOC59 @ 0x200076
  3271                           ;	unspecified, using default values
  3272  200076                     	org	2097270
  3273  200076  FFFF               	dw	65535
  3274                           
  3275                           ;Config register IDLOC60 @ 0x200078
  3276                           ;	unspecified, using default values
  3277  200078                     	org	2097272
  3278  200078  FFFF               	dw	65535
  3279                           
  3280                           ;Config register IDLOC61 @ 0x20007A
  3281                           ;	unspecified, using default values
  3282  20007A                     	org	2097274
  3283  20007A  FFFF               	dw	65535
  3284                           
  3285                           ;Config register IDLOC62 @ 0x20007C
  3286                           ;	unspecified, using default values
  3287  20007C                     	org	2097276
  3288  20007C  FFFF               	dw	65535
  3289                           
  3290                           ;Config register IDLOC63 @ 0x20007E
  3291                           ;	unspecified, using default values
  3292  20007E                     	org	2097278
  3293  20007E  FFFF               	dw	65535
  3294                           
  3295                           ;Config register IDLOC64 @ 0x200080
  3296                           ;	unspecified, using default values
  3297  200080                     	org	2097280
  3298  200080  FFFF               	dw	65535
  3299                           
  3300                           ;Config register IDLOC65 @ 0x200082
  3301                           ;	unspecified, using default values
  3302  200082                     	org	2097282
  3303  200082  FFFF               	dw	65535
  3304                           
  3305                           ;Config register IDLOC66 @ 0x200084
  3306                           ;	unspecified, using default values
  3307  200084                     	org	2097284
  3308  200084  FFFF               	dw	65535
  3309                           
  3310                           ;Config register IDLOC67 @ 0x200086
  3311                           ;	unspecified, using default values
  3312  200086                     	org	2097286
  3313  200086  FFFF               	dw	65535
  3314                           
  3315                           ;Config register IDLOC68 @ 0x200088
  3316                           ;	unspecified, using default values
  3317  200088                     	org	2097288
  3318  200088  FFFF               	dw	65535
  3319                           
  3320                           ;Config register IDLOC69 @ 0x20008A
  3321                           ;	unspecified, using default values
  3322  20008A                     	org	2097290
  3323  20008A  FFFF               	dw	65535
  3324                           
  3325                           ;Config register IDLOC70 @ 0x20008C
  3326                           ;	unspecified, using default values
  3327  20008C                     	org	2097292
  3328  20008C  FFFF               	dw	65535
  3329                           
  3330                           ;Config register IDLOC71 @ 0x20008E
  3331                           ;	unspecified, using default values
  3332  20008E                     	org	2097294
  3333  20008E  FFFF               	dw	65535
  3334                           
  3335                           ;Config register IDLOC72 @ 0x200090
  3336                           ;	unspecified, using default values
  3337  200090                     	org	2097296
  3338  200090  FFFF               	dw	65535
  3339                           
  3340                           ;Config register IDLOC73 @ 0x200092
  3341                           ;	unspecified, using default values
  3342  200092                     	org	2097298
  3343  200092  FFFF               	dw	65535
  3344                           
  3345                           ;Config register IDLOC74 @ 0x200094
  3346                           ;	unspecified, using default values
  3347  200094                     	org	2097300
  3348  200094  FFFF               	dw	65535
  3349                           
  3350                           ;Config register IDLOC75 @ 0x200096
  3351                           ;	unspecified, using default values
  3352  200096                     	org	2097302
  3353  200096  FFFF               	dw	65535
  3354                           
  3355                           ;Config register IDLOC76 @ 0x200098
  3356                           ;	unspecified, using default values
  3357  200098                     	org	2097304
  3358  200098  FFFF               	dw	65535
  3359                           
  3360                           ;Config register IDLOC77 @ 0x20009A
  3361                           ;	unspecified, using default values
  3362  20009A                     	org	2097306
  3363  20009A  FFFF               	dw	65535
  3364                           
  3365                           ;Config register IDLOC78 @ 0x20009C
  3366                           ;	unspecified, using default values
  3367  20009C                     	org	2097308
  3368  20009C  FFFF               	dw	65535
  3369                           
  3370                           ;Config register IDLOC79 @ 0x20009E
  3371                           ;	unspecified, using default values
  3372  20009E                     	org	2097310
  3373  20009E  FFFF               	dw	65535
  3374                           
  3375                           ;Config register IDLOC80 @ 0x2000A0
  3376                           ;	unspecified, using default values
  3377  2000A0                     	org	2097312
  3378  2000A0  FFFF               	dw	65535
  3379                           
  3380                           ;Config register IDLOC81 @ 0x2000A2
  3381                           ;	unspecified, using default values
  3382  2000A2                     	org	2097314
  3383  2000A2  FFFF               	dw	65535
  3384                           
  3385                           ;Config register IDLOC82 @ 0x2000A4
  3386                           ;	unspecified, using default values
  3387  2000A4                     	org	2097316
  3388  2000A4  FFFF               	dw	65535
  3389                           
  3390                           ;Config register IDLOC83 @ 0x2000A6
  3391                           ;	unspecified, using default values
  3392  2000A6                     	org	2097318
  3393  2000A6  FFFF               	dw	65535
  3394                           
  3395                           ;Config register IDLOC84 @ 0x2000A8
  3396                           ;	unspecified, using default values
  3397  2000A8                     	org	2097320
  3398  2000A8  FFFF               	dw	65535
  3399                           
  3400                           ;Config register IDLOC85 @ 0x2000AA
  3401                           ;	unspecified, using default values
  3402  2000AA                     	org	2097322
  3403  2000AA  FFFF               	dw	65535
  3404                           
  3405                           ;Config register IDLOC86 @ 0x2000AC
  3406                           ;	unspecified, using default values
  3407  2000AC                     	org	2097324
  3408  2000AC  FFFF               	dw	65535
  3409                           
  3410                           ;Config register IDLOC87 @ 0x2000AE
  3411                           ;	unspecified, using default values
  3412  2000AE                     	org	2097326
  3413  2000AE  FFFF               	dw	65535
  3414                           
  3415                           ;Config register IDLOC88 @ 0x2000B0
  3416                           ;	unspecified, using default values
  3417  2000B0                     	org	2097328
  3418  2000B0  FFFF               	dw	65535
  3419                           
  3420                           ;Config register IDLOC89 @ 0x2000B2
  3421                           ;	unspecified, using default values
  3422  2000B2                     	org	2097330
  3423  2000B2  FFFF               	dw	65535
  3424                           
  3425                           ;Config register IDLOC90 @ 0x2000B4
  3426                           ;	unspecified, using default values
  3427  2000B4                     	org	2097332
  3428  2000B4  FFFF               	dw	65535
  3429                           
  3430                           ;Config register IDLOC91 @ 0x2000B6
  3431                           ;	unspecified, using default values
  3432  2000B6                     	org	2097334
  3433  2000B6  FFFF               	dw	65535
  3434                           
  3435                           ;Config register IDLOC92 @ 0x2000B8
  3436                           ;	unspecified, using default values
  3437  2000B8                     	org	2097336
  3438  2000B8  FFFF               	dw	65535
  3439                           
  3440                           ;Config register IDLOC93 @ 0x2000BA
  3441                           ;	unspecified, using default values
  3442  2000BA                     	org	2097338
  3443  2000BA  FFFF               	dw	65535
  3444                           
  3445                           ;Config register IDLOC94 @ 0x2000BC
  3446                           ;	unspecified, using default values
  3447  2000BC                     	org	2097340
  3448  2000BC  FFFF               	dw	65535
  3449                           
  3450                           ;Config register IDLOC95 @ 0x2000BE
  3451                           ;	unspecified, using default values
  3452  2000BE                     	org	2097342
  3453  2000BE  FFFF               	dw	65535
  3454                           
  3455                           ;Config register IDLOC96 @ 0x2000C0
  3456                           ;	unspecified, using default values
  3457  2000C0                     	org	2097344
  3458  2000C0  FFFF               	dw	65535
  3459                           
  3460                           ;Config register IDLOC97 @ 0x2000C2
  3461                           ;	unspecified, using default values
  3462  2000C2                     	org	2097346
  3463  2000C2  FFFF               	dw	65535
  3464                           
  3465                           ;Config register IDLOC98 @ 0x2000C4
  3466                           ;	unspecified, using default values
  3467  2000C4                     	org	2097348
  3468  2000C4  FFFF               	dw	65535
