:0400000081EF00F09C
:1000080040004000400040004000400040004000E8
:1000180040004000400040004000400040004000D8
:1000280040004000400040004000400040004000C8
:1000380040004000400040004000400040004000B8
:1000480040004000400040004000400040004000A8
:100058004000400040004000400040004000400098
:100068004000400040004000400040004000400088
:100078004000400040004000400040004000400078
:100088004000400040004000400040004000400068
:100098004000400040004000400040004000400058
:1000A8004000400040004000400040004000400048
:1000B8004000400040004000400040004000400038
:1000C8004000400040004000400040004000400028
:1000D8004000400040004000400040004000400018
:1000E8004000400040004000400040004000400008
:1000F8000503400040004000FF0076EF05F068006F
:10010800F4FF09F509C50AF50B6A0C6A0D6A0CC5F6
:100118000DF50BC50CF50AC50BF50A6A6800F8FF62
:100128000EF50EC50FF5106A116A126A10C512F5A0
:100138000FC511F5106A0F6A0A500F24136E0B5081
:100148001020146E0C501120156E0D501220166ED2
:100158006800F0FF17F517501324186E000E1420CE
:10016800196E000E15201A6E000E16201B6E1B50FD
:100178001A1007E10D0E195CD8B0C5EF00F0C7EFF3
:1001880000F0D1EF00F0FE0E6100A2F300F4000EC3
:10019800086E0A0E076E2FEF01F018C502F519C593
:1001A80003F51AC504F51BC505F54EEC05F0000E60
:1001B8001D6E000E1C6EFCEF00F0000E1C24D96EA4
:1001C800240E1D20DA6E000E096E250E0A6E6800D8
:1001D800F0FF0BF50B500926000E0A221C500924CB
:1001E800E16E1D500A20E26EDFC4E7F41C4A1D2AA6
:1001F80028EEF8F3DE501C5CDE501D58D8A007EF3F
:1002080001F009EF01F0E1EF00F06800F8FF45F0B8
:100218006800F4FF44F06800F0FF43F0000141512A
:10022800F80B0509416FD69EEAEC05F00001408104
:1002380040B121EF01F023EF01F01CEF01F0010EB6
:100248006100A2F300F4000E006E000E016E000EB5
:10025800086E0A0E076E12000201B2AF36EF01F007
:1002680038EF01F030EF01F0E0EC05F00201AB8D62
:1002780048EF01F0B2AB43EF01F045EF01F048EF72
:1002880001F0AB9DB29BAB8DABBD4DEF01F04FEFD5
:1002980001F03EEF01F0000E286E000E276E000EF2
:1002A800266E090E256E98EF01F048EC04F0246ED6
:1002B800F70E2724D96E230E2820DA6E610090F4F9
:1002C800DFF4274A282A040E27182810D8A46FEF2D
:1002D80001F071EF01F098EF01F06800DCFFE8F43D
:1002E800020AD8B47AEF01F07CEF01F092EF01F046
:1002F8006800DCFFE8F4050AD8B485EF01F087EF61
:1003080001F092EF01F06800DCFFE8F4070AD8A4D6
:1003180090EF01F092EF01F098EF01F028EEF8F37A
:10032800DE502526DD5026222550275C26502858E9
:10033800D8A0A1EF01F0A3EF01F059EF01F060ECB4
:1003480002F01EC525F51FC526F5550EC9EC05F0AA
:10035800000E286E000E276EBDEF01F0F70E272461
:10036800D96E230E2820DA6EDF50C9EC05F0274A33
:10037800282A2550275C26502858D8A0C6EF01F017
:10038800C8EF01F0B2EF01F030EF01F012006800A1
:10039800F0FFF6F46800F4FFF7F46800F8FFF8F4EB
:1003A8006800F4FF04F504C505F5066A076A086ADB
:1003B80007C508F506C507F505C506F5056A680009
:1003C800F8FF09F509C50AF50B6A0C6A0D6A0BC531
:1003D8000DF50AC50CF50B6A0A6A05500A240E6E5B
:1003E80006500B200F6E07500C20106E08500D2081
:1003F800116E6800F0FF12F512500E24136E000EF5
:100408000F20146E000E1020156E000E1120166EAF
:10041800000ED6BE010E196ED69E000E186E000E86
:10042800176E3AEF02F0000E13141A6EFF0E141432
:100438001B6E010E15141C6E000E16141D6E610045
:1004480070F445F061006CF444F000014151F80B80
:100458000609416FEAEC05F0000E1326010E14227E
:10046800000E1522000E1622174A182A28EEF8F355
:10047800DE50175CDE501858D8A045EF02F047EF61
:1004880002F017EF02F019B002D0D69E01D0D68E36
:10049800F80E00014117010E6100A2F300F4000EEE
:1004A8006100A2F3FAF3000E6100A2F3FBF3000E61
:1004B800036E0A0E026E12006800E8FF00F568007D
:1004C800ECFF01F5AEEF02F04DEC03F002C522F5AA
:1004D80003C523F5D9EF02F083EC00F007C522F538
:1004E80008C523F5D9EF02F0CBEC01F002C522F5DF
:1004F80003C523F5D9EF02F0E1EC04F002C522F5BB
:1005080003C523F5D9EF02F095EC04F002C522F5F6
:1005180003C523F5D9EF02F0DEEC02F002C522F59F
:1005280003C523F5D9EF02F0010E6100A2F300F430
:10053800010E2D6E000E236E0A0E226ED9EF02F008
:10054800FF0E6100A2F300F4000E236E0A0E226E65
:10055800D9EF02F028EEF7F3DF50206E216A215020
:10056800000AD8B4BAEF02F0A4EF02F02050000A53
:10057800D8B468EF02F0020AD8B470EF02F0010AAA
:10058800D8B478EF02F0050AD8B480EF02F0010A77
:10059800D8B488EF02F00F0AD8B490EF02F0010A3D
:1005A800D8B498EF02F0A4EF02F022C51EF523C5D7
:1005B8001FF512006800F0FFF6F46800F4FFF7F486
:1005C8006800F8FFF8F4800E0001416F000E2C6EF1
:1005D800000E2B6E28EEF8F3610078F304F5610045
:1005E80074F305F504C50DF505C50EF50F6A106A17
:1005F8006800E8FF04F504C505F5066A076A086A95
:1006080006C508F505C507F5066A056A05500D26ED
:1006180006500E2207500F2208501022000E096EB5
:10062800000E0A6E000E0B6E000E0C6E2AEF03F021
:100638000900F5502B26000E2C220900F5502C2617
:10064800020E0926000E0A220B220C220D50095C0C
:100658000E500A580F500B5810500C58D8A037EFAE
:1006680003F039EF03F01CEF03F029EE00F061000E
:10067800ACF4DFF42BC504F52CC505F505C504F568
:10068800056A610012F401F4000E036E0B0E026E8F
:100698001200010E6100A2F300F4010E6100A2F342
:1006A80001F4000E6100A2F302F4010E6100A2F34E
:1006B80003F4000E6100A2F304F4000E6100A2F33B
:1006C80005F43F0EF86EF768FE0EF66EC00E0001D8
:1006D800416F090029EE06F0F5C4DFF4090029EEA0
:1006E80007F0F5C4DFF4000E6100A2F308F4000E71
:1006F8006100A2F309F4800E6100A2F30AF4800EEF
:100708006100A2F30BF4300EF86E000EF76E000EC7
:10071800F66E0C0E046E0900000E0424D96EDA6A17
:10072800240EDA22F5C4DFF4042A0F0E04649FEFC6
:1007380003F0A1EF03F08FEF03F0000E036E190E24
:10074800026E1200000EC26E000EC16E000EBE6E6A
:10075800010EC36E000EBF6E000EC06E070ECA6E8D
:10076800FE0ECB6EC668C768C868C96804011869F8
:100778001069EF0E086F070E206FFC0E286F0069D6
:10078800000E196F000E296F000E216F100E096FF1
:10079800000E016F000E116F000E0201896F000E2E
:1007A800886F000E876F000E866F000E0401226F9F
:1007B800000E2A6F000E026F000E0A6F000E126FF5
:1007C800000E1A6F03690B6913691B69070E236F03
:1007D8002B6904690C6914691C690F0E246F2C6954
:1007E800200E0201296F290E726F1200000E136E7F
:1007F80000F0132A1328D8A404EF04F006EF04F03D
:10080800FCEF03F0CFB80BEF04F00DEF04F010EF9E
:1008180004F0010E47EF04F0000E6100A2F3FCF3B0
:100828000D0E6100A2F3FDF3000E6100A2F3FEF3CA
:10083800FE0E6100A2F3F8F3F20E6100A2F3F9F3E1
:10084800010E6100A2F3FAF3DEEC02F0FE0EF66E82
:10085800FF0EF76E010EF86E09006100D4F311F572
:10086800126A0900F55012262B50111809E12C5074
:100878001218D8B442EF04F044EF04F046EF04F045
:100888000DEF04F0000E1200B2A04DEF04F04FEF90
:1008980004F048EF04F0000E306E0201B2A757EFE3
:1008A80004F059EF04F067EF04F0308202D867EFE4
:1008B80004F00500FA6E3550FD6E3650FE6EF850A5
:1008C800FF6EFA5012000201B2A36DEF04F06FEF51
:1008D80004F07DEF04F0308402D87DEF04F00500C9
:1008E800FA6E3350FD6E3450FE6EF850FF6EFA50BB
:1008F80012003050D8B483EF04F085EF04F092EF83
:1009080004F002D892EF04F00500FA6E3150FD6E43
:100918003250FE6EF850FF6EFA5012000201A151DB
:1009280012006800F0FFF6F46800F4FFF7F46800BE
:10093800F8FFF8F4100EF65C000EF758200EF85881
:10094800D8A0A9EF04F0ABEF04F0B0EF04F0C40EA8
:100958000001416FB3EF04F0840E0001416F000EF7
:10096800086EC4EF04F0000E0824D96EDA6A240E6B
:10097800DA22DF50F56E0C00EAEC05F0F62A082AB8
:1009880028EEF8F30850066E076ADE50065CDE5063
:100998000758D8A0D2EF04F0D4EF04F0B7EF04F072
:1009A800010E6100A2F300F4000E006E000E016E4D
:1009B800000E036E0A0E026E12006800F0FFF6F4D5
:1009C8006800F4FFF7F46800F8FFF8F4C00E0001BF
:1009D800416F000E086EFBEF04F00900000E0824BA
:1009E800D96EDA6A240EDA22F5C4DFF4082A28EE72
:1009F800F8F30850066E076ADE50065CDE500758AA
:100A0800D8A009EF05F00BEF05F0F1EF04F028EEA0
:100A1800F8F3610078F304F5610074F305F5090E45
:100A28000424026E000E0520036E1200000E02015F
:100A3800A56F000EA66F000EA76F000EA86F000E20
:100A4800A96F000EAA6FB00EAB6F800EAC6F000ED0
:100A5800AD6F820EAE6F060EAF6F000EB06F000E58
:100A6800B16F000EB26F000EB36F1A0E026E0C0E4D
:100A7800036EFFEC05F0180E026E0C0E036EFAEC16
:100A880005F01C0E026E0C0E036E04EC06F0000E50
:100A9800306E1200000ED6BE010E066E610010F414
:100AA80045F061000CF444F0610008F443F00001E3
:100AB8004151F80B0209416FD69E550E426FAA0E9E
:100AC800426F408140B16BEF05F06DEF05F066EFC6
:100AD80005F006B002D0D69E01D0D68EF80E0001E1
:100AE8004117120008EEF7F310EE09F1EE6AE5502F
:100AF800E150FCE1E250FAE101EE29F1080EEE6A5C
:100B0800E806FDE10401080E5D6F000E5E6F000E41
:100B18005F6F000EF86E0001F4EF05F0000E006E36
:100B2800000E016EFAEC03F0E806D8A49EEF05F07B
:100B3800A0EF05F0A2EF05F030EC01F0000EFC6E1E
:100B4800000EE06E80EF06F01200000E0001606FEC
:100B5800000E616F000E636F000E646F000E656F0C
:100B6800000E666F000E676F000E686F1200600E51
:100B78000001AD6F000EAF6F000EB36F080EB16FBE
:100B8800000EB06F000EAC6F1200026EB2A2CFEF73
:100B980005F0D1EF05F0CAEF05F0610008F4A3F203
:100BA8001200A9EC05F0A6EC03F0BBEC05F01AEC7A
:100BB80005F092EC05F012002D04D8A4E6EF05F03C
:100BC800E8EF05F0E9EF05F0FF0012000001005022
:0E0BD800426F0150426F408100F000F01200A9
:100BE800D5EC05F0F6EF05F081EF00F002C533F51E
:100BF80003C534F5120002C535F503C536F51200F4
:0A0C080002C531F503C532F51200F4
:0A0C1400BD90110012001200120042
:020000040020DA
:10000000FF0FFF0FFF0FFF0FFF0FFF0FFF0FFF0F80
:10001000FF0FFF0FFF0FFF0FFF0FFF0FFF0FFF0F70
:020000040030CA
:0A0000008CFFEFFF9FFFFFFFFFFFE3
:00000001FF
