

Microchip MPLAB XC8 Assembler V2.32 build 20210201212658 
                                                                                               Mon Aug 23 09:49:46 2021

Microchip MPLAB XC8 C Compiler v2.32 (Free license) build 20210201212658 Og1 
     1                           	processor	18F57Q43
     2                           	fnconf	rparam,??,?,0
     3                           	pagewidth 120
     4                           	opt	flic
     5                           	psect	text0,global,reloc=4,class=CODE,delta=1
     6                           	psect	nvCOMRAM,global,class=COMRAM,space=1,delta=1,lowdata,noexec
     7                           	psect	cinit,global,reloc=2,class=CODE,delta=1
     8                           	psect	bssCOMRAM,global,class=COMRAM,space=1,delta=1,lowdata,noexec
     9                           	psect	bssBIGRAMl,global,class=BIGRAM,space=1,delta=1,noexec
    10                           	psect	cstackCOMRAM,global,class=COMRAM,space=1,delta=1,lowdata,noexec
    11                           	psect	text1,global,reloc=2,class=CODE,delta=1
    12                           	psect	text2,global,reloc=2,class=CODE,delta=1
    13                           	psect	text3,global,reloc=2,class=CODE,delta=1
    14                           	psect	text4,global,reloc=2,class=CODE,delta=1
    15                           	psect	text5,global,reloc=2,class=CODE,delta=1
    16                           	psect	text6,global,reloc=2,class=CODE,delta=1
    17                           	psect	text7,global,reloc=2,class=CODE,delta=1
    18                           	psect	text8,global,reloc=2,class=CODE,delta=1
    19                           	psect	text9,global,reloc=2,class=CODE,delta=1
    20                           	psect	text10,global,reloc=2,class=CODE,delta=1
    21                           	psect	text11,global,reloc=2,class=CODE,delta=1
    22                           	psect	text12,global,reloc=2,class=CODE,delta=1
    23                           	psect	text13,global,reloc=2,class=CODE,delta=1
    24                           	psect	text14,global,reloc=2,class=CODE,delta=1
    25                           	psect	text15,global,reloc=2,class=CODE,delta=1
    26                           	psect	text16,global,reloc=2,class=CODE,delta=1
    27                           	psect	text17,global,reloc=2,class=CODE,delta=1
    28                           	psect	text18,global,reloc=2,class=CODE,delta=1
    29                           	psect	text19,global,reloc=2,class=CODE,delta=1
    30                           	psect	text20,global,reloc=2,class=CODE,delta=1
    31                           	psect	text21,global,reloc=2,class=CODE,delta=1
    32                           	psect	text22,global,reloc=2,class=CODE,delta=1
    33                           	psect	text23,global,reloc=2,class=CODE,delta=1
    34                           	psect	text24,global,reloc=2,class=CODE,delta=1
    35                           	psect	text25,global,reloc=2,class=CODE,delta=1
    36                           	psect	text26,global,reloc=2,class=CODE,delta=1
    37                           	psect	text27,global,reloc=4,class=CODE,delta=1
    38                           	psect	ivt0x8,global,reloc=2,class=CODE,delta=1,noexec,keep,optim=
    39                           	psect	intsave_regs,global,class=BIGRAM,space=1,delta=1,noexec
    40                           	psect	text28,global,reloc=4,class=CODE,delta=1
    41                           	psect	rparam,global,class=COMRAM,space=1,delta=1,noexec
    42                           	psect	idloc,global,abs,ovrld,class=IDLOC,space=5,delta=1,noexec
    43                           	psect	config,global,abs,ovrld,class=CONFIG,space=4,delta=1,noexec
    44                           	dabs	1,0x2500,256,_PFM_Buffer
    45                           	dabs	1,0x501,1,_EE_Key_2
    46                           	dabs	1,0x2500,2,_bufferRAM
    47  0000                     
    48                           ; Version 2.35
    49                           ; Generated 04/06/2021 GMT
    50                           ; 
    51                           ; Copyright © 2021, Microchip Technology Inc. and its subsidiaries ("Microchip")
    52                           ; All rights reserved.
    53                           ; 
    54                           ; This software is developed by Microchip Technology Inc. and its subsidiaries ("Microch
      +                          ip").
    55                           ; 
    56                           ; Redistribution and use in source and binary forms, with or without modification, are
    57                           ; permitted provided that the following conditions are met:
    58                           ; 
    59                           ;     1. Redistributions of source code must retain the above copyright notice, this lis
      +                          t of
    60                           ;        conditions and the following disclaimer.
    61                           ; 
    62                           ;     2. Redistributions in binary form must reproduce the above copyright notice, this 
      +                          list
    63                           ;        of conditions and the following disclaimer in the documentation and/or other
    64                           ;        materials provided with the distribution. Publication is not required when
    65                           ;        this file is used in an embedded application.
    66                           ; 
    67                           ;     3. Microchip's name may not be used to endorse or promote products derived from th
      +                          is
    68                           ;        software without specific prior written permission.
    69                           ; 
    70                           ; THIS SOFTWARE IS PROVIDED BY MICROCHIP "AS IS" AND ANY EXPRESS OR IMPLIED WARRANTIES,
    71                           ; INCLUDING, BUT NOT LIMITED TO, THE IMPLIED WARRANTIES OF MERCHANTABILITY AND FITNESS F
      +                          OR
    72                           ; PURPOSE ARE DISCLAIMED.  IN NO EVENT SHALL MICROCHIP BE LIABLE FOR ANY DIRECT, INDIREC
      +                          T,
    73                           ; INCIDENTAL, SPECIAL, EXEMPLARY, OR CONSEQUENTIAL DAMAGES (INCLUDING BUT NOT LIMITED TO
    74                           ; PROCUREMENT OF SUBSTITUTE GOODS OR SERVICES; LOSS OF USE, DATA OR PROFITS; OR BUSINESS
    75                           ; INTERRUPTION) HOWSOEVER CAUSED AND ON ANY THEORY OF LIABILITY, WHETHER IN CONTRACT, ST
      +                          RICT
    76                           ; LIABILITY, OR TORT (INCLUDING NEGLIGENCE OR OTHERWISE) ARISING IN ANY WAY OUT OF THE U
      +                          SE OF
    77                           ; THIS SOFTWARE, EVEN IF ADVISED OF THE POSSIBILITY OF SUCH DAMAGE.
    78                           ; 
    79                           ; 
    80                           ; Code-generator required, PIC18F57Q43 Definitions
    81                           ; 
    82                           ; SFR Addresses
    83  0000                     
    84                           ; 1 bytes @ 0x27
    85 ;;
    86 ;;Main: autosize = 0, tempsize = 0, incstack = 0, save=0
    87 ;;
    88 ;; *************** function _main *****************
    89 ;; Defined at:
    90 ;;		line 49 in file "main.c"
    91 ;; Parameters:    Size  Location     Type
    92 ;;		None
    93 ;; Auto vars:     Size  Location     Type
    94 ;;		None
    95 ;; Return value:  Size  Location     Type
    96 ;;                  1    wreg      void 
    97 ;; Registers used:
    98 ;;		wreg, fsr1l, fsr1h, fsr2l, fsr2h, status,2, status,0, pclath, tosl, cstack
    99 ;; Tracked objects:
   100 ;;		On entry : 0/0
   101 ;;		On exit  : 0/0
   102 ;;		Unchanged: 0/0
   103 ;; Data sizes:     COMRAM   BANK5   BANK6   BANK7   BANK8   BANK9  BANK10  BANK11  BANK12  BANK13  BANK14  BANK15  BANK1
      +6  BANK17  BANK18  BANK19  BANK20  BANK21  BANK22  BANK23  BANK24  BANK25  BANK26  BANK27  BANK28  BANK29  BANK30  BANK3
      +1  BANK32  BANK33  BANK34  BANK35  BANK36
   104 ;;      Params:         0       0       0       0       0       0       0       0       0       0       0       0       
      +0       0       0       0       0       0       0       0       0       0       0       0       0       0       0       
      +0       0       0       0       0       0
   105 ;;      Locals:         0       0       0       0       0       0       0       0       0       0       0       0       
      +0       0       0       0       0       0       0       0       0       0       0       0       0       0       0       
      +0       0       0       0       0       0
   106 ;;      Temps:          0       0       0       0       0       0       0       0       0       0       0       0       
      +0       0       0       0       0       0       0       0       0       0       0       0       0       0       0       
      +0       0       0       0       0       0
   107 ;;      Totals:         0       0       0       0       0       0       0       0       0       0       0       0       
      +0       0       0       0       0       0       0       0       0       0       0       0       0       0       0       
      +0       0       0       0       0       0
   108 ;;Total ram usage:        0 bytes
   109 ;; Hardware stack levels required when called: 7
   110 ;; This function calls:
   111 ;;		_SYSTEM_Initialize
   112 ;; This function is called by:
   113 ;;		Startup code after reset
   114 ;; This function uses a non-reentrant model
   115 ;;
   116                           
   117                           	psect	text0
   118  000BE8                     __ptext0:
   119                           	callstack 0
   120  000BE8                     _main:
   121                           	callstack 120
   122  000BE8                     
   123                           ;main.c: 52:     SYSTEM_Initialize();
   124  000BE8  ECD5  F005         	call	_SYSTEM_Initialize	;wreg free
   125  000BEC                     l522:
   126  000BEC  EFF6  F005         	goto	l522
   127  000BF0  EF81  F000         	goto	start
   128  000BF4                     __end_of_main:
   129                           	callstack 0
   130                           
   131                           	psect	nvCOMRAM
   132  000531                     __pnvCOMRAM:
   133                           	callstack 0
   134  000531                     _UART1_ErrorHandler:
   135                           	callstack 0
   136  000531                     	ds	2
   137  000533                     _UART1_OverrunErrorHandler:
   138                           	callstack 0
   139  000533                     	ds	2
   140  000535                     _UART1_FramingErrorHandler:
   141                           	callstack 0
   142  000535                     	ds	2
   143  0000                     _NVMCON1	set	65
   144  0000                     _PMD8	set	104
   145  0000                     _PMD7	set	103
   146  0000                     _PMD6	set	102
   147  0000                     _PMD5	set	101
   148  0000                     _PMD4	set	100
   149  0000                     _PMD3	set	99
   150  0000                     _PMD1	set	97
   151  0000                     _PMD0	set	96
   152  0000                     _ACTCON	set	172
   153  0000                     _OSCTUNE	set	176
   154  0000                     _OSCFRQ	set	177
   155  0000                     _OSCEN	set	179
   156  0000                     _OSCCON3	set	175
   157  0000                     _OSCCON1	set	173
   158  0000                     _NVMDATL	set	70
   159  0000                     _NVMCON0bits	set	64
   160  0000                     _NVMLOCK	set	66
   161  0000                     _NVMCON1bits	set	65
   162  0000                     _NVMADRL	set	67
   163  0000                     _NVMADRH	set	68
   164  0000                     _NVMADRU	set	69
   165  0000                     _U1TXB	set	675
   166  0000                     _U1RXB	set	673
   167  0000                     _U1ERRIRbits	set	690
   168  0000                     _U1CON0bits	set	683
   169  0000                     _U1ERRIE	set	691
   170  0000                     _U1ERRIR	set	690
   171  0000                     _U1UIR	set	689
   172  0000                     _U1FIFO	set	688
   173  0000                     _U1BRGH	set	687
   174  0000                     _U1BRGL	set	686
   175  0000                     _U1CON2	set	685
   176  0000                     _U1CON1	set	684
   177  0000                     _U1CON0	set	683
   178  0000                     _U1P3H	set	682
   179  0000                     _U1P3L	set	681
   180  0000                     _U1P2H	set	680
   181  0000                     _U1P2L	set	679
   182  0000                     _U1P1H	set	678
   183  0000                     _U1P1L	set	677
   184  0000                     _U1RXPPS	set	626
   185  0000                     _RF0PPS	set	553
   186  0000                     _RC4I2C	set	646
   187  0000                     _RC3I2C	set	647
   188  0000                     _RB2I2C	set	648
   189  0000                     _RB1I2C	set	649
   190  0000                     _INLVLF	set	1068
   191  0000                     _INLVLE	set	1060
   192  0000                     _INLVLD	set	1052
   193  0000                     _INLVLC	set	1044
   194  0000                     _INLVLB	set	1036
   195  0000                     _INLVLA	set	1028
   196  0000                     _SLRCONF	set	1067
   197  0000                     _SLRCONE	set	1059
   198  0000                     _SLRCOND	set	1051
   199  0000                     _SLRCONC	set	1043
   200  0000                     _SLRCONB	set	1035
   201  0000                     _SLRCONA	set	1027
   202  0000                     _ODCOND	set	1050
   203  0000                     _ODCONC	set	1042
   204  0000                     _ODCONB	set	1034
   205  0000                     _ODCONA	set	1026
   206  0000                     _ODCONF	set	1066
   207  0000                     _ODCONE	set	1058
   208  0000                     _WPUC	set	1041
   209  0000                     _WPUA	set	1025
   210  0000                     _WPUB	set	1033
   211  0000                     _WPUE	set	1057
   212  0000                     _WPUF	set	1065
   213  0000                     _WPUD	set	1049
   214  0000                     _ANSELA	set	1024
   215  0000                     _ANSELF	set	1064
   216  0000                     _ANSELE	set	1056
   217  0000                     _ANSELB	set	1032
   218  0000                     _ANSELC	set	1040
   219  0000                     _ANSELD	set	1048
   220  0000                     _TBLPTR	set	1270
   221  0000                     _PORTBbits	set	1231
   222  0000                     _BSR	set	1248
   223  0000                     _STKPTR	set	1276
   224  0000                     _PIR15bits	set	1213
   225  0000                     _INTCON0bits	set	1238
   226  0000                     _TABLAT	set	1269
   227  0000                     _TBLPTRL	set	1270
   228  0000                     _TBLPTRH	set	1271
   229  0000                     _TBLPTRU	set	1272
   230  0000                     _PIR4bits	set	1202
   231  0000                     _TRISD	set	1225
   232  0000                     _TRISC	set	1224
   233  0000                     _TRISB	set	1223
   234  0000                     _TRISA	set	1222
   235  0000                     _TRISF	set	1227
   236  0000                     _TRISE	set	1226
   237  0000                     _LATC	set	1216
   238  0000                     _LATB	set	1215
   239  0000                     _LATF	set	1219
   240  0000                     _LATA	set	1214
   241  0000                     _LATD	set	1217
   242  0000                     _LATE	set	1218
   243                           
   244                           ; #config settings
   245                           
   246                           	psect	cinit
   247  000AEC                     __pcinit:
   248                           	callstack 0
   249  000AEC                     start_initialization:
   250                           	callstack 0
   251  000AEC                     __initialization:
   252                           	callstack 0
   253                           
   254                           ; Clear objects allocated to BIGRAMl (265 bytes)
   255  000AEC  EE08  F3F7         	lfsr	0,__pbssBIGRAMl
   256  000AF0  EE10 F109          	lfsr	1,265
   257  000AF4                     clear_0:
   258  000AF4  6AEE               	clrf	postinc0,c
   259  000AF6  50E5               	movf	postdec1,w,c
   260  000AF8  50E1               	movf	fsr1l,w,c
   261  000AFA  E1FC               	bnz	clear_0
   262  000AFC  50E2               	movf	fsr1h,w,c
   263  000AFE  E1FA               	bnz	clear_0
   264                           
   265                           ; Clear objects allocated to COMRAM (8 bytes)
   266  000B00  EE01  F129         	lfsr	0,__pbssCOMRAM
   267  000B04  0E08               	movlw	8
   268  000B06                     clear_1:
   269  000B06  6AEE               	clrf	postinc0,c
   270  000B08  06E8               	decf	wreg,f,c
   271  000B0A  E1FD               	bnz	clear_1
   272                           
   273                           ;
   274                           ; Setup IVTBASE
   275                           ;
   276  000B0C  0104               	movlb	4
   277  000B0E  0E08               	movlw	(ivt0x8_base shr 0)& (0+255)
   278  000B10  6F5D               	movwf	93,b
   279  000B12  0E00               	movlw	(ivt0x8_base shr (0+8))& (0+255)
   280  000B14  6F5E               	movwf	94,b
   281  000B16  0E00               	movlw	(ivt0x8_base shr (0+16))& (0+255)
   282  000B18  6F5F               	movwf	95,b
   283  000B1A                     end_of_initialization:
   284                           	callstack 0
   285  000B1A                     __end_of__initialization:
   286                           	callstack 0
   287  000B1A  0E00               	movlw	low (__Lmediumconst shr (0+16))
   288  000B1C  6EF8               	movwf	tblptru,c
   289  000B1E  0100               	movlb	0
   290  000B20  EFF4  F005         	goto	_main	;jump to C main() function
   291                           
   292                           	psect	bssCOMRAM
   293  000529                     __pbssCOMRAM:
   294                           	callstack 0
   295  000529                     _counter:
   296                           	callstack 0
   297  000529                     	ds	2
   298  00052B                     _check_sum:
   299                           	callstack 0
   300  00052B                     	ds	2
   301  00052D                     _reset_pending:
   302                           	callstack 0
   303  00052D                     	ds	1
   304  00052E                     _tx_data:
   305                           	callstack 0
   306  00052E                     	ds	1
   307  00052F                     _rx_data:
   308                           	callstack 0
   309  00052F                     	ds	1
   310  000530                     _uart1RxLastError:
   311                           	callstack 0
   312  000530                     	ds	1
   313                           
   314                           	psect	bssBIGRAMl
   315  0023F7                     __pbssBIGRAMl:
   316                           	callstack 0
   317  0023F7                     _frame:
   318                           	callstack 0
   319  0023F7                     	ds	265
   320                           
   321                           	psect	cstackCOMRAM
   322  000502                     __pcstackCOMRAM:
   323                           	callstack 0
   324  000502                     ?_Calc_Checksum:
   325                           	callstack 0
   326  000502                     ?_Get_Version_Data:
   327                           	callstack 0
   328  000502                     ?_Erase_Flash:
   329                           	callstack 0
   330  000502                     ?_Read_Config:
   331                           	callstack 0
   332  000502                     ?_Write_Config:
   333                           	callstack 0
   334  000502                     UART1_Write@txData:
   335                           	callstack 0
   336  000502                     UART1_SetFramingErrorHandler@interruptHandler:
   337                           	callstack 0
   338  000502                     UART1_SetOverrunErrorHandler@interruptHandler:
   339                           	callstack 0
   340  000502                     UART1_SetErrorHandler@interruptHandler:
   341                           	callstack 0
   342  000502                     FLASH_ReadPage@flashAddr:
   343                           	callstack 0
   344                           
   345                           ; 4 bytes @ 0x0
   346  000502                     	ds	2
   347  000504                     ??_Calc_Checksum:
   348  000504                     ??_Erase_Flash:
   349  000504                     ??_Read_Config:
   350  000504                     ??_Write_Config:
   351  000504                     Get_Version_Data@i:
   352                           	callstack 0
   353                           
   354                           ; 1 bytes @ 0x2
   355  000504                     	ds	2
   356  000506                     FLASH_ReadPage@GIEBitValue:
   357                           	callstack 0
   358                           
   359                           ; 1 bytes @ 0x4
   360  000506                     	ds	1
   361  000507                     ?_Write_Flash:
   362                           	callstack 0
   363                           
   364                           ; 2 bytes @ 0x5
   365  000507                     	ds	1
   366  000508                     Read_Config@i:
   367                           	callstack 0
   368  000508                     Write_Config@i:
   369                           	callstack 0
   370                           
   371                           ; 1 bytes @ 0x6
   372  000508                     	ds	1
   373  000509                     ??_Write_Flash:
   374  000509                     Calc_Checksum@i:
   375                           	callstack 0
   376                           
   377                           ; 4 bytes @ 0x7
   378  000509                     	ds	4
   379  00050D                     Calc_Checksum@length:
   380                           	callstack 0
   381                           
   382                           ; 4 bytes @ 0xB
   383  00050D                     	ds	4
   384  000511                     Bootload_Required@Stored_Checksum:
   385                           	callstack 0
   386                           
   387                           ; 2 bytes @ 0xF
   388  000511                     	ds	2
   389  000513                     Bootload_Required@i:
   390                           	callstack 0
   391  000513                     Erase_Flash@address:
   392                           	callstack 0
   393                           
   394                           ; 4 bytes @ 0x11
   395  000513                     	ds	4
   396  000517                     Erase_Flash@i:
   397                           	callstack 0
   398                           
   399                           ; 2 bytes @ 0x15
   400  000517                     	ds	1
   401  000518                     Write_Flash@address:
   402                           	callstack 0
   403                           
   404                           ; 4 bytes @ 0x16
   405  000518                     	ds	1
   406  000519                     Erase_Flash@GIEBitValue:
   407                           	callstack 0
   408                           
   409                           ; 1 bytes @ 0x17
   410  000519                     	ds	1
   411  00051A                     Erase_Flash@blockStartAddr:
   412                           	callstack 0
   413                           
   414                           ; 4 bytes @ 0x18
   415  00051A                     	ds	2
   416  00051C                     Write_Flash@i:
   417                           	callstack 0
   418                           
   419                           ; 2 bytes @ 0x1A
   420  00051C                     	ds	2
   421  00051E                     ?_ProcessBootBuffer:
   422                           	callstack 0
   423                           
   424                           ; 2 bytes @ 0x1C
   425  00051E                     	ds	2
   426  000520                     ??_ProcessBootBuffer:
   427                           
   428                           ; 1 bytes @ 0x1E
   429  000520                     	ds	2
   430  000522                     ProcessBootBuffer@len:
   431                           	callstack 0
   432                           
   433                           ; 2 bytes @ 0x20
   434  000522                     	ds	2
   435  000524                     Run_Bootloader@ch:
   436                           	callstack 0
   437                           
   438                           ; 1 bytes @ 0x22
   439  000524                     	ds	1
   440  000525                     Run_Bootloader@msg_length:
   441                           	callstack 0
   442                           
   443                           ; 2 bytes @ 0x23
   444  000525                     	ds	2
   445  000527                     Run_Bootloader@index:
   446                           	callstack 0
   447                           
   448                           ; 2 bytes @ 0x25
   449  000527                     	ds	2
   450  000529                     
   451 ;; *************** function _SYSTEM_Initialize *****************
   452 ;; Defined at:
   453 ;;		line 50 in file "mcc_generated_files/mcc.c"
   454 ;; Parameters:    Size  Location     Type
   455 ;;		None
   456 ;; Auto vars:     Size  Location     Type
   457 ;;		None
   458 ;; Return value:  Size  Location     Type
   459 ;;                  1    wreg      void 
   460 ;; Registers used:
   461 ;;		wreg, fsr1l, fsr1h, fsr2l, fsr2h, status,2, status,0, pclath, tosl, cstack
   462 ;; Tracked objects:
   463 ;;		On entry : 0/0
   464 ;;		On exit  : 0/0
   465 ;;		Unchanged: 0/0
   466 ;; Data sizes:     COMRAM   BANK5   BANK6   BANK7   BANK8   BANK9  BANK10  BANK11  BANK12  BANK13  BANK14  BANK15  BANK1
      +6  BANK17  BANK18  BANK19  BANK20  BANK21  BANK22  BANK23  BANK24  BANK25  BANK26  BANK27  BANK28  BANK29  BANK30  BANK3
      +1  BANK32  BANK33  BANK34  BANK35  BANK36
   467 ;;      Params:         0       0       0       0       0       0       0       0       0       0       0       0       
      +0       0       0       0       0       0       0       0       0       0       0       0       0       0       0       
      +0       0       0       0       0       0
   468 ;;      Locals:         0       0       0       0       0       0       0       0       0       0       0       0       
      +0       0       0       0       0       0       0       0       0       0       0       0       0       0       0       
      +0       0       0       0       0       0
   469 ;;      Temps:          0       0       0       0       0       0       0       0       0       0       0       0       
      +0       0       0       0       0       0       0       0       0       0       0       0       0       0       0       
      +0       0       0       0       0       0
   470 ;;      Totals:         0       0       0       0       0       0       0       0       0       0       0       0       
      +0       0       0       0       0       0       0       0       0       0       0       0       0       0       0       
      +0       0       0       0       0       0
   471 ;;Total ram usage:        0 bytes
   472 ;; Hardware stack levels used: 1
   473 ;; Hardware stack levels required when called: 6
   474 ;; This function calls:
   475 ;;		_BOOTLOADER_Initialize
   476 ;;		_OSCILLATOR_Initialize
   477 ;;		_PIN_MANAGER_Initialize
   478 ;;		_PMD_Initialize
   479 ;;		_UART1_Initialize
   480 ;; This function is called by:
   481 ;;		_main
   482 ;; This function uses a non-reentrant model
   483 ;;
   484                           
   485                           	psect	text1
   486  000BAA                     __ptext1:
   487                           	callstack 0
   488  000BAA                     _SYSTEM_Initialize:
   489                           	callstack 120
   490  000BAA                     
   491                           ;mcc_generated_files/mcc.c: 52:     PMD_Initialize();
   492  000BAA  ECA9  F005         	call	_PMD_Initialize	;wreg free
   493                           
   494                           ;mcc_generated_files/mcc.c: 53:     PIN_MANAGER_Initialize();
   495  000BAE  ECA6  F003         	call	_PIN_MANAGER_Initialize	;wreg free
   496                           
   497                           ;mcc_generated_files/mcc.c: 54:     OSCILLATOR_Initialize();
   498  000BB2  ECBB  F005         	call	_OSCILLATOR_Initialize	;wreg free
   499  000BB6                     
   500                           ;mcc_generated_files/mcc.c: 55:     UART1_Initialize();
   501  000BB6  EC1A  F005         	call	_UART1_Initialize	;wreg free
   502  000BBA                     
   503                           ;mcc_generated_files/mcc.c: 56:     BOOTLOADER_Initialize();
   504  000BBA  EC92  F005         	call	_BOOTLOADER_Initialize	;wreg free
   505  000BBE  0012               	return		;funcret
   506  000BC0                     __end_of_SYSTEM_Initialize:
   507                           	callstack 0
   508                           
   509 ;; *************** function _UART1_Initialize *****************
   510 ;; Defined at:
   511 ;;		line 66 in file "mcc_generated_files/uart1.c"
   512 ;; Parameters:    Size  Location     Type
   513 ;;		None
   514 ;; Auto vars:     Size  Location     Type
   515 ;;		None
   516 ;; Return value:  Size  Location     Type
   517 ;;                  1    wreg      void 
   518 ;; Registers used:
   519 ;;		wreg, status,2, status,0, cstack
   520 ;; Tracked objects:
   521 ;;		On entry : 0/0
   522 ;;		On exit  : 0/0
   523 ;;		Unchanged: 0/0
   524 ;; Data sizes:     COMRAM   BANK5   BANK6   BANK7   BANK8   BANK9  BANK10  BANK11  BANK12  BANK13  BANK14  BANK15  BANK1
      +6  BANK17  BANK18  BANK19  BANK20  BANK21  BANK22  BANK23  BANK24  BANK25  BANK26  BANK27  BANK28  BANK29  BANK30  BANK3
      +1  BANK32  BANK33  BANK34  BANK35  BANK36
   525 ;;      Params:         0       0       0       0       0       0       0       0       0       0       0       0       
      +0       0       0       0       0       0       0       0       0       0       0       0       0       0       0       
      +0       0       0       0       0       0
   526 ;;      Locals:         0       0       0       0       0       0       0       0       0       0       0       0       
      +0       0       0       0       0       0       0       0       0       0       0       0       0       0       0       
      +0       0       0       0       0       0
   527 ;;      Temps:          0       0       0       0       0       0       0       0       0       0       0       0       
      +0       0       0       0       0       0       0       0       0       0       0       0       0       0       0       
      +0       0       0       0       0       0
   528 ;;      Totals:         0       0       0       0       0       0       0       0       0       0       0       0       
      +0       0       0       0       0       0       0       0       0       0       0       0       0       0       0       
      +0       0       0       0       0       0
   529 ;;Total ram usage:        0 bytes
   530 ;; Hardware stack levels used: 1
   531 ;; Hardware stack levels required when called: 2
   532 ;; This function calls:
   533 ;;		_UART1_SetErrorHandler
   534 ;;		_UART1_SetFramingErrorHandler
   535 ;;		_UART1_SetOverrunErrorHandler
   536 ;; This function is called by:
   537 ;;		_SYSTEM_Initialize
   538 ;; This function uses a non-reentrant model
   539 ;;
   540                           
   541                           	psect	text2
   542  000A34                     __ptext2:
   543                           	callstack 0
   544  000A34                     _UART1_Initialize:
   545                           	callstack 123
   546  000A34                     
   547                           ;mcc_generated_files/uart1.c: 73:     U1P1L = 0x00;
   548  000A34  0E00               	movlw	0
   549  000A36  0102               	movlb	2	; () banked
   550  000A38  6FA5               	movwf	165,b	;volatile
   551                           
   552                           ;mcc_generated_files/uart1.c: 76:     U1P1H = 0x00;
   553  000A3A  0E00               	movlw	0
   554  000A3C  6FA6               	movwf	166,b	;volatile
   555                           
   556                           ;mcc_generated_files/uart1.c: 79:     U1P2L = 0x00;
   557  000A3E  0E00               	movlw	0
   558  000A40  6FA7               	movwf	167,b	;volatile
   559                           
   560                           ;mcc_generated_files/uart1.c: 82:     U1P2H = 0x00;
   561  000A42  0E00               	movlw	0
   562  000A44  6FA8               	movwf	168,b	;volatile
   563                           
   564                           ;mcc_generated_files/uart1.c: 85:     U1P3L = 0x00;
   565  000A46  0E00               	movlw	0
   566  000A48  6FA9               	movwf	169,b	;volatile
   567                           
   568                           ;mcc_generated_files/uart1.c: 88:     U1P3H = 0x00;
   569  000A4A  0E00               	movlw	0
   570  000A4C  6FAA               	movwf	170,b	;volatile
   571                           
   572                           ;mcc_generated_files/uart1.c: 91:     U1CON0 = 0xB0;
   573  000A4E  0EB0               	movlw	176
   574  000A50  6FAB               	movwf	171,b	;volatile
   575                           
   576                           ;mcc_generated_files/uart1.c: 94:     U1CON1 = 0x80;
   577  000A52  0E80               	movlw	128
   578  000A54  6FAC               	movwf	172,b	;volatile
   579                           
   580                           ;mcc_generated_files/uart1.c: 97:     U1CON2 = 0x00;
   581  000A56  0E00               	movlw	0
   582  000A58  6FAD               	movwf	173,b	;volatile
   583                           
   584                           ;mcc_generated_files/uart1.c: 100:     U1BRGL = 0x82;
   585  000A5A  0E82               	movlw	130
   586  000A5C  6FAE               	movwf	174,b	;volatile
   587                           
   588                           ;mcc_generated_files/uart1.c: 103:     U1BRGH = 0x06;
   589  000A5E  0E06               	movlw	6
   590  000A60  6FAF               	movwf	175,b	;volatile
   591                           
   592                           ;mcc_generated_files/uart1.c: 106:     U1FIFO = 0x00;
   593  000A62  0E00               	movlw	0
   594  000A64  6FB0               	movwf	176,b	;volatile
   595                           
   596                           ;mcc_generated_files/uart1.c: 109:     U1UIR = 0x00;
   597  000A66  0E00               	movlw	0
   598  000A68  6FB1               	movwf	177,b	;volatile
   599                           
   600                           ;mcc_generated_files/uart1.c: 112:     U1ERRIR = 0x00;
   601  000A6A  0E00               	movlw	0
   602  000A6C  6FB2               	movwf	178,b	;volatile
   603                           
   604                           ;mcc_generated_files/uart1.c: 115:     U1ERRIE = 0x00;
   605  000A6E  0E00               	movlw	0
   606  000A70  6FB3               	movwf	179,b	;volatile
   607  000A72                     
   608                           ; BSR set to: 2
   609                           ;mcc_generated_files/uart1.c: 118:     UART1_SetFramingErrorHandler(UART1_DefaultFraming
      +                          ErrorHandler);
   610  000A72  0E1A               	movlw	low _UART1_DefaultFramingErrorHandler
   611  000A74  6E02               	movwf	UART1_SetFramingErrorHandler@interruptHandler^(0+1280),c
   612  000A76  0E0C               	movlw	high _UART1_DefaultFramingErrorHandler
   613  000A78  6E03               	movwf	(UART1_SetFramingErrorHandler@interruptHandler+1)^(0+1280),c
   614  000A7A  ECFF  F005         	call	_UART1_SetFramingErrorHandler	;wreg free
   615  000A7E                     
   616                           ;mcc_generated_files/uart1.c: 119:     UART1_SetOverrunErrorHandler(UART1_DefaultOverrun
      +                          ErrorHandler);
   617  000A7E  0E18               	movlw	low _UART1_DefaultOverrunErrorHandler
   618  000A80  6E02               	movwf	UART1_SetOverrunErrorHandler@interruptHandler^(0+1280),c
   619  000A82  0E0C               	movlw	high _UART1_DefaultOverrunErrorHandler
   620  000A84  6E03               	movwf	(UART1_SetOverrunErrorHandler@interruptHandler+1)^(0+1280),c
   621  000A86  ECFA  F005         	call	_UART1_SetOverrunErrorHandler	;wreg free
   622  000A8A                     
   623                           ;mcc_generated_files/uart1.c: 120:     UART1_SetErrorHandler(UART1_DefaultErrorHandler);
   624  000A8A  0E1C               	movlw	low _UART1_DefaultErrorHandler
   625  000A8C  6E02               	movwf	UART1_SetErrorHandler@interruptHandler^(0+1280),c
   626  000A8E  0E0C               	movlw	high _UART1_DefaultErrorHandler
   627  000A90  6E03               	movwf	(UART1_SetErrorHandler@interruptHandler+1)^(0+1280),c
   628  000A92  EC04  F006         	call	_UART1_SetErrorHandler	;wreg free
   629  000A96                     
   630                           ;mcc_generated_files/uart1.c: 122:     uart1RxLastError.status = 0;
   631  000A96  0E00               	movlw	0
   632  000A98  6E30               	movwf	_uart1RxLastError^(0+1280),c	;volatile
   633  000A9A  0012               	return		;funcret
   634  000A9C                     __end_of_UART1_Initialize:
   635                           	callstack 0
   636                           
   637 ;; *************** function _UART1_SetOverrunErrorHandler *****************
   638 ;; Defined at:
   639 ;;		line 194 in file "mcc_generated_files/uart1.c"
   640 ;; Parameters:    Size  Location     Type
   641 ;;  interruptHan    2    0[COMRAM] PTR FTN()void 
   642 ;;		 -> UART1_DefaultOverrunErrorHandler(1), 
   643 ;; Auto vars:     Size  Location     Type
   644 ;;		None
   645 ;; Return value:  Size  Location     Type
   646 ;;                  1    wreg      void 
   647 ;; Registers used:
   648 ;;		wreg, status,2, status,0
   649 ;; Tracked objects:
   650 ;;		On entry : 0/0
   651 ;;		On exit  : 0/0
   652 ;;		Unchanged: 0/0
   653 ;; Data sizes:     COMRAM   BANK5   BANK6   BANK7   BANK8   BANK9  BANK10  BANK11  BANK12  BANK13  BANK14  BANK15  BANK1
      +6  BANK17  BANK18  BANK19  BANK20  BANK21  BANK22  BANK23  BANK24  BANK25  BANK26  BANK27  BANK28  BANK29  BANK30  BANK3
      +1  BANK32  BANK33  BANK34  BANK35  BANK36
   654 ;;      Params:         2       0       0       0       0       0       0       0       0       0       0       0       
      +0       0       0       0       0       0       0       0       0       0       0       0       0       0       0       
      +0       0       0       0       0       0
   655 ;;      Locals:         0       0       0       0       0       0       0       0       0       0       0       0       
      +0       0       0       0       0       0       0       0       0       0       0       0       0       0       0       
      +0       0       0       0       0       0
   656 ;;      Temps:          0       0       0       0       0       0       0       0       0       0       0       0       
      +0       0       0       0       0       0       0       0       0       0       0       0       0       0       0       
      +0       0       0       0       0       0
   657 ;;      Totals:         2       0       0       0       0       0       0       0       0       0       0       0       
      +0       0       0       0       0       0       0       0       0       0       0       0       0       0       0       
      +0       0       0       0       0       0
   658 ;;Total ram usage:        2 bytes
   659 ;; Hardware stack levels used: 1
   660 ;; Hardware stack levels required when called: 1
   661 ;; This function calls:
   662 ;;		Nothing
   663 ;; This function is called by:
   664 ;;		_UART1_Initialize
   665 ;; This function uses a non-reentrant model
   666 ;;
   667                           
   668                           	psect	text3
   669  000BF4                     __ptext3:
   670                           	callstack 0
   671  000BF4                     _UART1_SetOverrunErrorHandler:
   672                           	callstack 123
   673  000BF4                     
   674                           ;mcc_generated_files/uart1.c: 195:     UART1_OverrunErrorHandler = interruptHandler;
   675  000BF4  C502  F533         	movff	UART1_SetOverrunErrorHandler@interruptHandler,_UART1_OverrunErrorHandler
   676  000BF8  C503  F534         	movff	UART1_SetOverrunErrorHandler@interruptHandler+1,_UART1_OverrunErrorHandler+1
   677  000BFC  0012               	return		;funcret
   678  000BFE                     __end_of_UART1_SetOverrunErrorHandler:
   679                           	callstack 0
   680                           
   681 ;; *************** function _UART1_SetFramingErrorHandler *****************
   682 ;; Defined at:
   683 ;;		line 190 in file "mcc_generated_files/uart1.c"
   684 ;; Parameters:    Size  Location     Type
   685 ;;  interruptHan    2    0[COMRAM] PTR FTN()void 
   686 ;;		 -> UART1_DefaultFramingErrorHandler(1), 
   687 ;; Auto vars:     Size  Location     Type
   688 ;;		None
   689 ;; Return value:  Size  Location     Type
   690 ;;                  1    wreg      void 
   691 ;; Registers used:
   692 ;;		wreg, status,2, status,0
   693 ;; Tracked objects:
   694 ;;		On entry : 0/0
   695 ;;		On exit  : 0/0
   696 ;;		Unchanged: 0/0
   697 ;; Data sizes:     COMRAM   BANK5   BANK6   BANK7   BANK8   BANK9  BANK10  BANK11  BANK12  BANK13  BANK14  BANK15  BANK1
      +6  BANK17  BANK18  BANK19  BANK20  BANK21  BANK22  BANK23  BANK24  BANK25  BANK26  BANK27  BANK28  BANK29  BANK30  BANK3
      +1  BANK32  BANK33  BANK34  BANK35  BANK36
   698 ;;      Params:         2       0       0       0       0       0       0       0       0       0       0       0       
      +0       0       0       0       0       0       0       0       0       0       0       0       0       0       0       
      +0       0       0       0       0       0
   699 ;;      Locals:         0       0       0       0       0       0       0       0       0       0       0       0       
      +0       0       0       0       0       0       0       0       0       0       0       0       0       0       0       
      +0       0       0       0       0       0
   700 ;;      Temps:          0       0       0       0       0       0       0       0       0       0       0       0       
      +0       0       0       0       0       0       0       0       0       0       0       0       0       0       0       
      +0       0       0       0       0       0
   701 ;;      Totals:         2       0       0       0       0       0       0       0       0       0       0       0       
      +0       0       0       0       0       0       0       0       0       0       0       0       0       0       0       
      +0       0       0       0       0       0
   702 ;;Total ram usage:        2 bytes
   703 ;; Hardware stack levels used: 1
   704 ;; Hardware stack levels required when called: 1
   705 ;; This function calls:
   706 ;;		Nothing
   707 ;; This function is called by:
   708 ;;		_UART1_Initialize
   709 ;; This function uses a non-reentrant model
   710 ;;
   711                           
   712                           	psect	text4
   713  000BFE                     __ptext4:
   714                           	callstack 0
   715  000BFE                     _UART1_SetFramingErrorHandler:
   716                           	callstack 123
   717  000BFE                     
   718                           ;mcc_generated_files/uart1.c: 191:     UART1_FramingErrorHandler = interruptHandler;
   719  000BFE  C502  F535         	movff	UART1_SetFramingErrorHandler@interruptHandler,_UART1_FramingErrorHandler
   720  000C02  C503  F536         	movff	UART1_SetFramingErrorHandler@interruptHandler+1,_UART1_FramingErrorHandler+1
   721  000C06  0012               	return		;funcret
   722  000C08                     __end_of_UART1_SetFramingErrorHandler:
   723                           	callstack 0
   724                           
   725 ;; *************** function _UART1_SetErrorHandler *****************
   726 ;; Defined at:
   727 ;;		line 198 in file "mcc_generated_files/uart1.c"
   728 ;; Parameters:    Size  Location     Type
   729 ;;  interruptHan    2    0[COMRAM] PTR FTN()void 
   730 ;;		 -> UART1_DefaultErrorHandler(1), 
   731 ;; Auto vars:     Size  Location     Type
   732 ;;		None
   733 ;; Return value:  Size  Location     Type
   734 ;;                  1    wreg      void 
   735 ;; Registers used:
   736 ;;		wreg, status,2, status,0
   737 ;; Tracked objects:
   738 ;;		On entry : 0/0
   739 ;;		On exit  : 0/0
   740 ;;		Unchanged: 0/0
   741 ;; Data sizes:     COMRAM   BANK5   BANK6   BANK7   BANK8   BANK9  BANK10  BANK11  BANK12  BANK13  BANK14  BANK15  BANK1
      +6  BANK17  BANK18  BANK19  BANK20  BANK21  BANK22  BANK23  BANK24  BANK25  BANK26  BANK27  BANK28  BANK29  BANK30  BANK3
      +1  BANK32  BANK33  BANK34  BANK35  BANK36
   742 ;;      Params:         2       0       0       0       0       0       0       0       0       0       0       0       
      +0       0       0       0       0       0       0       0       0       0       0       0       0       0       0       
      +0       0       0       0       0       0
   743 ;;      Locals:         0       0       0       0       0       0       0       0       0       0       0       0       
      +0       0       0       0       0       0       0       0       0       0       0       0       0       0       0       
      +0       0       0       0       0       0
   744 ;;      Temps:          0       0       0       0       0       0       0       0       0       0       0       0       
      +0       0       0       0       0       0       0       0       0       0       0       0       0       0       0       
      +0       0       0       0       0       0
   745 ;;      Totals:         2       0       0       0       0       0       0       0       0       0       0       0       
      +0       0       0       0       0       0       0       0       0       0       0       0       0       0       0       
      +0       0       0       0       0       0
   746 ;;Total ram usage:        2 bytes
   747 ;; Hardware stack levels used: 1
   748 ;; Hardware stack levels required when called: 1
   749 ;; This function calls:
   750 ;;		Nothing
   751 ;; This function is called by:
   752 ;;		_UART1_Initialize
   753 ;; This function uses a non-reentrant model
   754 ;;
   755                           
   756                           	psect	text5
   757  000C08                     __ptext5:
   758                           	callstack 0
   759  000C08                     _UART1_SetErrorHandler:
   760                           	callstack 123
   761  000C08                     
   762                           ;mcc_generated_files/uart1.c: 199:     UART1_ErrorHandler = interruptHandler;
   763  000C08  C502  F531         	movff	UART1_SetErrorHandler@interruptHandler,_UART1_ErrorHandler
   764  000C0C  C503  F532         	movff	UART1_SetErrorHandler@interruptHandler+1,_UART1_ErrorHandler+1
   765  000C10  0012               	return		;funcret
   766  000C12                     __end_of_UART1_SetErrorHandler:
   767                           	callstack 0
   768                           
   769 ;; *************** function _PMD_Initialize *****************
   770 ;; Defined at:
   771 ;;		line 75 in file "mcc_generated_files/mcc.c"
   772 ;; Parameters:    Size  Location     Type
   773 ;;		None
   774 ;; Auto vars:     Size  Location     Type
   775 ;;		None
   776 ;; Return value:  Size  Location     Type
   777 ;;                  1    wreg      void 
   778 ;; Registers used:
   779 ;;		wreg, status,2
   780 ;; Tracked objects:
   781 ;;		On entry : 0/0
   782 ;;		On exit  : 0/0
   783 ;;		Unchanged: 0/0
   784 ;; Data sizes:     COMRAM   BANK5   BANK6   BANK7   BANK8   BANK9  BANK10  BANK11  BANK12  BANK13  BANK14  BANK15  BANK1
      +6  BANK17  BANK18  BANK19  BANK20  BANK21  BANK22  BANK23  BANK24  BANK25  BANK26  BANK27  BANK28  BANK29  BANK30  BANK3
      +1  BANK32  BANK33  BANK34  BANK35  BANK36
   785 ;;      Params:         0       0       0       0       0       0       0       0       0       0       0       0       
      +0       0       0       0       0       0       0       0       0       0       0       0       0       0       0       
      +0       0       0       0       0       0
   786 ;;      Locals:         0       0       0       0       0       0       0       0       0       0       0       0       
      +0       0       0       0       0       0       0       0       0       0       0       0       0       0       0       
      +0       0       0       0       0       0
   787 ;;      Temps:          0       0       0       0       0       0       0       0       0       0       0       0       
      +0       0       0       0       0       0       0       0       0       0       0       0       0       0       0       
      +0       0       0       0       0       0
   788 ;;      Totals:         0       0       0       0       0       0       0       0       0       0       0       0       
      +0       0       0       0       0       0       0       0       0       0       0       0       0       0       0       
      +0       0       0       0       0       0
   789 ;;Total ram usage:        0 bytes
   790 ;; Hardware stack levels used: 1
   791 ;; Hardware stack levels required when called: 1
   792 ;; This function calls:
   793 ;;		Nothing
   794 ;; This function is called by:
   795 ;;		_SYSTEM_Initialize
   796 ;; This function uses a non-reentrant model
   797 ;;
   798                           
   799                           	psect	text6
   800  000B52                     __ptext6:
   801                           	callstack 0
   802  000B52                     _PMD_Initialize:
   803                           	callstack 124
   804  000B52                     
   805                           ;mcc_generated_files/mcc.c: 78:     PMD0 = 0x00;
   806  000B52  0E00               	movlw	0
   807  000B54  0100               	movlb	0	; () banked
   808  000B56  6F60               	movwf	96,b	;volatile
   809                           
   810                           ;mcc_generated_files/mcc.c: 80:     PMD1 = 0x00;
   811  000B58  0E00               	movlw	0
   812  000B5A  6F61               	movwf	97,b	;volatile
   813                           
   814                           ;mcc_generated_files/mcc.c: 82:     PMD3 = 0x00;
   815  000B5C  0E00               	movlw	0
   816  000B5E  6F63               	movwf	99,b	;volatile
   817                           
   818                           ;mcc_generated_files/mcc.c: 84:     PMD4 = 0x00;
   819  000B60  0E00               	movlw	0
   820  000B62  6F64               	movwf	100,b	;volatile
   821                           
   822                           ;mcc_generated_files/mcc.c: 86:     PMD5 = 0x00;
   823  000B64  0E00               	movlw	0
   824  000B66  6F65               	movwf	101,b	;volatile
   825                           
   826                           ;mcc_generated_files/mcc.c: 88:     PMD6 = 0x00;
   827  000B68  0E00               	movlw	0
   828  000B6A  6F66               	movwf	102,b	;volatile
   829                           
   830                           ;mcc_generated_files/mcc.c: 90:     PMD7 = 0x00;
   831  000B6C  0E00               	movlw	0
   832  000B6E  6F67               	movwf	103,b	;volatile
   833                           
   834                           ;mcc_generated_files/mcc.c: 92:     PMD8 = 0x00;
   835  000B70  0E00               	movlw	0
   836  000B72  6F68               	movwf	104,b	;volatile
   837  000B74                     
   838                           ; BSR set to: 0
   839  000B74  0012               	return		;funcret
   840  000B76                     __end_of_PMD_Initialize:
   841                           	callstack 0
   842                           
   843 ;; *************** function _PIN_MANAGER_Initialize *****************
   844 ;; Defined at:
   845 ;;		line 55 in file "mcc_generated_files/pin_manager.c"
   846 ;; Parameters:    Size  Location     Type
   847 ;;		None
   848 ;; Auto vars:     Size  Location     Type
   849 ;;		None
   850 ;; Return value:  Size  Location     Type
   851 ;;                  1    wreg      void 
   852 ;; Registers used:
   853 ;;		wreg, status,2
   854 ;; Tracked objects:
   855 ;;		On entry : 0/0
   856 ;;		On exit  : 0/0
   857 ;;		Unchanged: 0/0
   858 ;; Data sizes:     COMRAM   BANK5   BANK6   BANK7   BANK8   BANK9  BANK10  BANK11  BANK12  BANK13  BANK14  BANK15  BANK1
      +6  BANK17  BANK18  BANK19  BANK20  BANK21  BANK22  BANK23  BANK24  BANK25  BANK26  BANK27  BANK28  BANK29  BANK30  BANK3
      +1  BANK32  BANK33  BANK34  BANK35  BANK36
   859 ;;      Params:         0       0       0       0       0       0       0       0       0       0       0       0       
      +0       0       0       0       0       0       0       0       0       0       0       0       0       0       0       
      +0       0       0       0       0       0
   860 ;;      Locals:         0       0       0       0       0       0       0       0       0       0       0       0       
      +0       0       0       0       0       0       0       0       0       0       0       0       0       0       0       
      +0       0       0       0       0       0
   861 ;;      Temps:          0       0       0       0       0       0       0       0       0       0       0       0       
      +0       0       0       0       0       0       0       0       0       0       0       0       0       0       0       
      +0       0       0       0       0       0
   862 ;;      Totals:         0       0       0       0       0       0       0       0       0       0       0       0       
      +0       0       0       0       0       0       0       0       0       0       0       0       0       0       0       
      +0       0       0       0       0       0
   863 ;;Total ram usage:        0 bytes
   864 ;; Hardware stack levels used: 1
   865 ;; Hardware stack levels required when called: 1
   866 ;; This function calls:
   867 ;;		Nothing
   868 ;; This function is called by:
   869 ;;		_SYSTEM_Initialize
   870 ;; This function uses a non-reentrant model
   871 ;;
   872                           
   873                           	psect	text7
   874  00074C                     __ptext7:
   875                           	callstack 0
   876  00074C                     _PIN_MANAGER_Initialize:
   877                           	callstack 124
   878  00074C                     
   879                           ;mcc_generated_files/pin_manager.c: 60:     LATE = 0x00;
   880  00074C  0E00               	movlw	0
   881  00074E  6EC2               	movwf	194,c	;volatile
   882                           
   883                           ;mcc_generated_files/pin_manager.c: 61:     LATD = 0x00;
   884  000750  0E00               	movlw	0
   885  000752  6EC1               	movwf	193,c	;volatile
   886                           
   887                           ;mcc_generated_files/pin_manager.c: 62:     LATA = 0x00;
   888  000754  0E00               	movlw	0
   889  000756  6EBE               	movwf	190,c	;volatile
   890                           
   891                           ;mcc_generated_files/pin_manager.c: 63:     LATF = 0x01;
   892  000758  0E01               	movlw	1
   893  00075A  6EC3               	movwf	195,c	;volatile
   894                           
   895                           ;mcc_generated_files/pin_manager.c: 64:     LATB = 0x00;
   896  00075C  0E00               	movlw	0
   897  00075E  6EBF               	movwf	191,c	;volatile
   898                           
   899                           ;mcc_generated_files/pin_manager.c: 65:     LATC = 0x00;
   900  000760  0E00               	movlw	0
   901  000762  6EC0               	movwf	192,c	;volatile
   902                           
   903                           ;mcc_generated_files/pin_manager.c: 70:     TRISE = 0x07;
   904  000764  0E07               	movlw	7
   905  000766  6ECA               	movwf	202,c	;volatile
   906                           
   907                           ;mcc_generated_files/pin_manager.c: 71:     TRISF = 0xFE;
   908  000768  0EFE               	movlw	254
   909  00076A  6ECB               	movwf	203,c	;volatile
   910  00076C                     
   911                           ;mcc_generated_files/pin_manager.c: 72:     TRISA = 0xFF;
   912  00076C  68C6               	setf	198,c	;volatile
   913  00076E                     
   914                           ;mcc_generated_files/pin_manager.c: 73:     TRISB = 0xFF;
   915  00076E  68C7               	setf	199,c	;volatile
   916  000770                     
   917                           ;mcc_generated_files/pin_manager.c: 74:     TRISC = 0xFF;
   918  000770  68C8               	setf	200,c	;volatile
   919  000772                     
   920                           ;mcc_generated_files/pin_manager.c: 75:     TRISD = 0xFF;
   921  000772  68C9               	setf	201,c	;volatile
   922  000774                     
   923                           ;mcc_generated_files/pin_manager.c: 80:     ANSELD = 0xFF;
   924  000774  0104               	movlb	4	; () banked
   925  000776  6918               	setf	24,b	;volatile
   926  000778                     
   927                           ; BSR set to: 4
   928                           ;mcc_generated_files/pin_manager.c: 81:     ANSELC = 0xFF;
   929  000778  6910               	setf	16,b	;volatile
   930                           
   931                           ;mcc_generated_files/pin_manager.c: 82:     ANSELB = 0xEF;
   932  00077A  0EEF               	movlw	239
   933  00077C  6F08               	movwf	8,b	;volatile
   934                           
   935                           ;mcc_generated_files/pin_manager.c: 83:     ANSELE = 0x07;
   936  00077E  0E07               	movlw	7
   937  000780  6F20               	movwf	32,b	;volatile
   938                           
   939                           ;mcc_generated_files/pin_manager.c: 84:     ANSELF = 0xFC;
   940  000782  0EFC               	movlw	252
   941  000784  6F28               	movwf	40,b	;volatile
   942  000786                     
   943                           ; BSR set to: 4
   944                           ;mcc_generated_files/pin_manager.c: 85:     ANSELA = 0xFF;
   945  000786  6900               	setf	0,b	;volatile
   946                           
   947                           ;mcc_generated_files/pin_manager.c: 90:     WPUD = 0x00;
   948  000788  0E00               	movlw	0
   949  00078A  6F19               	movwf	25,b	;volatile
   950                           
   951                           ;mcc_generated_files/pin_manager.c: 91:     WPUF = 0x00;
   952  00078C  0E00               	movlw	0
   953  00078E  6F29               	movwf	41,b	;volatile
   954                           
   955                           ;mcc_generated_files/pin_manager.c: 92:     WPUE = 0x00;
   956  000790  0E00               	movlw	0
   957  000792  6F21               	movwf	33,b	;volatile
   958                           
   959                           ;mcc_generated_files/pin_manager.c: 93:     WPUB = 0x10;
   960  000794  0E10               	movlw	16
   961  000796  6F09               	movwf	9,b	;volatile
   962                           
   963                           ;mcc_generated_files/pin_manager.c: 94:     WPUA = 0x00;
   964  000798  0E00               	movlw	0
   965  00079A  6F01               	movwf	1,b	;volatile
   966                           
   967                           ;mcc_generated_files/pin_manager.c: 95:     WPUC = 0x00;
   968  00079C  0E00               	movlw	0
   969  00079E  6F11               	movwf	17,b	;volatile
   970                           
   971                           ;mcc_generated_files/pin_manager.c: 100:     RB1I2C = 0x00;
   972  0007A0  0E00               	movlw	0
   973  0007A2  0102               	movlb	2	; () banked
   974  0007A4  6F89               	movwf	137,b	;volatile
   975                           
   976                           ;mcc_generated_files/pin_manager.c: 101:     RB2I2C = 0x00;
   977  0007A6  0E00               	movlw	0
   978  0007A8  6F88               	movwf	136,b	;volatile
   979                           
   980                           ;mcc_generated_files/pin_manager.c: 102:     RC3I2C = 0x00;
   981  0007AA  0E00               	movlw	0
   982  0007AC  6F87               	movwf	135,b	;volatile
   983                           
   984                           ;mcc_generated_files/pin_manager.c: 103:     RC4I2C = 0x00;
   985  0007AE  0E00               	movlw	0
   986  0007B0  6F86               	movwf	134,b	;volatile
   987                           
   988                           ;mcc_generated_files/pin_manager.c: 108:     ODCONE = 0x00;
   989  0007B2  0E00               	movlw	0
   990  0007B4  0104               	movlb	4	; () banked
   991  0007B6  6F22               	movwf	34,b	;volatile
   992                           
   993                           ;mcc_generated_files/pin_manager.c: 109:     ODCONF = 0x00;
   994  0007B8  0E00               	movlw	0
   995  0007BA  6F2A               	movwf	42,b	;volatile
   996                           
   997                           ;mcc_generated_files/pin_manager.c: 110:     ODCONA = 0x00;
   998  0007BC  0E00               	movlw	0
   999  0007BE  6F02               	movwf	2,b	;volatile
  1000                           
  1001                           ;mcc_generated_files/pin_manager.c: 111:     ODCONB = 0x00;
  1002  0007C0  0E00               	movlw	0
  1003  0007C2  6F0A               	movwf	10,b	;volatile
  1004                           
  1005                           ;mcc_generated_files/pin_manager.c: 112:     ODCONC = 0x00;
  1006  0007C4  0E00               	movlw	0
  1007  0007C6  6F12               	movwf	18,b	;volatile
  1008                           
  1009                           ;mcc_generated_files/pin_manager.c: 113:     ODCOND = 0x00;
  1010  0007C8  0E00               	movlw	0
  1011  0007CA  6F1A               	movwf	26,b	;volatile
  1012  0007CC                     
  1013                           ; BSR set to: 4
  1014                           ;mcc_generated_files/pin_manager.c: 118:     SLRCONA = 0xFF;
  1015  0007CC  6903               	setf	3,b	;volatile
  1016  0007CE                     
  1017                           ; BSR set to: 4
  1018                           ;mcc_generated_files/pin_manager.c: 119:     SLRCONB = 0xFF;
  1019  0007CE  690B               	setf	11,b	;volatile
  1020  0007D0                     
  1021                           ; BSR set to: 4
  1022                           ;mcc_generated_files/pin_manager.c: 120:     SLRCONC = 0xFF;
  1023  0007D0  6913               	setf	19,b	;volatile
  1024  0007D2                     
  1025                           ; BSR set to: 4
  1026                           ;mcc_generated_files/pin_manager.c: 121:     SLRCOND = 0xFF;
  1027  0007D2  691B               	setf	27,b	;volatile
  1028                           
  1029                           ;mcc_generated_files/pin_manager.c: 122:     SLRCONE = 0x07;
  1030  0007D4  0E07               	movlw	7
  1031  0007D6  6F23               	movwf	35,b	;volatile
  1032  0007D8                     
  1033                           ; BSR set to: 4
  1034                           ;mcc_generated_files/pin_manager.c: 123:     SLRCONF = 0xFF;
  1035  0007D8  692B               	setf	43,b	;volatile
  1036  0007DA                     
  1037                           ; BSR set to: 4
  1038                           ;mcc_generated_files/pin_manager.c: 128:     INLVLA = 0xFF;
  1039  0007DA  6904               	setf	4,b	;volatile
  1040  0007DC                     
  1041                           ; BSR set to: 4
  1042                           ;mcc_generated_files/pin_manager.c: 129:     INLVLB = 0xFF;
  1043  0007DC  690C               	setf	12,b	;volatile
  1044  0007DE                     
  1045                           ; BSR set to: 4
  1046                           ;mcc_generated_files/pin_manager.c: 130:     INLVLC = 0xFF;
  1047  0007DE  6914               	setf	20,b	;volatile
  1048  0007E0                     
  1049                           ; BSR set to: 4
  1050                           ;mcc_generated_files/pin_manager.c: 131:     INLVLD = 0xFF;
  1051  0007E0  691C               	setf	28,b	;volatile
  1052                           
  1053                           ;mcc_generated_files/pin_manager.c: 132:     INLVLE = 0x0F;
  1054  0007E2  0E0F               	movlw	15
  1055  0007E4  6F24               	movwf	36,b	;volatile
  1056  0007E6                     
  1057                           ; BSR set to: 4
  1058                           ;mcc_generated_files/pin_manager.c: 133:     INLVLF = 0xFF;
  1059  0007E6  692C               	setf	44,b	;volatile
  1060                           
  1061                           ;mcc_generated_files/pin_manager.c: 142:     RF0PPS = 0x20;
  1062  0007E8  0E20               	movlw	32
  1063  0007EA  0102               	movlb	2	; () banked
  1064  0007EC  6F29               	movwf	41,b	;volatile
  1065                           
  1066                           ;mcc_generated_files/pin_manager.c: 143:     U1RXPPS = 0x29;
  1067  0007EE  0E29               	movlw	41
  1068  0007F0  6F72               	movwf	114,b	;volatile
  1069  0007F2                     
  1070                           ; BSR set to: 2
  1071  0007F2  0012               	return		;funcret
  1072  0007F4                     __end_of_PIN_MANAGER_Initialize:
  1073                           	callstack 0
  1074                           
  1075 ;; *************** function _OSCILLATOR_Initialize *****************
  1076 ;; Defined at:
  1077 ;;		line 59 in file "mcc_generated_files/mcc.c"
  1078 ;; Parameters:    Size  Location     Type
  1079 ;;		None
  1080 ;; Auto vars:     Size  Location     Type
  1081 ;;		None
  1082 ;; Return value:  Size  Location     Type
  1083 ;;                  1    wreg      void 
  1084 ;; Registers used:
  1085 ;;		wreg, status,2
  1086 ;; Tracked objects:
  1087 ;;		On entry : 0/0
  1088 ;;		On exit  : 0/0
  1089 ;;		Unchanged: 0/0
  1090 ;; Data sizes:     COMRAM   BANK5   BANK6   BANK7   BANK8   BANK9  BANK10  BANK11  BANK12  BANK13  BANK14  BANK15  BANK1
      +6  BANK17  BANK18  BANK19  BANK20  BANK21  BANK22  BANK23  BANK24  BANK25  BANK26  BANK27  BANK28  BANK29  BANK30  BANK3
      +1  BANK32  BANK33  BANK34  BANK35  BANK36
  1091 ;;      Params:         0       0       0       0       0       0       0       0       0       0       0       0       
      +0       0       0       0       0       0       0       0       0       0       0       0       0       0       0       
      +0       0       0       0       0       0
  1092 ;;      Locals:         0       0       0       0       0       0       0       0       0       0       0       0       
      +0       0       0       0       0       0       0       0       0       0       0       0       0       0       0       
      +0       0       0       0       0       0
  1093 ;;      Temps:          0       0       0       0       0       0       0       0       0       0       0       0       
      +0       0       0       0       0       0       0       0       0       0       0       0       0       0       0       
      +0       0       0       0       0       0
  1094 ;;      Totals:         0       0       0       0       0       0       0       0       0       0       0       0       
      +0       0       0       0       0       0       0       0       0       0       0       0       0       0       0       
      +0       0       0       0       0       0
  1095 ;;Total ram usage:        0 bytes
  1096 ;; Hardware stack levels used: 1
  1097 ;; Hardware stack levels required when called: 1
  1098 ;; This function calls:
  1099 ;;		Nothing
  1100 ;; This function is called by:
  1101 ;;		_SYSTEM_Initialize
  1102 ;; This function uses a non-reentrant model
  1103 ;;
  1104                           
  1105                           	psect	text8
  1106  000B76                     __ptext8:
  1107                           	callstack 0
  1108  000B76                     _OSCILLATOR_Initialize:
  1109                           	callstack 124
  1110  000B76                     
  1111                           ;mcc_generated_files/mcc.c: 62:     OSCCON1 = 0x60;
  1112  000B76  0E60               	movlw	96
  1113  000B78  0100               	movlb	0	; () banked
  1114  000B7A  6FAD               	movwf	173,b	;volatile
  1115                           
  1116                           ;mcc_generated_files/mcc.c: 64:     OSCCON3 = 0x00;
  1117  000B7C  0E00               	movlw	0
  1118  000B7E  6FAF               	movwf	175,b	;volatile
  1119                           
  1120                           ;mcc_generated_files/mcc.c: 66:     OSCEN = 0x00;
  1121  000B80  0E00               	movlw	0
  1122  000B82  6FB3               	movwf	179,b	;volatile
  1123                           
  1124                           ;mcc_generated_files/mcc.c: 68:     OSCFRQ = 0x08;
  1125  000B84  0E08               	movlw	8
  1126  000B86  6FB1               	movwf	177,b	;volatile
  1127                           
  1128                           ;mcc_generated_files/mcc.c: 70:     OSCTUNE = 0x00;
  1129  000B88  0E00               	movlw	0
  1130  000B8A  6FB0               	movwf	176,b	;volatile
  1131                           
  1132                           ;mcc_generated_files/mcc.c: 72:     ACTCON = 0x00;
  1133  000B8C  0E00               	movlw	0
  1134  000B8E  6FAC               	movwf	172,b	;volatile
  1135  000B90                     
  1136                           ; BSR set to: 0
  1137  000B90  0012               	return		;funcret
  1138  000B92                     __end_of_OSCILLATOR_Initialize:
  1139                           	callstack 0
  1140                           
  1141 ;; *************** function _BOOTLOADER_Initialize *****************
  1142 ;; Defined at:
  1143 ;;		line 123 in file "mcc_generated_files/pic18f_bootload.c"
  1144 ;; Parameters:    Size  Location     Type
  1145 ;;		None
  1146 ;; Auto vars:     Size  Location     Type
  1147 ;;		None
  1148 ;; Return value:  Size  Location     Type
  1149 ;;                  1    wreg      void 
  1150 ;; Registers used:
  1151 ;;		wreg, fsr1l, fsr1h, fsr2l, fsr2h, status,2, status,0, pclath, tosl, cstack
  1152 ;; Tracked objects:
  1153 ;;		On entry : 0/0
  1154 ;;		On exit  : 0/0
  1155 ;;		Unchanged: 0/0
  1156 ;; Data sizes:     COMRAM   BANK5   BANK6   BANK7   BANK8   BANK9  BANK10  BANK11  BANK12  BANK13  BANK14  BANK15  BANK1
      +6  BANK17  BANK18  BANK19  BANK20  BANK21  BANK22  BANK23  BANK24  BANK25  BANK26  BANK27  BANK28  BANK29  BANK30  BANK3
      +1  BANK32  BANK33  BANK34  BANK35  BANK36
  1157 ;;      Params:         0       0       0       0       0       0       0       0       0       0       0       0       
      +0       0       0       0       0       0       0       0       0       0       0       0       0       0       0       
      +0       0       0       0       0       0
  1158 ;;      Locals:         0       0       0       0       0       0       0       0       0       0       0       0       
      +0       0       0       0       0       0       0       0       0       0       0       0       0       0       0       
      +0       0       0       0       0       0
  1159 ;;      Temps:          0       0       0       0       0       0       0       0       0       0       0       0       
      +0       0       0       0       0       0       0       0       0       0       0       0       0       0       0       
      +0       0       0       0       0       0
  1160 ;;      Totals:         0       0       0       0       0       0       0       0       0       0       0       0       
      +0       0       0       0       0       0       0       0       0       0       0       0       0       0       0       
      +0       0       0       0       0       0
  1161 ;;Total ram usage:        0 bytes
  1162 ;; Hardware stack levels used: 1
  1163 ;; Hardware stack levels required when called: 5
  1164 ;; This function calls:
  1165 ;;		_Bootload_Required
  1166 ;;		_Run_Bootloader
  1167 ;; This function is called by:
  1168 ;;		_SYSTEM_Initialize
  1169 ;; This function uses a non-reentrant model
  1170 ;;
  1171                           
  1172                           	psect	text9
  1173  000B24                     __ptext9:
  1174                           	callstack 0
  1175  000B24                     _BOOTLOADER_Initialize:
  1176                           	callstack 120
  1177  000B24                     
  1178                           ;mcc_generated_files/pic18f_bootload.c: 125:     EE_Key_1 = 0;
  1179  000B24  0E00               	movlw	0
  1180  000B26  6E00               	movwf	0,c
  1181                           
  1182                           ;mcc_generated_files/pic18f_bootload.c: 126:     EE_Key_2 = 0;
  1183  000B28  0E00               	movlw	0
  1184  000B2A  6E01               	movwf	1,c
  1185  000B2C                     
  1186                           ;mcc_generated_files/pic18f_bootload.c: 127:     if (Bootload_Required () == 1)
  1187  000B2C  ECFA  F003         	call	_Bootload_Required	;wreg free
  1188  000B30  06E8               	decf	wreg,f,c
  1189  000B32  A4D8               	btfss	status,2,c
  1190  000B34  EF9E  F005         	goto	u691
  1191  000B38  EFA0  F005         	goto	u690
  1192  000B3C                     u691:
  1193  000B3C  EFA2  F005         	goto	l2033
  1194  000B40                     u690:
  1195  000B40                     
  1196                           ;mcc_generated_files/pic18f_bootload.c: 128:     {;mcc_generated_files/pic18f_bootload.c
      +                          : 129:         Run_Bootloader ();
  1197  000B40  EC30  F001         	call	_Run_Bootloader	;wreg free
  1198  000B44                     l2033:
  1199                           
  1200                           ;mcc_generated_files/pic18f_bootload.c: 131:     STKPTR = 0x00;
  1201  000B44  0E00               	movlw	0
  1202  000B46  6EFC               	movwf	252,c	;volatile
  1203  000B48                     
  1204                           ;mcc_generated_files/pic18f_bootload.c: 132:  BSR = 0x00;
  1205  000B48  0E00               	movlw	0
  1206  000B4A  6EE0               	movwf	224,c	;volatile
  1207  000B4C  EF80 F006          	goto	3328	;# 
  1208  000B50  0012               	return		;funcret
  1209  000B52                     __end_of_BOOTLOADER_Initialize:
  1210                           	callstack 0
  1211                           
  1212 ;; *************** function _Run_Bootloader *****************
  1213 ;; Defined at:
  1214 ;;		line 57 in file "mcc_generated_files/pic18f_uart.c"
  1215 ;; Parameters:    Size  Location     Type
  1216 ;;		None
  1217 ;; Auto vars:     Size  Location     Type
  1218 ;;  ch              1   34[COMRAM] unsigned char 
  1219 ;;  index           2   37[COMRAM] volatile unsigned short 
  1220 ;;  msg_length      2   35[COMRAM] unsigned short 
  1221 ;; Return value:  Size  Location     Type
  1222 ;;                  1    wreg      void 
  1223 ;; Registers used:
  1224 ;;		wreg, fsr1l, fsr1h, fsr2l, fsr2h, status,2, status,0, pclath, tosl, cstack
  1225 ;; Tracked objects:
  1226 ;;		On entry : 0/0
  1227 ;;		On exit  : 0/0
  1228 ;;		Unchanged: 0/0
  1229 ;; Data sizes:     COMRAM   BANK5   BANK6   BANK7   BANK8   BANK9  BANK10  BANK11  BANK12  BANK13  BANK14  BANK15  BANK1
      +6  BANK17  BANK18  BANK19  BANK20  BANK21  BANK22  BANK23  BANK24  BANK25  BANK26  BANK27  BANK28  BANK29  BANK30  BANK3
      +1  BANK32  BANK33  BANK34  BANK35  BANK36
  1230 ;;      Params:         0       0       0       0       0       0       0       0       0       0       0       0       
      +0       0       0       0       0       0       0       0       0       0       0       0       0       0       0       
      +0       0       0       0       0       0
  1231 ;;      Locals:         5       0       0       0       0       0       0       0       0       0       0       0       
      +0       0       0       0       0       0       0       0       0       0       0       0       0       0       0       
      +0       0       0       0       0       0
  1232 ;;      Temps:          0       0       0       0       0       0       0       0       0       0       0       0       
      +0       0       0       0       0       0       0       0       0       0       0       0       0       0       0       
      +0       0       0       0       0       0
  1233 ;;      Totals:         5       0       0       0       0       0       0       0       0       0       0       0       
      +0       0       0       0       0       0       0       0       0       0       0       0       0       0       0       
      +0       0       0       0       0       0
  1234 ;;Total ram usage:        5 bytes
  1235 ;; Hardware stack levels used: 1
  1236 ;; Hardware stack levels required when called: 4
  1237 ;; This function calls:
  1238 ;;		_Check_Device_Reset
  1239 ;;		_ProcessBootBuffer
  1240 ;;		_UART1_Read
  1241 ;;		_UART1_Write
  1242 ;; This function is called by:
  1243 ;;		_BOOTLOADER_Initialize
  1244 ;; This function uses a non-reentrant model
  1245 ;;
  1246                           
  1247                           	psect	text10
  1248  000260                     __ptext10:
  1249                           	callstack 0
  1250  000260                     _Run_Bootloader:
  1251                           	callstack 120
  1252  000260                     l229:
  1253  000260                     l230:
  1254  000260  0102               	movlb	2	; () banked
  1255  000262  AFB2               	btfss	178,7,b	;volatile
  1256  000264  EF36  F001         	goto	u571
  1257  000268  EF38  F001         	goto	u570
  1258  00026C                     u571:
  1259  00026C  EF30  F001         	goto	l230
  1260  000270                     u570:
  1261  000270                     
  1262                           ; BSR set to: 2
  1263                           ;mcc_generated_files/pic18f_uart.c: 66:         Check_Device_Reset ();
  1264  000270  ECE0  F005         	call	_Check_Device_Reset	;wreg free
  1265  000274                     
  1266                           ;mcc_generated_files/pic18f_uart.c: 71:         U1CON0bits.ABDEN = 1;
  1267  000274  0102               	movlb	2	; () banked
  1268  000276  8DAB               	bsf	171,6,b	;volatile
  1269                           
  1270                           ;mcc_generated_files/pic18f_uart.c: 72:         while (U1CON0bits.ABDEN == 1)
  1271  000278  EF48  F001         	goto	l233
  1272  00027C                     l234:
  1273                           
  1274                           ; BSR set to: 2
  1275                           ;mcc_generated_files/pic18f_uart.c: 73:         {;mcc_generated_files/pic18f_uart.c: 74:
      +                                       if (U1ERRIRbits.ABDOVF == 1)
  1276  00027C  ABB2               	btfss	178,5,b	;volatile
  1277  00027E  EF43  F001         	goto	u581
  1278  000282  EF45  F001         	goto	u580
  1279  000286                     u581:
  1280  000286  EF48  F001         	goto	l233
  1281  00028A                     u580:
  1282  00028A                     
  1283                           ; BSR set to: 2
  1284                           ;mcc_generated_files/pic18f_uart.c: 75:             {;mcc_generated_files/pic18f_uart.c:
      +                           76:                 U1CON0bits.ABDEN = 0;
  1285  00028A  9DAB               	bcf	171,6,b	;volatile
  1286                           
  1287                           ;mcc_generated_files/pic18f_uart.c: 77:                 U1ERRIRbits.ABDOVF = 0;
  1288  00028C  9BB2               	bcf	178,5,b	;volatile
  1289                           
  1290                           ;mcc_generated_files/pic18f_uart.c: 78:                 U1CON0bits.ABDEN = 1;
  1291  00028E  8DAB               	bsf	171,6,b	;volatile
  1292  000290                     l233:
  1293                           
  1294                           ; BSR set to: 2
  1295                           ;mcc_generated_files/pic18f_uart.c: 72:         while (U1CON0bits.ABDEN == 1)
  1296  000290  BDAB               	btfsc	171,6,b	;volatile
  1297  000292  EF4D  F001         	goto	u591
  1298  000296  EF4F  F001         	goto	u590
  1299  00029A                     u591:
  1300  00029A  EF3E  F001         	goto	l234
  1301  00029E                     u590:
  1302  00029E                     
  1303                           ; BSR set to: 2
  1304                           ;mcc_generated_files/pic18f_uart.c: 86:         index = 0;
  1305  00029E  0E00               	movlw	0
  1306  0002A0  6E28               	movwf	(Run_Bootloader@index+1)^(0+1280),c	;volatile
  1307  0002A2  0E00               	movlw	0
  1308  0002A4  6E27               	movwf	Run_Bootloader@index^(0+1280),c	;volatile
  1309                           
  1310                           ;mcc_generated_files/pic18f_uart.c: 87:         msg_length = 9;
  1311  0002A6  0E00               	movlw	0
  1312  0002A8  6E26               	movwf	(Run_Bootloader@msg_length+1)^(0+1280),c
  1313  0002AA  0E09               	movlw	9
  1314  0002AC  6E25               	movwf	Run_Bootloader@msg_length^(0+1280),c
  1315                           
  1316                           ;mcc_generated_files/pic18f_uart.c: 88:         uint8_t ch;;mcc_generated_files/pic18f_u
      +                          art.c: 90:         while (index < msg_length)
  1317  0002AE  EF98  F001         	goto	l1971
  1318  0002B2                     l1955:
  1319                           
  1320                           ;mcc_generated_files/pic18f_uart.c: 91:         {;mcc_generated_files/pic18f_uart.c: 92:
      +                                       ch = UART1_Read();
  1321  0002B2  EC48  F004         	call	_UART1_Read	;wreg free
  1322  0002B6  6E24               	movwf	Run_Bootloader@ch^(0+1280),c
  1323  0002B8                     
  1324                           ;mcc_generated_files/pic18f_uart.c: 93:             frame.buffer [index ++] = ch;
  1325  0002B8  0EF7               	movlw	low _frame
  1326  0002BA  2427               	addwf	Run_Bootloader@index^(0+1280),w,c	;volatile
  1327  0002BC  6ED9               	movwf	fsr2l,c
  1328  0002BE  0E23               	movlw	high _frame
  1329  0002C0  2028               	addwfc	(Run_Bootloader@index+1)^(0+1280),w,c	;volatile
  1330  0002C2  6EDA               	movwf	fsr2h,c
  1331  0002C4  0061  F490  F4DF   	movff	Run_Bootloader@ch,indf2
  1332  0002CA  4A27               	infsnz	Run_Bootloader@index^(0+1280),f,c	;volatile
  1333  0002CC  2A28               	incf	(Run_Bootloader@index+1)^(0+1280),f,c	;volatile
  1334  0002CE                     
  1335                           ;mcc_generated_files/pic18f_uart.c: 94:             if (index == 4)
  1336  0002CE  0E04               	movlw	4
  1337  0002D0  1827               	xorwf	Run_Bootloader@index^(0+1280),w,c	;volatile
  1338  0002D2  1028               	iorwf	(Run_Bootloader@index+1)^(0+1280),w,c	;volatile
  1339  0002D4  A4D8               	btfss	status,2,c
  1340  0002D6  EF6F  F001         	goto	u601
  1341  0002DA  EF71  F001         	goto	u600
  1342  0002DE                     u601:
  1343  0002DE  EF98  F001         	goto	l1971
  1344  0002E2                     u600:
  1345  0002E2                     
  1346                           ;mcc_generated_files/pic18f_uart.c: 95:             {;mcc_generated_files/pic18f_uart.c:
      +                           96:                 if ((frame.command == 2)
  1347  0002E2  0068  FFDC  F4E8   	movff	_frame,wreg
  1348  0002E8  0A02               	xorlw	2
  1349  0002EA  B4D8               	btfsc	status,2,c
  1350  0002EC  EF7A  F001         	goto	u611
  1351  0002F0  EF7C  F001         	goto	u610
  1352  0002F4                     u611:
  1353  0002F4  EF92  F001         	goto	l1969
  1354  0002F8                     u610:
  1355  0002F8  0068  FFDC  F4E8   	movff	_frame,wreg
  1356  0002FE  0A05               	xorlw	5
  1357  000300  B4D8               	btfsc	status,2,c
  1358  000302  EF85  F001         	goto	u621
  1359  000306  EF87  F001         	goto	u620
  1360  00030A                     u621:
  1361  00030A  EF92  F001         	goto	l1969
  1362  00030E                     u620:
  1363  00030E  0068  FFDC  F4E8   	movff	_frame,wreg
  1364  000314  0A07               	xorlw	7
  1365  000316  A4D8               	btfss	status,2,c
  1366  000318  EF90  F001         	goto	u631
  1367  00031C  EF92  F001         	goto	u630
  1368  000320                     u631:
  1369  000320  EF98  F001         	goto	l1971
  1370  000324                     u630:
  1371  000324                     l1969:
  1372                           
  1373                           ;mcc_generated_files/pic18f_uart.c: 99:                 {;mcc_generated_files/pic18f_uar
      +                          t.c: 100:                     msg_length += frame.data_length;
  1374  000324  EE28  F3F8         	lfsr	2,_frame+1
  1375  000328  50DE               	movf	postinc2,w,c
  1376  00032A  2625               	addwf	Run_Bootloader@msg_length^(0+1280),f,c
  1377  00032C  50DD               	movf	postdec2,w,c
  1378  00032E  2226               	addwfc	(Run_Bootloader@msg_length+1)^(0+1280),f,c
  1379  000330                     l1971:
  1380                           
  1381                           ;mcc_generated_files/pic18f_uart.c: 90:         while (index < msg_length)
  1382  000330  5025               	movf	Run_Bootloader@msg_length^(0+1280),w,c
  1383  000332  5C27               	subwf	Run_Bootloader@index^(0+1280),w,c	;volatile
  1384  000334  5026               	movf	(Run_Bootloader@msg_length+1)^(0+1280),w,c
  1385  000336  5828               	subwfb	(Run_Bootloader@index+1)^(0+1280),w,c	;volatile
  1386  000338  A0D8               	btfss	status,0,c
  1387  00033A  EFA1  F001         	goto	u641
  1388  00033E  EFA3  F001         	goto	u640
  1389  000342                     u641:
  1390  000342  EF59  F001         	goto	l1955
  1391  000346                     u640:
  1392  000346                     
  1393                           ;mcc_generated_files/pic18f_uart.c: 105:         msg_length = ProcessBootBuffer ();
  1394  000346  EC60  F002         	call	_ProcessBootBuffer	;wreg free
  1395  00034A  C51E  F525         	movff	?_ProcessBootBuffer,Run_Bootloader@msg_length
  1396  00034E  C51F  F526         	movff	?_ProcessBootBuffer+1,Run_Bootloader@msg_length+1
  1397  000352                     
  1398                           ;mcc_generated_files/pic18f_uart.c: 110:         UART1_Write(0x55);
  1399  000352  0E55               	movlw	85
  1400  000354  ECC9  F005         	call	_UART1_Write
  1401  000358                     
  1402                           ;mcc_generated_files/pic18f_uart.c: 111:         index = 0;
  1403  000358  0E00               	movlw	0
  1404  00035A  6E28               	movwf	(Run_Bootloader@index+1)^(0+1280),c	;volatile
  1405  00035C  0E00               	movlw	0
  1406  00035E  6E27               	movwf	Run_Bootloader@index^(0+1280),c	;volatile
  1407                           
  1408                           ;mcc_generated_files/pic18f_uart.c: 112:         while (index < msg_length)
  1409  000360  EFBD  F001         	goto	l1983
  1410  000364                     l1979:
  1411                           
  1412                           ;mcc_generated_files/pic18f_uart.c: 113:         {;mcc_generated_files/pic18f_uart.c: 11
      +                          4:             UART1_Write (frame.buffer [index++]);
  1413  000364  0EF7               	movlw	low _frame
  1414  000366  2427               	addwf	Run_Bootloader@index^(0+1280),w,c	;volatile
  1415  000368  6ED9               	movwf	fsr2l,c
  1416  00036A  0E23               	movlw	high _frame
  1417  00036C  2028               	addwfc	(Run_Bootloader@index+1)^(0+1280),w,c	;volatile
  1418  00036E  6EDA               	movwf	fsr2h,c
  1419  000370  50DF               	movf	indf2,w,c
  1420  000372  ECC9  F005         	call	_UART1_Write
  1421  000376  4A27               	infsnz	Run_Bootloader@index^(0+1280),f,c	;volatile
  1422  000378  2A28               	incf	(Run_Bootloader@index+1)^(0+1280),f,c	;volatile
  1423  00037A                     l1983:
  1424                           
  1425                           ;mcc_generated_files/pic18f_uart.c: 112:         while (index < msg_length)
  1426  00037A  5025               	movf	Run_Bootloader@msg_length^(0+1280),w,c
  1427  00037C  5C27               	subwf	Run_Bootloader@index^(0+1280),w,c	;volatile
  1428  00037E  5026               	movf	(Run_Bootloader@msg_length+1)^(0+1280),w,c
  1429  000380  5828               	subwfb	(Run_Bootloader@index+1)^(0+1280),w,c	;volatile
  1430  000382  A0D8               	btfss	status,0,c
  1431  000384  EFC6  F001         	goto	u651
  1432  000388  EFC8  F001         	goto	u650
  1433  00038C                     u651:
  1434  00038C  EFB2  F001         	goto	l1979
  1435  000390                     u650:
  1436  000390  EF30  F001         	goto	l229
  1437  000394  0012               	return		;funcret
  1438  000396                     __end_of_Run_Bootloader:
  1439                           	callstack 0
  1440                           
  1441 ;; *************** function _UART1_Write *****************
  1442 ;; Defined at:
  1443 ;;		line 170 in file "mcc_generated_files/uart1.c"
  1444 ;; Parameters:    Size  Location     Type
  1445 ;;  txData          1    wreg     unsigned char 
  1446 ;; Auto vars:     Size  Location     Type
  1447 ;;  txData          1    0[COMRAM] unsigned char 
  1448 ;; Return value:  Size  Location     Type
  1449 ;;                  1    wreg      void 
  1450 ;; Registers used:
  1451 ;;		wreg
  1452 ;; Tracked objects:
  1453 ;;		On entry : 0/0
  1454 ;;		On exit  : 0/0
  1455 ;;		Unchanged: 0/0
  1456 ;; Data sizes:     COMRAM   BANK5   BANK6   BANK7   BANK8   BANK9  BANK10  BANK11  BANK12  BANK13  BANK14  BANK15  BANK1
      +6  BANK17  BANK18  BANK19  BANK20  BANK21  BANK22  BANK23  BANK24  BANK25  BANK26  BANK27  BANK28  BANK29  BANK30  BANK3
      +1  BANK32  BANK33  BANK34  BANK35  BANK36
  1457 ;;      Params:         0       0       0       0       0       0       0       0       0       0       0       0       
      +0       0       0       0       0       0       0       0       0       0       0       0       0       0       0       
      +0       0       0       0       0       0
  1458 ;;      Locals:         1       0       0       0       0       0       0       0       0       0       0       0       
      +0       0       0       0       0       0       0       0       0       0       0       0       0       0       0       
      +0       0       0       0       0       0
  1459 ;;      Temps:          0       0       0       0       0       0       0       0       0       0       0       0       
      +0       0       0       0       0       0       0       0       0       0       0       0       0       0       0       
      +0       0       0       0       0       0
  1460 ;;      Totals:         1       0       0       0       0       0       0       0       0       0       0       0       
      +0       0       0       0       0       0       0       0       0       0       0       0       0       0       0       
      +0       0       0       0       0       0
  1461 ;;Total ram usage:        1 bytes
  1462 ;; Hardware stack levels used: 1
  1463 ;; Hardware stack levels required when called: 1
  1464 ;; This function calls:
  1465 ;;		Nothing
  1466 ;; This function is called by:
  1467 ;;		_Run_Bootloader
  1468 ;; This function uses a non-reentrant model
  1469 ;;
  1470                           
  1471                           	psect	text11
  1472  000B92                     __ptext11:
  1473                           	callstack 0
  1474  000B92                     _UART1_Write:
  1475                           	callstack 122
  1476                           
  1477                           ;incstack = 0
  1478                           ;UART1_Write@txData stored from wreg
  1479  000B92  6E02               	movwf	UART1_Write@txData^(0+1280),c
  1480  000B94                     l191:
  1481                           
  1482                           ;mcc_generated_files/uart1.c: 172:     while(0 == PIR4bits.U1TXIF)
  1483  000B94  A2B2               	btfss	178,1,c	;volatile
  1484  000B96  EFCF  F005         	goto	u201
  1485  000B9A  EFD1  F005         	goto	u200
  1486  000B9E                     u201:
  1487  000B9E  EFCA  F005         	goto	l191
  1488  000BA2                     u200:
  1489  000BA2                     
  1490                           ;mcc_generated_files/uart1.c: 176:     U1TXB = txData;
  1491  000BA2  0061  F408  F2A3   	movff	UART1_Write@txData,675	;volatile
  1492  000BA8  0012               	return		;funcret
  1493  000BAA                     __end_of_UART1_Write:
  1494                           	callstack 0
  1495                           
  1496 ;; *************** function _UART1_Read *****************
  1497 ;; Defined at:
  1498 ;;		line 145 in file "mcc_generated_files/uart1.c"
  1499 ;; Parameters:    Size  Location     Type
  1500 ;;		None
  1501 ;; Auto vars:     Size  Location     Type
  1502 ;;		None
  1503 ;; Return value:  Size  Location     Type
  1504 ;;                  1    wreg      unsigned char 
  1505 ;; Registers used:
  1506 ;;		wreg, status,2, pclath, tosl, cstack
  1507 ;; Tracked objects:
  1508 ;;		On entry : 0/0
  1509 ;;		On exit  : 0/0
  1510 ;;		Unchanged: 0/0
  1511 ;; Data sizes:     COMRAM   BANK5   BANK6   BANK7   BANK8   BANK9  BANK10  BANK11  BANK12  BANK13  BANK14  BANK15  BANK1
      +6  BANK17  BANK18  BANK19  BANK20  BANK21  BANK22  BANK23  BANK24  BANK25  BANK26  BANK27  BANK28  BANK29  BANK30  BANK3
      +1  BANK32  BANK33  BANK34  BANK35  BANK36
  1512 ;;      Params:         0       0       0       0       0       0       0       0       0       0       0       0       
      +0       0       0       0       0       0       0       0       0       0       0       0       0       0       0       
      +0       0       0       0       0       0
  1513 ;;      Locals:         0       0       0       0       0       0       0       0       0       0       0       0       
      +0       0       0       0       0       0       0       0       0       0       0       0       0       0       0       
      +0       0       0       0       0       0
  1514 ;;      Temps:          0       0       0       0       0       0       0       0       0       0       0       0       
      +0       0       0       0       0       0       0       0       0       0       0       0       0       0       0       
      +0       0       0       0       0       0
  1515 ;;      Totals:         0       0       0       0       0       0       0       0       0       0       0       0       
      +0       0       0       0       0       0       0       0       0       0       0       0       0       0       0       
      +0       0       0       0       0       0
  1516 ;;Total ram usage:        0 bytes
  1517 ;; Hardware stack levels used: 1
  1518 ;; Hardware stack levels required when called: 2
  1519 ;; This function calls:
  1520 ;;		Absolute function
  1521 ;;		_UART1_DefaultErrorHandler
  1522 ;;		_UART1_DefaultFramingErrorHandler
  1523 ;;		_UART1_DefaultOverrunErrorHandler
  1524 ;; This function is called by:
  1525 ;;		_Run_Bootloader
  1526 ;; This function uses a non-reentrant model
  1527 ;;
  1528                           
  1529                           	psect	text12
  1530  000890                     __ptext12:
  1531                           	callstack 0
  1532  000890                     _UART1_Read:
  1533                           	callstack 121
  1534  000890                     l182:
  1535                           
  1536                           ;mcc_generated_files/uart1.c: 147:     while(!PIR4bits.U1RXIF)
  1537  000890  A0B2               	btfss	178,0,c	;volatile
  1538  000892  EF4D  F004         	goto	u131
  1539  000896  EF4F  F004         	goto	u130
  1540  00089A                     u131:
  1541  00089A  EF48  F004         	goto	l182
  1542  00089E                     u130:
  1543  00089E                     
  1544                           ;mcc_generated_files/uart1.c: 151:     uart1RxLastError.status = 0;
  1545  00089E  0E00               	movlw	0
  1546  0008A0  6E30               	movwf	_uart1RxLastError^(0+1280),c	;volatile
  1547  0008A2                     
  1548                           ;mcc_generated_files/uart1.c: 153:     if(U1ERRIRbits.FERIF){
  1549  0008A2  0102               	movlb	2	; () banked
  1550  0008A4  A7B2               	btfss	178,3,b	;volatile
  1551  0008A6  EF57  F004         	goto	u141
  1552  0008AA  EF59  F004         	goto	u140
  1553  0008AE                     u141:
  1554  0008AE  EF67  F004         	goto	l1393
  1555  0008B2                     u140:
  1556  0008B2                     
  1557                           ; BSR set to: 2
  1558                           ;mcc_generated_files/uart1.c: 154:         uart1RxLastError.ferr = 1;
  1559  0008B2  8230               	bsf	_uart1RxLastError^(0+1280),1,c	;volatile
  1560  0008B4                     
  1561                           ; BSR set to: 2
  1562                           ;mcc_generated_files/uart1.c: 155:         UART1_FramingErrorHandler();
  1563  0008B4  D802               	call	u158
  1564  0008B6  EF67  F004         	goto	u159
  1565  0008BA                     u158:
  1566  0008BA  0005               	push	
  1567  0008BC  6EFA               	movwf	pclath,c
  1568  0008BE  5035               	movf	_UART1_FramingErrorHandler^(0+1280),w,c
  1569  0008C0  6EFD               	movwf	tosl,c
  1570  0008C2  5036               	movf	(_UART1_FramingErrorHandler+1)^(0+1280),w,c
  1571  0008C4  6EFE               	movwf	tosh,c
  1572  0008C6  50F8               	movf	tblptru,w,c
  1573  0008C8  6EFF               	movwf	tosu,c
  1574  0008CA  50FA               	movf	pclath,w,c
  1575  0008CC  0012               	return		;indir
  1576  0008CE                     u159:
  1577  0008CE                     l1393:
  1578                           
  1579                           ;mcc_generated_files/uart1.c: 158:     if(U1ERRIRbits.RXFOIF){
  1580  0008CE  0102               	movlb	2	; () banked
  1581  0008D0  A3B2               	btfss	178,1,b	;volatile
  1582  0008D2  EF6D  F004         	goto	u161
  1583  0008D6  EF6F  F004         	goto	u160
  1584  0008DA                     u161:
  1585  0008DA  EF7D  F004         	goto	l1399
  1586  0008DE                     u160:
  1587  0008DE                     
  1588                           ; BSR set to: 2
  1589                           ;mcc_generated_files/uart1.c: 159:         uart1RxLastError.oerr = 1;
  1590  0008DE  8430               	bsf	_uart1RxLastError^(0+1280),2,c	;volatile
  1591  0008E0                     
  1592                           ; BSR set to: 2
  1593                           ;mcc_generated_files/uart1.c: 160:         UART1_OverrunErrorHandler();
  1594  0008E0  D802               	call	u178
  1595  0008E2  EF7D  F004         	goto	u179
  1596  0008E6                     u178:
  1597  0008E6  0005               	push	
  1598  0008E8  6EFA               	movwf	pclath,c
  1599  0008EA  5033               	movf	_UART1_OverrunErrorHandler^(0+1280),w,c
  1600  0008EC  6EFD               	movwf	tosl,c
  1601  0008EE  5034               	movf	(_UART1_OverrunErrorHandler+1)^(0+1280),w,c
  1602  0008F0  6EFE               	movwf	tosh,c
  1603  0008F2  50F8               	movf	tblptru,w,c
  1604  0008F4  6EFF               	movwf	tosu,c
  1605  0008F6  50FA               	movf	pclath,w,c
  1606  0008F8  0012               	return		;indir
  1607  0008FA                     u179:
  1608  0008FA                     l1399:
  1609                           
  1610                           ;mcc_generated_files/uart1.c: 163:     if(uart1RxLastError.status){
  1611  0008FA  5030               	movf	_uart1RxLastError^(0+1280),w,c	;volatile
  1612  0008FC  B4D8               	btfsc	status,2,c
  1613  0008FE  EF83  F004         	goto	u181
  1614  000902  EF85  F004         	goto	u180
  1615  000906                     u181:
  1616  000906  EF92  F004         	goto	l1403
  1617  00090A                     u180:
  1618  00090A                     
  1619                           ;mcc_generated_files/uart1.c: 164:         UART1_ErrorHandler();
  1620  00090A  D802               	call	u198
  1621  00090C  EF92  F004         	goto	u199
  1622  000910                     u198:
  1623  000910  0005               	push	
  1624  000912  6EFA               	movwf	pclath,c
  1625  000914  5031               	movf	_UART1_ErrorHandler^(0+1280),w,c
  1626  000916  6EFD               	movwf	tosl,c
  1627  000918  5032               	movf	(_UART1_ErrorHandler+1)^(0+1280),w,c
  1628  00091A  6EFE               	movwf	tosh,c
  1629  00091C  50F8               	movf	tblptru,w,c
  1630  00091E  6EFF               	movwf	tosu,c
  1631  000920  50FA               	movf	pclath,w,c
  1632  000922  0012               	return		;indir
  1633  000924                     u199:
  1634  000924                     l1403:
  1635                           
  1636                           ;mcc_generated_files/uart1.c: 167:     return U1RXB;
  1637  000924  0102               	movlb	2	; () banked
  1638  000926  51A1               	movf	161,w,b	;volatile
  1639  000928                     
  1640                           ; BSR set to: 2
  1641  000928  0012               	return		;funcret
  1642  00092A                     __end_of_UART1_Read:
  1643                           	callstack 0
  1644                           
  1645 ;; *************** function _UART1_DefaultOverrunErrorHandler *****************
  1646 ;; Defined at:
  1647 ;;		line 185 in file "mcc_generated_files/uart1.c"
  1648 ;; Parameters:    Size  Location     Type
  1649 ;;		None
  1650 ;; Auto vars:     Size  Location     Type
  1651 ;;		None
  1652 ;; Return value:  Size  Location     Type
  1653 ;;                  1    wreg      void 
  1654 ;; Registers used:
  1655 ;;		None
  1656 ;; Tracked objects:
  1657 ;;		On entry : 0/0
  1658 ;;		On exit  : 0/0
  1659 ;;		Unchanged: 0/0
  1660 ;; Data sizes:     COMRAM   BANK5   BANK6   BANK7   BANK8   BANK9  BANK10  BANK11  BANK12  BANK13  BANK14  BANK15  BANK1
      +6  BANK17  BANK18  BANK19  BANK20  BANK21  BANK22  BANK23  BANK24  BANK25  BANK26  BANK27  BANK28  BANK29  BANK30  BANK3
      +1  BANK32  BANK33  BANK34  BANK35  BANK36
  1661 ;;      Params:         0       0       0       0       0       0       0       0       0       0       0       0       
      +0       0       0       0       0       0       0       0       0       0       0       0       0       0       0       
      +0       0       0       0       0       0
  1662 ;;      Locals:         0       0       0       0       0       0       0       0       0       0       0       0       
      +0       0       0       0       0       0       0       0       0       0       0       0       0       0       0       
      +0       0       0       0       0       0
  1663 ;;      Temps:          0       0       0       0       0       0       0       0       0       0       0       0       
      +0       0       0       0       0       0       0       0       0       0       0       0       0       0       0       
      +0       0       0       0       0       0
  1664 ;;      Totals:         0       0       0       0       0       0       0       0       0       0       0       0       
      +0       0       0       0       0       0       0       0       0       0       0       0       0       0       0       
      +0       0       0       0       0       0
  1665 ;;Total ram usage:        0 bytes
  1666 ;; Hardware stack levels used: 1
  1667 ;; Hardware stack levels required when called: 1
  1668 ;; This function calls:
  1669 ;;		Nothing
  1670 ;; This function is called by:
  1671 ;;		_UART1_Initialize
  1672 ;;		_UART1_Read
  1673 ;; This function uses a non-reentrant model
  1674 ;;
  1675                           
  1676                           	psect	text13
  1677  000C18                     __ptext13:
  1678                           	callstack 0
  1679  000C18                     _UART1_DefaultOverrunErrorHandler:
  1680                           	callstack 121
  1681  000C18  0012               	return		;funcret
  1682  000C1A                     __end_of_UART1_DefaultOverrunErrorHandler:
  1683                           	callstack 0
  1684                           
  1685 ;; *************** function _UART1_DefaultFramingErrorHandler *****************
  1686 ;; Defined at:
  1687 ;;		line 183 in file "mcc_generated_files/uart1.c"
  1688 ;; Parameters:    Size  Location     Type
  1689 ;;		None
  1690 ;; Auto vars:     Size  Location     Type
  1691 ;;		None
  1692 ;; Return value:  Size  Location     Type
  1693 ;;                  1    wreg      void 
  1694 ;; Registers used:
  1695 ;;		None
  1696 ;; Tracked objects:
  1697 ;;		On entry : 0/0
  1698 ;;		On exit  : 0/0
  1699 ;;		Unchanged: 0/0
  1700 ;; Data sizes:     COMRAM   BANK5   BANK6   BANK7   BANK8   BANK9  BANK10  BANK11  BANK12  BANK13  BANK14  BANK15  BANK1
      +6  BANK17  BANK18  BANK19  BANK20  BANK21  BANK22  BANK23  BANK24  BANK25  BANK26  BANK27  BANK28  BANK29  BANK30  BANK3
      +1  BANK32  BANK33  BANK34  BANK35  BANK36
  1701 ;;      Params:         0       0       0       0       0       0       0       0       0       0       0       0       
      +0       0       0       0       0       0       0       0       0       0       0       0       0       0       0       
      +0       0       0       0       0       0
  1702 ;;      Locals:         0       0       0       0       0       0       0       0       0       0       0       0       
      +0       0       0       0       0       0       0       0       0       0       0       0       0       0       0       
      +0       0       0       0       0       0
  1703 ;;      Temps:          0       0       0       0       0       0       0       0       0       0       0       0       
      +0       0       0       0       0       0       0       0       0       0       0       0       0       0       0       
      +0       0       0       0       0       0
  1704 ;;      Totals:         0       0       0       0       0       0       0       0       0       0       0       0       
      +0       0       0       0       0       0       0       0       0       0       0       0       0       0       0       
      +0       0       0       0       0       0
  1705 ;;Total ram usage:        0 bytes
  1706 ;; Hardware stack levels used: 1
  1707 ;; Hardware stack levels required when called: 1
  1708 ;; This function calls:
  1709 ;;		Nothing
  1710 ;; This function is called by:
  1711 ;;		_UART1_Initialize
  1712 ;;		_UART1_Read
  1713 ;; This function uses a non-reentrant model
  1714 ;;
  1715                           
  1716                           	psect	text14
  1717  000C1A                     __ptext14:
  1718                           	callstack 0
  1719  000C1A                     _UART1_DefaultFramingErrorHandler:
  1720                           	callstack 121
  1721  000C1A  0012               	return		;funcret
  1722  000C1C                     __end_of_UART1_DefaultFramingErrorHandler:
  1723                           	callstack 0
  1724                           
  1725 ;; *************** function _UART1_DefaultErrorHandler *****************
  1726 ;; Defined at:
  1727 ;;		line 187 in file "mcc_generated_files/uart1.c"
  1728 ;; Parameters:    Size  Location     Type
  1729 ;;		None
  1730 ;; Auto vars:     Size  Location     Type
  1731 ;;		None
  1732 ;; Return value:  Size  Location     Type
  1733 ;;                  1    wreg      void 
  1734 ;; Registers used:
  1735 ;;		None
  1736 ;; Tracked objects:
  1737 ;;		On entry : 0/0
  1738 ;;		On exit  : 0/0
  1739 ;;		Unchanged: 0/0
  1740 ;; Data sizes:     COMRAM   BANK5   BANK6   BANK7   BANK8   BANK9  BANK10  BANK11  BANK12  BANK13  BANK14  BANK15  BANK1
      +6  BANK17  BANK18  BANK19  BANK20  BANK21  BANK22  BANK23  BANK24  BANK25  BANK26  BANK27  BANK28  BANK29  BANK30  BANK3
      +1  BANK32  BANK33  BANK34  BANK35  BANK36
  1741 ;;      Params:         0       0       0       0       0       0       0       0       0       0       0       0       
      +0       0       0       0       0       0       0       0       0       0       0       0       0       0       0       
      +0       0       0       0       0       0
  1742 ;;      Locals:         0       0       0       0       0       0       0       0       0       0       0       0       
      +0       0       0       0       0       0       0       0       0       0       0       0       0       0       0       
      +0       0       0       0       0       0
  1743 ;;      Temps:          0       0       0       0       0       0       0       0       0       0       0       0       
      +0       0       0       0       0       0       0       0       0       0       0       0       0       0       0       
      +0       0       0       0       0       0
  1744 ;;      Totals:         0       0       0       0       0       0       0       0       0       0       0       0       
      +0       0       0       0       0       0       0       0       0       0       0       0       0       0       0       
      +0       0       0       0       0       0
  1745 ;;Total ram usage:        0 bytes
  1746 ;; Hardware stack levels used: 1
  1747 ;; Hardware stack levels required when called: 1
  1748 ;; This function calls:
  1749 ;;		Nothing
  1750 ;; This function is called by:
  1751 ;;		_UART1_Initialize
  1752 ;;		_UART1_Read
  1753 ;; This function uses a non-reentrant model
  1754 ;;
  1755                           
  1756                           	psect	text15
  1757  000C1C                     __ptext15:
  1758                           	callstack 0
  1759  000C1C                     _UART1_DefaultErrorHandler:
  1760                           	callstack 121
  1761  000C1C  0012               	return		;funcret
  1762  000C1E                     __end_of_UART1_DefaultErrorHandler:
  1763                           	callstack 0
  1764                           
  1765 ;; *************** function _ProcessBootBuffer *****************
  1766 ;; Defined at:
  1767 ;;		line 177 in file "mcc_generated_files/pic18f_bootload.c"
  1768 ;; Parameters:    Size  Location     Type
  1769 ;;		None
  1770 ;; Auto vars:     Size  Location     Type
  1771 ;;  len             2   32[COMRAM] unsigned short 
  1772 ;; Return value:  Size  Location     Type
  1773 ;;                  2   28[COMRAM] unsigned short 
  1774 ;; Registers used:
  1775 ;;		wreg, fsr1l, fsr1h, fsr2l, fsr2h, status,2, status,0, cstack
  1776 ;; Tracked objects:
  1777 ;;		On entry : 0/0
  1778 ;;		On exit  : 0/0
  1779 ;;		Unchanged: 0/0
  1780 ;; Data sizes:     COMRAM   BANK5   BANK6   BANK7   BANK8   BANK9  BANK10  BANK11  BANK12  BANK13  BANK14  BANK15  BANK1
      +6  BANK17  BANK18  BANK19  BANK20  BANK21  BANK22  BANK23  BANK24  BANK25  BANK26  BANK27  BANK28  BANK29  BANK30  BANK3
      +1  BANK32  BANK33  BANK34  BANK35  BANK36
  1781 ;;      Params:         2       0       0       0       0       0       0       0       0       0       0       0       
      +0       0       0       0       0       0       0       0       0       0       0       0       0       0       0       
      +0       0       0       0       0       0
  1782 ;;      Locals:         2       0       0       0       0       0       0       0       0       0       0       0       
      +0       0       0       0       0       0       0       0       0       0       0       0       0       0       0       
      +0       0       0       0       0       0
  1783 ;;      Temps:          2       0       0       0       0       0       0       0       0       0       0       0       
      +0       0       0       0       0       0       0       0       0       0       0       0       0       0       0       
      +0       0       0       0       0       0
  1784 ;;      Totals:         6       0       0       0       0       0       0       0       0       0       0       0       
      +0       0       0       0       0       0       0       0       0       0       0       0       0       0       0       
      +0       0       0       0       0       0
  1785 ;;Total ram usage:        6 bytes
  1786 ;; Hardware stack levels used: 1
  1787 ;; Hardware stack levels required when called: 3
  1788 ;; This function calls:
  1789 ;;		_Calc_Checksum
  1790 ;;		_Erase_Flash
  1791 ;;		_Get_Version_Data
  1792 ;;		_Read_Config
  1793 ;;		_Write_Config
  1794 ;;		_Write_Flash
  1795 ;; This function is called by:
  1796 ;;		_Run_Bootloader
  1797 ;; This function uses a non-reentrant model
  1798 ;;
  1799                           
  1800                           	psect	text16
  1801  0004C0                     __ptext16:
  1802                           	callstack 0
  1803  0004C0                     _ProcessBootBuffer:
  1804                           	callstack 120
  1805  0004C0                     
  1806                           ;mcc_generated_files/pic18f_bootload.c: 179:     uint16_t len;;mcc_generated_files/pic18
      +                          f_bootload.c: 180:     EE_Key_1 = frame.EE_key_1;
  1807  0004C0  0068  FFE8  F500   	movff	_frame+3,1280
  1808                           
  1809                           ;mcc_generated_files/pic18f_bootload.c: 181:     EE_Key_2 = frame.EE_key_2;
  1810  0004C6  0068  FFEC  F501   	movff	_frame+4,1281
  1811                           
  1812                           ;mcc_generated_files/pic18f_bootload.c: 184:     switch (frame.command)
  1813  0004CC  EFAE  F002         	goto	l1935
  1814  0004D0                     l1919:
  1815                           
  1816                           ;mcc_generated_files/pic18f_bootload.c: 187:         len = Get_Version_Data();
  1817  0004D0  EC4D  F003         	call	_Get_Version_Data	;wreg free
  1818  0004D4  C502  F522         	movff	?_Get_Version_Data,ProcessBootBuffer@len
  1819  0004D8  C503  F523         	movff	?_Get_Version_Data+1,ProcessBootBuffer@len+1
  1820                           
  1821                           ;mcc_generated_files/pic18f_bootload.c: 188:         break;
  1822  0004DC  EFD9  F002         	goto	l457
  1823  0004E0                     l1921:
  1824                           
  1825                           ;mcc_generated_files/pic18f_bootload.c: 190:         len = Write_Flash();
  1826  0004E0  EC83  F000         	call	_Write_Flash	;wreg free
  1827  0004E4  C507  F522         	movff	?_Write_Flash,ProcessBootBuffer@len
  1828  0004E8  C508  F523         	movff	?_Write_Flash+1,ProcessBootBuffer@len+1
  1829                           
  1830                           ;mcc_generated_files/pic18f_bootload.c: 191:         break;
  1831  0004EC  EFD9  F002         	goto	l457
  1832  0004F0                     l1923:
  1833                           
  1834                           ;mcc_generated_files/pic18f_bootload.c: 193:         len = Erase_Flash();
  1835  0004F0  ECCB  F001         	call	_Erase_Flash	;wreg free
  1836  0004F4  C502  F522         	movff	?_Erase_Flash,ProcessBootBuffer@len
  1837  0004F8  C503  F523         	movff	?_Erase_Flash+1,ProcessBootBuffer@len+1
  1838                           
  1839                           ;mcc_generated_files/pic18f_bootload.c: 194:         break;
  1840  0004FC  EFD9  F002         	goto	l457
  1841  000500                     l1925:
  1842                           
  1843                           ;mcc_generated_files/pic18f_bootload.c: 196:         len = Read_Config();
  1844  000500  ECE1  F004         	call	_Read_Config	;wreg free
  1845  000504  C502  F522         	movff	?_Read_Config,ProcessBootBuffer@len
  1846  000508  C503  F523         	movff	?_Read_Config+1,ProcessBootBuffer@len+1
  1847                           
  1848                           ;mcc_generated_files/pic18f_bootload.c: 197:         break;
  1849  00050C  EFD9  F002         	goto	l457
  1850  000510                     l1927:
  1851                           
  1852                           ;mcc_generated_files/pic18f_bootload.c: 199:         len = Write_Config();
  1853  000510  EC95  F004         	call	_Write_Config	;wreg free
  1854  000514  C502  F522         	movff	?_Write_Config,ProcessBootBuffer@len
  1855  000518  C503  F523         	movff	?_Write_Config+1,ProcessBootBuffer@len+1
  1856                           
  1857                           ;mcc_generated_files/pic18f_bootload.c: 200:         break;
  1858  00051C  EFD9  F002         	goto	l457
  1859  000520                     l1929:
  1860                           
  1861                           ;mcc_generated_files/pic18f_bootload.c: 202:         len = Calc_Checksum();
  1862  000520  ECDE  F002         	call	_Calc_Checksum	;wreg free
  1863  000524  C502  F522         	movff	?_Calc_Checksum,ProcessBootBuffer@len
  1864  000528  C503  F523         	movff	?_Calc_Checksum+1,ProcessBootBuffer@len+1
  1865                           
  1866                           ;mcc_generated_files/pic18f_bootload.c: 203:         break;
  1867  00052C  EFD9  F002         	goto	l457
  1868  000530                     l463:
  1869                           
  1870                           ;mcc_generated_files/pic18f_bootload.c: 205:         frame.data[0] = 0x01;
  1871  000530  0E01               	movlw	1
  1872  000532  0061 F3A2  F400    	movff	wreg,_frame+9
  1873  000538                     
  1874                           ;mcc_generated_files/pic18f_bootload.c: 206:         reset_pending = 1;
  1875  000538  0E01               	movlw	1
  1876  00053A  6E2D               	movwf	_reset_pending^(0+1280),c
  1877                           
  1878                           ;mcc_generated_files/pic18f_bootload.c: 207:         len = 10;
  1879  00053C  0E00               	movlw	0
  1880  00053E  6E23               	movwf	(ProcessBootBuffer@len+1)^(0+1280),c
  1881  000540  0E0A               	movlw	10
  1882  000542  6E22               	movwf	ProcessBootBuffer@len^(0+1280),c
  1883                           
  1884                           ;mcc_generated_files/pic18f_bootload.c: 208:         break;
  1885  000544  EFD9  F002         	goto	l457
  1886  000548                     l464:
  1887                           
  1888                           ;mcc_generated_files/pic18f_bootload.c: 210:         frame.data[0] = 0xFF;
  1889  000548  0EFF               	movlw	255
  1890  00054A  0061 F3A2  F400    	movff	wreg,_frame+9
  1891  000550                     
  1892                           ;mcc_generated_files/pic18f_bootload.c: 211:         len = 10;
  1893  000550  0E00               	movlw	0
  1894  000552  6E23               	movwf	(ProcessBootBuffer@len+1)^(0+1280),c
  1895  000554  0E0A               	movlw	10
  1896  000556  6E22               	movwf	ProcessBootBuffer@len^(0+1280),c
  1897                           
  1898                           ;mcc_generated_files/pic18f_bootload.c: 212:     }
  1899  000558  EFD9  F002         	goto	l457
  1900  00055C                     l1935:
  1901  00055C  EE28  F3F7         	lfsr	2,_frame
  1902  000560  50DF               	movf	indf2,w,c
  1903  000562  6E20               	movwf	??_ProcessBootBuffer^(0+1280),c
  1904  000564  6A21               	clrf	(??_ProcessBootBuffer+1)^(0+1280),c
  1905                           
  1906                           ; Switch on 2 bytes has been partitioned into a top level switch of size 1, and 1 sub-sw
      +                          itches
  1907                           ; Switch size 1, requested type "simple"
  1908                           ; Number of cases is 1, Range of values is 0 to 0
  1909                           ; switch strategies available:
  1910                           ; Name         Instructions Cycles
  1911                           ; simple_byte            4     3 (average)
  1912                           ;	Chosen strategy is simple_byte
  1913  000566  5021               	movf	(??_ProcessBootBuffer+1)^(0+1280),w,c
  1914  000568  0A00               	xorlw	0	; case 0
  1915  00056A  B4D8               	btfsc	status,2,c
  1916  00056C  EFBA  F002         	goto	l2077
  1917  000570  EFA4  F002         	goto	l464
  1918  000574                     l2077:
  1919                           
  1920                           ; Switch size 1, requested type "simple"
  1921                           ; Number of cases is 7, Range of values is 0 to 9
  1922                           ; switch strategies available:
  1923                           ; Name         Instructions Cycles
  1924                           ; simple_byte           22    12 (average)
  1925                           ;	Chosen strategy is simple_byte
  1926  000574  5020               	movf	??_ProcessBootBuffer^(0+1280),w,c
  1927  000576  0A00               	xorlw	0	; case 0
  1928  000578  B4D8               	btfsc	status,2,c
  1929  00057A  EF68  F002         	goto	l1919
  1930  00057E  0A02               	xorlw	2	; case 2
  1931  000580  B4D8               	btfsc	status,2,c
  1932  000582  EF70  F002         	goto	l1921
  1933  000586  0A01               	xorlw	1	; case 3
  1934  000588  B4D8               	btfsc	status,2,c
  1935  00058A  EF78  F002         	goto	l1923
  1936  00058E  0A05               	xorlw	5	; case 6
  1937  000590  B4D8               	btfsc	status,2,c
  1938  000592  EF80  F002         	goto	l1925
  1939  000596  0A01               	xorlw	1	; case 7
  1940  000598  B4D8               	btfsc	status,2,c
  1941  00059A  EF88  F002         	goto	l1927
  1942  00059E  0A0F               	xorlw	15	; case 8
  1943  0005A0  B4D8               	btfsc	status,2,c
  1944  0005A2  EF90  F002         	goto	l1929
  1945  0005A6  0A01               	xorlw	1	; case 9
  1946  0005A8  B4D8               	btfsc	status,2,c
  1947  0005AA  EF98  F002         	goto	l463
  1948  0005AE  EFA4  F002         	goto	l464
  1949  0005B2                     l457:
  1950                           
  1951                           ;mcc_generated_files/pic18f_bootload.c: 213:     return (len);
  1952  0005B2  C522  F51E         	movff	ProcessBootBuffer@len,?_ProcessBootBuffer
  1953  0005B6  C523  F51F         	movff	ProcessBootBuffer@len+1,?_ProcessBootBuffer+1
  1954  0005BA  0012               	return		;funcret
  1955  0005BC                     __end_of_ProcessBootBuffer:
  1956                           	callstack 0
  1957                           
  1958 ;; *************** function _Write_Flash *****************
  1959 ;; Defined at:
  1960 ;;		line 267 in file "mcc_generated_files/pic18f_bootload.c"
  1961 ;; Parameters:    Size  Location     Type
  1962 ;;		None
  1963 ;; Auto vars:     Size  Location     Type
  1964 ;;  i               2   26[COMRAM] unsigned short 
  1965 ;;  address         4   22[COMRAM] unsigned long 
  1966 ;; Return value:  Size  Location     Type
  1967 ;;                  2    5[COMRAM] unsigned short 
  1968 ;; Registers used:
  1969 ;;		wreg, fsr1l, fsr1h, fsr2l, fsr2h, status,2, status,0, cstack
  1970 ;; Tracked objects:
  1971 ;;		On entry : 0/0
  1972 ;;		On exit  : 0/0
  1973 ;;		Unchanged: 0/0
  1974 ;; Data sizes:     COMRAM   BANK5   BANK6   BANK7   BANK8   BANK9  BANK10  BANK11  BANK12  BANK13  BANK14  BANK15  BANK1
      +6  BANK17  BANK18  BANK19  BANK20  BANK21  BANK22  BANK23  BANK24  BANK25  BANK26  BANK27  BANK28  BANK29  BANK30  BANK3
      +1  BANK32  BANK33  BANK34  BANK35  BANK36
  1975 ;;      Params:         2       0       0       0       0       0       0       0       0       0       0       0       
      +0       0       0       0       0       0       0       0       0       0       0       0       0       0       0       
      +0       0       0       0       0       0
  1976 ;;      Locals:         6       0       0       0       0       0       0       0       0       0       0       0       
      +0       0       0       0       0       0       0       0       0       0       0       0       0       0       0       
      +0       0       0       0       0       0
  1977 ;;      Temps:         15       0       0       0       0       0       0       0       0       0       0       0       
      +0       0       0       0       0       0       0       0       0       0       0       0       0       0       0       
      +0       0       0       0       0       0
  1978 ;;      Totals:        23       0       0       0       0       0       0       0       0       0       0       0       
      +0       0       0       0       0       0       0       0       0       0       0       0       0       0       0       
      +0       0       0       0       0       0
  1979 ;;Total ram usage:       23 bytes
  1980 ;; Hardware stack levels used: 1
  1981 ;; Hardware stack levels required when called: 2
  1982 ;; This function calls:
  1983 ;;		_FLASH_ReadPage
  1984 ;;		_StartWrite
  1985 ;; This function is called by:
  1986 ;;		_ProcessBootBuffer
  1987 ;; This function uses a non-reentrant model
  1988 ;;
  1989                           
  1990                           	psect	text17
  1991  000106                     __ptext17:
  1992                           	callstack 0
  1993  000106                     _Write_Flash:
  1994                           	callstack 120
  1995  000106                     
  1996                           ;mcc_generated_files/pic18f_bootload.c: 269:     uint32_t address;;mcc_generated_files/p
      +                          ic18f_bootload.c: 271:     address = (((uint32_t)frame.address_U) << 16)
  1997  000106  0068  FFF4  F509   	movff	_frame+6,??_Write_Flash
  1998  00010C  C509  F50A         	movff	??_Write_Flash,??_Write_Flash+1
  1999  000110  6A0B               	clrf	(??_Write_Flash+2)^(0+1280),c
  2000  000112  6A0C               	clrf	(??_Write_Flash+3)^(0+1280),c
  2001  000114  6A0D               	clrf	(??_Write_Flash+4)^(0+1280),c
  2002  000116  C50C  F50D         	movff	??_Write_Flash+3,??_Write_Flash+4
  2003  00011A  C50B  F50C         	movff	??_Write_Flash+2,??_Write_Flash+3
  2004  00011E  C50A  F50B         	movff	??_Write_Flash+1,??_Write_Flash+2
  2005  000122  6A0A               	clrf	(??_Write_Flash+1)^(0+1280),c
  2006  000124  0068  FFF8  F50E   	movff	_frame+7,??_Write_Flash+5
  2007  00012A  C50E  F50F         	movff	??_Write_Flash+5,??_Write_Flash+6
  2008  00012E  6A10               	clrf	(??_Write_Flash+7)^(0+1280),c
  2009  000130  6A11               	clrf	(??_Write_Flash+8)^(0+1280),c
  2010  000132  6A12               	clrf	(??_Write_Flash+9)^(0+1280),c
  2011  000134  C510  F512         	movff	??_Write_Flash+7,??_Write_Flash+9
  2012  000138  C50F  F511         	movff	??_Write_Flash+6,??_Write_Flash+8
  2013  00013C  6A10               	clrf	(??_Write_Flash+7)^(0+1280),c
  2014  00013E  6A0F               	clrf	(??_Write_Flash+6)^(0+1280),c
  2015  000140  500A               	movf	(??_Write_Flash+1)^(0+1280),w,c
  2016  000142  240F               	addwf	(??_Write_Flash+6)^(0+1280),w,c
  2017  000144  6E13               	movwf	(??_Write_Flash+10)^(0+1280),c
  2018  000146  500B               	movf	(??_Write_Flash+2)^(0+1280),w,c
  2019  000148  2010               	addwfc	(??_Write_Flash+7)^(0+1280),w,c
  2020  00014A  6E14               	movwf	(??_Write_Flash+11)^(0+1280),c
  2021  00014C  500C               	movf	(??_Write_Flash+3)^(0+1280),w,c
  2022  00014E  2011               	addwfc	(??_Write_Flash+8)^(0+1280),w,c
  2023  000150  6E15               	movwf	(??_Write_Flash+12)^(0+1280),c
  2024  000152  500D               	movf	(??_Write_Flash+4)^(0+1280),w,c
  2025  000154  2012               	addwfc	(??_Write_Flash+9)^(0+1280),w,c
  2026  000156  6E16               	movwf	(??_Write_Flash+13)^(0+1280),c
  2027  000158  0068  FFF0  F517   	movff	_frame+5,??_Write_Flash+14
  2028  00015E  5017               	movf	(??_Write_Flash+14)^(0+1280),w,c
  2029  000160  2413               	addwf	(??_Write_Flash+10)^(0+1280),w,c
  2030  000162  6E18               	movwf	Write_Flash@address^(0+1280),c
  2031  000164  0E00               	movlw	0
  2032  000166  2014               	addwfc	(??_Write_Flash+11)^(0+1280),w,c
  2033  000168  6E19               	movwf	(Write_Flash@address+1)^(0+1280),c
  2034  00016A  0E00               	movlw	0
  2035  00016C  2015               	addwfc	(??_Write_Flash+12)^(0+1280),w,c
  2036  00016E  6E1A               	movwf	(Write_Flash@address+2)^(0+1280),c
  2037  000170  0E00               	movlw	0
  2038  000172  2016               	addwfc	(??_Write_Flash+13)^(0+1280),w,c
  2039  000174  6E1B               	movwf	(Write_Flash@address+3)^(0+1280),c
  2040                           
  2041                           ;mcc_generated_files/pic18f_bootload.c: 274:     if (address < 0xd00)
  2042  000176  501B               	movf	(Write_Flash@address+3)^(0+1280),w,c
  2043  000178  101A               	iorwf	(Write_Flash@address+2)^(0+1280),w,c
  2044  00017A  E107               	bnz	u491
  2045  00017C  0E0D               	movlw	13
  2046  00017E  5C19               	subwf	(Write_Flash@address+1)^(0+1280),w,c
  2047  000180  B0D8               	btfsc	status,0,c
  2048  000182  EFC5  F000         	goto	u491
  2049  000186  EFC7  F000         	goto	u490
  2050  00018A                     u491:
  2051  00018A  EFD1  F000         	goto	l1823
  2052  00018E                     u490:
  2053  00018E                     
  2054                           ;mcc_generated_files/pic18f_bootload.c: 275:     {;mcc_generated_files/pic18f_bootload.c
      +                          : 276:         frame.data[0] = 0xFE;
  2055  00018E  0EFE               	movlw	254
  2056  000190  0061 F3A2  F400    	movff	wreg,_frame+9
  2057  000196                     
  2058                           ;mcc_generated_files/pic18f_bootload.c: 277:         return (10);
  2059  000196  0E00               	movlw	0
  2060  000198  6E08               	movwf	(?_Write_Flash+1)^(0+1280),c
  2061  00019A  0E0A               	movlw	10
  2062  00019C  6E07               	movwf	?_Write_Flash^(0+1280),c
  2063  00019E  EF2F  F001         	goto	l476
  2064  0001A2                     l1823:
  2065                           
  2066                           ;mcc_generated_files/pic18f_bootload.c: 279:     FLASH_ReadPage(address);
  2067  0001A2  C518  F502         	movff	Write_Flash@address,FLASH_ReadPage@flashAddr
  2068  0001A6  C519  F503         	movff	Write_Flash@address+1,FLASH_ReadPage@flashAddr+1
  2069  0001AA  C51A  F504         	movff	Write_Flash@address+2,FLASH_ReadPage@flashAddr+2
  2070  0001AE  C51B  F505         	movff	Write_Flash@address+3,FLASH_ReadPage@flashAddr+3
  2071  0001B2  EC4E  F005         	call	_FLASH_ReadPage	;wreg free
  2072  0001B6                     
  2073                           ;mcc_generated_files/pic18f_bootload.c: 281:     for (uint16_t i = 0; i < frame.data_len
      +                          gth; i ++)
  2074  0001B6  0E00               	movlw	0
  2075  0001B8  6E1D               	movwf	(Write_Flash@i+1)^(0+1280),c
  2076  0001BA  0E00               	movlw	0
  2077  0001BC  6E1C               	movwf	Write_Flash@i^(0+1280),c
  2078  0001BE  EFFC  F000         	goto	l1831
  2079  0001C2                     l1827:
  2080                           
  2081                           ;mcc_generated_files/pic18f_bootload.c: 282:     {;mcc_generated_files/pic18f_bootload.c
      +                          : 283:         PFM_Buffer [frame.address_L + i] = frame.data[i];
  2082  0001C2  0E00               	movlw	low (_frame+9)
  2083  0001C4  241C               	addwf	Write_Flash@i^(0+1280),w,c
  2084  0001C6  6ED9               	movwf	fsr2l,c
  2085  0001C8  0E24               	movlw	high (_frame+9)
  2086  0001CA  201D               	addwfc	(Write_Flash@i+1)^(0+1280),w,c
  2087  0001CC  6EDA               	movwf	fsr2h,c
  2088  0001CE  0E00               	movlw	0
  2089  0001D0  6E09               	movwf	??_Write_Flash^(0+1280),c
  2090  0001D2  0E25               	movlw	37
  2091  0001D4  6E0A               	movwf	(??_Write_Flash+1)^(0+1280),c
  2092  0001D6  0068  FFF0  F50B   	movff	_frame+5,??_Write_Flash+2
  2093  0001DC  500B               	movf	(??_Write_Flash+2)^(0+1280),w,c
  2094  0001DE  2609               	addwf	??_Write_Flash^(0+1280),f,c
  2095  0001E0  0E00               	movlw	0
  2096  0001E2  220A               	addwfc	(??_Write_Flash+1)^(0+1280),f,c
  2097  0001E4  501C               	movf	Write_Flash@i^(0+1280),w,c
  2098  0001E6  2409               	addwf	??_Write_Flash^(0+1280),w,c
  2099  0001E8  6EE1               	movwf	fsr1l,c
  2100  0001EA  501D               	movf	(Write_Flash@i+1)^(0+1280),w,c
  2101  0001EC  200A               	addwfc	(??_Write_Flash+1)^(0+1280),w,c
  2102  0001EE  6EE2               	movwf	fsr1h,c
  2103  0001F0  C4DF F4E7          	movff	indf2,indf1
  2104  0001F4                     
  2105                           ;mcc_generated_files/pic18f_bootload.c: 284:     }
  2106  0001F4  4A1C               	infsnz	Write_Flash@i^(0+1280),f,c
  2107  0001F6  2A1D               	incf	(Write_Flash@i+1)^(0+1280),f,c
  2108  0001F8                     l1831:
  2109  0001F8  EE28  F3F8         	lfsr	2,_frame+1
  2110  0001FC  50DE               	movf	postinc2,w,c
  2111  0001FE  5C1C               	subwf	Write_Flash@i^(0+1280),w,c
  2112  000200  50DE               	movf	postinc2,w,c
  2113  000202  581D               	subwfb	(Write_Flash@i+1)^(0+1280),w,c
  2114  000204  A0D8               	btfss	status,0,c
  2115  000206  EF07  F001         	goto	u501
  2116  00020A  EF09  F001         	goto	u500
  2117  00020E                     u501:
  2118  00020E  EFE1  F000         	goto	l1827
  2119  000212                     u500:
  2120  000212                     
  2121                           ;mcc_generated_files/pic18f_bootload.c: 286:     NVMADRU = frame.address_U;
  2122  000212  0068  FFF8  F045   	movff	_frame+7,69	;volatile
  2123                           
  2124                           ;mcc_generated_files/pic18f_bootload.c: 287:     NVMADRH = frame.address_H;
  2125  000218  0068  FFF4  F044   	movff	_frame+6,68	;volatile
  2126                           
  2127                           ;mcc_generated_files/pic18f_bootload.c: 288:     NVMADRL = frame.address_L;
  2128  00021E  0068  FFF0  F043   	movff	_frame+5,67	;volatile
  2129  000224                     
  2130                           ;mcc_generated_files/pic18f_bootload.c: 291:     NVMCON1bits.NVMCMD = 0b101;
  2131  000224  0100               	movlb	0	; () banked
  2132  000226  5141               	movf	65,w,b	;volsfr
  2133  000228  0BF8               	andlw	-8
  2134  00022A  0905               	iorlw	5
  2135  00022C  6F41               	movwf	65,b	;volsfr
  2136  00022E                     
  2137                           ; BSR set to: 0
  2138                           ;mcc_generated_files/pic18f_bootload.c: 294:     INTCON0bits.GIE = 0;
  2139  00022E  9ED6               	bcf	214,7,c	;volatile
  2140  000230                     
  2141                           ; BSR set to: 0
  2142                           ;mcc_generated_files/pic18f_bootload.c: 297:     StartWrite();
  2143  000230  ECEA  F005         	call	_StartWrite	;wreg free
  2144  000234                     
  2145                           ;mcc_generated_files/pic18f_bootload.c: 300:     NVMCON0bits.GO = 1;
  2146  000234  0100               	movlb	0	; () banked
  2147  000236  8140               	bsf	64,0,b	;volatile
  2148  000238                     l480:
  2149                           
  2150                           ; BSR set to: 0
  2151  000238  B140               	btfsc	64,0,b	;volatile
  2152  00023A  EF21  F001         	goto	u511
  2153  00023E  EF23  F001         	goto	u510
  2154  000242                     u511:
  2155  000242  EF1C  F001         	goto	l480
  2156  000246                     u510:
  2157  000246                     
  2158                           ; BSR set to: 0
  2159                           ;mcc_generated_files/pic18f_bootload.c: 303:     frame.data[0] = 0x01;
  2160  000246  0E01               	movlw	1
  2161  000248  0061 F3A2  F400    	movff	wreg,_frame+9
  2162  00024E                     
  2163                           ; BSR set to: 0
  2164                           ;mcc_generated_files/pic18f_bootload.c: 304:     EE_Key_1 = 0x00;
  2165  00024E  0E00               	movlw	0
  2166  000250  6E00               	movwf	0,c
  2167                           
  2168                           ;mcc_generated_files/pic18f_bootload.c: 305:     EE_Key_2 = 0x00;
  2169  000252  0E00               	movlw	0
  2170  000254  6E01               	movwf	1,c
  2171                           
  2172                           ;mcc_generated_files/pic18f_bootload.c: 306:     return (10);
  2173  000256  0E00               	movlw	0
  2174  000258  6E08               	movwf	(?_Write_Flash+1)^(0+1280),c
  2175  00025A  0E0A               	movlw	10
  2176  00025C  6E07               	movwf	?_Write_Flash^(0+1280),c
  2177  00025E                     l476:
  2178  00025E  0012               	return		;funcret
  2179  000260                     __end_of_Write_Flash:
  2180                           	callstack 0
  2181                           
  2182 ;; *************** function _FLASH_ReadPage *****************
  2183 ;; Defined at:
  2184 ;;		line 93 in file "mcc_generated_files/memory.c"
  2185 ;; Parameters:    Size  Location     Type
  2186 ;;  flashAddr       4    0[COMRAM] unsigned long 
  2187 ;; Auto vars:     Size  Location     Type
  2188 ;;  GIEBitValue     1    4[COMRAM] unsigned char 
  2189 ;; Return value:  Size  Location     Type
  2190 ;;                  1    wreg      void 
  2191 ;; Registers used:
  2192 ;;		wreg, status,2
  2193 ;; Tracked objects:
  2194 ;;		On entry : 0/0
  2195 ;;		On exit  : 0/0
  2196 ;;		Unchanged: 0/0
  2197 ;; Data sizes:     COMRAM   BANK5   BANK6   BANK7   BANK8   BANK9  BANK10  BANK11  BANK12  BANK13  BANK14  BANK15  BANK1
      +6  BANK17  BANK18  BANK19  BANK20  BANK21  BANK22  BANK23  BANK24  BANK25  BANK26  BANK27  BANK28  BANK29  BANK30  BANK3
      +1  BANK32  BANK33  BANK34  BANK35  BANK36
  2198 ;;      Params:         4       0       0       0       0       0       0       0       0       0       0       0       
      +0       0       0       0       0       0       0       0       0       0       0       0       0       0       0       
      +0       0       0       0       0       0
  2199 ;;      Locals:         1       0       0       0       0       0       0       0       0       0       0       0       
      +0       0       0       0       0       0       0       0       0       0       0       0       0       0       0       
      +0       0       0       0       0       0
  2200 ;;      Temps:          0       0       0       0       0       0       0       0       0       0       0       0       
      +0       0       0       0       0       0       0       0       0       0       0       0       0       0       0       
      +0       0       0       0       0       0
  2201 ;;      Totals:         5       0       0       0       0       0       0       0       0       0       0       0       
      +0       0       0       0       0       0       0       0       0       0       0       0       0       0       0       
      +0       0       0       0       0       0
  2202 ;;Total ram usage:        5 bytes
  2203 ;; Hardware stack levels used: 1
  2204 ;; Hardware stack levels required when called: 1
  2205 ;; This function calls:
  2206 ;;		Nothing
  2207 ;; This function is called by:
  2208 ;;		_Write_Flash
  2209 ;;		_FLASH_WriteWord
  2210 ;; This function uses a non-reentrant model
  2211 ;;
  2212                           
  2213                           	psect	text18
  2214  000A9C                     __ptext18:
  2215                           	callstack 0
  2216  000A9C                     _FLASH_ReadPage:
  2217                           	callstack 120
  2218  000A9C                     
  2219                           ;mcc_generated_files/memory.c: 93: void FLASH_ReadPage(uint32_t flashAddr);mcc_generated
      +                          _files/memory.c: 94: {;mcc_generated_files/memory.c: 95:     uint8_t GIEBitValue = INTCO
      +                          N0bits.GIE;
  2220  000A9C  0E00               	movlw	0
  2221  000A9E  BED6               	btfsc	214,7,c	;volatile
  2222  000AA0  0E01               	movlw	1
  2223  000AA2  6E06               	movwf	FLASH_ReadPage@GIEBitValue^(0+1280),c
  2224  000AA4                     
  2225                           ;mcc_generated_files/memory.c: 98:     NVMADRU = (uint8_t) ((flashAddr & 0x00FF0000) >> 
      +                          16);
  2226  000AA4  0061  F410  F045   	movff	FLASH_ReadPage@flashAddr+2,69	;volatile
  2227  000AAA                     
  2228                           ;mcc_generated_files/memory.c: 99:     NVMADRH = (uint8_t) ((flashAddr & 0x0000FF00) >> 
      +                          8);
  2229  000AAA  0061  F40C  F044   	movff	FLASH_ReadPage@flashAddr+1,68	;volatile
  2230  000AB0                     
  2231                           ;mcc_generated_files/memory.c: 100:     NVMADRL = (uint8_t) (flashAddr & 0x000000FF);
  2232  000AB0  0061  F408  F043   	movff	FLASH_ReadPage@flashAddr,67	;volatile
  2233  000AB6                     
  2234                           ;mcc_generated_files/memory.c: 103:     NVMCON1bits.NVMCMD = 0b010;
  2235  000AB6  0100               	movlb	0	; () banked
  2236  000AB8  5141               	movf	65,w,b	;volsfr
  2237  000ABA  0BF8               	andlw	-8
  2238  000ABC  0902               	iorlw	2
  2239  000ABE  6F41               	movwf	65,b	;volsfr
  2240  000AC0                     
  2241                           ; BSR set to: 0
  2242                           ;mcc_generated_files/memory.c: 106:     INTCON0bits.GIE = 0;
  2243  000AC0  9ED6               	bcf	214,7,c	;volatile
  2244  000AC2                     
  2245                           ; BSR set to: 0
  2246                           ;mcc_generated_files/memory.c: 109:     NVMLOCK = 0x55;
  2247  000AC2  0E55               	movlw	85
  2248  000AC4  6F42               	movwf	66,b	;volatile
  2249  000AC6                     
  2250                           ; BSR set to: 0
  2251                           ;mcc_generated_files/memory.c: 110:     NVMLOCK = 0xAA;
  2252  000AC6  0EAA               	movlw	170
  2253  000AC8  6F42               	movwf	66,b	;volatile
  2254  000ACA                     
  2255                           ; BSR set to: 0
  2256                           ;mcc_generated_files/memory.c: 113:     NVMCON0bits.GO = 1;
  2257  000ACA  8140               	bsf	64,0,b	;volatile
  2258  000ACC                     l288:
  2259                           
  2260                           ; BSR set to: 0
  2261  000ACC  B140               	btfsc	64,0,b	;volatile
  2262  000ACE  EF6B  F005         	goto	u451
  2263  000AD2  EF6D  F005         	goto	u450
  2264  000AD6                     u451:
  2265  000AD6  EF66  F005         	goto	l288
  2266  000ADA                     u450:
  2267  000ADA                     
  2268                           ; BSR set to: 0
  2269                           ;mcc_generated_files/memory.c: 117:     INTCON0bits.GIE = GIEBitValue;
  2270  000ADA  B006               	btfsc	FLASH_ReadPage@GIEBitValue^(0+1280),0,c
  2271  000ADC  D002               	bra	u465
  2272  000ADE  9ED6               	bcf	214,7,c	;volatile
  2273  000AE0  D001               	bra	u466
  2274  000AE2                     u465:
  2275  000AE2  8ED6               	bsf	214,7,c	;volatile
  2276  000AE4                     u466:
  2277  000AE4                     
  2278                           ;mcc_generated_files/memory.c: 120:     NVMCON1bits.NVMCMD = 0b000;
  2279  000AE4  0EF8               	movlw	-8
  2280  000AE6  0100               	movlb	0	; () banked
  2281  000AE8  1741               	andwf	65,f,b	;volsfr
  2282  000AEA                     
  2283                           ; BSR set to: 0
  2284  000AEA  0012               	return		;funcret
  2285  000AEC                     __end_of_FLASH_ReadPage:
  2286                           	callstack 0
  2287                           
  2288 ;; *************** function _Write_Config *****************
  2289 ;; Defined at:
  2290 ;;		line 387 in file "mcc_generated_files/pic18f_bootload.c"
  2291 ;; Parameters:    Size  Location     Type
  2292 ;;		None
  2293 ;; Auto vars:     Size  Location     Type
  2294 ;;  i               1    6[COMRAM] unsigned char 
  2295 ;; Return value:  Size  Location     Type
  2296 ;;                  2    0[COMRAM] unsigned short 
  2297 ;; Registers used:
  2298 ;;		wreg, fsr2l, fsr2h, status,2, status,0, cstack
  2299 ;; Tracked objects:
  2300 ;;		On entry : 0/0
  2301 ;;		On exit  : 0/0
  2302 ;;		Unchanged: 0/0
  2303 ;; Data sizes:     COMRAM   BANK5   BANK6   BANK7   BANK8   BANK9  BANK10  BANK11  BANK12  BANK13  BANK14  BANK15  BANK1
      +6  BANK17  BANK18  BANK19  BANK20  BANK21  BANK22  BANK23  BANK24  BANK25  BANK26  BANK27  BANK28  BANK29  BANK30  BANK3
      +1  BANK32  BANK33  BANK34  BANK35  BANK36
  2304 ;;      Params:         2       0       0       0       0       0       0       0       0       0       0       0       
      +0       0       0       0       0       0       0       0       0       0       0       0       0       0       0       
      +0       0       0       0       0       0
  2305 ;;      Locals:         1       0       0       0       0       0       0       0       0       0       0       0       
      +0       0       0       0       0       0       0       0       0       0       0       0       0       0       0       
      +0       0       0       0       0       0
  2306 ;;      Temps:          4       0       0       0       0       0       0       0       0       0       0       0       
      +0       0       0       0       0       0       0       0       0       0       0       0       0       0       0       
      +0       0       0       0       0       0
  2307 ;;      Totals:         7       0       0       0       0       0       0       0       0       0       0       0       
      +0       0       0       0       0       0       0       0       0       0       0       0       0       0       0       
      +0       0       0       0       0       0
  2308 ;;Total ram usage:        7 bytes
  2309 ;; Hardware stack levels used: 1
  2310 ;; Hardware stack levels required when called: 2
  2311 ;; This function calls:
  2312 ;;		_StartWrite
  2313 ;; This function is called by:
  2314 ;;		_ProcessBootBuffer
  2315 ;; This function uses a non-reentrant model
  2316 ;;
  2317                           
  2318                           	psect	text19
  2319  00092A                     __ptext19:
  2320                           	callstack 0
  2321  00092A                     _Write_Config:
  2322                           	callstack 120
  2323  00092A                     
  2324                           ;mcc_generated_files/pic18f_bootload.c: 389:     TBLPTRL = frame.address_L;
  2325  00092A  0068  FFF0  F4F6   	movff	_frame+5,tblptrl	;volatile
  2326                           
  2327                           ;mcc_generated_files/pic18f_bootload.c: 390:     TBLPTRH = frame.address_H;
  2328  000930  0068  FFF4  F4F7   	movff	_frame+6,tblptrh	;volatile
  2329                           
  2330                           ;mcc_generated_files/pic18f_bootload.c: 391:     TBLPTRU = frame.address_U;
  2331  000936  0068  FFF8  F4F8   	movff	_frame+7,tblptru	;volatile
  2332  00093C                     
  2333                           ;mcc_generated_files/pic18f_bootload.c: 392:     if (TBLPTR > 0x20000F)
  2334  00093C  0E10               	movlw	16
  2335  00093E  5CF6               	subwf	246,w,c	;volatile
  2336  000940  0E00               	movlw	0
  2337  000942  58F7               	subwfb	247,w,c	;volatile
  2338  000944  0E20               	movlw	32
  2339  000946  58F8               	subwfb	248,w,c	;volatile
  2340  000948  A0D8               	btfss	status,0,c
  2341  00094A  EFA9  F004         	goto	u551
  2342  00094E  EFAB  F004         	goto	u550
  2343  000952                     u551:
  2344  000952  EFB0  F004         	goto	l1901
  2345  000956                     u550:
  2346  000956                     
  2347                           ;mcc_generated_files/pic18f_bootload.c: 393:         NVMCON1 = 0xC4;
  2348  000956  0EC4               	movlw	196
  2349  000958  0100               	movlb	0	; () banked
  2350  00095A  6F41               	movwf	65,b	;volsfr
  2351  00095C  EFB3  F004         	goto	l498
  2352  000960                     l1901:
  2353                           
  2354                           ;mcc_generated_files/pic18f_bootload.c: 395:         NVMCON1 = 0x84;
  2355  000960  0E84               	movlw	132
  2356  000962  0100               	movlb	0	; () banked
  2357  000964  6F41               	movwf	65,b	;volsfr
  2358  000966                     l498:
  2359                           
  2360                           ; BSR set to: 0
  2361                           ;mcc_generated_files/pic18f_bootload.c: 396:     for (uint8_t i= 0; i < frame.data_lengt
      +                          h; i ++)
  2362  000966  0E00               	movlw	0
  2363  000968  6E08               	movwf	Write_Config@i^(0+1280),c
  2364  00096A  EFC4  F004         	goto	l1911
  2365  00096E                     l1903:
  2366                           
  2367                           ;mcc_generated_files/pic18f_bootload.c: 397:     {;mcc_generated_files/pic18f_bootload.c
      +                          : 398:         TABLAT = frame.data[i];
  2368  00096E  0E00               	movlw	low (_frame+9)
  2369  000970  2408               	addwf	Write_Config@i^(0+1280),w,c
  2370  000972  6ED9               	movwf	fsr2l,c
  2371  000974  6ADA               	clrf	fsr2h,c
  2372  000976  0E24               	movlw	high (_frame+9)
  2373  000978  22DA               	addwfc	fsr2h,f,c
  2374  00097A  50DF               	movf	indf2,w,c
  2375  00097C  6EF5               	movwf	245,c	;volatile
  2376  00097E  000C               	tblwt		*	;# 
  2377  000980                     
  2378                           ;mcc_generated_files/pic18f_bootload.c: 400:         StartWrite();
  2379  000980  ECEA  F005         	call	_StartWrite	;wreg free
  2380  000984                     
  2381                           ;mcc_generated_files/pic18f_bootload.c: 401:         ++ TBLPTRL;
  2382  000984  2AF6               	incf	246,f,c	;volatile
  2383  000986                     
  2384                           ;mcc_generated_files/pic18f_bootload.c: 402:     }
  2385  000986  2A08               	incf	Write_Config@i^(0+1280),f,c
  2386  000988                     l1911:
  2387  000988  EE28  F3F8         	lfsr	2,_frame+1
  2388  00098C  5008               	movf	Write_Config@i^(0+1280),w,c
  2389  00098E  6E06               	movwf	(??_Write_Config+2)^(0+1280),c
  2390  000990  6A07               	clrf	(??_Write_Config+3)^(0+1280),c
  2391  000992  50DE               	movf	postinc2,w,c
  2392  000994  5C06               	subwf	(??_Write_Config+2)^(0+1280),w,c
  2393  000996  50DE               	movf	postinc2,w,c
  2394  000998  5807               	subwfb	(??_Write_Config+3)^(0+1280),w,c
  2395  00099A  A0D8               	btfss	status,0,c
  2396  00099C  EFD2  F004         	goto	u561
  2397  0009A0  EFD4  F004         	goto	u560
  2398  0009A4                     u561:
  2399  0009A4  EFB7  F004         	goto	l1903
  2400  0009A8                     u560:
  2401  0009A8                     
  2402                           ;mcc_generated_files/pic18f_bootload.c: 403:     frame.data[0] = 0x01;
  2403  0009A8  0E01               	movlw	1
  2404  0009AA  0061 F3A2  F400    	movff	wreg,_frame+9
  2405  0009B0                     
  2406                           ;mcc_generated_files/pic18f_bootload.c: 404:     EE_Key_1 = 0x00;
  2407  0009B0  0E00               	movlw	0
  2408  0009B2  6E00               	movwf	0,c
  2409                           
  2410                           ;mcc_generated_files/pic18f_bootload.c: 405:     EE_Key_2 = 0x00;
  2411  0009B4  0E00               	movlw	0
  2412  0009B6  6E01               	movwf	1,c
  2413                           
  2414                           ;mcc_generated_files/pic18f_bootload.c: 406:     return (10);
  2415  0009B8  0E00               	movlw	0
  2416  0009BA  6E03               	movwf	(?_Write_Config+1)^(0+1280),c
  2417  0009BC  0E0A               	movlw	10
  2418  0009BE  6E02               	movwf	?_Write_Config^(0+1280),c
  2419  0009C0  0012               	return		;funcret
  2420  0009C2                     __end_of_Write_Config:
  2421                           	callstack 0
  2422                           
  2423 ;; *************** function _Read_Config *****************
  2424 ;; Defined at:
  2425 ;;		line 367 in file "mcc_generated_files/pic18f_bootload.c"
  2426 ;; Parameters:    Size  Location     Type
  2427 ;;		None
  2428 ;; Auto vars:     Size  Location     Type
  2429 ;;  i               1    6[COMRAM] unsigned char 
  2430 ;; Return value:  Size  Location     Type
  2431 ;;                  2    0[COMRAM] unsigned short 
  2432 ;; Registers used:
  2433 ;;		wreg, fsr2l, fsr2h, status,2, status,0
  2434 ;; Tracked objects:
  2435 ;;		On entry : 0/0
  2436 ;;		On exit  : 0/0
  2437 ;;		Unchanged: 0/0
  2438 ;; Data sizes:     COMRAM   BANK5   BANK6   BANK7   BANK8   BANK9  BANK10  BANK11  BANK12  BANK13  BANK14  BANK15  BANK1
      +6  BANK17  BANK18  BANK19  BANK20  BANK21  BANK22  BANK23  BANK24  BANK25  BANK26  BANK27  BANK28  BANK29  BANK30  BANK3
      +1  BANK32  BANK33  BANK34  BANK35  BANK36
  2439 ;;      Params:         2       0       0       0       0       0       0       0       0       0       0       0       
      +0       0       0       0       0       0       0       0       0       0       0       0       0       0       0       
      +0       0       0       0       0       0
  2440 ;;      Locals:         1       0       0       0       0       0       0       0       0       0       0       0       
      +0       0       0       0       0       0       0       0       0       0       0       0       0       0       0       
      +0       0       0       0       0       0
  2441 ;;      Temps:          4       0       0       0       0       0       0       0       0       0       0       0       
      +0       0       0       0       0       0       0       0       0       0       0       0       0       0       0       
      +0       0       0       0       0       0
  2442 ;;      Totals:         7       0       0       0       0       0       0       0       0       0       0       0       
      +0       0       0       0       0       0       0       0       0       0       0       0       0       0       0       
      +0       0       0       0       0       0
  2443 ;;Total ram usage:        7 bytes
  2444 ;; Hardware stack levels used: 1
  2445 ;; Hardware stack levels required when called: 1
  2446 ;; This function calls:
  2447 ;;		Nothing
  2448 ;; This function is called by:
  2449 ;;		_ProcessBootBuffer
  2450 ;; This function uses a non-reentrant model
  2451 ;;
  2452                           
  2453                           	psect	text20
  2454  0009C2                     __ptext20:
  2455                           	callstack 0
  2456  0009C2                     _Read_Config:
  2457                           	callstack 121
  2458  0009C2                     
  2459                           ;mcc_generated_files/pic18f_bootload.c: 369:     TBLPTRL = frame.address_L;
  2460  0009C2  0068  FFF0  F4F6   	movff	_frame+5,tblptrl	;volatile
  2461                           
  2462                           ;mcc_generated_files/pic18f_bootload.c: 370:     TBLPTRH = frame.address_H;
  2463  0009C8  0068  FFF4  F4F7   	movff	_frame+6,tblptrh	;volatile
  2464                           
  2465                           ;mcc_generated_files/pic18f_bootload.c: 371:     TBLPTRU = frame.address_U;
  2466  0009CE  0068  FFF8  F4F8   	movff	_frame+7,tblptru	;volatile
  2467  0009D4                     
  2468                           ;mcc_generated_files/pic18f_bootload.c: 372:  NVMCON1 = 0xC0;
  2469  0009D4  0EC0               	movlw	192
  2470  0009D6  0100               	movlb	0	; () banked
  2471  0009D8  6F41               	movwf	65,b	;volsfr
  2472                           
  2473                           ;mcc_generated_files/pic18f_bootload.c: 373:     for (uint8_t i = 0; i < frame.data_leng
      +                          th; i++)
  2474  0009DA  0E00               	movlw	0
  2475  0009DC  6E08               	movwf	Read_Config@i^(0+1280),c
  2476  0009DE  EFFB  F004         	goto	l1889
  2477  0009E2                     l492:
  2478  0009E2  0009               	tblrd		*+	;# 
  2479  0009E4                     
  2480                           ;mcc_generated_files/pic18f_bootload.c: 376:         frame.data[i] = TABLAT;
  2481  0009E4  0E00               	movlw	low (_frame+9)
  2482  0009E6  2408               	addwf	Read_Config@i^(0+1280),w,c
  2483  0009E8  6ED9               	movwf	fsr2l,c
  2484  0009EA  6ADA               	clrf	fsr2h,c
  2485  0009EC  0E24               	movlw	high (_frame+9)
  2486  0009EE  22DA               	addwfc	fsr2h,f,c
  2487  0009F0  C4F5 F4DF          	movff	tablat,indf2	;volatile
  2488  0009F4                     
  2489                           ;mcc_generated_files/pic18f_bootload.c: 377:     }
  2490  0009F4  2A08               	incf	Read_Config@i^(0+1280),f,c
  2491  0009F6                     l1889:
  2492  0009F6  EE28  F3F8         	lfsr	2,_frame+1
  2493  0009FA  5008               	movf	Read_Config@i^(0+1280),w,c
  2494  0009FC  6E06               	movwf	(??_Read_Config+2)^(0+1280),c
  2495  0009FE  6A07               	clrf	(??_Read_Config+3)^(0+1280),c
  2496  000A00  50DE               	movf	postinc2,w,c
  2497  000A02  5C06               	subwf	(??_Read_Config+2)^(0+1280),w,c
  2498  000A04  50DE               	movf	postinc2,w,c
  2499  000A06  5807               	subwfb	(??_Read_Config+3)^(0+1280),w,c
  2500  000A08  A0D8               	btfss	status,0,c
  2501  000A0A  EF09  F005         	goto	u541
  2502  000A0E  EF0B  F005         	goto	u540
  2503  000A12                     u541:
  2504  000A12  EFF1  F004         	goto	l492
  2505  000A16                     u540:
  2506  000A16                     
  2507                           ;mcc_generated_files/pic18f_bootload.c: 378:     return (9 + frame.data_length);
  2508  000A16  EE28  F3F8         	lfsr	2,_frame+1
  2509  000A1A  0061 F378  F504    	movff	postinc2,??_Read_Config
  2510  000A20  0061 F374  F505    	movff	postdec2,??_Read_Config+1
  2511  000A26  0E09               	movlw	9
  2512  000A28  2404               	addwf	??_Read_Config^(0+1280),w,c
  2513  000A2A  6E02               	movwf	?_Read_Config^(0+1280),c
  2514  000A2C  0E00               	movlw	0
  2515  000A2E  2005               	addwfc	(??_Read_Config+1)^(0+1280),w,c
  2516  000A30  6E03               	movwf	(?_Read_Config+1)^(0+1280),c
  2517  000A32  0012               	return		;funcret
  2518  000A34                     __end_of_Read_Config:
  2519                           	callstack 0
  2520                           
  2521 ;; *************** function _Get_Version_Data *****************
  2522 ;; Defined at:
  2523 ;;		line 223 in file "mcc_generated_files/pic18f_bootload.c"
  2524 ;; Parameters:    Size  Location     Type
  2525 ;;		None
  2526 ;; Auto vars:     Size  Location     Type
  2527 ;;  i               1    2[COMRAM] unsigned char 
  2528 ;; Return value:  Size  Location     Type
  2529 ;;                  2    0[COMRAM] unsigned short 
  2530 ;; Registers used:
  2531 ;;		wreg, fsr2l, fsr2h, status,2, status,0
  2532 ;; Tracked objects:
  2533 ;;		On entry : 0/0
  2534 ;;		On exit  : 0/0
  2535 ;;		Unchanged: 0/0
  2536 ;; Data sizes:     COMRAM   BANK5   BANK6   BANK7   BANK8   BANK9  BANK10  BANK11  BANK12  BANK13  BANK14  BANK15  BANK1
      +6  BANK17  BANK18  BANK19  BANK20  BANK21  BANK22  BANK23  BANK24  BANK25  BANK26  BANK27  BANK28  BANK29  BANK30  BANK3
      +1  BANK32  BANK33  BANK34  BANK35  BANK36
  2537 ;;      Params:         2       0       0       0       0       0       0       0       0       0       0       0       
      +0       0       0       0       0       0       0       0       0       0       0       0       0       0       0       
      +0       0       0       0       0       0
  2538 ;;      Locals:         1       0       0       0       0       0       0       0       0       0       0       0       
      +0       0       0       0       0       0       0       0       0       0       0       0       0       0       0       
      +0       0       0       0       0       0
  2539 ;;      Temps:          0       0       0       0       0       0       0       0       0       0       0       0       
      +0       0       0       0       0       0       0       0       0       0       0       0       0       0       0       
      +0       0       0       0       0       0
  2540 ;;      Totals:         3       0       0       0       0       0       0       0       0       0       0       0       
      +0       0       0       0       0       0       0       0       0       0       0       0       0       0       0       
      +0       0       0       0       0       0
  2541 ;;Total ram usage:        3 bytes
  2542 ;; Hardware stack levels used: 1
  2543 ;; Hardware stack levels required when called: 1
  2544 ;; This function calls:
  2545 ;;		Nothing
  2546 ;; This function is called by:
  2547 ;;		_ProcessBootBuffer
  2548 ;; This function uses a non-reentrant model
  2549 ;;
  2550                           
  2551                           	psect	text21
  2552  00069A                     __ptext21:
  2553                           	callstack 0
  2554  00069A                     _Get_Version_Data:
  2555                           	callstack 121
  2556  00069A                     
  2557                           ;mcc_generated_files/pic18f_bootload.c: 225:     frame.data[0] = 0x01;
  2558  00069A  0E01               	movlw	1
  2559  00069C  0061 F3A2  F400    	movff	wreg,_frame+9
  2560                           
  2561                           ;mcc_generated_files/pic18f_bootload.c: 226:     frame.data[1] = 0x01;
  2562  0006A2  0E01               	movlw	1
  2563  0006A4  0061 F3A2  F401    	movff	wreg,_frame+10
  2564                           
  2565                           ;mcc_generated_files/pic18f_bootload.c: 227:     frame.data[2] = 0;
  2566  0006AA  0E00               	movlw	0
  2567  0006AC  0061 F3A2  F402    	movff	wreg,_frame+11
  2568                           
  2569                           ;mcc_generated_files/pic18f_bootload.c: 228:     frame.data[3] = 1;
  2570  0006B2  0E01               	movlw	1
  2571  0006B4  0061 F3A2  F403    	movff	wreg,_frame+12
  2572                           
  2573                           ;mcc_generated_files/pic18f_bootload.c: 229:     frame.data[4] = 0;
  2574  0006BA  0E00               	movlw	0
  2575  0006BC  0061 F3A2  F404    	movff	wreg,_frame+13
  2576                           
  2577                           ;mcc_generated_files/pic18f_bootload.c: 230:     frame.data[5] = 0;
  2578  0006C2  0E00               	movlw	0
  2579  0006C4  0061 F3A2  F405    	movff	wreg,_frame+14
  2580  0006CA                     
  2581                           ;mcc_generated_files/pic18f_bootload.c: 231:     TBLPTRU = 0x3F;
  2582  0006CA  0E3F               	movlw	63
  2583  0006CC  6EF8               	movwf	248,c	;volatile
  2584  0006CE                     
  2585                           ;mcc_generated_files/pic18f_bootload.c: 232:     TBLPTRH = 0xFF;
  2586  0006CE  68F7               	setf	247,c	;volatile
  2587                           
  2588                           ;mcc_generated_files/pic18f_bootload.c: 233:     TBLPTRL = 0xFE;
  2589  0006D0  0EFE               	movlw	254
  2590  0006D2  6EF6               	movwf	246,c	;volatile
  2591                           
  2592                           ;mcc_generated_files/pic18f_bootload.c: 234:     NVMCON1 = 0xC0;
  2593  0006D4  0EC0               	movlw	192
  2594  0006D6  0100               	movlb	0	; () banked
  2595  0006D8  6F41               	movwf	65,b	;volsfr
  2596  0006DA  0009               	tblrd		*+	;# 
  2597  0006DC                     
  2598                           ;mcc_generated_files/pic18f_bootload.c: 236:     frame.data[6] = TABLAT;
  2599  0006DC  EE29  F006         	lfsr	2,_frame+15
  2600  0006E0  C4F5 F4DF          	movff	tablat,indf2	;volatile
  2601  0006E4  0009               	tblrd		*+	;# 
  2602  0006E6                     
  2603                           ;mcc_generated_files/pic18f_bootload.c: 238:     frame.data[7] = TABLAT;
  2604  0006E6  EE29  F007         	lfsr	2,_frame+16
  2605  0006EA  C4F5 F4DF          	movff	tablat,indf2	;volatile
  2606  0006EE                     
  2607                           ;mcc_generated_files/pic18f_bootload.c: 239:     frame.data[8] = 0;
  2608  0006EE  0E00               	movlw	0
  2609  0006F0  0061 F3A2  F408    	movff	wreg,_frame+17
  2610  0006F6                     
  2611                           ;mcc_generated_files/pic18f_bootload.c: 240:     frame.data[9] = 0;
  2612  0006F6  0E00               	movlw	0
  2613  0006F8  0061 F3A2  F409    	movff	wreg,_frame+18
  2614  0006FE                     
  2615                           ;mcc_generated_files/pic18f_bootload.c: 242:     frame.data[10] = 128;
  2616  0006FE  0E80               	movlw	128
  2617  000700  0061 F3A2  F40A    	movff	wreg,_frame+19
  2618  000706                     
  2619                           ;mcc_generated_files/pic18f_bootload.c: 243:     frame.data[11] = 128;
  2620  000706  0E80               	movlw	128
  2621  000708  0061 F3A2  F40B    	movff	wreg,_frame+20
  2622                           
  2623                           ;mcc_generated_files/pic18f_bootload.c: 245:     TBLPTRU = 0x30;
  2624  00070E  0E30               	movlw	48
  2625  000710  6EF8               	movwf	248,c	;volatile
  2626                           
  2627                           ;mcc_generated_files/pic18f_bootload.c: 246:     TBLPTRH = 0x00;
  2628  000712  0E00               	movlw	0
  2629  000714  6EF7               	movwf	247,c	;volatile
  2630                           
  2631                           ;mcc_generated_files/pic18f_bootload.c: 247:     TBLPTRL = 0x00;
  2632  000716  0E00               	movlw	0
  2633  000718  6EF6               	movwf	246,c	;volatile
  2634                           
  2635                           ;mcc_generated_files/pic18f_bootload.c: 249:     for (uint8_t i= 12; i < 16; i++)
  2636  00071A  0E0C               	movlw	12
  2637  00071C  6E04               	movwf	Get_Version_Data@i^(0+1280),c
  2638  00071E                     l468:
  2639  00071E  0009               	tblrd		*+	;# 
  2640  000720                     
  2641                           ;mcc_generated_files/pic18f_bootload.c: 252:         frame.data[i] = TABLAT;
  2642  000720  0E00               	movlw	low (_frame+9)
  2643  000722  2404               	addwf	Get_Version_Data@i^(0+1280),w,c
  2644  000724  6ED9               	movwf	fsr2l,c
  2645  000726  6ADA               	clrf	fsr2h,c
  2646  000728  0E24               	movlw	high (_frame+9)
  2647  00072A  22DA               	addwfc	fsr2h,f,c
  2648  00072C  C4F5 F4DF          	movff	tablat,indf2	;volatile
  2649  000730                     
  2650                           ;mcc_generated_files/pic18f_bootload.c: 253:     }
  2651  000730  2A04               	incf	Get_Version_Data@i^(0+1280),f,c
  2652  000732  0E0F               	movlw	15
  2653  000734  6404               	cpfsgt	Get_Version_Data@i^(0+1280),c
  2654  000736  EF9F  F003         	goto	u481
  2655  00073A  EFA1  F003         	goto	u480
  2656  00073E                     u481:
  2657  00073E  EF8F  F003         	goto	l468
  2658  000742                     u480:
  2659  000742                     
  2660                           ;mcc_generated_files/pic18f_bootload.c: 255:     return 25;
  2661  000742  0E00               	movlw	0
  2662  000744  6E03               	movwf	(?_Get_Version_Data+1)^(0+1280),c
  2663  000746  0E19               	movlw	25
  2664  000748  6E02               	movwf	?_Get_Version_Data^(0+1280),c
  2665  00074A  0012               	return		;funcret
  2666  00074C                     __end_of_Get_Version_Data:
  2667                           	callstack 0
  2668                           
  2669 ;; *************** function _Erase_Flash *****************
  2670 ;; Defined at:
  2671 ;;		line 317 in file "mcc_generated_files/pic18f_bootload.c"
  2672 ;; Parameters:    Size  Location     Type
  2673 ;;		None
  2674 ;; Auto vars:     Size  Location     Type
  2675 ;;  blockStartAd    4   24[COMRAM] unsigned long 
  2676 ;;  i               2   21[COMRAM] unsigned short 
  2677 ;;  address         4   17[COMRAM] unsigned long 
  2678 ;;  GIEBitValue     1   23[COMRAM] unsigned char 
  2679 ;; Return value:  Size  Location     Type
  2680 ;;                  2    0[COMRAM] unsigned short 
  2681 ;; Registers used:
  2682 ;;		wreg, fsr2l, fsr2h, status,2, status,0, cstack
  2683 ;; Tracked objects:
  2684 ;;		On entry : 0/0
  2685 ;;		On exit  : 0/0
  2686 ;;		Unchanged: 0/0
  2687 ;; Data sizes:     COMRAM   BANK5   BANK6   BANK7   BANK8   BANK9  BANK10  BANK11  BANK12  BANK13  BANK14  BANK15  BANK1
      +6  BANK17  BANK18  BANK19  BANK20  BANK21  BANK22  BANK23  BANK24  BANK25  BANK26  BANK27  BANK28  BANK29  BANK30  BANK3
      +1  BANK32  BANK33  BANK34  BANK35  BANK36
  2688 ;;      Params:         2       0       0       0       0       0       0       0       0       0       0       0       
      +0       0       0       0       0       0       0       0       0       0       0       0       0       0       0       
      +0       0       0       0       0       0
  2689 ;;      Locals:        11       0       0       0       0       0       0       0       0       0       0       0       
      +0       0       0       0       0       0       0       0       0       0       0       0       0       0       0       
      +0       0       0       0       0       0
  2690 ;;      Temps:         15       0       0       0       0       0       0       0       0       0       0       0       
      +0       0       0       0       0       0       0       0       0       0       0       0       0       0       0       
      +0       0       0       0       0       0
  2691 ;;      Totals:        28       0       0       0       0       0       0       0       0       0       0       0       
      +0       0       0       0       0       0       0       0       0       0       0       0       0       0       0       
      +0       0       0       0       0       0
  2692 ;;Total ram usage:       28 bytes
  2693 ;; Hardware stack levels used: 1
  2694 ;; Hardware stack levels required when called: 2
  2695 ;; This function calls:
  2696 ;;		_StartWrite
  2697 ;; This function is called by:
  2698 ;;		_ProcessBootBuffer
  2699 ;; This function uses a non-reentrant model
  2700 ;;
  2701                           
  2702                           	psect	text22
  2703  000396                     __ptext22:
  2704                           	callstack 0
  2705  000396                     _Erase_Flash:
  2706                           	callstack 120
  2707  000396                     
  2708                           ;mcc_generated_files/pic18f_bootload.c: 319:     uint32_t address;;mcc_generated_files/p
      +                          ic18f_bootload.c: 321:     TBLPTRL = frame.address_L;
  2709  000396  0068  FFF0  F4F6   	movff	_frame+5,tblptrl	;volatile
  2710                           
  2711                           ;mcc_generated_files/pic18f_bootload.c: 322:     TBLPTRH = frame.address_H;
  2712  00039C  0068  FFF4  F4F7   	movff	_frame+6,tblptrh	;volatile
  2713                           
  2714                           ;mcc_generated_files/pic18f_bootload.c: 323:     TBLPTRU = frame.address_U;
  2715  0003A2  0068  FFF8  F4F8   	movff	_frame+7,tblptru	;volatile
  2716  0003A8                     
  2717                           ;mcc_generated_files/pic18f_bootload.c: 324:     address = (((uint32_t)frame.address_U) 
      +                          << 16)
  2718  0003A8  0068  FFF4  F504   	movff	_frame+6,??_Erase_Flash
  2719  0003AE  C504  F505         	movff	??_Erase_Flash,??_Erase_Flash+1
  2720  0003B2  6A06               	clrf	(??_Erase_Flash+2)^(0+1280),c
  2721  0003B4  6A07               	clrf	(??_Erase_Flash+3)^(0+1280),c
  2722  0003B6  6A08               	clrf	(??_Erase_Flash+4)^(0+1280),c
  2723  0003B8  C507  F508         	movff	??_Erase_Flash+3,??_Erase_Flash+4
  2724  0003BC  C506  F507         	movff	??_Erase_Flash+2,??_Erase_Flash+3
  2725  0003C0  C505  F506         	movff	??_Erase_Flash+1,??_Erase_Flash+2
  2726  0003C4  6A05               	clrf	(??_Erase_Flash+1)^(0+1280),c
  2727  0003C6  0068  FFF8  F509   	movff	_frame+7,??_Erase_Flash+5
  2728  0003CC  C509  F50A         	movff	??_Erase_Flash+5,??_Erase_Flash+6
  2729  0003D0  6A0B               	clrf	(??_Erase_Flash+7)^(0+1280),c
  2730  0003D2  6A0C               	clrf	(??_Erase_Flash+8)^(0+1280),c
  2731  0003D4  6A0D               	clrf	(??_Erase_Flash+9)^(0+1280),c
  2732  0003D6  C50B  F50D         	movff	??_Erase_Flash+7,??_Erase_Flash+9
  2733  0003DA  C50A  F50C         	movff	??_Erase_Flash+6,??_Erase_Flash+8
  2734  0003DE  6A0B               	clrf	(??_Erase_Flash+7)^(0+1280),c
  2735  0003E0  6A0A               	clrf	(??_Erase_Flash+6)^(0+1280),c
  2736  0003E2  5005               	movf	(??_Erase_Flash+1)^(0+1280),w,c
  2737  0003E4  240A               	addwf	(??_Erase_Flash+6)^(0+1280),w,c
  2738  0003E6  6E0E               	movwf	(??_Erase_Flash+10)^(0+1280),c
  2739  0003E8  5006               	movf	(??_Erase_Flash+2)^(0+1280),w,c
  2740  0003EA  200B               	addwfc	(??_Erase_Flash+7)^(0+1280),w,c
  2741  0003EC  6E0F               	movwf	(??_Erase_Flash+11)^(0+1280),c
  2742  0003EE  5007               	movf	(??_Erase_Flash+3)^(0+1280),w,c
  2743  0003F0  200C               	addwfc	(??_Erase_Flash+8)^(0+1280),w,c
  2744  0003F2  6E10               	movwf	(??_Erase_Flash+12)^(0+1280),c
  2745  0003F4  5008               	movf	(??_Erase_Flash+4)^(0+1280),w,c
  2746  0003F6  200D               	addwfc	(??_Erase_Flash+9)^(0+1280),w,c
  2747  0003F8  6E11               	movwf	(??_Erase_Flash+13)^(0+1280),c
  2748  0003FA  0068  FFF0  F512   	movff	_frame+5,??_Erase_Flash+14
  2749  000400  5012               	movf	(??_Erase_Flash+14)^(0+1280),w,c
  2750  000402  240E               	addwf	(??_Erase_Flash+10)^(0+1280),w,c
  2751  000404  6E13               	movwf	Erase_Flash@address^(0+1280),c
  2752  000406  0E00               	movlw	0
  2753  000408  200F               	addwfc	(??_Erase_Flash+11)^(0+1280),w,c
  2754  00040A  6E14               	movwf	(Erase_Flash@address+1)^(0+1280),c
  2755  00040C  0E00               	movlw	0
  2756  00040E  2010               	addwfc	(??_Erase_Flash+12)^(0+1280),w,c
  2757  000410  6E15               	movwf	(Erase_Flash@address+2)^(0+1280),c
  2758  000412  0E00               	movlw	0
  2759  000414  2011               	addwfc	(??_Erase_Flash+13)^(0+1280),w,c
  2760  000416  6E16               	movwf	(Erase_Flash@address+3)^(0+1280),c
  2761  000418                     
  2762                           ;mcc_generated_files/pic18f_bootload.c: 328:     uint8_t GIEBitValue = INTCON0bits.GIE;
  2763  000418  0E00               	movlw	0
  2764  00041A  BED6               	btfsc	214,7,c	;volatile
  2765  00041C  0E01               	movlw	1
  2766  00041E  6E19               	movwf	Erase_Flash@GIEBitValue^(0+1280),c
  2767  000420                     
  2768                           ;mcc_generated_files/pic18f_bootload.c: 331:     INTCON0bits.GIE = 0;
  2769  000420  9ED6               	bcf	214,7,c	;volatile
  2770  000422                     
  2771                           ;mcc_generated_files/pic18f_bootload.c: 333:     for (uint16_t i=0; i < frame.data_lengt
      +                          h; i++)
  2772  000422  0E00               	movlw	0
  2773  000424  6E18               	movwf	(Erase_Flash@i+1)^(0+1280),c
  2774  000426  0E00               	movlw	0
  2775  000428  6E17               	movwf	Erase_Flash@i^(0+1280),c
  2776  00042A  EF3A  F002         	goto	l1869
  2777  00042E                     l1855:
  2778                           
  2779                           ;mcc_generated_files/pic18f_bootload.c: 334:     {;mcc_generated_files/pic18f_bootload.c
      +                          : 335:         uint32_t blockStartAddr = (uint32_t) (address & ((0x020000 - 1) ^ ((128 *
      +                           2) - 1)));
  2780  00042E  0E00               	movlw	0
  2781  000430  1413               	andwf	Erase_Flash@address^(0+1280),w,c
  2782  000432  6E1A               	movwf	Erase_Flash@blockStartAddr^(0+1280),c
  2783  000434  0EFF               	movlw	255
  2784  000436  1414               	andwf	(Erase_Flash@address+1)^(0+1280),w,c
  2785  000438  6E1B               	movwf	(Erase_Flash@blockStartAddr+1)^(0+1280),c
  2786  00043A  0E01               	movlw	1
  2787  00043C  1415               	andwf	(Erase_Flash@address+2)^(0+1280),w,c
  2788  00043E  6E1C               	movwf	(Erase_Flash@blockStartAddr+2)^(0+1280),c
  2789  000440  0E00               	movlw	0
  2790  000442  1416               	andwf	(Erase_Flash@address+3)^(0+1280),w,c
  2791  000444  6E1D               	movwf	(Erase_Flash@blockStartAddr+3)^(0+1280),c
  2792  000446                     
  2793                           ;mcc_generated_files/pic18f_bootload.c: 339:         NVMADRU = (uint8_t) ((blockStartAdd
      +                          r & 0x00FF0000) >> 16);
  2794  000446  0061  F470  F045   	movff	Erase_Flash@blockStartAddr+2,69	;volatile
  2795  00044C                     
  2796                           ;mcc_generated_files/pic18f_bootload.c: 340:         NVMADRH = (uint8_t) ((blockStartAdd
      +                          r & 0x0000FF00) >> 8);
  2797  00044C  0061  F46C  F044   	movff	Erase_Flash@blockStartAddr+1,68	;volatile
  2798  000452                     
  2799                           ;mcc_generated_files/pic18f_bootload.c: 343:         NVMCON1bits.NVMCMD = 0b110;
  2800  000452  0100               	movlb	0	; () banked
  2801  000454  5141               	movf	65,w,b	;volsfr
  2802  000456  0BF8               	andlw	-8
  2803  000458  0906               	iorlw	6
  2804  00045A  6F41               	movwf	65,b	;volsfr
  2805  00045C                     
  2806                           ; BSR set to: 0
  2807                           ;mcc_generated_files/pic18f_bootload.c: 346:         StartWrite();
  2808  00045C  ECEA  F005         	call	_StartWrite	;wreg free
  2809  000460                     
  2810                           ;mcc_generated_files/pic18f_bootload.c: 347:         address += 128 * 2;
  2811  000460  0E00               	movlw	0
  2812  000462  2613               	addwf	Erase_Flash@address^(0+1280),f,c
  2813  000464  0E01               	movlw	1
  2814  000466  2214               	addwfc	(Erase_Flash@address+1)^(0+1280),f,c
  2815  000468  0E00               	movlw	0
  2816  00046A  2215               	addwfc	(Erase_Flash@address+2)^(0+1280),f,c
  2817  00046C  0E00               	movlw	0
  2818  00046E  2216               	addwfc	(Erase_Flash@address+3)^(0+1280),f,c
  2819  000470                     
  2820                           ;mcc_generated_files/pic18f_bootload.c: 348:     }
  2821  000470  4A17               	infsnz	Erase_Flash@i^(0+1280),f,c
  2822  000472  2A18               	incf	(Erase_Flash@i+1)^(0+1280),f,c
  2823  000474                     l1869:
  2824  000474  EE28  F3F8         	lfsr	2,_frame+1
  2825  000478  50DE               	movf	postinc2,w,c
  2826  00047A  5C17               	subwf	Erase_Flash@i^(0+1280),w,c
  2827  00047C  50DE               	movf	postinc2,w,c
  2828  00047E  5818               	subwfb	(Erase_Flash@i+1)^(0+1280),w,c
  2829  000480  A0D8               	btfss	status,0,c
  2830  000482  EF45  F002         	goto	u521
  2831  000486  EF47  F002         	goto	u520
  2832  00048A                     u521:
  2833  00048A  EF17  F002         	goto	l1855
  2834  00048E                     u520:
  2835  00048E                     
  2836                           ;mcc_generated_files/pic18f_bootload.c: 350:     INTCON0bits.GIE = GIEBitValue;
  2837  00048E  B019               	btfsc	Erase_Flash@GIEBitValue^(0+1280),0,c
  2838  000490  D002               	bra	u535
  2839  000492  9ED6               	bcf	214,7,c	;volatile
  2840  000494  D001               	bra	u536
  2841  000496                     u535:
  2842  000496  8ED6               	bsf	214,7,c	;volatile
  2843  000498                     u536:
  2844  000498                     
  2845                           ;mcc_generated_files/pic18f_bootload.c: 353:     NVMCON1bits.NVMCMD = 0b000;
  2846  000498  0EF8               	movlw	-8
  2847  00049A  0100               	movlb	0	; () banked
  2848  00049C  1741               	andwf	65,f,b	;volsfr
  2849  00049E                     
  2850                           ; BSR set to: 0
  2851                           ;mcc_generated_files/pic18f_bootload.c: 354:     frame.data[0] = 0x01;
  2852  00049E  0E01               	movlw	1
  2853  0004A0  0061 F3A2  F400    	movff	wreg,_frame+9
  2854  0004A6                     
  2855                           ; BSR set to: 0
  2856                           ;mcc_generated_files/pic18f_bootload.c: 355:     frame.EE_key_1 = 0x00;
  2857  0004A6  0E00               	movlw	0
  2858  0004A8  0061 F3A2  F3FA    	movff	wreg,_frame+3
  2859  0004AE                     
  2860                           ; BSR set to: 0
  2861                           ;mcc_generated_files/pic18f_bootload.c: 356:     frame.EE_key_2 = 0x00;
  2862  0004AE  0E00               	movlw	0
  2863  0004B0  0061 F3A2  F3FB    	movff	wreg,_frame+4
  2864                           
  2865                           ;mcc_generated_files/pic18f_bootload.c: 357:     return (10);
  2866  0004B6  0E00               	movlw	0
  2867  0004B8  6E03               	movwf	(?_Erase_Flash+1)^(0+1280),c
  2868  0004BA  0E0A               	movlw	10
  2869  0004BC  6E02               	movwf	?_Erase_Flash^(0+1280),c
  2870  0004BE                     
  2871                           ; BSR set to: 0
  2872  0004BE  0012               	return		;funcret
  2873  0004C0                     __end_of_Erase_Flash:
  2874                           	callstack 0
  2875                           
  2876 ;; *************** function _StartWrite *****************
  2877 ;; Defined at:
  2878 ;;		line 454 in file "mcc_generated_files/pic18f_bootload.c"
  2879 ;; Parameters:    Size  Location     Type
  2880 ;;		None
  2881 ;; Auto vars:     Size  Location     Type
  2882 ;;		None
  2883 ;; Return value:  Size  Location     Type
  2884 ;;                  1    wreg      void 
  2885 ;; Registers used:
  2886 ;;		None
  2887 ;; Tracked objects:
  2888 ;;		On entry : 0/0
  2889 ;;		On exit  : 0/0
  2890 ;;		Unchanged: 0/0
  2891 ;; Data sizes:     COMRAM   BANK5   BANK6   BANK7   BANK8   BANK9  BANK10  BANK11  BANK12  BANK13  BANK14  BANK15  BANK1
      +6  BANK17  BANK18  BANK19  BANK20  BANK21  BANK22  BANK23  BANK24  BANK25  BANK26  BANK27  BANK28  BANK29  BANK30  BANK3
      +1  BANK32  BANK33  BANK34  BANK35  BANK36
  2892 ;;      Params:         0       0       0       0       0       0       0       0       0       0       0       0       
      +0       0       0       0       0       0       0       0       0       0       0       0       0       0       0       
      +0       0       0       0       0       0
  2893 ;;      Locals:         0       0       0       0       0       0       0       0       0       0       0       0       
      +0       0       0       0       0       0       0       0       0       0       0       0       0       0       0       
      +0       0       0       0       0       0
  2894 ;;      Temps:          0       0       0       0       0       0       0       0       0       0       0       0       
      +0       0       0       0       0       0       0       0       0       0       0       0       0       0       0       
      +0       0       0       0       0       0
  2895 ;;      Totals:         0       0       0       0       0       0       0       0       0       0       0       0       
      +0       0       0       0       0       0       0       0       0       0       0       0       0       0       0       
      +0       0       0       0       0       0
  2896 ;;Total ram usage:        0 bytes
  2897 ;; Hardware stack levels used: 1
  2898 ;; Hardware stack levels required when called: 1
  2899 ;; This function calls:
  2900 ;;		Nothing
  2901 ;; This function is called by:
  2902 ;;		_Write_Flash
  2903 ;;		_Erase_Flash
  2904 ;;		_Write_Config
  2905 ;; This function uses a non-reentrant model
  2906 ;;
  2907                           
  2908                           	psect	text23
  2909  000BD4                     __ptext23:
  2910                           	callstack 0
  2911  000BD4                     _StartWrite:
  2912                           	callstack 120
  2913  000BD4  0100               	banksel	66	;# 
  2914  000BD6  5000               	movf	0,w,c	;# 
  2915  000BD8  6F42               	movwf	66,b	;# 
  2916  000BDA  5001               	movf	_EE_Key_2& (0+255),w,c	;# 
  2917  000BDC  6F42               	movwf	66,b	;# 
  2918  000BDE  8140               	bsf	64,0,b	;# 
  2919                           
  2920                           ;mcc_generated_files/pic18f_bootload.c: 462:     __nop();
  2921  000BE0  F000               	nop	
  2922                           
  2923                           ;mcc_generated_files/pic18f_bootload.c: 463:     __nop();
  2924  000BE2  F000               	nop	
  2925  000BE4  0012               	return		;funcret
  2926  000BE6                     __end_of_StartWrite:
  2927                           	callstack 0
  2928                           
  2929 ;; *************** function _Check_Device_Reset *****************
  2930 ;; Defined at:
  2931 ;;		line 472 in file "mcc_generated_files/pic18f_bootload.c"
  2932 ;; Parameters:    Size  Location     Type
  2933 ;;		None
  2934 ;; Auto vars:     Size  Location     Type
  2935 ;;		None
  2936 ;; Return value:  Size  Location     Type
  2937 ;;                  1    wreg      void 
  2938 ;; Registers used:
  2939 ;;		wreg, status,2, status,0
  2940 ;; Tracked objects:
  2941 ;;		On entry : 0/0
  2942 ;;		On exit  : 0/0
  2943 ;;		Unchanged: 0/0
  2944 ;; Data sizes:     COMRAM   BANK5   BANK6   BANK7   BANK8   BANK9  BANK10  BANK11  BANK12  BANK13  BANK14  BANK15  BANK1
      +6  BANK17  BANK18  BANK19  BANK20  BANK21  BANK22  BANK23  BANK24  BANK25  BANK26  BANK27  BANK28  BANK29  BANK30  BANK3
      +1  BANK32  BANK33  BANK34  BANK35  BANK36
  2945 ;;      Params:         0       0       0       0       0       0       0       0       0       0       0       0       
      +0       0       0       0       0       0       0       0       0       0       0       0       0       0       0       
      +0       0       0       0       0       0
  2946 ;;      Locals:         0       0       0       0       0       0       0       0       0       0       0       0       
      +0       0       0       0       0       0       0       0       0       0       0       0       0       0       0       
      +0       0       0       0       0       0
  2947 ;;      Temps:          0       0       0       0       0       0       0       0       0       0       0       0       
      +0       0       0       0       0       0       0       0       0       0       0       0       0       0       0       
      +0       0       0       0       0       0
  2948 ;;      Totals:         0       0       0       0       0       0       0       0       0       0       0       0       
      +0       0       0       0       0       0       0       0       0       0       0       0       0       0       0       
      +0       0       0       0       0       0
  2949 ;;Total ram usage:        0 bytes
  2950 ;; Hardware stack levels used: 1
  2951 ;; Hardware stack levels required when called: 1
  2952 ;; This function calls:
  2953 ;;		Nothing
  2954 ;; This function is called by:
  2955 ;;		_Run_Bootloader
  2956 ;; This function uses a non-reentrant model
  2957 ;;
  2958                           
  2959                           	psect	text24
  2960  000BC0                     __ptext24:
  2961                           	callstack 0
  2962  000BC0                     _Check_Device_Reset:
  2963                           	callstack 122
  2964  000BC0                     
  2965                           ;mcc_generated_files/pic18f_bootload.c: 474:     if (reset_pending == 1)
  2966  000BC0  042D               	decf	_reset_pending^(0+1280),w,c
  2967  000BC2  A4D8               	btfss	status,2,c
  2968  000BC4  EFE6  F005         	goto	u211
  2969  000BC8  EFE8  F005         	goto	u210
  2970  000BCC                     u211:
  2971  000BCC  EFE9  F005         	goto	l515
  2972  000BD0                     u210:
  2973  000BD0  00FF               	reset		;# 
  2974  000BD2                     l515:
  2975  000BD2  0012               	return		;funcret
  2976  000BD4                     __end_of_Check_Device_Reset:
  2977                           	callstack 0
  2978                           
  2979 ;; *************** function _Bootload_Required *****************
  2980 ;; Defined at:
  2981 ;;		line 137 in file "mcc_generated_files/pic18f_bootload.c"
  2982 ;; Parameters:    Size  Location     Type
  2983 ;;		None
  2984 ;; Auto vars:     Size  Location     Type
  2985 ;;  i               1   17[COMRAM] unsigned char 
  2986 ;;  Stored_Check    2   15[COMRAM] unsigned short 
  2987 ;; Return value:  Size  Location     Type
  2988 ;;                  1    wreg      _Bool 
  2989 ;; Registers used:
  2990 ;;		wreg, fsr2l, fsr2h, status,2, status,0, cstack
  2991 ;; Tracked objects:
  2992 ;;		On entry : 0/0
  2993 ;;		On exit  : 0/0
  2994 ;;		Unchanged: 0/0
  2995 ;; Data sizes:     COMRAM   BANK5   BANK6   BANK7   BANK8   BANK9  BANK10  BANK11  BANK12  BANK13  BANK14  BANK15  BANK1
      +6  BANK17  BANK18  BANK19  BANK20  BANK21  BANK22  BANK23  BANK24  BANK25  BANK26  BANK27  BANK28  BANK29  BANK30  BANK3
      +1  BANK32  BANK33  BANK34  BANK35  BANK36
  2996 ;;      Params:         0       0       0       0       0       0       0       0       0       0       0       0       
      +0       0       0       0       0       0       0       0       0       0       0       0       0       0       0       
      +0       0       0       0       0       0
  2997 ;;      Locals:         3       0       0       0       0       0       0       0       0       0       0       0       
      +0       0       0       0       0       0       0       0       0       0       0       0       0       0       0       
      +0       0       0       0       0       0
  2998 ;;      Temps:          0       0       0       0       0       0       0       0       0       0       0       0       
      +0       0       0       0       0       0       0       0       0       0       0       0       0       0       0       
      +0       0       0       0       0       0
  2999 ;;      Totals:         3       0       0       0       0       0       0       0       0       0       0       0       
      +0       0       0       0       0       0       0       0       0       0       0       0       0       0       0       
      +0       0       0       0       0       0
  3000 ;;Total ram usage:        3 bytes
  3001 ;; Hardware stack levels used: 1
  3002 ;; Hardware stack levels required when called: 2
  3003 ;; This function calls:
  3004 ;;		_Calc_Checksum
  3005 ;; This function is called by:
  3006 ;;		_BOOTLOADER_Initialize
  3007 ;; This function uses a non-reentrant model
  3008 ;;
  3009                           
  3010                           	psect	text25
  3011  0007F4                     __ptext25:
  3012                           	callstack 0
  3013  0007F4                     _Bootload_Required:
  3014                           	callstack 122
  3015  0007F4                     
  3016                           ;mcc_generated_files/pic18f_bootload.c: 143:     for (uint8_t i = 0; i != 0xFF; i++) __n
      +                          op();
  3017  0007F4  0E00               	movlw	0
  3018  0007F6  6E13               	movwf	Bootload_Required@i^(0+1280),c
  3019  0007F8                     l448:
  3020  0007F8  F000               	nop	
  3021  0007FA  2A13               	incf	Bootload_Required@i^(0+1280),f,c
  3022  0007FC  2813               	incf	Bootload_Required@i^(0+1280),w,c
  3023  0007FE  A4D8               	btfss	status,2,c
  3024  000800  EF04  F004         	goto	u661
  3025  000804  EF06  F004         	goto	u660
  3026  000808                     u661:
  3027  000808  EFFC  F003         	goto	l448
  3028  00080C                     u660:
  3029  00080C                     
  3030                           ;mcc_generated_files/pic18f_bootload.c: 145:     if (PORTBbits.RB4 == 0)
  3031  00080C  B8CF               	btfsc	207,4,c	;volatile
  3032  00080E  EF0B  F004         	goto	u671
  3033  000812  EF0D  F004         	goto	u670
  3034  000816                     u671:
  3035  000816  EF10  F004         	goto	l450
  3036  00081A                     u670:
  3037  00081A                     l1995:
  3038                           
  3039                           ;mcc_generated_files/pic18f_bootload.c: 146:     {;mcc_generated_files/pic18f_bootload.c
      +                          : 147:         return (1);
  3040  00081A  0E01               	movlw	1
  3041  00081C  EF47  F004         	goto	l451
  3042  000820                     l450:
  3043                           
  3044                           ;mcc_generated_files/pic18f_bootload.c: 153:     uint16_t Stored_Checksum;;mcc_generated
      +                          _files/pic18f_bootload.c: 155:     frame.address_L = (uint8_t) (0xd00 & 0x0000FF);
  3045  000820  0E00               	movlw	0
  3046  000822  0061 F3A2  F3FC    	movff	wreg,_frame+5
  3047                           
  3048                           ;mcc_generated_files/pic18f_bootload.c: 156:     frame.address_H = (uint8_t) ((0xd00 & 0
      +                          x00FF00) >> 8);
  3049  000828  0E0D               	movlw	13
  3050  00082A  0061 F3A2  F3FD    	movff	wreg,_frame+6
  3051                           
  3052                           ;mcc_generated_files/pic18f_bootload.c: 157:     frame.address_U = (uint8_t) ((0xd00 & 0
      +                          xFF0000) >> 16);
  3053  000830  0E00               	movlw	0
  3054  000832  0061 F3A2  F3FE    	movff	wreg,_frame+7
  3055                           
  3056                           ;mcc_generated_files/pic18f_bootload.c: 158:     frame.data_length = (0x020000 - 0xd00 -
      +                           2) & 0x00FFFF;
  3057  000838  0EFE               	movlw	254
  3058  00083A  0061 F3A2  F3F8    	movff	wreg,_frame+1
  3059  000840  0EF2               	movlw	242
  3060  000842  0061 F3A2  F3F9    	movff	wreg,_frame+2
  3061                           
  3062                           ;mcc_generated_files/pic18f_bootload.c: 160:     frame.EE_key_1 = ((0x020000 - 0xd00 - 2
      +                          ) & 0xFF0000) >> 16;
  3063  000848  0E01               	movlw	1
  3064  00084A  0061 F3A2  F3FA    	movff	wreg,_frame+3
  3065  000850                     
  3066                           ;mcc_generated_files/pic18f_bootload.c: 162:     Calc_Checksum ();
  3067  000850  ECDE  F002         	call	_Calc_Checksum	;wreg free
  3068  000854                     
  3069                           ;mcc_generated_files/pic18f_bootload.c: 163:     TBLPTR = (0x020000 - 2);
  3070  000854  0EFE               	movlw	254
  3071  000856  6EF6               	movwf	246,c	;volatile
  3072  000858  0EFF               	movlw	255
  3073  00085A  6EF7               	movwf	247,c	;volatile
  3074  00085C  0E01               	movlw	1
  3075  00085E  6EF8               	movwf	248,c	;volatile
  3076  000860  0009               	tblrd		*+	;# 
  3077  000862                     
  3078                           ;mcc_generated_files/pic18f_bootload.c: 165:     Stored_Checksum = TABLAT;
  3079  000862  0061 F3D4  F511    	movff	tablat,Bootload_Required@Stored_Checksum	;volatile
  3080  000868  6A12               	clrf	(Bootload_Required@Stored_Checksum+1)^(0+1280),c
  3081  00086A  0009               	tblrd		*+	;# 
  3082  00086C                     
  3083                           ;mcc_generated_files/pic18f_bootload.c: 167:     Stored_Checksum += ((uint16_t)TABLAT) <
      +                          < 8;
