:040A000027EF05F0E7
:100A08001B82FACF10F0FBCF11F0F2AC0EEF05F01D
:100A180010EF05F021EF05F00E01BDAB16EF05F064
:100A280018EF05F021EF05F0C5AB1DEF05F01FEF3E
:100A380005F021EF05F00FEC08F011C0FBFF10C026
:0A0A4800FAFF1B921100A7EF08F05F
:100F000000C210000000000000000000005C1100A2
:100F100000000000000E826E000E836E000E846ED4
:100F2000000E856E000E866E9F0E876E886889683B
:100F30008A68070E8B6E9F0E0F010C6F14691C6977
:100F40002169070E296F000E0B6F000E136F000E44
:100F50001B6F000E206F000E286F000E0A6F000E30
:100F6000126F000E1A6F000E1F6F000E276F0969B7
:100F7000116919691E69070E266F086910691869D9
:100F80001D690F0E256F040E0E019F6F000E0F01DD
:100F9000076F000E066F000E056F000E0F6F000E3C
:100FA0000E6F000E0D6F000E176F000E166F000E05
:100FB000156F000E246F000E236F000E226F1200BB
:100FC0009EEC08F0F60E126E100E136E000E146EEC
:100FD000AEEC08F0F28EF28C290E186E960E176E9B
:100FE0007F0EE82EFED7172EFCD7182EFAD700F06A
:100FF00082BCFDEF07F000EF08F0010E01EF08F0F2
:10100000000EFF0A176E173A174617468250171838
:10101000BF0B1718826EECEF07F027EF05F00E01FB
:10102000C59B0E50D36E0DC0D2FF194A1A2AF40E7A
:10103000195C010E1A58D8A020EF08F022EF08F032
:101040003DEF08F00A500B100C10D8B42AEF08F04E
:101050002CEF08F039EF08F002D839EF08F005005E
:10106000FA6E0A50FD6E0B50FE6E0C50FF6EFA5079
:101070001200000E1A6E000E196E1200F29A0E0186
:10108000C591F280000E126E000E136E000E146EEB
:10109000C3EC08F00E01C593F282000E126E000E32
:1010A000136E000E146EBCEC08F00E01C595F284B0
:1010B000000E126E000E136E000E146EB5EC08F0EA
:1010C0001200C10ED36E800ED26E400ED56ED3507C
:1010D000156ED2500D6E15C00EF0940E126E110EDC
:1010E000136E000E146EAEEC08F00E01C59BBD8BA6
:1010F000900ED46E120082BA80EF08F083EF08F0F1
:10110000010E84EF08F0000EFF0A0F6E0F3A0F4633
:1011100082500F18DF0B0F18826E1200600E0E0146
:10112000D36F700ED46F000ED56F000ED76F080E00
:10113000D96F000ED66F000ED86F12008EEC08F03B
:101140008AEC07F061EC08F03EEC08F012001A6A35
:10115000196A1B901B920001E0EF07F012C00AF021
:1011600013C00BF014C00CF0120012C001F013C039
:1011700002F014C003F0120012C004F013C005F016
:1011800014C006F0120012C007F013C008F014C01B
:0611900009F0120012003C
:020000040020DA
:10000000FFFFFFFFFFFFFFFFFFFFFFFFFFFFFFFF00
:10001000FFFFFFFFFFFFFFFFFFFFFFFFFFFFFFFFF0
:10002000FFFFFFFFFFFFFFFFFFFFFFFFFFFFFFFFE0
:10003000FFFFFFFFFFFFFFFFFFFFFFFFFFFFFFFFD0
:10004000FFFFFFFFFFFFFFFFFFFFFFFFFFFFFFFFC0
:10005000FFFFFFFFFFFFFFFFFFFFFFFFFFFFFFFFB0
:10006000FFFFFFFFFFFFFFFFFFFFFFFFFFFFFFFFA0
:10007000FFFFFFFFFFFFFFFFFFFFFFFFFFFFFFFF90
:10008000FFFFFFFFFFFFFFFFFFFFFFFFFFFFFFFF80
:10009000FFFFFFFFFFFFFFFFFFFFFFFFFFFFFFFF70
:1000A000FFFFFFFFFFFFFFFFFFFFFFFFFFFFFFFF60
:1000B000FFFFFFFFFFFFFFFFFFFFFFFFFFFFFFFF50
:1000C000FFFFFFFFFFFFFFFFFFFFFFFFFFFFFFFF40
:1000D000FFFFFFFFFFFFFFFFFFFFFFFFFFFFFFFF30
:1000E000FFFFFFFFFFFFFFFFFFFFFFFFFFFFFFFF20
:1000F000FFFFFFFFFFFFFFFFFFFFFFFFFFFFFFFF10
:020000040030CA
:0C000000FCFFFFFF9FFFFFFFFFFFFFFF63
:00000001FF
