

Microchip MPLAB XC8 Assembler V2.32 build 20210201212658 
                                                                                               Thu Jul 29 15:33:10 2021

Microchip MPLAB XC8 C Compiler v2.32 (Free license) build 20210201212658 Og1 
     1                           	processor	18F47Q10
     2                           	fnconf	rparam,??,?,0
     3                           	pagewidth 120
     4                           	opt	flic
     5                           	psect	smallconst,global,reloc=2,class=SMALLCONST,delta=1,noexec
     6                           	psect	nvCOMRAM,global,class=COMRAM,space=1,delta=1,lowdata,noexec
     7                           	psect	cinit,global,reloc=2,class=CODE,delta=1
     8                           	psect	bssCOMRAM,global,class=COMRAM,space=1,delta=1,lowdata,noexec
     9                           	psect	cstackCOMRAM,global,class=COMRAM,space=1,delta=1,lowdata,noexec
    10                           	psect	text0,global,reloc=2,class=CODE,delta=1
    11                           	psect	text1,global,reloc=2,class=CODE,delta=1
    12                           	psect	text2,global,reloc=2,class=CODE,delta=1
    13                           	psect	text3,global,reloc=2,class=CODE,delta=1
    14                           	psect	text4,global,reloc=2,class=CODE,delta=1
    15                           	psect	text5,global,reloc=2,class=CODE,delta=1
    16                           	psect	text6,global,reloc=2,class=CODE,delta=1
    17                           	psect	text7,global,reloc=2,class=CODE,delta=1
    18                           	psect	text8,global,reloc=2,class=CODE,delta=1
    19                           	psect	text9,global,reloc=2,class=CODE,delta=1
    20                           	psect	intcode,global,reloc=2,class=CODE,delta=1
    21                           	psect	text11,global,reloc=2,class=CODE,delta=1
    22                           	psect	text12,global,reloc=2,class=CODE,delta=1
    23                           	psect	text13,global,reloc=2,class=CODE,delta=1
    24                           	psect	intsave_regs,global,class=BIGRAM,space=1,delta=1,noexec
    25                           	psect	text14,global,reloc=2,class=CODE,delta=1
    26                           	psect	rparam,global,class=COMRAM,space=1,delta=1,noexec
    27                           	psect	temp,global,ovrld,common,class=COMRAM,space=1,delta=1
    28                           	psect	idloc,global,abs,ovrld,class=IDLOC,space=5,delta=1,noexec
    29                           	psect	config,global,abs,ovrld,class=CONFIG,space=4,delta=1,noexec
    30  0000                     
    31                           ; Version 2.35
    32                           ; Generated 04/06/2021 GMT
    33                           ; 
    34                           ; Copyright © 2021, Microchip Technology Inc. and its subsidiaries ("Microchip")
    35                           ; All rights reserved.
    36                           ; 
    37                           ; This software is developed by Microchip Technology Inc. and its subsidiaries ("Microch
      +                          ip").
    38                           ; 
    39                           ; Redistribution and use in source and binary forms, with or without modification, are
    40                           ; permitted provided that the following conditions are met:
    41                           ; 
    42                           ;     1. Redistributions of source code must retain the above copyright notice, this lis
      +                          t of
    43                           ;        conditions and the following disclaimer.
    44                           ; 
    45                           ;     2. Redistributions in binary form must reproduce the above copyright notice, this 
      +                          list
    46                           ;        of conditions and the following disclaimer in the documentation and/or other
    47                           ;        materials provided with the distribution. Publication is not required when
    48                           ;        this file is used in an embedded application.
    49                           ; 
    50                           ;     3. Microchip's name may not be used to endorse or promote products derived from th
      +                          is
    51                           ;        software without specific prior written permission.
    52                           ; 
    53                           ; THIS SOFTWARE IS PROVIDED BY MICROCHIP "AS IS" AND ANY EXPRESS OR IMPLIED WARRANTIES,
    54                           ; INCLUDING, BUT NOT LIMITED TO, THE IMPLIED WARRANTIES OF MERCHANTABILITY AND FITNESS F
      +                          OR
    55                           ; PURPOSE ARE DISCLAIMED.  IN NO EVENT SHALL MICROCHIP BE LIABLE FOR ANY DIRECT, INDIREC
      +                          T,
    56                           ; INCIDENTAL, SPECIAL, EXEMPLARY, OR CONSEQUENTIAL DAMAGES (INCLUDING BUT NOT LIMITED TO
    57                           ; PROCUREMENT OF SUBSTITUTE GOODS OR SERVICES; LOSS OF USE, DATA OR PROFITS; OR BUSINESS
    58                           ; INTERRUPTION) HOWSOEVER CAUSED AND ON ANY THEORY OF LIABILITY, WHETHER IN CONTRACT, ST
      +                          RICT
    59                           ; LIABILITY, OR TORT (INCLUDING NEGLIGENCE OR OTHERWISE) ARISING IN ANY WAY OUT OF THE U
      +                          SE OF
    60                           ; THIS SOFTWARE, EVEN IF ADVISED OF THE POSSIBILITY OF SUCH DAMAGE.
    61                           ; 
    62                           ; 
    63                           ; Code-generator required, PIC18F47Q10 Definitions
    64                           ; 
    65                           ; SFR Addresses
    66  0000                     
    67 ;; Function _Timer0_Start is unused but had its address taken
    68  0000                     
    69 ;; Function _Timer0_Stop is unused but had its address taken
    70  0000                     
    71 ;; Function _Timer0_Write is unused but had its address taken
    72  0000                     
    73 ;; Function _INT0_DefaultInterruptHandler is unused but had its address taken
    74  0000                     
    75 ;; Function _INT1_DefaultInterruptHandler is unused but had its address taken
    76  0000                     
    77 ;; Function _INT2_DefaultInterruptHandler is unused but had its address taken
    78  0000                     
    79                           	psect	smallconst
    80  000F00                     __psmallconst:
    81                           	callstack 0
    82  000F00  00                 	db	0
    83  000F01                     _Timer0:
    84                           	callstack 0
    85  000F01  C2                 	db	low _Timer0_Initialize
    86  000F02  10                 	db	high _Timer0_Initialize
    87  000F03  00                 	db	low (_Timer0_Initialize shr (0+16))
    88  000F04  00                 	db	0
    89  000F05  00                 	db	0
    90  000F06  00                 	db	0
    91  000F07  00                 	db	0
    92  000F08  00                 	db	0
    93  000F09  00                 	db	0
    94  000F0A  00                 	db	0
    95  000F0B  00                 	db	0
    96  000F0C  00                 	db	0
    97  000F0D  5C                 	db	low _Timer0_OverflowCallbackRegister
    98  000F0E  11                 	db	high _Timer0_OverflowCallbackRegister
    99  000F0F  00                 	db	low (_Timer0_OverflowCallbackRegister shr (0+16))
   100  000F10  00                 	db	0
   101  000F11  00                 	db	0
   102  000F12  00                 	db	0
   103  000F13                     __end_of_Timer0:
   104                           	callstack 0
   105  000F13  00                 	db	0	; dummy byte at the end
   106  0000                     
   107                           	psect	nvCOMRAM
   108  000001                     __pnvCOMRAM:
   109                           	callstack 0
   110  000001                     _INT2_InterruptHandler:
   111                           	callstack 0
   112  000001                     	ds	3
   113  000004                     _INT1_InterruptHandler:
   114                           	callstack 0
   115  000004                     	ds	3
   116  000007                     _INT0_InterruptHandler:
   117                           	callstack 0
   118  000007                     	ds	3
   119  00000A                     _Timer0_OverflowCallback:
   120                           	callstack 0
   121  00000A                     	ds	3
   122  00000D                     _timerTMR0ReloadVal16bit:
   123                           	callstack 0
   124  00000D                     	ds	2
   125  0000                     _T0CKIPPS	set	3743
   126  0000                     _OSCTUNE	set	3800
   127  0000                     _OSCSTAT	set	3798
   128  0000                     _OSCFRQ	set	3801
   129  0000                     _OSCEN	set	3799
   130  0000                     _OSCCON3	set	3797
   131  0000                     _OSCCON2	set	3796
   132  0000                     _OSCCON1	set	3795
   133  0000                     _PIE0bits	set	3773
   134  0000                     _PIR0bits	set	3781
   135  0000                     _IOCEF	set	3874
   136  0000                     _IOCEN	set	3875
   137  0000                     _IOCEP	set	3876
   138  0000                     _IOCCF	set	3861
   139  0000                     _IOCCN	set	3862
   140  0000                     _IOCCP	set	3863
   141  0000                     _IOCBF	set	3853
   142  0000                     _IOCBN	set	3854
   143  0000                     _IOCBP	set	3855
   144  0000                     _IOCAF	set	3845
   145  0000                     _IOCAN	set	3846
   146  0000                     _IOCAP	set	3847
   147  0000                     _INLVLE	set	3877
   148  0000                     _INLVLD	set	3869
   149  0000                     _INLVLC	set	3864
   150  0000                     _INLVLB	set	3856
   151  0000                     _INLVLA	set	3848
   152  0000                     _SLRCONE	set	3878
   153  0000                     _SLRCOND	set	3870
   154  0000                     _SLRCONC	set	3865
   155  0000                     _SLRCONB	set	3857
   156  0000                     _SLRCONA	set	3849
   157  0000                     _ODCONE	set	3879
   158  0000                     _ODCOND	set	3871
   159  0000                     _ODCONC	set	3866
   160  0000                     _ODCONB	set	3858
   161  0000                     _ODCONA	set	3850
   162  0000                     _WPUE	set	3880
   163  0000                     _WPUD	set	3872
   164  0000                     _WPUC	set	3867
   165  0000                     _WPUB	set	3859
   166  0000                     _WPUA	set	3851
   167  0000                     _ANSELE	set	3881
   168  0000                     _ANSELD	set	3873
   169  0000                     _ANSELC	set	3868
   170  0000                     _ANSELB	set	3860
   171  0000                     _ANSELA	set	3852
   172  0000                     _TRISE	set	3979
   173  0000                     _TRISD	set	3978
   174  0000                     _TRISC	set	3977
   175  0000                     _TRISB	set	3976
   176  0000                     _TRISA	set	3975
   177  0000                     _LATE	set	3974
   178  0000                     _LATD	set	3973
   179  0000                     _LATC	set	3972
   180  0000                     _LATB	set	3971
   181  0000                     _LATA	set	3970
   182  0000                     _INTCONbits	set	4082
   183  0000                     _LATAbits	set	3970
   184  0000                     _T0CON0bits	set	4052
   185  0000                     _T0CON0	set	4052
   186  0000                     _T0CON1	set	4053
   187  0000                     _TMR0L	set	4050
   188  0000                     _TMR0H	set	4051
   189                           
   190                           ; #config settings
   191                           
   192                           	psect	cinit
   193  00114E                     __pcinit:
   194                           	callstack 0
   195  00114E                     start_initialization:
   196                           	callstack 0
   197  00114E                     __initialization:
   198                           	callstack 0
   199                           
   200                           ; Clear objects allocated to COMRAM (2 bytes)
   201  00114E  6A1A               	clrf	(__pbssCOMRAM+1)& (0+255),c
   202  001150  6A19               	clrf	__pbssCOMRAM& (0+255),c
   203  001152                     end_of_initialization:
   204                           	callstack 0
   205  001152                     __end_of__initialization:
   206                           	callstack 0
   207  001152  901B               	bcf	int$flags,0,c	;clear compiler interrupt flag (level 1)
   208  001154  921B               	bcf	int$flags,1,c	;clear compiler interrupt flag (level 2)
   209  001156  0100               	movlb	0
   210  001158  EFE0  F007         	goto	_main	;jump to C main() function
   211                           
   212                           	psect	bssCOMRAM
   213  000019                     __pbssCOMRAM:
   214                           	callstack 0
   215  000019                     Timer0_OverflowISR@CountCallBack:
   216                           	callstack 0
   217  000019                     	ds	2
   218                           
   219                           	psect	cstackCOMRAM
   220  00000F                     __pcstackCOMRAM:
   221                           	callstack 0
   222  00000F                     ??_Timer0_UserOverflowCallback:
   223  00000F                     
   224                           ; 2 bytes @ 0x0
   225  00000F                     	ds	1
   226  000010                     ??_INTERRUPT_InterruptManager:
   227                           
   228                           ; 1 bytes @ 0x1
   229  000010                     	ds	2
   230  000012                     Timer0_OverflowCallbackRegister@CallbackHandler:
   231                           	callstack 0
   232  000012                     INT0_SetInterruptHandler@InterruptHandler:
   233                           	callstack 0
   234  000012                     INT1_SetInterruptHandler@InterruptHandler:
   235                           	callstack 0
   236  000012                     INT2_SetInterruptHandler@InterruptHandler:
   237                           	callstack 0
   238                           
   239                           ; 3 bytes @ 0x3
   240  000012                     	ds	3
   241  000015                     ??_Timer0_Initialize:
   242  000015                     
   243                           ; 1 bytes @ 0x6
   244  000015                     	ds	2
   245  000017                     ??_main:
   246                           
   247                           ; 1 bytes @ 0x8
   248  000017                     	ds	2
   249                           
   250 ;;
   251 ;;Main: autosize = 0, tempsize = 2, incstack = 0, save=0
   252 ;;
   253 ;; *************** function _main *****************
   254 ;; Defined at:
   255 ;;		line 47 in file "main.c"
   256 ;; Parameters:    Size  Location     Type
   257 ;;		None
   258 ;; Auto vars:     Size  Location     Type
   259 ;;		None
   260 ;; Return value:  Size  Location     Type
   261 ;;                  2   82[None  ] int 
   262 ;; Registers used:
   263 ;;		wreg, status,2, status,0, cstack
   264 ;; Tracked objects:
   265 ;;		On entry : 0/0
   266 ;;		On exit  : 0/0
   267 ;;		Unchanged: 0/0
   268 ;; Data sizes:     COMRAM   BANK0   BANK1   BANK2   BANK3   BANK4   BANK5   BANK6   BANK7   BANK8   BANK9  BANK10  BANK1
      +1  BANK12  BANK13  BANK14
   269 ;;      Params:         0       0       0       0       0       0       0       0       0       0       0       0       
      +0       0       0       0
   270 ;;      Locals:         0       0       0       0       0       0       0       0       0       0       0       0       
      +0       0       0       0
   271 ;;      Temps:          2       0       0       0       0       0       0       0       0       0       0       0       
      +0       0       0       0
   272 ;;      Totals:         2       0       0       0       0       0       0       0       0       0       0       0       
      +0       0       0       0
   273 ;;Total ram usage:        2 bytes
   274 ;; Hardware stack levels required when called: 6
   275 ;; This function calls:
   276 ;;		_SYSTEM_Initialize
   277 ;;		_Timer0_OverflowCallbackRegister
   278 ;; This function is called by:
   279 ;;		Startup code after reset
   280 ;; This function uses a non-reentrant model
   281 ;;
   282                           
   283                           	psect	text0
   284  000FC0                     __ptext0:
   285                           	callstack 0
   286  000FC0                     _main:
   287                           	callstack 25
   288  000FC0                     
   289                           ;main.c: 49:     SYSTEM_Initialize();
   290  000FC0  EC9E  F008         	call	_SYSTEM_Initialize	;wreg free
   291                           
   292                           ;main.c: 52:     Timer0_OverflowCallbackRegister(Timer0_UserOverflowCallback);
   293  000FC4  0EF6               	movlw	low _Timer0_UserOverflowCallback
   294  000FC6  6E12               	movwf	Timer0_OverflowCallbackRegister@CallbackHandler^0,c
   295  000FC8  0E10               	movlw	high _Timer0_UserOverflowCallback
   296  000FCA  6E13               	movwf	(Timer0_OverflowCallbackRegister@CallbackHandler+1)^0,c
   297  000FCC  0E00               	movlw	low (_Timer0_UserOverflowCallback shr (0+16))
   298  000FCE  6E14               	movwf	(Timer0_OverflowCallbackRegister@CallbackHandler+2)^0,c
   299  000FD0  ECAE  F008         	call	_Timer0_OverflowCallbackRegister	;wreg free
   300  000FD4                     
   301                           ;main.c: 55:     (INTCONbits.GIE = 1);
   302  000FD4  8EF2               	bsf	242,7,c	;volatile
   303  000FD6                     
   304                           ;main.c: 61:     (INTCONbits.PEIE = 1);
   305  000FD6  8CF2               	bsf	242,6,c	;volatile
   306  000FD8                     l1163:
   307                           
   308                           ;main.c: 67:     {;main.c: 68:         _delay((unsigned long)((500)*(64000000/4000.0)));
   309  000FD8  0E29               	movlw	41
   310  000FDA  6E18               	movwf	(??_main+1)^0,c
   311  000FDC  0E96               	movlw	150
   312  000FDE  6E17               	movwf	??_main^0,c
   313  000FE0  0E7F               	movlw	127
   314  000FE2                     u167:
   315  000FE2  2EE8               	decfsz	wreg,f,c
   316  000FE4  D7FE               	bra	u167
   317  000FE6  2E17               	decfsz	??_main^0,f,c
   318  000FE8  D7FC               	bra	u167
   319  000FEA  2E18               	decfsz	(??_main+1)^0,f,c
   320  000FEC  D7FA               	bra	u167
   321  000FEE  F000               	nop	
   322  000FF0  BC82               	btfsc	130,6,c	;volatile
   323  000FF2  EFFD  F007         	goto	u151
   324  000FF6  EF00  F008         	goto	u150
   325  000FFA                     u151:
   326  000FFA  0E01               	movlw	1
   327  000FFC  EF01  F008         	goto	u156
   328  001000                     u150:
   329  001000  0E00               	movlw	0
   330  001002                     u156:
   331  001002  0AFF               	xorlw	255
   332  001004  6E17               	movwf	??_main^0,c
   333  001006  3A17               	swapf	??_main^0,f,c
   334  001008  4617               	rlncf	??_main^0,f,c
   335  00100A  4617               	rlncf	??_main^0,f,c
   336  00100C  5082               	movf	130,w,c	;volatile
   337  00100E  1817               	xorwf	??_main^0,w,c
   338  001010  0BBF               	andlw	-65
   339  001012  1817               	xorwf	??_main^0,w,c
   340  001014  6E82               	movwf	130,c	;volatile
   341  001016  EFEC  F007         	goto	l1163
   342  00101A  EF27  F005         	goto	start
   343  00101E                     __end_of_main:
   344                           	callstack 0
   345                           
   346 ;; *************** function _SYSTEM_Initialize *****************
   347 ;; Defined at:
   348 ;;		line 62 in file "mcc_generated_files/system/src/system.c"
   349 ;; Parameters:    Size  Location     Type
   350 ;;		None
   351 ;; Auto vars:     Size  Location     Type
   352 ;;		None
   353 ;; Return value:  Size  Location     Type
   354 ;;                  1    wreg      void 
   355 ;; Registers used:
   356 ;;		wreg, status,2, status,0, cstack
   357 ;; Tracked objects:
   358 ;;		On entry : 0/0
   359 ;;		On exit  : 0/0
   360 ;;		Unchanged: 0/0
   361 ;; Data sizes:     COMRAM   BANK0   BANK1   BANK2   BANK3   BANK4   BANK5   BANK6   BANK7   BANK8   BANK9  BANK10  BANK1
      +1  BANK12  BANK13  BANK14
   362 ;;      Params:         0       0       0       0       0       0       0       0       0       0       0       0       
      +0       0       0       0
   363 ;;      Locals:         0       0       0       0       0       0       0       0       0       0       0       0       
      +0       0       0       0
   364 ;;      Temps:          0       0       0       0       0       0       0       0       0       0       0       0       
      +0       0       0       0
   365 ;;      Totals:         0       0       0       0       0       0       0       0       0       0       0       0       
      +0       0       0       0
   366 ;;Total ram usage:        0 bytes
   367 ;; Hardware stack levels used: 1
   368 ;; Hardware stack levels required when called: 5
   369 ;; This function calls:
   370 ;;		_CLOCK_Initialize
   371 ;;		_INTERRUPT_Initialize
   372 ;;		_PIN_MANAGER_Initialize
   373 ;;		_Timer0_Initialize
   374 ;; This function is called by:
   375 ;;		_main
   376 ;; This function uses a non-reentrant model
   377 ;;
   378                           
   379                           	psect	text1
   380  00113C                     __ptext1:
   381                           	callstack 0
   382  00113C                     _SYSTEM_Initialize:
   383                           	callstack 25
   384  00113C                     
   385                           ;mcc_generated_files/system/src/system.c: 64:     CLOCK_Initialize();
   386  00113C  EC8E  F008         	call	_CLOCK_Initialize	;wreg free
   387                           
   388                           ;mcc_generated_files/system/src/system.c: 65:     PIN_MANAGER_Initialize();
   389  001140  EC8A  F007         	call	_PIN_MANAGER_Initialize	;wreg free
   390  001144                     
   391                           ;mcc_generated_files/system/src/system.c: 66:     Timer0_Initialize();
   392  001144  EC61  F008         	call	_Timer0_Initialize	;wreg free
   393  001148                     
   394                           ;mcc_generated_files/system/src/system.c: 67:     INTERRUPT_Initialize();
   395  001148  EC3E  F008         	call	_INTERRUPT_Initialize	;wreg free
   396  00114C  0012               	return		;funcret
   397  00114E                     __end_of_SYSTEM_Initialize:
   398                           	callstack 0
   399                           
   400 ;; *************** function _Timer0_Initialize *****************
   401 ;; Defined at:
   402 ;;		line 73 in file "mcc_generated_files/timer/src/tmr0.c"
   403 ;; Parameters:    Size  Location     Type
   404 ;;		None
   405 ;; Auto vars:     Size  Location     Type
   406 ;;		None
   407 ;; Return value:  Size  Location     Type
   408 ;;                  1    wreg      void 
   409 ;; Registers used:
   410 ;;		wreg, status,2, status,0, cstack
   411 ;; Tracked objects:
   412 ;;		On entry : 0/0
   413 ;;		On exit  : 0/0
   414 ;;		Unchanged: 0/0
   415 ;; Data sizes:     COMRAM   BANK0   BANK1   BANK2   BANK3   BANK4   BANK5   BANK6   BANK7   BANK8   BANK9  BANK10  BANK1
      +1  BANK12  BANK13  BANK14
   416 ;;      Params:         0       0       0       0       0       0       0       0       0       0       0       0       
      +0       0       0       0
   417 ;;      Locals:         0       0       0       0       0       0       0       0       0       0       0       0       
      +0       0       0       0
   418 ;;      Temps:          2       0       0       0       0       0       0       0       0       0       0       0       
      +0       0       0       0
   419 ;;      Totals:         2       0       0       0       0       0       0       0       0       0       0       0       
      +0       0       0       0
   420 ;;Total ram usage:        2 bytes
   421 ;; Hardware stack levels used: 1
   422 ;; Hardware stack levels required when called: 4
   423 ;; This function calls:
   424 ;;		_Timer0_OverflowCallbackRegister
   425 ;; This function is called by:
   426 ;;		_SYSTEM_Initialize
   427 ;; This function uses a non-reentrant model
   428 ;;
   429                           
   430                           	psect	text2
   431  0010C2                     __ptext2:
   432                           	callstack 0
   433  0010C2                     _Timer0_Initialize:
   434                           	callstack 25
   435  0010C2                     
   436                           ;mcc_generated_files/timer/src/tmr0.c: 76:     TMR0H = 0xC1;
   437  0010C2  0EC1               	movlw	193
   438  0010C4  6ED3               	movwf	211,c	;volatile
   439                           
   440                           ;mcc_generated_files/timer/src/tmr0.c: 79:     TMR0L = 0x80;
   441  0010C6  0E80               	movlw	128
   442  0010C8  6ED2               	movwf	210,c	;volatile
   443                           
   444                           ;mcc_generated_files/timer/src/tmr0.c: 82:     T0CON1 = 0x40;
   445  0010CA  0E40               	movlw	64
   446  0010CC  6ED5               	movwf	213,c	;volatile
   447                           
   448                           ;mcc_generated_files/timer/src/tmr0.c: 85:     timerTMR0ReloadVal16bit = ((uint16_t)TMR0
      +                          H << 8) | TMR0L;
   449  0010CE  50D3               	movf	211,w,c	;volatile
   450  0010D0  6E15               	movwf	??_Timer0_Initialize^0,c
   451  0010D2  50D2               	movf	210,w,c	;volatile
   452  0010D4  6E0D               	movwf	_timerTMR0ReloadVal16bit^0,c	;volatile
   453  0010D6  C015  F00E         	movff	??_Timer0_Initialize,_timerTMR0ReloadVal16bit+1	;volatile
   454  0010DA                     
   455                           ;mcc_generated_files/timer/src/tmr0.c: 88:     Timer0_OverflowCallbackRegister(Timer0_De
      +                          faultOverflowCallback);
   456  0010DA  0E94               	movlw	low _Timer0_DefaultOverflowCallback
   457  0010DC  6E12               	movwf	Timer0_OverflowCallbackRegister@CallbackHandler^0,c
   458  0010DE  0E11               	movlw	high _Timer0_DefaultOverflowCallback
   459  0010E0  6E13               	movwf	(Timer0_OverflowCallbackRegister@CallbackHandler+1)^0,c
   460  0010E2  0E00               	movlw	low (_Timer0_DefaultOverflowCallback shr (0+16))
   461  0010E4  6E14               	movwf	(Timer0_OverflowCallbackRegister@CallbackHandler+2)^0,c
   462  0010E6  ECAE  F008         	call	_Timer0_OverflowCallbackRegister	;wreg free
   463  0010EA                     
   464                           ;mcc_generated_files/timer/src/tmr0.c: 91:     PIR0bits.TMR0IF = 0;
   465  0010EA  010E               	movlb	14	; () banked
   466  0010EC  9BC5               	bcf	197,5,b	;volatile
   467  0010EE                     
   468                           ; BSR set to: 14
   469                           ;mcc_generated_files/timer/src/tmr0.c: 94:     PIE0bits.TMR0IE = 1;
   470  0010EE  8BBD               	bsf	189,5,b	;volatile
   471  0010F0                     
   472                           ; BSR set to: 14
   473                           ;mcc_generated_files/timer/src/tmr0.c: 97:     T0CON0 = 0x90;
   474  0010F0  0E90               	movlw	144
   475  0010F2  6ED4               	movwf	212,c	;volatile
   476  0010F4                     
   477                           ; BSR set to: 14
   478  0010F4  0012               	return		;funcret
   479  0010F6                     __end_of_Timer0_Initialize:
   480                           	callstack 0
   481                           
   482 ;; *************** function _Timer0_OverflowCallbackRegister *****************
   483 ;; Defined at:
   484 ;;		line 159 in file "mcc_generated_files/timer/src/tmr0.c"
   485 ;; Parameters:    Size  Location     Type
   486 ;;  CallbackHand    3    3[COMRAM] PTR FTN()void 
   487 ;;		 -> Timer0_UserOverflowCallback(1), Timer0_DefaultOverflowCallback(1), 
   488 ;; Auto vars:     Size  Location     Type
   489 ;;		None
   490 ;; Return value:  Size  Location     Type
   491 ;;                  1    wreg      void 
   492 ;; Registers used:
   493 ;;		wreg, status,2, status,0
   494 ;; Tracked objects:
   495 ;;		On entry : 0/0
   496 ;;		On exit  : 0/0
   497 ;;		Unchanged: 0/0
   498 ;; Data sizes:     COMRAM   BANK0   BANK1   BANK2   BANK3   BANK4   BANK5   BANK6   BANK7   BANK8   BANK9  BANK10  BANK1
      +1  BANK12  BANK13  BANK14
   499 ;;      Params:         3       0       0       0       0       0       0       0       0       0       0       0       
      +0       0       0       0
   500 ;;      Locals:         0       0       0       0       0       0       0       0       0       0       0       0       
      +0       0       0       0
   501 ;;      Temps:          0       0       0       0       0       0       0       0       0       0       0       0       
      +0       0       0       0
   502 ;;      Totals:         3       0       0       0       0       0       0       0       0       0       0       0       
      +0       0       0       0
   503 ;;Total ram usage:        3 bytes
   504 ;; Hardware stack levels used: 1
   505 ;; Hardware stack levels required when called: 3
   506 ;; This function calls:
   507 ;;		Nothing
   508 ;; This function is called by:
   509 ;;		_Timer0_Initialize
   510 ;;		_main
   511 ;; This function uses a non-reentrant model
   512 ;;
   513                           
   514                           	psect	text3
   515  00115C                     __ptext3:
   516                           	callstack 0
   517  00115C                     _Timer0_OverflowCallbackRegister:
   518                           	callstack 27
   519  00115C                     
   520                           ;mcc_generated_files/timer/src/tmr0.c: 159: void Timer0_OverflowCallbackRegister(void (*
      +                           CallbackHandler)(void));mcc_generated_files/timer/src/tmr0.c: 160: {;mcc_generated_file
      +                          s/timer/src/tmr0.c: 161:     Timer0_OverflowCallback = CallbackHandler;
   521  00115C  C012  F00A         	movff	Timer0_OverflowCallbackRegister@CallbackHandler,_Timer0_OverflowCallback
   522  001160  C013  F00B         	movff	Timer0_OverflowCallbackRegister@CallbackHandler+1,_Timer0_OverflowCallback+1
   523  001164  C014  F00C         	movff	Timer0_OverflowCallbackRegister@CallbackHandler+2,_Timer0_OverflowCallback+2
   524  001168  0012               	return		;funcret
   525  00116A                     __end_of_Timer0_OverflowCallbackRegister:
   526                           	callstack 0
   527                           
   528 ;; *************** function _PIN_MANAGER_Initialize *****************
   529 ;; Defined at:
   530 ;;		line 47 in file "mcc_generated_files/system/src/pins.c"
   531 ;; Parameters:    Size  Location     Type
   532 ;;		None
   533 ;; Auto vars:     Size  Location     Type
   534 ;;		None
   535 ;; Return value:  Size  Location     Type
   536 ;;                  1    wreg      void 
   537 ;; Registers used:
   538 ;;		wreg, status,2
   539 ;; Tracked objects:
   540 ;;		On entry : 0/0
   541 ;;		On exit  : 0/0
   542 ;;		Unchanged: 0/0
   543 ;; Data sizes:     COMRAM   BANK0   BANK1   BANK2   BANK3   BANK4   BANK5   BANK6   BANK7   BANK8   BANK9  BANK10  BANK1
      +1  BANK12  BANK13  BANK14
   544 ;;      Params:         0       0       0       0       0       0       0       0       0       0       0       0       
      +0       0       0       0
   545 ;;      Locals:         0       0       0       0       0       0       0       0       0       0       0       0       
      +0       0       0       0
   546 ;;      Temps:          0       0       0       0       0       0       0       0       0       0       0       0       
      +0       0       0       0
   547 ;;      Totals:         0       0       0       0       0       0       0       0       0       0       0       0       
      +0       0       0       0
   548 ;;Total ram usage:        0 bytes
   549 ;; Hardware stack levels used: 1
   550 ;; Hardware stack levels required when called: 3
   551 ;; This function calls:
   552 ;;		Nothing
   553 ;; This function is called by:
   554 ;;		_SYSTEM_Initialize
   555 ;; This function uses a non-reentrant model
   556 ;;
   557                           
   558                           	psect	text4
   559  000F14                     __ptext4:
   560                           	callstack 0
   561  000F14                     _PIN_MANAGER_Initialize:
   562                           	callstack 26
   563  000F14                     
   564                           ;mcc_generated_files/system/src/pins.c: 52:     LATA = 0x0;
   565  000F14  0E00               	movlw	0
   566  000F16  6E82               	movwf	130,c	;volatile
   567                           
   568                           ;mcc_generated_files/system/src/pins.c: 53:     LATB = 0x0;
   569  000F18  0E00               	movlw	0
   570  000F1A  6E83               	movwf	131,c	;volatile
   571                           
   572                           ;mcc_generated_files/system/src/pins.c: 54:     LATC = 0x0;
   573  000F1C  0E00               	movlw	0
   574  000F1E  6E84               	movwf	132,c	;volatile
   575                           
   576                           ;mcc_generated_files/system/src/pins.c: 55:     LATD = 0x0;
   577  000F20  0E00               	movlw	0
   578  000F22  6E85               	movwf	133,c	;volatile
   579                           
   580                           ;mcc_generated_files/system/src/pins.c: 56:     LATE = 0x0;
   581  000F24  0E00               	movlw	0
   582  000F26  6E86               	movwf	134,c	;volatile
   583                           
   584                           ;mcc_generated_files/system/src/pins.c: 61:     TRISA = 0x9F;
   585  000F28  0E9F               	movlw	159
   586  000F2A  6E87               	movwf	135,c	;volatile
   587  000F2C                     
   588                           ;mcc_generated_files/system/src/pins.c: 62:     TRISB = 0xFF;
   589  000F2C  6888               	setf	136,c	;volatile
   590  000F2E                     
   591                           ;mcc_generated_files/system/src/pins.c: 63:     TRISC = 0xFF;
   592  000F2E  6889               	setf	137,c	;volatile
   593  000F30                     
   594                           ;mcc_generated_files/system/src/pins.c: 64:     TRISD = 0xFF;
   595  000F30  688A               	setf	138,c	;volatile
   596                           
   597                           ;mcc_generated_files/system/src/pins.c: 65:     TRISE = 0x7;
   598  000F32  0E07               	movlw	7
   599  000F34  6E8B               	movwf	139,c	;volatile
   600                           
   601                           ;mcc_generated_files/system/src/pins.c: 70:     ANSELA = 0x9F;
   602  000F36  0E9F               	movlw	159
   603  000F38  010F               	movlb	15	; () banked
   604  000F3A  6F0C               	movwf	12,b	;volatile
   605  000F3C                     
   606                           ; BSR set to: 15
   607                           ;mcc_generated_files/system/src/pins.c: 71:     ANSELB = 0xFF;
   608  000F3C  6914               	setf	20,b	;volatile
   609  000F3E                     
   610                           ; BSR set to: 15
   611                           ;mcc_generated_files/system/src/pins.c: 72:     ANSELC = 0xFF;
   612  000F3E  691C               	setf	28,b	;volatile
   613  000F40                     
   614                           ; BSR set to: 15
   615                           ;mcc_generated_files/system/src/pins.c: 73:     ANSELD = 0xFF;
   616  000F40  6921               	setf	33,b	;volatile
   617                           
   618                           ;mcc_generated_files/system/src/pins.c: 74:     ANSELE = 0x7;
   619  000F42  0E07               	movlw	7
   620  000F44  6F29               	movwf	41,b	;volatile
   621                           
   622                           ;mcc_generated_files/system/src/pins.c: 79:     WPUA = 0x0;
   623  000F46  0E00               	movlw	0
   624  000F48  6F0B               	movwf	11,b	;volatile
   625                           
   626                           ;mcc_generated_files/system/src/pins.c: 80:     WPUB = 0x0;
   627  000F4A  0E00               	movlw	0
   628  000F4C  6F13               	movwf	19,b	;volatile
   629                           
   630                           ;mcc_generated_files/system/src/pins.c: 81:     WPUC = 0x0;
   631  000F4E  0E00               	movlw	0
   632  000F50  6F1B               	movwf	27,b	;volatile
   633                           
   634                           ;mcc_generated_files/system/src/pins.c: 82:     WPUD = 0x0;
   635  000F52  0E00               	movlw	0
   636  000F54  6F20               	movwf	32,b	;volatile
   637                           
   638                           ;mcc_generated_files/system/src/pins.c: 83:     WPUE = 0x0;
   639  000F56  0E00               	movlw	0
   640  000F58  6F28               	movwf	40,b	;volatile
   641                           
   642                           ;mcc_generated_files/system/src/pins.c: 88:     ODCONA = 0x0;
   643  000F5A  0E00               	movlw	0
   644  000F5C  6F0A               	movwf	10,b	;volatile
   645                           
   646                           ;mcc_generated_files/system/src/pins.c: 89:     ODCONB = 0x0;
   647  000F5E  0E00               	movlw	0
   648  000F60  6F12               	movwf	18,b	;volatile
   649                           
   650                           ;mcc_generated_files/system/src/pins.c: 90:     ODCONC = 0x0;
   651  000F62  0E00               	movlw	0
   652  000F64  6F1A               	movwf	26,b	;volatile
   653                           
   654                           ;mcc_generated_files/system/src/pins.c: 91:     ODCOND = 0x0;
   655  000F66  0E00               	movlw	0
   656  000F68  6F1F               	movwf	31,b	;volatile
   657                           
   658                           ;mcc_generated_files/system/src/pins.c: 92:     ODCONE = 0x0;
   659  000F6A  0E00               	movlw	0
   660  000F6C  6F27               	movwf	39,b	;volatile
   661  000F6E                     
   662                           ; BSR set to: 15
   663                           ;mcc_generated_files/system/src/pins.c: 97:     SLRCONA = 0xFF;
   664  000F6E  6909               	setf	9,b	;volatile
   665  000F70                     
   666                           ; BSR set to: 15
   667                           ;mcc_generated_files/system/src/pins.c: 98:     SLRCONB = 0xFF;
   668  000F70  6911               	setf	17,b	;volatile
   669  000F72                     
   670                           ; BSR set to: 15
   671                           ;mcc_generated_files/system/src/pins.c: 99:     SLRCONC = 0xFF;
   672  000F72  6919               	setf	25,b	;volatile
   673  000F74                     
   674                           ; BSR set to: 15
   675                           ;mcc_generated_files/system/src/pins.c: 100:     SLRCOND = 0xFF;
   676  000F74  691E               	setf	30,b	;volatile
   677                           
   678                           ;mcc_generated_files/system/src/pins.c: 101:     SLRCONE = 0x7;
   679  000F76  0E07               	movlw	7
   680  000F78  6F26               	movwf	38,b	;volatile
   681  000F7A                     
   682                           ; BSR set to: 15
   683                           ;mcc_generated_files/system/src/pins.c: 106:     INLVLA = 0xFF;
   684  000F7A  6908               	setf	8,b	;volatile
   685  000F7C                     
   686                           ; BSR set to: 15
   687                           ;mcc_generated_files/system/src/pins.c: 107:     INLVLB = 0xFF;
   688  000F7C  6910               	setf	16,b	;volatile
   689  000F7E                     
   690                           ; BSR set to: 15
   691                           ;mcc_generated_files/system/src/pins.c: 108:     INLVLC = 0xFF;
   692  000F7E  6918               	setf	24,b	;volatile
   693  000F80                     
   694                           ; BSR set to: 15
   695                           ;mcc_generated_files/system/src/pins.c: 109:     INLVLD = 0xFF;
   696  000F80  691D               	setf	29,b	;volatile
   697                           
   698                           ;mcc_generated_files/system/src/pins.c: 110:     INLVLE = 0xF;
   699  000F82  0E0F               	movlw	15
   700  000F84  6F25               	movwf	37,b	;volatile
   701                           
   702                           ;mcc_generated_files/system/src/pins.c: 114:     T0CKIPPS = 0x4;
   703  000F86  0E04               	movlw	4
   704  000F88  010E               	movlb	14	; () banked
   705  000F8A  6F9F               	movwf	159,b	;volatile
   706                           
   707                           ;mcc_generated_files/system/src/pins.c: 119:     IOCAP = 0x0;
   708  000F8C  0E00               	movlw	0
   709  000F8E  010F               	movlb	15	; () banked
   710  000F90  6F07               	movwf	7,b	;volatile
   711                           
   712                           ;mcc_generated_files/system/src/pins.c: 120:     IOCAN = 0x0;
   713  000F92  0E00               	movlw	0
   714  000F94  6F06               	movwf	6,b	;volatile
   715                           
   716                           ;mcc_generated_files/system/src/pins.c: 121:     IOCAF = 0x0;
   717  000F96  0E00               	movlw	0
   718  000F98  6F05               	movwf	5,b	;volatile
   719                           
   720                           ;mcc_generated_files/system/src/pins.c: 122:     IOCBP = 0x0;
   721  000F9A  0E00               	movlw	0
   722  000F9C  6F0F               	movwf	15,b	;volatile
   723                           
   724                           ;mcc_generated_files/system/src/pins.c: 123:     IOCBN = 0x0;
   725  000F9E  0E00               	movlw	0
   726  000FA0  6F0E               	movwf	14,b	;volatile
   727                           
   728                           ;mcc_generated_files/system/src/pins.c: 124:     IOCBF = 0x0;
   729  000FA2  0E00               	movlw	0
   730  000FA4  6F0D               	movwf	13,b	;volatile
   731                           
   732                           ;mcc_generated_files/system/src/pins.c: 125:     IOCCP = 0x0;
   733  000FA6  0E00               	movlw	0
   734  000FA8  6F17               	movwf	23,b	;volatile
   735                           
   736                           ;mcc_generated_files/system/src/pins.c: 126:     IOCCN = 0x0;
   737  000FAA  0E00               	movlw	0
   738  000FAC  6F16               	movwf	22,b	;volatile
   739                           
   740                           ;mcc_generated_files/system/src/pins.c: 127:     IOCCF = 0x0;
   741  000FAE  0E00               	movlw	0
   742  000FB0  6F15               	movwf	21,b	;volatile
   743                           
   744                           ;mcc_generated_files/system/src/pins.c: 128:     IOCEP = 0x0;
   745  000FB2  0E00               	movlw	0
   746  000FB4  6F24               	movwf	36,b	;volatile
   747                           
   748                           ;mcc_generated_files/system/src/pins.c: 129:     IOCEN = 0x0;
   749  000FB6  0E00               	movlw	0
   750  000FB8  6F23               	movwf	35,b	;volatile
   751                           
   752                           ;mcc_generated_files/system/src/pins.c: 130:     IOCEF = 0x0;
   753  000FBA  0E00               	movlw	0
   754  000FBC  6F22               	movwf	34,b	;volatile
   755  000FBE                     
   756                           ; BSR set to: 15
   757  000FBE  0012               	return		;funcret
   758  000FC0                     __end_of_PIN_MANAGER_Initialize:
   759                           	callstack 0
   760                           
   761 ;; *************** function _INTERRUPT_Initialize *****************
   762 ;; Defined at:
   763 ;;		line 65 in file "mcc_generated_files/system/src/interrupt.c"
   764 ;; Parameters:    Size  Location     Type
   765 ;;		None
   766 ;; Auto vars:     Size  Location     Type
   767 ;;		None
   768 ;; Return value:  Size  Location     Type
   769 ;;                  1    wreg      void 
   770 ;; Registers used:
   771 ;;		wreg, status,2, status,0, cstack
   772 ;; Tracked objects:
   773 ;;		On entry : 0/0
   774 ;;		On exit  : 0/0
   775 ;;		Unchanged: 0/0
   776 ;; Data sizes:     COMRAM   BANK0   BANK1   BANK2   BANK3   BANK4   BANK5   BANK6   BANK7   BANK8   BANK9  BANK10  BANK1
      +1  BANK12  BANK13  BANK14
   777 ;;      Params:         0       0       0       0       0       0       0       0       0       0       0       0       
      +0       0       0       0
   778 ;;      Locals:         0       0       0       0       0       0       0       0       0       0       0       0       
      +0       0       0       0
   779 ;;      Temps:          0       0       0       0       0       0       0       0       0       0       0       0       
      +0       0       0       0
   780 ;;      Totals:         0       0       0       0       0       0       0       0       0       0       0       0       
      +0       0       0       0
   781 ;;Total ram usage:        0 bytes
   782 ;; Hardware stack levels used: 1
   783 ;; Hardware stack levels required when called: 4
   784 ;; This function calls:
   785 ;;		_INT0_SetInterruptHandler
   786 ;;		_INT1_SetInterruptHandler
   787 ;;		_INT2_SetInterruptHandler
   788 ;; This function is called by:
   789 ;;		_SYSTEM_Initialize
   790 ;; This function uses a non-reentrant model
   791 ;;
   792                           
   793                           	psect	text5
   794  00107C                     __ptext5:
   795                           	callstack 0
   796  00107C                     _INTERRUPT_Initialize:
   797                           	callstack 25
   798  00107C                     
   799                           ;mcc_generated_files/system/src/interrupt.c: 68:     INTCONbits.IPEN = 0;
   800  00107C  9AF2               	bcf	242,5,c	;volatile
   801                           
   802                           ;mcc_generated_files/system/src/interrupt.c: 72:     (PIR0bits.INT0IF = 0);
   803  00107E  010E               	movlb	14	; () banked
   804  001080  91C5               	bcf	197,0,b	;volatile
   805                           
   806                           ;mcc_generated_files/system/src/interrupt.c: 73:     (INTCONbits.INT0EDG = 1);
   807  001082  80F2               	bsf	242,0,c	;volatile
   808  001084                     
   809                           ; BSR set to: 14
   810                           ;mcc_generated_files/system/src/interrupt.c: 75:     INT0_SetInterruptHandler(INT0_Defau
      +                          ltInterruptHandler);
   811  001084  0E00               	movlw	0
   812  001086  6E12               	movwf	INT0_SetInterruptHandler@InterruptHandler^0,c
   813  001088  0E00               	movlw	0
   814  00108A  6E13               	movwf	(INT0_SetInterruptHandler@InterruptHandler+1)^0,c
   815  00108C  0E00               	movlw	0
   816  00108E  6E14               	movwf	(INT0_SetInterruptHandler@InterruptHandler+2)^0,c
   817  001090  ECC3  F008         	call	_INT0_SetInterruptHandler	;wreg free
   818  001094                     
   819                           ;mcc_generated_files/system/src/interrupt.c: 80:     (PIR0bits.INT1IF = 0);
   820  001094  010E               	movlb	14	; () banked
   821  001096  93C5               	bcf	197,1,b	;volatile
   822  001098                     
   823                           ; BSR set to: 14
   824                           ;mcc_generated_files/system/src/interrupt.c: 81:     (INTCONbits.INT1EDG = 1);
   825  001098  82F2               	bsf	242,1,c	;volatile
   826                           
   827                           ;mcc_generated_files/system/src/interrupt.c: 83:     INT1_SetInterruptHandler(INT1_Defau
      +                          ltInterruptHandler);
   828  00109A  0E00               	movlw	0
   829  00109C  6E12               	movwf	INT1_SetInterruptHandler@InterruptHandler^0,c
   830  00109E  0E00               	movlw	0
   831  0010A0  6E13               	movwf	(INT1_SetInterruptHandler@InterruptHandler+1)^0,c
   832  0010A2  0E00               	movlw	0
   833  0010A4  6E14               	movwf	(INT1_SetInterruptHandler@InterruptHandler+2)^0,c
   834  0010A6  ECBC  F008         	call	_INT1_SetInterruptHandler	;wreg free
   835  0010AA                     
   836                           ;mcc_generated_files/system/src/interrupt.c: 88:     (PIR0bits.INT2IF = 0);
   837  0010AA  010E               	movlb	14	; () banked
   838  0010AC  95C5               	bcf	197,2,b	;volatile
   839  0010AE                     
   840                           ; BSR set to: 14
   841                           ;mcc_generated_files/system/src/interrupt.c: 89:     (INTCONbits.INT2EDG = 1);
   842  0010AE  84F2               	bsf	242,2,c	;volatile
   843                           
   844                           ;mcc_generated_files/system/src/interrupt.c: 91:     INT2_SetInterruptHandler(INT2_Defau
      +                          ltInterruptHandler);
   845  0010B0  0E00               	movlw	0
   846  0010B2  6E12               	movwf	INT2_SetInterruptHandler@InterruptHandler^0,c
   847  0010B4  0E00               	movlw	0
   848  0010B6  6E13               	movwf	(INT2_SetInterruptHandler@InterruptHandler+1)^0,c
   849  0010B8  0E00               	movlw	0
   850  0010BA  6E14               	movwf	(INT2_SetInterruptHandler@InterruptHandler+2)^0,c
   851  0010BC  ECB5  F008         	call	_INT2_SetInterruptHandler	;wreg free
   852  0010C0  0012               	return		;funcret
   853  0010C2                     __end_of_INTERRUPT_Initialize:
   854                           	callstack 0
   855                           
   856 ;; *************** function _INT2_SetInterruptHandler *****************
   857 ;; Defined at:
   858 ;;		line 186 in file "mcc_generated_files/system/src/interrupt.c"
   859 ;; Parameters:    Size  Location     Type
   860 ;;  InterruptHan    3    3[COMRAM] PTR FTN()void 
   861 ;;		 -> INT2_DefaultInterruptHandler(1), 
   862 ;; Auto vars:     Size  Location     Type
   863 ;;		None
   864 ;; Return value:  Size  Location     Type
   865 ;;                  1    wreg      void 
   866 ;; Registers used:
   867 ;;		wreg, status,2, status,0
   868 ;; Tracked objects:
   869 ;;		On entry : 0/0
   870 ;;		On exit  : 0/0
   871 ;;		Unchanged: 0/0
   872 ;; Data sizes:     COMRAM   BANK0   BANK1   BANK2   BANK3   BANK4   BANK5   BANK6   BANK7   BANK8   BANK9  BANK10  BANK1
      +1  BANK12  BANK13  BANK14
   873 ;;      Params:         3       0       0       0       0       0       0       0       0       0       0       0       
      +0       0       0       0
   874 ;;      Locals:         0       0       0       0       0       0       0       0       0       0       0       0       
      +0       0       0       0
   875 ;;      Temps:          0       0       0       0       0       0       0       0       0       0       0       0       
      +0       0       0       0
   876 ;;      Totals:         3       0       0       0       0       0       0       0       0       0       0       0       
      +0       0       0       0
   877 ;;Total ram usage:        3 bytes
   878 ;; Hardware stack levels used: 1
   879 ;; Hardware stack levels required when called: 3
   880 ;; This function calls:
   881 ;;		Nothing
   882 ;; This function is called by:
   883 ;;		_INTERRUPT_Initialize
   884 ;; This function uses a non-reentrant model
   885 ;;
   886                           
   887                           	psect	text6
   888  00116A                     __ptext6:
   889                           	callstack 0
   890  00116A                     _INT2_SetInterruptHandler:
   891                           	callstack 25
   892  00116A                     
   893                           ;mcc_generated_files/system/src/interrupt.c: 187:     INT2_InterruptHandler = InterruptH
      +                          andler;
   894  00116A  C012  F001         	movff	INT2_SetInterruptHandler@InterruptHandler,_INT2_InterruptHandler
   895  00116E  C013  F002         	movff	INT2_SetInterruptHandler@InterruptHandler+1,_INT2_InterruptHandler+1
   896  001172  C014  F003         	movff	INT2_SetInterruptHandler@InterruptHandler+2,_INT2_InterruptHandler+2
   897  001176  0012               	return		;funcret
   898  001178                     __end_of_INT2_SetInterruptHandler:
   899                           	callstack 0
   900                           
   901 ;; *************** function _INT1_SetInterruptHandler *****************
   902 ;; Defined at:
   903 ;;		line 160 in file "mcc_generated_files/system/src/interrupt.c"
   904 ;; Parameters:    Size  Location     Type
   905 ;;  InterruptHan    3    3[COMRAM] PTR FTN()void 
   906 ;;		 -> INT1_DefaultInterruptHandler(1), 
   907 ;; Auto vars:     Size  Location     Type
   908 ;;		None
   909 ;; Return value:  Size  Location     Type
   910 ;;                  1    wreg      void 
   911 ;; Registers used:
   912 ;;		wreg, status,2, status,0
   913 ;; Tracked objects:
   914 ;;		On entry : 0/0
   915 ;;		On exit  : 0/0
   916 ;;		Unchanged: 0/0
   917 ;; Data sizes:     COMRAM   BANK0   BANK1   BANK2   BANK3   BANK4   BANK5   BANK6   BANK7   BANK8   BANK9  BANK10  BANK1
      +1  BANK12  BANK13  BANK14
   918 ;;      Params:         3       0       0       0       0       0       0       0       0       0       0       0       
      +0       0       0       0
   919 ;;      Locals:         0       0       0       0       0       0       0       0       0       0       0       0       
      +0       0       0       0
   920 ;;      Temps:          0       0       0       0       0       0       0       0       0       0       0       0       
      +0       0       0       0
   921 ;;      Totals:         3       0       0       0       0       0       0       0       0       0       0       0       
      +0       0       0       0
   922 ;;Total ram usage:        3 bytes
   923 ;; Hardware stack levels used: 1
   924 ;; Hardware stack levels required when called: 3
   925 ;; This function calls:
   926 ;;		Nothing
   927 ;; This function is called by:
   928 ;;		_INTERRUPT_Initialize
   929 ;; This function uses a non-reentrant model
   930 ;;
   931                           
   932                           	psect	text7
   933  001178                     __ptext7:
   934                           	callstack 0
   935  001178                     _INT1_SetInterruptHandler:
   936                           	callstack 25
   937  001178                     
   938                           ;mcc_generated_files/system/src/interrupt.c: 161:     INT1_InterruptHandler = InterruptH
      +                          andler;
   939  001178  C012  F004         	movff	INT1_SetInterruptHandler@InterruptHandler,_INT1_InterruptHandler
   940  00117C  C013  F005         	movff	INT1_SetInterruptHandler@InterruptHandler+1,_INT1_InterruptHandler+1
   941  001180  C014  F006         	movff	INT1_SetInterruptHandler@InterruptHandler+2,_INT1_InterruptHandler+2
   942  001184  0012               	return		;funcret
   943  001186                     __end_of_INT1_SetInterruptHandler:
   944                           	callstack 0
   945                           
   946 ;; *************** function _INT0_SetInterruptHandler *****************
   947 ;; Defined at:
   948 ;;		line 134 in file "mcc_generated_files/system/src/interrupt.c"
   949 ;; Parameters:    Size  Location     Type
   950 ;;  InterruptHan    3    3[COMRAM] PTR FTN()void 
   951 ;;		 -> INT0_DefaultInterruptHandler(1), 
   952 ;; Auto vars:     Size  Location     Type
   953 ;;		None
   954 ;; Return value:  Size  Location     Type
   955 ;;                  1    wreg      void 
   956 ;; Registers used:
   957 ;;		wreg, status,2, status,0
   958 ;; Tracked objects:
   959 ;;		On entry : 0/0
   960 ;;		On exit  : 0/0
   961 ;;		Unchanged: 0/0
   962 ;; Data sizes:     COMRAM   BANK0   BANK1   BANK2   BANK3   BANK4   BANK5   BANK6   BANK7   BANK8   BANK9  BANK10  BANK1
      +1  BANK12  BANK13  BANK14
   963 ;;      Params:         3       0       0       0       0       0       0       0       0       0       0       0       
      +0       0       0       0
   964 ;;      Locals:         0       0       0       0       0       0       0       0       0       0       0       0       
      +0       0       0       0
   965 ;;      Temps:          0       0       0       0       0       0       0       0       0       0       0       0       
      +0       0       0       0
   966 ;;      Totals:         3       0       0       0       0       0       0       0       0       0       0       0       
      +0       0       0       0
   967 ;;Total ram usage:        3 bytes
   968 ;; Hardware stack levels used: 1
   969 ;; Hardware stack levels required when called: 3
   970 ;; This function calls:
   971 ;;		Nothing
   972 ;; This function is called by:
   973 ;;		_INTERRUPT_Initialize
   974 ;; This function uses a non-reentrant model
   975 ;;
   976                           
   977                           	psect	text8
   978  001186                     __ptext8:
   979                           	callstack 0
   980  001186                     _INT0_SetInterruptHandler:
   981                           	callstack 25
   982  001186                     
   983                           ;mcc_generated_files/system/src/interrupt.c: 135:     INT0_InterruptHandler = InterruptH
      +                          andler;
   984  001186  C012  F007         	movff	INT0_SetInterruptHandler@InterruptHandler,_INT0_InterruptHandler
   985  00118A  C013  F008         	movff	INT0_SetInterruptHandler@InterruptHandler+1,_INT0_InterruptHandler+1
   986  00118E  C014  F009         	movff	INT0_SetInterruptHandler@InterruptHandler+2,_INT0_InterruptHandler+2
   987  001192  0012               	return		;funcret
   988  001194                     __end_of_INT0_SetInterruptHandler:
   989                           	callstack 0
   990                           
   991 ;; *************** function _CLOCK_Initialize *****************
   992 ;; Defined at:
   993 ;;		line 59 in file "mcc_generated_files/system/src/clock.c"
   994 ;; Parameters:    Size  Location     Type
   995 ;;		None
   996 ;; Auto vars:     Size  Location     Type
   997 ;;		None
   998 ;; Return value:  Size  Location     Type
   999 ;;                  1    wreg      void 
  1000 ;; Registers used:
  1001 ;;		wreg, status,2
  1002 ;; Tracked objects:
  1003 ;;		On entry : 0/0
  1004 ;;		On exit  : 0/0
  1005 ;;		Unchanged: 0/0
  1006 ;; Data sizes:     COMRAM   BANK0   BANK1   BANK2   BANK3   BANK4   BANK5   BANK6   BANK7   BANK8   BANK9  BANK10  BANK1
      +1  BANK12  BANK13  BANK14
  1007 ;;      Params:         0       0       0       0       0       0       0       0       0       0       0       0       
      +0       0       0       0
  1008 ;;      Locals:         0       0       0       0       0       0       0       0       0       0       0       0       
      +0       0       0       0
  1009 ;;      Temps:          0       0       0       0       0       0       0       0       0       0       0       0       
      +0       0       0       0
  1010 ;;      Totals:         0       0       0       0       0       0       0       0       0       0       0       0       
      +0       0       0       0
  1011 ;;Total ram usage:        0 bytes
  1012 ;; Hardware stack levels used: 1
  1013 ;; Hardware stack levels required when called: 3
  1014 ;; This function calls:
  1015 ;;		Nothing
  1016 ;; This function is called by:
  1017 ;;		_SYSTEM_Initialize
  1018 ;; This function uses a non-reentrant model
  1019 ;;
  1020                           
  1021                           	psect	text9
  1022  00111C                     __ptext9:
  1023                           	callstack 0
  1024  00111C                     _CLOCK_Initialize:
  1025                           	callstack 26
  1026  00111C                     
  1027                           ;mcc_generated_files/system/src/clock.c: 63:     OSCCON1 = 0x60;
  1028  00111C  0E60               	movlw	96
  1029  00111E  010E               	movlb	14	; () banked
  1030  001120  6FD3               	movwf	211,b	;volatile
  1031                           
  1032                           ;mcc_generated_files/system/src/clock.c: 65:     OSCCON2 = 0x70;
  1033  001122  0E70               	movlw	112
  1034  001124  6FD4               	movwf	212,b	;volatile
  1035                           
  1036                           ;mcc_generated_files/system/src/clock.c: 67:     OSCCON3 = 0x0;
  1037  001126  0E00               	movlw	0
  1038  001128  6FD5               	movwf	213,b	;volatile
  1039                           
  1040                           ;mcc_generated_files/system/src/clock.c: 69:     OSCEN = 0x0;
  1041  00112A  0E00               	movlw	0
  1042  00112C  6FD7               	movwf	215,b	;volatile
  1043                           
  1044                           ;mcc_generated_files/system/src/clock.c: 71:     OSCFRQ = 0x8;
  1045  00112E  0E08               	movlw	8
  1046  001130  6FD9               	movwf	217,b	;volatile
  1047                           
  1048                           ;mcc_generated_files/system/src/clock.c: 73:     OSCSTAT = 0x0;
  1049  001132  0E00               	movlw	0
  1050  001134  6FD6               	movwf	214,b	;volatile
  1051                           
  1052                           ;mcc_generated_files/system/src/clock.c: 75:     OSCTUNE = 0x0;
  1053  001136  0E00               	movlw	0
  1054  001138  6FD8               	movwf	216,b	;volatile
  1055  00113A                     
  1056                           ; BSR set to: 14
  1057  00113A  0012               	return		;funcret
  1058  00113C                     __end_of_CLOCK_Initialize:
  1059                           	callstack 0
  1060                           
  1061 ;; *************** function _INTERRUPT_InterruptManager *****************
  1062 ;; Defined at:
  1063 ;;		line 96 in file "mcc_generated_files/system/src/interrupt.c"
  1064 ;; Parameters:    Size  Location     Type
  1065 ;;		None
  1066 ;; Auto vars:     Size  Location     Type
  1067 ;;		None
  1068 ;; Return value:  Size  Location     Type
  1069 ;;                  1    wreg      void 
  1070 ;; Registers used:
  1071 ;;		wreg, status,2, status,0, pclath, tosl, cstack
  1072 ;; Tracked objects:
  1073 ;;		On entry : 0/0
  1074 ;;		On exit  : 0/0
  1075 ;;		Unchanged: 0/0
  1076 ;; Data sizes:     COMRAM   BANK0   BANK1   BANK2   BANK3   BANK4   BANK5   BANK6   BANK7   BANK8   BANK9  BANK10  BANK1
      +1  BANK12  BANK13  BANK14
  1077 ;;      Params:         0       0       0       0       0       0       0       0       0       0       0       0       
      +0       0       0       0
  1078 ;;      Locals:         0       0       0       0       0       0       0       0       0       0       0       0       
      +0       0       0       0
  1079 ;;      Temps:          2       0       0       0       0       0       0       0       0       0       0       0       
      +0       0       0       0
  1080 ;;      Totals:         2       0       0       0       0       0       0       0       0       0       0       0       
      +0       0       0       0
  1081 ;;Total ram usage:        2 bytes
  1082 ;; Hardware stack levels used: 1
  1083 ;; Hardware stack levels required when called: 2
  1084 ;; This function calls:
  1085 ;;		_Timer0_OverflowISR
  1086 ;; This function is called by:
  1087 ;;		Interrupt level 2
  1088 ;; This function uses a non-reentrant model
  1089 ;;
  1090                           
  1091                           	psect	intcode
  1092  000A08                     __pintcode:
  1093                           	callstack 0
  1094  000A08                     _INTERRUPT_InterruptManager:
  1095                           	callstack 25
  1096                           
  1097                           ; BSR set to: 14
  1098                           ;incstack = 0
  1099  000A08  821B               	bsf	int$flags,1,c	;set compiler interrupt flag (level 2)
  1100  000A0A  CFFA F010          	movff	pclath,??_INTERRUPT_InterruptManager
  1101  000A0E  CFFB F011          	movff	pclatu,??_INTERRUPT_InterruptManager+1
  1102  000A12                     
  1103                           ;mcc_generated_files/system/src/interrupt.c: 99:     if(INTCONbits.PEIE == 1)
  1104  000A12  ACF2               	btfss	242,6,c	;volatile
  1105  000A14  EF0E  F005         	goto	i2u6_41
  1106  000A18  EF10  F005         	goto	i2u6_40
  1107  000A1C                     i2u6_41:
  1108  000A1C  EF21  F005         	goto	i2l160
  1109  000A20                     i2u6_40:
  1110  000A20                     
  1111                           ;mcc_generated_files/system/src/interrupt.c: 100:     {;mcc_generated_files/system/src/i
      +                          nterrupt.c: 101:         if(PIE0bits.TMR0IE == 1 && PIR0bits.TMR0IF == 1)
  1112  000A20  010E               	movlb	14	; () banked
  1113  000A22  ABBD               	btfss	189,5,b	;volatile
  1114  000A24  EF16  F005         	goto	i2u7_41
  1115  000A28  EF18  F005         	goto	i2u7_40
  1116  000A2C                     i2u7_41:
  1117  000A2C  EF21  F005         	goto	i2l160
  1118  000A30                     i2u7_40:
  1119  000A30                     
  1120                           ; BSR set to: 14
  1121  000A30  ABC5               	btfss	197,5,b	;volatile
  1122  000A32  EF1D  F005         	goto	i2u8_41
  1123  000A36  EF1F  F005         	goto	i2u8_40
  1124  000A3A                     i2u8_41:
  1125  000A3A  EF21  F005         	goto	i2l160
  1126  000A3E                     i2u8_40:
  1127  000A3E                     
  1128                           ; BSR set to: 14
  1129                           ;mcc_generated_files/system/src/interrupt.c: 102:         {;mcc_generated_files/system/s
      +                          rc/interrupt.c: 103:             Timer0_OverflowISR();
  1130  000A3E  EC0F  F008         	call	_Timer0_OverflowISR	;wreg free
  1131  000A42                     i2l160:
  1132  000A42  C011  FFFB         	movff	??_INTERRUPT_InterruptManager+1,pclatu
  1133  000A46  C010  FFFA         	movff	??_INTERRUPT_InterruptManager,pclath
  1134  000A4A  921B               	bcf	int$flags,1,c	;clear compiler interrupt flag (level 2)
  1135  000A4C  0011               	retfie		f
  1136  000A4E                     __end_of_INTERRUPT_InterruptManager:
  1137                           	callstack 0
  1138                           
  1139 ;; *************** function _Timer0_OverflowISR *****************
  1140 ;; Defined at:
  1141 ;;		line 135 in file "mcc_generated_files/timer/src/tmr0.c"
  1142 ;; Parameters:    Size  Location     Type
  1143 ;;		None
  1144 ;; Auto vars:     Size  Location     Type
  1145 ;;		None
  1146 ;; Return value:  Size  Location     Type
  1147 ;;                  1    wreg      void 
  1148 ;; Registers used:
  1149 ;;		wreg, status,2, status,0, pclath, tosl, cstack
  1150 ;; Tracked objects:
  1151 ;;		On entry : 0/0
  1152 ;;		On exit  : 0/0
  1153 ;;		Unchanged: 0/0
  1154 ;; Data sizes:     COMRAM   BANK0   BANK1   BANK2   BANK3   BANK4   BANK5   BANK6   BANK7   BANK8   BANK9  BANK10  BANK1
      +1  BANK12  BANK13  BANK14
  1155 ;;      Params:         0       0       0       0       0       0       0       0       0       0       0       0       
      +0       0       0       0
  1156 ;;      Locals:         0       0       0       0       0       0       0       0       0       0       0       0       
      +0       0       0       0
  1157 ;;      Temps:          0       0       0       0       0       0       0       0       0       0       0       0       
      +0       0       0       0
  1158 ;;      Totals:         0       0       0       0       0       0       0       0       0       0       0       0       
      +0       0       0       0
  1159 ;;Total ram usage:        0 bytes
  1160 ;; Hardware stack levels used: 1
  1161 ;; Hardware stack levels required when called: 1
  1162 ;; This function calls:
  1163 ;;		Absolute function
  1164 ;;		_Timer0_DefaultOverflowCallback
  1165 ;;		_Timer0_UserOverflowCallback
  1166 ;; This function is called by:
  1167 ;;		_INTERRUPT_InterruptManager
  1168 ;; This function uses a non-reentrant model
  1169 ;;
  1170                           
  1171                           	psect	text11
  1172  00101E                     __ptext11:
  1173                           	callstack 0
  1174  00101E                     _Timer0_OverflowISR:
  1175                           	callstack 25
  1176  00101E                     
  1177                           ;mcc_generated_files/timer/src/tmr0.c: 137:     static volatile uint16_t CountCallBack =
      +                           0;;mcc_generated_files/timer/src/tmr0.c: 140:     PIR0bits.TMR0IF = 0;
  1178  00101E  010E               	movlb	14	; () banked
  1179  001020  9BC5               	bcf	197,5,b	;volatile
  1180  001022                     
  1181                           ; BSR set to: 14
  1182                           ;mcc_generated_files/timer/src/tmr0.c: 142:     TMR0H = timerTMR0ReloadVal16bit >> 8;
  1183  001022  500E               	movf	(_timerTMR0ReloadVal16bit+1)^0,w,c	;volatile
  1184  001024  6ED3               	movwf	211,c	;volatile
  1185  001026                     
  1186                           ; BSR set to: 14
  1187                           ;mcc_generated_files/timer/src/tmr0.c: 143:     TMR0L = (uint8_t) timerTMR0ReloadVal16bi
      +                          t;
  1188  001026  C00D  FFD2         	movff	_timerTMR0ReloadVal16bit,4050	;volatile
  1189  00102A                     
  1190                           ; BSR set to: 14
  1191                           ;mcc_generated_files/timer/src/tmr0.c: 146:     if (++CountCallBack >= 500)
  1192  00102A  4A19               	infsnz	Timer0_OverflowISR@CountCallBack^0,f,c	;volatile
  1193  00102C  2A1A               	incf	(Timer0_OverflowISR@CountCallBack+1)^0,f,c	;volatile
  1194  00102E  0EF4               	movlw	244
  1195  001030  5C19               	subwf	Timer0_OverflowISR@CountCallBack^0,w,c	;volatile
  1196  001032  0E01               	movlw	1
  1197  001034  581A               	subwfb	(Timer0_OverflowISR@CountCallBack+1)^0,w,c	;volatile
  1198  001036  A0D8               	btfss	status,0,c
  1199  001038  EF20  F008         	goto	i2u2_41
  1200  00103C  EF22  F008         	goto	i2u2_40
  1201  001040                     i2u2_41:
  1202  001040  EF3D  F008         	goto	i2l57
  1203  001044                     i2u2_40:
  1204  001044                     
  1205                           ; BSR set to: 14
  1206                           ;mcc_generated_files/timer/src/tmr0.c: 147:     {;mcc_generated_files/timer/src/tmr0.c: 
      +                          149:         if(Timer0_OverflowCallback)
  1207  001044  500A               	movf	_Timer0_OverflowCallback^0,w,c
  1208  001046  100B               	iorwf	(_Timer0_OverflowCallback+1)^0,w,c
  1209  001048  100C               	iorwf	(_Timer0_OverflowCallback+2)^0,w,c
  1210  00104A  B4D8               	btfsc	status,2,c
  1211  00104C  EF2A  F008         	goto	i2u3_41
  1212  001050  EF2C  F008         	goto	i2u3_40
  1213  001054                     i2u3_41:
  1214  001054  EF39  F008         	goto	i2l1053
  1215  001058                     i2u3_40:
  1216  001058                     
  1217                           ; BSR set to: 14
  1218                           ;mcc_generated_files/timer/src/tmr0.c: 150:         {;mcc_generated_files/timer/src/tmr0
      +                          .c: 151:             Timer0_OverflowCallback();
  1219  001058  D802               	call	i2u4_48
  1220  00105A  EF39  F008         	goto	i2u4_49
  1221  00105E                     i2u4_48:
  1222  00105E  0005               	push	
  1223  001060  6EFA               	movwf	pclath,c
  1224  001062  500A               	movf	_Timer0_OverflowCallback^0,w,c
  1225  001064  6EFD               	movwf	tosl,c
  1226  001066  500B               	movf	(_Timer0_OverflowCallback+1)^0,w,c
  1227  001068  6EFE               	movwf	tosh,c
  1228  00106A  500C               	movf	(_Timer0_OverflowCallback+2)^0,w,c
  1229  00106C  6EFF               	movwf	tosu,c
  1230  00106E  50FA               	movf	pclath,w,c
  1231  001070  0012               	return		;indir
  1232  001072                     i2u4_49:
  1233  001072                     i2l1053:
  1234                           
  1235                           ;mcc_generated_files/timer/src/tmr0.c: 155:         CountCallBack = 0;
  1236  001072  0E00               	movlw	0
  1237  001074  6E1A               	movwf	(Timer0_OverflowISR@CountCallBack+1)^0,c	;volatile
  1238  001076  0E00               	movlw	0
  1239  001078  6E19               	movwf	Timer0_OverflowISR@CountCallBack^0,c	;volatile
  1240  00107A                     i2l57:
  1241  00107A  0012               	return		;funcret
  1242  00107C                     __end_of_Timer0_OverflowISR:
  1243                           	callstack 0
  1244                           
  1245 ;; *************** function _Timer0_DefaultOverflowCallback *****************
  1246 ;; Defined at:
  1247 ;;		line 164 in file "mcc_generated_files/timer/src/tmr0.c"
  1248 ;; Parameters:    Size  Location     Type
  1249 ;;		None
  1250 ;; Auto vars:     Size  Location     Type
  1251 ;;		None
  1252 ;; Return value:  Size  Location     Type
  1253 ;;                  1    wreg      void 
  1254 ;; Registers used:
  1255 ;;		None
  1256 ;; Tracked objects:
  1257 ;;		On entry : 0/0
  1258 ;;		On exit  : 0/0
  1259 ;;		Unchanged: 0/0
  1260 ;; Data sizes:     COMRAM   BANK0   BANK1   BANK2   BANK3   BANK4   BANK5   BANK6   BANK7   BANK8   BANK9  BANK10  BANK1
      +1  BANK12  BANK13  BANK14
  1261 ;;      Params:         0       0       0       0       0       0       0       0       0       0       0       0       
      +0       0       0       0
  1262 ;;      Locals:         0       0       0       0       0       0       0       0       0       0       0       0       
      +0       0       0       0
  1263 ;;      Temps:          0       0       0       0       0       0       0       0       0       0       0       0       
      +0       0       0       0
  1264 ;;      Totals:         0       0       0       0       0       0       0       0       0       0       0       0       
      +0       0       0       0
  1265 ;;Total ram usage:        0 bytes
  1266 ;; Hardware stack levels used: 1
  1267 ;; This function calls:
  1268 ;;		Nothing
  1269 ;; This function is called by:
  1270 ;;		_Timer0_Initialize
  1271 ;;		_Timer0_OverflowISR
  1272 ;; This function uses a non-reentrant model
  1273 ;;
  1274                           
  1275                           	psect	text12
  1276  001194                     __ptext12:
  1277                           	callstack 0
  1278  001194                     _Timer0_DefaultOverflowCallback:
  1279                           	callstack 25
  1280  001194  0012               	return		;funcret
  1281  001196                     __end_of_Timer0_DefaultOverflowCallback:
  1282                           	callstack 0
  1283                           
  1284 ;; *************** function _Timer0_UserOverflowCallback *****************
  1285 ;; Defined at:
  1286 ;;		line 36 in file "main.c"
  1287 ;; Parameters:    Size  Location     Type
  1288 ;;		None
  1289 ;; Auto vars:     Size  Location     Type
  1290 ;;		None
  1291 ;; Return value:  Size  Location     Type
  1292 ;;                  1    wreg      void 
  1293 ;; Registers used:
  1294 ;;		wreg, status,2, status,0
  1295 ;; Tracked objects:
  1296 ;;		On entry : 0/0
  1297 ;;		On exit  : 0/0
  1298 ;;		Unchanged: 0/0
  1299 ;; Data sizes:     COMRAM   BANK0   BANK1   BANK2   BANK3   BANK4   BANK5   BANK6   BANK7   BANK8   BANK9  BANK10  BANK1
      +1  BANK12  BANK13  BANK14
  1300 ;;      Params:         0       0       0       0       0       0       0       0       0       0       0       0       
      +0       0       0       0
  1301 ;;      Locals:         0       0       0       0       0       0       0       0       0       0       0       0       
      +0       0       0       0
  1302 ;;      Temps:          1       0       0       0       0       0       0       0       0       0       0       0       
      +0       0       0       0
  1303 ;;      Totals:         1       0       0       0       0       0       0       0       0       0       0       0       
      +0       0       0       0
  1304 ;;Total ram usage:        1 bytes
  1305 ;; Hardware stack levels used: 1
  1306 ;; This function calls:
  1307 ;;		Nothing
  1308 ;; This function is called by:
  1309 ;;		_main
  1310 ;;		_Timer0_OverflowISR
  1311 ;; This function uses a non-reentrant model
  1312 ;;
  1313                           
  1314                           	psect	text13
  1315  0010F6                     __ptext13:
  1316                           	callstack 0
  1317  0010F6                     _Timer0_UserOverflowCallback:
  1318                           	callstack 25
  1319  0010F6  BA82               	btfsc	130,5,c	;volatile
  1320  0010F8  EF80  F008         	goto	i2u1_41
  1321  0010FC  EF83  F008         	goto	i2u1_40
  1322  001100                     i2u1_41:
  1323  001100  0E01               	movlw	1
  1324  001102  EF84  F008         	goto	i2u1_46
  1325  001106                     i2u1_40:
  1326  001106  0E00               	movlw	0
  1327  001108                     i2u1_46:
  1328  001108  0AFF               	xorlw	255
  1329  00110A  6E0F               	movwf	??_Timer0_UserOverflowCallback^0,c
  1330  00110C  3A0F               	swapf	??_Timer0_UserOverflowCallback^0,f,c
  1331  00110E  460F               	rlncf	??_Timer0_UserOverflowCallback^0,f,c
  1332  001110  5082               	movf	130,w,c	;volatile
  1333  001112  180F               	xorwf	??_Timer0_UserOverflowCallback^0,w,c
  1334  001114  0BDF               	andlw	-33
  1335  001116  180F               	xorwf	??_Timer0_UserOverflowCallback^0,w,c
  1336  001118  6E82               	movwf	130,c	;volatile
  1337  00111A  0012               	return		;funcret
  1338  00111C                     __end_of_Timer0_UserOverflowCallback:
  1339                           	callstack 0
  1340                           
  1341                           	psect	text14
  1342  000000                     __ptext14:
  1343                           	callstack 0
  1344  000000                     
  1345                           	psect	rparam
  1346  0000                     
  1347                           	psect	temp
  1348  00001B                     btemp:
  1349                           	callstack 0
  1350  00001B                     	ds	1
  1351  0000                     int$flags	set	btemp
  1352  0000                     wtemp8	set	btemp+1
  1353  0000                     ttemp5	set	btemp+1
  1354  0000                     ttemp6	set	btemp+4
  1355  0000                     ttemp7	set	btemp+8
  1356                           
  1357                           	psect	idloc
  1358                           
  1359                           ;Config register IDLOC0 @ 0x200000
  1360                           ;	unspecified, using default values
  1361  200000                     	org	2097152
  1362  200000  FFFF               	dw	65535
  1363                           
  1364                           ;Config register IDLOC1 @ 0x200002
  1365                           ;	unspecified, using default values
  1366  200002                     	org	2097154
  1367  200002  FFFF               	dw	65535
  1368                           
  1369                           ;Config register IDLOC2 @ 0x200004
  1370                           ;	unspecified, using default values
  1371  200004                     	org	2097156
  1372  200004  FFFF               	dw	65535
  1373                           
  1374                           ;Config register IDLOC3 @ 0x200006
  1375                           ;	unspecified, using default values
  1376  200006                     	org	2097158
  1377  200006  FFFF               	dw	65535
  1378                           
  1379                           ;Config register IDLOC4 @ 0x200008
  1380                           ;	unspecified, using default values
  1381  200008                     	org	2097160
  1382  200008  FFFF               	dw	65535
  1383                           
  1384                           ;Config register IDLOC5 @ 0x20000A
  1385                           ;	unspecified, using default values
  1386  20000A                     	org	2097162
  1387  20000A  FFFF               	dw	65535
  1388                           
  1389                           ;Config register IDLOC6 @ 0x20000C
  1390                           ;	unspecified, using default values
  1391  20000C                     	org	2097164
  1392  20000C  FFFF               	dw	65535
  1393                           
  1394                           ;Config register IDLOC7 @ 0x20000E
  1395                           ;	unspecified, using default values
  1396  20000E                     	org	2097166
  1397  20000E  FFFF               	dw	65535
  1398                           
  1399                           ;Config register IDLOC8 @ 0x200010
  1400                           ;	unspecified, using default values
  1401  200010                     	org	2097168
  1402  200010  FFFF               	dw	65535
  1403                           
  1404                           ;Config register IDLOC9 @ 0x200012
  1405                           ;	unspecified, using default values
  1406  200012                     	org	2097170
  1407  200012  FFFF               	dw	65535
  1408                           
  1409                           ;Config register IDLOC10 @ 0x200014
  1410                           ;	unspecified, using default values
  1411  200014                     	org	2097172
  1412  200014  FFFF               	dw	65535
  1413                           
  1414                           ;Config register IDLOC11 @ 0x200016
  1415                           ;	unspecified, using default values
  1416  200016                     	org	2097174
  1417  200016  FFFF               	dw	65535
  1418                           
  1419                           ;Config register IDLOC12 @ 0x200018
  1420                           ;	unspecified, using default values
  1421  200018                     	org	2097176
  1422  200018  FFFF               	dw	65535
  1423                           
  1424                           ;Config register IDLOC13 @ 0x20001A
  1425                           ;	unspecified, using default values
  1426  20001A                     	org	2097178
  1427  20001A  FFFF               	dw	65535
  1428                           
  1429                           ;Config register IDLOC14 @ 0x20001C
  1430                           ;	unspecified, using default values
  1431  20001C                     	org	2097180
  1432  20001C  FFFF               	dw	65535
  1433                           
  1434                           ;Config register IDLOC15 @ 0x20001E
  1435                           ;	unspecified, using default values
  1436  20001E                     	org	2097182
  1437  20001E  FFFF               	dw	65535
  1438                           
  1439                           ;Config register IDLOC16 @ 0x200020
  1440                           ;	unspecified, using default values
  1441  200020                     	org	2097184
  1442  200020  FFFF               	dw	65535
  1443                           
  1444                           ;Config register IDLOC17 @ 0x200022
  1445                           ;	unspecified, using default values
  1446  200022                     	org	2097186
  1447  200022  FFFF               	dw	65535
  1448                           
  1449                           ;Config register IDLOC18 @ 0x200024
  1450                           ;	unspecified, using default values
  1451  200024                     	org	2097188
  1452  200024  FFFF               	dw	65535
  1453                           
  1454                           ;Config register IDLOC19 @ 0x200026
  1455                           ;	unspecified, using default values
  1456  200026                     	org	2097190
  1457  200026  FFFF               	dw	65535
  1458                           
  1459                           ;Config register IDLOC20 @ 0x200028
  1460                           ;	unspecified, using default values
  1461  200028                     	org	2097192
  1462  200028  FFFF               	dw	65535
  1463                           
  1464                           ;Config register IDLOC21 @ 0x20002A
  1465                           ;	unspecified, using default values
  1466  20002A                     	org	2097194
  1467  20002A  FFFF               	dw	65535
  1468                           
  1469                           ;Config register IDLOC22 @ 0x20002C
  1470                           ;	unspecified, using default values
  1471  20002C                     	org	2097196
  1472  20002C  FFFF               	dw	65535
  1473                           
  1474                           ;Config register IDLOC23 @ 0x20002E
  1475                           ;	unspecified, using default values
  1476  20002E                     	org	2097198
  1477  20002E  FFFF               	dw	65535
  1478                           
  1479                           ;Config register IDLOC24 @ 0x200030
  1480                           ;	unspecified, using default values
  1481  200030                     	org	2097200
  1482  200030  FFFF               	dw	65535
  1483                           
  1484                           ;Config register IDLOC25 @ 0x200032
  1485                           ;	unspecified, using default values
  1486  200032                     	org	2097202
  1487  200032  FFFF               	dw	65535
  1488                           
  1489                           ;Config register IDLOC26 @ 0x200034
  1490                           ;	unspecified, using default values
  1491  200034                     	org	2097204
  1492  200034  FFFF               	dw	65535
  1493                           
  1494                           ;Config register IDLOC27 @ 0x200036
  1495                           ;	unspecified, using default values
  1496  200036                     	org	2097206
  1497  200036  FFFF               	dw	65535
  1498                           
  1499                           ;Config register IDLOC28 @ 0x200038
  1500                           ;	unspecified, using default values
  1501  200038                     	org	2097208
  1502  200038  FFFF               	dw	65535
  1503                           
  1504                           ;Config register IDLOC29 @ 0x20003A
  1505                           ;	unspecified, using default values
  1506  20003A                     	org	2097210
  1507  20003A  FFFF               	dw	65535
  1508                           
  1509                           ;Config register IDLOC30 @ 0x20003C
  1510                           ;	unspecified, using default values
  1511  20003C                     	org	2097212
  1512  20003C  FFFF               	dw	65535
  1513                           
  1514                           ;Config register IDLOC31 @ 0x20003E
  1515                           ;	unspecified, using default values
  1516  20003E                     	org	2097214
  1517  20003E  FFFF               	dw	65535
  1518                           
  1519                           ;Config register IDLOC32 @ 0x200040
  1520                           ;	unspecified, using default values
  1521  200040                     	org	2097216
  1522  200040  FFFF               	dw	65535
  1523                           
  1524                           ;Config register IDLOC33 @ 0x200042
  1525                           ;	unspecified, using default values
  1526  200042                     	org	2097218
  1527  200042  FFFF               	dw	65535
  1528                           
  1529                           ;Config register IDLOC34 @ 0x200044
  1530                           ;	unspecified, using default values
  1531  200044                     	org	2097220
  1532  200044  FFFF               	dw	65535
  1533                           
  1534                           ;Config register IDLOC35 @ 0x200046
  1535                           ;	unspecified, using default values
  1536  200046                     	org	2097222
  1537  200046  FFFF               	dw	65535
  1538                           
  1539                           ;Config register IDLOC36 @ 0x200048
  1540                           ;	unspecified, using default values
  1541  200048                     	org	2097224
  1542  200048  FFFF               	dw	65535
  1543                           
  1544                           ;Config register IDLOC37 @ 0x20004A
  1545                           ;	unspecified, using default values
  1546  20004A                     	org	2097226
  1547  20004A  FFFF               	dw	65535
  1548                           
  1549                           ;Config register IDLOC38 @ 0x20004C
  1550                           ;	unspecified, using default values
  1551  20004C                     	org	2097228
  1552  20004C  FFFF               	dw	65535
  1553                           
  1554                           ;Config register IDLOC39 @ 0x20004E
  1555                           ;	unspecified, using default values
  1556  20004E                     	org	2097230
  1557  20004E  FFFF               	dw	65535
  1558                           
  1559                           ;Config register IDLOC40 @ 0x200050
  1560                           ;	unspecified, using default values
  1561  200050                     	org	2097232
  1562  200050  FFFF               	dw	65535
  1563                           
  1564                           ;Config register IDLOC41 @ 0x200052
  1565                           ;	unspecified, using default values
  1566  200052                     	org	2097234
  1567  200052  FFFF               	dw	65535
  1568                           
  1569                           ;Config register IDLOC42 @ 0x200054
  1570                           ;	unspecified, using default values
  1571  200054                     	org	2097236
  1572  200054  FFFF               	dw	65535
  1573                           
  1574                           ;Config register IDLOC43 @ 0x200056
  1575                           ;	unspecified, using default values
  1576  200056                     	org	2097238
  1577  200056  FFFF               	dw	65535
  1578                           
  1579                           ;Config register IDLOC44 @ 0x200058
  1580                           ;	unspecified, using default values
  1581  200058                     	org	2097240
  1582  200058  FFFF               	dw	65535
  1583                           
  1584                           ;Config register IDLOC45 @ 0x20005A
  1585                           ;	unspecified, using default values
  1586  20005A                     	org	2097242
  1587  20005A  FFFF               	dw	65535
  1588                           
  1589                           ;Config register IDLOC46 @ 0x20005C
  1590                           ;	unspecified, using default values
  1591  20005C                     	org	2097244
  1592  20005C  FFFF               	dw	65535
  1593                           
  1594                           ;Config register IDLOC47 @ 0x20005E
  1595                           ;	unspecified, using default values
  1596  20005E                     	org	2097246
  1597  20005E  FFFF               	dw	65535
  1598                           
  1599                           ;Config register IDLOC48 @ 0x200060
  1600                           ;	unspecified, using default values
  1601  200060                     	org	2097248
  1602  200060  FFFF               	dw	65535
  1603                           
  1604                           ;Config register IDLOC49 @ 0x200062
  1605                           ;	unspecified, using default values
  1606  200062                     	org	2097250
  1607  200062  FFFF               	dw	65535
  1608                           
  1609                           ;Config register IDLOC50 @ 0x200064
  1610                           ;	unspecified, using default values
  1611  200064                     	org	2097252
  1612  200064  FFFF               	dw	65535
  1613                           
  1614                           ;Config register IDLOC51 @ 0x200066
  1615                           ;	unspecified, using default values
  1616  200066                     	org	2097254
  1617  200066  FFFF               	dw	65535
  1618                           
  1619                           ;Config register IDLOC52 @ 0x200068
  1620                           ;	unspecified, using default values
  1621  200068                     	org	2097256
  1622  200068  FFFF               	dw	65535
  1623                           
  1624                           ;Config register IDLOC53 @ 0x20006A
  1625                           ;	unspecified, using default values
  1626  20006A                     	org	2097258
  1627  20006A  FFFF               	dw	65535
  1628                           
  1629                           ;Config register IDLOC54 @ 0x20006C
  1630                           ;	unspecified, using default values
  1631  20006C                     	org	2097260
  1632  20006C  FFFF               	dw	65535
  1633                           
  1634                           ;Config register IDLOC55 @ 0x20006E
  1635                           ;	unspecified, using default values
  1636  20006E                     	org	2097262
  1637  20006E  FFFF               	dw	65535
  1638                           
  1639                           ;Config register IDLOC56 @ 0x200070
  1640                           ;	unspecified, using default values
  1641  200070                     	org	2097264
  1642  200070  FFFF               	dw	65535
  1643                           
  1644                           ;Config register IDLOC57 @ 0x200072
  1645                           ;	unspecified, using default values
  1646  200072                     	org	2097266
  1647  200072  FFFF               	dw	65535
  1648                           
  1649                           ;Config register IDLOC58 @ 0x200074
  1650                           ;	unspecified, using default values
  1651  200074                     	org	2097268
  1652  200074  FFFF               	dw	65535
  1653                           
  1654                           ;Config register IDLOC59 @ 0x200076
  1655                           ;	unspecified, using default values
  1656  200076                     	org	2097270
  1657  200076  FFFF               	dw	65535
  1658                           
  1659                           ;Config register IDLOC60 @ 0x200078
  1660                           ;	unspecified, using default values
  1661  200078                     	org	2097272
  1662  200078  FFFF               	dw	65535
  1663                           
  1664                           ;Config register IDLOC61 @ 0x20007A
  1665                           ;	unspecified, using default values
  1666  20007A                     	org	2097274
  1667  20007A  FFFF               	dw	65535
  1668                           
  1669                           ;Config register IDLOC62 @ 0x20007C
  1670                           ;	unspecified, using default values
  1671  20007C                     	org	2097276
  1672  20007C  FFFF               	dw	65535
  1673                           
  1674                           ;Config register IDLOC63 @ 0x20007E
  1675                           ;	unspecified, using default values
  1676  20007E                     	org	2097278
  1677  20007E  FFFF               	dw	65535
  1678                           
  1679                           ;Config register IDLOC64 @ 0x200080
  1680                           ;	unspecified, using default values
  1681  200080                     	org	2097280
  1682  200080  FFFF               	dw	65535
  1683                           
  1684                           ;Config register IDLOC65 @ 0x200082
  1685                           ;	unspecified, using default values
  1686  200082                     	org	2097282
  1687  200082  FFFF               	dw	65535
  1688                           
  1689                           ;Config register IDLOC66 @ 0x200084
  1690                           ;	unspecified, using default values
  1691  200084                     	org	2097284
  1692  200084  FFFF               	dw	65535
  1693                           
  1694                           ;Config register IDLOC67 @ 0x200086
  1695                           ;	unspecified, using default values
  1696  200086                     	org	2097286
  1697  200086  FFFF               	dw	65535
  1698                           
  1699                           ;Config register IDLOC68 @ 0x200088
  1700                           ;	unspecified, using default values
  1701  200088                     	org	2097288
  1702  200088  FFFF               	dw	65535
  1703                           
  1704                           ;Config register IDLOC69 @ 0x20008A
  1705                           ;	unspecified, using default values
  1706  20008A                     	org	2097290
  1707  20008A  FFFF               	dw	65535
  1708                           
  1709                           ;Config register IDLOC70 @ 0x20008C
  1710                           ;	unspecified, using default values
  1711  20008C                     	org	2097292
  1712  20008C  FFFF               	dw	65535
  1713                           
  1714                           ;Config register IDLOC71 @ 0x20008E
  1715                           ;	unspecified, using default values
  1716  20008E                     	org	2097294
  1717  20008E  FFFF               	dw	65535
  1718                           
  1719                           ;Config register IDLOC72 @ 0x200090
  1720                           ;	unspecified, using default values
  1721  200090                     	org	2097296
  1722  200090  FFFF               	dw	65535
  1723                           
  1724                           ;Config register IDLOC73 @ 0x200092
  1725                           ;	unspecified, using default values
  1726  200092                     	org	2097298
  1727  200092  FFFF               	dw	65535
  1728                           
  1729                           ;Config register IDLOC74 @ 0x200094
  1730                           ;	unspecified, using default values
  1731  200094                     	org	2097300
  1732  200094  FFFF               	dw	65535
  1733                           
  1734                           ;Config register IDLOC75 @ 0x200096
  1735                           ;	unspecified, using default values
  1736  200096                     	org	2097302
  1737  200096  FFFF               	dw	65535
  1738                           
  1739                           ;Config register IDLOC76 @ 0x200098
  1740                           ;	unspecified, using default values
  1741  200098                     	org	2097304
  1742  200098  FFFF               	dw	65535
  1743                           
  1744                           ;Config register IDLOC77 @ 0x20009A
  1745                           ;	unspecified, using default values
  1746  20009A                     	org	2097306
  1747  20009A  FFFF               	dw	65535
  1748                           
  1749                           ;Config register IDLOC78 @ 0x20009C
  1750                           ;	unspecified, using default values
  1751  20009C                     	org	2097308
  1752  20009C  FFFF               	dw	65535
  1753                           
  1754                           ;Config register IDLOC79 @ 0x20009E
  1755                           ;	unspecified, using default values
  1756  20009E                     	org	2097310
  1757  20009E  FFFF               	dw	65535
  1758                           
  1759                           ;Config register IDLOC80 @ 0x2000A0
  1760                           ;	unspecified, using default values
  1761  2000A0                     	org	2097312
  1762  2000A0  FFFF               	dw	65535
  1763                           
  1764                           ;Config register IDLOC81 @ 0x2000A2
  1765                           ;	unspecified, using default values
  1766  2000A2                     	org	2097314
  1767  2000A2  FFFF               	dw	65535
  1768                           
  1769                           ;Config register IDLOC82 @ 0x2000A4
  1770                           ;	unspecified, using default values
  1771  2000A4                     	org	2097316
  1772  2000A4  FFFF               	dw	65535
  1773                           
  1774                           ;Config register IDLOC83 @ 0x2000A6
  1775                           ;	unspecified, using default values
  1776  2000A6                     	org	2097318
  1777  2000A6  FFFF               	dw	65535
  1778                           
  1779                           ;Config register IDLOC84 @ 0x2000A8
  1780                           ;	unspecified, using default values
  1781  2000A8                     	org	2097320
  1782  2000A8  FFFF               	dw	65535
  1783                           
  1784                           ;Config register IDLOC85 @ 0x2000AA
  1785                           ;	unspecified, using default values
  1786  2000AA                     	org	2097322
  1787  2000AA  FFFF               	dw	65535
  1788                           
  1789                           ;Config register IDLOC86 @ 0x2000AC
  1790                           ;	unspecified, using default values
  1791  2000AC                     	org	2097324
  1792  2000AC  FFFF               	dw	65535
  1793                           
  1794                           ;Config register IDLOC87 @ 0x2000AE
  1795                           ;	unspecified, using default values
  1796  2000AE                     	org	2097326
  1797  2000AE  FFFF               	dw	65535
  1798                           
  1799                           ;Config register IDLOC88 @ 0x2000B0
  1800                           ;	unspecified, using default values
  1801  2000B0                     	org	2097328
  1802  2000B0  FFFF               	dw	65535
  1803                           
  1804                           ;Config register IDLOC89 @ 0x2000B2
  1805                           ;	unspecified, using default values
  1806  2000B2                     	org	2097330
  1807  2000B2  FFFF               	dw	65535
  1808                           
  1809                           ;Config register IDLOC90 @ 0x2000B4
  1810                           ;	unspecified, using default values
  1811  2000B4                     	org	2097332
  1812  2000B4  FFFF               	dw	65535
  1813                           
  1814                           ;Config register IDLOC91 @ 0x2000B6
  1815                           ;	unspecified, using default values
  1816  2000B6                     	org	2097334
  1817  2000B6  FFFF               	dw	65535
  1818                           
  1819                           ;Config register IDLOC92 @ 0x2000B8
  1820                           ;	unspecified, using default values
  1821  2000B8                     	org	2097336
  1822  2000B8  FFFF               	dw	65535
  1823                           
  1824                           ;Config register IDLOC93 @ 0x2000BA
  1825                           ;	unspecified, using default values
  1826  2000BA                     	org	2097338
  1827  2000BA  FFFF               	dw	65535
  1828                           
  1829                           ;Config register IDLOC94 @ 0x2000BC
  1830                           ;	unspecified, using default values
  1831  2000BC                     	org	2097340
  1832  2000BC  FFFF               	dw	65535
  1833                           
  1834                           ;Config register IDLOC95 @ 0x2000BE
  1835                           ;	unspecified, using default values
  1836  2000BE                     	org	2097342
  1837  2000BE  FFFF               	dw	65535
  1838                           
  1839                           ;Config register IDLOC96 @ 0x2000C0
  1840                           ;	unspecified, using default values
  1841  2000C0                     	org	2097344
  1842  2000C0  FFFF               	dw	65535
  1843                           
  1844                           ;Config register IDLOC97 @ 0x2000C2
  1845                           ;	unspecified, using default values
  1846  2000C2                     	org	2097346
  1847  2000C2  FFFF               	dw	65535
  1848                           
  1849                           ;Config register IDLOC98 @ 0x2000C4
  1850                           ;	unspecified, using default values
  1851  2000C4                     	org	2097348
  1852  2000C4  FFFF               	dw	65535
  1853                           
  1854                           ;Config register IDLOC99 @ 0x2000C6
  1855                           ;	unspecified, using default values
  1856  2000C6                     	org	2097350
  1857  2000C6  FFFF               	dw	65535
  1858                           
  1859                           ;Config register IDLOC100 @ 0x2000C8
  1860                           ;	unspecified, using default values
  1861  2000C8                     	org	2097352
  1862  2000C8  FFFF               	dw	65535
  1863                           
  1864                           ;Config register IDLOC101 @ 0x2000CA
  1865                           ;	unspecified, using default values
  1866  2000CA                     	org	2097354
  1867  2000CA  FFFF               	dw	65535
  1868                           
  1869                           ;Config register IDLOC102 @ 0x2000CC
  1870                           ;	unspecified, using default values
  1871  2000CC                     	org	2097356
  1872  2000CC  FFFF               	dw	65535
  1873                           
  1874                           ;Config register IDLOC103 @ 0x2000CE
  1875                           ;	unspecified, using default values
  1876  2000CE                     	org	2097358
  1877  2000CE  FFFF               	dw	65535
  1878                           
  1879                           ;Config register IDLOC104 @ 0x2000D0
  1880                           ;	unspecified, using default values
  1881  2000D0                     	org	2097360
  1882  2000D0  FFFF               	dw	65535
  1883                           
  1884                           ;Config register IDLOC105 @ 0x2000D2
  1885                           ;	unspecified, using default values
  1886  2000D2                     	org	2097362
  1887  2000D2  FFFF               	dw	65535
  1888                           
  1889                           ;Config register IDLOC106 @ 0x2000D4
  1890                           ;	unspecified, using default values
  1891  2000D4                     	org	2097364
  1892  2000D4  FFFF               	dw	65535
  1893                           
  1894                           ;Config register IDLOC107 @ 0x2000D6
  1895                           ;	unspecified, using default values
  1896  2000D6                     	org	2097366
  1897  2000D6  FFFF               	dw	65535
  1898                           
  1899                           ;Config register IDLOC108 @ 0x2000D8
  1900                           ;	unspecified, using default values
  1901  2000D8                     	org	2097368
  1902  2000D8  FFFF               	dw	65535
  1903                           
  1904                           ;Config register IDLOC109 @ 0x2000DA
  1905                           ;	unspecified, using default values
  1906  2000DA                     	org	2097370
  1907  2000DA  FFFF               	dw	65535
  1908                           
  1909                           ;Config register IDLOC110 @ 0x2000DC
  1910                           ;	unspecified, using default values
  1911  2000DC                     	org	2097372
  1912  2000DC  FFFF               	dw	65535
  1913                           
  1914                           ;Config register IDLOC111 @ 0x2000DE
  1915                           ;	unspecified, using default values
  1916  2000DE                     	org	2097374
  1917  2000DE  FFFF               	dw	65535
  1918                           
  1919                           ;Config register IDLOC112 @ 0x2000E0
  1920                           ;	unspecified, using default values
  1921  2000E0                     	org	2097376
  1922  2000E0  FFFF               	dw	65535
  1923                           
  1924                           ;Config register IDLOC113 @ 0x2000E2
  1925                           ;	unspecified, using default values
  1926  2000E2                     	org	2097378
  1927  2000E2  FFFF               	dw	65535
  1928                           
  1929                           ;Config register IDLOC114 @ 0x2000E4
  1930                           ;	unspecified, using default values
  1931  2000E4                     	org	2097380
  1932  2000E4  FFFF               	dw	65535
  1933                           
  1934                           ;Config register IDLOC115 @ 0x2000E6
  1935                           ;	unspecified, using default values
  1936  2000E6                     	org	2097382
  1937  2000E6  FFFF               	dw	65535
  1938                           
  1939                           ;Config register IDLOC116 @ 0x2000E8
  1940                           ;	unspecified, using default values
  1941  2000E8                     	org	2097384
  1942  2000E8  FFFF               	dw	65535
  1943                           
  1944                           ;Config register IDLOC117 @ 0x2000EA
  1945                           ;	unspecified, using default values
  1946  2000EA                     	org	2097386
  1947  2000EA  FFFF               	dw	65535
  1948                           
  1949                           ;Config register IDLOC118 @ 0x2000EC
  1950                           ;	unspecified, using default values
  1951  2000EC                     	org	2097388
  1952  2000EC  FFFF               	dw	65535
  1953                           
  1954                           ;Config register IDLOC119 @ 0x2000EE
  1955                           ;	unspecified, using default values
  1956  2000EE                     	org	2097390
  1957  2000EE  FFFF               	dw	65535
  1958                           
  1959                           ;Config register IDLOC120 @ 0x2000F0
  1960                           ;	unspecified, using default values
  1961  2000F0                     	org	2097392
  1962  2000F0  FFFF               	dw	65535
  1963                           
  1964                           ;Config register IDLOC121 @ 0x2000F2
  1965                           ;	unspecified, using default values
  1966  2000F2                     	org	2097394
  1967  2000F2  FFFF               	dw	65535
  1968                           
  1969                           ;Config register IDLOC122 @ 0x2000F4
  1970                           ;	unspecified, using default values
  1971  2000F4                     	org	2097396
  1972  2000F4  FFFF               	dw	65535
  1973                           
  1974                           ;Config register IDLOC123 @ 0x2000F6
  1975                           ;	unspecified, using default values
  1976  2000F6                     	org	2097398
  1977  2000F6  FFFF               	dw	65535
  1978                           
  1979                           ;Config register IDLOC124 @ 0x2000F8
  1980                           ;	unspecified, using default values
  1981  2000F8                     	org	2097400
  1982  2000F8  FFFF               	dw	65535
  1983                           
  1984                           ;Config register IDLOC125 @ 0x2000FA
  1985                           ;	unspecified, using default values
  1986  2000FA                     	org	2097402
  1987  2000FA  FFFF               	dw	65535
  1988                           
  1989                           ;Config register IDLOC126 @ 0x2000FC
  1990                           ;	unspecified, using default values
  1991  2000FC                     	org	2097404
  1992  2000FC  FFFF               	dw	65535
  1993                           
  1994                           ;Config register IDLOC127 @ 0x2000FE
  1995                           ;	unspecified, using default values
  1996  2000FE                     	org	2097406
  1997  2000FE  FFFF               	dw	65535
  1998                           
  1999                           	psect	config
  2000                           
  2001                           ;Config register CONFIG1L @ 0x300000
  2002                           ;	External Oscillator mode Selection bits
  2003                           ;	FEXTOSC = OFF, Oscillator not enabled
  2004                           ;	Power-up default value for COSC bits
  2005                           ;	RSTOSC = EXTOSC, EXTOSC operating per FEXTOSC bits (device manufacturing default)
  2006  300000                     	org	3145728
  2007  300000  FC                 	db	252
  2008                           
  2009                           ;Config register CONFIG1H @ 0x300001
  2010                           ;	Clock Out Enable bit
  2011                           ;	CLKOUTEN = OFF, CLKOUT function is disabled
  2012                           ;	Clock Switch Enable bit
  2013                           ;	CSWEN = ON, Writing to NOSC and NDIV is allowed
  2014                           ;	Fail-Safe Clock Monitor Enable bit
  2015                           ;	FCMEN = ON, Fail-Safe Clock Monitor enabled
  2016  300001                     	org	3145729
  2017  300001  FF                 	db	255
  2018                           
  2019                           ;Config register CONFIG2L @ 0x300002
  2020                           ;	Master Clear Enable bit
  2021                           ;	MCLRE = EXTMCLR, MCLR pin (RE3) is MCLR
  2022                           ;	Power-up Timer Enable bit
  2023                           ;	PWRTE = OFF, Power up timer disabled
  2024                           ;	Low-power BOR enable bit
  2025                           ;	LPBOREN = OFF, Low power BOR is disabled
  2026                           ;	Brown-out Reset Enable bits
  2027                           ;	BOREN = SBORDIS, Brown-out Reset enabled , SBOREN bit is ignored
  2028  300002                     	org	3145730
  2029  300002  FF                 	db	255
  2030                           
  2031                           ;Config register CONFIG2H @ 0x300003
  2032                           ;	Brown Out Reset Voltage selection bits
  2033                           ;	BORV = VBOR_190, Brown-out Reset Voltage (VBOR) set to 1.90V
  2034                           ;	ZCD Disable bit
  2035                           ;	ZCD = OFF, ZCD disabled. ZCD can be enabled by setting the ZCDSEN bit of ZCDCON
  2036                           ;	PPSLOCK bit One-Way Set Enable bit
  2037                           ;	PPS1WAY = ON, PPSLOCK bit can be cleared and set only once; PPS registers remain locke
      +                          d after one clear/set cycle
  2038                           ;	Stack Full/Underflow Reset Enable bit
  2039                           ;	STVREN = ON, Stack full/underflow will cause Reset
  2040                           ;	Extended Instruction Set Enable bit
  2041                           ;	XINST = OFF, Extended Instruction Set and Indexed Addressing Mode disabled
  2042  300003                     	org	3145731
  2043  300003  FF                 	db	255
  2044                           
  2045                           ;Config register CONFIG3L @ 0x300004
  2046                           ;	WDT Period Select bits
  2047                           ;	WDTCPS = WDTCPS_31, Divider ratio 1:65536; software control of WDTPS
  2048                           ;	WDT operating mode
  2049                           ;	WDTE = OFF, WDT Disabled
  2050  300004                     	org	3145732
  2051  300004  9F                 	db	159
  2052                           
  2053                           ;Config register CONFIG3H @ 0x300005
  2054                           ;	WDT Window Select bits
  2055                           ;	WDTCWS = WDTCWS_7, window always open (100%); software control; keyed access not requi
      +                          red
  2056                           ;	WDT input clock selector
  2057                           ;	WDTCCS = SC, Software Control
  2058  300005                     	org	3145733
  2059  300005  FF                 	db	255
  2060                           
  2061                           ;Config register CONFIG4L @ 0x300006
  2062                           ;	Write Protection Block 0
  2063                           ;	WRT0 = OFF, Block 0 (000800-003FFFh) not write-protected
  2064                           ;	Write Protection Block 1
  2065                           ;	WRT1 = OFF, Block 1 (004000-007FFFh) not write-protected
  2066                           ;	Write Protection Block 2
  2067                           ;	WRT2 = OFF, Block 2 (008000-00BFFFh) not write-protected
  2068                           ;	Write Protection Block 3
  2069                           ;	WRT3 = OFF, Block 3 (00C000-00FFFFh) not write-protected
  2070                           ;	Write Protection Block 4
  2071                           ;	WRT4 = OFF, Block 4 (010000-013FFFh) not write-protected
  2072                           ;	Write Protection Block 5
  2073                           ;	WRT5 = OFF, Block 5 (014000-017FFFh) not write-protected
  2074                           ;	Write Protection Block 6
  2075                           ;	WRT6 = OFF, Block 6 (018000-01BFFFh) not write-protected
  2076                           ;	Write Protection Block 7
  2077                           ;	WRT7 = OFF, Block 7 (01C000-01FFFFh) not write-protected
  2078  300006                     	org	3145734
  2079  300006  FF                 	db	255
  2080                           
  2081                           ;Config register CONFIG4H @ 0x300007
  2082                           ;	Configuration Register Write Protection bit
  2083                           ;	WRTC = OFF, Configuration registers (300000-30000Bh) not write-protected
  2084                           ;	Boot Block Write Protection bit
  2085                           ;	WRTB = OFF, Boot Block (000000-0007FFh) not write-protected
  2086                           ;	Data EEPROM Write Protection bit
  2087                           ;	WRTD = OFF, Data EEPROM not write-protected
  2088                           ;	Scanner Enable bit
  2089                           ;	SCANE = ON, Scanner module is available for use, SCANMD bit can control the module
  2090                           ;	Low Voltage Programming Enable bit
  2091                           ;	LVP = ON, Low voltage programming enabled. MCLR/VPP pin function is MCLR. MCLRE config
      +                          uration bit is ignored
  2092  300007                     	org	3145735
  2093  300007  FF                 	db	255
  2094                           
  2095                           ;Config register CONFIG5L @ 0x300008
  2096                           ;	UserNVM Program Memory Code Protection bit
  2097                           ;	CP = OFF, UserNVM code protection disabled
  2098                           ;	DataNVM Memory Code Protection bit
  2099                           ;	CPD = OFF, DataNVM code protection disabled
  2100  300008                     	org	3145736
  2101  300008  FF                 	db	255
  2102                           
  2103                           ;Config register CONFIG5H @ 0x300009
  2104                           ;	unspecified, using default values
  2105  300009                     	org	3145737
  2106  300009  FF                 	db	255
  2107                           
  2108                           ;Config register CONFIG6L @ 0x30000A
  2109                           ;	Table Read Protection Block 0
  2110                           ;	EBTR0 = OFF, Block 0 (000800-003FFFh) not protected from table reads executed in other
      +                           blocks
  2111                           ;	Table Read Protection Block 1
  2112                           ;	EBTR1 = OFF, Block 1 (004000-007FFFh) not protected from table reads executed in other
      +                           blocks
  2113                           ;	Table Read Protection Block 2
  2114                           ;	EBTR2 = OFF, Block 2 (008000-00BFFFh) not protected from table reads executed in other
      +                           blocks
  2115                           ;	Table Read Protection Block 3
  2116                           ;	EBTR3 = OFF, Block 3 (00C000-00FFFFh) not protected from table reads executed in other
      +                           blocks
  2117                           ;	Table Read Protection Block 4
  2118                           ;	EBTR4 = OFF, Block 4 (010000-013FFFh) not protected from table reads executed in other
      +                           blocks
  2119                           ;	Table Read Protection Block 5
  2120                           ;	EBTR5 = OFF, Block 5 (014000-017FFFh) not protected from table reads executed in other
      +                           blocks
  2121                           ;	Table Read Protection Block 6
  2122                           ;	EBTR6 = OFF, Block 6 (018000-01BFFFh) not protected from table reads executed in other
      +                           blocks
  2123                           ;	Table Read Protection Block 7
  2124                           ;	EBTR7 = OFF, Block 7 (01C000-01FFFFh) not protected from table reads executed in other
      +                           blocks
  2125  30000A                     	org	3145738
  2126  30000A  FF                 	db	255
  2127                           
  2128                           ;Config register CONFIG6H @ 0x30000B
  2129                           ;	Boot Block Table Read Protection bit
  2130                           ;	EBTRB = OFF, Boot Block (000000-0007FFh) not protected from table reads executed in ot
      +                          her blocks
  2131  30000B                     	org	3145739
  2132  30000B  FF                 	db	255
  2133                           tosu	equ	0xFFF
  2134                           tosh	equ	0xFFE
  2135                           tosl	equ	0xFFD
  2136                           stkptr	equ	0xFFC
  2137                           pclatu	equ	0xFFB
  2138                           pclath	equ	0xFFA
  2139                           pcl	equ	0xFF9
  2140                           tblptru	equ	0xFF8
  2141                           tblptrh	equ	0xFF7
  2142                           tblptrl	equ	0xFF6
  2143                           tablat	equ	0xFF5
  2144                           prodh	equ	0xFF4
  2145                           prodl	equ	0xFF3
  2146                           indf0	equ	0xFEF
  2147                           postinc0	equ	0xFEE
  2148                           postdec0	equ	0xFED
  2149                           preinc0	equ	0xFEC
  2150                           plusw0	equ	0xFEB
  2151                           fsr0h	equ	0xFEA
  2152                           fsr0l	equ	0xFE9
  2153                           wreg	equ	0xFE8
  2154                           indf1	equ	0xFE7
  2155                           postinc1	equ	0xFE6
  2156                           postdec1	equ	0xFE5
  2157                           preinc1	equ	0xFE4
  2158                           plusw1	equ	0xFE3
  2159                           fsr1h	equ	0xFE2
  2160                           fsr1l	equ	0xFE1
  2161                           bsr	equ	0xFE0
  2162                           indf2	equ	0xFDF
  2163                           postinc2	equ	0xFDE
  2164                           postdec2	equ	0xFDD
  2165                           preinc2	equ	0xFDC
  2166                           plusw2	equ	0xFDB
  2167                           fsr2h	equ	0xFDA
  2168                           fsr2l	equ	0xFD9
  2169                           status	equ	0xFD8

Data Sizes:
    Strings     0
    Constant    18
    Data        0
    BSS         2
    Persistent  14
    Stack       0

Auto Spaces:
    Space          Size  Autos    Used
    COMRAM           94     10      26
    BANK0           160      0       0
    BANK1           256      0       0
    BANK2           256      0       0
    BANK3           256      0       0
    BANK4           256      0       0
    BANK5           256      0       0
    BANK6           256      0       0
    BANK7           256      0       0
    BANK8           256      0       0
    BANK9           256      0       0
    BANK10          256      0       0
    BANK11          256      0       0
    BANK12          256      0       0
    BANK13          256      0       0
    BANK14           31      0       0

Pointer List with Targets:

    S31$4$0	PTR FTN()void  size(3) Largest target is 1
		 -> Timer0_UserOverflowCallback(), Timer0_DefaultOverflowCallback(), 

    INT2_SetInterruptHandler@InterruptHandler	PTR FTN()void  size(3) Largest target is 1
		 -> INT2_DefaultInterruptHandler(), 

    INT2_InterruptHandler	PTR FTN()void  size(3) Largest target is 1
		 -> INT2_DefaultInterruptHandler(), Absolute function(), 

    INT1_SetInterruptHandler@InterruptHandler	PTR FTN()void  size(3) Largest target is 1
		 -> INT1_DefaultInterruptHandler(), 

    INT1_InterruptHandler	PTR FTN()void  size(3) Largest target is 1
		 -> INT1_DefaultInterruptHandler(), Absolute function(), 

    INT0_SetInterruptHandler@InterruptHandler	PTR FTN()void  size(3) Largest target is 1
		 -> INT0_DefaultInterruptHandler(), 

    INT0_InterruptHandler	PTR FTN()void  size(3) Largest target is 1
		 -> INT0_DefaultInterruptHandler(), Absolute function(), 

    Timer0_OverflowCallbackRegister@CallbackHandler	PTR FTN()void  size(3) Largest target is 1
		 -> Timer0_UserOverflowCallback(), Timer0_DefaultOverflowCallback(), 

    Timer0_OverflowCallback	PTR FTN()void  size(3) Largest target is 1
		 -> Timer0_UserOverflowCallback(), Timer0_DefaultOverflowCallback(), Absolute function(), 

    S31TMR_INTERFACE$Tasks	PTR FTN()void  size(3) Largest target is 1
		 -> Absolute function(), 

    Timer0.Tasks	PTR FTN()void  size(3) Largest target is 1
		 -> Absolute function(), 

    S31TMR_INTERFACE$TimeoutCallbackRegister	PTR FTN(PTR FTN()void ,)void  size(3) Largest target is 1
		 -> Timer0_OverflowCallbackRegister(), 

    Timer0.TimeoutCallbackRegister	PTR FTN(PTR FTN()void ,)void  size(3) Largest target is 1
		 -> Timer0_OverflowCallbackRegister(), 

    S31TMR_INTERFACE$PeriodCountSet	PTR FTN(unsigned int ,)void  size(3) Largest target is 1
		 -> Timer0_Write(), 

    Timer0.PeriodCountSet	PTR FTN(unsigned int ,)void  size(3) Largest target is 1
		 -> Timer0_Write(), 

    S31TMR_INTERFACE$Stop	PTR FTN()void  size(3) Largest target is 1
		 -> Timer0_Stop(), 

    Timer0.Stop	PTR FTN()void  size(3) Largest target is 1
		 -> Timer0_Stop(), 

    S31TMR_INTERFACE$Start	PTR FTN()void  size(3) Largest target is 1
		 -> Timer0_Start(), 

    Timer0.Start	PTR FTN()void  size(3) Largest target is 1
		 -> Timer0_Start(), 

    S31TMR_INTERFACE$Initialize	PTR FTN()void  size(3) Largest target is 1
		 -> Timer0_Initialize(), 

    Timer0.Initialize	PTR FTN()void  size(3) Largest target is 1
		 -> Timer0_Initialize(), 


Critical Paths under _main in COMRAM

    _SYSTEM_Initialize->_Timer0_Initialize
    _Timer0_Initialize->_Timer0_OverflowCallbackRegister
    _INTERRUPT_Initialize->_INT0_SetInterruptHandler
    _INTERRUPT_Initialize->_INT1_SetInterruptHandler
    _INTERRUPT_Initialize->_INT2_SetInterruptHandler

Critical Paths under _INTERRUPT_InterruptManager in COMRAM

    _Timer0_OverflowISR->_Timer0_UserOverflowCallback

Critical Paths under _main in BANK0

    None.

Critical Paths under _INTERRUPT_InterruptManager in BANK0

    None.

Critical Paths under _main in BANK1

    None.

Critical Paths under _INTERRUPT_InterruptManager in BANK1

    None.

Critical Paths under _main in BANK2

    None.

Critical Paths under _INTERRUPT_InterruptManager in BANK2

    None.

Critical Paths under _main in BANK3

    None.

Critical Paths under _INTERRUPT_InterruptManager in BANK3

    None.

Critical Paths under _main in BANK4

    None.

Critical Paths under _INTERRUPT_InterruptManager in BANK4

    None.

Critical Paths under _main in BANK5

    None.

Critical Paths under _INTERRUPT_InterruptManager in BANK5

    None.

Critical Paths under _main in BANK6

    None.

Critical Paths under _INTERRUPT_InterruptManager in BANK6

    None.

Critical Paths under _main in BANK7

    None.

Critical Paths under _INTERRUPT_InterruptManager in BANK7

    None.

Critical Paths under _main in BANK8

    None.

Critical Paths under _INTERRUPT_InterruptManager in BANK8

    None.

Critical Paths under _main in BANK9

    None.

Critical Paths under _INTERRUPT_InterruptManager in BANK9

    None.

Critical Paths under _main in BANK10

    None.

Critical Paths under _INTERRUPT_InterruptManager in BANK10

    None.

Critical Paths under _main in BANK11

    None.

Critical Paths under _INTERRUPT_InterruptManager in BANK11

    None.

Critical Paths under _main in BANK12

    None.

Critical Paths under _INTERRUPT_InterruptManager in BANK12

    None.

Critical Paths under _main in BANK13

    None.

Critical Paths under _INTERRUPT_InterruptManager in BANK13

    None.

Critical Paths under _main in BANK14

    None.

Critical Paths under _INTERRUPT_InterruptManager in BANK14

    None.

Call Graph Tables:

 ---------------------------------------------------------------------------------
 (Depth) Function   	        Calls       Base Space   Used Autos Params    Refs
 ---------------------------------------------------------------------------------
 (0) _main                                                 2     2      0     642
                                              8 COMRAM     2     2      0
                  _SYSTEM_Initialize
    _Timer0_OverflowCallbackRegister
 ---------------------------------------------------------------------------------
 (1) _SYSTEM_Initialize                                    0     0      0     468
                   _CLOCK_Initialize
               _INTERRUPT_Initialize
             _PIN_MANAGER_Initialize
                  _Timer0_Initialize
 ---------------------------------------------------------------------------------
 (2) _Timer0_Initialize                                    2     2      0     174
                                              6 COMRAM     2     2      0
    _Timer0_OverflowCallbackRegister
 ---------------------------------------------------------------------------------
 (1) _Timer0_OverflowCallbackRegister                      3     0      3     174
                                              3 COMRAM     3     0      3
 ---------------------------------------------------------------------------------
 (2) _PIN_MANAGER_Initialize                               0     0      0       0
 ---------------------------------------------------------------------------------
 (2) _INTERRUPT_Initialize                                 0     0      0     294
           _INT0_SetInterruptHandler
           _INT1_SetInterruptHandler
           _INT2_SetInterruptHandler
 ---------------------------------------------------------------------------------
 (3) _INT2_SetInterruptHandler                             3     0      3      98
                                              3 COMRAM     3     0      3
 ---------------------------------------------------------------------------------
 (3) _INT1_SetInterruptHandler                             3     0      3      98
                                              3 COMRAM     3     0      3
 ---------------------------------------------------------------------------------
 (3) _INT0_SetInterruptHandler                             3     0      3      98
                                              3 COMRAM     3     0      3
 ---------------------------------------------------------------------------------
 (2) _CLOCK_Initialize                                     0     0      0       0
 ---------------------------------------------------------------------------------
 Estimated maximum stack depth 3
 ---------------------------------------------------------------------------------
 (Depth) Function   	        Calls       Base Space   Used Autos Params    Refs
 ---------------------------------------------------------------------------------
 (4) _INTERRUPT_InterruptManager                           2     2      0       0
                                              1 COMRAM     2     2      0
                 _Timer0_OverflowISR
 ---------------------------------------------------------------------------------
 (5) _Timer0_OverflowISR                                   0     0      0       0
                   Absolute function *
     _Timer0_DefaultOverflowCallback *
        _Timer0_UserOverflowCallback *
 ---------------------------------------------------------------------------------
 (6) _Timer0_UserOverflowCallback                          1     1      0       0
                                              0 COMRAM     1     1      0
 ---------------------------------------------------------------------------------
 (6) _Timer0_DefaultOverflowCallback                       0     0      0       0
 ---------------------------------------------------------------------------------
 (6) Absolute function(Fake)                               0     0      0       0
 ---------------------------------------------------------------------------------
 Estimated maximum stack depth 6
 ---------------------------------------------------------------------------------

 Call Graph Graphs:

 _main (ROOT)
   _SYSTEM_Initialize
     _CLOCK_Initialize
     _INTERRUPT_Initialize
       _INT0_SetInterruptHandler
       _INT1_SetInterruptHandler
       _INT2_SetInterruptHandler
     _PIN_MANAGER_Initialize
     _Timer0_Initialize
       _Timer0_OverflowCallbackRegister
   _Timer0_OverflowCallbackRegister

 _INTERRUPT_InterruptManager (ROOT)
   _Timer0_OverflowISR
     Absolute function(Fake) *
     _Timer0_DefaultOverflowCallback *
     _Timer0_UserOverflowCallback *

 Address spaces:
Name               Size   Autos  Total    Cost      Usage
BIGRAM             E1E      0       0      35        0.0%
EEDATA             400      0       0       0        0.0%
BITBANK13          100      0       0      31        0.0%
BANK13             100      0       0      32        0.0%
BITBANK12          100      0       0      29        0.0%
BANK12             100      0       0      30        0.0%
BITBANK11          100      0       0      27        0.0%
BANK11             100      0       0      28        0.0%
BITBANK10          100      0       0      25        0.0%
BANK10             100      0       0      26        0.0%
BITBANK9           100      0       0      23        0.0%
BANK9              100      0       0      24        0.0%
BITBANK8           100      0       0      21        0.0%
BANK8              100      0       0      22        0.0%
BITBANK7           100      0       0      19        0.0%
BANK7              100      0       0      20        0.0%
BITBANK6           100      0       0      17        0.0%
BANK6              100      0       0      18        0.0%
BITBANK5           100      0       0      15        0.0%
BANK5              100      0       0      16        0.0%
BITBANK4           100      0       0      13        0.0%
BANK4              100      0       0      14        0.0%
BITBANK3           100      0       0      11        0.0%
BANK3              100      0       0      12        0.0%
BITBANK2           100      0       0       9        0.0%
BANK2              100      0       0      10        0.0%
BITBANK1           100      0       0       7        0.0%
BANK1              100      0       0       8        0.0%
BITBANK0            A0      0       0       4        0.0%
BANK0               A0      0       0       5        0.0%
BITCOMRAM           5E      0       0       0        0.0%
COMRAM              5E      A      1A       1       27.7%
BITBANK14           1F      0       0      33        0.0%
BANK14              1F      0       0      34        0.0%
BITSFR_2             0      0       0     200        0.0%
SFR_2                0      0       0     200        0.0%
BITSFR_1             0      0       0     200        0.0%
SFR_1                0      0       0     200        0.0%
BITSFR               0      0       0     200        0.0%
SFR                  0      0       0     200        0.0%
STACK                0      0       0       2        0.0%
NULL                 0      0       0       0        0.0%
ABS                  0      0      1A       6        0.0%
DATA                 0      0      1A       3        0.0%
CODE                 0      0       0       0        0.0%


Microchip Technology PIC18 Macro Assembler V2.32 build 20210201212658 
Symbol Table                                                                                   Thu Jul 29 15:33:10 2021

                                            l35 10F4                                              l60 1168  
                                            l99 114C                            ??_Timer0_OverflowISR 0010  
                                           l116 113A                                             l151 10C0  
                                           l170 1192                                             l183 1184  
                                           l196 1176                                             l298 0FBE  
                                           l997 111C                                             l999 0F14  
                                           u150 1000                                             u151 0FFA  
                                           u156 1002                                             u167 0FE2  
                    ??_INT0_SetInterruptHandler 0015                                             tosl 000FFD  
                                           wreg 000FE8                                            l1001 0F2C  
                                          l1011 0F40                                            l1003 0F2E  
                                          l1021 0F7A                                            l1013 0F6E  
                                          l1005 0F30                                            l1023 0F7C  
                                          l1015 0F70                                            l1007 0F3C  
                                          l1025 0F7E                                            l1017 0F72  
                                          l1009 0F3E                                            l1121 115C  
                                          l1123 1186                                            l1027 0F80  
                                          l1019 0F74                                            l1131 10DA  
                                          l1125 1178                                            l1141 1084  
                                          l1133 10EA                                            l1127 116A  
                                          l1143 1094                                            l1135 10EE  
                                          l1151 113C                                            l1145 1098  
                                          l1137 10F0                                            l1129 10C2  
                                          l1153 1144                                            l1161 0FD6  
                                          l1147 10AA                                            l1139 107C  
                                          l1155 1148                                            l1163 0FD8  
                                          l1149 10AE                                            l1165 0FF0  
                                          l1157 0FC0                                            l1159 0FD4  
                                          _LATA 000F82                                            _LATB 000F83  
                                          _LATC 000F84                                            _LATD 000F85  
                                          _LATE 000F86                                            i2l63 1194  
                                          i2l57 107A                                            i2l76 10F6  
                                          i2l78 111A                                            _WPUA 000F0B  
                                          _WPUB 000F13                                            _WPUC 000F1B  
                                          _WPUD 000F20                                            _WPUE 000F28  
                 ??_Timer0_UserOverflowCallback 000F                                            _main 0FC0  
                                          btemp 001B               __size_of_INT2_SetInterruptHandler 000E  
                     ?_INT2_SetInterruptHandler 0012                                            start 0A4E  
                                  ___param_bank 000000                                           ?_main 000F  
                                         _IOCAF 000F05                                           _IOCBF 000F0D  
                                         _IOCCF 000F15                                           _IOCAN 000F06  
                                         _IOCEF 000F22                                           _IOCAP 000F07  
                                         _IOCBN 000F0E                                           _IOCBP 000F0F  
                                         _IOCCN 000F16                                           _IOCCP 000F17  
                                         _IOCEN 000F23                                           _IOCEP 000F24  
                                         i2l160 0A42                                           i2l995 10F6  
                                         _OSCEN 000ED7                                           _TMR0H 000FD3  
                                         _TMR0L 000FD2                                           _TRISA 000F87  
                                         _TRISB 000F88                                           _TRISC 000F89  
                                         _TRISD 000F8A                                           _TRISE 000F8B  
                      _INT1_SetInterruptHandler 1178                                           pclath 000FFA  
                                         ttemp5 001C                                           ttemp6 001F  
                                         ttemp7 0023                                           status 000FD8  
                                         wtemp8 001C                                 __initialization 114E  
                                  __end_of_main 101E                     ?_INTERRUPT_InterruptManager 000F  
                                        ??_main 0017                                   __activetblptr 000003  
                                        _ANSELA 000F0C                                          _ANSELB 000F14  
                                        _ANSELC 000F1C                                          _ANSELD 000F21  
                                        _ANSELE 000F29                                          _T0CON0 000FD4  
                                        _T0CON1 000FD5                                          _ODCONA 000F0A  
                                        _ODCONB 000F12                                          _ODCONC 000F1A  
                                        _ODCOND 000F1F                                          _ODCONE 000F27  
                                        i2l1041 101E                                          i2l1051 1058  
                                        i2l1043 1022                                          i2l1053 1072  
                                        i2l1045 1026                                          i2l1047 102A  
               Timer0_OverflowISR@CountCallBack 0019                                          i2l1049 1044  
                                        i2l1091 0A20                                          i2l1093 0A30  
                                        i2l1095 0A3E                                          i2l1089 0A12  
                                        _INLVLA 000F08                                          _INLVLB 000F10  
                                        _INLVLC 000F18                                          _INLVLD 000F1D  
                                        _INLVLE 000F25                                          _OSCFRQ 000ED9  
                                        i2u1_40 1106                                          i2u1_41 1100  
                                        i2u1_46 1108                                          i2u2_40 1044  
                                        i2u2_41 1040                                          i2u3_40 1058  
                                        i2u3_41 1054                                          i2u4_48 105E  
                                        i2u4_49 1072                                          i2u6_40 0A20  
                                        i2u6_41 0A1C                                          i2u7_40 0A30  
                                        i2u7_41 0A2C                                          i2u8_40 0A3E  
                                        i2u8_41 0A3A                                          _Timer0 0F01  
                                        isa$std 000001                               ?_CLOCK_Initialize 000F  
                  _INT2_DefaultInterruptHandler 000000                              ??_CLOCK_Initialize 0012  
                                  __mediumconst 0000        INT2_SetInterruptHandler@InterruptHandler 0012  
      INT1_SetInterruptHandler@InterruptHandler 0012        INT0_SetInterruptHandler@InterruptHandler 0012  
                 __size_of_INTERRUPT_Initialize 0046                               _SYSTEM_Initialize 113C  
            fp__Timer0_OverflowCallbackRegister 0000         __end_of_Timer0_OverflowCallbackRegister 116A  
      __size_of_Timer0_OverflowCallbackRegister 000E               ??_Timer0_OverflowCallbackRegister 0015  
              ?_Timer0_OverflowCallbackRegister 0012                 _Timer0_OverflowCallbackRegister 115C  
                                    __accesstop 0060                         __end_of__initialization 1152  
                            ?_SYSTEM_Initialize 000F                                   ___rparam_used 000001  
                                __pcstackCOMRAM 000F                             ??_SYSTEM_Initialize 0017  
                fp__Timer0_UserOverflowCallback 0000                __end_of_INT2_SetInterruptHandler 1178  
                     __end_of_SYSTEM_Initialize 114E                           _INT0_InterruptHandler 0007  
                                    __pnvCOMRAM 0001                     __size_of_Timer0_OverflowISR 005E  
                    ??_INT1_SetInterruptHandler 0015                                         _OSCCON1 000ED3  
                                       _OSCCON2 000ED4                                         _OSCCON3 000ED5  
                                       _OSCSTAT 000ED6                                         _OSCTUNE 000ED8  
                                       _SLRCONA 000F09                                         _SLRCONB 000F11  
                                       _SLRCONC 000F19                                         _SLRCOND 000F1E  
                                       _SLRCONE 000F26               __size_of_INT0_SetInterruptHandler 000E  
                     ?_INT0_SetInterruptHandler 0012                                         __Hparam 0000  
                                       __Lparam 0000                                     _Timer0_Stop 000000  
             fp__Timer0_DefaultOverflowCallback 0000                ??_Timer0_DefaultOverflowCallback 000F  
               ?_Timer0_DefaultOverflowCallback 000F                               _Timer0_Initialize 10C2  
                                  __psmallconst 0F00                                         __pcinit 114E  
                            ?_Timer0_Initialize 000F                                         __ramtop 0F00  
                                       __ptext0 0FC0                                         __ptext1 113C  
                                       __ptext2 10C2                                         __ptext3 115C  
                                       __ptext4 0F14                                         __ptext5 107C  
                                       __ptext6 116A                                         __ptext7 1178  
                                       __ptext8 1186                                         __ptext9 111C  
                       _timerTMR0ReloadVal16bit 000D                        ??_PIN_MANAGER_Initialize 0012  
                           ??_Timer0_Initialize 0015                      __size_of_SYSTEM_Initialize 0012  
           __end_of_Timer0_UserOverflowCallback 111C                     _Timer0_UserOverflowCallback 10F6  
                          end_of_initialization 1152                        _INT2_SetInterruptHandler 116A  
                     __end_of_Timer0_Initialize 10F6                           _INT1_InterruptHandler 0004  
Timer0_OverflowCallbackRegister@CallbackHandler 0012                       __size_of_CLOCK_Initialize 0020  
                                __end_of_Timer0 0F13                    __end_of_INTERRUPT_Initialize 10C2  
                  _INT0_DefaultInterruptHandler 000000                             start_initialization 114E  
               __size_of_PIN_MANAGER_Initialize 00AC                      __size_of_Timer0_Initialize 0034  
                                   __pbssCOMRAM 0019                __end_of_INT0_SetInterruptHandler 1194  
                         _INT2_InterruptHandler 0001                          _PIN_MANAGER_Initialize 0F14  
                                     __pintcode 0A08                      __end_of_Timer0_OverflowISR 107C  
                  ??_INTERRUPT_InterruptManager 0010                                     __smallconst 0F00  
                    ??_INT2_SetInterruptHandler 0015          __end_of_Timer0_DefaultOverflowCallback 1196  
       __size_of_Timer0_DefaultOverflowCallback 0002                  _Timer0_DefaultOverflowCallback 1194  
                                      _T0CKIPPS 000E9F                            _INTERRUPT_Initialize 107C  
                              _CLOCK_Initialize 111C                                        _LATAbits 000F82  
             __size_of_INT1_SetInterruptHandler 000E                       ?_INT1_SetInterruptHandler 0012  
                                      _PIE0bits 000EBD             __size_of_INTERRUPT_InterruptManager 0046  
                                      _PIR0bits 000EC5            __size_of_Timer0_UserOverflowCallback 0026  
                         ?_INTERRUPT_Initialize 000F                        _INT0_SetInterruptHandler 1186  
                                      __Hrparam 0000                                    _Timer0_Start 000000  
                                  _Timer0_Write 000000                                        __Lrparam 0000  
                                    _T0CON0bits 000FD4                            fp__Timer0_Initialize 0000  
                                      __ptext11 101E                                        __ptext12 1194  
                                      __ptext13 10F6                                        __ptext14 0000  
                                 __size_of_main 005E                                        isa$xinst 000000  
                                      int$flags 001B              __end_of_INTERRUPT_InterruptManager 0A4E  
                    _INTERRUPT_InterruptManager 0A08                    _INT1_DefaultInterruptHandler 000000  
                                    _INTCONbits 000FF2                          ??_INTERRUPT_Initialize 0015  
                       _Timer0_OverflowCallback 000A                                        intlevel2 0000  
                       ?_PIN_MANAGER_Initialize 000F                        __end_of_CLOCK_Initialize 113C  
              __end_of_INT1_SetInterruptHandler 1186                              _Timer0_OverflowISR 101E  
                  ?_Timer0_UserOverflowCallback 000F                  __end_of_PIN_MANAGER_Initialize 0FC0  
                           ?_Timer0_OverflowISR 000F  
