Microchip MPLAB XC8 Compiler V2.32

Linker command line:

-W-3 --edf=C:\Program Files\Microchip\xc8\v2.32\pic\dat\en_msgs.txt -cn \
  -h+dist/Offset/production\app_pic18f47q10.X.production.sym \
  --cmf=dist/Offset/production\app_pic18f47q10.X.production.cmf -z \
  -Q18F47Q10 -oC:\Users\A51933\AppData\Local\Temp\xcAsk9k.6 \
  --defsym=__MPLAB_BUILD=1 \
  -Mdist/Offset/production/app_pic18f47q10.X.production.map -E1 \
  -ver=XC8 Compiler --acfsm=1493 -ASTACK=060h-0E1Eh -pstack=STACK \
  -ACODE=0A00h-01FFFFh -ACONST=0A00h-01FFFFh -ASMALLCONST=0F00h-0FFFhx497 \
  -AMEDIUMCONST=0F00h-0FFFFh,010F00h-01FFFFh -ACOMRAM=01h-05Fh \
  -AABS1=00h-0E1Eh -ABIGRAM=01h-0E1Eh \
  -ARAM=060h-0FFh,0100h-01FFhx13,0E00h-0E1Eh -ABANK0=060h-0FFh \
  -ABANK1=0100h-01FFh -ABANK2=0200h-02FFh -ABANK3=0300h-03FFh \
  -ABANK4=0400h-04FFh -ABANK5=0500h-05FFh -ABANK6=0600h-06FFh \
  -ABANK7=0700h-07FFh -ABANK8=0800h-08FFh -ABANK9=0900h-09FFh \
  -ABANK10=0A00h-0AFFh -ABANK11=0B00h-0BFFh -ABANK12=0C00h-0CFFh \
  -ABANK13=0D00h-0DFFh -ABANK14=0E00h-0E1Eh \
  -ASFR=0E1Fh-0EFFh,0F00h-0F5Fh,0F60h-0FFFh -ACONFIG=0300000h-030000Bh \
  -AIDLOC=0200000h-02000FFh -AEEDATA=0310000h-03103FFh -peeprom_data=EEDATA \
  -preset_vec=0A00h,intcode=0A08h,intcodelo,powerup,init -pramtop=0F00h \
  -psmallconst=SMALLCONST -pmediumconst=MEDIUMCONST -pconst=CONST \
  -AFARRAM=00h-00h \
  -prdata=COMRAM,nvrram=COMRAM,nvbit=COMRAM,rbss=COMRAM,rbit=COMRAM \
  -pfarbss=FARRAM,fardata=FARRAM,nvFARRAM=FARRAM \
  -pintsave_regs=BIGRAM,bigbss=BIGRAM,bigdata=BIGRAM -pbss=RAM \
  -pidata=CODE,irdata=CODE,ibigdata=CODE,ifardata=CODE -prparam=COMRAM \
  C:\Users\A51933\AppData\Local\Temp\xcAsk9k.o \
  dist/Offset/production\app_pic18f47q10.X.production.o 

Object code version is 3.11

Machine type is 18F47Q10



                Name                               Link     Load   Length Selector   Space Scale
C:\Users\A51933\AppData\Local\Temp\xcAsk9k.o
                idloc                            200000   200000      100        0       5
                config                           300000   300000        C        0       4
                init                                A4E      A4E        4      504       0
                reset_vec                           A00      A00        4      500       0
dist/Offset/production\app_pic18f47q10.X.production.o
                intcode                             A08      A08       46      504       0
                idloc                            200000   200000      100        0       5
                config                           300000   300000        C        0       4
                temp                                 1B       1B        1        1       1
                smallconst                          F00      F00       14      780       0
                text13                             10F6     10F6       26      78A       0
                text12                             1194     1194        2      78A       0
                text11                             101E     101E       5E      78A       0
                text9                              111C     111C       20      78A       0
                text8                              1186     1186        E      78A       0
                text7                              1178     1178        E      78A       0
                text6                              116A     116A        E      78A       0
                text5                              107C     107C       46      78A       0
                text4                               F14      F14       AC      78A       0
                text3                              115C     115C        E      78A       0
                text2                              10C2     10C2       34      78A       0
                text1                              113C     113C       12      78A       0
                text0                               FC0      FC0       5E      78A       0
                cstackCOMRAM                          F        F        A        1       1
                bssCOMRAM                            19       19        2        1       1
                cinit                              114E     114E        E      78A       0
                nvCOMRAM                              1        1        E        1       1

TOTAL           Name                               Link     Load   Length     Space
        CLASS   STACK          

        CLASS   CODE           
                intcode                             A08      A08       46         0
                init                                A4E      A4E        4         0
                reset_vec                           A00      A00        4         0
                text13                             10F6     10F6       26         0
                text12                             1194     1194        2         0
                text11                             101E     101E       5E         0
                text9                              111C     111C       20         0
                text8                              1186     1186        E         0
                text7                              1178     1178        E         0
                text6                              116A     116A        E         0
                text5                              107C     107C       46         0
                text4                               F14      F14       AC         0
                text3                              115C     115C        E         0
                text2                              10C2     10C2       34         0
                text1                              113C     113C       12         0
                text0                               FC0      FC0       5E         0
                cinit                              114E     114E        E         0

        CLASS   CONST          

        CLASS   SMALLCONST     
                smallconst                          F00      F00       14         0

        CLASS   MEDIUMCONST    

        CLASS   COMRAM         
                temp                                 1B       1B        1         1
                cstackCOMRAM                          F        F        A         1
                bssCOMRAM                            19       19        2         1
                nvCOMRAM                              1        1        E         1

        CLASS   ABS1           

        CLASS   BIGRAM         

        CLASS   RAM            

        CLASS   BANK0          

        CLASS   BANK1          

        CLASS   BANK2          

        CLASS   BANK3          

        CLASS   BANK4          

        CLASS   BANK5          

        CLASS   BANK6          

        CLASS   BANK7          

        CLASS   BANK8          

        CLASS   BANK9          

        CLASS   BANK10         

        CLASS   BANK11         

        CLASS   BANK12         

        CLASS   BANK13         

        CLASS   BANK14         

        CLASS   SFR            

        CLASS   CONFIG         
                config                           300000   300000        C         4

        CLASS   IDLOC          
                idloc                            200000   200000      100         5

        CLASS   EEDATA         

        CLASS   FARRAM         



SEGMENTS        Name                           Load    Length   Top    Selector   Space  Class

                nvCOMRAM                       000001  00001B  00001C         1       1  COMRAM  
                reset_vec                      000A00  000004  000A04       500       0  CODE    
                intcode                        000A08  00004A  000A52       504       0  CODE    
                smallconst                     000F00  000014  000F14       780       0  SMALLCON
                text4                          000F14  000282  001196       78A       0  CODE    


UNUSED ADDRESS RANGES

        Name                Unused          Largest block    Delta
        BANK0            000060-0000FF               A0
        BANK1            000100-0001FF              100
        BANK10           000A00-000AFF              100
        BANK11           000B00-000BFF              100
        BANK12           000C00-000CFF              100
        BANK13           000D00-000DFF              100
        BANK14           000E00-000E1E               1F
        BANK2            000200-0002FF              100
        BANK3            000300-0003FF              100
        BANK4            000400-0004FF              100
        BANK5            000500-0005FF              100
        BANK6            000600-0006FF              100
        BANK7            000700-0007FF              100
        BANK8            000800-0008FF              100
        BANK9            000900-0009FF              100
        BIGRAM           00001C-000E1E              E03
        CODE             000A04-000A07                4
                         000A52-000EFF              4AE
                         001196-01FFFF            1EE6A
        COMRAM           00001C-00005F               44
        CONST            000A04-000A07                4
                         000A52-000EFF              4AE
                         001196-01FFFF            1EE6A
        EEDATA           310000-3103FF              400
        FARRAM           000000-000000                1
        MEDIUMCONST      001196-00FFFF             EE6A
                         010F00-01FFFF             F100
        RAM              000060-000E1E              100
        SFR              000E1F-000FFF               E1
        SMALLCONST       001196-01FFFF              100
        STACK            000060-000E1E              DBF

                                  Symbol Table

INT0_SetInterruptHandler@InterruptHandler       cstackCOMRAM 000012
INT1_SetInterruptHandler@InterruptHandler       cstackCOMRAM 000012
INT2_SetInterruptHandler@InterruptHandler       cstackCOMRAM 000012
Timer0_OverflowCallbackRegister@CallbackHandler cstackCOMRAM 000012
Timer0_OverflowISR@CountCallBack                bssCOMRAM    000019
_ANSELA                                         (abs)        000F0C
_ANSELB                                         (abs)        000F14
_ANSELC                                         (abs)        000F1C
_ANSELD                                         (abs)        000F21
_ANSELE                                         (abs)        000F29
_CLOCK_Initialize                               text9        00111C
_INLVLA                                         (abs)        000F08
_INLVLB                                         (abs)        000F10
_INLVLC                                         (abs)        000F18
_INLVLD                                         (abs)        000F1D
_INLVLE                                         (abs)        000F25
_INT0_DefaultInterruptHandler                   (abs)        000000
_INT0_InterruptHandler                          nvCOMRAM     000007
_INT0_SetInterruptHandler                       text8        001186
_INT1_DefaultInterruptHandler                   (abs)        000000
_INT1_InterruptHandler                          nvCOMRAM     000004
_INT1_SetInterruptHandler                       text7        001178
_INT2_DefaultInterruptHandler                   (abs)        000000
_INT2_InterruptHandler                          nvCOMRAM     000001
_INT2_SetInterruptHandler                       text6        00116A
_INTCONbits                                     (abs)        000FF2
_INTERRUPT_Initialize                           text5        00107C
_INTERRUPT_InterruptManager                     intcode      000A08
_IOCAF                                          (abs)        000F05
_IOCAN                                          (abs)        000F06
_IOCAP                                          (abs)        000F07
_IOCBF                                          (abs)        000F0D
_IOCBN                                          (abs)        000F0E
_IOCBP                                          (abs)        000F0F
_IOCCF                                          (abs)        000F15
_IOCCN                                          (abs)        000F16
_IOCCP                                          (abs)        000F17
_IOCEF                                          (abs)        000F22
_IOCEN                                          (abs)        000F23
_IOCEP                                          (abs)        000F24
_LATA                                           (abs)        000F82
_LATAbits                                       (abs)        000F82
_LATB                                           (abs)        000F83
_LATC                                           (abs)        000F84
_LATD                                           (abs)        000F85
_LATE                                           (abs)        000F86
_ODCONA                                         (abs)        000F0A
_ODCONB                                         (abs)        000F12
_ODCONC                                         (abs)        000F1A
_ODCOND                                         (abs)        000F1F
_ODCONE                                         (abs)        000F27
_OSCCON1                                        (abs)        000ED3
_OSCCON2                                        (abs)        000ED4
_OSCCON3                                        (abs)        000ED5
_OSCEN                                          (abs)        000ED7
_OSCFRQ                                         (abs)        000ED9
_OSCSTAT                                        (abs)        000ED6
_OSCTUNE                                        (abs)        000ED8
_PIE0bits                                       (abs)        000EBD
_PIN_MANAGER_Initialize                         text4        000F14
_PIR0bits                                       (abs)        000EC5
_SLRCONA                                        (abs)        000F09
_SLRCONB                                        (abs)        000F11
_SLRCONC                                        (abs)        000F19
_SLRCOND                                        (abs)        000F1E
_SLRCONE                                        (abs)        000F26
_SYSTEM_Initialize                              text1        00113C
_T0CKIPPS                                       (abs)        000E9F
_T0CON0                                         (abs)        000FD4
_T0CON0bits                                     (abs)        000FD4
_T0CON1                                         (abs)        000FD5
_TMR0H                                          (abs)        000FD3
_TMR0L                                          (abs)        000FD2
_TRISA                                          (abs)        000F87
_TRISB                                          (abs)        000F88
_TRISC                                          (abs)        000F89
_TRISD                                          (abs)        000F8A
_TRISE                                          (abs)        000F8B
_Timer0                                         smallconst   000F01
_Timer0_DefaultOverflowCallback                 text12       001194
_Timer0_Initialize                              text2        0010C2
_Timer0_OverflowCallback                        nvCOMRAM     00000A
_Timer0_OverflowCallbackRegister                text3        00115C
_Timer0_OverflowISR                             text11       00101E
_Timer0_Start                                   (abs)        000000
_Timer0_Stop                                    (abs)        000000
_Timer0_UserOverflowCallback                    text13       0010F6
_Timer0_Write                                   (abs)        000000
_WPUA                                           (abs)        000F0B
_WPUB                                           (abs)        000F13
_WPUC                                           (abs)        000F1B
_WPUD                                           (abs)        000F20
_WPUE                                           (abs)        000F28
__HRAM                                          (abs)        000000
__Habs1                                         abs1         000000
__Hbank0                                        bank0        000000
__Hbank1                                        bank1        000000
__Hbank10                                       bank10       000000
__Hbank11                                       bank11       000000
__Hbank12                                       bank12       000000
__Hbank13                                       bank13       000000
__Hbank14                                       bank14       000000
__Hbank2                                        bank2        000000
__Hbank3                                        bank3        000000
__Hbank4                                        bank4        000000
__Hbank5                                        bank5        000000
__Hbank6                                        bank6        000000
__Hbank7                                        bank7        000000
__Hbank8                                        bank8        000000
__Hbank9                                        bank9        000000
__Hbigbss                                       bigbss       000000
__Hbigdata                                      bigdata      000000
__Hbigram                                       bigram       000000
__Hbss                                          bss          000000
__HbssCOMRAM                                    bssCOMRAM    000000
__Hcinit                                        cinit        000000
__Hclrtext                                      clrtext      000000
__Hcomram                                       comram       000000
__Hconfig                                       config       30000C
__Hconst                                        const        000000
__HcstackCOMRAM                                 cstackCOMRAM 000000
__Hdata                                         data         000000
__Heeprom_data                                  eeprom_data  000000
__Hfarbss                                       farbss       000000
__Hfardata                                      fardata      000000
__Hibigdata                                     ibigdata     000000
__Hidata                                        idata        000000
__Hidloc                                        idloc        200100
__Hifardata                                     ifardata     000000
__Hinit                                         init         000A52
__Hintcode                                      intcode      000A4E
__Hintcode_body                                 intcode_body 000000
__Hintcodelo                                    intcodelo    000A4E
__Hintentry                                     intentry     000000
__Hintret                                       intret       000000
__Hintsave_regs                                 intsave_regs 000000
__Hirdata                                       irdata       000000
__Hmediumconst                                  mediumconst  000000
__HnvCOMRAM                                     nvCOMRAM     000000
__HnvFARRAM                                     nvFARRAM     000000
__Hnvbit                                        nvbit        000000
__Hnvrram                                       nvrram       000000
__Hparam                                        rparam       000000
__Hpowerup                                      powerup      000A4E
__Hram                                          ram          000000
__Hramtop                                       ramtop       000F00
__Hrbit                                         rbit         000000
__Hrbss                                         rbss         000000
__Hrdata                                        rdata        000000
__Hreset_vec                                    reset_vec    000A04
__Hrparam                                       rparam       000000
__Hsfr                                          sfr          000000
__Hsmallconst                                   smallconst   000F14
__Hspace_0                                      (abs)        001196
__Hspace_1                                      (abs)        00001C
__Hspace_2                                      (abs)        000000
__Hspace_4                                      (abs)        60000C
__Hstack                                        stack        000000
__Hstruct                                       struct       000000
__Htemp                                         temp         00001C
__Htext                                         text         000000
__Htext0                                        text0        000000
__Htext1                                        text1        000000
__Htext11                                       text11       000000
__Htext12                                       text12       000000
__Htext13                                       text13       000000
__Htext14                                       text14       000000
__Htext2                                        text2        000000
__Htext3                                        text3        000000
__Htext4                                        text4        000000
__Htext5                                        text5        000000
__Htext6                                        text6        000000
__Htext7                                        text7        000000
__Htext8                                        text8        000000
__Htext9                                        text9        000000
__LRAM                                          (abs)        000001
__Labs1                                         abs1         000000
__Lbank0                                        bank0        000000
__Lbank1                                        bank1        000000
__Lbank10                                       bank10       000000
__Lbank11                                       bank11       000000
__Lbank12                                       bank12       000000
__Lbank13                                       bank13       000000
__Lbank14                                       bank14       000000
__Lbank2                                        bank2        000000
__Lbank3                                        bank3        000000
__Lbank4                                        bank4        000000
__Lbank5                                        bank5        000000
__Lbank6                                        bank6        000000
__Lbank7                                        bank7        000000
__Lbank8                                        bank8        000000
__Lbank9                                        bank9        000000
__Lbigbss                                       bigbss       000000
__Lbigdata                                      bigdata      000000
__Lbigram                                       bigram       000000
__Lbss                                          bss          000000
__LbssCOMRAM                                    bssCOMRAM    000000
__Lcinit                                        cinit        000000
__Lclrtext                                      clrtext      000000
__Lcomram                                       comram       000000
__Lconfig                                       config       000000
__Lconst                                        const        000000
__LcstackCOMRAM                                 cstackCOMRAM 000000
__Ldata                                         data         000000
__Leeprom_data                                  eeprom_data  000000
__Lfarbss                                       farbss       000000
__Lfardata                                      fardata      000000
__Libigdata                                     ibigdata     000000
__Lidata                                        idata        000000
__Lidloc                                        idloc        000000
__Lifardata                                     ifardata     000000
__Linit                                         init         000A4E
__Lintcode                                      intcode      000A08
__Lintcode_body                                 intcode_body 000000
__Lintcodelo                                    intcodelo    000A4E
__Lintentry                                     intentry     000000
__Lintret                                       intret       000000
__Lintsave_regs                                 intsave_regs 000000
__Lirdata                                       irdata       000000
__Lmediumconst                                  mediumconst  000000
__LnvCOMRAM                                     nvCOMRAM     000000
__LnvFARRAM                                     nvFARRAM     000000
__Lnvbit                                        nvbit        000000
__Lnvrram                                       nvrram       000000
__Lparam                                        rparam       000000
__Lpowerup                                      powerup      000A4E
__Lram                                          ram          000000
__Lramtop                                       ramtop       000F00
__Lrbit                                         rbit         000000
__Lrbss                                         rbss         000000
__Lrdata                                        rdata        000000
__Lreset_vec                                    reset_vec    000A00
__Lrparam                                       rparam       000000
__Lsfr                                          sfr          000000
__Lsmallconst                                   smallconst   000F00
__Lspace_0                                      (abs)        000000
__Lspace_1                                      (abs)        000000
__Lspace_2                                      (abs)        000000
__Lspace_4                                      (abs)        000000
__Lstack                                        stack        000000
__Lstruct                                       struct       000000
__Ltemp                                         temp         00001B
__Ltext                                         text         000000
__Ltext0                                        text0        000000
__Ltext1                                        text1        000000
__Ltext11                                       text11       000000
__Ltext12                                       text12       000000
__Ltext13                                       text13       000000
__Ltext14                                       text14       000000
__Ltext2                                        text2        000000
__Ltext3                                        text3        000000
__Ltext4                                        text4        000000
__Ltext5                                        text5        000000
__Ltext6                                        text6        000000
__Ltext7                                        text7        000000
__Ltext8                                        text8        000000
__Ltext9                                        text9        000000
__S0                                            (abs)        001196
__S1                                            (abs)        00001C
__S2                                            (abs)        000000
__S4                                            (abs)        000000
__S5                                            (abs)        000000
___inthi_sp                                     stack        000000
___intlo_sp                                     stack        000000
___param_bank                                   (abs)        000000
___rparam_used                                  (abs)        000001
___sp                                           stack        000000
__accesstop                                     (abs)        000060
__activetblptr                                  (abs)        000003
__end_of_CLOCK_Initialize                       text9        00113C
__end_of_INT0_SetInterruptHandler               text8        001194
__end_of_INT1_SetInterruptHandler               text7        001186
__end_of_INT2_SetInterruptHandler               text6        001178
__end_of_INTERRUPT_Initialize                   text5        0010C2
__end_of_INTERRUPT_InterruptManager             intcode      000A4E
__end_of_PIN_MANAGER_Initialize                 text4        000FC0
__end_of_SYSTEM_Initialize                      text1        00114E
__end_of_Timer0                                 smallconst   000F13
__end_of_Timer0_DefaultOverflowCallback         text12       001196
__end_of_Timer0_Initialize                      text2        0010F6
__end_of_Timer0_OverflowCallbackRegister        text3        00116A
__end_of_Timer0_OverflowISR                     text11       00107C
__end_of_Timer0_UserOverflowCallback            text13       00111C
__end_of__initialization                        cinit        001152
__end_of_main                                   text0        00101E
__initialization                                cinit        00114E
__mediumconst                                   mediumconst  000000
__pbssCOMRAM                                    bssCOMRAM    000019
__pcinit                                        cinit        00114E
__pcstackCOMRAM                                 cstackCOMRAM 00000F
__pintcode                                      intcode      000A08
__pnvCOMRAM                                     nvCOMRAM     000001
__psmallconst                                   smallconst   000F00
__ptext0                                        text0        000FC0
__ptext1                                        text1        00113C
__ptext11                                       text11       00101E
__ptext12                                       text12       001194
__ptext13                                       text13       0010F6
__ptext14                                       text14       000000
__ptext2                                        text2        0010C2
__ptext3                                        text3        00115C
__ptext4                                        text4        000F14
__ptext5                                        text5        00107C
__ptext6                                        text6        00116A
__ptext7                                        text7        001178
__ptext8                                        text8        001186
__ptext9                                        text9        00111C
__ramtop                                        ramtop       000F00
__size_of_CLOCK_Initialize                      (abs)        000000
__size_of_INT0_SetInterruptHandler              (abs)        000000
__size_of_INT1_SetInterruptHandler              (abs)        000000
__size_of_INT2_SetInterruptHandler              (abs)        000000
__size_of_INTERRUPT_Initialize                  (abs)        000000
__size_of_INTERRUPT_InterruptManager            (abs)        000000
__size_of_PIN_MANAGER_Initialize                (abs)        000000
__size_of_SYSTEM_Initialize                     (abs)        000000
__size_of_Timer0_DefaultOverflowCallback        (abs)        000000
__size_of_Timer0_Initialize                     (abs)        000000
__size_of_Timer0_OverflowCallbackRegister       (abs)        000000
__size_of_Timer0_OverflowISR                    (abs)        000000
__size_of_Timer0_UserOverflowCallback           (abs)        000000
__size_of_main                                  (abs)        000000
__smallconst                                    smallconst   000F00
_main                                           text0        000FC0
_timerTMR0ReloadVal16bit                        nvCOMRAM     00000D
btemp                                           temp         00001B
end_of_initialization                           cinit        001152
int$flags                                       temp         00001B
intlevel0                                       text         000000
intlevel1                                       text         000000
intlevel2                                       text         000000
intlevel3                                       text         000000
isa$std                                         (abs)        000001
isa$xinst                                       (abs)        000000
stackhi                                         (abs)        000E1E
stacklo                                         (abs)        000060
start                                           init         000A4E
start_initialization                            cinit        00114E
ttemp5                                          temp         00001C
ttemp6                                          temp         00001F
ttemp7                                          temp         000023
wtemp8                                          temp         00001C


MODULE INFORMATION

Module		Function		Class		Link	Load	Size
mcc_generated_files/system/src/interrupt.c
		_INT0_SetInterruptHandler		CODE           	1186	0000	14
		_INT1_SetInterruptHandler		CODE           	1178	0000	14
		_INT2_SetInterruptHandler		CODE           	116A	0000	14
		_INTERRUPT_Initialize		CODE           	107C	0000	70
		_INTERRUPT_InterruptManager		CODE           	0A08	0000	70

mcc_generated_files/system/src/interrupt.c estimated size: 182

mcc_generated_files/system/src/pins.c
		_PIN_MANAGER_Initialize		CODE           	0F14	0000	172

mcc_generated_files/system/src/pins.c estimated size: 172

shared
		__initialization		CODE           	114E	0000	4
		_Timer0        		SMALLCONST     	0F01	0000	18

shared estimated size: 22

mcc_generated_files/system/src/clock.c
		_CLOCK_Initialize		CODE           	111C	0000	32

mcc_generated_files/system/src/clock.c estimated size: 32

mcc_generated_files/timer/src/tmr0.c
		_Timer0_Initialize		CODE           	10C2	0000	52
		_Timer0_OverflowCallbackRegister		CODE           	115C	0000	14
		_Timer0_OverflowISR		CODE           	101E	0000	94
		_Timer0_DefaultOverflowCallback		CODE           	1194	0000	2

mcc_generated_files/timer/src/tmr0.c estimated size: 162

main.c
		_main          		CODE           	0FC0	0000	94
		_Timer0_UserOverflowCallback		CODE           	10F6	0000	38

main.c estimated size: 132

mcc_generated_files/system/src/system.c
		_SYSTEM_Initialize		CODE           	113C	0000	18

mcc_generated_files/system/src/system.c estimated size: 18

