Microchip MPLAB XC8 Compiler V2.32

Linker command line:

-W-3 --edf=C:\Program Files\Microchip\xc8\v2.32\pic\dat\en_msgs.txt \
  -pivt0x8=08h -cn \
  -h+dist/default/production\boot_pic18f57q84.X.production.sym \
  --cmf=dist/default/production\boot_pic18f57q84.X.production.cmf -z \
  -Q18F57Q84 -oC:\Users\A51933\AppData\Local\Temp\xcAsh5s.4 \
  --defsym=__MPLAB_BUILD=1 \
  -Mdist/default/production/boot_pic18f57q84.X.production.map -E1 \
  -ver=XC8 Compiler --acfsm=1493 -ASTACK=0560h-035F6h -pstack=STACK \
  -ACODE=00h-0CFFh -ACONST=00h-0CFFh -ACOMRAM=0501h-055Fh \
  -AABS1=0500h-037FFh -ABIGRAM=0501h-037FFh \
  -ARAM=0560h-05FFh,0600h-06FFhx50 -ABANK5=0560h-05FFh -ABANK6=0600h-06FFh \
  -ABANK7=0700h-07FFh -ABANK8=0800h-08FFh -ABANK9=0900h-09FFh \
  -ABANK10=0A00h-0AFFh -ABANK11=0B00h-0BFFh -ABANK12=0C00h-0CFFh \
  -ABANK13=0D00h-0DFFh -ABANK14=0E00h-0EFFh -ABANK15=0F00h-0FFFh \
  -ABANK16=01000h-010FFh -ABANK17=01100h-011FFh -ABANK18=01200h-012FFh \
  -ABANK19=01300h-013FFh -ABANK20=01400h-014FFh -ABANK21=01500h-015FFh \
  -ABANK22=01600h-016FFh -ABANK23=01700h-017FFh -ABANK24=01800h-018FFh \
  -ABANK25=01900h-019FFh -ABANK26=01A00h-01AFFh -ABANK27=01B00h-01BFFh \
  -ABANK28=01C00h-01CFFh -ABANK29=01D00h-01DFFh -ABANK30=01E00h-01EFFh \
  -ABANK31=01F00h-01FFFh -ABANK32=02000h-020FFh -ABANK33=02100h-021FFh \
  -ABANK34=02200h-022FFh -ABANK35=02300h-023FFh -ABANK36=02400h-024FFh \
  -ABANK37=02500h-025FFh -ABANK38=02600h-026FFh -ABANK39=02700h-027FFh \
  -ABANK40=02800h-028FFh -ABANK41=02900h-029FFh -ABANK42=02A00h-02AFFh \
  -ABANK43=02B00h-02BFFh -ABANK44=02C00h-02CFFh -ABANK45=02D00h-02DFFh \
  -ABANK46=02E00h-02EFFh -ABANK47=02F00h-02FFFh -ABANK48=03000h-030FFh \
  -ABANK49=03100h-031FFh -ABANK50=03200h-032FFh -ABANK51=03300h-033FFh \
  -ABANK52=03400h-034FFh -ABANK53=03500h-035FFh -ABANK54=03600h-036FFh \
  -ABANK55=03700h-037FFh -ASFR=00h-0FFhx4,0400h-045Fh,0460h-04FFh \
  -ACONFIG=0300000h-0300023h -AIDLOC=0200000h-020001Fh \
  -AEEDATA=0380000h-03803FFh -peeprom_data=EEDATA -preset_vec=00h \
  -ppowerup=CODE,init -pramtop=03800h -pconst=CONST -AFARRAM=00h-00h \
  -prdata=COMRAM,nvrram=COMRAM,nvbit=COMRAM,rbss=COMRAM,rbit=COMRAM \
  -pfarbss=FARRAM,fardata=FARRAM,nvFARRAM=FARRAM \
  -pintsave_regs=BIGRAM,bigbss=BIGRAM,bigdata=BIGRAM -pbss=RAM \
  -pidata=CODE,irdata=CODE,ibigdata=CODE,ifardata=CODE -prparam=COMRAM \
  C:\Users\A51933\AppData\Local\Temp\xcAsh5s.o \
  dist/default/production\boot_pic18f57q84.X.production.o 

Object code version is 3.11

Machine type is 18F57Q84



                Name                               Link     Load   Length Selector   Space Scale
C:\Users\A51933\AppData\Local\Temp\xcAsh5s.o
                idloc                            200000   200000       20        0       5
                config                           300000   300000       24        0       4
                init                                10A      10A        4        4       0
                reset_vec                             0        0        4        0       0
dist/default/production\boot_pic18f57q84.X.production.o
                idloc                            200000   200000       20        0       5
                config                           300000   300000       24        0       4
                ivt0x8                                8        8      102        4       0
                text27                              C14      C14        4      305       0
                text26                              5C4      5C4       DE        4       0
                text25                              754      754       9C        4       0
                text24                              BC2      BC2       14        4       0
                text23                              BD6      BD6       12        4       0
                text22                              39E      39E      12A        4       0
                text21                              6A2      6A2       B2        4       0
                text20                              9B6      9B6       72        4       0
                text19                              88A      88A       98        4       0
                text18                              A90      A90       50        4       0
                text17                              10E      10E      15A        4       0
                text16                              4C8      4C8       FC        4       0
                text15                              C1C      C1C        2      305       0
                text14                              C1A      C1A        2      305       0
                text13                              C18      C18        2      305       0
                text12                              7F0      7F0       9A        4       0
                text11                              B94      B94       18        4       0
                text10                              268      268      136        4       0
                text9                               B18      B18       2E        4       0
                text8                               B6E      B6E       26        4       0
                text7                               922      922       94        4       0
                text6                               B46      B46       28        4       0
                text5                               C08      C08        A        4       0
                text4                               BFE      BFE        A        4       0
                text3                               BF4      BF4        A        4       0
                text2                               A28      A28       68        4       0
                text1                               BAC      BAC       16        4       0
                cstackCOMRAM                        502      502       27      502       1
                bssBIGRAMl                         35F7     35F7      109     35F7       1
                bssCOMRAM                           529      529        E      502       1
                cinit                               AE0      AE0       38        4       0
                text0                               BE8      BE8        C        4       0

TOTAL           Name                               Link     Load   Length     Space
        CLASS   STACK          

        CLASS   CODE           
                init                                10A      10A        4         0
                reset_vec                             0        0        4         0
                ivt0x8                                8        8      102         0
                text27                              C14      C14        4         0
                text26                              5C4      5C4       DE         0
                text25                              754      754       9C         0
                text24                              BC2      BC2       14         0
                text23                              BD6      BD6       12         0
                text22                              39E      39E      12A         0
                text21                              6A2      6A2       B2         0
                text20                              9B6      9B6       72         0
                text19                              88A      88A       98         0
                text18                              A90      A90       50         0
                text17                              10E      10E      15A         0
                text16                              4C8      4C8       FC         0
                text15                              C1C      C1C        2         0
                text14                              C1A      C1A        2         0
                text13                              C18      C18        2         0
                text12                              7F0      7F0       9A         0
                text11                              B94      B94       18         0
                text10                              268      268      136         0
                text9                               B18      B18       2E         0
                text8                               B6E      B6E       26         0
                text7                               922      922       94         0
                text6                               B46      B46       28         0
                text5                               C08      C08        A         0
                text4                               BFE      BFE        A         0
                text3                               BF4      BF4        A         0
                text2                               A28      A28       68         0
                text1                               BAC      BAC       16         0
                cinit                               AE0      AE0       38         0
                text0                               BE8      BE8        C         0

        CLASS   CONST          

        CLASS   COMRAM         
                cstackCOMRAM                        502      502       27         1
                bssCOMRAM                           529      529        E         1

        CLASS   ABS1           
                abs_s1                              501      501        1         1
                abs_s1                             3700     3700      100         1

        CLASS   BIGRAM         
                bssBIGRAMl                         35F7     35F7      109         1

        CLASS   RAM            

        CLASS   BANK5          

        CLASS   BANK6          

        CLASS   BANK7          

        CLASS   BANK8          

        CLASS   BANK9          

        CLASS   BANK10         

        CLASS   BANK11         

        CLASS   BANK12         

        CLASS   BANK13         

        CLASS   BANK14         

        CLASS   BANK15         

        CLASS   BANK16         

        CLASS   BANK17         

        CLASS   BANK18         

        CLASS   BANK19         

        CLASS   BANK20         

        CLASS   BANK21         

        CLASS   BANK22         

        CLASS   BANK23         

        CLASS   BANK24         

        CLASS   BANK25         

        CLASS   BANK26         

        CLASS   BANK27         

        CLASS   BANK28         

        CLASS   BANK29         

        CLASS   BANK30         

        CLASS   BANK31         

        CLASS   BANK32         

        CLASS   BANK33         

        CLASS   BANK34         

        CLASS   BANK35         

        CLASS   BANK36         

        CLASS   BANK37         

        CLASS   BANK38         

        CLASS   BANK39         

        CLASS   BANK40         

        CLASS   BANK41         

        CLASS   BANK42         

        CLASS   BANK43         

        CLASS   BANK44         

        CLASS   BANK45         

        CLASS   BANK46         

        CLASS   BANK47         

        CLASS   BANK48         

        CLASS   BANK49         

        CLASS   BANK50         

        CLASS   BANK51         

        CLASS   BANK52         

        CLASS   BANK53         

        CLASS   BANK54         

        CLASS   BANK55         

        CLASS   SFR            

        CLASS   CONFIG         
                config                           300000   300000       24         4

        CLASS   IDLOC          
                idloc                            200000   200000       20         5

        CLASS   EEDATA         

        CLASS   FARRAM         

        CLASS   MEDIUMCONST    

        CLASS   SMALLCONST     



SEGMENTS        Name                           Load    Length   Top    Selector   Space  Class

                reset_vec                      000000  000004  000004         0       0  CODE    
                ivt0x8                         000008  000C0A  000C12         4       0  CODE    
                cstackCOMRAM                   000502  000035  000537       502       1  COMRAM  
                text27                         000C14  00000A  000C1E       305       0  CODE    
                bssBIGRAMl                     0035F7  000109  003700      35F7       1  BIGRAM  


UNUSED ADDRESS RANGES

        Name                Unused          Largest block    Delta
        BANK10           000A00-000AFF              100
        BANK11           000B00-000BFF              100
        BANK12           000C00-000CFF              100
        BANK13           000D00-000DFF              100
        BANK14           000E00-000EFF              100
        BANK15           000F00-000FFF              100
        BANK16           001000-0010FF              100
        BANK17           001100-0011FF              100
        BANK18           001200-0012FF              100
        BANK19           001300-0013FF              100
        BANK20           001400-0014FF              100
        BANK21           001500-0015FF              100
        BANK22           001600-0016FF              100
        BANK23           001700-0017FF              100
        BANK24           001800-0018FF              100
        BANK25           001900-0019FF              100
        BANK26           001A00-001AFF              100
        BANK27           001B00-001BFF              100
        BANK28           001C00-001CFF              100
        BANK29           001D00-001DFF              100
        BANK30           001E00-001EFF              100
        BANK31           001F00-001FFF              100
        BANK32           002000-0020FF              100
        BANK33           002100-0021FF              100
        BANK34           002200-0022FF              100
        BANK35           002300-0023FF              100
        BANK36           002400-0024FF              100
        BANK37           002500-0025FF              100
        BANK38           002600-0026FF              100
        BANK39           002700-0027FF              100
        BANK40           002800-0028FF              100
        BANK41           002900-0029FF              100
        BANK42           002A00-002AFF              100
        BANK43           002B00-002BFF              100
        BANK44           002C00-002CFF              100
        BANK45           002D00-002DFF              100
        BANK46           002E00-002EFF              100
        BANK47           002F00-002FFF              100
        BANK48           003000-0030FF              100
        BANK49           003100-0031FF              100
        BANK5            000560-0005FF               A0
        BANK50           003200-0032FF              100
        BANK51           003300-0033FF              100
        BANK52           003400-0034FF              100
        BANK53           003500-0035F6               F7
        BANK6            000600-0006FF              100
        BANK7            000700-0007FF              100
        BANK8            000800-0008FF              100
        BANK9            000900-0009FF              100
        BIGRAM           000537-0035F6             30C0
        CODE             000004-000007                4
                         000C12-000C13                2
                         000C1E-000CFF               E2
        COMRAM           000537-00055F               29
        CONST            000004-000007                4
                         000C12-000C13                2
                         000C1E-000CFF               E2
        EEDATA           380000-3803FF              400
        RAM              000560-0035F6              100
        SFR              000000-0004FF              100
        STACK            000560-0035F6             3097

                                  Symbol Table

?_Calc_Checksum                               cstackCOMRAM 000502
?_Erase_Flash                                 cstackCOMRAM 000502
?_Get_Version_Data                            cstackCOMRAM 000502
?_ProcessBootBuffer                           cstackCOMRAM 00051E
?_Read_Config                                 cstackCOMRAM 000502
?_Write_Config                                cstackCOMRAM 000502
?_Write_Flash                                 cstackCOMRAM 000507
Bootload_Required@Stored_Checksum             cstackCOMRAM 000511
Bootload_Required@i                           cstackCOMRAM 000513
Calc_Checksum@i                               cstackCOMRAM 000509
Calc_Checksum@length                          cstackCOMRAM 00050D
Erase_Flash@GIEBitValue                       cstackCOMRAM 000519
Erase_Flash@address                           cstackCOMRAM 000513
Erase_Flash@blockStartAddr                    cstackCOMRAM 00051A
Erase_Flash@i                                 cstackCOMRAM 000517
FLASH_ReadPage@GIEBitValue                    cstackCOMRAM 000506
FLASH_ReadPage@flashAddr                      cstackCOMRAM 000502
Get_Version_Data@i                            cstackCOMRAM 000504
IVTBASEH                                      (abs)        00045E
IVTBASEL                                      (abs)        00045D
IVTBASEU                                      (abs)        00045F
ProcessBootBuffer@len                         cstackCOMRAM 000522
Read_Config@i                                 cstackCOMRAM 000508
Run_Bootloader@ch                             cstackCOMRAM 000524
Run_Bootloader@index                          cstackCOMRAM 000527
Run_Bootloader@msg_length                     cstackCOMRAM 000525
UART1_SetErrorHandler@interruptHandler        cstackCOMRAM 000502
UART1_SetFramingErrorHandler@interruptHandler cstackCOMRAM 000502
UART1_SetOverrunErrorHandler@interruptHandler cstackCOMRAM 000502
UART1_Write@txData                            cstackCOMRAM 000502
Write_Config@i                                cstackCOMRAM 000508
Write_Flash@address                           cstackCOMRAM 000518
Write_Flash@i                                 cstackCOMRAM 00051C
_ANSELA                                       (abs)        000400
_ANSELB                                       (abs)        000408
_ANSELC                                       (abs)        000410
_ANSELD                                       (abs)        000418
_ANSELE                                       (abs)        000420
_ANSELF                                       (abs)        000428
_BOOTLOADER_Initialize                        text9        000B18
_BSR                                          (abs)        0004E0
_Bootload_Required                            text25       000754
_Calc_Checksum                                text26       0005C4
_Check_Device_Reset                           text24       000BC2
_EE_Key_1                                     (abs)        000500
_EE_Key_2                                     (abs)        000501
_Erase_Flash                                  text22       00039E
_FLASH_ReadPage                               text18       000A90
_Get_Version_Data                             text21       0006A2
_INLVLA                                       (abs)        000404
_INLVLB                                       (abs)        00040C
_INLVLC                                       (abs)        000414
_INLVLD                                       (abs)        00041C
_INLVLE                                       (abs)        000424
_INLVLF                                       (abs)        00042C
_INTCON0bits                                  (abs)        0004D6
_LATA                                         (abs)        0004BE
_LATB                                         (abs)        0004BF
_LATC                                         (abs)        0004C0
_LATD                                         (abs)        0004C1
_LATE                                         (abs)        0004C2
_LATF                                         (abs)        0004C3
_MEMORY_ISR                                   text27       000C14
_NVMADRH                                      (abs)        000044
_NVMADRL                                      (abs)        000043
_NVMADRU                                      (abs)        000045
_NVMCON0bits                                  (abs)        000040
_NVMCON1                                      (abs)        000041
_NVMCON1bits                                  (abs)        000041
_NVMDATL                                      (abs)        000046
_NVMLOCK                                      (abs)        000042
_ODCONA                                       (abs)        000402
_ODCONB                                       (abs)        00040A
_ODCONC                                       (abs)        000412
_ODCOND                                       (abs)        00041A
_ODCONE                                       (abs)        000422
_ODCONF                                       (abs)        00042A
_OSCCON1                                      (abs)        0000AD
_OSCCON3                                      (abs)        0000AF
_OSCEN                                        (abs)        0000B3
_OSCFRQ                                       (abs)        0000B1
_OSCILLATOR_Initialize                        text8        000B6E
_OSCTUNE                                      (abs)        0000B0
_PFM_Buffer                                   (abs)        003700
_PIN_MANAGER_Initialize                       text7        000922
_PIR15bits                                    (abs)        0004BD
_PIR4bits                                     (abs)        0004B2
_PLLR                                         (abs)        000590
_PMD0                                         (abs)        000060
_PMD1                                         (abs)        000061
_PMD2                                         (abs)        000062
_PMD3                                         (abs)        000063
_PMD4                                         (abs)        000064
_PMD5                                         (abs)        000065
_PMD6                                         (abs)        000066
_PMD7                                         (abs)        000067
_PMD8                                         (abs)        000068
_PMD_Initialize                               text6        000B46
_PORTAbits                                    (abs)        0004CE
_ProcessBootBuffer                            text16       0004C8
_RF0PPS                                       (abs)        000229
_Read_Config                                  text20       0009B6
_Run_Bootloader                               text10       000268
_SLRCONA                                      (abs)        000403
_SLRCONB                                      (abs)        00040B
_SLRCONC                                      (abs)        000413
_SLRCOND                                      (abs)        00041B
_SLRCONE                                      (abs)        000423
_SLRCONF                                      (abs)        00042B
_STKPTR                                       (abs)        0004FC
_SYSTEM_Initialize                            text1        000BAC
_StartWrite                                   text23       000BD6
_TABLAT                                       (abs)        0004F5
_TBLPTR                                       (abs)        0004F6
_TBLPTRH                                      (abs)        0004F7
_TBLPTRL                                      (abs)        0004F6
_TBLPTRU                                      (abs)        0004F8
_TRISA                                        (abs)        0004C6
_TRISB                                        (abs)        0004C7
_TRISC                                        (abs)        0004C8
_TRISD                                        (abs)        0004C9
_TRISE                                        (abs)        0004CA
_TRISF                                        (abs)        0004CB
_U1BRGH                                       (abs)        0002AF
_U1BRGL                                       (abs)        0002AE
_U1CON0                                       (abs)        0002AB
_U1CON0bits                                   (abs)        0002AB
_U1CON1                                       (abs)        0002AC
_U1CON2                                       (abs)        0002AD
_U1ERRIE                                      (abs)        0002B3
_U1ERRIR                                      (abs)        0002B2
_U1ERRIRbits                                  (abs)        0002B2
_U1FIFO                                       (abs)        0002B0
_U1P1H                                        (abs)        0002A6
_U1P1L                                        (abs)        0002A5
_U1P2H                                        (abs)        0002A8
_U1P2L                                        (abs)        0002A7
_U1P3H                                        (abs)        0002AA
_U1P3L                                        (abs)        0002A9
_U1RXB                                        (abs)        0002A1
_U1RXPPS                                      (abs)        000272
_U1TXB                                        (abs)        0002A3
_U1UIR                                        (abs)        0002B1
_UART1_DefaultErrorHandler                    text15       000C1C
_UART1_DefaultFramingErrorHandler             text14       000C1A
_UART1_DefaultOverrunErrorHandler             text13       000C18
_UART1_ErrorHandler                           bssCOMRAM    000529
_UART1_FramingErrorHandler                    bssCOMRAM    00052D
_UART1_Initialize                             text2        000A28
_UART1_OverrunErrorHandler                    bssCOMRAM    00052B
_UART1_Read                                   text12       0007F0
_UART1_SetErrorHandler                        text5        000C08
_UART1_SetFramingErrorHandler                 text4        000BFE
_UART1_SetOverrunErrorHandler                 text3        000BF4
_UART1_Write                                  text11       000B94
_WPUA                                         (abs)        000401
_WPUB                                         (abs)        000409
_WPUC                                         (abs)        000411
_WPUD                                         (abs)        000419
_WPUE                                         (abs)        000421
_WPUF                                         (abs)        000429
_Write_Config                                 text19       00088A
_Write_Flash                                  text17       00010E
__HRAM                                        (abs)        000000
__Habs1                                       abs1         000000
__Hbank10                                     bank10       000000
__Hbank11                                     bank11       000000
__Hbank12                                     bank12       000000
__Hbank13                                     bank13       000000
__Hbank14                                     bank14       000000
__Hbank15                                     bank15       000000
__Hbank16                                     bank16       000000
__Hbank17                                     bank17       000000
__Hbank18                                     bank18       000000
__Hbank19                                     bank19       000000
__Hbank20                                     bank20       000000
__Hbank21                                     bank21       000000
__Hbank22                                     bank22       000000
__Hbank23                                     bank23       000000
__Hbank24                                     bank24       000000
__Hbank25                                     bank25       000000
__Hbank26                                     bank26       000000
__Hbank27                                     bank27       000000
__Hbank28                                     bank28       000000
__Hbank29                                     bank29       000000
__Hbank30                                     bank30       000000
__Hbank31                                     bank31       000000
__Hbank32                                     bank32       000000
__Hbank33                                     bank33       000000
__Hbank34                                     bank34       000000
__Hbank35                                     bank35       000000
__Hbank36                                     bank36       000000
__Hbank37                                     bank37       000000
__Hbank38                                     bank38       000000
__Hbank39                                     bank39       000000
__Hbank40                                     bank40       000000
__Hbank41                                     bank41       000000
__Hbank42                                     bank42       000000
__Hbank43                                     bank43       000000
__Hbank44                                     bank44       000000
__Hbank45                                     bank45       000000
__Hbank46                                     bank46       000000
__Hbank47                                     bank47       000000
__Hbank48                                     bank48       000000
__Hbank49                                     bank49       000000
__Hbank5                                      bank5        000000
__Hbank50                                     bank50       000000
__Hbank51                                     bank51       000000
__Hbank52                                     bank52       000000
__Hbank53                                     bank53       000000
__Hbank54                                     bank54       000000
__Hbank55                                     bank55       000000
__Hbank6                                      bank6        000000
__Hbank7                                      bank7        000000
__Hbank8                                      bank8        000000
__Hbank9                                      bank9        000000
__Hbigbss                                     bigbss       000000
__Hbigdata                                    bigdata      000000
__Hbigram                                     bigram       000000
__Hbss                                        bss          000000
__HbssBIGRAMl                                 bssBIGRAMl   000000
__HbssCOMRAM                                  bssCOMRAM    000000
__Hcinit                                      cinit        000000
__Hclrtext                                    clrtext      000000
__Hcomram                                     comram       000000
__Hconfig                                     config       300024
__Hconst                                      const        000000
__HcstackCOMRAM                               cstackCOMRAM 000000
__Hdata                                       data         000000
__Heeprom_data                                eeprom_data  000000
__Hfarbss                                     farbss       000000
__Hfardata                                    fardata      000000
__Hibigdata                                   ibigdata     000000
__Hidata                                      idata        000000
__Hidloc                                      idloc        200020
__Hifardata                                   ifardata     000000
__Hinit                                       init         00010E
__Hintsave_regs                               intsave_regs 000000
__Hirdata                                     irdata       000000
__Hivt0x8                                     ivt0x8       00010A
__Hmediumconst                                mediumconst  000000
__HnvFARRAM                                   nvFARRAM     000000
__Hnvbit                                      nvbit        000000
__Hnvrram                                     nvrram       000000
__Hparam                                      rparam       000000
__Hpowerup                                    powerup      000000
__Hram                                        ram          000000
__Hramtop                                     ramtop       003800
__Hrbit                                       rbit         000000
__Hrbss                                       rbss         000000
__Hrdata                                      rdata        000000
__Hreset_vec                                  reset_vec    000004
__Hrparam                                     rparam       000000
__Hsfr                                        sfr          000000
__Hsmallconst                                 smallconst   000000
__Hspace_0                                    (abs)        003800
__Hspace_1                                    (abs)        003700
__Hspace_2                                    (abs)        000000
__Hspace_4                                    (abs)        600024
__Hstack                                      stack        000000
__Hstruct                                     struct       000000
__Htemp                                       temp         000000
__Htext                                       text         000000
__Htext0                                      text0        000000
__Htext1                                      text1        000000
__Htext10                                     text10       000000
__Htext11                                     text11       000000
__Htext12                                     text12       000000
__Htext13                                     text13       000000
__Htext14                                     text14       000000
__Htext15                                     text15       000000
__Htext16                                     text16       000000
__Htext17                                     text17       000000
__Htext18                                     text18       000000
__Htext19                                     text19       000000
__Htext2                                      text2        000000
__Htext20                                     text20       000000
__Htext21                                     text21       000000
__Htext22                                     text22       000000
__Htext23                                     text23       000000
__Htext24                                     text24       000000
__Htext25                                     text25       000000
__Htext26                                     text26       000000
__Htext27                                     text27       000000
__Htext28                                     text28       000000
__Htext3                                      text3        000000
__Htext4                                      text4        000000
__Htext5                                      text5        000000
__Htext6                                      text6        000000
__Htext7                                      text7        000000
__Htext8                                      text8        000000
__Htext9                                      text9        000000
__LRAM                                        (abs)        000001
__Labs1                                       abs1         000000
__Lbank10                                     bank10       000000
__Lbank11                                     bank11       000000
__Lbank12                                     bank12       000000
__Lbank13                                     bank13       000000
__Lbank14                                     bank14       000000
__Lbank15                                     bank15       000000
__Lbank16                                     bank16       000000
__Lbank17                                     bank17       000000
__Lbank18                                     bank18       000000
__Lbank19                                     bank19       000000
__Lbank20                                     bank20       000000
__Lbank21                                     bank21       000000
__Lbank22                                     bank22       000000
__Lbank23                                     bank23       000000
__Lbank24                                     bank24       000000
__Lbank25                                     bank25       000000
__Lbank26                                     bank26       000000
__Lbank27                                     bank27       000000
__Lbank28                                     bank28       000000
__Lbank29                                     bank29       000000
__Lbank30                                     bank30       000000
__Lbank31                                     bank31       000000
__Lbank32                                     bank32       000000
__Lbank33                                     bank33       000000
__Lbank34                                     bank34       000000
__Lbank35                                     bank35       000000
__Lbank36                                     bank36       000000
__Lbank37                                     bank37       000000
__Lbank38                                     bank38       000000
__Lbank39                                     bank39       000000
__Lbank40                                     bank40       000000
__Lbank41                                     bank41       000000
__Lbank42                                     bank42       000000
__Lbank43                                     bank43       000000
__Lbank44                                     bank44       000000
__Lbank45                                     bank45       000000
__Lbank46                                     bank46       000000
__Lbank47                                     bank47       000000
__Lbank48                                     bank48       000000
__Lbank49                                     bank49       000000
__Lbank5                                      bank5        000000
__Lbank50                                     bank50       000000
__Lbank51                                     bank51       000000
__Lbank52                                     bank52       000000
__Lbank53                                     bank53       000000
__Lbank54                                     bank54       000000
__Lbank55                                     bank55       000000
__Lbank6                                      bank6        000000
__Lbank7                                      bank7        000000
__Lbank8                                      bank8        000000
__Lbank9                                      bank9        000000
__Lbigbss                                     bigbss       000000
__Lbigdata                                    bigdata      000000
__Lbigram                                     bigram       000000
__Lbss                                        bss          000000
__LbssBIGRAMl                                 bssBIGRAMl   000000
__LbssCOMRAM                                  bssCOMRAM    000000
__Lcinit                                      cinit        000000
__Lclrtext                                    clrtext      000000
__Lcomram                                     comram       000000
__Lconfig                                     config       000000
__Lconst                                      const        000000
__LcstackCOMRAM                               cstackCOMRAM 000000
__Ldata                                       data         000000
__Leeprom_data                                eeprom_data  000000
__Lfarbss                                     farbss       000000
__Lfardata                                    fardata      000000
__Libigdata                                   ibigdata     000000
__Lidata                                      idata        000000
__Lidloc                                      idloc        000000
__Lifardata                                   ifardata     000000
__Linit                                       init         00010A
__Lintsave_regs                               intsave_regs 000000
__Lirdata                                     irdata       000000
__Livt0x8                                     ivt0x8       000008
__Lmediumconst                                mediumconst  000000
__LnvFARRAM                                   nvFARRAM     000000
__Lnvbit                                      nvbit        000000
__Lnvrram                                     nvrram       000000
__Lparam                                      rparam       000000
__Lpowerup                                    powerup      000000
__Lram                                        ram          000000
__Lramtop                                     ramtop       003800
__Lrbit                                       rbit         000000
__Lrbss                                       rbss         000000
__Lrdata                                      rdata        000000
__Lreset_vec                                  reset_vec    000000
__Lrparam                                     rparam       000000
__Lsfr                                        sfr          000000
__Lsmallconst                                 smallconst   000000
__Lspace_0                                    (abs)        000000
__Lspace_1                                    (abs)        000000
__Lspace_2                                    (abs)        000000
__Lspace_4                                    (abs)        000000
__Lstack                                      stack        000000
__Lstruct                                     struct       000000
__Ltemp                                       temp         000000
__Ltext                                       text         000000
__Ltext0                                      text0        000000
__Ltext1                                      text1        000000
__Ltext10                                     text10       000000
__Ltext11                                     text11       000000
__Ltext12                                     text12       000000
__Ltext13                                     text13       000000
__Ltext14                                     text14       000000
__Ltext15                                     text15       000000
__Ltext16                                     text16       000000
__Ltext17                                     text17       000000
__Ltext18                                     text18       000000
__Ltext19                                     text19       000000
__Ltext2                                      text2        000000
__Ltext20                                     text20       000000
__Ltext21                                     text21       000000
__Ltext22                                     text22       000000
__Ltext23                                     text23       000000
__Ltext24                                     text24       000000
__Ltext25                                     text25       000000
__Ltext26                                     text26       000000
__Ltext27                                     text27       000000
__Ltext28                                     text28       000000
__Ltext3                                      text3        000000
__Ltext4                                      text4        000000
__Ltext5                                      text5        000000
__Ltext6                                      text6        000000
__Ltext7                                      text7        000000
__Ltext8                                      text8        000000
__Ltext9                                      text9        000000
__S0                                          (abs)        000C1E
__S1                                          (abs)        003700
__S2                                          (abs)        000000
__S4                                          (abs)        000000
__S5                                          (abs)        000000
___inthi_sp                                   stack        000000
___intlo_sp                                   stack        000000
___param_bank                                 (abs)        000000
___rparam_used                                (abs)        000001
___sp                                         stack        000000
__accesstop                                   (abs)        000560
__activetblptr                                (abs)        000002
__end_of_BOOTLOADER_Initialize                text9        000B46
__end_of_Bootload_Required                    text25       0007F0
__end_of_Calc_Checksum                        text26       0006A2
__end_of_Check_Device_Reset                   text24       000BD6
__end_of_Erase_Flash                          text22       0004C8
__end_of_FLASH_ReadPage                       text18       000AE0
__end_of_Get_Version_Data                     text21       000754
__end_of_MEMORY_ISR                           text27       000C18
__end_of_OSCILLATOR_Initialize                text8        000B94
__end_of_PIN_MANAGER_Initialize               text7        0009B6
__end_of_PMD_Initialize                       text6        000B6E
__end_of_ProcessBootBuffer                    text16       0005C4
__end_of_Read_Config                          text20       000A28
__end_of_Run_Bootloader                       text10       00039E
__end_of_SYSTEM_Initialize                    text1        000BC2
__end_of_StartWrite                           text23       000BE8
__end_of_UART1_DefaultErrorHandler            text15       000C1E
__end_of_UART1_DefaultFramingErrorHandler     text14       000C1C
__end_of_UART1_DefaultOverrunErrorHandler     text13       000C1A
__end_of_UART1_Initialize                     text2        000A90
__end_of_UART1_Read                           text12       00088A
__end_of_UART1_SetErrorHandler                text5        000C12
__end_of_UART1_SetFramingErrorHandler         text4        000C08
__end_of_UART1_SetOverrunErrorHandler         text3        000BFE
__end_of_UART1_Write                          text11       000BAC
__end_of_Write_Config                         text19       000922
__end_of_Write_Flash                          text17       000268
__end_of__initialization                      cinit        000B0E
__end_of_main                                 text0        000BF4
__initialization                              cinit        000AE0
__pbssBIGRAMl                                 bssBIGRAMl   0035F7
__pbssCOMRAM                                  bssCOMRAM    000529
__pcinit                                      cinit        000AE0
__pcstackCOMRAM                               cstackCOMRAM 000502
__pivt0x8                                     ivt0x8       000008
__ptext0                                      text0        000BE8
__ptext1                                      text1        000BAC
__ptext10                                     text10       000268
__ptext11                                     text11       000B94
__ptext12                                     text12       0007F0
__ptext13                                     text13       000C18
__ptext14                                     text14       000C1A
__ptext15                                     text15       000C1C
__ptext16                                     text16       0004C8
__ptext17                                     text17       00010E
__ptext18                                     text18       000A90
__ptext19                                     text19       00088A
__ptext2                                      text2        000A28
__ptext20                                     text20       0009B6
__ptext21                                     text21       0006A2
__ptext22                                     text22       00039E
__ptext23                                     text23       000BD6
__ptext24                                     text24       000BC2
__ptext25                                     text25       000754
__ptext26                                     text26       0005C4
__ptext27                                     text27       000C14
__ptext28                                     text28       000000
__ptext3                                      text3        000BF4
__ptext4                                      text4        000BFE
__ptext5                                      text5        000C08
__ptext6                                      text6        000B46
__ptext7                                      text7        000922
__ptext8                                      text8        000B6E
__ptext9                                      text9        000B18
__ramtop                                      ramtop       003800
__size_of_BOOTLOADER_Initialize               (abs)        000000
__size_of_Bootload_Required                   (abs)        000000
__size_of_Calc_Checksum                       (abs)        000000
__size_of_Check_Device_Reset                  (abs)        000000
__size_of_Erase_Flash                         (abs)        000000
__size_of_FLASH_ReadPage                      (abs)        000000
__size_of_Get_Version_Data                    (abs)        000000
__size_of_MEMORY_ISR                          (abs)        000000
__size_of_OSCILLATOR_Initialize               (abs)        000000
__size_of_PIN_MANAGER_Initialize              (abs)        000000
__size_of_PMD_Initialize                      (abs)        000000
__size_of_ProcessBootBuffer                   (abs)        000000
__size_of_Read_Config                         (abs)        000000
__size_of_Run_Bootloader                      (abs)        000000
__size_of_SYSTEM_Initialize                   (abs)        000000
__size_of_StartWrite                          (abs)        000000
__size_of_UART1_DefaultErrorHandler           (abs)        000000
__size_of_UART1_DefaultFramingErrorHandler    (abs)        000000
__size_of_UART1_DefaultOverrunErrorHandler    (abs)        000000
__size_of_UART1_Initialize                    (abs)        000000
__size_of_UART1_Read                          (abs)        000000
__size_of_UART1_SetErrorHandler               (abs)        000000
__size_of_UART1_SetFramingErrorHandler        (abs)        000000
__size_of_UART1_SetOverrunErrorHandler        (abs)        000000
__size_of_UART1_Write                         (abs)        000000
__size_of_Write_Config                        (abs)        000000
__size_of_Write_Flash                         (abs)        000000
__size_of_main                                (abs)        000000
_bufferRAM                                    (abs)        003700
_check_sum                                    bssCOMRAM    000531
_counter                                      bssCOMRAM    00052F
_frame                                        bssBIGRAMl   0035F7
_main                                         text0        000BE8
_reset_pending                                bssCOMRAM    000534
_rx_data                                      bssCOMRAM    000536
_tx_data                                      bssCOMRAM    000535
_uart1RxLastError                             bssCOMRAM    000533
end_of_initialization                         cinit        000B0E
intlevel0                                     text         000000
intlevel1                                     text         000000
intlevel2                                     text         000000
intlevel3                                     text         000000
isa$std                                       (abs)        000001
isa$xinst                                     (abs)        000000
ivt0x8_base                                   ivt0x8       000008
ivt0x8_undefint                               ivt0x8       000108
stackhi                                       (abs)        0035F6
stacklo                                       (abs)        000560
start                                         init         00010A
start_initialization                          cinit        000AE0


MODULE INFORMATION

Module		Function		Class		Link	Load	Size
mcc_generated_files/pin_manager.c
		_PIN_MANAGER_Initialize		CODE           	0922	0000	148

mcc_generated_files/pin_manager.c estimated size: 148

mcc_generated_files/pic18f_uart.c
		_Run_Bootloader		CODE           	0268	0000	310

mcc_generated_files/pic18f_uart.c estimated size: 310

mcc_generated_files/uart1.c
		_UART1_Write   		CODE           	0B94	0000	24
		_UART1_SetFramingErrorHandler		CODE           	0BFE	0000	10
		_UART1_SetOverrunErrorHandler		CODE           	0BF4	0000	10
		_UART1_Initialize		CODE           	0A28	0000	104
		_UART1_SetErrorHandler		CODE           	0C08	0000	10
		_UART1_Read    		CODE           	07F0	0000	154
		_UART1_DefaultFramingErrorHandler		CODE           	0C1A	0000	2
		_UART1_DefaultErrorHandler		CODE           	0C1C	0000	2
		_UART1_DefaultOverrunErrorHandler		CODE           	0C18	0000	2

mcc_generated_files/uart1.c estimated size: 318

shared
		__initialization		CODE           	0AE0	0000	46

shared estimated size: 46

mcc_generated_files/mcc.c
		_PMD_Initialize		CODE           	0B46	0000	40
		_OSCILLATOR_Initialize		CODE           	0B6E	0000	38
		_SYSTEM_Initialize		CODE           	0BAC	0000	22

mcc_generated_files/mcc.c estimated size: 100

mcc_generated_files/pic18f_bootload.c
		_ProcessBootBuffer		CODE           	04C8	0000	252
		_Calc_Checksum 		CODE           	05C4	0000	222
		_Write_Config  		CODE           	088A	0000	152
		_Write_Flash   		CODE           	010E	0000	346
		_Get_Version_Data		CODE           	06A2	0000	178
		_Check_Device_Reset		CODE           	0BC2	0000	20
		_Erase_Flash   		CODE           	039E	0000	298
		_Bootload_Required		CODE           	0754	0000	156
		_Read_Config   		CODE           	09B6	0000	114
		_StartWrite    		CODE           	0BD6	0000	18
		_BOOTLOADER_Initialize		CODE           	0B18	0000	46

mcc_generated_files/pic18f_bootload.c estimated size: 1802

mcc_generated_files/memory.c
		_FLASH_ReadPage		CODE           	0A90	0000	80
		_MEMORY_ISR    		CODE           	0C14	0000	4

mcc_generated_files/memory.c estimated size: 84

main.c
		_main          		CODE           	0BE8	0000	12

main.c estimated size: 12

