

Microchip MPLAB XC8 Assembler V2.32 build 20210201212658 
                                                                                               Mon Aug 23 10:02:29 2021

Microchip MPLAB XC8 C Compiler v2.32 (Free license) build 20210201212658 Og1 
     1                           	processor	18F57Q84
     2                           	fnconf	rparam,??,?,0
     3                           	pagewidth 120
     4                           	opt	flic
     5                           	psect	text0,global,reloc=4,class=CODE,delta=1
     6                           	psect	cinit,global,reloc=2,class=CODE,delta=1
     7                           	psect	bssCOMRAM,global,class=COMRAM,space=1,delta=1,lowdata,noexec
     8                           	psect	bssBIGRAMl,global,class=BIGRAM,space=1,delta=1,noexec
     9                           	psect	cstackCOMRAM,global,class=COMRAM,space=1,delta=1,lowdata,noexec
    10                           	psect	text1,global,reloc=2,class=CODE,delta=1
    11                           	psect	text2,global,reloc=2,class=CODE,delta=1
    12                           	psect	text3,global,reloc=2,class=CODE,delta=1
    13                           	psect	text4,global,reloc=2,class=CODE,delta=1
    14                           	psect	text5,global,reloc=2,class=CODE,delta=1
    15                           	psect	text6,global,reloc=2,class=CODE,delta=1
    16                           	psect	text7,global,reloc=2,class=CODE,delta=1
    17                           	psect	text8,global,reloc=2,class=CODE,delta=1
    18                           	psect	text9,global,reloc=2,class=CODE,delta=1
    19                           	psect	text10,global,reloc=2,class=CODE,delta=1
    20                           	psect	text11,global,reloc=2,class=CODE,delta=1
    21                           	psect	text12,global,reloc=2,class=CODE,delta=1
    22                           	psect	text13,global,reloc=2,class=CODE,delta=1
    23                           	psect	text14,global,reloc=2,class=CODE,delta=1
    24                           	psect	text15,global,reloc=2,class=CODE,delta=1
    25                           	psect	text16,global,reloc=2,class=CODE,delta=1
    26                           	psect	text17,global,reloc=2,class=CODE,delta=1
    27                           	psect	text18,global,reloc=2,class=CODE,delta=1
    28                           	psect	text19,global,reloc=2,class=CODE,delta=1
    29                           	psect	text20,global,reloc=2,class=CODE,delta=1
    30                           	psect	text21,global,reloc=2,class=CODE,delta=1
    31                           	psect	text22,global,reloc=2,class=CODE,delta=1
    32                           	psect	text23,global,reloc=2,class=CODE,delta=1
    33                           	psect	text24,global,reloc=2,class=CODE,delta=1
    34                           	psect	text25,global,reloc=2,class=CODE,delta=1
    35                           	psect	text26,global,reloc=2,class=CODE,delta=1
    36                           	psect	text27,global,reloc=4,class=CODE,delta=1
    37                           	psect	ivt0x8,global,reloc=2,class=CODE,delta=1,noexec,keep,optim=
    38                           	psect	intsave_regs,global,class=BIGRAM,space=1,delta=1,noexec
    39                           	psect	text28,global,reloc=4,class=CODE,delta=1
    40                           	psect	rparam,global,class=COMRAM,space=1,delta=1,noexec
    41                           	psect	idloc,global,abs,ovrld,class=IDLOC,space=5,delta=1,noexec
    42                           	psect	config,global,abs,ovrld,class=CONFIG,space=4,delta=1,noexec
    43                           	dabs	1,0x3700,256,_PFM_Buffer
    44                           	dabs	1,0x501,1,_EE_Key_2
    45                           	dabs	1,0x3700,2,_bufferRAM
    46  0000                     
    47                           ; Version 2.35
    48                           ; Generated 04/06/2021 GMT
    49                           ; 
    50                           ; Copyright © 2021, Microchip Technology Inc. and its subsidiaries ("Microchip")
    51                           ; All rights reserved.
    52                           ; 
    53                           ; This software is developed by Microchip Technology Inc. and its subsidiaries ("Microch
      +                          ip").
    54                           ; 
    55                           ; Redistribution and use in source and binary forms, with or without modification, are
    56                           ; permitted provided that the following conditions are met:
    57                           ; 
    58                           ;     1. Redistributions of source code must retain the above copyright notice, this lis
      +                          t of
    59                           ;        conditions and the following disclaimer.
    60                           ; 
    61                           ;     2. Redistributions in binary form must reproduce the above copyright notice, this 
      +                          list
    62                           ;        of conditions and the following disclaimer in the documentation and/or other
    63                           ;        materials provided with the distribution. Publication is not required when
    64                           ;        this file is used in an embedded application.
    65                           ; 
    66                           ;     3. Microchip's name may not be used to endorse or promote products derived from th
      +                          is
    67                           ;        software without specific prior written permission.
    68                           ; 
    69                           ; THIS SOFTWARE IS PROVIDED BY MICROCHIP "AS IS" AND ANY EXPRESS OR IMPLIED WARRANTIES,
    70                           ; INCLUDING, BUT NOT LIMITED TO, THE IMPLIED WARRANTIES OF MERCHANTABILITY AND FITNESS F
      +                          OR
    71                           ; PURPOSE ARE DISCLAIMED.  IN NO EVENT SHALL MICROCHIP BE LIABLE FOR ANY DIRECT, INDIREC
      +                          T,
    72                           ; INCIDENTAL, SPECIAL, EXEMPLARY, OR CONSEQUENTIAL DAMAGES (INCLUDING BUT NOT LIMITED TO
    73                           ; PROCUREMENT OF SUBSTITUTE GOODS OR SERVICES; LOSS OF USE, DATA OR PROFITS; OR BUSINESS
    74                           ; INTERRUPTION) HOWSOEVER CAUSED AND ON ANY THEORY OF LIABILITY, WHETHER IN CONTRACT, ST
      +                          RICT
    75                           ; LIABILITY, OR TORT (INCLUDING NEGLIGENCE OR OTHERWISE) ARISING IN ANY WAY OUT OF THE U
      +                          SE OF
    76                           ; THIS SOFTWARE, EVEN IF ADVISED OF THE POSSIBILITY OF SUCH DAMAGE.
    77                           ; 
    78                           ; 
    79                           ; Code-generator required, PIC18F57Q84 Definitions
    80                           ; 
    81                           ; SFR Addresses
    82  0000                     
    83                           ; 1 bytes @ 0x27
    84 ;;
    85 ;;Main: autosize = 0, tempsize = 0, incstack = 0, save=0
    86 ;;
    87 ;; *************** function _main *****************
    88 ;; Defined at:
    89 ;;		line 49 in file "main.c"
    90 ;; Parameters:    Size  Location     Type
    91 ;;		None
    92 ;; Auto vars:     Size  Location     Type
    93 ;;		None
    94 ;; Return value:  Size  Location     Type
    95 ;;                  1    wreg      void 
    96 ;; Registers used:
    97 ;;		wreg, fsr1l, fsr1h, fsr2l, fsr2h, status,2, status,0, pclath, tosl, cstack
    98 ;; Tracked objects:
    99 ;;		On entry : 0/0
   100 ;;		On exit  : 0/0
   101 ;;		Unchanged: 0/0
   102 ;; Data sizes:     COMRAM   BANK5   BANK6   BANK7   BANK8   BANK9  BANK10  BANK11  BANK12  BANK13  BANK14  BANK15  BANK1
      +6  BANK17  BANK18  BANK19  BANK20  BANK21  BANK22  BANK23  BANK24  BANK25  BANK26  BANK27  BANK28  BANK29  BANK30  BANK3
      +1  BANK32  BANK33  BANK34  BANK35  BANK36  BANK37  BANK38  BANK39  BANK40  BANK41  BANK42  BANK43  BANK44  BANK45  BANK4
      +6  BANK47  BANK48  BANK49  BANK50  BANK51  BANK52  BANK53  BANK54
   103 ;;      Params:         0       0       0       0       0       0       0       0       0       0       0       0       
      +0       0       0       0       0       0       0       0       0       0       0       0       0       0       0       
      +0       0       0       0       0       0       0       0       0       0       0       0       0       0       0       
      +0       0       0       0       0       0       0       0       0
   104 ;;      Locals:         0       0       0       0       0       0       0       0       0       0       0       0       
      +0       0       0       0       0       0       0       0       0       0       0       0       0       0       0       
      +0       0       0       0       0       0       0       0       0       0       0       0       0       0       0       
      +0       0       0       0       0       0       0       0       0
   105 ;;      Temps:          0       0       0       0       0       0       0       0       0       0       0       0       
      +0       0       0       0       0       0       0       0       0       0       0       0       0       0       0       
      +0       0       0       0       0       0       0       0       0       0       0       0       0       0       0       
      +0       0       0       0       0       0       0       0       0
   106 ;;      Totals:         0       0       0       0       0       0       0       0       0       0       0       0       
      +0       0       0       0       0       0       0       0       0       0       0       0       0       0       0       
      +0       0       0       0       0       0       0       0       0       0       0       0       0       0       0       
      +0       0       0       0       0       0       0       0       0
   107 ;;Total ram usage:        0 bytes
   108 ;; Hardware stack levels required when called: 7
   109 ;; This function calls:
   110 ;;		_SYSTEM_Initialize
   111 ;; This function is called by:
   112 ;;		Startup code after reset
   113 ;; This function uses a non-reentrant model
   114 ;;
   115                           
   116                           	psect	text0
   117  000BE8                     __ptext0:
   118                           	callstack 0
   119  0000                     _PMD8	set	104
   120  0000                     _PMD7	set	103
   121  0000                     _PMD6	set	102
   122  0000                     _PMD5	set	101
   123  0000                     _PMD4	set	100
   124  0000                     _PMD3	set	99
   125  0000                     _PMD2	set	98
   126  0000                     _PMD1	set	97
   127  0000                     _PMD0	set	96
   128  0000                     _OSCTUNE	set	176
   129  0000                     _OSCFRQ	set	177
   130  0000                     _OSCEN	set	179
   131  0000                     _OSCCON3	set	175
   132  0000                     _OSCCON1	set	173
   133  0000                     _NVMCON1	set	65
   134  0000                     _NVMDATL	set	70
   135  0000                     _NVMCON0bits	set	64
   136  0000                     _NVMLOCK	set	66
   137  0000                     _NVMCON1bits	set	65
   138  0000                     _NVMADRL	set	67
   139  0000                     _NVMADRH	set	68
   140  0000                     _NVMADRU	set	69
   141  0000                     _PLLR	set	1424
   142  0000                     _U1TXB	set	675
   143  0000                     _U1RXB	set	673
   144  0000                     _U1ERRIE	set	691
   145  0000                     _U1ERRIR	set	690
   146  0000                     _U1UIR	set	689
   147  0000                     _U1FIFO	set	688
   148  0000                     _U1BRGH	set	687
   149  0000                     _U1BRGL	set	686
   150  0000                     _U1CON2	set	685
   151  0000                     _U1CON1	set	684
   152  0000                     _U1CON0	set	683
   153  0000                     _U1P3H	set	682
   154  0000                     _U1P3L	set	681
   155  0000                     _U1P2H	set	680
   156  0000                     _U1P2L	set	679
   157  0000                     _U1P1H	set	678
   158  0000                     _U1P1L	set	677
   159  0000                     _U1RXPPS	set	626
   160  0000                     _RF0PPS	set	553
   161  0000                     _U1CON0bits	set	683
   162  0000                     _U1ERRIRbits	set	690
   163  0000                     _INLVLF	set	1068
   164  0000                     _INLVLE	set	1060
   165  0000                     _INLVLD	set	1052
   166  0000                     _INLVLC	set	1044
   167  0000                     _INLVLB	set	1036
   168  0000                     _INLVLA	set	1028
   169  0000                     _SLRCONF	set	1067
   170  0000                     _SLRCONE	set	1059
   171  0000                     _SLRCOND	set	1051
   172  0000                     _SLRCONC	set	1043
   173  0000                     _SLRCONB	set	1035
   174  0000                     _SLRCONA	set	1027
   175  0000                     _ODCOND	set	1050
   176  0000                     _ODCONC	set	1042
   177  0000                     _ODCONB	set	1034
   178  0000                     _ODCONA	set	1026
   179  0000                     _ODCONF	set	1066
   180  0000                     _ODCONE	set	1058
   181  0000                     _WPUC	set	1041
   182  0000                     _WPUA	set	1025
   183  0000                     _WPUB	set	1033
   184  0000                     _WPUE	set	1057
   185  0000                     _WPUF	set	1065
   186  0000                     _WPUD	set	1049
   187  0000                     _ANSELA	set	1024
   188  0000                     _ANSELF	set	1064
   189  0000                     _ANSELE	set	1056
   190  0000                     _ANSELB	set	1032
   191  0000                     _ANSELC	set	1040
   192  0000                     _ANSELD	set	1048
   193  0000                     _TBLPTR	set	1270
   194  0000                     _PIR4bits	set	1202
   195  0000                     _TRISD	set	1225
   196  0000                     _TRISC	set	1224
   197  0000                     _TRISB	set	1223
   198  0000                     _TRISA	set	1222
   199  0000                     _TRISF	set	1227
   200  0000                     _TRISE	set	1226
   201  0000                     _LATC	set	1216
   202  0000                     _LATB	set	1215
   203  0000                     _LATF	set	1219
   204  0000                     _LATA	set	1214
   205  0000                     _LATD	set	1217
   206  0000                     _LATE	set	1218
   207  0000                     _PORTAbits	set	1230
   208  0000                     _BSR	set	1248
   209  0000                     _STKPTR	set	1276
   210  0000                     _PIR15bits	set	1213
   211  0000                     _INTCON0bits	set	1238
   212  0000                     _TABLAT	set	1269
   213  0000                     _TBLPTRL	set	1270
   214  0000                     _TBLPTRH	set	1271
   215  0000                     _TBLPTRU	set	1272
   216  000BE8                     _main:
   217                           	callstack 120
   218  000BE8                     
   219                           ;main.c: 52:     SYSTEM_Initialize();
   220  000BE8  ECD6  F005         	call	_SYSTEM_Initialize	;wreg free
   221  000BEC                     l519:
   222  000BEC  EFF6  F005         	goto	l519
   223  000BF0  EF85  F000         	goto	start
   224  000BF4                     __end_of_main:
   225                           	callstack 0
   226                           
   227                           ; #config settings
   228                           
   229                           	psect	cinit
   230  000AE0                     __pcinit:
   231                           	callstack 0
   232  000AE0                     start_initialization:
   233                           	callstack 0
   234  000AE0                     __initialization:
   235                           	callstack 0
   236                           
   237                           ; Clear objects allocated to BIGRAMl (265 bytes)
   238  000AE0  EE0D  F1F7         	lfsr	0,__pbssBIGRAMl
   239  000AE4  EE10 F109          	lfsr	1,265
   240  000AE8                     clear_0:
   241  000AE8  6AEE               	clrf	postinc0,c
   242  000AEA  50E5               	movf	postdec1,w,c
   243  000AEC  50E1               	movf	fsr1l,w,c
   244  000AEE  E1FC               	bnz	clear_0
   245  000AF0  50E2               	movf	fsr1h,w,c
   246  000AF2  E1FA               	bnz	clear_0
   247                           
   248                           ; Clear objects allocated to COMRAM (14 bytes)
   249  000AF4  EE01  F129         	lfsr	0,__pbssCOMRAM
   250  000AF8  0E0E               	movlw	14
   251  000AFA                     clear_1:
   252  000AFA  6AEE               	clrf	postinc0,c
   253  000AFC  06E8               	decf	wreg,f,c
   254  000AFE  E1FD               	bnz	clear_1
   255                           
   256                           ;
   257                           ; Setup IVTBASE
   258                           ;
   259  000B00  0104               	movlb	4
   260  000B02  0E08               	movlw	(ivt0x8_base shr 0)& (0+255)
   261  000B04  6F5D               	movwf	93,b
   262  000B06  0E00               	movlw	(ivt0x8_base shr (0+8))& (0+255)
   263  000B08  6F5E               	movwf	94,b
   264  000B0A  0E00               	movlw	(ivt0x8_base shr (0+16))& (0+255)
   265  000B0C  6F5F               	movwf	95,b
   266  000B0E                     end_of_initialization:
   267                           	callstack 0
   268  000B0E                     __end_of__initialization:
   269                           	callstack 0
   270  000B0E  0E00               	movlw	low (__Lmediumconst shr (0+16))
   271  000B10  6EF8               	movwf	tblptru,c
   272  000B12  0100               	movlb	0
   273  000B14  EFF4  F005         	goto	_main	;jump to C main() function
   274                           
   275                           	psect	bssCOMRAM
   276  000529                     __pbssCOMRAM:
   277                           	callstack 0
   278  000529                     _UART1_ErrorHandler:
   279                           	callstack 0
   280  000529                     	ds	2
   281  00052B                     _UART1_OverrunErrorHandler:
   282                           	callstack 0
   283  00052B                     	ds	2
   284  00052D                     _UART1_FramingErrorHandler:
   285                           	callstack 0
   286  00052D                     	ds	2
   287  00052F                     _counter:
   288                           	callstack 0
   289  00052F                     	ds	2
   290  000531                     _check_sum:
   291                           	callstack 0
   292  000531                     	ds	2
   293  000533                     _uart1RxLastError:
   294                           	callstack 0
   295  000533                     	ds	1
   296  000534                     _reset_pending:
   297                           	callstack 0
   298  000534                     	ds	1
   299  000535                     _tx_data:
   300                           	callstack 0
   301  000535                     	ds	1
   302  000536                     _rx_data:
   303                           	callstack 0
   304  000536                     	ds	1
   305                           
   306                           	psect	bssBIGRAMl
   307  0035F7                     __pbssBIGRAMl:
   308                           	callstack 0
   309  0035F7                     _frame:
   310                           	callstack 0
   311  0035F7                     	ds	265
   312                           
   313                           	psect	cstackCOMRAM
   314  000502                     __pcstackCOMRAM:
   315                           	callstack 0
   316  000502                     ?_Calc_Checksum:
   317                           	callstack 0
   318  000502                     ?_Get_Version_Data:
   319                           	callstack 0
   320  000502                     ?_Erase_Flash:
   321                           	callstack 0
   322  000502                     ?_Read_Config:
   323                           	callstack 0
   324  000502                     ?_Write_Config:
   325                           	callstack 0
   326  000502                     UART1_Write@txData:
   327                           	callstack 0
   328  000502                     UART1_SetFramingErrorHandler@interruptHandler:
   329                           	callstack 0
   330  000502                     UART1_SetOverrunErrorHandler@interruptHandler:
   331                           	callstack 0
   332  000502                     UART1_SetErrorHandler@interruptHandler:
   333                           	callstack 0
   334  000502                     FLASH_ReadPage@flashAddr:
   335                           	callstack 0
   336                           
   337                           ; 4 bytes @ 0x0
   338  000502                     	ds	2
   339  000504                     ??_Calc_Checksum:
   340  000504                     ??_Erase_Flash:
   341  000504                     ??_Read_Config:
   342  000504                     ??_Write_Config:
   343  000504                     Get_Version_Data@i:
   344                           	callstack 0
   345                           
   346                           ; 1 bytes @ 0x2
   347  000504                     	ds	2
   348  000506                     FLASH_ReadPage@GIEBitValue:
   349                           	callstack 0
   350                           
   351                           ; 1 bytes @ 0x4
   352  000506                     	ds	1
   353  000507                     ?_Write_Flash:
   354                           	callstack 0
   355                           
   356                           ; 2 bytes @ 0x5
   357  000507                     	ds	1
   358  000508                     Read_Config@i:
   359                           	callstack 0
   360  000508                     Write_Config@i:
   361                           	callstack 0
   362                           
   363                           ; 1 bytes @ 0x6
   364  000508                     	ds	1
   365  000509                     ??_Write_Flash:
   366  000509                     Calc_Checksum@i:
   367                           	callstack 0
   368                           
   369                           ; 4 bytes @ 0x7
   370  000509                     	ds	4
   371  00050D                     Calc_Checksum@length:
   372                           	callstack 0
   373                           
   374                           ; 4 bytes @ 0xB
   375  00050D                     	ds	4
   376  000511                     Bootload_Required@Stored_Checksum:
   377                           	callstack 0
   378                           
   379                           ; 2 bytes @ 0xF
   380  000511                     	ds	2
   381  000513                     Bootload_Required@i:
   382                           	callstack 0
   383  000513                     Erase_Flash@address:
   384                           	callstack 0
   385                           
   386                           ; 4 bytes @ 0x11
   387  000513                     	ds	4
   388  000517                     Erase_Flash@i:
   389                           	callstack 0
   390                           
   391                           ; 2 bytes @ 0x15
   392  000517                     	ds	1
   393  000518                     Write_Flash@address:
   394                           	callstack 0
   395                           
   396                           ; 4 bytes @ 0x16
   397  000518                     	ds	1
   398  000519                     Erase_Flash@GIEBitValue:
   399                           	callstack 0
   400                           
   401                           ; 1 bytes @ 0x17
   402  000519                     	ds	1
   403  00051A                     Erase_Flash@blockStartAddr:
   404                           	callstack 0
   405                           
   406                           ; 4 bytes @ 0x18
   407  00051A                     	ds	2
   408  00051C                     Write_Flash@i:
   409                           	callstack 0
   410                           
   411                           ; 2 bytes @ 0x1A
   412  00051C                     	ds	2
   413  00051E                     ?_ProcessBootBuffer:
   414                           	callstack 0
   415                           
   416                           ; 2 bytes @ 0x1C
   417  00051E                     	ds	2
   418  000520                     ??_ProcessBootBuffer:
   419                           
   420                           ; 1 bytes @ 0x1E
   421  000520                     	ds	2
   422  000522                     ProcessBootBuffer@len:
   423                           	callstack 0
   424                           
   425                           ; 2 bytes @ 0x20
   426  000522                     	ds	2
   427  000524                     Run_Bootloader@ch:
   428                           	callstack 0
   429                           
   430                           ; 1 bytes @ 0x22
   431  000524                     	ds	1
   432  000525                     Run_Bootloader@msg_length:
   433                           	callstack 0
   434                           
   435                           ; 2 bytes @ 0x23
   436  000525                     	ds	2
   437  000527                     Run_Bootloader@index:
   438                           	callstack 0
   439                           
   440                           ; 2 bytes @ 0x25
   441  000527                     	ds	2
   442  000529                     
   443 ;; *************** function _SYSTEM_Initialize *****************
   444 ;; Defined at:
   445 ;;		line 50 in file "mcc_generated_files/mcc.c"
   446 ;; Parameters:    Size  Location     Type
   447 ;;		None
   448 ;; Auto vars:     Size  Location     Type
   449 ;;		None
   450 ;; Return value:  Size  Location     Type
   451 ;;                  1    wreg      void 
   452 ;; Registers used:
   453 ;;		wreg, fsr1l, fsr1h, fsr2l, fsr2h, status,2, status,0, pclath, tosl, cstack
   454 ;; Tracked objects:
   455 ;;		On entry : 0/0
   456 ;;		On exit  : 0/0
   457 ;;		Unchanged: 0/0
   458 ;; Data sizes:     COMRAM   BANK5   BANK6   BANK7   BANK8   BANK9  BANK10  BANK11  BANK12  BANK13  BANK14  BANK15  BANK1
      +6  BANK17  BANK18  BANK19  BANK20  BANK21  BANK22  BANK23  BANK24  BANK25  BANK26  BANK27  BANK28  BANK29  BANK30  BANK3
      +1  BANK32  BANK33  BANK34  BANK35  BANK36  BANK37  BANK38  BANK39  BANK40  BANK41  BANK42  BANK43  BANK44  BANK45  BANK4
      +6  BANK47  BANK48  BANK49  BANK50  BANK51  BANK52  BANK53  BANK54
   459 ;;      Params:         0       0       0       0       0       0       0       0       0       0       0       0       
      +0       0       0       0       0       0       0       0       0       0       0       0       0       0       0       
      +0       0       0       0       0       0       0       0       0       0       0       0       0       0       0       
      +0       0       0       0       0       0       0       0       0
   460 ;;      Locals:         0       0       0       0       0       0       0       0       0       0       0       0       
      +0       0       0       0       0       0       0       0       0       0       0       0       0       0       0       
      +0       0       0       0       0       0       0       0       0       0       0       0       0       0       0       
      +0       0       0       0       0       0       0       0       0
   461 ;;      Temps:          0       0       0       0       0       0       0       0       0       0       0       0       
      +0       0       0       0       0       0       0       0       0       0       0       0       0       0       0       
      +0       0       0       0       0       0       0       0       0       0       0       0       0       0       0       
      +0       0       0       0       0       0       0       0       0
   462 ;;      Totals:         0       0       0       0       0       0       0       0       0       0       0       0       
      +0       0       0       0       0       0       0       0       0       0       0       0       0       0       0       
      +0       0       0       0       0       0       0       0       0       0       0       0       0       0       0       
      +0       0       0       0       0       0       0       0       0
   463 ;;Total ram usage:        0 bytes
   464 ;; Hardware stack levels used: 1
   465 ;; Hardware stack levels required when called: 6
   466 ;; This function calls:
   467 ;;		_BOOTLOADER_Initialize
   468 ;;		_OSCILLATOR_Initialize
   469 ;;		_PIN_MANAGER_Initialize
   470 ;;		_PMD_Initialize
   471 ;;		_UART1_Initialize
   472 ;; This function is called by:
   473 ;;		_main
   474 ;; This function uses a non-reentrant model
   475 ;;
   476                           
   477                           	psect	text1
   478  000BAC                     __ptext1:
   479                           	callstack 0
   480  000BAC                     _SYSTEM_Initialize:
   481                           	callstack 120
   482  000BAC                     
   483                           ;mcc_generated_files/mcc.c: 52:     PMD_Initialize();
   484  000BAC  ECA3  F005         	call	_PMD_Initialize	;wreg free
   485                           
   486                           ;mcc_generated_files/mcc.c: 53:     PIN_MANAGER_Initialize();
   487  000BB0  EC91  F004         	call	_PIN_MANAGER_Initialize	;wreg free
   488                           
   489                           ;mcc_generated_files/mcc.c: 54:     OSCILLATOR_Initialize();
   490  000BB4  ECB7  F005         	call	_OSCILLATOR_Initialize	;wreg free
   491  000BB8                     
   492                           ;mcc_generated_files/mcc.c: 55:     UART1_Initialize();
   493  000BB8  EC14  F005         	call	_UART1_Initialize	;wreg free
   494  000BBC                     
   495                           ;mcc_generated_files/mcc.c: 56:     BOOTLOADER_Initialize();
   496  000BBC  EC8C  F005         	call	_BOOTLOADER_Initialize	;wreg free
   497  000BC0  0012               	return		;funcret
   498  000BC2                     __end_of_SYSTEM_Initialize:
   499                           	callstack 0
   500                           
   501 ;; *************** function _UART1_Initialize *****************
   502 ;; Defined at:
   503 ;;		line 66 in file "mcc_generated_files/uart1.c"
   504 ;; Parameters:    Size  Location     Type
   505 ;;		None
   506 ;; Auto vars:     Size  Location     Type
   507 ;;		None
   508 ;; Return value:  Size  Location     Type
   509 ;;                  1    wreg      void 
   510 ;; Registers used:
   511 ;;		wreg, status,2, status,0, cstack
   512 ;; Tracked objects:
   513 ;;		On entry : 0/0
   514 ;;		On exit  : 0/0
   515 ;;		Unchanged: 0/0
   516 ;; Data sizes:     COMRAM   BANK5   BANK6   BANK7   BANK8   BANK9  BANK10  BANK11  BANK12  BANK13  BANK14  BANK15  BANK1
      +6  BANK17  BANK18  BANK19  BANK20  BANK21  BANK22  BANK23  BANK24  BANK25  BANK26  BANK27  BANK28  BANK29  BANK30  BANK3
      +1  BANK32  BANK33  BANK34  BANK35  BANK36  BANK37  BANK38  BANK39  BANK40  BANK41  BANK42  BANK43  BANK44  BANK45  BANK4
      +6  BANK47  BANK48  BANK49  BANK50  BANK51  BANK52  BANK53  BANK54
   517 ;;      Params:         0       0       0       0       0       0       0       0       0       0       0       0       
      +0       0       0       0       0       0       0       0       0       0       0       0       0       0       0       
      +0       0       0       0       0       0       0       0       0       0       0       0       0       0       0       
      +0       0       0       0       0       0       0       0       0
   518 ;;      Locals:         0       0       0       0       0       0       0       0       0       0       0       0       
      +0       0       0       0       0       0       0       0       0       0       0       0       0       0       0       
      +0       0       0       0       0       0       0       0       0       0       0       0       0       0       0       
      +0       0       0       0       0       0       0       0       0
   519 ;;      Temps:          0       0       0       0       0       0       0       0       0       0       0       0       
      +0       0       0       0       0       0       0       0       0       0       0       0       0       0       0       
      +0       0       0       0       0       0       0       0       0       0       0       0       0       0       0       
      +0       0       0       0       0       0       0       0       0
   520 ;;      Totals:         0       0       0       0       0       0       0       0       0       0       0       0       
      +0       0       0       0       0       0       0       0       0       0       0       0       0       0       0       
      +0       0       0       0       0       0       0       0       0       0       0       0       0       0       0       
      +0       0       0       0       0       0       0       0       0
   521 ;;Total ram usage:        0 bytes
   522 ;; Hardware stack levels used: 1
   523 ;; Hardware stack levels required when called: 2
   524 ;; This function calls:
   525 ;;		_UART1_SetErrorHandler
   526 ;;		_UART1_SetFramingErrorHandler
   527 ;;		_UART1_SetOverrunErrorHandler
   528 ;; This function is called by:
   529 ;;		_SYSTEM_Initialize
   530 ;; This function uses a non-reentrant model
   531 ;;
   532                           
   533                           	psect	text2
   534  000A28                     __ptext2:
   535                           	callstack 0
   536  000A28                     _UART1_Initialize:
   537                           	callstack 123
   538  000A28                     
   539                           ;mcc_generated_files/uart1.c: 73:     U1P1L = 0x00;
   540  000A28  0E00               	movlw	0
   541  000A2A  0102               	movlb	2	; () banked
   542  000A2C  6FA5               	movwf	165,b	;volatile
   543                           
   544                           ;mcc_generated_files/uart1.c: 76:     U1P1H = 0x00;
   545  000A2E  0E00               	movlw	0
   546  000A30  6FA6               	movwf	166,b	;volatile
   547                           
   548                           ;mcc_generated_files/uart1.c: 79:     U1P2L = 0x00;
   549  000A32  0E00               	movlw	0
   550  000A34  6FA7               	movwf	167,b	;volatile
   551                           
   552                           ;mcc_generated_files/uart1.c: 82:     U1P2H = 0x00;
   553  000A36  0E00               	movlw	0
   554  000A38  6FA8               	movwf	168,b	;volatile
   555                           
   556                           ;mcc_generated_files/uart1.c: 85:     U1P3L = 0x00;
   557  000A3A  0E00               	movlw	0
   558  000A3C  6FA9               	movwf	169,b	;volatile
   559                           
   560                           ;mcc_generated_files/uart1.c: 88:     U1P3H = 0x00;
   561  000A3E  0E00               	movlw	0
   562  000A40  6FAA               	movwf	170,b	;volatile
   563                           
   564                           ;mcc_generated_files/uart1.c: 91:     U1CON0 = 0xB0;
   565  000A42  0EB0               	movlw	176
   566  000A44  6FAB               	movwf	171,b	;volatile
   567                           
   568                           ;mcc_generated_files/uart1.c: 94:     U1CON1 = 0x80;
   569  000A46  0E80               	movlw	128
   570  000A48  6FAC               	movwf	172,b	;volatile
   571                           
   572                           ;mcc_generated_files/uart1.c: 97:     U1CON2 = 0x00;
   573  000A4A  0E00               	movlw	0
   574  000A4C  6FAD               	movwf	173,b	;volatile
   575                           
   576                           ;mcc_generated_files/uart1.c: 100:     U1BRGL = 0x11;
   577  000A4E  0E11               	movlw	17
   578  000A50  6FAE               	movwf	174,b	;volatile
   579                           
   580                           ;mcc_generated_files/uart1.c: 103:     U1BRGH = 0x04;
   581  000A52  0E04               	movlw	4
   582  000A54  6FAF               	movwf	175,b	;volatile
   583                           
   584                           ;mcc_generated_files/uart1.c: 106:     U1FIFO = 0x00;
   585  000A56  0E00               	movlw	0
   586  000A58  6FB0               	movwf	176,b	;volatile
   587                           
   588                           ;mcc_generated_files/uart1.c: 109:     U1UIR = 0x00;
   589  000A5A  0E00               	movlw	0
   590  000A5C  6FB1               	movwf	177,b	;volatile
   591                           
   592                           ;mcc_generated_files/uart1.c: 112:     U1ERRIR = 0x00;
   593  000A5E  0E00               	movlw	0
   594  000A60  6FB2               	movwf	178,b	;volatile
   595                           
   596                           ;mcc_generated_files/uart1.c: 115:     U1ERRIE = 0x00;
   597  000A62  0E00               	movlw	0
   598  000A64  6FB3               	movwf	179,b	;volatile
   599  000A66                     
   600                           ; BSR set to: 2
   601                           ;mcc_generated_files/uart1.c: 118:     UART1_SetFramingErrorHandler(UART1_DefaultFraming
      +                          ErrorHandler);
   602  000A66  0E1A               	movlw	low _UART1_DefaultFramingErrorHandler
   603  000A68  6E02               	movwf	UART1_SetFramingErrorHandler@interruptHandler^(0+1280),c
   604  000A6A  0E0C               	movlw	high _UART1_DefaultFramingErrorHandler
   605  000A6C  6E03               	movwf	(UART1_SetFramingErrorHandler@interruptHandler+1)^(0+1280),c
   606  000A6E  ECFF  F005         	call	_UART1_SetFramingErrorHandler	;wreg free
   607  000A72                     
   608                           ;mcc_generated_files/uart1.c: 119:     UART1_SetOverrunErrorHandler(UART1_DefaultOverrun
      +                          ErrorHandler);
   609  000A72  0E18               	movlw	low _UART1_DefaultOverrunErrorHandler
   610  000A74  6E02               	movwf	UART1_SetOverrunErrorHandler@interruptHandler^(0+1280),c
   611  000A76  0E0C               	movlw	high _UART1_DefaultOverrunErrorHandler
   612  000A78  6E03               	movwf	(UART1_SetOverrunErrorHandler@interruptHandler+1)^(0+1280),c
   613  000A7A  ECFA  F005         	call	_UART1_SetOverrunErrorHandler	;wreg free
   614  000A7E                     
   615                           ;mcc_generated_files/uart1.c: 120:     UART1_SetErrorHandler(UART1_DefaultErrorHandler);
   616  000A7E  0E1C               	movlw	low _UART1_DefaultErrorHandler
   617  000A80  6E02               	movwf	UART1_SetErrorHandler@interruptHandler^(0+1280),c
   618  000A82  0E0C               	movlw	high _UART1_DefaultErrorHandler
   619  000A84  6E03               	movwf	(UART1_SetErrorHandler@interruptHandler+1)^(0+1280),c
   620  000A86  EC04  F006         	call	_UART1_SetErrorHandler	;wreg free
   621  000A8A                     
   622                           ;mcc_generated_files/uart1.c: 122:     uart1RxLastError.status = 0;
   623  000A8A  0E00               	movlw	0
   624  000A8C  6E33               	movwf	_uart1RxLastError^(0+1280),c	;volatile
   625  000A8E  0012               	return		;funcret
   626  000A90                     __end_of_UART1_Initialize:
   627                           	callstack 0
   628                           
   629 ;; *************** function _UART1_SetOverrunErrorHandler *****************
   630 ;; Defined at:
   631 ;;		line 194 in file "mcc_generated_files/uart1.c"
   632 ;; Parameters:    Size  Location     Type
   633 ;;  interruptHan    2    0[COMRAM] PTR FTN()void 
   634 ;;		 -> UART1_DefaultOverrunErrorHandler(1), 
   635 ;; Auto vars:     Size  Location     Type
   636 ;;		None
   637 ;; Return value:  Size  Location     Type
   638 ;;                  1    wreg      void 
   639 ;; Registers used:
   640 ;;		wreg, status,2, status,0
   641 ;; Tracked objects:
   642 ;;		On entry : 0/0
   643 ;;		On exit  : 0/0
   644 ;;		Unchanged: 0/0
   645 ;; Data sizes:     COMRAM   BANK5   BANK6   BANK7   BANK8   BANK9  BANK10  BANK11  BANK12  BANK13  BANK14  BANK15  BANK1
      +6  BANK17  BANK18  BANK19  BANK20  BANK21  BANK22  BANK23  BANK24  BANK25  BANK26  BANK27  BANK28  BANK29  BANK30  BANK3
      +1  BANK32  BANK33  BANK34  BANK35  BANK36  BANK37  BANK38  BANK39  BANK40  BANK41  BANK42  BANK43  BANK44  BANK45  BANK4
      +6  BANK47  BANK48  BANK49  BANK50  BANK51  BANK52  BANK53  BANK54
   646 ;;      Params:         2       0       0       0       0       0       0       0       0       0       0       0       
      +0       0       0       0       0       0       0       0       0       0       0       0       0       0       0       
      +0       0       0       0       0       0       0       0       0       0       0       0       0       0       0       
      +0       0       0       0       0       0       0       0       0
   647 ;;      Locals:         0       0       0       0       0       0       0       0       0       0       0       0       
      +0       0       0       0       0       0       0       0       0       0       0       0       0       0       0       
      +0       0       0       0       0       0       0       0       0       0       0       0       0       0       0       
      +0       0       0       0       0       0       0       0       0
   648 ;;      Temps:          0       0       0       0       0       0       0       0       0       0       0       0       
      +0       0       0       0       0       0       0       0       0       0       0       0       0       0       0       
      +0       0       0       0       0       0       0       0       0       0       0       0       0       0       0       
      +0       0       0       0       0       0       0       0       0
   649 ;;      Totals:         2       0       0       0       0       0       0       0       0       0       0       0       
      +0       0       0       0       0       0       0       0       0       0       0       0       0       0       0       
      +0       0       0       0       0       0       0       0       0       0       0       0       0       0       0       
      +0       0       0       0       0       0       0       0       0
   650 ;;Total ram usage:        2 bytes
   651 ;; Hardware stack levels used: 1
   652 ;; Hardware stack levels required when called: 1
   653 ;; This function calls:
   654 ;;		Nothing
   655 ;; This function is called by:
   656 ;;		_UART1_Initialize
   657 ;; This function uses a non-reentrant model
   658 ;;
   659                           
   660                           	psect	text3
   661  000BF4                     __ptext3:
   662                           	callstack 0
   663  000BF4                     _UART1_SetOverrunErrorHandler:
   664                           	callstack 123
   665  000BF4                     
   666                           ;mcc_generated_files/uart1.c: 195:     UART1_OverrunErrorHandler = interruptHandler;
   667  000BF4  C502  F52B         	movff	UART1_SetOverrunErrorHandler@interruptHandler,_UART1_OverrunErrorHandler
   668  000BF8  C503  F52C         	movff	UART1_SetOverrunErrorHandler@interruptHandler+1,_UART1_OverrunErrorHandler+1
   669  000BFC  0012               	return		;funcret
   670  000BFE                     __end_of_UART1_SetOverrunErrorHandler:
   671                           	callstack 0
   672                           
   673 ;; *************** function _UART1_SetFramingErrorHandler *****************
   674 ;; Defined at:
   675 ;;		line 190 in file "mcc_generated_files/uart1.c"
   676 ;; Parameters:    Size  Location     Type
   677 ;;  interruptHan    2    0[COMRAM] PTR FTN()void 
   678 ;;		 -> UART1_DefaultFramingErrorHandler(1), 
   679 ;; Auto vars:     Size  Location     Type
   680 ;;		None
   681 ;; Return value:  Size  Location     Type
   682 ;;                  1    wreg      void 
   683 ;; Registers used:
   684 ;;		wreg, status,2, status,0
   685 ;; Tracked objects:
   686 ;;		On entry : 0/0
   687 ;;		On exit  : 0/0
   688 ;;		Unchanged: 0/0
   689 ;; Data sizes:     COMRAM   BANK5   BANK6   BANK7   BANK8   BANK9  BANK10  BANK11  BANK12  BANK13  BANK14  BANK15  BANK1
      +6  BANK17  BANK18  BANK19  BANK20  BANK21  BANK22  BANK23  BANK24  BANK25  BANK26  BANK27  BANK28  BANK29  BANK30  BANK3
      +1  BANK32  BANK33  BANK34  BANK35  BANK36  BANK37  BANK38  BANK39  BANK40  BANK41  BANK42  BANK43  BANK44  BANK45  BANK4
      +6  BANK47  BANK48  BANK49  BANK50  BANK51  BANK52  BANK53  BANK54
   690 ;;      Params:         2       0       0       0       0       0       0       0       0       0       0       0       
      +0       0       0       0       0       0       0       0       0       0       0       0       0       0       0       
      +0       0       0       0       0       0       0       0       0       0       0       0       0       0       0       
      +0       0       0       0       0       0       0       0       0
   691 ;;      Locals:         0       0       0       0       0       0       0       0       0       0       0       0       
      +0       0       0       0       0       0       0       0       0       0       0       0       0       0       0       
      +0       0       0       0       0       0       0       0       0       0       0       0       0       0       0       
      +0       0       0       0       0       0       0       0       0
   692 ;;      Temps:          0       0       0       0       0       0       0       0       0       0       0       0       
      +0       0       0       0       0       0       0       0       0       0       0       0       0       0       0       
      +0       0       0       0       0       0       0       0       0       0       0       0       0       0       0       
      +0       0       0       0       0       0       0       0       0
   693 ;;      Totals:         2       0       0       0       0       0       0       0       0       0       0       0       
      +0       0       0       0       0       0       0       0       0       0       0       0       0       0       0       
      +0       0       0       0       0       0       0       0       0       0       0       0       0       0       0       
      +0       0       0       0       0       0       0       0       0
   694 ;;Total ram usage:        2 bytes
   695 ;; Hardware stack levels used: 1
   696 ;; Hardware stack levels required when called: 1
   697 ;; This function calls:
   698 ;;		Nothing
   699 ;; This function is called by:
   700 ;;		_UART1_Initialize
   701 ;; This function uses a non-reentrant model
   702 ;;
   703                           
   704                           	psect	text4
   705  000BFE                     __ptext4:
   706                           	callstack 0
   707  000BFE                     _UART1_SetFramingErrorHandler:
   708                           	callstack 123
   709  000BFE                     
   710                           ;mcc_generated_files/uart1.c: 191:     UART1_FramingErrorHandler = interruptHandler;
   711  000BFE  C502  F52D         	movff	UART1_SetFramingErrorHandler@interruptHandler,_UART1_FramingErrorHandler
   712  000C02  C503  F52E         	movff	UART1_SetFramingErrorHandler@interruptHandler+1,_UART1_FramingErrorHandler+1
   713  000C06  0012               	return		;funcret
   714  000C08                     __end_of_UART1_SetFramingErrorHandler:
   715                           	callstack 0
   716                           
   717 ;; *************** function _UART1_SetErrorHandler *****************
   718 ;; Defined at:
   719 ;;		line 198 in file "mcc_generated_files/uart1.c"
   720 ;; Parameters:    Size  Location     Type
   721 ;;  interruptHan    2    0[COMRAM] PTR FTN()void 
   722 ;;		 -> UART1_DefaultErrorHandler(1), 
   723 ;; Auto vars:     Size  Location     Type
   724 ;;		None
   725 ;; Return value:  Size  Location     Type
   726 ;;                  1    wreg      void 
   727 ;; Registers used:
   728 ;;		wreg, status,2, status,0
   729 ;; Tracked objects:
   730 ;;		On entry : 0/0
   731 ;;		On exit  : 0/0
   732 ;;		Unchanged: 0/0
   733 ;; Data sizes:     COMRAM   BANK5   BANK6   BANK7   BANK8   BANK9  BANK10  BANK11  BANK12  BANK13  BANK14  BANK15  BANK1
      +6  BANK17  BANK18  BANK19  BANK20  BANK21  BANK22  BANK23  BANK24  BANK25  BANK26  BANK27  BANK28  BANK29  BANK30  BANK3
      +1  BANK32  BANK33  BANK34  BANK35  BANK36  BANK37  BANK38  BANK39  BANK40  BANK41  BANK42  BANK43  BANK44  BANK45  BANK4
      +6  BANK47  BANK48  BANK49  BANK50  BANK51  BANK52  BANK53  BANK54
   734 ;;      Params:         2       0       0       0       0       0       0       0       0       0       0       0       
      +0       0       0       0       0       0       0       0       0       0       0       0       0       0       0       
      +0       0       0       0       0       0       0       0       0       0       0       0       0       0       0       
      +0       0       0       0       0       0       0       0       0
   735 ;;      Locals:         0       0       0       0       0       0       0       0       0       0       0       0       
      +0       0       0       0       0       0       0       0       0       0       0       0       0       0       0       
      +0       0       0       0       0       0       0       0       0       0       0       0       0       0       0       
      +0       0       0       0       0       0       0       0       0
   736 ;;      Temps:          0       0       0       0       0       0       0       0       0       0       0       0       
      +0       0       0       0       0       0       0       0       0       0       0       0       0       0       0       
      +0       0       0       0       0       0       0       0       0       0       0       0       0       0       0       
      +0       0       0       0       0       0       0       0       0
   737 ;;      Totals:         2       0       0       0       0       0       0       0       0       0       0       0       
      +0       0       0       0       0       0       0       0       0       0       0       0       0       0       0       
      +0       0       0       0       0       0       0       0       0       0       0       0       0       0       0       
      +0       0       0       0       0       0       0       0       0
   738 ;;Total ram usage:        2 bytes
   739 ;; Hardware stack levels used: 1
   740 ;; Hardware stack levels required when called: 1
   741 ;; This function calls:
   742 ;;		Nothing
   743 ;; This function is called by:
   744 ;;		_UART1_Initialize
   745 ;; This function uses a non-reentrant model
   746 ;;
   747                           
   748                           	psect	text5
   749  000C08                     __ptext5:
   750                           	callstack 0
   751  000C08                     _UART1_SetErrorHandler:
   752                           	callstack 123
   753  000C08                     
   754                           ;mcc_generated_files/uart1.c: 199:     UART1_ErrorHandler = interruptHandler;
   755  000C08  C502  F529         	movff	UART1_SetErrorHandler@interruptHandler,_UART1_ErrorHandler
   756  000C0C  C503  F52A         	movff	UART1_SetErrorHandler@interruptHandler+1,_UART1_ErrorHandler+1
   757  000C10  0012               	return		;funcret
   758  000C12                     __end_of_UART1_SetErrorHandler:
   759                           	callstack 0
   760                           
   761 ;; *************** function _PMD_Initialize *****************
   762 ;; Defined at:
   763 ;;		line 77 in file "mcc_generated_files/mcc.c"
   764 ;; Parameters:    Size  Location     Type
   765 ;;		None
   766 ;; Auto vars:     Size  Location     Type
   767 ;;		None
   768 ;; Return value:  Size  Location     Type
   769 ;;                  1    wreg      void 
   770 ;; Registers used:
   771 ;;		wreg, status,2
   772 ;; Tracked objects:
   773 ;;		On entry : 0/0
   774 ;;		On exit  : 0/0
   775 ;;		Unchanged: 0/0
   776 ;; Data sizes:     COMRAM   BANK5   BANK6   BANK7   BANK8   BANK9  BANK10  BANK11  BANK12  BANK13  BANK14  BANK15  BANK1
      +6  BANK17  BANK18  BANK19  BANK20  BANK21  BANK22  BANK23  BANK24  BANK25  BANK26  BANK27  BANK28  BANK29  BANK30  BANK3
      +1  BANK32  BANK33  BANK34  BANK35  BANK36  BANK37  BANK38  BANK39  BANK40  BANK41  BANK42  BANK43  BANK44  BANK45  BANK4
      +6  BANK47  BANK48  BANK49  BANK50  BANK51  BANK52  BANK53  BANK54
   777 ;;      Params:         0       0       0       0       0       0       0       0       0       0       0       0       
      +0       0       0       0       0       0       0       0       0       0       0       0       0       0       0       
      +0       0       0       0       0       0       0       0       0       0       0       0       0       0       0       
      +0       0       0       0       0       0       0       0       0
   778 ;;      Locals:         0       0       0       0       0       0       0       0       0       0       0       0       
      +0       0       0       0       0       0       0       0       0       0       0       0       0       0       0       
      +0       0       0       0       0       0       0       0       0       0       0       0       0       0       0       
      +0       0       0       0       0       0       0       0       0
   779 ;;      Temps:          0       0       0       0       0       0       0       0       0       0       0       0       
      +0       0       0       0       0       0       0       0       0       0       0       0       0       0       0       
      +0       0       0       0       0       0       0       0       0       0       0       0       0       0       0       
      +0       0       0       0       0       0       0       0       0
   780 ;;      Totals:         0       0       0       0       0       0       0       0       0       0       0       0       
      +0       0       0       0       0       0       0       0       0       0       0       0       0       0       0       
      +0       0       0       0       0       0       0       0       0       0       0       0       0       0       0       
      +0       0       0       0       0       0       0       0       0
   781 ;;Total ram usage:        0 bytes
   782 ;; Hardware stack levels used: 1
   783 ;; Hardware stack levels required when called: 1
   784 ;; This function calls:
   785 ;;		Nothing
   786 ;; This function is called by:
   787 ;;		_SYSTEM_Initialize
   788 ;; This function uses a non-reentrant model
   789 ;;
   790                           
   791                           	psect	text6
   792  000B46                     __ptext6:
   793                           	callstack 0
   794  000B46                     _PMD_Initialize:
   795                           	callstack 124
   796  000B46                     
   797                           ;mcc_generated_files/mcc.c: 80:     PMD0 = 0x00;
   798  000B46  0E00               	movlw	0
   799  000B48  0100               	movlb	0	; () banked
   800  000B4A  6F60               	movwf	96,b	;volatile
   801                           
   802                           ;mcc_generated_files/mcc.c: 82:     PMD1 = 0x00;
   803  000B4C  0E00               	movlw	0
   804  000B4E  6F61               	movwf	97,b	;volatile
   805                           
   806                           ;mcc_generated_files/mcc.c: 84:     PMD2 = 0x00;
   807  000B50  0E00               	movlw	0
   808  000B52  6F62               	movwf	98,b	;volatile
   809                           
   810                           ;mcc_generated_files/mcc.c: 86:     PMD3 = 0x00;
   811  000B54  0E00               	movlw	0
   812  000B56  6F63               	movwf	99,b	;volatile
   813                           
   814                           ;mcc_generated_files/mcc.c: 88:     PMD4 = 0x00;
   815  000B58  0E00               	movlw	0
   816  000B5A  6F64               	movwf	100,b	;volatile
   817                           
   818                           ;mcc_generated_files/mcc.c: 90:     PMD5 = 0x00;
   819  000B5C  0E00               	movlw	0
   820  000B5E  6F65               	movwf	101,b	;volatile
   821                           
   822                           ;mcc_generated_files/mcc.c: 92:     PMD6 = 0x00;
   823  000B60  0E00               	movlw	0
   824  000B62  6F66               	movwf	102,b	;volatile
   825                           
   826                           ;mcc_generated_files/mcc.c: 94:     PMD7 = 0x00;
   827  000B64  0E00               	movlw	0
   828  000B66  6F67               	movwf	103,b	;volatile
   829                           
   830                           ;mcc_generated_files/mcc.c: 96:     PMD8 = 0x00;
   831  000B68  0E00               	movlw	0
   832  000B6A  6F68               	movwf	104,b	;volatile
   833  000B6C                     
   834                           ; BSR set to: 0
   835  000B6C  0012               	return		;funcret
   836  000B6E                     __end_of_PMD_Initialize:
   837                           	callstack 0
   838                           
   839 ;; *************** function _PIN_MANAGER_Initialize *****************
   840 ;; Defined at:
   841 ;;		line 55 in file "mcc_generated_files/pin_manager.c"
   842 ;; Parameters:    Size  Location     Type
   843 ;;		None
   844 ;; Auto vars:     Size  Location     Type
   845 ;;		None
   846 ;; Return value:  Size  Location     Type
   847 ;;                  1    wreg      void 
   848 ;; Registers used:
   849 ;;		wreg, status,2
   850 ;; Tracked objects:
   851 ;;		On entry : 0/0
   852 ;;		On exit  : 0/0
   853 ;;		Unchanged: 0/0
   854 ;; Data sizes:     COMRAM   BANK5   BANK6   BANK7   BANK8   BANK9  BANK10  BANK11  BANK12  BANK13  BANK14  BANK15  BANK1
      +6  BANK17  BANK18  BANK19  BANK20  BANK21  BANK22  BANK23  BANK24  BANK25  BANK26  BANK27  BANK28  BANK29  BANK30  BANK3
      +1  BANK32  BANK33  BANK34  BANK35  BANK36  BANK37  BANK38  BANK39  BANK40  BANK41  BANK42  BANK43  BANK44  BANK45  BANK4
      +6  BANK47  BANK48  BANK49  BANK50  BANK51  BANK52  BANK53  BANK54
   855 ;;      Params:         0       0       0       0       0       0       0       0       0       0       0       0       
      +0       0       0       0       0       0       0       0       0       0       0       0       0       0       0       
      +0       0       0       0       0       0       0       0       0       0       0       0       0       0       0       
      +0       0       0       0       0       0       0       0       0
   856 ;;      Locals:         0       0       0       0       0       0       0       0       0       0       0       0       
      +0       0       0       0       0       0       0       0       0       0       0       0       0       0       0       
      +0       0       0       0       0       0       0       0       0       0       0       0       0       0       0       
      +0       0       0       0       0       0       0       0       0
   857 ;;      Temps:          0       0       0       0       0       0       0       0       0       0       0       0       
      +0       0       0       0       0       0       0       0       0       0       0       0       0       0       0       
      +0       0       0       0       0       0       0       0       0       0       0       0       0       0       0       
      +0       0       0       0       0       0       0       0       0
   858 ;;      Totals:         0       0       0       0       0       0       0       0       0       0       0       0       
      +0       0       0       0       0       0       0       0       0       0       0       0       0       0       0       
      +0       0       0       0       0       0       0       0       0       0       0       0       0       0       0       
      +0       0       0       0       0       0       0       0       0
   859 ;;Total ram usage:        0 bytes
   860 ;; Hardware stack levels used: 1
   861 ;; Hardware stack levels required when called: 1
   862 ;; This function calls:
   863 ;;		Nothing
   864 ;; This function is called by:
   865 ;;		_SYSTEM_Initialize
   866 ;; This function uses a non-reentrant model
   867 ;;
   868                           
   869                           	psect	text7
   870  000922                     __ptext7:
   871                           	callstack 0
   872  000922                     _PIN_MANAGER_Initialize:
   873                           	callstack 124
   874  000922                     
   875                           ;mcc_generated_files/pin_manager.c: 60:     LATE = 0x00;
   876  000922  0E00               	movlw	0
   877  000924  6EC2               	movwf	194,c	;volatile
   878                           
   879                           ;mcc_generated_files/pin_manager.c: 61:     LATD = 0x00;
   880  000926  0E00               	movlw	0
   881  000928  6EC1               	movwf	193,c	;volatile
   882                           
   883                           ;mcc_generated_files/pin_manager.c: 62:     LATA = 0x00;
   884  00092A  0E00               	movlw	0
   885  00092C  6EBE               	movwf	190,c	;volatile
   886                           
   887                           ;mcc_generated_files/pin_manager.c: 63:     LATF = 0x01;
   888  00092E  0E01               	movlw	1
   889  000930  6EC3               	movwf	195,c	;volatile
   890                           
   891                           ;mcc_generated_files/pin_manager.c: 64:     LATB = 0x00;
   892  000932  0E00               	movlw	0
   893  000934  6EBF               	movwf	191,c	;volatile
   894                           
   895                           ;mcc_generated_files/pin_manager.c: 65:     LATC = 0x00;
   896  000936  0E00               	movlw	0
   897  000938  6EC0               	movwf	192,c	;volatile
   898                           
   899                           ;mcc_generated_files/pin_manager.c: 70:     TRISE = 0x07;
   900  00093A  0E07               	movlw	7
   901  00093C  6ECA               	movwf	202,c	;volatile
   902                           
   903                           ;mcc_generated_files/pin_manager.c: 71:     TRISF = 0xFE;
   904  00093E  0EFE               	movlw	254
   905  000940  6ECB               	movwf	203,c	;volatile
   906  000942                     
   907                           ;mcc_generated_files/pin_manager.c: 72:     TRISA = 0xFF;
   908  000942  68C6               	setf	198,c	;volatile
   909  000944                     
   910                           ;mcc_generated_files/pin_manager.c: 73:     TRISB = 0xFF;
   911  000944  68C7               	setf	199,c	;volatile
   912  000946                     
   913                           ;mcc_generated_files/pin_manager.c: 74:     TRISC = 0xFF;
   914  000946  68C8               	setf	200,c	;volatile
   915  000948                     
   916                           ;mcc_generated_files/pin_manager.c: 75:     TRISD = 0xFF;
   917  000948  68C9               	setf	201,c	;volatile
   918  00094A                     
   919                           ;mcc_generated_files/pin_manager.c: 80:     ANSELD = 0xFF;
   920  00094A  0104               	movlb	4	; () banked
   921  00094C  6918               	setf	24,b	;volatile
   922  00094E                     
   923                           ; BSR set to: 4
   924                           ;mcc_generated_files/pin_manager.c: 81:     ANSELC = 0xFF;
   925  00094E  6910               	setf	16,b	;volatile
   926  000950                     
   927                           ; BSR set to: 4
   928                           ;mcc_generated_files/pin_manager.c: 82:     ANSELB = 0xFF;
   929  000950  6908               	setf	8,b	;volatile
   930                           
   931                           ;mcc_generated_files/pin_manager.c: 83:     ANSELE = 0x07;
   932  000952  0E07               	movlw	7
   933  000954  6F20               	movwf	32,b	;volatile
   934                           
   935                           ;mcc_generated_files/pin_manager.c: 84:     ANSELF = 0xFC;
   936  000956  0EFC               	movlw	252
   937  000958  6F28               	movwf	40,b	;volatile
   938                           
   939                           ;mcc_generated_files/pin_manager.c: 85:     ANSELA = 0xF7;
   940  00095A  0EF7               	movlw	247
   941  00095C  6F00               	movwf	0,b	;volatile
   942                           
   943                           ;mcc_generated_files/pin_manager.c: 90:     WPUD = 0x00;
   944  00095E  0E00               	movlw	0
   945  000960  6F19               	movwf	25,b	;volatile
   946                           
   947                           ;mcc_generated_files/pin_manager.c: 91:     WPUF = 0x00;
   948  000962  0E00               	movlw	0
   949  000964  6F29               	movwf	41,b	;volatile
   950                           
   951                           ;mcc_generated_files/pin_manager.c: 92:     WPUE = 0x00;
   952  000966  0E00               	movlw	0
   953  000968  6F21               	movwf	33,b	;volatile
   954                           
   955                           ;mcc_generated_files/pin_manager.c: 93:     WPUB = 0x00;
   956  00096A  0E00               	movlw	0
   957  00096C  6F09               	movwf	9,b	;volatile
   958                           
   959                           ;mcc_generated_files/pin_manager.c: 94:     WPUA = 0x08;
   960  00096E  0E08               	movlw	8
   961  000970  6F01               	movwf	1,b	;volatile
   962                           
   963                           ;mcc_generated_files/pin_manager.c: 95:     WPUC = 0x00;
   964  000972  0E00               	movlw	0
   965  000974  6F11               	movwf	17,b	;volatile
   966                           
   967                           ;mcc_generated_files/pin_manager.c: 100:     ODCONE = 0x00;
   968  000976  0E00               	movlw	0
   969  000978  6F22               	movwf	34,b	;volatile
   970                           
   971                           ;mcc_generated_files/pin_manager.c: 101:     ODCONF = 0x00;
   972  00097A  0E00               	movlw	0
   973  00097C  6F2A               	movwf	42,b	;volatile
   974                           
   975                           ;mcc_generated_files/pin_manager.c: 102:     ODCONA = 0x00;
   976  00097E  0E00               	movlw	0
   977  000980  6F02               	movwf	2,b	;volatile
   978                           
   979                           ;mcc_generated_files/pin_manager.c: 103:     ODCONB = 0x00;
   980  000982  0E00               	movlw	0
   981  000984  6F0A               	movwf	10,b	;volatile
   982                           
   983                           ;mcc_generated_files/pin_manager.c: 104:     ODCONC = 0x00;
   984  000986  0E00               	movlw	0
   985  000988  6F12               	movwf	18,b	;volatile
   986                           
   987                           ;mcc_generated_files/pin_manager.c: 105:     ODCOND = 0x00;
   988  00098A  0E00               	movlw	0
   989  00098C  6F1A               	movwf	26,b	;volatile
   990  00098E                     
   991                           ; BSR set to: 4
   992                           ;mcc_generated_files/pin_manager.c: 110:     SLRCONA = 0xFF;
   993  00098E  6903               	setf	3,b	;volatile
   994  000990                     
   995                           ; BSR set to: 4
   996                           ;mcc_generated_files/pin_manager.c: 111:     SLRCONB = 0xFF;
   997  000990  690B               	setf	11,b	;volatile
   998  000992                     
   999                           ; BSR set to: 4
  1000                           ;mcc_generated_files/pin_manager.c: 112:     SLRCONC = 0xFF;
  1001  000992  6913               	setf	19,b	;volatile
  1002  000994                     
  1003                           ; BSR set to: 4
  1004                           ;mcc_generated_files/pin_manager.c: 113:     SLRCOND = 0xFF;
  1005  000994  691B               	setf	27,b	;volatile
  1006                           
  1007                           ;mcc_generated_files/pin_manager.c: 114:     SLRCONE = 0x07;
  1008  000996  0E07               	movlw	7
  1009  000998  6F23               	movwf	35,b	;volatile
  1010  00099A                     
  1011                           ; BSR set to: 4
  1012                           ;mcc_generated_files/pin_manager.c: 115:     SLRCONF = 0xFF;
  1013  00099A  692B               	setf	43,b	;volatile
  1014  00099C                     
  1015                           ; BSR set to: 4
  1016                           ;mcc_generated_files/pin_manager.c: 120:     INLVLA = 0xFF;
  1017  00099C  6904               	setf	4,b	;volatile
  1018  00099E                     
  1019                           ; BSR set to: 4
  1020                           ;mcc_generated_files/pin_manager.c: 121:     INLVLB = 0xFF;
  1021  00099E  690C               	setf	12,b	;volatile
  1022  0009A0                     
  1023                           ; BSR set to: 4
  1024                           ;mcc_generated_files/pin_manager.c: 122:     INLVLC = 0xFF;
  1025  0009A0  6914               	setf	20,b	;volatile
  1026  0009A2                     
  1027                           ; BSR set to: 4
  1028                           ;mcc_generated_files/pin_manager.c: 123:     INLVLD = 0xFF;
  1029  0009A2  691C               	setf	28,b	;volatile
  1030                           
  1031                           ;mcc_generated_files/pin_manager.c: 124:     INLVLE = 0x0F;
  1032  0009A4  0E0F               	movlw	15
  1033  0009A6  6F24               	movwf	36,b	;volatile
  1034  0009A8                     
  1035                           ; BSR set to: 4
  1036                           ;mcc_generated_files/pin_manager.c: 125:     INLVLF = 0xFF;
  1037  0009A8  692C               	setf	44,b	;volatile
  1038                           
  1039                           ;mcc_generated_files/pin_manager.c: 134:     RF0PPS = 0x20;
  1040  0009AA  0E20               	movlw	32
  1041  0009AC  0102               	movlb	2	; () banked
  1042  0009AE  6F29               	movwf	41,b	;volatile
  1043                           
  1044                           ;mcc_generated_files/pin_manager.c: 135:     U1RXPPS = 0x29;
  1045  0009B0  0E29               	movlw	41
  1046  0009B2  6F72               	movwf	114,b	;volatile
  1047  0009B4                     
  1048                           ; BSR set to: 2
  1049  0009B4  0012               	return		;funcret
  1050  0009B6                     __end_of_PIN_MANAGER_Initialize:
  1051                           	callstack 0
  1052                           
  1053 ;; *************** function _OSCILLATOR_Initialize *****************
  1054 ;; Defined at:
  1055 ;;		line 59 in file "mcc_generated_files/mcc.c"
  1056 ;; Parameters:    Size  Location     Type
  1057 ;;		None
  1058 ;; Auto vars:     Size  Location     Type
  1059 ;;		None
  1060 ;; Return value:  Size  Location     Type
  1061 ;;                  1    wreg      void 
  1062 ;; Registers used:
  1063 ;;		wreg, status,2
  1064 ;; Tracked objects:
  1065 ;;		On entry : 0/0
  1066 ;;		On exit  : 0/0
  1067 ;;		Unchanged: 0/0
  1068 ;; Data sizes:     COMRAM   BANK5   BANK6   BANK7   BANK8   BANK9  BANK10  BANK11  BANK12  BANK13  BANK14  BANK15  BANK1
      +6  BANK17  BANK18  BANK19  BANK20  BANK21  BANK22  BANK23  BANK24  BANK25  BANK26  BANK27  BANK28  BANK29  BANK30  BANK3
      +1  BANK32  BANK33  BANK34  BANK35  BANK36  BANK37  BANK38  BANK39  BANK40  BANK41  BANK42  BANK43  BANK44  BANK45  BANK4
      +6  BANK47  BANK48  BANK49  BANK50  BANK51  BANK52  BANK53  BANK54
  1069 ;;      Params:         0       0       0       0       0       0       0       0       0       0       0       0       
      +0       0       0       0       0       0       0       0       0       0       0       0       0       0       0       
      +0       0       0       0       0       0       0       0       0       0       0       0       0       0       0       
      +0       0       0       0       0       0       0       0       0
  1070 ;;      Locals:         0       0       0       0       0       0       0       0       0       0       0       0       
      +0       0       0       0       0       0       0       0       0       0       0       0       0       0       0       
      +0       0       0       0       0       0       0       0       0       0       0       0       0       0       0       
      +0       0       0       0       0       0       0       0       0
  1071 ;;      Temps:          0       0       0       0       0       0       0       0       0       0       0       0       
      +0       0       0       0       0       0       0       0       0       0       0       0       0       0       0       
      +0       0       0       0       0       0       0       0       0       0       0       0       0       0       0       
      +0       0       0       0       0       0       0       0       0
  1072 ;;      Totals:         0       0       0       0       0       0       0       0       0       0       0       0       
      +0       0       0       0       0       0       0       0       0       0       0       0       0       0       0       
      +0       0       0       0       0       0       0       0       0       0       0       0       0       0       0       
      +0       0       0       0       0       0       0       0       0
  1073 ;;Total ram usage:        0 bytes
  1074 ;; Hardware stack levels used: 1
  1075 ;; Hardware stack levels required when called: 1
  1076 ;; This function calls:
  1077 ;;		Nothing
  1078 ;; This function is called by:
  1079 ;;		_SYSTEM_Initialize
  1080 ;; This function uses a non-reentrant model
  1081 ;;
  1082                           
  1083                           	psect	text8
  1084  000B6E                     __ptext8:
  1085                           	callstack 0
  1086  000B6E                     _OSCILLATOR_Initialize:
  1087                           	callstack 124
  1088  000B6E                     
  1089                           ;mcc_generated_files/mcc.c: 62:     OSCCON1 = 0x20;
  1090  000B6E  0E20               	movlw	32
  1091  000B70  0100               	movlb	0	; () banked
  1092  000B72  6FAD               	movwf	173,b	;volatile
  1093                           
  1094                           ;mcc_generated_files/mcc.c: 64:     OSCCON3 = 0x00;
  1095  000B74  0E00               	movlw	0
  1096  000B76  6FAF               	movwf	175,b	;volatile
  1097                           
  1098                           ;mcc_generated_files/mcc.c: 66:     OSCEN = 0x01;
  1099  000B78  0E01               	movlw	1
  1100  000B7A  6FB3               	movwf	179,b	;volatile
  1101                           
  1102                           ;mcc_generated_files/mcc.c: 68:     OSCFRQ = 0x02;
  1103  000B7C  0E02               	movlw	2
  1104  000B7E  6FB1               	movwf	177,b	;volatile
  1105                           
  1106                           ;mcc_generated_files/mcc.c: 70:     OSCTUNE = 0x00;
  1107  000B80  0E00               	movlw	0
  1108  000B82  6FB0               	movwf	176,b	;volatile
  1109  000B84                     l302:
  1110                           
  1111                           ; BSR set to: 0
  1112                           ;mcc_generated_files/mcc.c: 72:     while(PLLR == 0)
  1113  000B84  A1B2               	btfss	178,0,b	;volatile
  1114  000B86  EFC7  F005         	goto	u351
  1115  000B8A  EFC9  F005         	goto	u350
  1116  000B8E                     u351:
  1117  000B8E  EFC2  F005         	goto	l302
  1118  000B92                     u350:
  1119  000B92                     
  1120                           ; BSR set to: 0
  1121  000B92  0012               	return		;funcret
  1122  000B94                     __end_of_OSCILLATOR_Initialize:
  1123                           	callstack 0
  1124                           
  1125 ;; *************** function _BOOTLOADER_Initialize *****************
  1126 ;; Defined at:
  1127 ;;		line 123 in file "mcc_generated_files/pic18f_bootload.c"
  1128 ;; Parameters:    Size  Location     Type
  1129 ;;		None
  1130 ;; Auto vars:     Size  Location     Type
  1131 ;;		None
  1132 ;; Return value:  Size  Location     Type
  1133 ;;                  1    wreg      void 
  1134 ;; Registers used:
  1135 ;;		wreg, fsr1l, fsr1h, fsr2l, fsr2h, status,2, status,0, pclath, tosl, cstack
  1136 ;; Tracked objects:
  1137 ;;		On entry : 0/0
  1138 ;;		On exit  : 0/0
  1139 ;;		Unchanged: 0/0
  1140 ;; Data sizes:     COMRAM   BANK5   BANK6   BANK7   BANK8   BANK9  BANK10  BANK11  BANK12  BANK13  BANK14  BANK15  BANK1
      +6  BANK17  BANK18  BANK19  BANK20  BANK21  BANK22  BANK23  BANK24  BANK25  BANK26  BANK27  BANK28  BANK29  BANK30  BANK3
      +1  BANK32  BANK33  BANK34  BANK35  BANK36  BANK37  BANK38  BANK39  BANK40  BANK41  BANK42  BANK43  BANK44  BANK45  BANK4
      +6  BANK47  BANK48  BANK49  BANK50  BANK51  BANK52  BANK53  BANK54
  1141 ;;      Params:         0       0       0       0       0       0       0       0       0       0       0       0       
      +0       0       0       0       0       0       0       0       0       0       0       0       0       0       0       
      +0       0       0       0       0       0       0       0       0       0       0       0       0       0       0       
      +0       0       0       0       0       0       0       0       0
  1142 ;;      Locals:         0       0       0       0       0       0       0       0       0       0       0       0       
      +0       0       0       0       0       0       0       0       0       0       0       0       0       0       0       
      +0       0       0       0       0       0       0       0       0       0       0       0       0       0       0       
      +0       0       0       0       0       0       0       0       0
  1143 ;;      Temps:          0       0       0       0       0       0       0       0       0       0       0       0       
      +0       0       0       0       0       0       0       0       0       0       0       0       0       0       0       
      +0       0       0       0       0       0       0       0       0       0       0       0       0       0       0       
      +0       0       0       0       0       0       0       0       0
  1144 ;;      Totals:         0       0       0       0       0       0       0       0       0       0       0       0       
      +0       0       0       0       0       0       0       0       0       0       0       0       0       0       0       
      +0       0       0       0       0       0       0       0       0       0       0       0       0       0       0       
      +0       0       0       0       0       0       0       0       0
  1145 ;;Total ram usage:        0 bytes
  1146 ;; Hardware stack levels used: 1
  1147 ;; Hardware stack levels required when called: 5
  1148 ;; This function calls:
  1149 ;;		_Bootload_Required
  1150 ;;		_Run_Bootloader
  1151 ;; This function is called by:
  1152 ;;		_SYSTEM_Initialize
  1153 ;; This function uses a non-reentrant model
  1154 ;;
  1155                           
  1156                           	psect	text9
  1157  000B18                     __ptext9:
  1158                           	callstack 0
  1159  000B18                     _BOOTLOADER_Initialize:
  1160                           	callstack 120
  1161  000B18                     
  1162                           ;mcc_generated_files/pic18f_bootload.c: 125:     EE_Key_1 = 0;
  1163  000B18  0E00               	movlw	0
  1164  000B1A  6E00               	movwf	0,c
  1165                           
  1166                           ;mcc_generated_files/pic18f_bootload.c: 126:     EE_Key_2 = 0;
  1167  000B1C  0E00               	movlw	0
  1168  000B1E  6E01               	movwf	1,c
  1169  000B20                     
  1170                           ;mcc_generated_files/pic18f_bootload.c: 127:     if (Bootload_Required () == 1)
  1171  000B20  ECAA  F003         	call	_Bootload_Required	;wreg free
  1172  000B24  06E8               	decf	wreg,f,c
  1173  000B26  A4D8               	btfss	status,2,c
  1174  000B28  EF98  F005         	goto	u701
  1175  000B2C  EF9A  F005         	goto	u700
  1176  000B30                     u701:
  1177  000B30  EF9C  F005         	goto	l2020
  1178  000B34                     u700:
  1179  000B34                     
  1180                           ;mcc_generated_files/pic18f_bootload.c: 128:     {;mcc_generated_files/pic18f_bootload.c
      +                          : 129:         Run_Bootloader ();
  1181  000B34  EC34  F001         	call	_Run_Bootloader	;wreg free
  1182  000B38                     l2020:
  1183                           
  1184                           ;mcc_generated_files/pic18f_bootload.c: 131:     STKPTR = 0x00;
  1185  000B38  0E00               	movlw	0
  1186  000B3A  6EFC               	movwf	252,c	;volatile
  1187  000B3C                     
  1188                           ;mcc_generated_files/pic18f_bootload.c: 132:  BSR = 0x00;
  1189  000B3C  0E00               	movlw	0
  1190  000B3E  6EE0               	movwf	224,c	;volatile
  1191  000B40  EF80 F006          	goto	3328	;# 
  1192  000B44  0012               	return		;funcret
  1193  000B46                     __end_of_BOOTLOADER_Initialize:
  1194                           	callstack 0
  1195                           
  1196 ;; *************** function _Run_Bootloader *****************
  1197 ;; Defined at:
  1198 ;;		line 57 in file "mcc_generated_files/pic18f_uart.c"
  1199 ;; Parameters:    Size  Location     Type
  1200 ;;		None
  1201 ;; Auto vars:     Size  Location     Type
  1202 ;;  ch              1   34[COMRAM] unsigned char 
  1203 ;;  index           2   37[COMRAM] volatile unsigned short 
  1204 ;;  msg_length      2   35[COMRAM] unsigned short 
  1205 ;; Return value:  Size  Location     Type
  1206 ;;                  1    wreg      void 
  1207 ;; Registers used:
  1208 ;;		wreg, fsr1l, fsr1h, fsr2l, fsr2h, status,2, status,0, pclath, tosl, cstack
  1209 ;; Tracked objects:
  1210 ;;		On entry : 0/0
  1211 ;;		On exit  : 0/0
  1212 ;;		Unchanged: 0/0
  1213 ;; Data sizes:     COMRAM   BANK5   BANK6   BANK7   BANK8   BANK9  BANK10  BANK11  BANK12  BANK13  BANK14  BANK15  BANK1
      +6  BANK17  BANK18  BANK19  BANK20  BANK21  BANK22  BANK23  BANK24  BANK25  BANK26  BANK27  BANK28  BANK29  BANK30  BANK3
      +1  BANK32  BANK33  BANK34  BANK35  BANK36  BANK37  BANK38  BANK39  BANK40  BANK41  BANK42  BANK43  BANK44  BANK45  BANK4
      +6  BANK47  BANK48  BANK49  BANK50  BANK51  BANK52  BANK53  BANK54
  1214 ;;      Params:         0       0       0       0       0       0       0       0       0       0       0       0       
      +0       0       0       0       0       0       0       0       0       0       0       0       0       0       0       
      +0       0       0       0       0       0       0       0       0       0       0       0       0       0       0       
      +0       0       0       0       0       0       0       0       0
  1215 ;;      Locals:         5       0       0       0       0       0       0       0       0       0       0       0       
      +0       0       0       0       0       0       0       0       0       0       0       0       0       0       0       
      +0       0       0       0       0       0       0       0       0       0       0       0       0       0       0       
      +0       0       0       0       0       0       0       0       0
  1216 ;;      Temps:          0       0       0       0       0       0       0       0       0       0       0       0       
      +0       0       0       0       0       0       0       0       0       0       0       0       0       0       0       
      +0       0       0       0       0       0       0       0       0       0       0       0       0       0       0       
      +0       0       0       0       0       0       0       0       0
  1217 ;;      Totals:         5       0       0       0       0       0       0       0       0       0       0       0       
      +0       0       0       0       0       0       0       0       0       0       0       0       0       0       0       
      +0       0       0       0       0       0       0       0       0       0       0       0       0       0       0       
      +0       0       0       0       0       0       0       0       0
  1218 ;;Total ram usage:        5 bytes
  1219 ;; Hardware stack levels used: 1
  1220 ;; Hardware stack levels required when called: 4
  1221 ;; This function calls:
  1222 ;;		_Check_Device_Reset
  1223 ;;		_ProcessBootBuffer
  1224 ;;		_UART1_Read
  1225 ;;		_UART1_Write
  1226 ;; This function is called by:
  1227 ;;		_BOOTLOADER_Initialize
  1228 ;; This function uses a non-reentrant model
  1229 ;;
  1230                           
  1231                           	psect	text10
  1232  000268                     __ptext10:
  1233                           	callstack 0
  1234  000268                     _Run_Bootloader:
  1235                           	callstack 120
  1236  000268                     l94:
  1237  000268                     l95:
  1238  000268  0102               	movlb	2	; () banked
  1239  00026A  AFB2               	btfss	178,7,b	;volatile
  1240  00026C  EF3A  F001         	goto	u581
  1241  000270  EF3C  F001         	goto	u580
  1242  000274                     u581:
  1243  000274  EF34  F001         	goto	l95
  1244  000278                     u580:
  1245  000278                     
  1246                           ; BSR set to: 2
  1247                           ;mcc_generated_files/pic18f_uart.c: 66:         Check_Device_Reset ();
  1248  000278  ECE1  F005         	call	_Check_Device_Reset	;wreg free
  1249  00027C                     
  1250                           ;mcc_generated_files/pic18f_uart.c: 71:         U1CON0bits.ABDEN = 1;
  1251  00027C  0102               	movlb	2	; () banked
  1252  00027E  8DAB               	bsf	171,6,b	;volatile
  1253                           
  1254                           ;mcc_generated_files/pic18f_uart.c: 72:         while (U1CON0bits.ABDEN == 1)
  1255  000280  EF4C  F001         	goto	l98
  1256  000284                     l99:
  1257                           
  1258                           ; BSR set to: 2
  1259                           ;mcc_generated_files/pic18f_uart.c: 73:         {;mcc_generated_files/pic18f_uart.c: 74:
      +                                       if (U1ERRIRbits.ABDOVF == 1)
  1260  000284  ABB2               	btfss	178,5,b	;volatile
  1261  000286  EF47  F001         	goto	u591
  1262  00028A  EF49  F001         	goto	u590
  1263  00028E                     u591:
  1264  00028E  EF4C  F001         	goto	l98
  1265  000292                     u590:
  1266  000292                     
  1267                           ; BSR set to: 2
  1268                           ;mcc_generated_files/pic18f_uart.c: 75:             {;mcc_generated_files/pic18f_uart.c:
      +                           76:                 U1CON0bits.ABDEN = 0;
  1269  000292  9DAB               	bcf	171,6,b	;volatile
  1270                           
  1271                           ;mcc_generated_files/pic18f_uart.c: 77:                 U1ERRIRbits.ABDOVF = 0;
  1272  000294  9BB2               	bcf	178,5,b	;volatile
  1273                           
  1274                           ;mcc_generated_files/pic18f_uart.c: 78:                 U1CON0bits.ABDEN = 1;
  1275  000296  8DAB               	bsf	171,6,b	;volatile
  1276  000298                     l98:
  1277                           
  1278                           ; BSR set to: 2
  1279                           ;mcc_generated_files/pic18f_uart.c: 72:         while (U1CON0bits.ABDEN == 1)
  1280  000298  BDAB               	btfsc	171,6,b	;volatile
  1281  00029A  EF51  F001         	goto	u601
  1282  00029E  EF53  F001         	goto	u600
  1283  0002A2                     u601:
  1284  0002A2  EF42  F001         	goto	l99
  1285  0002A6                     u600:
  1286  0002A6                     
  1287                           ; BSR set to: 2
  1288                           ;mcc_generated_files/pic18f_uart.c: 86:         index = 0;
  1289  0002A6  0E00               	movlw	0
  1290  0002A8  6E28               	movwf	(Run_Bootloader@index+1)^(0+1280),c	;volatile
  1291  0002AA  0E00               	movlw	0
  1292  0002AC  6E27               	movwf	Run_Bootloader@index^(0+1280),c	;volatile
  1293                           
  1294                           ;mcc_generated_files/pic18f_uart.c: 87:         msg_length = 9;
  1295  0002AE  0E00               	movlw	0
  1296  0002B0  6E26               	movwf	(Run_Bootloader@msg_length+1)^(0+1280),c
  1297  0002B2  0E09               	movlw	9
  1298  0002B4  6E25               	movwf	Run_Bootloader@msg_length^(0+1280),c
  1299                           
  1300                           ;mcc_generated_files/pic18f_uart.c: 88:         uint8_t ch;;mcc_generated_files/pic18f_u
      +                          art.c: 90:         while (index < msg_length)
  1301  0002B6  EF9C  F001         	goto	l1962
  1302  0002BA                     l1946:
  1303                           
  1304                           ;mcc_generated_files/pic18f_uart.c: 91:         {;mcc_generated_files/pic18f_uart.c: 92:
      +                                       ch = UART1_Read();
  1305  0002BA  ECF8  F003         	call	_UART1_Read	;wreg free
  1306  0002BE  6E24               	movwf	Run_Bootloader@ch^(0+1280),c
  1307  0002C0                     
  1308                           ;mcc_generated_files/pic18f_uart.c: 93:             frame.buffer [index ++] = ch;
  1309  0002C0  0EF7               	movlw	low _frame
  1310  0002C2  2427               	addwf	Run_Bootloader@index^(0+1280),w,c	;volatile
  1311  0002C4  6ED9               	movwf	fsr2l,c
  1312  0002C6  0E35               	movlw	high _frame
  1313  0002C8  2028               	addwfc	(Run_Bootloader@index+1)^(0+1280),w,c	;volatile
  1314  0002CA  6EDA               	movwf	fsr2h,c
  1315  0002CC  0061  F490  F4DF   	movff	Run_Bootloader@ch,indf2
  1316  0002D2  4A27               	infsnz	Run_Bootloader@index^(0+1280),f,c	;volatile
  1317  0002D4  2A28               	incf	(Run_Bootloader@index+1)^(0+1280),f,c	;volatile
  1318  0002D6                     
  1319                           ;mcc_generated_files/pic18f_uart.c: 94:             if (index == 4)
  1320  0002D6  0E04               	movlw	4
  1321  0002D8  1827               	xorwf	Run_Bootloader@index^(0+1280),w,c	;volatile
  1322  0002DA  1028               	iorwf	(Run_Bootloader@index+1)^(0+1280),w,c	;volatile
  1323  0002DC  A4D8               	btfss	status,2,c
  1324  0002DE  EF73  F001         	goto	u611
  1325  0002E2  EF75  F001         	goto	u610
  1326  0002E6                     u611:
  1327  0002E6  EF9C  F001         	goto	l1962
  1328  0002EA                     u610:
  1329  0002EA                     
  1330                           ;mcc_generated_files/pic18f_uart.c: 95:             {;mcc_generated_files/pic18f_uart.c:
      +                           96:                 if ((frame.command == 2)
  1331  0002EA  006D  F7DC  F4E8   	movff	_frame,wreg
  1332  0002F0  0A02               	xorlw	2
  1333  0002F2  B4D8               	btfsc	status,2,c
  1334  0002F4  EF7E  F001         	goto	u621
  1335  0002F8  EF80  F001         	goto	u620
  1336  0002FC                     u621:
  1337  0002FC  EF96  F001         	goto	l1960
  1338  000300                     u620:
  1339  000300  006D  F7DC  F4E8   	movff	_frame,wreg
  1340  000306  0A05               	xorlw	5
  1341  000308  B4D8               	btfsc	status,2,c
  1342  00030A  EF89  F001         	goto	u631
  1343  00030E  EF8B  F001         	goto	u630
  1344  000312                     u631:
  1345  000312  EF96  F001         	goto	l1960
  1346  000316                     u630:
  1347  000316  006D  F7DC  F4E8   	movff	_frame,wreg
  1348  00031C  0A07               	xorlw	7
  1349  00031E  A4D8               	btfss	status,2,c
  1350  000320  EF94  F001         	goto	u641
  1351  000324  EF96  F001         	goto	u640
  1352  000328                     u641:
  1353  000328  EF9C  F001         	goto	l1962
  1354  00032C                     u640:
  1355  00032C                     l1960:
  1356                           
  1357                           ;mcc_generated_files/pic18f_uart.c: 99:                 {;mcc_generated_files/pic18f_uar
      +                          t.c: 100:                     msg_length += frame.data_length;
  1358  00032C  EE2D  F1F8         	lfsr	2,_frame+1
  1359  000330  50DE               	movf	postinc2,w,c
  1360  000332  2625               	addwf	Run_Bootloader@msg_length^(0+1280),f,c
  1361  000334  50DD               	movf	postdec2,w,c
  1362  000336  2226               	addwfc	(Run_Bootloader@msg_length+1)^(0+1280),f,c
  1363  000338                     l1962:
  1364                           
  1365                           ;mcc_generated_files/pic18f_uart.c: 90:         while (index < msg_length)
  1366  000338  5025               	movf	Run_Bootloader@msg_length^(0+1280),w,c
  1367  00033A  5C27               	subwf	Run_Bootloader@index^(0+1280),w,c	;volatile
  1368  00033C  5026               	movf	(Run_Bootloader@msg_length+1)^(0+1280),w,c
  1369  00033E  5828               	subwfb	(Run_Bootloader@index+1)^(0+1280),w,c	;volatile
  1370  000340  A0D8               	btfss	status,0,c
  1371  000342  EFA5  F001         	goto	u651
  1372  000346  EFA7  F001         	goto	u650
  1373  00034A                     u651:
  1374  00034A  EF5D  F001         	goto	l1946
  1375  00034E                     u650:
  1376  00034E                     
  1377                           ;mcc_generated_files/pic18f_uart.c: 105:         msg_length = ProcessBootBuffer ();
  1378  00034E  EC64  F002         	call	_ProcessBootBuffer	;wreg free
  1379  000352  C51E  F525         	movff	?_ProcessBootBuffer,Run_Bootloader@msg_length
  1380  000356  C51F  F526         	movff	?_ProcessBootBuffer+1,Run_Bootloader@msg_length+1
  1381  00035A                     
  1382                           ;mcc_generated_files/pic18f_uart.c: 110:         UART1_Write(0x55);
  1383  00035A  0E55               	movlw	85
  1384  00035C  ECCA  F005         	call	_UART1_Write
  1385  000360                     
  1386                           ;mcc_generated_files/pic18f_uart.c: 111:         index = 0;
  1387  000360  0E00               	movlw	0
  1388  000362  6E28               	movwf	(Run_Bootloader@index+1)^(0+1280),c	;volatile
  1389  000364  0E00               	movlw	0
  1390  000366  6E27               	movwf	Run_Bootloader@index^(0+1280),c	;volatile
  1391                           
  1392                           ;mcc_generated_files/pic18f_uart.c: 112:         while (index < msg_length)
  1393  000368  EFC1  F001         	goto	l1974
  1394  00036C                     l1970:
  1395                           
  1396                           ;mcc_generated_files/pic18f_uart.c: 113:         {;mcc_generated_files/pic18f_uart.c: 11
      +                          4:             UART1_Write (frame.buffer [index++]);
  1397  00036C  0EF7               	movlw	low _frame
  1398  00036E  2427               	addwf	Run_Bootloader@index^(0+1280),w,c	;volatile
  1399  000370  6ED9               	movwf	fsr2l,c
  1400  000372  0E35               	movlw	high _frame
  1401  000374  2028               	addwfc	(Run_Bootloader@index+1)^(0+1280),w,c	;volatile
  1402  000376  6EDA               	movwf	fsr2h,c
  1403  000378  50DF               	movf	indf2,w,c
  1404  00037A  ECCA  F005         	call	_UART1_Write
  1405  00037E  4A27               	infsnz	Run_Bootloader@index^(0+1280),f,c	;volatile
  1406  000380  2A28               	incf	(Run_Bootloader@index+1)^(0+1280),f,c	;volatile
  1407  000382                     l1974:
  1408                           
  1409                           ;mcc_generated_files/pic18f_uart.c: 112:         while (index < msg_length)
  1410  000382  5025               	movf	Run_Bootloader@msg_length^(0+1280),w,c
  1411  000384  5C27               	subwf	Run_Bootloader@index^(0+1280),w,c	;volatile
  1412  000386  5026               	movf	(Run_Bootloader@msg_length+1)^(0+1280),w,c
  1413  000388  5828               	subwfb	(Run_Bootloader@index+1)^(0+1280),w,c	;volatile
  1414  00038A  A0D8               	btfss	status,0,c
  1415  00038C  EFCA  F001         	goto	u661
  1416  000390  EFCC  F001         	goto	u660
  1417  000394                     u661:
  1418  000394  EFB6  F001         	goto	l1970
  1419  000398                     u660:
  1420  000398  EF34  F001         	goto	l94
  1421  00039C  0012               	return		;funcret
  1422  00039E                     __end_of_Run_Bootloader:
  1423                           	callstack 0
  1424                           
  1425 ;; *************** function _UART1_Write *****************
  1426 ;; Defined at:
  1427 ;;		line 170 in file "mcc_generated_files/uart1.c"
  1428 ;; Parameters:    Size  Location     Type
  1429 ;;  txData          1    wreg     unsigned char 
  1430 ;; Auto vars:     Size  Location     Type
  1431 ;;  txData          1    0[COMRAM] unsigned char 
  1432 ;; Return value:  Size  Location     Type
  1433 ;;                  1    wreg      void 
  1434 ;; Registers used:
  1435 ;;		wreg
  1436 ;; Tracked objects:
  1437 ;;		On entry : 0/0
  1438 ;;		On exit  : 0/0
  1439 ;;		Unchanged: 0/0
  1440 ;; Data sizes:     COMRAM   BANK5   BANK6   BANK7   BANK8   BANK9  BANK10  BANK11  BANK12  BANK13  BANK14  BANK15  BANK1
      +6  BANK17  BANK18  BANK19  BANK20  BANK21  BANK22  BANK23  BANK24  BANK25  BANK26  BANK27  BANK28  BANK29  BANK30  BANK3
      +1  BANK32  BANK33  BANK34  BANK35  BANK36  BANK37  BANK38  BANK39  BANK40  BANK41  BANK42  BANK43  BANK44  BANK45  BANK4
      +6  BANK47  BANK48  BANK49  BANK50  BANK51  BANK52  BANK53  BANK54
  1441 ;;      Params:         0       0       0       0       0       0       0       0       0       0       0       0       
      +0       0       0       0       0       0       0       0       0       0       0       0       0       0       0       
      +0       0       0       0       0       0       0       0       0       0       0       0       0       0       0       
      +0       0       0       0       0       0       0       0       0
  1442 ;;      Locals:         1       0       0       0       0       0       0       0       0       0       0       0       
      +0       0       0       0       0       0       0       0       0       0       0       0       0       0       0       
      +0       0       0       0       0       0       0       0       0       0       0       0       0       0       0       
      +0       0       0       0       0       0       0       0       0
  1443 ;;      Temps:          0       0       0       0       0       0       0       0       0       0       0       0       
      +0       0       0       0       0       0       0       0       0       0       0       0       0       0       0       
      +0       0       0       0       0       0       0       0       0       0       0       0       0       0       0       
      +0       0       0       0       0       0       0       0       0
  1444 ;;      Totals:         1       0       0       0       0       0       0       0       0       0       0       0       
      +0       0       0       0       0       0       0       0       0       0       0       0       0       0       0       
      +0       0       0       0       0       0       0       0       0       0       0       0       0       0       0       
      +0       0       0       0       0       0       0       0       0
  1445 ;;Total ram usage:        1 bytes
  1446 ;; Hardware stack levels used: 1
  1447 ;; Hardware stack levels required when called: 1
  1448 ;; This function calls:
  1449 ;;		Nothing
  1450 ;; This function is called by:
  1451 ;;		_Run_Bootloader
  1452 ;; This function uses a non-reentrant model
  1453 ;;
  1454                           
  1455                           	psect	text11
  1456  000B94                     __ptext11:
  1457                           	callstack 0
  1458  000B94                     _UART1_Write:
  1459                           	callstack 122
  1460                           
  1461                           ;incstack = 0
  1462                           ;UART1_Write@txData stored from wreg
  1463  000B94  6E02               	movwf	UART1_Write@txData^(0+1280),c
  1464  000B96                     l491:
  1465                           
  1466                           ;mcc_generated_files/uart1.c: 172:     while(0 == PIR4bits.U1TXIF)
  1467  000B96  A2B2               	btfss	178,1,c	;volatile
  1468  000B98  EFD0  F005         	goto	u211
  1469  000B9C  EFD2  F005         	goto	u210
  1470  000BA0                     u211:
  1471  000BA0  EFCB  F005         	goto	l491
  1472  000BA4                     u210:
  1473  000BA4                     
  1474                           ;mcc_generated_files/uart1.c: 176:     U1TXB = txData;
  1475  000BA4  0061  F408  F2A3   	movff	UART1_Write@txData,675	;volatile
  1476  000BAA  0012               	return		;funcret
  1477  000BAC                     __end_of_UART1_Write:
  1478                           	callstack 0
  1479                           
  1480 ;; *************** function _UART1_Read *****************
  1481 ;; Defined at:
  1482 ;;		line 145 in file "mcc_generated_files/uart1.c"
  1483 ;; Parameters:    Size  Location     Type
  1484 ;;		None
  1485 ;; Auto vars:     Size  Location     Type
  1486 ;;		None
  1487 ;; Return value:  Size  Location     Type
  1488 ;;                  1    wreg      unsigned char 
  1489 ;; Registers used:
  1490 ;;		wreg, status,2, pclath, tosl, cstack
  1491 ;; Tracked objects:
  1492 ;;		On entry : 0/0
  1493 ;;		On exit  : 0/0
  1494 ;;		Unchanged: 0/0
  1495 ;; Data sizes:     COMRAM   BANK5   BANK6   BANK7   BANK8   BANK9  BANK10  BANK11  BANK12  BANK13  BANK14  BANK15  BANK1
      +6  BANK17  BANK18  BANK19  BANK20  BANK21  BANK22  BANK23  BANK24  BANK25  BANK26  BANK27  BANK28  BANK29  BANK30  BANK3
      +1  BANK32  BANK33  BANK34  BANK35  BANK36  BANK37  BANK38  BANK39  BANK40  BANK41  BANK42  BANK43  BANK44  BANK45  BANK4
      +6  BANK47  BANK48  BANK49  BANK50  BANK51  BANK52  BANK53  BANK54
  1496 ;;      Params:         0       0       0       0       0       0       0       0       0       0       0       0       
      +0       0       0       0       0       0       0       0       0       0       0       0       0       0       0       
      +0       0       0       0       0       0       0       0       0       0       0       0       0       0       0       
      +0       0       0       0       0       0       0       0       0
  1497 ;;      Locals:         0       0       0       0       0       0       0       0       0       0       0       0       
      +0       0       0       0       0       0       0       0       0       0       0       0       0       0       0       
      +0       0       0       0       0       0       0       0       0       0       0       0       0       0       0       
      +0       0       0       0       0       0       0       0       0
  1498 ;;      Temps:          0       0       0       0       0       0       0       0       0       0       0       0       
      +0       0       0       0       0       0       0       0       0       0       0       0       0       0       0       
      +0       0       0       0       0       0       0       0       0       0       0       0       0       0       0       
      +0       0       0       0       0       0       0       0       0
  1499 ;;      Totals:         0       0       0       0       0       0       0       0       0       0       0       0       
      +0       0       0       0       0       0       0       0       0       0       0       0       0       0       0       
      +0       0       0       0       0       0       0       0       0       0       0       0       0       0       0       
      +0       0       0       0       0       0       0       0       0
  1500 ;;Total ram usage:        0 bytes
  1501 ;; Hardware stack levels used: 1
  1502 ;; Hardware stack levels required when called: 2
  1503 ;; This function calls:
  1504 ;;		Absolute function
  1505 ;;		_UART1_DefaultErrorHandler
  1506 ;;		_UART1_DefaultFramingErrorHandler
  1507 ;;		_UART1_DefaultOverrunErrorHandler
  1508 ;; This function is called by:
  1509 ;;		_Run_Bootloader
  1510 ;; This function uses a non-reentrant model
  1511 ;;
  1512                           
  1513                           	psect	text12
  1514  0007F0                     __ptext12:
  1515                           	callstack 0
  1516  0007F0                     _UART1_Read:
  1517                           	callstack 121
  1518  0007F0                     l482:
  1519                           
  1520                           ;mcc_generated_files/uart1.c: 147:     while(!PIR4bits.U1RXIF)
  1521  0007F0  A0B2               	btfss	178,0,c	;volatile
  1522  0007F2  EFFD  F003         	goto	u141
  1523  0007F6  EFFF  F003         	goto	u140
  1524  0007FA                     u141:
  1525  0007FA  EFF8  F003         	goto	l482
  1526  0007FE                     u140:
  1527  0007FE                     
  1528                           ;mcc_generated_files/uart1.c: 151:     uart1RxLastError.status = 0;
  1529  0007FE  0E00               	movlw	0
  1530  000800  6E33               	movwf	_uart1RxLastError^(0+1280),c	;volatile
  1531  000802                     
  1532                           ;mcc_generated_files/uart1.c: 153:     if(U1ERRIRbits.FERIF){
  1533  000802  0102               	movlb	2	; () banked
  1534  000804  A7B2               	btfss	178,3,b	;volatile
  1535  000806  EF07  F004         	goto	u151
  1536  00080A  EF09  F004         	goto	u150
  1537  00080E                     u151:
  1538  00080E  EF17  F004         	goto	l1394
  1539  000812                     u150:
  1540  000812                     
  1541                           ; BSR set to: 2
  1542                           ;mcc_generated_files/uart1.c: 154:         uart1RxLastError.ferr = 1;
  1543  000812  8233               	bsf	_uart1RxLastError^(0+1280),1,c	;volatile
  1544  000814                     
  1545                           ; BSR set to: 2
  1546                           ;mcc_generated_files/uart1.c: 155:         UART1_FramingErrorHandler();
  1547  000814  D802               	call	u168
  1548  000816  EF17  F004         	goto	u169
  1549  00081A                     u168:
  1550  00081A  0005               	push	
  1551  00081C  6EFA               	movwf	pclath,c
  1552  00081E  502D               	movf	_UART1_FramingErrorHandler^(0+1280),w,c
  1553  000820  6EFD               	movwf	tosl,c
  1554  000822  502E               	movf	(_UART1_FramingErrorHandler+1)^(0+1280),w,c
  1555  000824  6EFE               	movwf	tosh,c
  1556  000826  50F8               	movf	tblptru,w,c
  1557  000828  6EFF               	movwf	tosu,c
  1558  00082A  50FA               	movf	pclath,w,c
  1559  00082C  0012               	return		;indir
  1560  00082E                     u169:
  1561  00082E                     l1394:
  1562                           
  1563                           ;mcc_generated_files/uart1.c: 158:     if(U1ERRIRbits.RXFOIF){
  1564  00082E  0102               	movlb	2	; () banked
  1565  000830  A3B2               	btfss	178,1,b	;volatile
  1566  000832  EF1D  F004         	goto	u171
  1567  000836  EF1F  F004         	goto	u170
  1568  00083A                     u171:
  1569  00083A  EF2D  F004         	goto	l1400
  1570  00083E                     u170:
  1571  00083E                     
  1572                           ; BSR set to: 2
  1573                           ;mcc_generated_files/uart1.c: 159:         uart1RxLastError.oerr = 1;
  1574  00083E  8433               	bsf	_uart1RxLastError^(0+1280),2,c	;volatile
  1575  000840                     
  1576                           ; BSR set to: 2
  1577                           ;mcc_generated_files/uart1.c: 160:         UART1_OverrunErrorHandler();
  1578  000840  D802               	call	u188
  1579  000842  EF2D  F004         	goto	u189
  1580  000846                     u188:
  1581  000846  0005               	push	
  1582  000848  6EFA               	movwf	pclath,c
  1583  00084A  502B               	movf	_UART1_OverrunErrorHandler^(0+1280),w,c
  1584  00084C  6EFD               	movwf	tosl,c
  1585  00084E  502C               	movf	(_UART1_OverrunErrorHandler+1)^(0+1280),w,c
  1586  000850  6EFE               	movwf	tosh,c
  1587  000852  50F8               	movf	tblptru,w,c
  1588  000854  6EFF               	movwf	tosu,c
  1589  000856  50FA               	movf	pclath,w,c
  1590  000858  0012               	return		;indir
  1591  00085A                     u189:
  1592  00085A                     l1400:
  1593                           
  1594                           ;mcc_generated_files/uart1.c: 163:     if(uart1RxLastError.status){
  1595  00085A  5033               	movf	_uart1RxLastError^(0+1280),w,c	;volatile
  1596  00085C  B4D8               	btfsc	status,2,c
  1597  00085E  EF33  F004         	goto	u191
  1598  000862  EF35  F004         	goto	u190
  1599  000866                     u191:
  1600  000866  EF42  F004         	goto	l1404
  1601  00086A                     u190:
  1602  00086A                     
  1603                           ;mcc_generated_files/uart1.c: 164:         UART1_ErrorHandler();
  1604  00086A  D802               	call	u208
  1605  00086C  EF42  F004         	goto	u209
  1606  000870                     u208:
  1607  000870  0005               	push	
  1608  000872  6EFA               	movwf	pclath,c
  1609  000874  5029               	movf	_UART1_ErrorHandler^(0+1280),w,c
  1610  000876  6EFD               	movwf	tosl,c
  1611  000878  502A               	movf	(_UART1_ErrorHandler+1)^(0+1280),w,c
  1612  00087A  6EFE               	movwf	tosh,c
  1613  00087C  50F8               	movf	tblptru,w,c
  1614  00087E  6EFF               	movwf	tosu,c
  1615  000880  50FA               	movf	pclath,w,c
  1616  000882  0012               	return		;indir
  1617  000884                     u209:
  1618  000884                     l1404:
  1619                           
  1620                           ;mcc_generated_files/uart1.c: 167:     return U1RXB;
  1621  000884  0102               	movlb	2	; () banked
  1622  000886  51A1               	movf	161,w,b	;volatile
  1623  000888                     
  1624                           ; BSR set to: 2
  1625  000888  0012               	return		;funcret
  1626  00088A                     __end_of_UART1_Read:
  1627                           	callstack 0
  1628                           
  1629 ;; *************** function _UART1_DefaultOverrunErrorHandler *****************
  1630 ;; Defined at:
  1631 ;;		line 185 in file "mcc_generated_files/uart1.c"
  1632 ;; Parameters:    Size  Location     Type
  1633 ;;		None
  1634 ;; Auto vars:     Size  Location     Type
  1635 ;;		None
  1636 ;; Return value:  Size  Location     Type
  1637 ;;                  1    wreg      void 
  1638 ;; Registers used:
  1639 ;;		None
  1640 ;; Tracked objects:
  1641 ;;		On entry : 0/0
  1642 ;;		On exit  : 0/0
  1643 ;;		Unchanged: 0/0
  1644 ;; Data sizes:     COMRAM   BANK5   BANK6   BANK7   BANK8   BANK9  BANK10  BANK11  BANK12  BANK13  BANK14  BANK15  BANK1
      +6  BANK17  BANK18  BANK19  BANK20  BANK21  BANK22  BANK23  BANK24  BANK25  BANK26  BANK27  BANK28  BANK29  BANK30  BANK3
      +1  BANK32  BANK33  BANK34  BANK35  BANK36  BANK37  BANK38  BANK39  BANK40  BANK41  BANK42  BANK43  BANK44  BANK45  BANK4
      +6  BANK47  BANK48  BANK49  BANK50  BANK51  BANK52  BANK53  BANK54
  1645 ;;      Params:         0       0       0       0       0       0       0       0       0       0       0       0       
      +0       0       0       0       0       0       0       0       0       0       0       0       0       0       0       
      +0       0       0       0       0       0       0       0       0       0       0       0       0       0       0       
      +0       0       0       0       0       0       0       0       0
  1646 ;;      Locals:         0       0       0       0       0       0       0       0       0       0       0       0       
      +0       0       0       0       0       0       0       0       0       0       0       0       0       0       0       
      +0       0       0       0       0       0       0       0       0       0       0       0       0       0       0       
      +0       0       0       0       0       0       0       0       0
  1647 ;;      Temps:          0       0       0       0       0       0       0       0       0       0       0       0       
      +0       0       0       0       0       0       0       0       0       0       0       0       0       0       0       
      +0       0       0       0       0       0       0       0       0       0       0       0       0       0       0       
      +0       0       0       0       0       0       0       0       0
  1648 ;;      Totals:         0       0       0       0       0       0       0       0       0       0       0       0       
      +0       0       0       0       0       0       0       0       0       0       0       0       0       0       0       
      +0       0       0       0       0       0       0       0       0       0       0       0       0       0       0       
      +0       0       0       0       0       0       0       0       0
  1649 ;;Total ram usage:        0 bytes
  1650 ;; Hardware stack levels used: 1
  1651 ;; Hardware stack levels required when called: 1
  1652 ;; This function calls:
  1653 ;;		Nothing
  1654 ;; This function is called by:
  1655 ;;		_UART1_Initialize
  1656 ;;		_UART1_Read
  1657 ;; This function uses a non-reentrant model
  1658 ;;
  1659                           
  1660                           	psect	text13
  1661  000C18                     __ptext13:
  1662                           	callstack 0
  1663  000C18                     _UART1_DefaultOverrunErrorHandler:
  1664                           	callstack 121
  1665  000C18  0012               	return		;funcret
  1666  000C1A                     __end_of_UART1_DefaultOverrunErrorHandler:
  1667                           	callstack 0
  1668                           
  1669 ;; *************** function _UART1_DefaultFramingErrorHandler *****************
  1670 ;; Defined at:
  1671 ;;		line 183 in file "mcc_generated_files/uart1.c"
  1672 ;; Parameters:    Size  Location     Type
  1673 ;;		None
  1674 ;; Auto vars:     Size  Location     Type
  1675 ;;		None
  1676 ;; Return value:  Size  Location     Type
  1677 ;;                  1    wreg      void 
  1678 ;; Registers used:
  1679 ;;		None
  1680 ;; Tracked objects:
  1681 ;;		On entry : 0/0
  1682 ;;		On exit  : 0/0
  1683 ;;		Unchanged: 0/0
  1684 ;; Data sizes:     COMRAM   BANK5   BANK6   BANK7   BANK8   BANK9  BANK10  BANK11  BANK12  BANK13  BANK14  BANK15  BANK1
      +6  BANK17  BANK18  BANK19  BANK20  BANK21  BANK22  BANK23  BANK24  BANK25  BANK26  BANK27  BANK28  BANK29  BANK30  BANK3
      +1  BANK32  BANK33  BANK34  BANK35  BANK36  BANK37  BANK38  BANK39  BANK40  BANK41  BANK42  BANK43  BANK44  BANK45  BANK4
      +6  BANK47  BANK48  BANK49  BANK50  BANK51  BANK52  BANK53  BANK54
  1685 ;;      Params:         0       0       0       0       0       0       0       0       0       0       0       0       
      +0       0       0       0       0       0       0       0       0       0       0       0       0       0       0       
      +0       0       0       0       0       0       0       0       0       0       0       0       0       0       0       
      +0       0       0       0       0       0       0       0       0
  1686 ;;      Locals:         0       0       0       0       0       0       0       0       0       0       0       0       
      +0       0       0       0       0       0       0       0       0       0       0       0       0       0       0       
      +0       0       0       0       0       0       0       0       0       0       0       0       0       0       0       
      +0       0       0       0       0       0       0       0       0
  1687 ;;      Temps:          0       0       0       0       0       0       0       0       0       0       0       0       
      +0       0       0       0       0       0       0       0       0       0       0       0       0       0       0       
      +0       0       0       0       0       0       0       0       0       0       0       0       0       0       0       
      +0       0       0       0       0       0       0       0       0
  1688 ;;      Totals:         0       0       0       0       0       0       0       0       0       0       0       0       
      +0       0       0       0       0       0       0       0       0       0       0       0       0       0       0       
      +0       0       0       0       0       0       0       0       0       0       0       0       0       0       0       
      +0       0       0       0       0       0       0       0       0
  1689 ;;Total ram usage:        0 bytes
  1690 ;; Hardware stack levels used: 1
  1691 ;; Hardware stack levels required when called: 1
  1692 ;; This function calls:
  1693 ;;		Nothing
  1694 ;; This function is called by:
  1695 ;;		_UART1_Initialize
  1696 ;;		_UART1_Read
  1697 ;; This function uses a non-reentrant model
  1698 ;;
  1699                           
  1700                           	psect	text14
  1701  000C1A                     __ptext14:
  1702                           	callstack 0
  1703  000C1A                     _UART1_DefaultFramingErrorHandler:
  1704                           	callstack 121
  1705  000C1A  0012               	return		;funcret
  1706  000C1C                     __end_of_UART1_DefaultFramingErrorHandler:
  1707                           	callstack 0
  1708                           
  1709 ;; *************** function _UART1_DefaultErrorHandler *****************
  1710 ;; Defined at:
  1711 ;;		line 187 in file "mcc_generated_files/uart1.c"
  1712 ;; Parameters:    Size  Location     Type
  1713 ;;		None
  1714 ;; Auto vars:     Size  Location     Type
  1715 ;;		None
  1716 ;; Return value:  Size  Location     Type
  1717 ;;                  1    wreg      void 
  1718 ;; Registers used:
  1719 ;;		None
  1720 ;; Tracked objects:
  1721 ;;		On entry : 0/0
  1722 ;;		On exit  : 0/0
  1723 ;;		Unchanged: 0/0
  1724 ;; Data sizes:     COMRAM   BANK5   BANK6   BANK7   BANK8   BANK9  BANK10  BANK11  BANK12  BANK13  BANK14  BANK15  BANK1
      +6  BANK17  BANK18  BANK19  BANK20  BANK21  BANK22  BANK23  BANK24  BANK25  BANK26  BANK27  BANK28  BANK29  BANK30  BANK3
      +1  BANK32  BANK33  BANK34  BANK35  BANK36  BANK37  BANK38  BANK39  BANK40  BANK41  BANK42  BANK43  BANK44  BANK45  BANK4
      +6  BANK47  BANK48  BANK49  BANK50  BANK51  BANK52  BANK53  BANK54
  1725 ;;      Params:         0       0       0       0       0       0       0       0       0       0       0       0       
      +0       0       0       0       0       0       0       0       0       0       0       0       0       0       0       
      +0       0       0       0       0       0       0       0       0       0       0       0       0       0       0       
      +0       0       0       0       0       0       0       0       0
  1726 ;;      Locals:         0       0       0       0       0       0       0       0       0       0       0       0       
      +0       0       0       0       0       0       0       0       0       0       0       0       0       0       0       
      +0       0       0       0       0       0       0       0       0       0       0       0       0       0       0       
      +0       0       0       0       0       0       0       0       0
  1727 ;;      Temps:          0       0       0       0       0       0       0       0       0       0       0       0       
      +0       0       0       0       0       0       0       0       0       0       0       0       0       0       0       
      +0       0       0       0       0       0       0       0       0       0       0       0       0       0       0       
      +0       0       0       0       0       0       0       0       0
  1728 ;;      Totals:         0       0       0       0       0       0       0       0       0       0       0       0       
      +0       0       0       0       0       0       0       0       0       0       0       0       0       0       0       
      +0       0       0       0       0       0       0       0       0       0       0       0       0       0       0       
      +0       0       0       0       0       0       0       0       0
  1729 ;;Total ram usage:        0 bytes
  1730 ;; Hardware stack levels used: 1
  1731 ;; Hardware stack levels required when called: 1
  1732 ;; This function calls:
  1733 ;;		Nothing
  1734 ;; This function is called by:
  1735 ;;		_UART1_Initialize
  1736 ;;		_UART1_Read
  1737 ;; This function uses a non-reentrant model
  1738 ;;
  1739                           
  1740                           	psect	text15
  1741  000C1C                     __ptext15:
  1742                           	callstack 0
  1743  000C1C                     _UART1_DefaultErrorHandler:
  1744                           	callstack 121
  1745  000C1C  0012               	return		;funcret
  1746  000C1E                     __end_of_UART1_DefaultErrorHandler:
  1747                           	callstack 0
  1748                           
  1749 ;; *************** function _ProcessBootBuffer *****************
  1750 ;; Defined at:
  1751 ;;		line 177 in file "mcc_generated_files/pic18f_bootload.c"
  1752 ;; Parameters:    Size  Location     Type
  1753 ;;		None
  1754 ;; Auto vars:     Size  Location     Type
  1755 ;;  len             2   32[COMRAM] unsigned short 
  1756 ;; Return value:  Size  Location     Type
  1757 ;;                  2   28[COMRAM] unsigned short 
  1758 ;; Registers used:
  1759 ;;		wreg, fsr1l, fsr1h, fsr2l, fsr2h, status,2, status,0, cstack
  1760 ;; Tracked objects:
  1761 ;;		On entry : 0/0
  1762 ;;		On exit  : 0/0
  1763 ;;		Unchanged: 0/0
  1764 ;; Data sizes:     COMRAM   BANK5   BANK6   BANK7   BANK8   BANK9  BANK10  BANK11  BANK12  BANK13  BANK14  BANK15  BANK1
      +6  BANK17  BANK18  BANK19  BANK20  BANK21  BANK22  BANK23  BANK24  BANK25  BANK26  BANK27  BANK28  BANK29  BANK30  BANK3
      +1  BANK32  BANK33  BANK34  BANK35  BANK36  BANK37  BANK38  BANK39  BANK40  BANK41  BANK42  BANK43  BANK44  BANK45  BANK4
      +6  BANK47  BANK48  BANK49  BANK50  BANK51  BANK52  BANK53  BANK54
  1765 ;;      Params:         2       0       0       0       0       0       0       0       0       0       0       0       
      +0       0       0       0       0       0       0       0       0       0       0       0       0       0       0       
      +0       0       0       0       0       0       0       0       0       0       0       0       0       0       0       
      +0       0       0       0       0       0       0       0       0
  1766 ;;      Locals:         2       0       0       0       0       0       0       0       0       0       0       0       
      +0       0       0       0       0       0       0       0       0       0       0       0       0       0       0       
      +0       0       0       0       0       0       0       0       0       0       0       0       0       0       0       
      +0       0       0       0       0       0       0       0       0
  1767 ;;      Temps:          2       0       0       0       0       0       0       0       0       0       0       0       
      +0       0       0       0       0       0       0       0       0       0       0       0       0       0       0       
      +0       0       0       0       0       0       0       0       0       0       0       0       0       0       0       
      +0       0       0       0       0       0       0       0       0
  1768 ;;      Totals:         6       0       0       0       0       0       0       0       0       0       0       0       
      +0       0       0       0       0       0       0       0       0       0       0       0       0       0       0       
      +0       0       0       0       0       0       0       0       0       0       0       0       0       0       0       
      +0       0       0       0       0       0       0       0       0
  1769 ;;Total ram usage:        6 bytes
  1770 ;; Hardware stack levels used: 1
  1771 ;; Hardware stack levels required when called: 3
  1772 ;; This function calls:
  1773 ;;		_Calc_Checksum
  1774 ;;		_Erase_Flash
  1775 ;;		_Get_Version_Data
  1776 ;;		_Read_Config
  1777 ;;		_Write_Config
  1778 ;;		_Write_Flash
  1779 ;; This function is called by:
  1780 ;;		_Run_Bootloader
  1781 ;; This function uses a non-reentrant model
  1782 ;;
  1783                           
  1784                           	psect	text16
  1785  0004C8                     __ptext16:
  1786                           	callstack 0
  1787  0004C8                     _ProcessBootBuffer:
  1788                           	callstack 120
  1789  0004C8                     
  1790                           ;mcc_generated_files/pic18f_bootload.c: 179:     uint16_t len;;mcc_generated_files/pic18
      +                          f_bootload.c: 180:     EE_Key_1 = frame.EE_key_1;
  1791  0004C8  006D  F7E8  F500   	movff	_frame+3,1280
  1792                           
  1793                           ;mcc_generated_files/pic18f_bootload.c: 181:     EE_Key_2 = frame.EE_key_2;
  1794  0004CE  006D  F7EC  F501   	movff	_frame+4,1281
  1795                           
  1796                           ;mcc_generated_files/pic18f_bootload.c: 184:     switch (frame.command)
  1797  0004D4  EFB2  F002         	goto	l1932
  1798  0004D8                     l1916:
  1799                           
  1800                           ;mcc_generated_files/pic18f_bootload.c: 187:         len = Get_Version_Data();
  1801  0004D8  EC51  F003         	call	_Get_Version_Data	;wreg free
  1802  0004DC  C502  F522         	movff	?_Get_Version_Data,ProcessBootBuffer@len
  1803  0004E0  C503  F523         	movff	?_Get_Version_Data+1,ProcessBootBuffer@len+1
  1804                           
  1805                           ;mcc_generated_files/pic18f_bootload.c: 188:         break;
  1806  0004E4  EFDD  F002         	goto	l198
  1807  0004E8                     l1918:
  1808                           
  1809                           ;mcc_generated_files/pic18f_bootload.c: 190:         len = Write_Flash();
  1810  0004E8  EC87  F000         	call	_Write_Flash	;wreg free
  1811  0004EC  C507  F522         	movff	?_Write_Flash,ProcessBootBuffer@len
  1812  0004F0  C508  F523         	movff	?_Write_Flash+1,ProcessBootBuffer@len+1
  1813                           
  1814                           ;mcc_generated_files/pic18f_bootload.c: 191:         break;
  1815  0004F4  EFDD  F002         	goto	l198
  1816  0004F8                     l1920:
  1817                           
  1818                           ;mcc_generated_files/pic18f_bootload.c: 193:         len = Erase_Flash();
  1819  0004F8  ECCF  F001         	call	_Erase_Flash	;wreg free
  1820  0004FC  C502  F522         	movff	?_Erase_Flash,ProcessBootBuffer@len
  1821  000500  C503  F523         	movff	?_Erase_Flash+1,ProcessBootBuffer@len+1
  1822                           
  1823                           ;mcc_generated_files/pic18f_bootload.c: 194:         break;
  1824  000504  EFDD  F002         	goto	l198
  1825  000508                     l1922:
  1826                           
  1827                           ;mcc_generated_files/pic18f_bootload.c: 196:         len = Read_Config();
  1828  000508  ECDB  F004         	call	_Read_Config	;wreg free
  1829  00050C  C502  F522         	movff	?_Read_Config,ProcessBootBuffer@len
  1830  000510  C503  F523         	movff	?_Read_Config+1,ProcessBootBuffer@len+1
  1831                           
  1832                           ;mcc_generated_files/pic18f_bootload.c: 197:         break;
  1833  000514  EFDD  F002         	goto	l198
  1834  000518                     l1924:
  1835                           
  1836                           ;mcc_generated_files/pic18f_bootload.c: 199:         len = Write_Config();
  1837  000518  EC45  F004         	call	_Write_Config	;wreg free
  1838  00051C  C502  F522         	movff	?_Write_Config,ProcessBootBuffer@len
  1839  000520  C503  F523         	movff	?_Write_Config+1,ProcessBootBuffer@len+1
  1840                           
  1841                           ;mcc_generated_files/pic18f_bootload.c: 200:         break;
  1842  000524  EFDD  F002         	goto	l198
  1843  000528                     l1926:
  1844                           
  1845                           ;mcc_generated_files/pic18f_bootload.c: 202:         len = Calc_Checksum();
  1846  000528  ECE2  F002         	call	_Calc_Checksum	;wreg free
  1847  00052C  C502  F522         	movff	?_Calc_Checksum,ProcessBootBuffer@len
  1848  000530  C503  F523         	movff	?_Calc_Checksum+1,ProcessBootBuffer@len+1
  1849                           
  1850                           ;mcc_generated_files/pic18f_bootload.c: 203:         break;
  1851  000534  EFDD  F002         	goto	l198
  1852  000538                     l204:
  1853                           
  1854                           ;mcc_generated_files/pic18f_bootload.c: 205:         frame.data[0] = 0x01;
  1855  000538  0E01               	movlw	1
  1856  00053A  0061 F3A3  F600    	movff	wreg,_frame+9
  1857  000540                     
  1858                           ;mcc_generated_files/pic18f_bootload.c: 206:         reset_pending = 1;
  1859  000540  0E01               	movlw	1
  1860  000542  6E34               	movwf	_reset_pending^(0+1280),c
  1861                           
  1862                           ;mcc_generated_files/pic18f_bootload.c: 207:         len = 10;
  1863  000544  0E00               	movlw	0
  1864  000546  6E23               	movwf	(ProcessBootBuffer@len+1)^(0+1280),c
  1865  000548  0E0A               	movlw	10
  1866  00054A  6E22               	movwf	ProcessBootBuffer@len^(0+1280),c
  1867                           
  1868                           ;mcc_generated_files/pic18f_bootload.c: 208:         break;
  1869  00054C  EFDD  F002         	goto	l198
  1870  000550                     l205:
  1871                           
  1872                           ;mcc_generated_files/pic18f_bootload.c: 210:         frame.data[0] = 0xFF;
  1873  000550  0EFF               	movlw	255
  1874  000552  0061 F3A3  F600    	movff	wreg,_frame+9
  1875  000558                     
  1876                           ;mcc_generated_files/pic18f_bootload.c: 211:         len = 10;
  1877  000558  0E00               	movlw	0
  1878  00055A  6E23               	movwf	(ProcessBootBuffer@len+1)^(0+1280),c
  1879  00055C  0E0A               	movlw	10
  1880  00055E  6E22               	movwf	ProcessBootBuffer@len^(0+1280),c
  1881                           
  1882                           ;mcc_generated_files/pic18f_bootload.c: 212:     }
  1883  000560  EFDD  F002         	goto	l198
  1884  000564                     l1932:
  1885  000564  EE2D  F1F7         	lfsr	2,_frame
  1886  000568  50DF               	movf	indf2,w,c
  1887  00056A  6E20               	movwf	??_ProcessBootBuffer^(0+1280),c
  1888  00056C  6A21               	clrf	(??_ProcessBootBuffer+1)^(0+1280),c
  1889                           
  1890                           ; Switch on 2 bytes has been partitioned into a top level switch of size 1, and 1 sub-sw
      +                          itches
  1891                           ; Switch size 1, requested type "simple"
  1892                           ; Number of cases is 1, Range of values is 0 to 0
  1893                           ; switch strategies available:
  1894                           ; Name         Instructions Cycles
  1895                           ; simple_byte            4     3 (average)
  1896                           ;	Chosen strategy is simple_byte
  1897  00056E  5021               	movf	(??_ProcessBootBuffer+1)^(0+1280),w,c
  1898  000570  0A00               	xorlw	0	; case 0
  1899  000572  B4D8               	btfsc	status,2,c
  1900  000574  EFBE  F002         	goto	l2074
  1901  000578  EFA8  F002         	goto	l205
  1902  00057C                     l2074:
  1903                           
  1904                           ; Switch size 1, requested type "simple"
  1905                           ; Number of cases is 7, Range of values is 0 to 9
  1906                           ; switch strategies available:
  1907                           ; Name         Instructions Cycles
  1908                           ; simple_byte           22    12 (average)
  1909                           ;	Chosen strategy is simple_byte
  1910  00057C  5020               	movf	??_ProcessBootBuffer^(0+1280),w,c
  1911  00057E  0A00               	xorlw	0	; case 0
  1912  000580  B4D8               	btfsc	status,2,c
  1913  000582  EF6C  F002         	goto	l1916
  1914  000586  0A02               	xorlw	2	; case 2
  1915  000588  B4D8               	btfsc	status,2,c
  1916  00058A  EF74  F002         	goto	l1918
  1917  00058E  0A01               	xorlw	1	; case 3
  1918  000590  B4D8               	btfsc	status,2,c
  1919  000592  EF7C  F002         	goto	l1920
  1920  000596  0A05               	xorlw	5	; case 6
  1921  000598  B4D8               	btfsc	status,2,c
  1922  00059A  EF84  F002         	goto	l1922
  1923  00059E  0A01               	xorlw	1	; case 7
  1924  0005A0  B4D8               	btfsc	status,2,c
  1925  0005A2  EF8C  F002         	goto	l1924
  1926  0005A6  0A0F               	xorlw	15	; case 8
  1927  0005A8  B4D8               	btfsc	status,2,c
  1928  0005AA  EF94  F002         	goto	l1926
  1929  0005AE  0A01               	xorlw	1	; case 9
  1930  0005B0  B4D8               	btfsc	status,2,c
  1931  0005B2  EF9C  F002         	goto	l204
  1932  0005B6  EFA8  F002         	goto	l205
  1933  0005BA                     l198:
  1934                           
  1935                           ;mcc_generated_files/pic18f_bootload.c: 213:     return (len);
  1936  0005BA  C522  F51E         	movff	ProcessBootBuffer@len,?_ProcessBootBuffer
  1937  0005BE  C523  F51F         	movff	ProcessBootBuffer@len+1,?_ProcessBootBuffer+1
  1938  0005C2  0012               	return		;funcret
  1939  0005C4                     __end_of_ProcessBootBuffer:
  1940                           	callstack 0
  1941                           
  1942 ;; *************** function _Write_Flash *****************
  1943 ;; Defined at:
  1944 ;;		line 267 in file "mcc_generated_files/pic18f_bootload.c"
  1945 ;; Parameters:    Size  Location     Type
  1946 ;;		None
  1947 ;; Auto vars:     Size  Location     Type
  1948 ;;  i               2   26[COMRAM] unsigned short 
  1949 ;;  address         4   22[COMRAM] unsigned long 
  1950 ;; Return value:  Size  Location     Type
  1951 ;;                  2    5[COMRAM] unsigned short 
  1952 ;; Registers used:
  1953 ;;		wreg, fsr1l, fsr1h, fsr2l, fsr2h, status,2, status,0, cstack
  1954 ;; Tracked objects:
  1955 ;;		On entry : 0/0
  1956 ;;		On exit  : 0/0
  1957 ;;		Unchanged: 0/0
  1958 ;; Data sizes:     COMRAM   BANK5   BANK6   BANK7   BANK8   BANK9  BANK10  BANK11  BANK12  BANK13  BANK14  BANK15  BANK1
      +6  BANK17  BANK18  BANK19  BANK20  BANK21  BANK22  BANK23  BANK24  BANK25  BANK26  BANK27  BANK28  BANK29  BANK30  BANK3
      +1  BANK32  BANK33  BANK34  BANK35  BANK36  BANK37  BANK38  BANK39  BANK40  BANK41  BANK42  BANK43  BANK44  BANK45  BANK4
      +6  BANK47  BANK48  BANK49  BANK50  BANK51  BANK52  BANK53  BANK54
  1959 ;;      Params:         2       0       0       0       0       0       0       0       0       0       0       0       
      +0       0       0       0       0       0       0       0       0       0       0       0       0       0       0       
      +0       0       0       0       0       0       0       0       0       0       0       0       0       0       0       
      +0       0       0       0       0       0       0       0       0
  1960 ;;      Locals:         6       0       0       0       0       0       0       0       0       0       0       0       
      +0       0       0       0       0       0       0       0       0       0       0       0       0       0       0       
      +0       0       0       0       0       0       0       0       0       0       0       0       0       0       0       
      +0       0       0       0       0       0       0       0       0
  1961 ;;      Temps:         15       0       0       0       0       0       0       0       0       0       0       0       
      +0       0       0       0       0       0       0       0       0       0       0       0       0       0       0       
      +0       0       0       0       0       0       0       0       0       0       0       0       0       0       0       
      +0       0       0       0       0       0       0       0       0
  1962 ;;      Totals:        23       0       0       0       0       0       0       0       0       0       0       0       
      +0       0       0       0       0       0       0       0       0       0       0       0       0       0       0       
      +0       0       0       0       0       0       0       0       0       0       0       0       0       0       0       
      +0       0       0       0       0       0       0       0       0
  1963 ;;Total ram usage:       23 bytes
  1964 ;; Hardware stack levels used: 1
  1965 ;; Hardware stack levels required when called: 2
  1966 ;; This function calls:
  1967 ;;		_FLASH_ReadPage
  1968 ;;		_StartWrite
  1969 ;; This function is called by:
  1970 ;;		_ProcessBootBuffer
  1971 ;; This function uses a non-reentrant model
  1972 ;;
  1973                           
  1974                           	psect	text17
  1975  00010E                     __ptext17:
  1976                           	callstack 0
  1977  00010E                     _Write_Flash:
  1978                           	callstack 120
  1979  00010E                     
  1980                           ;mcc_generated_files/pic18f_bootload.c: 269:     uint32_t address;;mcc_generated_files/p
      +                          ic18f_bootload.c: 271:     address = (((uint32_t)frame.address_U) << 16)
  1981  00010E  006D  F7F4  F509   	movff	_frame+6,??_Write_Flash
  1982  000114  C509  F50A         	movff	??_Write_Flash,??_Write_Flash+1
  1983  000118  6A0B               	clrf	(??_Write_Flash+2)^(0+1280),c
  1984  00011A  6A0C               	clrf	(??_Write_Flash+3)^(0+1280),c
  1985  00011C  6A0D               	clrf	(??_Write_Flash+4)^(0+1280),c
  1986  00011E  C50C  F50D         	movff	??_Write_Flash+3,??_Write_Flash+4
  1987  000122  C50B  F50C         	movff	??_Write_Flash+2,??_Write_Flash+3
  1988  000126  C50A  F50B         	movff	??_Write_Flash+1,??_Write_Flash+2
  1989  00012A  6A0A               	clrf	(??_Write_Flash+1)^(0+1280),c
  1990  00012C  006D  F7F8  F50E   	movff	_frame+7,??_Write_Flash+5
  1991  000132  C50E  F50F         	movff	??_Write_Flash+5,??_Write_Flash+6
  1992  000136  6A10               	clrf	(??_Write_Flash+7)^(0+1280),c
  1993  000138  6A11               	clrf	(??_Write_Flash+8)^(0+1280),c
  1994  00013A  6A12               	clrf	(??_Write_Flash+9)^(0+1280),c
  1995  00013C  C510  F512         	movff	??_Write_Flash+7,??_Write_Flash+9
  1996  000140  C50F  F511         	movff	??_Write_Flash+6,??_Write_Flash+8
  1997  000144  6A10               	clrf	(??_Write_Flash+7)^(0+1280),c
  1998  000146  6A0F               	clrf	(??_Write_Flash+6)^(0+1280),c
  1999  000148  500A               	movf	(??_Write_Flash+1)^(0+1280),w,c
  2000  00014A  240F               	addwf	(??_Write_Flash+6)^(0+1280),w,c
  2001  00014C  6E13               	movwf	(??_Write_Flash+10)^(0+1280),c
  2002  00014E  500B               	movf	(??_Write_Flash+2)^(0+1280),w,c
  2003  000150  2010               	addwfc	(??_Write_Flash+7)^(0+1280),w,c
  2004  000152  6E14               	movwf	(??_Write_Flash+11)^(0+1280),c
  2005  000154  500C               	movf	(??_Write_Flash+3)^(0+1280),w,c
  2006  000156  2011               	addwfc	(??_Write_Flash+8)^(0+1280),w,c
  2007  000158  6E15               	movwf	(??_Write_Flash+12)^(0+1280),c
  2008  00015A  500D               	movf	(??_Write_Flash+4)^(0+1280),w,c
  2009  00015C  2012               	addwfc	(??_Write_Flash+9)^(0+1280),w,c
  2010  00015E  6E16               	movwf	(??_Write_Flash+13)^(0+1280),c
  2011  000160  006D  F7F0  F517   	movff	_frame+5,??_Write_Flash+14
  2012  000166  5017               	movf	(??_Write_Flash+14)^(0+1280),w,c
  2013  000168  2413               	addwf	(??_Write_Flash+10)^(0+1280),w,c
  2014  00016A  6E18               	movwf	Write_Flash@address^(0+1280),c
  2015  00016C  0E00               	movlw	0
  2016  00016E  2014               	addwfc	(??_Write_Flash+11)^(0+1280),w,c
  2017  000170  6E19               	movwf	(Write_Flash@address+1)^(0+1280),c
  2018  000172  0E00               	movlw	0
  2019  000174  2015               	addwfc	(??_Write_Flash+12)^(0+1280),w,c
  2020  000176  6E1A               	movwf	(Write_Flash@address+2)^(0+1280),c
  2021  000178  0E00               	movlw	0
  2022  00017A  2016               	addwfc	(??_Write_Flash+13)^(0+1280),w,c
  2023  00017C  6E1B               	movwf	(Write_Flash@address+3)^(0+1280),c
  2024                           
  2025                           ;mcc_generated_files/pic18f_bootload.c: 274:     if (address < 0xd00)
  2026  00017E  501B               	movf	(Write_Flash@address+3)^(0+1280),w,c
  2027  000180  101A               	iorwf	(Write_Flash@address+2)^(0+1280),w,c
  2028  000182  E107               	bnz	u501
  2029  000184  0E0D               	movlw	13
  2030  000186  5C19               	subwf	(Write_Flash@address+1)^(0+1280),w,c
  2031  000188  B0D8               	btfsc	status,0,c
  2032  00018A  EFC9  F000         	goto	u501
  2033  00018E  EFCB  F000         	goto	u500
  2034  000192                     u501:
  2035  000192  EFD5  F000         	goto	l1820
  2036  000196                     u500:
  2037  000196                     
  2038                           ;mcc_generated_files/pic18f_bootload.c: 275:     {;mcc_generated_files/pic18f_bootload.c
      +                          : 276:         frame.data[0] = 0xFE;
  2039  000196  0EFE               	movlw	254
  2040  000198  0061 F3A3  F600    	movff	wreg,_frame+9
  2041  00019E                     
  2042                           ;mcc_generated_files/pic18f_bootload.c: 277:         return (10);
  2043  00019E  0E00               	movlw	0
  2044  0001A0  6E08               	movwf	(?_Write_Flash+1)^(0+1280),c
  2045  0001A2  0E0A               	movlw	10
  2046  0001A4  6E07               	movwf	?_Write_Flash^(0+1280),c
  2047  0001A6  EF33  F001         	goto	l217
  2048  0001AA                     l1820:
  2049                           
  2050                           ;mcc_generated_files/pic18f_bootload.c: 279:     FLASH_ReadPage(address);
  2051  0001AA  C518  F502         	movff	Write_Flash@address,FLASH_ReadPage@flashAddr
  2052  0001AE  C519  F503         	movff	Write_Flash@address+1,FLASH_ReadPage@flashAddr+1
  2053  0001B2  C51A  F504         	movff	Write_Flash@address+2,FLASH_ReadPage@flashAddr+2
  2054  0001B6  C51B  F505         	movff	Write_Flash@address+3,FLASH_ReadPage@flashAddr+3
  2055  0001BA  EC48  F005         	call	_FLASH_ReadPage	;wreg free
  2056  0001BE                     
  2057                           ;mcc_generated_files/pic18f_bootload.c: 281:     for (uint16_t i = 0; i < frame.data_len
      +                          gth; i ++)
  2058  0001BE  0E00               	movlw	0
  2059  0001C0  6E1D               	movwf	(Write_Flash@i+1)^(0+1280),c
  2060  0001C2  0E00               	movlw	0
  2061  0001C4  6E1C               	movwf	Write_Flash@i^(0+1280),c
  2062  0001C6  EF00  F001         	goto	l1828
  2063  0001CA                     l1824:
  2064                           
  2065                           ;mcc_generated_files/pic18f_bootload.c: 282:     {;mcc_generated_files/pic18f_bootload.c
      +                          : 283:         PFM_Buffer [frame.address_L + i] = frame.data[i];
  2066  0001CA  0E00               	movlw	low (_frame+9)
  2067  0001CC  241C               	addwf	Write_Flash@i^(0+1280),w,c
  2068  0001CE  6ED9               	movwf	fsr2l,c
  2069  0001D0  0E36               	movlw	high (_frame+9)
  2070  0001D2  201D               	addwfc	(Write_Flash@i+1)^(0+1280),w,c
  2071  0001D4  6EDA               	movwf	fsr2h,c
  2072  0001D6  0E00               	movlw	0
  2073  0001D8  6E09               	movwf	??_Write_Flash^(0+1280),c
  2074  0001DA  0E37               	movlw	55
  2075  0001DC  6E0A               	movwf	(??_Write_Flash+1)^(0+1280),c
  2076  0001DE  006D  F7F0  F50B   	movff	_frame+5,??_Write_Flash+2
  2077  0001E4  500B               	movf	(??_Write_Flash+2)^(0+1280),w,c
  2078  0001E6  2609               	addwf	??_Write_Flash^(0+1280),f,c
  2079  0001E8  0E00               	movlw	0
  2080  0001EA  220A               	addwfc	(??_Write_Flash+1)^(0+1280),f,c
  2081  0001EC  501C               	movf	Write_Flash@i^(0+1280),w,c
  2082  0001EE  2409               	addwf	??_Write_Flash^(0+1280),w,c
  2083  0001F0  6EE1               	movwf	fsr1l,c
  2084  0001F2  501D               	movf	(Write_Flash@i+1)^(0+1280),w,c
  2085  0001F4  200A               	addwfc	(??_Write_Flash+1)^(0+1280),w,c
  2086  0001F6  6EE2               	movwf	fsr1h,c
  2087  0001F8  C4DF F4E7          	movff	indf2,indf1
  2088  0001FC                     
  2089                           ;mcc_generated_files/pic18f_bootload.c: 284:     }
  2090  0001FC  4A1C               	infsnz	Write_Flash@i^(0+1280),f,c
  2091  0001FE  2A1D               	incf	(Write_Flash@i+1)^(0+1280),f,c
  2092  000200                     l1828:
  2093  000200  EE2D  F1F8         	lfsr	2,_frame+1
  2094  000204  50DE               	movf	postinc2,w,c
  2095  000206  5C1C               	subwf	Write_Flash@i^(0+1280),w,c
  2096  000208  50DE               	movf	postinc2,w,c
  2097  00020A  581D               	subwfb	(Write_Flash@i+1)^(0+1280),w,c
  2098  00020C  A0D8               	btfss	status,0,c
  2099  00020E  EF0B  F001         	goto	u511
  2100  000212  EF0D  F001         	goto	u510
  2101  000216                     u511:
  2102  000216  EFE5  F000         	goto	l1824
  2103  00021A                     u510:
  2104  00021A                     
  2105                           ;mcc_generated_files/pic18f_bootload.c: 286:     NVMADRU = frame.address_U;
  2106  00021A  006D  F7F8  F045   	movff	_frame+7,69	;volatile
  2107                           
  2108                           ;mcc_generated_files/pic18f_bootload.c: 287:     NVMADRH = frame.address_H;
  2109  000220  006D  F7F4  F044   	movff	_frame+6,68	;volatile
  2110                           
  2111                           ;mcc_generated_files/pic18f_bootload.c: 288:     NVMADRL = frame.address_L;
  2112  000226  006D  F7F0  F043   	movff	_frame+5,67	;volatile
  2113  00022C                     
  2114                           ;mcc_generated_files/pic18f_bootload.c: 291:     NVMCON1bits.NVMCMD = 0b101;
  2115  00022C  0100               	movlb	0	; () banked
  2116  00022E  5141               	movf	65,w,b	;volsfr
  2117  000230  0BF8               	andlw	-8
  2118  000232  0905               	iorlw	5
  2119  000234  6F41               	movwf	65,b	;volsfr
  2120  000236                     
  2121                           ; BSR set to: 0
  2122                           ;mcc_generated_files/pic18f_bootload.c: 294:     INTCON0bits.GIE = 0;
  2123  000236  9ED6               	bcf	214,7,c	;volatile
  2124  000238                     
  2125                           ; BSR set to: 0
  2126                           ;mcc_generated_files/pic18f_bootload.c: 297:     StartWrite();
  2127  000238  ECEB  F005         	call	_StartWrite	;wreg free
  2128  00023C                     
  2129                           ;mcc_generated_files/pic18f_bootload.c: 300:     NVMCON0bits.GO = 1;
  2130  00023C  0100               	movlb	0	; () banked
  2131  00023E  8140               	bsf	64,0,b	;volatile
  2132  000240                     l221:
  2133                           
  2134                           ; BSR set to: 0
  2135  000240  B140               	btfsc	64,0,b	;volatile
  2136  000242  EF25  F001         	goto	u521
  2137  000246  EF27  F001         	goto	u520
  2138  00024A                     u521:
  2139  00024A  EF20  F001         	goto	l221
  2140  00024E                     u520:
  2141  00024E                     
  2142                           ; BSR set to: 0
  2143                           ;mcc_generated_files/pic18f_bootload.c: 303:     frame.data[0] = 0x01;
  2144  00024E  0E01               	movlw	1
  2145  000250  0061 F3A3  F600    	movff	wreg,_frame+9
  2146  000256                     
  2147                           ; BSR set to: 0
  2148                           ;mcc_generated_files/pic18f_bootload.c: 304:     EE_Key_1 = 0x00;
  2149  000256  0E00               	movlw	0
  2150  000258  6E00               	movwf	0,c
  2151                           
  2152                           ;mcc_generated_files/pic18f_bootload.c: 305:     EE_Key_2 = 0x00;
  2153  00025A  0E00               	movlw	0
  2154  00025C  6E01               	movwf	1,c
  2155                           
  2156                           ;mcc_generated_files/pic18f_bootload.c: 306:     return (10);
  2157  00025E  0E00               	movlw	0
  2158  000260  6E08               	movwf	(?_Write_Flash+1)^(0+1280),c
  2159  000262  0E0A               	movlw	10
  2160  000264  6E07               	movwf	?_Write_Flash^(0+1280),c
  2161  000266                     l217:
  2162  000266  0012               	return		;funcret
  2163  000268                     __end_of_Write_Flash:
  2164                           	callstack 0
  2165                           
  2166 ;; *************** function _FLASH_ReadPage *****************
  2167 ;; Defined at:
  2168 ;;		line 93 in file "mcc_generated_files/memory.c"
  2169 ;; Parameters:    Size  Location     Type
  2170 ;;  flashAddr       4    0[COMRAM] unsigned long 
  2171 ;; Auto vars:     Size  Location     Type
  2172 ;;  GIEBitValue     1    4[COMRAM] unsigned char 
  2173 ;; Return value:  Size  Location     Type
  2174 ;;                  1    wreg      void 
  2175 ;; Registers used:
  2176 ;;		wreg, status,2
  2177 ;; Tracked objects:
  2178 ;;		On entry : 0/0
  2179 ;;		On exit  : 0/0
  2180 ;;		Unchanged: 0/0
  2181 ;; Data sizes:     COMRAM   BANK5   BANK6   BANK7   BANK8   BANK9  BANK10  BANK11  BANK12  BANK13  BANK14  BANK15  BANK1
      +6  BANK17  BANK18  BANK19  BANK20  BANK21  BANK22  BANK23  BANK24  BANK25  BANK26  BANK27  BANK28  BANK29  BANK30  BANK3
      +1  BANK32  BANK33  BANK34  BANK35  BANK36  BANK37  BANK38  BANK39  BANK40  BANK41  BANK42  BANK43  BANK44  BANK45  BANK4
      +6  BANK47  BANK48  BANK49  BANK50  BANK51  BANK52  BANK53  BANK54
  2182 ;;      Params:         4       0       0       0       0       0       0       0       0       0       0       0       
      +0       0       0       0       0       0       0       0       0       0       0       0       0       0       0       
      +0       0       0       0       0       0       0       0       0       0       0       0       0       0       0       
      +0       0       0       0       0       0       0       0       0
  2183 ;;      Locals:         1       0       0       0       0       0       0       0       0       0       0       0       
      +0       0       0       0       0       0       0       0       0       0       0       0       0       0       0       
      +0       0       0       0       0       0       0       0       0       0       0       0       0       0       0       
      +0       0       0       0       0       0       0       0       0
  2184 ;;      Temps:          0       0       0       0       0       0       0       0       0       0       0       0       
      +0       0       0       0       0       0       0       0       0       0       0       0       0       0       0       
      +0       0       0       0       0       0       0       0       0       0       0       0       0       0       0       
      +0       0       0       0       0       0       0       0       0
  2185 ;;      Totals:         5       0       0       0       0       0       0       0       0       0       0       0       
      +0       0       0       0       0       0       0       0       0       0       0       0       0       0       0       
      +0       0       0       0       0       0       0       0       0       0       0       0       0       0       0       
      +0       0       0       0       0       0       0       0       0
  2186 ;;Total ram usage:        5 bytes
  2187 ;; Hardware stack levels used: 1
  2188 ;; Hardware stack levels required when called: 1
  2189 ;; This function calls:
  2190 ;;		Nothing
  2191 ;; This function is called by:
  2192 ;;		_Write_Flash
  2193 ;;		_FLASH_WriteWord
  2194 ;; This function uses a non-reentrant model
  2195 ;;
  2196                           
  2197                           	psect	text18
  2198  000A90                     __ptext18:
  2199                           	callstack 0
  2200  000A90                     _FLASH_ReadPage:
  2201                           	callstack 120
  2202  000A90                     
  2203                           ;mcc_generated_files/memory.c: 93: void FLASH_ReadPage(uint32_t flashAddr);mcc_generated
      +                          _files/memory.c: 94: {;mcc_generated_files/memory.c: 95:     uint8_t GIEBitValue = INTCO
      +                          N0bits.GIE;
  2204  000A90  0E00               	movlw	0
  2205  000A92  BED6               	btfsc	214,7,c	;volatile
  2206  000A94  0E01               	movlw	1
  2207  000A96  6E06               	movwf	FLASH_ReadPage@GIEBitValue^(0+1280),c
  2208  000A98                     
  2209                           ;mcc_generated_files/memory.c: 98:     NVMADRU = (uint8_t) ((flashAddr & 0x00FF0000) >> 
      +                          16);
  2210  000A98  0061  F410  F045   	movff	FLASH_ReadPage@flashAddr+2,69	;volatile
  2211  000A9E                     
  2212                           ;mcc_generated_files/memory.c: 99:     NVMADRH = (uint8_t) ((flashAddr & 0x0000FF00) >> 
      +                          8);
  2213  000A9E  0061  F40C  F044   	movff	FLASH_ReadPage@flashAddr+1,68	;volatile
  2214  000AA4                     
  2215                           ;mcc_generated_files/memory.c: 100:     NVMADRL = (uint8_t) (flashAddr & 0x000000FF);
  2216  000AA4  0061  F408  F043   	movff	FLASH_ReadPage@flashAddr,67	;volatile
  2217  000AAA                     
  2218                           ;mcc_generated_files/memory.c: 103:     NVMCON1bits.NVMCMD = 0b010;
  2219  000AAA  0100               	movlb	0	; () banked
  2220  000AAC  5141               	movf	65,w,b	;volsfr
  2221  000AAE  0BF8               	andlw	-8
  2222  000AB0  0902               	iorlw	2
  2223  000AB2  6F41               	movwf	65,b	;volsfr
  2224  000AB4                     
  2225                           ; BSR set to: 0
  2226                           ;mcc_generated_files/memory.c: 106:     INTCON0bits.GIE = 0;
  2227  000AB4  9ED6               	bcf	214,7,c	;volatile
  2228  000AB6                     
  2229                           ; BSR set to: 0
  2230                           ;mcc_generated_files/memory.c: 109:     NVMLOCK = 0x55;
  2231  000AB6  0E55               	movlw	85
  2232  000AB8  6F42               	movwf	66,b	;volatile
  2233  000ABA                     
  2234                           ; BSR set to: 0
  2235                           ;mcc_generated_files/memory.c: 110:     NVMLOCK = 0xAA;
  2236  000ABA  0EAA               	movlw	170
  2237  000ABC  6F42               	movwf	66,b	;volatile
  2238  000ABE                     
  2239                           ; BSR set to: 0
  2240                           ;mcc_generated_files/memory.c: 113:     NVMCON0bits.GO = 1;
  2241  000ABE  8140               	bsf	64,0,b	;volatile
  2242  000AC0                     l39:
  2243                           
  2244                           ; BSR set to: 0
  2245  000AC0  B140               	btfsc	64,0,b	;volatile
  2246  000AC2  EF65  F005         	goto	u461
  2247  000AC6  EF67  F005         	goto	u460
  2248  000ACA                     u461:
  2249  000ACA  EF60  F005         	goto	l39
  2250  000ACE                     u460:
  2251  000ACE                     
  2252                           ; BSR set to: 0
  2253                           ;mcc_generated_files/memory.c: 117:     INTCON0bits.GIE = GIEBitValue;
  2254  000ACE  B006               	btfsc	FLASH_ReadPage@GIEBitValue^(0+1280),0,c
  2255  000AD0  D002               	bra	u475
  2256  000AD2  9ED6               	bcf	214,7,c	;volatile
  2257  000AD4  D001               	bra	u476
  2258  000AD6                     u475:
  2259  000AD6  8ED6               	bsf	214,7,c	;volatile
  2260  000AD8                     u476:
  2261  000AD8                     
  2262                           ;mcc_generated_files/memory.c: 120:     NVMCON1bits.NVMCMD = 0b000;
  2263  000AD8  0EF8               	movlw	-8
  2264  000ADA  0100               	movlb	0	; () banked
  2265  000ADC  1741               	andwf	65,f,b	;volsfr
  2266  000ADE                     
  2267                           ; BSR set to: 0
  2268  000ADE  0012               	return		;funcret
  2269  000AE0                     __end_of_FLASH_ReadPage:
  2270                           	callstack 0
  2271                           
  2272 ;; *************** function _Write_Config *****************
  2273 ;; Defined at:
  2274 ;;		line 387 in file "mcc_generated_files/pic18f_bootload.c"
  2275 ;; Parameters:    Size  Location     Type
  2276 ;;		None
  2277 ;; Auto vars:     Size  Location     Type
  2278 ;;  i               1    6[COMRAM] unsigned char 
  2279 ;; Return value:  Size  Location     Type
  2280 ;;                  2    0[COMRAM] unsigned short 
  2281 ;; Registers used:
  2282 ;;		wreg, fsr2l, fsr2h, status,2, status,0, cstack
  2283 ;; Tracked objects:
  2284 ;;		On entry : 0/0
  2285 ;;		On exit  : 0/0
  2286 ;;		Unchanged: 0/0
  2287 ;; Data sizes:     COMRAM   BANK5   BANK6   BANK7   BANK8   BANK9  BANK10  BANK11  BANK12  BANK13  BANK14  BANK15  BANK1
      +6  BANK17  BANK18  BANK19  BANK20  BANK21  BANK22  BANK23  BANK24  BANK25  BANK26  BANK27  BANK28  BANK29  BANK30  BANK3
      +1  BANK32  BANK33  BANK34  BANK35  BANK36  BANK37  BANK38  BANK39  BANK40  BANK41  BANK42  BANK43  BANK44  BANK45  BANK4
      +6  BANK47  BANK48  BANK49  BANK50  BANK51  BANK52  BANK53  BANK54
  2288 ;;      Params:         2       0       0       0       0       0       0       0       0       0       0       0       
      +0       0       0       0       0       0       0       0       0       0       0       0       0       0       0       
      +0       0       0       0       0       0       0       0       0       0       0       0       0       0       0       
      +0       0       0       0       0       0       0       0       0
  2289 ;;      Locals:         1       0       0       0       0       0       0       0       0       0       0       0       
      +0       0       0       0       0       0       0       0       0       0       0       0       0       0       0       
      +0       0       0       0       0       0       0       0       0       0       0       0       0       0       0       
      +0       0       0       0       0       0       0       0       0
  2290 ;;      Temps:          4       0       0       0       0       0       0       0       0       0       0       0       
      +0       0       0       0       0       0       0       0       0       0       0       0       0       0       0       
      +0       0       0       0       0       0       0       0       0       0       0       0       0       0       0       
      +0       0       0       0       0       0       0       0       0
  2291 ;;      Totals:         7       0       0       0       0       0       0       0       0       0       0       0       
      +0       0       0       0       0       0       0       0       0       0       0       0       0       0       0       
      +0       0       0       0       0       0       0       0       0       0       0       0       0       0       0       
      +0       0       0       0       0       0       0       0       0
  2292 ;;Total ram usage:        7 bytes
  2293 ;; Hardware stack levels used: 1
  2294 ;; Hardware stack levels required when called: 2
  2295 ;; This function calls:
  2296 ;;		_StartWrite
  2297 ;; This function is called by:
  2298 ;;		_ProcessBootBuffer
  2299 ;; This function uses a non-reentrant model
  2300 ;;
  2301                           
  2302                           	psect	text19
  2303  00088A                     __ptext19:
  2304                           	callstack 0
  2305  00088A                     _Write_Config:
  2306                           	callstack 120
  2307  00088A                     
  2308                           ;mcc_generated_files/pic18f_bootload.c: 389:     TBLPTRL = frame.address_L;
  2309  00088A  006D  F7F0  F4F6   	movff	_frame+5,tblptrl	;volatile
  2310                           
  2311                           ;mcc_generated_files/pic18f_bootload.c: 390:     TBLPTRH = frame.address_H;
  2312  000890  006D  F7F4  F4F7   	movff	_frame+6,tblptrh	;volatile
  2313                           
  2314                           ;mcc_generated_files/pic18f_bootload.c: 391:     TBLPTRU = frame.address_U;
  2315  000896  006D  F7F8  F4F8   	movff	_frame+7,tblptru	;volatile
  2316  00089C                     
  2317                           ;mcc_generated_files/pic18f_bootload.c: 392:     if (TBLPTR > 0x20000F)
  2318  00089C  0E10               	movlw	16
  2319  00089E  5CF6               	subwf	246,w,c	;volatile
  2320  0008A0  0E00               	movlw	0
  2321  0008A2  58F7               	subwfb	247,w,c	;volatile
  2322  0008A4  0E20               	movlw	32
  2323  0008A6  58F8               	subwfb	248,w,c	;volatile
  2324  0008A8  A0D8               	btfss	status,0,c
  2325  0008AA  EF59  F004         	goto	u561
  2326  0008AE  EF5B  F004         	goto	u560
  2327  0008B2                     u561:
  2328  0008B2  EF60  F004         	goto	l1898
  2329  0008B6                     u560:
  2330  0008B6                     
  2331                           ;mcc_generated_files/pic18f_bootload.c: 393:         NVMCON1 = 0xC4;
  2332  0008B6  0EC4               	movlw	196
  2333  0008B8  0100               	movlb	0	; () banked
  2334  0008BA  6F41               	movwf	65,b	;volsfr
  2335  0008BC  EF63  F004         	goto	l239
  2336  0008C0                     l1898:
  2337                           
  2338                           ;mcc_generated_files/pic18f_bootload.c: 395:         NVMCON1 = 0x84;
  2339  0008C0  0E84               	movlw	132
  2340  0008C2  0100               	movlb	0	; () banked
  2341  0008C4  6F41               	movwf	65,b	;volsfr
  2342  0008C6                     l239:
  2343                           
  2344                           ; BSR set to: 0
  2345                           ;mcc_generated_files/pic18f_bootload.c: 396:     for (uint8_t i= 0; i < frame.data_lengt
      +                          h; i ++)
  2346  0008C6  0E00               	movlw	0
  2347  0008C8  6E08               	movwf	Write_Config@i^(0+1280),c
  2348  0008CA  EF74  F004         	goto	l1908
  2349  0008CE                     l1900:
  2350                           
  2351                           ;mcc_generated_files/pic18f_bootload.c: 397:     {;mcc_generated_files/pic18f_bootload.c
      +                          : 398:         TABLAT = frame.data[i];
  2352  0008CE  0E00               	movlw	low (_frame+9)
  2353  0008D0  2408               	addwf	Write_Config@i^(0+1280),w,c
  2354  0008D2  6ED9               	movwf	fsr2l,c
  2355  0008D4  6ADA               	clrf	fsr2h,c
  2356  0008D6  0E36               	movlw	high (_frame+9)
  2357  0008D8  22DA               	addwfc	fsr2h,f,c
  2358  0008DA  50DF               	movf	indf2,w,c
  2359  0008DC  6EF5               	movwf	245,c	;volatile
  2360  0008DE  000C               	tblwt		*	;# 
  2361  0008E0                     
  2362                           ;mcc_generated_files/pic18f_bootload.c: 400:         StartWrite();
  2363  0008E0  ECEB  F005         	call	_StartWrite	;wreg free
  2364  0008E4                     
  2365                           ;mcc_generated_files/pic18f_bootload.c: 401:         ++ TBLPTRL;
  2366  0008E4  2AF6               	incf	246,f,c	;volatile
  2367  0008E6                     
  2368                           ;mcc_generated_files/pic18f_bootload.c: 402:     }
  2369  0008E6  2A08               	incf	Write_Config@i^(0+1280),f,c
  2370  0008E8                     l1908:
  2371  0008E8  EE2D  F1F8         	lfsr	2,_frame+1
  2372  0008EC  5008               	movf	Write_Config@i^(0+1280),w,c
  2373  0008EE  6E06               	movwf	(??_Write_Config+2)^(0+1280),c
  2374  0008F0  6A07               	clrf	(??_Write_Config+3)^(0+1280),c
  2375  0008F2  50DE               	movf	postinc2,w,c
  2376  0008F4  5C06               	subwf	(??_Write_Config+2)^(0+1280),w,c
  2377  0008F6  50DE               	movf	postinc2,w,c
  2378  0008F8  5807               	subwfb	(??_Write_Config+3)^(0+1280),w,c
  2379  0008FA  A0D8               	btfss	status,0,c
  2380  0008FC  EF82  F004         	goto	u571
  2381  000900  EF84  F004         	goto	u570
  2382  000904                     u571:
  2383  000904  EF67  F004         	goto	l1900
  2384  000908                     u570:
  2385  000908                     
  2386                           ;mcc_generated_files/pic18f_bootload.c: 403:     frame.data[0] = 0x01;
  2387  000908  0E01               	movlw	1
  2388  00090A  0061 F3A3  F600    	movff	wreg,_frame+9
  2389  000910                     
  2390                           ;mcc_generated_files/pic18f_bootload.c: 404:     EE_Key_1 = 0x00;
  2391  000910  0E00               	movlw	0
  2392  000912  6E00               	movwf	0,c
  2393                           
  2394                           ;mcc_generated_files/pic18f_bootload.c: 405:     EE_Key_2 = 0x00;
  2395  000914  0E00               	movlw	0
  2396  000916  6E01               	movwf	1,c
  2397                           
  2398                           ;mcc_generated_files/pic18f_bootload.c: 406:     return (10);
  2399  000918  0E00               	movlw	0
  2400  00091A  6E03               	movwf	(?_Write_Config+1)^(0+1280),c
  2401  00091C  0E0A               	movlw	10
  2402  00091E  6E02               	movwf	?_Write_Config^(0+1280),c
  2403  000920  0012               	return		;funcret
  2404  000922                     __end_of_Write_Config:
  2405                           	callstack 0
  2406                           
  2407 ;; *************** function _Read_Config *****************
  2408 ;; Defined at:
  2409 ;;		line 367 in file "mcc_generated_files/pic18f_bootload.c"
  2410 ;; Parameters:    Size  Location     Type
  2411 ;;		None
  2412 ;; Auto vars:     Size  Location     Type
  2413 ;;  i               1    6[COMRAM] unsigned char 
  2414 ;; Return value:  Size  Location     Type
  2415 ;;                  2    0[COMRAM] unsigned short 
  2416 ;; Registers used:
  2417 ;;		wreg, fsr2l, fsr2h, status,2, status,0
  2418 ;; Tracked objects:
  2419 ;;		On entry : 0/0
  2420 ;;		On exit  : 0/0
  2421 ;;		Unchanged: 0/0
  2422 ;; Data sizes:     COMRAM   BANK5   BANK6   BANK7   BANK8   BANK9  BANK10  BANK11  BANK12  BANK13  BANK14  BANK15  BANK1
      +6  BANK17  BANK18  BANK19  BANK20  BANK21  BANK22  BANK23  BANK24  BANK25  BANK26  BANK27  BANK28  BANK29  BANK30  BANK3
      +1  BANK32  BANK33  BANK34  BANK35  BANK36  BANK37  BANK38  BANK39  BANK40  BANK41  BANK42  BANK43  BANK44  BANK45  BANK4
      +6  BANK47  BANK48  BANK49  BANK50  BANK51  BANK52  BANK53  BANK54
  2423 ;;      Params:         2       0       0       0       0       0       0       0       0       0       0       0       
      +0       0       0       0       0       0       0       0       0       0       0       0       0       0       0       
      +0       0       0       0       0       0       0       0       0       0       0       0       0       0       0       
      +0       0       0       0       0       0       0       0       0
  2424 ;;      Locals:         1       0       0       0       0       0       0       0       0       0       0       0       
      +0       0       0       0       0       0       0       0       0       0       0       0       0       0       0       
      +0       0       0       0       0       0       0       0       0       0       0       0       0       0       0       
      +0       0       0       0       0       0       0       0       0
  2425 ;;      Temps:          4       0       0       0       0       0       0       0       0       0       0       0       
      +0       0       0       0       0       0       0       0       0       0       0       0       0       0       0       
      +0       0       0       0       0       0       0       0       0       0       0       0       0       0       0       
      +0       0       0       0       0       0       0       0       0
  2426 ;;      Totals:         7       0       0       0       0       0       0       0       0       0       0       0       
      +0       0       0       0       0       0       0       0       0       0       0       0       0       0       0       
      +0       0       0       0       0       0       0       0       0       0       0       0       0       0       0       
      +0       0       0       0       0       0       0       0       0
  2427 ;;Total ram usage:        7 bytes
  2428 ;; Hardware stack levels used: 1
  2429 ;; Hardware stack levels required when called: 1
  2430 ;; This function calls:
  2431 ;;		Nothing
  2432 ;; This function is called by:
  2433 ;;		_ProcessBootBuffer
  2434 ;; This function uses a non-reentrant model
  2435 ;;
  2436                           
  2437                           	psect	text20
  2438  0009B6                     __ptext20:
  2439                           	callstack 0
  2440  0009B6                     _Read_Config:
  2441                           	callstack 121
  2442  0009B6                     
  2443                           ;mcc_generated_files/pic18f_bootload.c: 369:     TBLPTRL = frame.address_L;
  2444  0009B6  006D  F7F0  F4F6   	movff	_frame+5,tblptrl	;volatile
  2445                           
  2446                           ;mcc_generated_files/pic18f_bootload.c: 370:     TBLPTRH = frame.address_H;
  2447  0009BC  006D  F7F4  F4F7   	movff	_frame+6,tblptrh	;volatile
  2448                           
  2449                           ;mcc_generated_files/pic18f_bootload.c: 371:     TBLPTRU = frame.address_U;
  2450  0009C2  006D  F7F8  F4F8   	movff	_frame+7,tblptru	;volatile
  2451  0009C8                     
  2452                           ;mcc_generated_files/pic18f_bootload.c: 372:  NVMCON1 = 0xC0;
  2453  0009C8  0EC0               	movlw	192
  2454  0009CA  0100               	movlb	0	; () banked
  2455  0009CC  6F41               	movwf	65,b	;volsfr
  2456                           
  2457                           ;mcc_generated_files/pic18f_bootload.c: 373:     for (uint8_t i = 0; i < frame.data_leng
      +                          th; i++)
  2458  0009CE  0E00               	movlw	0
  2459  0009D0  6E08               	movwf	Read_Config@i^(0+1280),c
  2460  0009D2  EFF5  F004         	goto	l1886
  2461  0009D6                     l233:
  2462  0009D6  0009               	tblrd		*+	;# 
  2463  0009D8                     
  2464                           ;mcc_generated_files/pic18f_bootload.c: 376:         frame.data[i] = TABLAT;
  2465  0009D8  0E00               	movlw	low (_frame+9)
  2466  0009DA  2408               	addwf	Read_Config@i^(0+1280),w,c
  2467  0009DC  6ED9               	movwf	fsr2l,c
  2468  0009DE  6ADA               	clrf	fsr2h,c
  2469  0009E0  0E36               	movlw	high (_frame+9)
  2470  0009E2  22DA               	addwfc	fsr2h,f,c
  2471  0009E4  C4F5 F4DF          	movff	tablat,indf2	;volatile
  2472  0009E8                     
  2473                           ;mcc_generated_files/pic18f_bootload.c: 377:     }
  2474  0009E8  2A08               	incf	Read_Config@i^(0+1280),f,c
  2475  0009EA                     l1886:
  2476  0009EA  EE2D  F1F8         	lfsr	2,_frame+1
  2477  0009EE  5008               	movf	Read_Config@i^(0+1280),w,c
  2478  0009F0  6E06               	movwf	(??_Read_Config+2)^(0+1280),c
  2479  0009F2  6A07               	clrf	(??_Read_Config+3)^(0+1280),c
  2480  0009F4  50DE               	movf	postinc2,w,c
  2481  0009F6  5C06               	subwf	(??_Read_Config+2)^(0+1280),w,c
  2482  0009F8  50DE               	movf	postinc2,w,c
  2483  0009FA  5807               	subwfb	(??_Read_Config+3)^(0+1280),w,c
  2484  0009FC  A0D8               	btfss	status,0,c
  2485  0009FE  EF03  F005         	goto	u551
  2486  000A02  EF05  F005         	goto	u550
  2487  000A06                     u551:
  2488  000A06  EFEB  F004         	goto	l233
  2489  000A0A                     u550:
  2490  000A0A                     
  2491                           ;mcc_generated_files/pic18f_bootload.c: 378:     return (9 + frame.data_length);
  2492  000A0A  EE2D  F1F8         	lfsr	2,_frame+1
  2493  000A0E  0061 F378  F504    	movff	postinc2,??_Read_Config
  2494  000A14  0061 F374  F505    	movff	postdec2,??_Read_Config+1
  2495  000A1A  0E09               	movlw	9
  2496  000A1C  2404               	addwf	??_Read_Config^(0+1280),w,c
  2497  000A1E  6E02               	movwf	?_Read_Config^(0+1280),c
  2498  000A20  0E00               	movlw	0
  2499  000A22  2005               	addwfc	(??_Read_Config+1)^(0+1280),w,c
  2500  000A24  6E03               	movwf	(?_Read_Config+1)^(0+1280),c
  2501  000A26  0012               	return		;funcret
  2502  000A28                     __end_of_Read_Config:
  2503                           	callstack 0
  2504                           
  2505 ;; *************** function _Get_Version_Data *****************
  2506 ;; Defined at:
  2507 ;;		line 223 in file "mcc_generated_files/pic18f_bootload.c"
  2508 ;; Parameters:    Size  Location     Type
  2509 ;;		None
  2510 ;; Auto vars:     Size  Location     Type
  2511 ;;  i               1    2[COMRAM] unsigned char 
  2512 ;; Return value:  Size  Location     Type
  2513 ;;                  2    0[COMRAM] unsigned short 
  2514 ;; Registers used:
  2515 ;;		wreg, fsr2l, fsr2h, status,2, status,0
  2516 ;; Tracked objects:
  2517 ;;		On entry : 0/0
  2518 ;;		On exit  : 0/0
  2519 ;;		Unchanged: 0/0
  2520 ;; Data sizes:     COMRAM   BANK5   BANK6   BANK7   BANK8   BANK9  BANK10  BANK11  BANK12  BANK13  BANK14  BANK15  BANK1
      +6  BANK17  BANK18  BANK19  BANK20  BANK21  BANK22  BANK23  BANK24  BANK25  BANK26  BANK27  BANK28  BANK29  BANK30  BANK3
      +1  BANK32  BANK33  BANK34  BANK35  BANK36  BANK37  BANK38  BANK39  BANK40  BANK41  BANK42  BANK43  BANK44  BANK45  BANK4
      +6  BANK47  BANK48  BANK49  BANK50  BANK51  BANK52  BANK53  BANK54
  2521 ;;      Params:         2       0       0       0       0       0       0       0       0       0       0       0       
      +0       0       0       0       0       0       0       0       0       0       0       0       0       0       0       
      +0       0       0       0       0       0       0       0       0       0       0       0       0       0       0       
      +0       0       0       0       0       0       0       0       0
  2522 ;;      Locals:         1       0       0       0       0       0       0       0       0       0       0       0       
      +0       0       0       0       0       0       0       0       0       0       0       0       0       0       0       
      +0       0       0       0       0       0       0       0       0       0       0       0       0       0       0       
      +0       0       0       0       0       0       0       0       0
  2523 ;;      Temps:          0       0       0       0       0       0       0       0       0       0       0       0       
      +0       0       0       0       0       0       0       0       0       0       0       0       0       0       0       
      +0       0       0       0       0       0       0       0       0       0       0       0       0       0       0       
      +0       0       0       0       0       0       0       0       0
  2524 ;;      Totals:         3       0       0       0       0       0       0       0       0       0       0       0       
      +0       0       0       0       0       0       0       0       0       0       0       0       0       0       0       
      +0       0       0       0       0       0       0       0       0       0       0       0       0       0       0       
      +0       0       0       0       0       0       0       0       0
  2525 ;;Total ram usage:        3 bytes
  2526 ;; Hardware stack levels used: 1
  2527 ;; Hardware stack levels required when called: 1
  2528 ;; This function calls:
  2529 ;;		Nothing
  2530 ;; This function is called by:
  2531 ;;		_ProcessBootBuffer
  2532 ;; This function uses a non-reentrant model
  2533 ;;
  2534                           
  2535                           	psect	text21
  2536  0006A2                     __ptext21:
  2537                           	callstack 0
  2538  0006A2                     _Get_Version_Data:
  2539                           	callstack 121
  2540  0006A2                     
  2541                           ;mcc_generated_files/pic18f_bootload.c: 225:     frame.data[0] = 0x01;
  2542  0006A2  0E01               	movlw	1
  2543  0006A4  0061 F3A3  F600    	movff	wreg,_frame+9
  2544                           
  2545                           ;mcc_generated_files/pic18f_bootload.c: 226:     frame.data[1] = 0x01;
  2546  0006AA  0E01               	movlw	1
  2547  0006AC  0061 F3A3  F601    	movff	wreg,_frame+10
  2548                           
  2549                           ;mcc_generated_files/pic18f_bootload.c: 227:     frame.data[2] = 0;
  2550  0006B2  0E00               	movlw	0
  2551  0006B4  0061 F3A3  F602    	movff	wreg,_frame+11
  2552                           
  2553                           ;mcc_generated_files/pic18f_bootload.c: 228:     frame.data[3] = 1;
  2554  0006BA  0E01               	movlw	1
  2555  0006BC  0061 F3A3  F603    	movff	wreg,_frame+12
  2556                           
  2557                           ;mcc_generated_files/pic18f_bootload.c: 229:     frame.data[4] = 0;
  2558  0006C2  0E00               	movlw	0
  2559  0006C4  0061 F3A3  F604    	movff	wreg,_frame+13
  2560                           
  2561                           ;mcc_generated_files/pic18f_bootload.c: 230:     frame.data[5] = 0;
  2562  0006CA  0E00               	movlw	0
  2563  0006CC  0061 F3A3  F605    	movff	wreg,_frame+14
  2564  0006D2                     
  2565                           ;mcc_generated_files/pic18f_bootload.c: 231:     TBLPTRU = 0x3F;
  2566  0006D2  0E3F               	movlw	63
  2567  0006D4  6EF8               	movwf	248,c	;volatile
  2568  0006D6                     
  2569                           ;mcc_generated_files/pic18f_bootload.c: 232:     TBLPTRH = 0xFF;
  2570  0006D6  68F7               	setf	247,c	;volatile
  2571                           
  2572                           ;mcc_generated_files/pic18f_bootload.c: 233:     TBLPTRL = 0xFE;
  2573  0006D8  0EFE               	movlw	254
  2574  0006DA  6EF6               	movwf	246,c	;volatile
  2575                           
  2576                           ;mcc_generated_files/pic18f_bootload.c: 234:     NVMCON1 = 0xC0;
  2577  0006DC  0EC0               	movlw	192
  2578  0006DE  0100               	movlb	0	; () banked
  2579  0006E0  6F41               	movwf	65,b	;volsfr
  2580  0006E2  0009               	tblrd		*+	;# 
  2581  0006E4                     
  2582                           ;mcc_generated_files/pic18f_bootload.c: 236:     frame.data[6] = TABLAT;
  2583  0006E4  EE2D  F206         	lfsr	2,_frame+15
  2584  0006E8  C4F5 F4DF          	movff	tablat,indf2	;volatile
  2585  0006EC  0009               	tblrd		*+	;# 
  2586  0006EE                     
  2587                           ;mcc_generated_files/pic18f_bootload.c: 238:     frame.data[7] = TABLAT;
  2588  0006EE  EE2D  F207         	lfsr	2,_frame+16
  2589  0006F2  C4F5 F4DF          	movff	tablat,indf2	;volatile
  2590  0006F6                     
  2591                           ;mcc_generated_files/pic18f_bootload.c: 239:     frame.data[8] = 0;
  2592  0006F6  0E00               	movlw	0
  2593  0006F8  0061 F3A3  F608    	movff	wreg,_frame+17
  2594  0006FE                     
  2595                           ;mcc_generated_files/pic18f_bootload.c: 240:     frame.data[9] = 0;
  2596  0006FE  0E00               	movlw	0
  2597  000700  0061 F3A3  F609    	movff	wreg,_frame+18
  2598  000706                     
  2599                           ;mcc_generated_files/pic18f_bootload.c: 242:     frame.data[10] = 128;
  2600  000706  0E80               	movlw	128
  2601  000708  0061 F3A3  F60A    	movff	wreg,_frame+19
  2602  00070E                     
  2603                           ;mcc_generated_files/pic18f_bootload.c: 243:     frame.data[11] = 128;
  2604  00070E  0E80               	movlw	128
  2605  000710  0061 F3A3  F60B    	movff	wreg,_frame+20
  2606                           
  2607                           ;mcc_generated_files/pic18f_bootload.c: 245:     TBLPTRU = 0x30;
  2608  000716  0E30               	movlw	48
  2609  000718  6EF8               	movwf	248,c	;volatile
  2610                           
  2611                           ;mcc_generated_files/pic18f_bootload.c: 246:     TBLPTRH = 0x00;
  2612  00071A  0E00               	movlw	0
  2613  00071C  6EF7               	movwf	247,c	;volatile
  2614                           
  2615                           ;mcc_generated_files/pic18f_bootload.c: 247:     TBLPTRL = 0x00;
  2616  00071E  0E00               	movlw	0
  2617  000720  6EF6               	movwf	246,c	;volatile
  2618                           
  2619                           ;mcc_generated_files/pic18f_bootload.c: 249:     for (uint8_t i= 12; i < 16; i++)
  2620  000722  0E0C               	movlw	12
  2621  000724  6E04               	movwf	Get_Version_Data@i^(0+1280),c
  2622  000726                     l209:
  2623  000726  0009               	tblrd		*+	;# 
  2624  000728                     
  2625                           ;mcc_generated_files/pic18f_bootload.c: 252:         frame.data[i] = TABLAT;
  2626  000728  0E00               	movlw	low (_frame+9)
  2627  00072A  2404               	addwf	Get_Version_Data@i^(0+1280),w,c
  2628  00072C  6ED9               	movwf	fsr2l,c
  2629  00072E  6ADA               	clrf	fsr2h,c
  2630  000730  0E36               	movlw	high (_frame+9)
  2631  000732  22DA               	addwfc	fsr2h,f,c
  2632  000734  C4F5 F4DF          	movff	tablat,indf2	;volatile
  2633  000738                     
  2634                           ;mcc_generated_files/pic18f_bootload.c: 253:     }
  2635  000738  2A04               	incf	Get_Version_Data@i^(0+1280),f,c
  2636  00073A  0E0F               	movlw	15
  2637  00073C  6404               	cpfsgt	Get_Version_Data@i^(0+1280),c
  2638  00073E  EFA3  F003         	goto	u491
  2639  000742  EFA5  F003         	goto	u490
  2640  000746                     u491:
  2641  000746  EF93  F003         	goto	l209
  2642  00074A                     u490:
  2643  00074A                     
  2644                           ;mcc_generated_files/pic18f_bootload.c: 255:     return 25;
  2645  00074A  0E00               	movlw	0
  2646  00074C  6E03               	movwf	(?_Get_Version_Data+1)^(0+1280),c
  2647  00074E  0E19               	movlw	25
  2648  000750  6E02               	movwf	?_Get_Version_Data^(0+1280),c
  2649  000752  0012               	return		;funcret
  2650  000754                     __end_of_Get_Version_Data:
  2651                           	callstack 0
  2652                           
  2653 ;; *************** function _Erase_Flash *****************
  2654 ;; Defined at:
  2655 ;;		line 317 in file "mcc_generated_files/pic18f_bootload.c"
  2656 ;; Parameters:    Size  Location     Type
  2657 ;;		None
  2658 ;; Auto vars:     Size  Location     Type
  2659 ;;  blockStartAd    4   24[COMRAM] unsigned long 
  2660 ;;  i               2   21[COMRAM] unsigned short 
  2661 ;;  address         4   17[COMRAM] unsigned long 
  2662 ;;  GIEBitValue     1   23[COMRAM] unsigned char 
  2663 ;; Return value:  Size  Location     Type
  2664 ;;                  2    0[COMRAM] unsigned short 
  2665 ;; Registers used:
  2666 ;;		wreg, fsr2l, fsr2h, status,2, status,0, cstack
  2667 ;; Tracked objects:
  2668 ;;		On entry : 0/0
  2669 ;;		On exit  : 0/0
  2670 ;;		Unchanged: 0/0
  2671 ;; Data sizes:     COMRAM   BANK5   BANK6   BANK7   BANK8   BANK9  BANK10  BANK11  BANK12  BANK13  BANK14  BANK15  BANK1
      +6  BANK17  BANK18  BANK19  BANK20  BANK21  BANK22  BANK23  BANK24  BANK25  BANK26  BANK27  BANK28  BANK29  BANK30  BANK3
      +1  BANK32  BANK33  BANK34  BANK35  BANK36  BANK37  BANK38  BANK39  BANK40  BANK41  BANK42  BANK43  BANK44  BANK45  BANK4
      +6  BANK47  BANK48  BANK49  BANK50  BANK51  BANK52  BANK53  BANK54
  2672 ;;      Params:         2       0       0       0       0       0       0       0       0       0       0       0       
      +0       0       0       0       0       0       0       0       0       0       0       0       0       0       0       
      +0       0       0       0       0       0       0       0       0       0       0       0       0       0       0       
      +0       0       0       0       0       0       0       0       0
  2673 ;;      Locals:        11       0       0       0       0       0       0       0       0       0       0       0       
      +0       0       0       0       0       0       0       0       0       0       0       0       0       0       0       
      +0       0       0       0       0       0       0       0       0       0       0       0       0       0       0       
      +0       0       0       0       0       0       0       0       0
  2674 ;;      Temps:         15       0       0       0       0       0       0       0       0       0       0       0       
      +0       0       0       0       0       0       0       0       0       0       0       0       0       0       0       
      +0       0       0       0       0       0       0       0       0       0       0       0       0       0       0       
      +0       0       0       0       0       0       0       0       0
  2675 ;;      Totals:        28       0       0       0       0       0       0       0       0       0       0       0       
      +0       0       0       0       0       0       0       0       0       0       0       0       0       0       0       
      +0       0       0       0       0       0       0       0       0       0       0       0       0       0       0       
      +0       0       0       0       0       0       0       0       0
  2676 ;;Total ram usage:       28 bytes
  2677 ;; Hardware stack levels used: 1
  2678 ;; Hardware stack levels required when called: 2
  2679 ;; This function calls:
  2680 ;;		_StartWrite
  2681 ;; This function is called by:
  2682 ;;		_ProcessBootBuffer
  2683 ;; This function uses a non-reentrant model
  2684 ;;
  2685                           
  2686                           	psect	text22
  2687  00039E                     __ptext22:
  2688                           	callstack 0
  2689  00039E                     _Erase_Flash:
  2690                           	callstack 120
  2691  00039E                     
  2692                           ;mcc_generated_files/pic18f_bootload.c: 319:     uint32_t address;;mcc_generated_files/p
      +                          ic18f_bootload.c: 321:     TBLPTRL = frame.address_L;
  2693  00039E  006D  F7F0  F4F6   	movff	_frame+5,tblptrl	;volatile
  2694                           
  2695                           ;mcc_generated_files/pic18f_bootload.c: 322:     TBLPTRH = frame.address_H;
  2696  0003A4  006D  F7F4  F4F7   	movff	_frame+6,tblptrh	;volatile
  2697                           
  2698                           ;mcc_generated_files/pic18f_bootload.c: 323:     TBLPTRU = frame.address_U;
  2699  0003AA  006D  F7F8  F4F8   	movff	_frame+7,tblptru	;volatile
  2700  0003B0                     
  2701                           ;mcc_generated_files/pic18f_bootload.c: 324:     address = (((uint32_t)frame.address_U) 
      +                          << 16)
  2702  0003B0  006D  F7F4  F504   	movff	_frame+6,??_Erase_Flash
  2703  0003B6  C504  F505         	movff	??_Erase_Flash,??_Erase_Flash+1
  2704  0003BA  6A06               	clrf	(??_Erase_Flash+2)^(0+1280),c
  2705  0003BC  6A07               	clrf	(??_Erase_Flash+3)^(0+1280),c
  2706  0003BE  6A08               	clrf	(??_Erase_Flash+4)^(0+1280),c
  2707  0003C0  C507  F508         	movff	??_Erase_Flash+3,??_Erase_Flash+4
  2708  0003C4  C506  F507         	movff	??_Erase_Flash+2,??_Erase_Flash+3
  2709  0003C8  C505  F506         	movff	??_Erase_Flash+1,??_Erase_Flash+2
  2710  0003CC  6A05               	clrf	(??_Erase_Flash+1)^(0+1280),c
  2711  0003CE  006D  F7F8  F509   	movff	_frame+7,??_Erase_Flash+5
  2712  0003D4  C509  F50A         	movff	??_Erase_Flash+5,??_Erase_Flash+6
  2713  0003D8  6A0B               	clrf	(??_Erase_Flash+7)^(0+1280),c
  2714  0003DA  6A0C               	clrf	(??_Erase_Flash+8)^(0+1280),c
  2715  0003DC  6A0D               	clrf	(??_Erase_Flash+9)^(0+1280),c
  2716  0003DE  C50B  F50D         	movff	??_Erase_Flash+7,??_Erase_Flash+9
  2717  0003E2  C50A  F50C         	movff	??_Erase_Flash+6,??_Erase_Flash+8
  2718  0003E6  6A0B               	clrf	(??_Erase_Flash+7)^(0+1280),c
  2719  0003E8  6A0A               	clrf	(??_Erase_Flash+6)^(0+1280),c
  2720  0003EA  5005               	movf	(??_Erase_Flash+1)^(0+1280),w,c
  2721  0003EC  240A               	addwf	(??_Erase_Flash+6)^(0+1280),w,c
  2722  0003EE  6E0E               	movwf	(??_Erase_Flash+10)^(0+1280),c
  2723  0003F0  5006               	movf	(??_Erase_Flash+2)^(0+1280),w,c
  2724  0003F2  200B               	addwfc	(??_Erase_Flash+7)^(0+1280),w,c
  2725  0003F4  6E0F               	movwf	(??_Erase_Flash+11)^(0+1280),c
  2726  0003F6  5007               	movf	(??_Erase_Flash+3)^(0+1280),w,c
  2727  0003F8  200C               	addwfc	(??_Erase_Flash+8)^(0+1280),w,c
  2728  0003FA  6E10               	movwf	(??_Erase_Flash+12)^(0+1280),c
  2729  0003FC  5008               	movf	(??_Erase_Flash+4)^(0+1280),w,c
  2730  0003FE  200D               	addwfc	(??_Erase_Flash+9)^(0+1280),w,c
  2731  000400  6E11               	movwf	(??_Erase_Flash+13)^(0+1280),c
  2732  000402  006D  F7F0  F512   	movff	_frame+5,??_Erase_Flash+14
  2733  000408  5012               	movf	(??_Erase_Flash+14)^(0+1280),w,c
  2734  00040A  240E               	addwf	(??_Erase_Flash+10)^(0+1280),w,c
  2735  00040C  6E13               	movwf	Erase_Flash@address^(0+1280),c
  2736  00040E  0E00               	movlw	0
  2737  000410  200F               	addwfc	(??_Erase_Flash+11)^(0+1280),w,c
  2738  000412  6E14               	movwf	(Erase_Flash@address+1)^(0+1280),c
  2739  000414  0E00               	movlw	0
  2740  000416  2010               	addwfc	(??_Erase_Flash+12)^(0+1280),w,c
  2741  000418  6E15               	movwf	(Erase_Flash@address+2)^(0+1280),c
  2742  00041A  0E00               	movlw	0
  2743  00041C  2011               	addwfc	(??_Erase_Flash+13)^(0+1280),w,c
  2744  00041E  6E16               	movwf	(Erase_Flash@address+3)^(0+1280),c
  2745  000420                     
  2746                           ;mcc_generated_files/pic18f_bootload.c: 328:     uint8_t GIEBitValue = INTCON0bits.GIE;
  2747  000420  0E00               	movlw	0
  2748  000422  BED6               	btfsc	214,7,c	;volatile
  2749  000424  0E01               	movlw	1
  2750  000426  6E19               	movwf	Erase_Flash@GIEBitValue^(0+1280),c
  2751  000428                     
  2752                           ;mcc_generated_files/pic18f_bootload.c: 331:     INTCON0bits.GIE = 0;
  2753  000428  9ED6               	bcf	214,7,c	;volatile
  2754  00042A                     
  2755                           ;mcc_generated_files/pic18f_bootload.c: 333:     for (uint16_t i=0; i < frame.data_lengt
      +                          h; i++)
  2756  00042A  0E00               	movlw	0
  2757  00042C  6E18               	movwf	(Erase_Flash@i+1)^(0+1280),c
  2758  00042E  0E00               	movlw	0
  2759  000430  6E17               	movwf	Erase_Flash@i^(0+1280),c
  2760  000432  EF3E  F002         	goto	l1866
  2761  000436                     l1852:
  2762                           
  2763                           ;mcc_generated_files/pic18f_bootload.c: 334:     {;mcc_generated_files/pic18f_bootload.c
      +                          : 335:         uint32_t blockStartAddr = (uint32_t) (address & ((0x020000 - 1) ^ ((128 *
      +                           2) - 1)));
  2764  000436  0E00               	movlw	0
  2765  000438  1413               	andwf	Erase_Flash@address^(0+1280),w,c
  2766  00043A  6E1A               	movwf	Erase_Flash@blockStartAddr^(0+1280),c
  2767  00043C  0EFF               	movlw	255
  2768  00043E  1414               	andwf	(Erase_Flash@address+1)^(0+1280),w,c
  2769  000440  6E1B               	movwf	(Erase_Flash@blockStartAddr+1)^(0+1280),c
  2770  000442  0E01               	movlw	1
  2771  000444  1415               	andwf	(Erase_Flash@address+2)^(0+1280),w,c
  2772  000446  6E1C               	movwf	(Erase_Flash@blockStartAddr+2)^(0+1280),c
  2773  000448  0E00               	movlw	0
  2774  00044A  1416               	andwf	(Erase_Flash@address+3)^(0+1280),w,c
  2775  00044C  6E1D               	movwf	(Erase_Flash@blockStartAddr+3)^(0+1280),c
  2776  00044E                     
  2777                           ;mcc_generated_files/pic18f_bootload.c: 339:         NVMADRU = (uint8_t) ((blockStartAdd
      +                          r & 0x00FF0000) >> 16);
  2778  00044E  0061  F470  F045   	movff	Erase_Flash@blockStartAddr+2,69	;volatile
  2779  000454                     
  2780                           ;mcc_generated_files/pic18f_bootload.c: 340:         NVMADRH = (uint8_t) ((blockStartAdd
      +                          r & 0x0000FF00) >> 8);
  2781  000454  0061  F46C  F044   	movff	Erase_Flash@blockStartAddr+1,68	;volatile
  2782  00045A                     
  2783                           ;mcc_generated_files/pic18f_bootload.c: 343:         NVMCON1bits.NVMCMD = 0b110;
  2784  00045A  0100               	movlb	0	; () banked
  2785  00045C  5141               	movf	65,w,b	;volsfr
  2786  00045E  0BF8               	andlw	-8
  2787  000460  0906               	iorlw	6
  2788  000462  6F41               	movwf	65,b	;volsfr
  2789  000464                     
  2790                           ; BSR set to: 0
  2791                           ;mcc_generated_files/pic18f_bootload.c: 346:         StartWrite();
  2792  000464  ECEB  F005         	call	_StartWrite	;wreg free
  2793  000468                     
  2794                           ;mcc_generated_files/pic18f_bootload.c: 347:         address += 128 * 2;
  2795  000468  0E00               	movlw	0
  2796  00046A  2613               	addwf	Erase_Flash@address^(0+1280),f,c
  2797  00046C  0E01               	movlw	1
  2798  00046E  2214               	addwfc	(Erase_Flash@address+1)^(0+1280),f,c
  2799  000470  0E00               	movlw	0
  2800  000472  2215               	addwfc	(Erase_Flash@address+2)^(0+1280),f,c
  2801  000474  0E00               	movlw	0
  2802  000476  2216               	addwfc	(Erase_Flash@address+3)^(0+1280),f,c
  2803  000478                     
  2804                           ;mcc_generated_files/pic18f_bootload.c: 348:     }
  2805  000478  4A17               	infsnz	Erase_Flash@i^(0+1280),f,c
  2806  00047A  2A18               	incf	(Erase_Flash@i+1)^(0+1280),f,c
  2807  00047C                     l1866:
  2808  00047C  EE2D  F1F8         	lfsr	2,_frame+1
  2809  000480  50DE               	movf	postinc2,w,c
  2810  000482  5C17               	subwf	Erase_Flash@i^(0+1280),w,c
  2811  000484  50DE               	movf	postinc2,w,c
  2812  000486  5818               	subwfb	(Erase_Flash@i+1)^(0+1280),w,c
  2813  000488  A0D8               	btfss	status,0,c
  2814  00048A  EF49  F002         	goto	u531
  2815  00048E  EF4B  F002         	goto	u530
  2816  000492                     u531:
  2817  000492  EF1B  F002         	goto	l1852
  2818  000496                     u530:
  2819  000496                     
  2820                           ;mcc_generated_files/pic18f_bootload.c: 350:     INTCON0bits.GIE = GIEBitValue;
  2821  000496  B019               	btfsc	Erase_Flash@GIEBitValue^(0+1280),0,c
