:0400000085EF00F098
:1000080042004200420042004200420042004200D8
:1000180042004200420042004200420042004200C8
:1000280042004200420042004200420042004200B8
:1000380042004200420042004200420042004200A8
:100048004200420042004200420042004200420098
:100058004200420042004200420042004200420088
:100068004200420042004200420042004200420078
:100078004200420042004200420042004200420068
:100088004200420042004200420042004200420058
:100098004200420042004200420042004200420048
:1000A8004200420042004200420042004200420038
:1000B8004200420042004200420042004200420028
:1000C8004200420042004200420042004200420018
:1000D8004200420042004200420042004200420008
:1000E80042004200420042004200420042004200F8
:1000F8000503420042004200420042004200420022
:10010800FF0070EF05F06D00F4F709F509C50AF571
:100118000B6A0C6A0D6A0CC50DF50BC50CF50AC502
:100128000BF50A6A6D00F8F70EF50EC50FF5106AA3
:10013800116A126A10C512F50FC511F5106A0F6A17
:100148000A500F24136E0B501020146E0C501120FF
:10015800156E0D501220166E6D00F0F717F517503A
:100168001324186E000E1420196E000E15201A6E36
:10017800000E16201B6E1B501A1007E10D0E195C9D
:10018800D8B0C9EF00F0CBEF00F0D5EF00F0FE0ECD
:100198006100A3F300F6000E086E0A0E076E33EF37
:1001A80001F018C502F519C503F51AC504F51BC5F4
:1001B80005F548EC05F0000E1D6E000E1C6E00EFF4
:1001C80001F0000E1C24D96E360E1D20DA6E000ECA
:1001D800096E370E0A6E6D00F0F70BF50B50092605
:1001E800000E0A221C500924E16E1D500A20E26EFE
:1001F800DFC4E7F41C4A1D2A2DEEF8F1DE501C5C22
:10020800DE501D58D8A00BEF01F00DEF01F0E5EF1F
:1002180000F06D00F8F745F06D00F4F744F06D005C
:10022800F0F743F000014151F80B0509416FD69EE4
:10023800EBEC05F00001408140B125EF01F027EF1C
:1002480001F020EF01F0010E6100A3F300F6000EAB
:10025800006E000E016E000E086E0A0E076E120088
:100268000201B2AF3AEF01F03CEF01F034EF01F0D8
:10027800E1EC05F00201AB8D4CEF01F0B2AB47EFBA
:1002880001F049EF01F04CEF01F0AB9DB29BAB8D53
:10029800ABBD51EF01F053EF01F042EF01F0000E5A
:1002A800286E000E276E000E266E090E256E9CEF36
:1002B80001F0F8EC03F0246EF70E2724D96E350E02
:1002C8002820DA6E610090F4DFF4274A282A040E09
:1002D80027182810D8A473EF01F075EF01F09CEFF0
:1002E80001F06D00DCF7E8F4020AD8B47EEF01F003
:1002F80080EF01F096EF01F06D00DCF7E8F4050AF5
:10030800D8B489EF01F08BEF01F096EF01F06D00A2
:10031800DCF7E8F4070AD8A494EF01F096EF01F0AF
:100328009CEF01F02DEEF8F1DE502526DD50262257
:100338002550275C26502858D8A0A5EF01F0A7EF34
:1003480001F05DEF01F064EC02F01EC525F51FC554
:1003580026F5550ECAEC05F0000E286E000E276E25
:10036800C1EF01F0F70E2724D96E350E2820DA6E7A
:10037800DF50CAEC05F0274A282A2550275C26506A
:100388002858D8A0CAEF01F0CCEF01F0B6EF01F081
:1003980034EF01F012006D00F0F7F6F46D00F4F799
:1003A800F7F46D00F8F7F8F46D00F4F704F504C5F8
:1003B80005F5066A076A086A07C508F506C507F558
:1003C80005C506F5056A6D00F8F709F509C50AF5CA
:1003D8000B6A0C6A0D6A0BC50DF50AC50CF50B6A9C
:1003E8000A6A05500A240E6E06500B200F6E07503D
:1003F8000C20106E08500D20116E6D00F0F712F5EC
:1004080012500E24136E000E0F20146E000E1020D2
:10041800156E000E1120166E000ED6BE010E196E56
:10042800D69E000E186E000E176E3EEF02F0000EFC
:1004380013141A6EFF0E14141B6E010E15141C6E85
:10044800000E16141D6E610070F445F061006CF426
:1004580044F000014151F80B0609416FEBEC05F03F
:10046800000E1326010E1422000E1522000E16226D
:10047800174A182A2DEEF8F1DE50175CDE5018588E
:10048800D8A049EF02F04BEF02F01BEF02F019B0D1
:1004980002D0D69E01D0D68EF80E00014117010E6B
:1004A8006100A3F300F6000E6100A3F3FAF5000E55
:1004B8006100A3F3FBF5000E036E0A0E026E120034
:1004C8006D00E8F700F56D00ECF701F5B2EF02F00A
:1004D80051EC03F002C522F503C523F5DDEF02F068
:1004E80087EC00F007C522F508C523F5DDEF02F01B
:1004F800CFEC01F002C522F503C523F5DDEF02F0CC
:10050800DBEC04F002C522F503C523F5DDEF02F0AC
:1005180045EC04F002C522F503C523F5DDEF02F032
:10052800E2EC02F002C522F503C523F5DDEF02F087
:10053800010E6100A3F300F6010E346E000E236E67
:100548000A0E226EDDEF02F0FF0E6100A3F300F643
:10055800000E236E0A0E226EDDEF02F02DEEF7F18B
:10056800DF50206E216A2150000AD8B4BEEF02F095
:10057800A8EF02F02050000AD8B46CEF02F0020A8B
:10058800D8B474EF02F0010AD8B47CEF02F0050A7F
:10059800D8B484EF02F0010AD8B48CEF02F00F0A45
:1005A800D8B494EF02F0010AD8B49CEF02F0A8EF97
:1005B80002F022C51EF523C51FF512006D00F0F7E5
:1005C800F6F46D00F4F7F7F46D00F8F7F8F4800E20
:1005D8000001416F000E326E000E316E2DEEF8F103
:1005E800610078F304F5610074F305F504C50DF5B1
:1005F80005C50EF50F6A106A6D00E8F704F504C525
:1006080005F5066A076A086A06C508F505C507F507
:10061800066A056A05500D2606500E2207500F225D
:1006280008501022000E096E000E0A6E000E0B6EA6
:10063800000E0C6E2EEF03F00900F5503126000E67
:1006480032220900F5503226020E0926000E0A222F
:100658000B220C220D50095C0E500A580F500B58F3
:1006680010500C58D8A03BEF03F03DEF03F020EFFB
:1006780003F02DEE00F26100C4F4DFF431C504F597
:1006880032C505F505C504F5056A610013F401F6E0
:10069800000E036E0B0E026E1200010E6100A3F332
:1006A80000F6010E6100A3F301F6000E6100A3F34A
:1006B80002F6010E6100A3F303F6000E6100A3F336
:1006C80004F6000E6100A3F305F63F0EF86EF76816
:1006D800FE0EF66EC00E0001416F09002DEE06F207
:1006E800F5C4DFF409002DEE07F2F5C4DFF4000EBF
:1006F8006100A3F308F6000E6100A3F309F6800E6B
:100708006100A3F30AF6800E6100A3F30BF6300E26
:10071800F86E000EF76E000EF66E0C0E046E0900F1
:10072800000E0424D96EDA6A360EDA22F5C4DFF434
:10073800042A0F0E0464A3EF03F0A5EF03F093EF70
:1007480003F0000E036E190E026E1200000E136EF7
:1007580000F0132A1328D8A4B4EF03F0B6EF03F07F
:10076800ACEF03F0CEB6BBEF03F0BDEF03F0C0EF84
:1007780003F0010EF7EF03F0000E6100A3F3FCF5A0
:100788000D0E6100A3F3FDF5000E6100A3F3FEF565
:10079800FE0E6100A3F3F8F5F20E6100A3F3F9F57C
:1007A800010E6100A3F3FAF5E2EC02F0FE0EF66E1C
:1007B800FF0EF76E010EF86E09006100D4F311F513
:1007C800126A0900F55012263150111809E1325009
:1007D8001218D8B4F2EF03F0F4EF03F0F6EF03F0D9
:1007E800BDEF03F0000E1200B2A0FDEF03F0FFEF23
:1007F80003F0F8EF03F0000E336E0201B2A707EF23
:1008080004F009EF04F017EF04F0338202D817EF71
:1008180004F00500FA6E2D50FD6E2E50FE6EF85055
:10082800FF6EFA5012000201B2A31DEF04F01FEF91
:1008380004F02DEF04F0338402D82DEF04F0050006
:10084800FA6E2B50FD6E2C50FE6EF850FF6EFA506B
:1008580012003350D8B433EF04F035EF04F042EF10
:1008680004F002D842EF04F00500FA6E2950FD6E3C
:100878002A50FE6EF850FF6EFA5012000201A15184
:1008880012006D00F0F7F6F46D00F4F7F7F46D0060
:10089800F8F7F8F4100EF65C000EF758200EF8582A
:1008A800D8A059EF04F05BEF04F060EF04F0C40E39
:1008B8000001416F63EF04F0840E0001416F000EE8
:1008C800086E74EF04F0000E0824D96EDA6A360E4A
:1008D800DA22DF50F56E0C00EBEC05F0F62A082A58
:1008E8002DEEF8F10850066E076ADE50065CDE5001
:1008F8000758D8A082EF04F084EF04F067EF04F003
:10090800010E6100A3F300F6000E006E000E016EEA
:10091800000E036E0A0E026E1200000EC26E000E6A
:10092800C16E000EBE6E010EC36E000EBF6E000ECD
:10093800C06E070ECA6EFE0ECB6EC668C768C86862
:10094800C9680401186910690869070E206FFC0E50
:10095800286FF70E006F000E196F000E296F000E3A
:10096800216F000E096F080E016F000E116F000E47
:10097800226F000E2A6F000E026F000E0A6F000E23
:10098800126F000E1A6F03690B6913691B69070E52
:10099800236F2B6904690C6914691C690F0E246F95
:1009A8002C69200E0201296F290E726F12006D004A
:1009B800F0F7F6F46D00F4F7F7F46D00F8F7F8F4D3
:1009C800C00E0001416F000E086EF5EF04F009003B
:1009D800000E0824D96EDA6A360EDA22F5C4DFF47E
:1009E800082A2DEEF8F10850066E076ADE50065CFC
:1009F800DE500758D8A003EF05F005EF05F0EBEF40
:100A080004F02DEEF8F1610078F304F5610074F359
:100A180005F5090E0424026E000E0520036E12006F
:100A2800000E0201A56F000EA66F000EA76F000E44
:100A3800A86F000EA96F000EAA6FB00EAB6F800EE4
:100A4800AC6F000EAD6F110EAE6F040EAF6F000EDF
:100A5800B06F000EB16F000EB26F000EB36F1A0EBA
:100A6800026E0C0E036EFFEC05F0180E026E0C0EF3
:100A7800036EFAEC05F01C0E026E0C0E036E04EC0D
:100A880006F0000E336E1200000ED6BE010E066E82
:100A9800610010F445F061000CF444F0610008F4C2
:100AA80043F000014151F80B0209416FD69E550EE3
:100AB800426FAA0E426F408140B165EF05F067EFC3
:100AC80005F060EF05F006B002D0D69E01D0D68EB4
:100AD800F80E0001411712000DEEF7F110EE09F1C2
:100AE800EE6AE550E150FCE1E250FAE101EE29F14D
:100AF8000E0EEE6AE806FDE10401080E5D6F000EB9
:100B08005E6F000E5F6F000EF86E0001F4EF05F0E7
:100B1800000E006E000E016EAAEC03F0E806D8A4E1
:100B280098EF05F09AEF05F09CEF05F034EC01F032
:100B3800000EFC6E000EE06E80EF06F01200000E54
:100B48000001606F000E616F000E626F000E636F30
:100B5800000E646F000E656F000E666F000E676F03
:100B6800000E686F1200200E0001AD6F000EAF6F0F
:100B7800010EB36F020EB16F000EB06FB2A1C7EFD6
:100B880005F0C9EF05F0C2EF05F01200026EB2A23F
:100B9800D0EF05F0D2EF05F0CBEF05F0610008F4D7
:100BA800A3F21200A3EC05F091EC04F0B7EC05F009
:100BB80014EC05F08CEC05F012003404D8A4E7EF2F
:100BC80005F0E9EF05F0EAEF05F0FF00120000017B
:100BD8000050426F0150426F408100F000F0120057
:100BE800D6EC05F0F6EF05F085EF00F002C52BF521
:100BF80003C52CF5120002C52DF503C52EF512000C
:0A0C080002C529F503C52AF5120004
:0A0C1400BD90110012001200120042
:020000040020DA
:10000000FF0FFF0FFF0FFF0FFF0FFF0FFF0FFF0F80
:10001000FF0FFF0FFF0FFF0FFF0FFF0FFF0FFF0F70
:020000040030CA
:10000000AAEFEFFF9FFFFFFFFFFFFFFFFFFFFFFFD5
:10001000FFFFFFFFFFFFFFFFFFFFFFFFFFFFFFFFF0
:04002000FFFFFFFFE0
:00000001FF
