

Microchip MPLAB XC8 Assembler V2.32 build 20210201212658 
                                                                                               Mon Aug 23 10:07:53 2021

Microchip MPLAB XC8 C Compiler v2.32 (Free license) build 20210201212658 Og1 
     1                           	processor	18F57Q84
     2                           	fnconf	rparam,??,?,0
     3                           	pagewidth 120
     4                           	opt	flic
     5                           	psect	cinit,global,reloc=2,class=CODE,delta=1
     6                           	psect	bssCOMRAM,global,class=COMRAM,space=1,delta=1,lowdata,noexec
     7                           	psect	cstackCOMRAM,global,class=COMRAM,space=1,delta=1,lowdata,noexec
     8                           	psect	text0,global,reloc=2,class=CODE,delta=1
     9                           	psect	text1,global,reloc=2,class=CODE,delta=1
    10                           	psect	text2,global,reloc=2,class=CODE,delta=1
    11                           	psect	text3,global,reloc=2,class=CODE,delta=1
    12                           	psect	text4,global,reloc=2,class=CODE,delta=1
    13                           	psect	text5,global,reloc=2,class=CODE,delta=1
    14                           	psect	text6,global,reloc=2,class=CODE,delta=1
    15                           	psect	text7,global,reloc=2,class=CODE,delta=1
    16                           	psect	text8,global,reloc=4,class=CODE,delta=1
    17                           	psect	text9,global,reloc=4,class=CODE,delta=1
    18                           	psect	text10,global,reloc=2,class=CODE,delta=1
    19                           	psect	text11,global,reloc=2,class=CODE,delta=1
    20                           	psect	text12,global,reloc=2,class=CODE,delta=1
    21                           	psect	ivt0xD08,global,reloc=2,class=CODE,delta=1,noexec,keep,optim=
    22                           	psect	intsave_regs,global,class=BIGRAM,space=1,delta=1,noexec
    23                           	psect	text13,global,reloc=2,class=CODE,delta=1
    24                           	psect	rparam,global,class=COMRAM,space=1,delta=1,noexec
    25                           	psect	idloc,global,abs,ovrld,class=IDLOC,space=5,delta=1,noexec
    26                           	psect	config,global,abs,ovrld,class=CONFIG,space=4,delta=1,noexec
    27  0000                     
    28                           ; Version 2.35
    29                           ; Generated 04/06/2021 GMT
    30                           ; 
    31                           ; Copyright © 2021, Microchip Technology Inc. and its subsidiaries ("Microchip")
    32                           ; All rights reserved.
    33                           ; 
    34                           ; This software is developed by Microchip Technology Inc. and its subsidiaries ("Microch
      +                          ip").
    35                           ; 
    36                           ; Redistribution and use in source and binary forms, with or without modification, are
    37                           ; permitted provided that the following conditions are met:
    38                           ; 
    39                           ;     1. Redistributions of source code must retain the above copyright notice, this lis
      +                          t of
    40                           ;        conditions and the following disclaimer.
    41                           ; 
    42                           ;     2. Redistributions in binary form must reproduce the above copyright notice, this 
      +                          list
    43                           ;        of conditions and the following disclaimer in the documentation and/or other
    44                           ;        materials provided with the distribution. Publication is not required when
    45                           ;        this file is used in an embedded application.
    46                           ; 
    47                           ;     3. Microchip's name may not be used to endorse or promote products derived from th
      +                          is
    48                           ;        software without specific prior written permission.
    49                           ; 
    50                           ; THIS SOFTWARE IS PROVIDED BY MICROCHIP "AS IS" AND ANY EXPRESS OR IMPLIED WARRANTIES,
    51                           ; INCLUDING, BUT NOT LIMITED TO, THE IMPLIED WARRANTIES OF MERCHANTABILITY AND FITNESS F
      +                          OR
    52                           ; PURPOSE ARE DISCLAIMED.  IN NO EVENT SHALL MICROCHIP BE LIABLE FOR ANY DIRECT, INDIREC
      +                          T,
    53                           ; INCIDENTAL, SPECIAL, EXEMPLARY, OR CONSEQUENTIAL DAMAGES (INCLUDING BUT NOT LIMITED TO
    54                           ; PROCUREMENT OF SUBSTITUTE GOODS OR SERVICES; LOSS OF USE, DATA OR PROFITS; OR BUSINESS
    55                           ; INTERRUPTION) HOWSOEVER CAUSED AND ON ANY THEORY OF LIABILITY, WHETHER IN CONTRACT, ST
      +                          RICT
    56                           ; LIABILITY, OR TORT (INCLUDING NEGLIGENCE OR OTHERWISE) ARISING IN ANY WAY OUT OF THE U
      +                          SE OF
    57                           ; THIS SOFTWARE, EVEN IF ADVISED OF THE POSSIBILITY OF SUCH DAMAGE.
    58                           ; 
    59                           ; 
    60                           ; Code-generator required, PIC18F57Q84 Definitions
    61                           ; 
    62                           ; SFR Addresses
    63  0000                     _PMD8	set	104
    64  0000                     _PMD7	set	103
    65  0000                     _PMD6	set	102
    66  0000                     _PMD5	set	101
    67  0000                     _PMD4	set	100
    68  0000                     _PMD3	set	99
    69  0000                     _PMD2	set	98
    70  0000                     _PMD1	set	97
    71  0000                     _PMD0	set	96
    72  0000                     _OSCTUNE	set	176
    73  0000                     _OSCFRQ	set	177
    74  0000                     _OSCEN	set	179
    75  0000                     _OSCCON3	set	175
    76  0000                     _OSCCON1	set	173
    77  0000                     _PLLR	set	1424
    78  0000                     _T0CON0bits	set	794
    79  0000                     _T0CON0	set	794
    80  0000                     _TMR0L	set	792
    81  0000                     _TMR0H	set	793
    82  0000                     _T0CON1	set	795
    83  0000                     _IPR3bits	set	869
    84  0000                     _INLVLF	set	1068
    85  0000                     _INLVLE	set	1060
    86  0000                     _INLVLD	set	1052
    87  0000                     _INLVLC	set	1044
    88  0000                     _INLVLB	set	1036
    89  0000                     _INLVLA	set	1028
    90  0000                     _SLRCONF	set	1067
    91  0000                     _SLRCONE	set	1059
    92  0000                     _SLRCOND	set	1051
    93  0000                     _SLRCONC	set	1043
    94  0000                     _SLRCONB	set	1035
    95  0000                     _SLRCONA	set	1027
    96  0000                     _ODCOND	set	1050
    97  0000                     _ODCONC	set	1042
    98  0000                     _ODCONB	set	1034
    99  0000                     _ODCONA	set	1026
   100  0000                     _ODCONF	set	1066
   101  0000                     _ODCONE	set	1058
   102  0000                     _WPUC	set	1041
   103  0000                     _WPUA	set	1025
   104  0000                     _WPUB	set	1033
   105  0000                     _WPUE	set	1057
   106  0000                     _WPUF	set	1065
   107  0000                     _WPUD	set	1049
   108  0000                     _ANSELA	set	1024
   109  0000                     _ANSELF	set	1064
   110  0000                     _ANSELE	set	1056
   111  0000                     _ANSELB	set	1032
   112  0000                     _ANSELC	set	1040
   113  0000                     _ANSELD	set	1048
   114  0000                     _IVTBASEL	set	1117
   115  0000                     _IVTBASEH	set	1118
   116  0000                     _IVTBASEU	set	1119
   117  0000                     _IVTLOCKbits	set	1113
   118  0000                     _IVTLOCK	set	1113
   119  0000                     _LATFbits	set	1219
   120  0000                     _TRISD	set	1225
   121  0000                     _TRISC	set	1224
   122  0000                     _TRISB	set	1223
   123  0000                     _TRISA	set	1222
   124  0000                     _TRISF	set	1227
   125  0000                     _TRISE	set	1226
   126  0000                     _LATC	set	1216
   127  0000                     _LATB	set	1215
   128  0000                     _LATF	set	1219
   129  0000                     _LATA	set	1214
   130  0000                     _LATD	set	1217
   131  0000                     _LATE	set	1218
   132  0000                     _PIE3bits	set	1185
   133  0000                     _PIR3bits	set	1201
   134  0000                     _INTCON0bits	set	1238
   135  0000                     _GIE	set	9911
   136                           
   137                           ; #config settings
   138                           
   139                           	psect	cinit
   140  000FF0                     __pcinit:
   141                           	callstack 0
   142  000FF0                     start_initialization:
   143                           	callstack 0
   144  000FF0                     __initialization:
   145                           	callstack 0
   146                           
   147                           ; Clear objects allocated to COMRAM (5 bytes)
   148  000FF0  6A05               	clrf	(__pbssCOMRAM+4)& (0+255),c
   149  000FF2  6A04               	clrf	(__pbssCOMRAM+3)& (0+255),c
   150  000FF4  6A03               	clrf	(__pbssCOMRAM+2)& (0+255),c
   151  000FF6  6A02               	clrf	(__pbssCOMRAM+1)& (0+255),c
   152  000FF8  6A01               	clrf	__pbssCOMRAM& (0+255),c
   153                           
   154                           ;
   155                           ; Setup IVTBASE
   156                           ;
   157  000FFA  0104               	movlb	4
   158  000FFC  0E08               	movlw	(ivt0xD08_base shr 0)& (0+255)
   159  000FFE  6F5D               	movwf	93,b
   160  001000  0E0D               	movlw	(ivt0xD08_base shr (0+8))& (0+255)
   161  001002  6F5E               	movwf	94,b
   162  001004  0E00               	movlw	(ivt0xD08_base shr (0+16))& (0+255)
   163  001006  6F5F               	movwf	95,b
   164  001008                     end_of_initialization:
   165                           	callstack 0
   166  001008                     __end_of__initialization:
   167                           	callstack 0
   168  001008  0100               	movlb	0
   169  00100A  EFE8  F007         	goto	_main	;jump to C main() function
   170                           
   171                           	psect	bssCOMRAM
   172  000501                     __pbssCOMRAM:
   173                           	callstack 0
   174  000501                     _TMR0_InterruptHandler:
   175                           	callstack 0
   176  000501                     	ds	3
   177  000504                     TMR0_ISR@CountCallBack:
   178                           	callstack 0
   179  000504                     	ds	2
   180                           
   181                           	psect	cstackCOMRAM
   182  000506                     __pcstackCOMRAM:
   183                           	callstack 0
   184  000506                     ??_TMR0_UserInterruptHandler:
   185  000506                     
   186                           ; 1 bytes @ 0x0
   187  000506                     	ds	1
   188  000507                     INTERRUPT_Initialize@state:
   189                           	callstack 0
   190  000507                     TMR0_SetInterruptHandler@InterruptHandler:
   191                           	callstack 0
   192                           
   193                           ; 3 bytes @ 0x1
   194  000507                     	ds	3
   195  00050A                     
   196                           ; 1 bytes @ 0x4
   197 ;;
   198 ;;Main: autosize = 0, tempsize = 0, incstack = 0, save=0
   199 ;;
   200 ;; *************** function _main *****************
   201 ;; Defined at:
   202 ;;		line 55 in file "main.c"
   203 ;; Parameters:    Size  Location     Type
   204 ;;		None
   205 ;; Auto vars:     Size  Location     Type
   206 ;;		None
   207 ;; Return value:  Size  Location     Type
   208 ;;                  1    wreg      void 
   209 ;; Registers used:
   210 ;;		wreg, status,2, status,0, cstack
   211 ;; Tracked objects:
   212 ;;		On entry : 0/0
   213 ;;		On exit  : 0/0
   214 ;;		Unchanged: 0/0
   215 ;; Data sizes:     COMRAM   BANK5   BANK6   BANK7   BANK8   BANK9  BANK10  BANK11  BANK12  BANK13  BANK14  BANK15  BANK1
      +6  BANK17  BANK18  BANK19  BANK20  BANK21  BANK22  BANK23  BANK24  BANK25  BANK26  BANK27  BANK28  BANK29  BANK30  BANK3
      +1  BANK32  BANK33  BANK34  BANK35  BANK36  BANK37  BANK38  BANK39  BANK40  BANK41  BANK42  BANK43  BANK44  BANK45  BANK4
      +6  BANK47  BANK48  BANK49  BANK50  BANK51  BANK52  BANK53  BANK54  BANK55
   216 ;;      Params:         0       0       0       0       0       0       0       0       0       0       0       0       
      +0       0       0       0       0       0       0       0       0       0       0       0       0       0       0       
      +0       0       0       0       0       0       0       0       0       0       0       0       0       0       0       
      +0       0       0       0       0       0       0       0       0       0
   217 ;;      Locals:         0       0       0       0       0       0       0       0       0       0       0       0       
      +0       0       0       0       0       0       0       0       0       0       0       0       0       0       0       
      +0       0       0       0       0       0       0       0       0       0       0       0       0       0       0       
      +0       0       0       0       0       0       0       0       0       0
   218 ;;      Temps:          0       0       0       0       0       0       0       0       0       0       0       0       
      +0       0       0       0       0       0       0       0       0       0       0       0       0       0       0       
      +0       0       0       0       0       0       0       0       0       0       0       0       0       0       0       
      +0       0       0       0       0       0       0       0       0       0
   219 ;;      Totals:         0       0       0       0       0       0       0       0       0       0       0       0       
      +0       0       0       0       0       0       0       0       0       0       0       0       0       0       0       
      +0       0       0       0       0       0       0       0       0       0       0       0       0       0       0       
      +0       0       0       0       0       0       0       0       0       0
   220 ;;Total ram usage:        0 bytes
   221 ;; Hardware stack levels required when called: 6
   222 ;; This function calls:
   223 ;;		_SYSTEM_Initialize
   224 ;;		_TMR0_SetInterruptHandler
   225 ;; This function is called by:
   226 ;;		Startup code after reset
   227 ;; This function uses a non-reentrant model
   228 ;;
   229                           
   230                           	psect	text0
   231  000FD0                     __ptext0:
   232                           	callstack 0
   233  000FD0                     _main:
   234                           	callstack 121
   235  000FD0                     
   236                           ;main.c: 58:     SYSTEM_Initialize();
   237  000FD0  EC07  F008         	call	_SYSTEM_Initialize	;wreg free
   238                           
   239                           ;main.c: 61:     TMR0_SetInterruptHandler(TMR0_UserInterruptHandler);
   240  000FD4  0E82               	movlw	low _TMR0_UserInterruptHandler
   241  000FD6  6E07               	movwf	TMR0_SetInterruptHandler@InterruptHandler^(0+1280),c
   242  000FD8  0E0F               	movlw	high _TMR0_UserInterruptHandler
   243  000FDA  6E08               	movwf	(TMR0_SetInterruptHandler@InterruptHandler+1)^(0+1280),c
   244  000FDC  0E00               	movlw	low (_TMR0_UserInterruptHandler shr (0+16))
   245  000FDE  6E09               	movwf	(TMR0_SetInterruptHandler@InterruptHandler+2)^(0+1280),c
   246  000FE0  EC12  F008         	call	_TMR0_SetInterruptHandler	;wreg free
   247  000FE4                     
   248                           ;main.c: 68:     (INTCON0bits.GIEH = 1);
   249  000FE4  8ED6               	bsf	214,7,c	;volatile
   250  000FE6                     
   251                           ;main.c: 71:     (INTCON0bits.GIEL = 1);
   252  000FE6  8CD6               	bsf	214,6,c	;volatile
   253  000FE8                     l242:
   254  000FE8  EFF4  F007         	goto	l242
   255  000FEC  EF05  F007         	goto	start
   256  000FF0                     __end_of_main:
   257                           	callstack 0
   258                           
   259 ;; *************** function _SYSTEM_Initialize *****************
   260 ;; Defined at:
   261 ;;		line 50 in file "mcc_generated_files/mcc.c"
   262 ;; Parameters:    Size  Location     Type
   263 ;;		None
   264 ;; Auto vars:     Size  Location     Type
   265 ;;		None
   266 ;; Return value:  Size  Location     Type
   267 ;;                  1    wreg      void 
   268 ;; Registers used:
   269 ;;		wreg, status,2, status,0, cstack
   270 ;; Tracked objects:
   271 ;;		On entry : 0/0
   272 ;;		On exit  : 0/0
   273 ;;		Unchanged: 0/0
   274 ;; Data sizes:     COMRAM   BANK5   BANK6   BANK7   BANK8   BANK9  BANK10  BANK11  BANK12  BANK13  BANK14  BANK15  BANK1
      +6  BANK17  BANK18  BANK19  BANK20  BANK21  BANK22  BANK23  BANK24  BANK25  BANK26  BANK27  BANK28  BANK29  BANK30  BANK3
      +1  BANK32  BANK33  BANK34  BANK35  BANK36  BANK37  BANK38  BANK39  BANK40  BANK41  BANK42  BANK43  BANK44  BANK45  BANK4
      +6  BANK47  BANK48  BANK49  BANK50  BANK51  BANK52  BANK53  BANK54  BANK55
   275 ;;      Params:         0       0       0       0       0       0       0       0       0       0       0       0       
      +0       0       0       0       0       0       0       0       0       0       0       0       0       0       0       
      +0       0       0       0       0       0       0       0       0       0       0       0       0       0       0       
      +0       0       0       0       0       0       0       0       0       0
   276 ;;      Locals:         0       0       0       0       0       0       0       0       0       0       0       0       
      +0       0       0       0       0       0       0       0       0       0       0       0       0       0       0       
      +0       0       0       0       0       0       0       0       0       0       0       0       0       0       0       
      +0       0       0       0       0       0       0       0       0       0
   277 ;;      Temps:          0       0       0       0       0       0       0       0       0       0       0       0       
      +0       0       0       0       0       0       0       0       0       0       0       0       0       0       0       
      +0       0       0       0       0       0       0       0       0       0       0       0       0       0       0       
      +0       0       0       0       0       0       0       0       0       0
   278 ;;      Totals:         0       0       0       0       0       0       0       0       0       0       0       0       
      +0       0       0       0       0       0       0       0       0       0       0       0       0       0       0       
      +0       0       0       0       0       0       0       0       0       0       0       0       0       0       0       
      +0       0       0       0       0       0       0       0       0       0
   279 ;;Total ram usage:        0 bytes
   280 ;; Hardware stack levels used: 1
   281 ;; Hardware stack levels required when called: 5
   282 ;; This function calls:
   283 ;;		_INTERRUPT_Initialize
   284 ;;		_OSCILLATOR_Initialize
   285 ;;		_PIN_MANAGER_Initialize
   286 ;;		_PMD_Initialize
   287 ;;		_TMR0_Initialize
   288 ;; This function is called by:
   289 ;;		_main
   290 ;; This function uses a non-reentrant model
   291 ;;
   292                           
   293                           	psect	text1
   294  00100E                     __ptext1:
   295                           	callstack 0
   296  00100E                     _SYSTEM_Initialize:
   297                           	callstack 121
   298  00100E                     
   299                           ;mcc_generated_files/mcc.c: 52:     INTERRUPT_Initialize();
   300  00100E  EC4C  F007         	call	_INTERRUPT_Initialize	;wreg free
   301                           
   302                           ;mcc_generated_files/mcc.c: 53:     PMD_Initialize();
   303  001012  ECAD  F007         	call	_PMD_Initialize	;wreg free
   304                           
   305                           ;mcc_generated_files/mcc.c: 54:     PIN_MANAGER_Initialize();
   306  001016  EC07  F007         	call	_PIN_MANAGER_Initialize	;wreg free
   307                           
   308                           ;mcc_generated_files/mcc.c: 55:     OSCILLATOR_Initialize();
   309  00101A  ECD5  F007         	call	_OSCILLATOR_Initialize	;wreg free
   310  00101E                     
   311                           ;mcc_generated_files/mcc.c: 56:     TMR0_Initialize();
   312  00101E  EC83  F007         	call	_TMR0_Initialize	;wreg free
   313  001022  0012               	return		;funcret
   314  001024                     __end_of_SYSTEM_Initialize:
   315                           	callstack 0
   316                           
   317 ;; *************** function _TMR0_Initialize *****************
   318 ;; Defined at:
   319 ;;		line 62 in file "mcc_generated_files/tmr0.c"
   320 ;; Parameters:    Size  Location     Type
   321 ;;		None
   322 ;; Auto vars:     Size  Location     Type
   323 ;;		None
   324 ;; Return value:  Size  Location     Type
   325 ;;                  1    wreg      void 
   326 ;; Registers used:
   327 ;;		wreg, status,2, status,0, cstack
   328 ;; Tracked objects:
   329 ;;		On entry : 0/0
   330 ;;		On exit  : 0/0
   331 ;;		Unchanged: 0/0
   332 ;; Data sizes:     COMRAM   BANK5   BANK6   BANK7   BANK8   BANK9  BANK10  BANK11  BANK12  BANK13  BANK14  BANK15  BANK1
      +6  BANK17  BANK18  BANK19  BANK20  BANK21  BANK22  BANK23  BANK24  BANK25  BANK26  BANK27  BANK28  BANK29  BANK30  BANK3
      +1  BANK32  BANK33  BANK34  BANK35  BANK36  BANK37  BANK38  BANK39  BANK40  BANK41  BANK42  BANK43  BANK44  BANK45  BANK4
      +6  BANK47  BANK48  BANK49  BANK50  BANK51  BANK52  BANK53  BANK54  BANK55
   333 ;;      Params:         0       0       0       0       0       0       0       0       0       0       0       0       
      +0       0       0       0       0       0       0       0       0       0       0       0       0       0       0       
      +0       0       0       0       0       0       0       0       0       0       0       0       0       0       0       
      +0       0       0       0       0       0       0       0       0       0
   334 ;;      Locals:         0       0       0       0       0       0       0       0       0       0       0       0       
      +0       0       0       0       0       0       0       0       0       0       0       0       0       0       0       
      +0       0       0       0       0       0       0       0       0       0       0       0       0       0       0       
      +0       0       0       0       0       0       0       0       0       0
   335 ;;      Temps:          0       0       0       0       0       0       0       0       0       0       0       0       
      +0       0       0       0       0       0       0       0       0       0       0       0       0       0       0       
      +0       0       0       0       0       0       0       0       0       0       0       0       0       0       0       
      +0       0       0       0       0       0       0       0       0       0
   336 ;;      Totals:         0       0       0       0       0       0       0       0       0       0       0       0       
      +0       0       0       0       0       0       0       0       0       0       0       0       0       0       0       
      +0       0       0       0       0       0       0       0       0       0       0       0       0       0       0       
      +0       0       0       0       0       0       0       0       0       0
   337 ;;Total ram usage:        0 bytes
   338 ;; Hardware stack levels used: 1
   339 ;; Hardware stack levels required when called: 4
   340 ;; This function calls:
   341 ;;		_TMR0_SetInterruptHandler
   342 ;; This function is called by:
   343 ;;		_SYSTEM_Initialize
   344 ;; This function uses a non-reentrant model
   345 ;;
   346                           
   347                           	psect	text2
   348  000F06                     __ptext2:
   349                           	callstack 0
   350  000F06                     _TMR0_Initialize:
   351                           	callstack 121
   352  000F06                     
   353                           ;mcc_generated_files/tmr0.c: 67:     T0CON1 = 0x42;
   354  000F06  0E42               	movlw	66
   355  000F08  0103               	movlb	3	; () banked
   356  000F0A  6F1B               	movwf	27,b	;volatile
   357                           
   358                           ;mcc_generated_files/tmr0.c: 70:     TMR0H = 0xF9;
   359  000F0C  0EF9               	movlw	249
   360  000F0E  6F19               	movwf	25,b	;volatile
   361                           
   362                           ;mcc_generated_files/tmr0.c: 73:     TMR0L = 0x00;
   363  000F10  0E00               	movlw	0
   364  000F12  6F18               	movwf	24,b	;volatile
   365  000F14                     
   366                           ; BSR set to: 3
   367                           ;mcc_generated_files/tmr0.c: 76:     PIR3bits.TMR0IF = 0;
   368  000F14  9EB1               	bcf	177,7,c	;volatile
   369  000F16                     
   370                           ; BSR set to: 3
   371                           ;mcc_generated_files/tmr0.c: 79:     PIE3bits.TMR0IE = 1;
   372  000F16  8EA1               	bsf	161,7,c	;volatile
   373  000F18                     
   374                           ; BSR set to: 3
   375                           ;mcc_generated_files/tmr0.c: 82:     TMR0_SetInterruptHandler(TMR0_DefaultInterruptHandl
      +                          er);
   376  000F18  0E36               	movlw	low _TMR0_DefaultInterruptHandler
   377  000F1A  6E07               	movwf	TMR0_SetInterruptHandler@InterruptHandler^(0+1280),c
   378  000F1C  0E10               	movlw	high _TMR0_DefaultInterruptHandler
   379  000F1E  6E08               	movwf	(TMR0_SetInterruptHandler@InterruptHandler+1)^(0+1280),c
   380  000F20  0E00               	movlw	low (_TMR0_DefaultInterruptHandler shr (0+16))
   381  000F22  6E09               	movwf	(TMR0_SetInterruptHandler@InterruptHandler+2)^(0+1280),c
   382  000F24  EC12  F008         	call	_TMR0_SetInterruptHandler	;wreg free
   383  000F28                     
   384                           ;mcc_generated_files/tmr0.c: 85:     T0CON0 = 0x89;
   385  000F28  0E89               	movlw	137
   386  000F2A  0103               	movlb	3	; () banked
   387  000F2C  6F1A               	movwf	26,b	;volatile
   388  000F2E                     
   389                           ; BSR set to: 3
   390  000F2E  0012               	return		;funcret
   391  000F30                     __end_of_TMR0_Initialize:
   392                           	callstack 0
   393                           
   394 ;; *************** function _TMR0_SetInterruptHandler *****************
   395 ;; Defined at:
   396 ;;		line 151 in file "mcc_generated_files/tmr0.c"
   397 ;; Parameters:    Size  Location     Type
   398 ;;  InterruptHan    3    1[COMRAM] PTR FTN()void 
   399 ;;		 -> TMR0_UserInterruptHandler(1), TMR0_DefaultInterruptHandler(1), 
   400 ;; Auto vars:     Size  Location     Type
   401 ;;		None
   402 ;; Return value:  Size  Location     Type
   403 ;;                  1    wreg      void 
   404 ;; Registers used:
   405 ;;		wreg, status,2, status,0
   406 ;; Tracked objects:
   407 ;;		On entry : 0/0
   408 ;;		On exit  : 0/0
   409 ;;		Unchanged: 0/0
   410 ;; Data sizes:     COMRAM   BANK5   BANK6   BANK7   BANK8   BANK9  BANK10  BANK11  BANK12  BANK13  BANK14  BANK15  BANK1
      +6  BANK17  BANK18  BANK19  BANK20  BANK21  BANK22  BANK23  BANK24  BANK25  BANK26  BANK27  BANK28  BANK29  BANK30  BANK3
      +1  BANK32  BANK33  BANK34  BANK35  BANK36  BANK37  BANK38  BANK39  BANK40  BANK41  BANK42  BANK43  BANK44  BANK45  BANK4
      +6  BANK47  BANK48  BANK49  BANK50  BANK51  BANK52  BANK53  BANK54  BANK55
   411 ;;      Params:         3       0       0       0       0       0       0       0       0       0       0       0       
      +0       0       0       0       0       0       0       0       0       0       0       0       0       0       0       
      +0       0       0       0       0       0       0       0       0       0       0       0       0       0       0       
      +0       0       0       0       0       0       0       0       0       0
   412 ;;      Locals:         0       0       0       0       0       0       0       0       0       0       0       0       
      +0       0       0       0       0       0       0       0       0       0       0       0       0       0       0       
      +0       0       0       0       0       0       0       0       0       0       0       0       0       0       0       
      +0       0       0       0       0       0       0       0       0       0
   413 ;;      Temps:          0       0       0       0       0       0       0       0       0       0       0       0       
      +0       0       0       0       0       0       0       0       0       0       0       0       0       0       0       
      +0       0       0       0       0       0       0       0       0       0       0       0       0       0       0       
      +0       0       0       0       0       0       0       0       0       0
   414 ;;      Totals:         3       0       0       0       0       0       0       0       0       0       0       0       
      +0       0       0       0       0       0       0       0       0       0       0       0       0       0       0       
      +0       0       0       0       0       0       0       0       0       0       0       0       0       0       0       
      +0       0       0       0       0       0       0       0       0       0
   415 ;;Total ram usage:        3 bytes
   416 ;; Hardware stack levels used: 1
   417 ;; Hardware stack levels required when called: 3
   418 ;; This function calls:
   419 ;;		Nothing
   420 ;; This function is called by:
   421 ;;		_TMR0_Initialize
   422 ;;		_main
   423 ;; This function uses a non-reentrant model
   424 ;;
   425                           
   426                           	psect	text3
   427  001024                     __ptext3:
   428                           	callstack 0
   429  001024                     _TMR0_SetInterruptHandler:
   430                           	callstack 123
   431  001024                     
   432                           ;mcc_generated_files/tmr0.c: 152:     TMR0_InterruptHandler = InterruptHandler;
   433  001024  C507  F501         	movff	TMR0_SetInterruptHandler@InterruptHandler,_TMR0_InterruptHandler
   434  001028  C508  F502         	movff	TMR0_SetInterruptHandler@InterruptHandler+1,_TMR0_InterruptHandler+1
   435  00102C  C509  F503         	movff	TMR0_SetInterruptHandler@InterruptHandler+2,_TMR0_InterruptHandler+2
   436  001030  0012               	return		;funcret
   437  001032                     __end_of_TMR0_SetInterruptHandler:
   438                           	callstack 0
   439                           
   440 ;; *************** function _PMD_Initialize *****************
   441 ;; Defined at:
   442 ;;		line 77 in file "mcc_generated_files/mcc.c"
   443 ;; Parameters:    Size  Location     Type
   444 ;;		None
   445 ;; Auto vars:     Size  Location     Type
   446 ;;		None
   447 ;; Return value:  Size  Location     Type
   448 ;;                  1    wreg      void 
   449 ;; Registers used:
   450 ;;		wreg, status,2
   451 ;; Tracked objects:
   452 ;;		On entry : 0/0
   453 ;;		On exit  : 0/0
   454 ;;		Unchanged: 0/0
   455 ;; Data sizes:     COMRAM   BANK5   BANK6   BANK7   BANK8   BANK9  BANK10  BANK11  BANK12  BANK13  BANK14  BANK15  BANK1
      +6  BANK17  BANK18  BANK19  BANK20  BANK21  BANK22  BANK23  BANK24  BANK25  BANK26  BANK27  BANK28  BANK29  BANK30  BANK3
      +1  BANK32  BANK33  BANK34  BANK35  BANK36  BANK37  BANK38  BANK39  BANK40  BANK41  BANK42  BANK43  BANK44  BANK45  BANK4
      +6  BANK47  BANK48  BANK49  BANK50  BANK51  BANK52  BANK53  BANK54  BANK55
   456 ;;      Params:         0       0       0       0       0       0       0       0       0       0       0       0       
      +0       0       0       0       0       0       0       0       0       0       0       0       0       0       0       
      +0       0       0       0       0       0       0       0       0       0       0       0       0       0       0       
      +0       0       0       0       0       0       0       0       0       0
   457 ;;      Locals:         0       0       0       0       0       0       0       0       0       0       0       0       
      +0       0       0       0       0       0       0       0       0       0       0       0       0       0       0       
      +0       0       0       0       0       0       0       0       0       0       0       0       0       0       0       
      +0       0       0       0       0       0       0       0       0       0
   458 ;;      Temps:          0       0       0       0       0       0       0       0       0       0       0       0       
      +0       0       0       0       0       0       0       0       0       0       0       0       0       0       0       
      +0       0       0       0       0       0       0       0       0       0       0       0       0       0       0       
      +0       0       0       0       0       0       0       0       0       0
   459 ;;      Totals:         0       0       0       0       0       0       0       0       0       0       0       0       
      +0       0       0       0       0       0       0       0       0       0       0       0       0       0       0       
      +0       0       0       0       0       0       0       0       0       0       0       0       0       0       0       
      +0       0       0       0       0       0       0       0       0       0
   460 ;;Total ram usage:        0 bytes
   461 ;; Hardware stack levels used: 1
   462 ;; Hardware stack levels required when called: 3
   463 ;; This function calls:
   464 ;;		Nothing
   465 ;; This function is called by:
   466 ;;		_SYSTEM_Initialize
   467 ;; This function uses a non-reentrant model
   468 ;;
   469                           
   470                           	psect	text4
   471  000F5A                     __ptext4:
   472                           	callstack 0
   473  000F5A                     _PMD_Initialize:
   474                           	callstack 122
   475  000F5A                     
   476                           ;mcc_generated_files/mcc.c: 80:     PMD0 = 0x00;
   477  000F5A  0E00               	movlw	0
   478  000F5C  0100               	movlb	0	; () banked
   479  000F5E  6F60               	movwf	96,b	;volatile
   480                           
   481                           ;mcc_generated_files/mcc.c: 82:     PMD1 = 0x00;
   482  000F60  0E00               	movlw	0
   483  000F62  6F61               	movwf	97,b	;volatile
   484                           
   485                           ;mcc_generated_files/mcc.c: 84:     PMD2 = 0x00;
   486  000F64  0E00               	movlw	0
   487  000F66  6F62               	movwf	98,b	;volatile
   488                           
   489                           ;mcc_generated_files/mcc.c: 86:     PMD3 = 0x00;
   490  000F68  0E00               	movlw	0
   491  000F6A  6F63               	movwf	99,b	;volatile
   492                           
   493                           ;mcc_generated_files/mcc.c: 88:     PMD4 = 0x00;
   494  000F6C  0E00               	movlw	0
   495  000F6E  6F64               	movwf	100,b	;volatile
   496                           
   497                           ;mcc_generated_files/mcc.c: 90:     PMD5 = 0x00;
   498  000F70  0E00               	movlw	0
   499  000F72  6F65               	movwf	101,b	;volatile
   500                           
   501                           ;mcc_generated_files/mcc.c: 92:     PMD6 = 0x00;
   502  000F74  0E00               	movlw	0
   503  000F76  6F66               	movwf	102,b	;volatile
   504                           
   505                           ;mcc_generated_files/mcc.c: 94:     PMD7 = 0x00;
   506  000F78  0E00               	movlw	0
   507  000F7A  6F67               	movwf	103,b	;volatile
   508                           
   509                           ;mcc_generated_files/mcc.c: 96:     PMD8 = 0x00;
   510  000F7C  0E00               	movlw	0
   511  000F7E  6F68               	movwf	104,b	;volatile
   512  000F80                     
   513                           ; BSR set to: 0
   514  000F80  0012               	return		;funcret
   515  000F82                     __end_of_PMD_Initialize:
   516                           	callstack 0
   517                           
   518 ;; *************** function _PIN_MANAGER_Initialize *****************
   519 ;; Defined at:
   520 ;;		line 55 in file "mcc_generated_files/pin_manager.c"
   521 ;; Parameters:    Size  Location     Type
   522 ;;		None
   523 ;; Auto vars:     Size  Location     Type
   524 ;;		None
   525 ;; Return value:  Size  Location     Type
   526 ;;                  1    wreg      void 
   527 ;; Registers used:
   528 ;;		wreg, status,2
   529 ;; Tracked objects:
   530 ;;		On entry : 0/0
   531 ;;		On exit  : 0/0
   532 ;;		Unchanged: 0/0
   533 ;; Data sizes:     COMRAM   BANK5   BANK6   BANK7   BANK8   BANK9  BANK10  BANK11  BANK12  BANK13  BANK14  BANK15  BANK1
      +6  BANK17  BANK18  BANK19  BANK20  BANK21  BANK22  BANK23  BANK24  BANK25  BANK26  BANK27  BANK28  BANK29  BANK30  BANK3
      +1  BANK32  BANK33  BANK34  BANK35  BANK36  BANK37  BANK38  BANK39  BANK40  BANK41  BANK42  BANK43  BANK44  BANK45  BANK4
      +6  BANK47  BANK48  BANK49  BANK50  BANK51  BANK52  BANK53  BANK54  BANK55
   534 ;;      Params:         0       0       0       0       0       0       0       0       0       0       0       0       
      +0       0       0       0       0       0       0       0       0       0       0       0       0       0       0       
      +0       0       0       0       0       0       0       0       0       0       0       0       0       0       0       
      +0       0       0       0       0       0       0       0       0       0
   535 ;;      Locals:         0       0       0       0       0       0       0       0       0       0       0       0       
      +0       0       0       0       0       0       0       0       0       0       0       0       0       0       0       
      +0       0       0       0       0       0       0       0       0       0       0       0       0       0       0       
      +0       0       0       0       0       0       0       0       0       0
   536 ;;      Temps:          0       0       0       0       0       0       0       0       0       0       0       0       
      +0       0       0       0       0       0       0       0       0       0       0       0       0       0       0       
      +0       0       0       0       0       0       0       0       0       0       0       0       0       0       0       
      +0       0       0       0       0       0       0       0       0       0
   537 ;;      Totals:         0       0       0       0       0       0       0       0       0       0       0       0       
      +0       0       0       0       0       0       0       0       0       0       0       0       0       0       0       
      +0       0       0       0       0       0       0       0       0       0       0       0       0       0       0       
      +0       0       0       0       0       0       0       0       0       0
   538 ;;Total ram usage:        0 bytes
   539 ;; Hardware stack levels used: 1
   540 ;; Hardware stack levels required when called: 3
   541 ;; This function calls:
   542 ;;		Nothing
   543 ;; This function is called by:
   544 ;;		_SYSTEM_Initialize
   545 ;; This function uses a non-reentrant model
   546 ;;
   547                           
   548                           	psect	text5
   549  000E0E                     __ptext5:
   550                           	callstack 0
   551  000E0E                     _PIN_MANAGER_Initialize:
   552                           	callstack 122
   553  000E0E                     
   554                           ;mcc_generated_files/pin_manager.c: 60:     LATE = 0x00;
   555  000E0E  0E00               	movlw	0
   556  000E10  6EC2               	movwf	194,c	;volatile
   557                           
   558                           ;mcc_generated_files/pin_manager.c: 61:     LATD = 0x00;
   559  000E12  0E00               	movlw	0
   560  000E14  6EC1               	movwf	193,c	;volatile
   561                           
   562                           ;mcc_generated_files/pin_manager.c: 62:     LATA = 0x00;
   563  000E16  0E00               	movlw	0
   564  000E18  6EBE               	movwf	190,c	;volatile
   565                           
   566                           ;mcc_generated_files/pin_manager.c: 63:     LATF = 0x00;
   567  000E1A  0E00               	movlw	0
   568  000E1C  6EC3               	movwf	195,c	;volatile
   569                           
   570                           ;mcc_generated_files/pin_manager.c: 64:     LATB = 0x00;
   571  000E1E  0E00               	movlw	0
   572  000E20  6EBF               	movwf	191,c	;volatile
   573                           
   574                           ;mcc_generated_files/pin_manager.c: 65:     LATC = 0x00;
   575  000E22  0E00               	movlw	0
   576  000E24  6EC0               	movwf	192,c	;volatile
   577                           
   578                           ;mcc_generated_files/pin_manager.c: 70:     TRISE = 0x07;
   579  000E26  0E07               	movlw	7
   580  000E28  6ECA               	movwf	202,c	;volatile
   581                           
   582                           ;mcc_generated_files/pin_manager.c: 71:     TRISF = 0xF7;
   583  000E2A  0EF7               	movlw	247
   584  000E2C  6ECB               	movwf	203,c	;volatile
   585  000E2E                     
   586                           ;mcc_generated_files/pin_manager.c: 72:     TRISA = 0xFF;
   587  000E2E  68C6               	setf	198,c	;volatile
   588  000E30                     
   589                           ;mcc_generated_files/pin_manager.c: 73:     TRISB = 0xFF;
   590  000E30  68C7               	setf	199,c	;volatile
   591  000E32                     
   592                           ;mcc_generated_files/pin_manager.c: 74:     TRISC = 0xFF;
   593  000E32  68C8               	setf	200,c	;volatile
   594  000E34                     
   595                           ;mcc_generated_files/pin_manager.c: 75:     TRISD = 0xFF;
   596  000E34  68C9               	setf	201,c	;volatile
   597  000E36                     
   598                           ;mcc_generated_files/pin_manager.c: 80:     ANSELD = 0xFF;
   599  000E36  0104               	movlb	4	; () banked
   600  000E38  6918               	setf	24,b	;volatile
   601  000E3A                     
   602                           ; BSR set to: 4
   603                           ;mcc_generated_files/pin_manager.c: 81:     ANSELC = 0xFF;
   604  000E3A  6910               	setf	16,b	;volatile
   605  000E3C                     
   606                           ; BSR set to: 4
   607                           ;mcc_generated_files/pin_manager.c: 82:     ANSELB = 0xFF;
   608  000E3C  6908               	setf	8,b	;volatile
   609                           
   610                           ;mcc_generated_files/pin_manager.c: 83:     ANSELE = 0x07;
   611  000E3E  0E07               	movlw	7
   612  000E40  6F20               	movwf	32,b	;volatile
   613                           
   614                           ;mcc_generated_files/pin_manager.c: 84:     ANSELF = 0xF7;
   615  000E42  0EF7               	movlw	247
   616  000E44  6F28               	movwf	40,b	;volatile
   617                           
   618                           ;mcc_generated_files/pin_manager.c: 85:     ANSELA = 0xF7;
   619  000E46  0EF7               	movlw	247
   620  000E48  6F00               	movwf	0,b	;volatile
   621                           
   622                           ;mcc_generated_files/pin_manager.c: 90:     WPUD = 0x00;
   623  000E4A  0E00               	movlw	0
   624  000E4C  6F19               	movwf	25,b	;volatile
   625                           
   626                           ;mcc_generated_files/pin_manager.c: 91:     WPUF = 0x00;
   627  000E4E  0E00               	movlw	0
   628  000E50  6F29               	movwf	41,b	;volatile
   629                           
   630                           ;mcc_generated_files/pin_manager.c: 92:     WPUE = 0x00;
   631  000E52  0E00               	movlw	0
   632  000E54  6F21               	movwf	33,b	;volatile
   633                           
   634                           ;mcc_generated_files/pin_manager.c: 93:     WPUB = 0x00;
   635  000E56  0E00               	movlw	0
   636  000E58  6F09               	movwf	9,b	;volatile
   637                           
   638                           ;mcc_generated_files/pin_manager.c: 94:     WPUA = 0x08;
   639  000E5A  0E08               	movlw	8
   640  000E5C  6F01               	movwf	1,b	;volatile
   641                           
   642                           ;mcc_generated_files/pin_manager.c: 95:     WPUC = 0x00;
   643  000E5E  0E00               	movlw	0
   644  000E60  6F11               	movwf	17,b	;volatile
   645                           
   646                           ;mcc_generated_files/pin_manager.c: 100:     ODCONE = 0x00;
   647  000E62  0E00               	movlw	0
   648  000E64  6F22               	movwf	34,b	;volatile
   649                           
   650                           ;mcc_generated_files/pin_manager.c: 101:     ODCONF = 0x00;
   651  000E66  0E00               	movlw	0
   652  000E68  6F2A               	movwf	42,b	;volatile
   653                           
   654                           ;mcc_generated_files/pin_manager.c: 102:     ODCONA = 0x00;
   655  000E6A  0E00               	movlw	0
   656  000E6C  6F02               	movwf	2,b	;volatile
   657                           
   658                           ;mcc_generated_files/pin_manager.c: 103:     ODCONB = 0x00;
   659  000E6E  0E00               	movlw	0
   660  000E70  6F0A               	movwf	10,b	;volatile
   661                           
   662                           ;mcc_generated_files/pin_manager.c: 104:     ODCONC = 0x00;
   663  000E72  0E00               	movlw	0
   664  000E74  6F12               	movwf	18,b	;volatile
   665                           
   666                           ;mcc_generated_files/pin_manager.c: 105:     ODCOND = 0x00;
   667  000E76  0E00               	movlw	0
   668  000E78  6F1A               	movwf	26,b	;volatile
   669  000E7A                     
   670                           ; BSR set to: 4
   671                           ;mcc_generated_files/pin_manager.c: 110:     SLRCONA = 0xFF;
   672  000E7A  6903               	setf	3,b	;volatile
   673  000E7C                     
   674                           ; BSR set to: 4
   675                           ;mcc_generated_files/pin_manager.c: 111:     SLRCONB = 0xFF;
   676  000E7C  690B               	setf	11,b	;volatile
   677  000E7E                     
   678                           ; BSR set to: 4
   679                           ;mcc_generated_files/pin_manager.c: 112:     SLRCONC = 0xFF;
   680  000E7E  6913               	setf	19,b	;volatile
   681  000E80                     
   682                           ; BSR set to: 4
   683                           ;mcc_generated_files/pin_manager.c: 113:     SLRCOND = 0xFF;
   684  000E80  691B               	setf	27,b	;volatile
   685                           
   686                           ;mcc_generated_files/pin_manager.c: 114:     SLRCONE = 0x07;
   687  000E82  0E07               	movlw	7
   688  000E84  6F23               	movwf	35,b	;volatile
   689  000E86                     
   690                           ; BSR set to: 4
   691                           ;mcc_generated_files/pin_manager.c: 115:     SLRCONF = 0xFF;
   692  000E86  692B               	setf	43,b	;volatile
   693  000E88                     
   694                           ; BSR set to: 4
   695                           ;mcc_generated_files/pin_manager.c: 120:     INLVLA = 0xFF;
   696  000E88  6904               	setf	4,b	;volatile
   697  000E8A                     
   698                           ; BSR set to: 4
   699                           ;mcc_generated_files/pin_manager.c: 121:     INLVLB = 0xFF;
   700  000E8A  690C               	setf	12,b	;volatile
   701  000E8C                     
   702                           ; BSR set to: 4
   703                           ;mcc_generated_files/pin_manager.c: 122:     INLVLC = 0xFF;
   704  000E8C  6914               	setf	20,b	;volatile
   705  000E8E                     
   706                           ; BSR set to: 4
   707                           ;mcc_generated_files/pin_manager.c: 123:     INLVLD = 0xFF;
   708  000E8E  691C               	setf	28,b	;volatile
   709                           
   710                           ;mcc_generated_files/pin_manager.c: 124:     INLVLE = 0x0F;
   711  000E90  0E0F               	movlw	15
   712  000E92  6F24               	movwf	36,b	;volatile
   713  000E94                     
   714                           ; BSR set to: 4
   715                           ;mcc_generated_files/pin_manager.c: 125:     INLVLF = 0xFF;
   716  000E94  692C               	setf	44,b	;volatile
   717  000E96                     
   718                           ; BSR set to: 4
   719  000E96  0012               	return		;funcret
   720  000E98                     __end_of_PIN_MANAGER_Initialize:
   721                           	callstack 0
   722                           
   723 ;; *************** function _OSCILLATOR_Initialize *****************
   724 ;; Defined at:
   725 ;;		line 59 in file "mcc_generated_files/mcc.c"
   726 ;; Parameters:    Size  Location     Type
   727 ;;		None
   728 ;; Auto vars:     Size  Location     Type
   729 ;;		None
   730 ;; Return value:  Size  Location     Type
   731 ;;                  1    wreg      void 
   732 ;; Registers used:
   733 ;;		wreg, status,2
   734 ;; Tracked objects:
   735 ;;		On entry : 0/0
   736 ;;		On exit  : 0/0
   737 ;;		Unchanged: 0/0
   738 ;; Data sizes:     COMRAM   BANK5   BANK6   BANK7   BANK8   BANK9  BANK10  BANK11  BANK12  BANK13  BANK14  BANK15  BANK1
      +6  BANK17  BANK18  BANK19  BANK20  BANK21  BANK22  BANK23  BANK24  BANK25  BANK26  BANK27  BANK28  BANK29  BANK30  BANK3
      +1  BANK32  BANK33  BANK34  BANK35  BANK36  BANK37  BANK38  BANK39  BANK40  BANK41  BANK42  BANK43  BANK44  BANK45  BANK4
      +6  BANK47  BANK48  BANK49  BANK50  BANK51  BANK52  BANK53  BANK54  BANK55
   739 ;;      Params:         0       0       0       0       0       0       0       0       0       0       0       0       
      +0       0       0       0       0       0       0       0       0       0       0       0       0       0       0       
      +0       0       0       0       0       0       0       0       0       0       0       0       0       0       0       
      +0       0       0       0       0       0       0       0       0       0
   740 ;;      Locals:         0       0       0       0       0       0       0       0       0       0       0       0       
      +0       0       0       0       0       0       0       0       0       0       0       0       0       0       0       
      +0       0       0       0       0       0       0       0       0       0       0       0       0       0       0       
      +0       0       0       0       0       0       0       0       0       0
   741 ;;      Temps:          0       0       0       0       0       0       0       0       0       0       0       0       
      +0       0       0       0       0       0       0       0       0       0       0       0       0       0       0       
      +0       0       0       0       0       0       0       0       0       0       0       0       0       0       0       
      +0       0       0       0       0       0       0       0       0       0
   742 ;;      Totals:         0       0       0       0       0       0       0       0       0       0       0       0       
      +0       0       0       0       0       0       0       0       0       0       0       0       0       0       0       
      +0       0       0       0       0       0       0       0       0       0       0       0       0       0       0       
      +0       0       0       0       0       0       0       0       0       0
   743 ;;Total ram usage:        0 bytes
   744 ;; Hardware stack levels used: 1
   745 ;; Hardware stack levels required when called: 3
   746 ;; This function calls:
   747 ;;		Nothing
   748 ;; This function is called by:
   749 ;;		_SYSTEM_Initialize
   750 ;; This function uses a non-reentrant model
   751 ;;
   752                           
   753                           	psect	text6
   754  000FAA                     __ptext6:
   755                           	callstack 0
   756  000FAA                     _OSCILLATOR_Initialize:
   757                           	callstack 122
   758  000FAA                     
   759                           ;mcc_generated_files/mcc.c: 62:     OSCCON1 = 0x20;
   760  000FAA  0E20               	movlw	32
   761  000FAC  0100               	movlb	0	; () banked
   762  000FAE  6FAD               	movwf	173,b	;volatile
   763                           
   764                           ;mcc_generated_files/mcc.c: 64:     OSCCON3 = 0x00;
   765  000FB0  0E00               	movlw	0
   766  000FB2  6FAF               	movwf	175,b	;volatile
   767                           
   768                           ;mcc_generated_files/mcc.c: 66:     OSCEN = 0x01;
   769  000FB4  0E01               	movlw	1
   770  000FB6  6FB3               	movwf	179,b	;volatile
   771                           
   772                           ;mcc_generated_files/mcc.c: 68:     OSCFRQ = 0x02;
   773  000FB8  0E02               	movlw	2
   774  000FBA  6FB1               	movwf	177,b	;volatile
   775                           
   776                           ;mcc_generated_files/mcc.c: 70:     OSCTUNE = 0x00;
   777  000FBC  0E00               	movlw	0
   778  000FBE  6FB0               	movwf	176,b	;volatile
   779  000FC0                     l128:
   780                           
   781                           ; BSR set to: 0
   782                           ;mcc_generated_files/mcc.c: 72:     while(PLLR == 0)
   783  000FC0  A1B2               	btfss	178,0,b	;volatile
   784  000FC2  EFE5  F007         	goto	u21
   785  000FC6  EFE7  F007         	goto	u20
   786  000FCA                     u21:
   787  000FCA  EFE0  F007         	goto	l128
   788  000FCE                     u20:
   789  000FCE                     
   790                           ; BSR set to: 0
   791  000FCE  0012               	return		;funcret
   792  000FD0                     __end_of_OSCILLATOR_Initialize:
   793                           	callstack 0
   794                           
   795 ;; *************** function _INTERRUPT_Initialize *****************
   796 ;; Defined at:
   797 ;;		line 52 in file "mcc_generated_files/interrupt_manager.c"
   798 ;; Parameters:    Size  Location     Type
   799 ;;		None
   800 ;; Auto vars:     Size  Location     Type
   801 ;;  state           1    1[COMRAM] _Bool 
   802 ;; Return value:  Size  Location     Type
   803 ;;                  1    wreg      void 
   804 ;; Registers used:
   805 ;;		wreg, status,2
   806 ;; Tracked objects:
   807 ;;		On entry : 0/0
   808 ;;		On exit  : 0/0
   809 ;;		Unchanged: 0/0
   810 ;; Data sizes:     COMRAM   BANK5   BANK6   BANK7   BANK8   BANK9  BANK10  BANK11  BANK12  BANK13  BANK14  BANK15  BANK1
      +6  BANK17  BANK18  BANK19  BANK20  BANK21  BANK22  BANK23  BANK24  BANK25  BANK26  BANK27  BANK28  BANK29  BANK30  BANK3
      +1  BANK32  BANK33  BANK34  BANK35  BANK36  BANK37  BANK38  BANK39  BANK40  BANK41  BANK42  BANK43  BANK44  BANK45  BANK4
      +6  BANK47  BANK48  BANK49  BANK50  BANK51  BANK52  BANK53  BANK54  BANK55
   811 ;;      Params:         0       0       0       0       0       0       0       0       0       0       0       0       
      +0       0       0       0       0       0       0       0       0       0       0       0       0       0       0       
      +0       0       0       0       0       0       0       0       0       0       0       0       0       0       0       
      +0       0       0       0       0       0       0       0       0       0
   812 ;;      Locals:         1       0       0       0       0       0       0       0       0       0       0       0       
      +0       0       0       0       0       0       0       0       0       0       0       0       0       0       0       
      +0       0       0       0       0       0       0       0       0       0       0       0       0       0       0       
      +0       0       0       0       0       0       0       0       0       0
   813 ;;      Temps:          0       0       0       0       0       0       0       0       0       0       0       0       
      +0       0       0       0       0       0       0       0       0       0       0       0       0       0       0       
      +0       0       0       0       0       0       0       0       0       0       0       0       0       0       0       
      +0       0       0       0       0       0       0       0       0       0
   814 ;;      Totals:         1       0       0       0       0       0       0       0       0       0       0       0       
      +0       0       0       0       0       0       0       0       0       0       0       0       0       0       0       
      +0       0       0       0       0       0       0       0       0       0       0       0       0       0       0       
      +0       0       0       0       0       0       0       0       0       0
   815 ;;Total ram usage:        1 bytes
   816 ;; Hardware stack levels used: 1
   817 ;; Hardware stack levels required when called: 3
   818 ;; This function calls:
   819 ;;		Nothing
   820 ;; This function is called by:
   821 ;;		_SYSTEM_Initialize
   822 ;; This function uses a non-reentrant model
   823 ;;
   824                           
   825                           	psect	text7
   826  000E98                     __ptext7:
   827                           	callstack 0
   828  000E98                     _INTERRUPT_Initialize:
   829                           	callstack 122
   830  000E98                     
   831                           ;mcc_generated_files/interrupt_manager.c: 54:     INTCON0bits.IPEN = 1;
   832  000E98  8AD6               	bsf	214,5,c	;volatile
   833  000E9A                     
   834                           ;mcc_generated_files/interrupt_manager.c: 56:     _Bool state = (unsigned char)GIE;
   835  000E9A  0E00               	movlw	0
   836  000E9C  BED6               	btfsc	1238,7,c	;volatile
   837  000E9E  0E01               	movlw	1
   838  000EA0  6E07               	movwf	INTERRUPT_Initialize@state^(0+1280),c
   839  000EA2                     
   840                           ;mcc_generated_files/interrupt_manager.c: 57:     GIE = 0;
   841  000EA2  9ED6               	bcf	1238,7,c	;volatile
   842                           
   843                           ;mcc_generated_files/interrupt_manager.c: 58:     IVTLOCK = 0x55;
   844  000EA4  0E55               	movlw	85
   845  000EA6  0104               	movlb	4	; () banked
   846  000EA8  6F59               	movwf	89,b	;volatile
   847                           
   848                           ;mcc_generated_files/interrupt_manager.c: 59:     IVTLOCK = 0xAA;
   849  000EAA  0EAA               	movlw	170
   850  000EAC  6F59               	movwf	89,b	;volatile
   851  000EAE                     
   852                           ; BSR set to: 4
   853                           ;mcc_generated_files/interrupt_manager.c: 60:     IVTLOCKbits.IVTLOCKED = 0x00;
   854  000EAE  9159               	bcf	89,0,b	;volatile
   855                           
   856                           ;mcc_generated_files/interrupt_manager.c: 62:     IVTBASEU = 0;
   857  000EB0  0E00               	movlw	0
   858  000EB2  6F5F               	movwf	95,b	;volatile
   859                           
   860                           ;mcc_generated_files/interrupt_manager.c: 63:     IVTBASEH = 13;
   861  000EB4  0E0D               	movlw	13
   862  000EB6  6F5E               	movwf	94,b	;volatile
   863                           
   864                           ;mcc_generated_files/interrupt_manager.c: 64:     IVTBASEL = 8;
   865  000EB8  0E08               	movlw	8
   866  000EBA  6F5D               	movwf	93,b	;volatile
   867                           
   868                           ;mcc_generated_files/interrupt_manager.c: 66:     IVTLOCK = 0x55;
   869  000EBC  0E55               	movlw	85
   870  000EBE  6F59               	movwf	89,b	;volatile
   871                           
   872                           ;mcc_generated_files/interrupt_manager.c: 67:     IVTLOCK = 0xAA;
   873  000EC0  0EAA               	movlw	170
   874  000EC2  6F59               	movwf	89,b	;volatile
   875  000EC4                     
   876                           ; BSR set to: 4
   877                           ;mcc_generated_files/interrupt_manager.c: 68:     IVTLOCKbits.IVTLOCKED = 0x01;
   878  000EC4  8159               	bsf	89,0,b	;volatile
   879  000EC6                     
   880                           ; BSR set to: 4
   881                           ;mcc_generated_files/interrupt_manager.c: 70:     GIE = state;
   882  000EC6  B007               	btfsc	INTERRUPT_Initialize@state^(0+1280),0,c
   883  000EC8  D002               	bra	u15
   884  000ECA  9ED6               	bcf	1238,7,c	;volatile
   885  000ECC  D001               	bra	u16
   886  000ECE                     u15:
   887  000ECE  8ED6               	bsf	1238,7,c	;volatile
   888  000ED0                     u16:
   889  000ED0                     
   890                           ;mcc_generated_files/interrupt_manager.c: 72:     IPR3bits.TMR0IP = 1;
   891  000ED0  0103               	movlb	3	; () banked
   892  000ED2  8F65               	bsf	101,7,b	;volatile
   893  000ED4                     
   894                           ; BSR set to: 3
   895  000ED4  0012               	return		;funcret
   896  000ED6                     __end_of_INTERRUPT_Initialize:
   897                           	callstack 0
   898                           
   899 ;; *************** function _Default_ISR *****************
   900 ;; Defined at:
   901 ;;		line 75 in file "mcc_generated_files/interrupt_manager.c"
   902 ;; Parameters:    Size  Location     Type
   903 ;;		None
   904 ;; Auto vars:     Size  Location     Type
   905 ;;		None
   906 ;; Return value:  Size  Location     Type
   907 ;;                  1    wreg      void 
   908 ;; Registers used:
   909 ;;		None
   910 ;; Tracked objects:
   911 ;;		On entry : 0/0
   912 ;;		On exit  : 0/0
   913 ;;		Unchanged: 0/0
   914 ;; Data sizes:     COMRAM   BANK5   BANK6   BANK7   BANK8   BANK9  BANK10  BANK11  BANK12  BANK13  BANK14  BANK15  BANK1
      +6  BANK17  BANK18  BANK19  BANK20  BANK21  BANK22  BANK23  BANK24  BANK25  BANK26  BANK27  BANK28  BANK29  BANK30  BANK3
      +1  BANK32  BANK33  BANK34  BANK35  BANK36  BANK37  BANK38  BANK39  BANK40  BANK41  BANK42  BANK43  BANK44  BANK45  BANK4
      +6  BANK47  BANK48  BANK49  BANK50  BANK51  BANK52  BANK53  BANK54  BANK55
   915 ;;      Params:         0       0       0       0       0       0       0       0       0       0       0       0       
      +0       0       0       0       0       0       0       0       0       0       0       0       0       0       0       
      +0       0       0       0       0       0       0       0       0       0       0       0       0       0       0       
      +0       0       0       0       0       0       0       0       0       0
   916 ;;      Locals:         0       0       0       0       0       0       0       0       0       0       0       0       
      +0       0       0       0       0       0       0       0       0       0       0       0       0       0       0       
      +0       0       0       0       0       0       0       0       0       0       0       0       0       0       0       
      +0       0       0       0       0       0       0       0       0       0
   917 ;;      Temps:          0       0       0       0       0       0       0       0       0       0       0       0       
      +0       0       0       0       0       0       0       0       0       0       0       0       0       0       0       
      +0       0       0       0       0       0       0       0       0       0       0       0       0       0       0       
      +0       0       0       0       0       0       0       0       0       0
   918 ;;      Totals:         0       0       0       0       0       0       0       0       0       0       0       0       
      +0       0       0       0       0       0       0       0       0       0       0       0       0       0       0       
      +0       0       0       0       0       0       0       0       0       0       0       0       0       0       0       
      +0       0       0       0       0       0       0       0       0       0
   919 ;;Total ram usage:        0 bytes
   920 ;; Hardware stack levels used: 1
   921 ;; This function calls:
   922 ;;		Nothing
   923 ;; This function is called by:
   924 ;;		Interrupt level 2
   925 ;; This function uses a non-reentrant model
   926 ;;
   927                           
   928                           	psect	text8
   929  001034                     __ptext8:
   930                           	callstack 0
   931  001034                     _Default_ISR:
   932                           	callstack 123
   933  001034  0011               	retfie		f
   934  001036                     __end_of_Default_ISR:
   935                           	callstack 0
   936                           
   937 ;; *************** function _TMR0_ISR *****************
   938 ;; Defined at:
   939 ;;		line 122 in file "mcc_generated_files/tmr0.c"
   940 ;; Parameters:    Size  Location     Type
   941 ;;		None
   942 ;; Auto vars:     Size  Location     Type
   943 ;;		None
   944 ;; Return value:  Size  Location     Type
   945 ;;                  1    wreg      void 
   946 ;; Registers used:
   947 ;;		wreg, status,2, status,0, pclath, tosl, cstack
   948 ;; Tracked objects:
   949 ;;		On entry : 0/0
   950 ;;		On exit  : 0/0
   951 ;;		Unchanged: 0/0
   952 ;; Data sizes:     COMRAM   BANK5   BANK6   BANK7   BANK8   BANK9  BANK10  BANK11  BANK12  BANK13  BANK14  BANK15  BANK1
      +6  BANK17  BANK18  BANK19  BANK20  BANK21  BANK22  BANK23  BANK24  BANK25  BANK26  BANK27  BANK28  BANK29  BANK30  BANK3
      +1  BANK32  BANK33  BANK34  BANK35  BANK36  BANK37  BANK38  BANK39  BANK40  BANK41  BANK42  BANK43  BANK44  BANK45  BANK4
      +6  BANK47  BANK48  BANK49  BANK50  BANK51  BANK52  BANK53  BANK54  BANK55
   953 ;;      Params:         0       0       0       0       0       0       0       0       0       0       0       0       
      +0       0       0       0       0       0       0       0       0       0       0       0       0       0       0       
      +0       0       0       0       0       0       0       0       0       0       0       0       0       0       0       
      +0       0       0       0       0       0       0       0       0       0
   954 ;;      Locals:         0       0       0       0       0       0       0       0       0       0       0       0       
      +0       0       0       0       0       0       0       0       0       0       0       0       0       0       0       
      +0       0       0       0       0       0       0       0       0       0       0       0       0       0       0       
      +0       0       0       0       0       0       0       0       0       0
   955 ;;      Temps:          0       0       0       0       0       0       0       0       0       0       0       0       
      +0       0       0       0       0       0       0       0       0       0       0       0       0       0       0       
      +0       0       0       0       0       0       0       0       0       0       0       0       0       0       0       
      +0       0       0       0       0       0       0       0       0       0
   956 ;;      Totals:         0       0       0       0       0       0       0       0       0       0       0       0       
      +0       0       0       0       0       0       0       0       0       0       0       0       0       0       0       
      +0       0       0       0       0       0       0       0       0       0       0       0       0       0       0       
      +0       0       0       0       0       0       0       0       0       0
   957 ;;Total ram usage:        0 bytes
   958 ;; Hardware stack levels used: 1
   959 ;; Hardware stack levels required when called: 2
   960 ;; This function calls:
   961 ;;		_TMR0_CallBack
   962 ;; This function is called by:
   963 ;;		Interrupt level 2
   964 ;; This function uses a non-reentrant model
   965 ;;
   966                           
   967                           	psect	text9
   968  000F30                     __ptext9:
   969                           	callstack 0
   970  000F30                     _TMR0_ISR:
   971                           	callstack 121
   972  000F30                     
   973                           ;mcc_generated_files/tmr0.c: 124:     static volatile uint16_t CountCallBack = 0;;mcc_ge
      +                          nerated_files/tmr0.c: 127:     PIR3bits.TMR0IF = 0;
   974  000F30  9EB1               	bcf	177,7,c	;volatile
   975  000F32                     
   976                           ;mcc_generated_files/tmr0.c: 129:     if (++CountCallBack >= 500)
   977  000F32  4A04               	infsnz	TMR0_ISR@CountCallBack^(0+1280),f,c	;volatile
   978  000F34  2A05               	incf	(TMR0_ISR@CountCallBack+1)^(0+1280),f,c	;volatile
   979  000F36  0EF4               	movlw	244
   980  000F38  5C04               	subwf	TMR0_ISR@CountCallBack^(0+1280),w,c	;volatile
   981  000F3A  0E01               	movlw	1
   982  000F3C  5805               	subwfb	(TMR0_ISR@CountCallBack+1)^(0+1280),w,c	;volatile
   983  000F3E  A0D8               	btfss	status,0,c
   984  000F40  EFA4  F007         	goto	i2u6_41
   985  000F44  EFA6  F007         	goto	i2u6_40
   986  000F48                     i2u6_41:
   987  000F48  EFAC  F007         	goto	i2l72
   988  000F4C                     i2u6_40:
   989  000F4C                     
   990                           ;mcc_generated_files/tmr0.c: 130:     {;mcc_generated_files/tmr0.c: 132:         TMR0_Ca
      +                          llBack();
   991  000F4C  EC6B  F007         	call	_TMR0_CallBack	;wreg free
   992  000F50                     
   993                           ;mcc_generated_files/tmr0.c: 135:         CountCallBack = 0;
   994  000F50  0E00               	movlw	0
   995  000F52  6E05               	movwf	(TMR0_ISR@CountCallBack+1)^(0+1280),c	;volatile
   996  000F54  0E00               	movlw	0
   997  000F56  6E04               	movwf	TMR0_ISR@CountCallBack^(0+1280),c	;volatile
   998  000F58                     i2l72:
   999  000F58  0011               	retfie		f
  1000  000F5A                     __end_of_TMR0_ISR:
  1001                           	callstack 0
  1002                           
  1003 ;; *************** function _TMR0_CallBack *****************
  1004 ;; Defined at:
  1005 ;;		line 141 in file "mcc_generated_files/tmr0.c"
  1006 ;; Parameters:    Size  Location     Type
  1007 ;;		None
  1008 ;; Auto vars:     Size  Location     Type
  1009 ;;		None
  1010 ;; Return value:  Size  Location     Type
  1011 ;;                  1    wreg      void 
  1012 ;; Registers used:
  1013 ;;		wreg, status,2, status,0, pclath, tosl, cstack
  1014 ;; Tracked objects:
  1015 ;;		On entry : 0/0
  1016 ;;		On exit  : 0/0
  1017 ;;		Unchanged: 0/0
  1018 ;; Data sizes:     COMRAM   BANK5   BANK6   BANK7   BANK8   BANK9  BANK10  BANK11  BANK12  BANK13  BANK14  BANK15  BANK1
      +6  BANK17  BANK18  BANK19  BANK20  BANK21  BANK22  BANK23  BANK24  BANK25  BANK26  BANK27  BANK28  BANK29  BANK30  BANK3
      +1  BANK32  BANK33  BANK34  BANK35  BANK36  BANK37  BANK38  BANK39  BANK40  BANK41  BANK42  BANK43  BANK44  BANK45  BANK4
      +6  BANK47  BANK48  BANK49  BANK50  BANK51  BANK52  BANK53  BANK54  BANK55
  1019 ;;      Params:         0       0       0       0       0       0       0       0       0       0       0       0       
      +0       0       0       0       0       0       0       0       0       0       0       0       0       0       0       
      +0       0       0       0       0       0       0       0       0       0       0       0       0       0       0       
      +0       0       0       0       0       0       0       0       0       0
  1020 ;;      Locals:         0       0       0       0       0       0       0       0       0       0       0       0       
      +0       0       0       0       0       0       0       0       0       0       0       0       0       0       0       
      +0       0       0       0       0       0       0       0       0       0       0       0       0       0       0       
      +0       0       0       0       0       0       0       0       0       0
  1021 ;;      Temps:          0       0       0       0       0       0       0       0       0       0       0       0       
      +0       0       0       0       0       0       0       0       0       0       0       0       0       0       0       
      +0       0       0       0       0       0       0       0       0       0       0       0       0       0       0       
      +0       0       0       0       0       0       0       0       0       0
  1022 ;;      Totals:         0       0       0       0       0       0       0       0       0       0       0       0       
      +0       0       0       0       0       0       0       0       0       0       0       0       0       0       0       
      +0       0       0       0       0       0       0       0       0       0       0       0       0       0       0       
      +0       0       0       0       0       0       0       0       0       0
  1023 ;;Total ram usage:        0 bytes
  1024 ;; Hardware stack levels used: 1
  1025 ;; Hardware stack levels required when called: 1
  1026 ;; This function calls:
  1027 ;;		Absolute function
  1028 ;;		_TMR0_DefaultInterruptHandler
  1029 ;;		_TMR0_UserInterruptHandler
  1030 ;; This function is called by:
  1031 ;;		_TMR0_ISR
  1032 ;; This function uses a non-reentrant model
  1033 ;;
  1034                           
  1035                           	psect	text10
  1036  000ED6                     __ptext10:
  1037                           	callstack 0
  1038  000ED6                     _TMR0_CallBack:
  1039                           	callstack 121
  1040  000ED6                     
  1041                           ;mcc_generated_files/tmr0.c: 145:     if(TMR0_InterruptHandler)
  1042  000ED6  5001               	movf	_TMR0_InterruptHandler^(0+1280),w,c
  1043  000ED8  1002               	iorwf	(_TMR0_InterruptHandler+1)^(0+1280),w,c
  1044  000EDA  1003               	iorwf	(_TMR0_InterruptHandler+2)^(0+1280),w,c
  1045  000EDC  B4D8               	btfsc	status,2,c
  1046  000EDE  EF73  F007         	goto	i2u4_41
  1047  000EE2  EF75  F007         	goto	i2u4_40
  1048  000EE6                     i2u4_41:
  1049  000EE6  EF82  F007         	goto	i2l76
  1050  000EEA                     i2u4_40:
  1051  000EEA                     
  1052                           ;mcc_generated_files/tmr0.c: 146:     {;mcc_generated_files/tmr0.c: 147:         TMR0_In
      +                          terruptHandler();
  1053  000EEA  D802               	call	i2u5_48
  1054  000EEC  EF82  F007         	goto	i2u5_49
  1055  000EF0                     i2u5_48:
  1056  000EF0  0005               	push	
  1057  000EF2  6EFA               	movwf	pclath,c
  1058  000EF4  5001               	movf	_TMR0_InterruptHandler^(0+1280),w,c
  1059  000EF6  6EFD               	movwf	tosl,c
  1060  000EF8  5002               	movf	(_TMR0_InterruptHandler+1)^(0+1280),w,c
  1061  000EFA  6EFE               	movwf	tosh,c
  1062  000EFC  5003               	movf	(_TMR0_InterruptHandler+2)^(0+1280),w,c
  1063  000EFE  6EFF               	movwf	tosu,c
  1064  000F00  50FA               	movf	pclath,w,c
  1065  000F02  0012               	return		;indir
  1066  000F04                     i2u5_49:
  1067  000F04                     i2l76:
  1068  000F04  0012               	return		;funcret
  1069  000F06                     __end_of_TMR0_CallBack:
  1070                           	callstack 0
  1071                           
  1072 ;; *************** function _TMR0_DefaultInterruptHandler *****************
  1073 ;; Defined at:
  1074 ;;		line 155 in file "mcc_generated_files/tmr0.c"
  1075 ;; Parameters:    Size  Location     Type
  1076 ;;		None
  1077 ;; Auto vars:     Size  Location     Type
  1078 ;;		None
  1079 ;; Return value:  Size  Location     Type
  1080 ;;                  1    wreg      void 
  1081 ;; Registers used:
  1082 ;;		None
  1083 ;; Tracked objects:
  1084 ;;		On entry : 0/0
  1085 ;;		On exit  : 0/0
  1086 ;;		Unchanged: 0/0
  1087 ;; Data sizes:     COMRAM   BANK5   BANK6   BANK7   BANK8   BANK9  BANK10  BANK11  BANK12  BANK13  BANK14  BANK15  BANK1
      +6  BANK17  BANK18  BANK19  BANK20  BANK21  BANK22  BANK23  BANK24  BANK25  BANK26  BANK27  BANK28  BANK29  BANK30  BANK3
      +1  BANK32  BANK33  BANK34  BANK35  BANK36  BANK37  BANK38  BANK39  BANK40  BANK41  BANK42  BANK43  BANK44  BANK45  BANK4
      +6  BANK47  BANK48  BANK49  BANK50  BANK51  BANK52  BANK53  BANK54  BANK55
  1088 ;;      Params:         0       0       0       0       0       0       0       0       0       0       0       0       
      +0       0       0       0       0       0       0       0       0       0       0       0       0       0       0       
      +0       0       0       0       0       0       0       0       0       0       0       0       0       0       0       
      +0       0       0       0       0       0       0       0       0       0
  1089 ;;      Locals:         0       0       0       0       0       0       0       0       0       0       0       0       
      +0       0       0       0       0       0       0       0       0       0       0       0       0       0       0       
      +0       0       0       0       0       0       0       0       0       0       0       0       0       0       0       
      +0       0       0       0       0       0       0       0       0       0
  1090 ;;      Temps:          0       0       0       0       0       0       0       0       0       0       0       0       
      +0       0       0       0       0       0       0       0       0       0       0       0       0       0       0       
      +0       0       0       0       0       0       0       0       0       0       0       0       0       0       0       
      +0       0       0       0       0       0       0       0       0       0
  1091 ;;      Totals:         0       0       0       0       0       0       0       0       0       0       0       0       
      +0       0       0       0       0       0       0       0       0       0       0       0       0       0       0       
      +0       0       0       0       0       0       0       0       0       0       0       0       0       0       0       
      +0       0       0       0       0       0       0       0       0       0
  1092 ;;Total ram usage:        0 bytes
  1093 ;; Hardware stack levels used: 1
  1094 ;; This function calls:
  1095 ;;		Nothing
  1096 ;; This function is called by:
  1097 ;;		_TMR0_Initialize
  1098 ;;		_TMR0_CallBack
  1099 ;; This function uses a non-reentrant model
  1100 ;;
  1101                           
  1102                           	psect	text11
  1103  001036                     __ptext11:
  1104                           	callstack 0
  1105  001036                     _TMR0_DefaultInterruptHandler:
  1106                           	callstack 121
  1107  001036  0012               	return		;funcret
  1108  001038                     __end_of_TMR0_DefaultInterruptHandler:
  1109                           	callstack 0
  1110                           
  1111 ;; *************** function _TMR0_UserInterruptHandler *****************
  1112 ;; Defined at:
  1113 ;;		line 46 in file "main.c"
  1114 ;; Parameters:    Size  Location     Type
  1115 ;;		None
  1116 ;; Auto vars:     Size  Location     Type
  1117 ;;		None
  1118 ;; Return value:  Size  Location     Type
  1119 ;;                  1    wreg      void 
  1120 ;; Registers used:
  1121 ;;		wreg, status,2, status,0
  1122 ;; Tracked objects:
  1123 ;;		On entry : 0/0
  1124 ;;		On exit  : 0/0
  1125 ;;		Unchanged: 0/0
  1126 ;; Data sizes:     COMRAM   BANK5   BANK6   BANK7   BANK8   BANK9  BANK10  BANK11  BANK12  BANK13  BANK14  BANK15  BANK1
      +6  BANK17  BANK18  BANK19  BANK20  BANK21  BANK22  BANK23  BANK24  BANK25  BANK26  BANK27  BANK28  BANK29  BANK30  BANK3
      +1  BANK32  BANK33  BANK34  BANK35  BANK36  BANK37  BANK38  BANK39  BANK40  BANK41  BANK42  BANK43  BANK44  BANK45  BANK4
      +6  BANK47  BANK48  BANK49  BANK50  BANK51  BANK52  BANK53  BANK54  BANK55
  1127 ;;      Params:         0       0       0       0       0       0       0       0       0       0       0       0       
      +0       0       0       0       0       0       0       0       0       0       0       0       0       0       0       
      +0       0       0       0       0       0       0       0       0       0       0       0       0       0       0       
      +0       0       0       0       0       0       0       0       0       0
  1128 ;;      Locals:         0       0       0       0       0       0       0       0       0       0       0       0       
      +0       0       0       0       0       0       0       0       0       0       0       0       0       0       0       
      +0       0       0       0       0       0       0       0       0       0       0       0       0       0       0       
      +0       0       0       0       0       0       0       0       0       0
  1129 ;;      Temps:          1       0       0       0       0       0       0       0       0       0       0       0       
      +0       0       0       0       0       0       0       0       0       0       0       0       0       0       0       
      +0       0       0       0       0       0       0       0       0       0       0       0       0       0       0       
      +0       0       0       0       0       0       0       0       0       0
  1130 ;;      Totals:         1       0       0       0       0       0       0       0       0       0       0       0       
      +0       0       0       0       0       0       0       0       0       0       0       0       0       0       0       
      +0       0       0       0       0       0       0       0       0       0       0       0       0       0       0       
      +0       0       0       0       0       0       0       0       0       0
  1131 ;;Total ram usage:        1 bytes
  1132 ;; Hardware stack levels used: 1
  1133 ;; This function calls:
  1134 ;;		Nothing
  1135 ;; This function is called by:
  1136 ;;		_main
  1137 ;;		_TMR0_CallBack
  1138 ;; This function uses a non-reentrant model
  1139 ;;
  1140                           
  1141                           	psect	text12
  1142  000F82                     __ptext12:
  1143                           	callstack 0
  1144  000F82                     _TMR0_UserInterruptHandler:
  1145                           	callstack 121
  1146  000F82  B6C3               	btfsc	195,3,c	;volatile
  1147  000F84  EFC6  F007         	goto	i2u3_41
  1148  000F88  EFC9  F007         	goto	i2u3_40
  1149  000F8C                     i2u3_41:
  1150  000F8C  0E01               	movlw	1
  1151  000F8E  EFCA  F007         	goto	i2u3_46
  1152  000F92                     i2u3_40:
  1153  000F92  0E00               	movlw	0
  1154  000F94                     i2u3_46:
  1155  000F94  0AFF               	xorlw	255
  1156  000F96  6E06               	movwf	??_TMR0_UserInterruptHandler^(0+1280),c
  1157  000F98  4606               	rlncf	??_TMR0_UserInterruptHandler^(0+1280),f,c
  1158  000F9A  4606               	rlncf	??_TMR0_UserInterruptHandler^(0+1280),f,c
  1159  000F9C  4606               	rlncf	??_TMR0_UserInterruptHandler^(0+1280),f,c
  1160  000F9E  50C3               	movf	195,w,c	;volatile
  1161  000FA0  1806               	xorwf	??_TMR0_UserInterruptHandler^(0+1280),w,c
  1162  000FA2  0BF7               	andlw	-9
  1163  000FA4  1806               	xorwf	??_TMR0_UserInterruptHandler^(0+1280),w,c
  1164  000FA6  6EC3               	movwf	195,c	;volatile
  1165  000FA8  0012               	return		;funcret
  1166  000FAA                     __end_of_TMR0_UserInterruptHandler:
  1167                           	callstack 0
  1168                           
  1169                           ;
  1170                           ; Interrupt Vector Table @ 0xD08
  1171                           ;
  1172                           
  1173                           	psect	ivt0xD08
  1174  000D08                     __pivt0xD08:
  1175                           	callstack 0
  1176  000D08                     ivt0xD08_base:
  1177                           	callstack 0
  1178                           
  1179                           ; Vector 0 : SWINT
  1180  000D08  040D               	dw	_Default_ISR shr (0+2)
  1181                           
  1182                           ; Vector 1 : HLVD
  1183  000D0A  040D               	dw	_Default_ISR shr (0+2)
  1184                           
  1185                           ; Vector 2 : OSF
  1186  000D0C  040D               	dw	_Default_ISR shr (0+2)
  1187                           
  1188                           ; Vector 3 : CSW
  1189  000D0E  040D               	dw	_Default_ISR shr (0+2)
  1190                           
  1191                           ; Vector 4 : TU16A
  1192  000D10  040D               	dw	_Default_ISR shr (0+2)
  1193                           
  1194                           ; Vector 5 : CLC1
  1195  000D12  040D               	dw	_Default_ISR shr (0+2)
  1196                           
  1197                           ; Vector 6 : CAN
  1198  000D14  040D               	dw	_Default_ISR shr (0+2)
  1199                           
  1200                           ; Vector 7 : IOC
  1201  000D16  040D               	dw	_Default_ISR shr (0+2)
  1202                           
  1203                           ; Vector 8 : INT0
  1204  000D18  040D               	dw	_Default_ISR shr (0+2)
  1205                           
  1206                           ; Vector 9 : ZCD
  1207  000D1A  040D               	dw	_Default_ISR shr (0+2)
  1208                           
  1209                           ; Vector 10 : AD
  1210  000D1C  040D               	dw	_Default_ISR shr (0+2)
  1211                           
  1212                           ; Vector 11 : ACT
  1213  000D1E  040D               	dw	_Default_ISR shr (0+2)
  1214                           
  1215                           ; Vector 12 : CM1
  1216  000D20  040D               	dw	_Default_ISR shr (0+2)
  1217                           
  1218                           ; Vector 13 : SMT1
  1219  000D22  040D               	dw	_Default_ISR shr (0+2)
  1220                           
  1221                           ; Vector 14 : SMT1PRA
  1222  000D24  040D               	dw	_Default_ISR shr (0+2)
  1223                           
  1224                           ; Vector 15 : SMT1PWA
  1225  000D26  040D               	dw	_Default_ISR shr (0+2)
  1226                           
  1227                           ; Vector 16 : ADCH1
  1228  000D28  040D               	dw	_Default_ISR shr (0+2)
  1229                           
  1230                           ; Vector 17 : ADCH2
  1231  000D2A  040D               	dw	_Default_ISR shr (0+2)
  1232                           
  1233                           ; Vector 18 : ADCH3
  1234  000D2C  040D               	dw	_Default_ISR shr (0+2)
  1235                           
  1236                           ; Vector 19 : ADCH4
  1237  000D2E  040D               	dw	_Default_ISR shr (0+2)
  1238                           
  1239                           ; Vector 20 : DMA1SCNT
  1240  000D30  040D               	dw	_Default_ISR shr (0+2)
  1241                           
  1242                           ; Vector 21 : DMA1DCNT
  1243  000D32  040D               	dw	_Default_ISR shr (0+2)
  1244                           
  1245                           ; Vector 22 : DMA1OR
  1246  000D34  040D               	dw	_Default_ISR shr (0+2)
  1247                           
  1248                           ; Vector 23 : DMA1A
  1249  000D36  040D               	dw	_Default_ISR shr (0+2)
  1250                           
  1251                           ; Vector 24 : SPI1RX
  1252  000D38  040D               	dw	_Default_ISR shr (0+2)
  1253                           
  1254                           ; Vector 25 : SPI1TX
  1255  000D3A  040D               	dw	_Default_ISR shr (0+2)
  1256                           
  1257                           ; Vector 26 : SPI1
  1258  000D3C  040D               	dw	_Default_ISR shr (0+2)
  1259                           
  1260                           ; Vector 27 : TMR2
  1261  000D3E  040D               	dw	_Default_ISR shr (0+2)
  1262                           
  1263                           ; Vector 28 : TMR1
  1264  000D40  040D               	dw	_Default_ISR shr (0+2)
  1265                           
  1266                           ; Vector 29 : TMR1G
  1267  000D42  040D               	dw	_Default_ISR shr (0+2)
  1268                           
  1269                           ; Vector 30 : CCP1
  1270  000D44  040D               	dw	_Default_ISR shr (0+2)
  1271                           
  1272                           ; Vector 31 : TMR0
  1273  000D46  03CC               	dw	_TMR0_ISR shr (0+2)
  1274                           
  1275                           ; Vector 32 : U1RX
  1276  000D48  040D               	dw	_Default_ISR shr (0+2)
  1277                           
  1278                           ; Vector 33 : U1TX
  1279  000D4A  040D               	dw	_Default_ISR shr (0+2)
  1280                           
  1281                           ; Vector 34 : U1E
  1282  000D4C  040D               	dw	_Default_ISR shr (0+2)
  1283                           
  1284                           ; Vector 35 : U1
  1285  000D4E  040D               	dw	_Default_ISR shr (0+2)
  1286                           
  1287                           ; Vector 36 : CANRX
  1288  000D50  040D               	dw	_Default_ISR shr (0+2)
  1289                           
  1290                           ; Vector 37 : CANTX
  1291  000D52  040D               	dw	_Default_ISR shr (0+2)
  1292                           
  1293                           ; Vector 38 : PWM1PR
  1294  000D54  040D               	dw	_Default_ISR shr (0+2)
  1295                           
  1296                           ; Vector 39 : PWM1
  1297  000D56  040D               	dw	_Default_ISR shr (0+2)
  1298                           
  1299                           ; Vector 40 : SPI2RX
  1300  000D58  040D               	dw	_Default_ISR shr (0+2)
  1301                           
  1302                           ; Vector 41 : SPI2TX
  1303  000D5A  040D               	dw	_Default_ISR shr (0+2)
  1304                           
  1305                           ; Vector 42 : SPI2
  1306  000D5C  040D               	dw	_Default_ISR shr (0+2)
  1307                           
  1308                           ; Vector 43 : TU16B
  1309  000D5E  040D               	dw	_Default_ISR shr (0+2)
  1310                           
  1311                           ; Vector 44 : TMR3
  1312  000D60  040D               	dw	_Default_ISR shr (0+2)
  1313                           
  1314                           ; Vector 45 : TMR3G
  1315  000D62  040D               	dw	_Default_ISR shr (0+2)
  1316                           
  1317                           ; Vector 46 : PWM2PR
  1318  000D64  040D               	dw	_Default_ISR shr (0+2)
  1319                           
  1320                           ; Vector 47 : PWM2
  1321  000D66  040D               	dw	_Default_ISR shr (0+2)
  1322                           
  1323                           ; Vector 48 : INT1
  1324  000D68  040D               	dw	_Default_ISR shr (0+2)
  1325                           
  1326                           ; Vector 49 : CLC2
  1327  000D6A  040D               	dw	_Default_ISR shr (0+2)
  1328                           
  1329                           ; Vector 50 : CWG1
  1330  000D6C  040D               	dw	_Default_ISR shr (0+2)
  1331                           
  1332                           ; Vector 51 : NCO1
  1333  000D6E  040D               	dw	_Default_ISR shr (0+2)
  1334                           
  1335                           ; Vector 52 : DMA2SCNT
  1336  000D70  040D               	dw	_Default_ISR shr (0+2)
  1337                           
  1338                           ; Vector 53 : DMA2DCNT
  1339  000D72  040D               	dw	_Default_ISR shr (0+2)
  1340                           
  1341                           ; Vector 54 : DMA2OR
  1342  000D74  040D               	dw	_Default_ISR shr (0+2)
  1343                           
  1344                           ; Vector 55 : DMA2A
  1345  000D76  040D               	dw	_Default_ISR shr (0+2)
  1346                           
  1347                           ; Vector 56 : I2C1RX
  1348  000D78  040D               	dw	_Default_ISR shr (0+2)
  1349                           
  1350                           ; Vector 57 : I2C1TX
  1351  000D7A  040D               	dw	_Default_ISR shr (0+2)
  1352                           
  1353                           ; Vector 58 : I2C1
  1354  000D7C  040D               	dw	_Default_ISR shr (0+2)
  1355                           
  1356                           ; Vector 59 : I2C1E
  1357  000D7E  040D               	dw	_Default_ISR shr (0+2)
  1358                           
  1359                           ; Vector 60 : Undefined
  1360  000D80  0382               	dw	ivt0xD08_undefint shr (0+2)
  1361                           
  1362                           ; Vector 61 : CLC3
  1363  000D82  040D               	dw	_Default_ISR shr (0+2)
  1364                           
  1365                           ; Vector 62 : PWM3PR
  1366  000D84  040D               	dw	_Default_ISR shr (0+2)
  1367                           
  1368                           ; Vector 63 : PWM3
  1369  000D86  040D               	dw	_Default_ISR shr (0+2)
  1370                           
  1371                           ; Vector 64 : U2RX
  1372  000D88  040D               	dw	_Default_ISR shr (0+2)
  1373                           
  1374                           ; Vector 65 : U2TX
  1375  000D8A  040D               	dw	_Default_ISR shr (0+2)
  1376                           
  1377                           ; Vector 66 : U2E
  1378  000D8C  040D               	dw	_Default_ISR shr (0+2)
  1379                           
  1380                           ; Vector 67 : U2
  1381  000D8E  040D               	dw	_Default_ISR shr (0+2)
  1382                           
  1383                           ; Vector 68 : TMR5
  1384  000D90  040D               	dw	_Default_ISR shr (0+2)
  1385                           
  1386                           ; Vector 69 : TMR5G
  1387  000D92  040D               	dw	_Default_ISR shr (0+2)
  1388                           
  1389                           ; Vector 70 : CCP2
  1390  000D94  040D               	dw	_Default_ISR shr (0+2)
  1391                           
  1392                           ; Vector 71 : SCAN
  1393  000D96  040D               	dw	_Default_ISR shr (0+2)
  1394                           
  1395                           ; Vector 72 : U3RX
  1396  000D98  040D               	dw	_Default_ISR shr (0+2)
  1397                           
  1398                           ; Vector 73 : U3TX
  1399  000D9A  040D               	dw	_Default_ISR shr (0+2)
  1400                           
  1401                           ; Vector 74 : U3E
  1402  000D9C  040D               	dw	_Default_ISR shr (0+2)
  1403                           
  1404                           ; Vector 75 : U3
  1405  000D9E  040D               	dw	_Default_ISR shr (0+2)
  1406                           
  1407                           ; Vector 76 : Undefined
  1408  000DA0  0382               	dw	ivt0xD08_undefint shr (0+2)
  1409                           
  1410                           ; Vector 77 : CLC4
  1411  000DA2  040D               	dw	_Default_ISR shr (0+2)
  1412                           
  1413                           ; Vector 78 : PWM4PR
  1414  000DA4  040D               	dw	_Default_ISR shr (0+2)
  1415                           
  1416                           ; Vector 79 : PWM4
  1417  000DA6  040D               	dw	_Default_ISR shr (0+2)
  1418                           
  1419                           ; Vector 80 : INT2
  1420  000DA8  040D               	dw	_Default_ISR shr (0+2)
  1421                           
  1422                           ; Vector 81 : CLC5
  1423  000DAA  040D               	dw	_Default_ISR shr (0+2)
  1424                           
  1425                           ; Vector 82 : CWG2
  1426  000DAC  040D               	dw	_Default_ISR shr (0+2)
  1427                           
  1428                           ; Vector 83 : NCO2
  1429  000DAE  040D               	dw	_Default_ISR shr (0+2)
  1430                           
  1431                           ; Vector 84 : DMA3SCNT
  1432  000DB0  040D               	dw	_Default_ISR shr (0+2)
  1433                           
  1434                           ; Vector 85 : DMA3DCNT
  1435  000DB2  040D               	dw	_Default_ISR shr (0+2)
  1436                           
  1437                           ; Vector 86 : DMA3OR
  1438  000DB4  040D               	dw	_Default_ISR shr (0+2)
  1439                           
  1440                           ; Vector 87 : DMA3A
  1441  000DB6  040D               	dw	_Default_ISR shr (0+2)
  1442                           
  1443                           ; Vector 88 : CCP3
  1444  000DB8  040D               	dw	_Default_ISR shr (0+2)
  1445                           
  1446                           ; Vector 89 : CLC6
  1447  000DBA  040D               	dw	_Default_ISR shr (0+2)
  1448                           
  1449                           ; Vector 90 : CWG3
  1450  000DBC  040D               	dw	_Default_ISR shr (0+2)
  1451                           
  1452                           ; Vector 91 : TMR4
  1453  000DBE  040D               	dw	_Default_ISR shr (0+2)
  1454                           
  1455                           ; Vector 92 : DMA4SCNT
  1456  000DC0  040D               	dw	_Default_ISR shr (0+2)
  1457                           
  1458                           ; Vector 93 : DMA4DCNT
  1459  000DC2  040D               	dw	_Default_ISR shr (0+2)
  1460                           
  1461                           ; Vector 94 : DMA4OR
  1462  000DC4  040D               	dw	_Default_ISR shr (0+2)
  1463                           
  1464                           ; Vector 95 : DMA4A
  1465  000DC6  040D               	dw	_Default_ISR shr (0+2)
  1466                           
  1467                           ; Vector 96 : U4RX
  1468  000DC8  040D               	dw	_Default_ISR shr (0+2)
  1469                           
  1470                           ; Vector 97 : U4TX
  1471  000DCA  040D               	dw	_Default_ISR shr (0+2)
  1472                           
  1473                           ; Vector 98 : U4E
  1474  000DCC  040D               	dw	_Default_ISR shr (0+2)
  1475                           
  1476                           ; Vector 99 : U4
  1477  000DCE  040D               	dw	_Default_ISR shr (0+2)
  1478                           
  1479                           ; Vector 100 : DMA5SCNT
  1480  000DD0  040D               	dw	_Default_ISR shr (0+2)
  1481                           
  1482                           ; Vector 101 : DMA5DCNT
  1483  000DD2  040D               	dw	_Default_ISR shr (0+2)
  1484                           
  1485                           ; Vector 102 : DMA5OR
  1486  000DD4  040D               	dw	_Default_ISR shr (0+2)
  1487                           
  1488                           ; Vector 103 : DMA5A
  1489  000DD6  040D               	dw	_Default_ISR shr (0+2)
  1490                           
  1491                           ; Vector 104 : U5RX
  1492  000DD8  040D               	dw	_Default_ISR shr (0+2)
  1493                           
  1494                           ; Vector 105 : U5TX
  1495  000DDA  040D               	dw	_Default_ISR shr (0+2)
  1496                           
  1497                           ; Vector 106 : U5E
  1498  000DDC  040D               	dw	_Default_ISR shr (0+2)
  1499                           
  1500                           ; Vector 107 : U5
  1501  000DDE  040D               	dw	_Default_ISR shr (0+2)
  1502                           
  1503                           ; Vector 108 : DMA6SCNT
  1504  000DE0  040D               	dw	_Default_ISR shr (0+2)
  1505                           
  1506                           ; Vector 109 : DMA6DCNT
  1507  000DE2  040D               	dw	_Default_ISR shr (0+2)
  1508                           
  1509                           ; Vector 110 : DMA6OR
  1510  000DE4  040D               	dw	_Default_ISR shr (0+2)
  1511                           
  1512                           ; Vector 111 : DMA6A
  1513  000DE6  040D               	dw	_Default_ISR shr (0+2)
  1514                           
  1515                           ; Vector 112 : Undefined
  1516  000DE8  0382               	dw	ivt0xD08_undefint shr (0+2)
  1517                           
  1518                           ; Vector 113 : CLC7
  1519  000DEA  040D               	dw	_Default_ISR shr (0+2)
  1520                           
  1521                           ; Vector 114 : CM2
  1522  000DEC  040D               	dw	_Default_ISR shr (0+2)
  1523                           
  1524                           ; Vector 115 : NCO3
  1525  000DEE  040D               	dw	_Default_ISR shr (0+2)
  1526                           
  1527                           ; Vector 116 : DMA7SCNT
  1528  000DF0  040D               	dw	_Default_ISR shr (0+2)
  1529                           
  1530                           ; Vector 117 : DMA7DCNT
  1531  000DF2  040D               	dw	_Default_ISR shr (0+2)
  1532                           
  1533                           ; Vector 118 : DMA7OR
  1534  000DF4  040D               	dw	_Default_ISR shr (0+2)
  1535                           
  1536                           ; Vector 119 : DMA7A
  1537  000DF6  040D               	dw	_Default_ISR shr (0+2)
  1538                           
  1539                           ; Vector 120 : NVM
  1540  000DF8  040D               	dw	_Default_ISR shr (0+2)
  1541                           
  1542                           ; Vector 121 : CLC8
  1543  000DFA  040D               	dw	_Default_ISR shr (0+2)
  1544                           
  1545                           ; Vector 122 : CRC
  1546  000DFC  040D               	dw	_Default_ISR shr (0+2)
  1547                           
  1548                           ; Vector 123 : TMR6
  1549  000DFE  040D               	dw	_Default_ISR shr (0+2)
  1550                           
  1551                           ; Vector 124 : DMA8SCNT
  1552  000E00  040D               	dw	_Default_ISR shr (0+2)
  1553                           
  1554                           ; Vector 125 : DMA8DCNT
  1555  000E02  040D               	dw	_Default_ISR shr (0+2)
  1556                           
  1557                           ; Vector 126 : DMA8OR
  1558  000E04  040D               	dw	_Default_ISR shr (0+2)
  1559                           
  1560                           ; Vector 127 : DMA8A
  1561  000E06  040D               	dw	_Default_ISR shr (0+2)
  1562  000E08                     ivt0xD08_undefint:
  1563                           	callstack 0
  1564  000E08  00FF               	reset	
  1565  0000                     
  1566                           	psect	text13
  1567  000000                     __ptext13:
  1568                           	callstack 0
  1569  000000                     
  1570                           	psect	rparam
  1571  0000                     
  1572                           	psect	idloc
  1573                           
  1574                           ;Config register IDLOC0 @ 0x200000
  1575                           ;	unspecified, using default values
  1576  200000                     	org	2097152
  1577  200000  0FFF               	dw	4095
  1578                           
  1579                           ;Config register IDLOC1 @ 0x200002
  1580                           ;	unspecified, using default values
  1581  200002                     	org	2097154
  1582  200002  0FFF               	dw	4095
  1583                           
  1584                           ;Config register IDLOC2 @ 0x200004
  1585                           ;	unspecified, using default values
  1586  200004                     	org	2097156
  1587  200004  0FFF               	dw	4095
  1588                           
  1589                           ;Config register IDLOC3 @ 0x200006
  1590                           ;	unspecified, using default values
  1591  200006                     	org	2097158
  1592  200006  0FFF               	dw	4095
  1593                           
  1594                           ;Config register IDLOC4 @ 0x200008
  1595                           ;	unspecified, using default values
  1596  200008                     	org	2097160
  1597  200008  0FFF               	dw	4095
  1598                           
  1599                           ;Config register IDLOC5 @ 0x20000A
  1600                           ;	unspecified, using default values
  1601  20000A                     	org	2097162
  1602  20000A  0FFF               	dw	4095
  1603                           
  1604                           ;Config register IDLOC6 @ 0x20000C
  1605                           ;	unspecified, using default values
  1606  20000C                     	org	2097164
  1607  20000C  0FFF               	dw	4095
  1608                           
  1609                           ;Config register IDLOC7 @ 0x20000E
  1610                           ;	unspecified, using default values
  1611  20000E                     	org	2097166
  1612  20000E  0FFF               	dw	4095
  1613                           
  1614                           ;Config register IDLOC8 @ 0x200010
  1615                           ;	unspecified, using default values
  1616  200010                     	org	2097168
  1617  200010  0FFF               	dw	4095
  1618                           
  1619                           ;Config register IDLOC9 @ 0x200012
  1620                           ;	unspecified, using default values
  1621  200012                     	org	2097170
  1622  200012  0FFF               	dw	4095
  1623                           
  1624                           ;Config register IDLOC10 @ 0x200014
  1625                           ;	unspecified, using default values
  1626  200014                     	org	2097172
  1627  200014  0FFF               	dw	4095
  1628                           
  1629                           ;Config register IDLOC11 @ 0x200016
  1630                           ;	unspecified, using default values
  1631  200016                     	org	2097174
  1632  200016  0FFF               	dw	4095
  1633                           
  1634                           ;Config register IDLOC12 @ 0x200018
  1635                           ;	unspecified, using default values
  1636  200018                     	org	2097176
  1637  200018  0FFF               	dw	4095
  1638                           
  1639                           ;Config register IDLOC13 @ 0x20001A
  1640                           ;	unspecified, using default values
  1641  20001A                     	org	2097178
  1642  20001A  0FFF               	dw	4095
  1643                           
  1644                           ;Config register IDLOC14 @ 0x20001C
  1645                           ;	unspecified, using default values
  1646  20001C                     	org	2097180
  1647  20001C  0FFF               	dw	4095
  1648                           
  1649                           ;Config register IDLOC15 @ 0x20001E
  1650                           ;	unspecified, using default values
  1651  20001E                     	org	2097182
  1652  20001E  0FFF               	dw	4095
  1653                           
  1654                           	psect	config
  1655                           
  1656                           ;Config register CONFIG1 @ 0x300000
  1657                           ;	External Oscillator Selection
  1658                           ;	FEXTOSC = HS, HS (crystal oscillator) above 8 MHz
  1659                           ;	Reset Oscillator Selection
  1660                           ;	RSTOSC = EXTOSC_4PLL, EXTOSC with 4x PLL, with EXTOSC operating per FEXTOSC bits
  1661  300000                     	org	3145728
  1662  300000  AA                 	db	170
  1663                           
  1664                           ;Config register CONFIG2 @ 0x300001
  1665                           ;	Clock out Enable bit
  1666                           ;	CLKOUTEN = OFF, CLKOUT function is disabled
  1667                           ;	PRLOCKED One-Way Set Enable bit
  1668                           ;	PR1WAY = ON, PRLOCKED bit can be cleared and set only once
  1669                           ;	Clock Switch Enable bit
  1670                           ;	CSWEN = ON, Writing to NOSC and NDIV is allowed
  1671                           ;	JTAG Enable bit
  1672                           ;	JTAGEN = OFF, Disable JTAG Boundary Scan mode, JTAG pins revert to user functions
  1673                           ;	Fail-Safe Clock Monitor Enable bit
  1674                           ;	FCMEN = ON, Fail-Safe Clock Monitor enabled
  1675                           ;	Fail-Safe Clock Monitor -Primary XTAL Enable bit
  1676                           ;	FCMENP = ON, FSCM timer will set FSCMP bit and OSFIF interrupt on Primary XTAL failure
  1677                           ;	Fail-Safe Clock Monitor -Secondary XTAL Enable bit
  1678                           ;	FCMENS = ON, FSCM timer will set FSCMS bit and OSFIF interrupt on Secondary XTAL failu
      +                          re
  1679  300001                     	org	3145729
  1680  300001  EF                 	db	239
  1681                           
  1682                           ;Config register CONFIG3 @ 0x300002
  1683                           ;	MCLR Enable bit
  1684                           ;	MCLRE = EXTMCLR, If LVP = 0, MCLR pin is MCLR; If LVP = 1, RE3 pin function is MCLR
  1685                           ;	Power-up timer selection bits
  1686                           ;	PWRTS = PWRT_OFF, PWRT is disabled
  1687                           ;	Multi-vector enable bit
  1688                           ;	MVECEN = ON, Multi-vector enabled, Vector table used for interrupts
  1689                           ;	IVTLOCK bit One-way set enable bit
  1690                           ;	IVT1WAY = OFF, IVTLOCKED bit can be cleared and set repeatedly
  1691                           ;	Low Power BOR Enable bit
  1692                           ;	LPBOREN = OFF, Low-Power BOR disabled
  1693                           ;	Brown-out Reset Enable bits
  1694                           ;	BOREN = SBORDIS, Brown-out Reset enabled , SBOREN bit is ignored
  1695  300002                     	org	3145730
  1696  300002  EF                 	db	239
  1697                           
  1698                           ;Config register CONFIG4 @ 0x300003
  1699                           ;	Brown-out Reset Voltage Selection bits
  1700                           ;	BORV = VBOR_1P9, Brown-out Reset Voltage (VBOR) set to 1.9V
  1701                           ;	ZCD Disable bit
  1702                           ;	ZCD = OFF, ZCD module is disabled. ZCD can be enabled by setting the ZCDSEN bit of ZCD
      +                          CON
  1703                           ;	PPSLOCK bit One-Way Set Enable bit
  1704                           ;	PPS1WAY = ON, PPSLOCKED bit can be cleared and set only once; PPS registers remain loc
      +                          ked after one clear/set cycle
  1705                           ;	Stack Full/Underflow Reset Enable bit
  1706                           ;	STVREN = ON, Stack full/underflow will cause Reset
  1707                           ;	Low Voltage Programming Enable bit
  1708                           ;	LVP = ON, Low voltage programming enabled. MCLR/VPP pin function is MCLR. MCLRE config
      +                          uration bit is ignored
  1709                           ;	Extended Instruction Set Enable bit
  1710                           ;	XINST = OFF, Extended Instruction Set and Indexed Addressing Mode disabled
  1711  300003                     	org	3145731
  1712  300003  FF                 	db	255
  1713                           
  1714                           ;Config register CONFIG5 @ 0x300004
  1715                           ;	WDT Period selection bits
  1716                           ;	WDTCPS = WDTCPS_31, Divider ratio 1:65536; software control of WDTPS
  1717                           ;	WDT operating mode
  1718                           ;	WDTE = OFF, WDT Disabled; SWDTEN is ignored
  1719  300004                     	org	3145732
  1720  300004  9F                 	db	159
  1721                           
  1722                           ;Config register CONFIG6 @ 0x300005
  1723                           ;	WDT Window Select bits
  1724                           ;	WDTCWS = WDTCWS_7, window always open (100%); software control; keyed access not requi
      +                          red
  1725                           ;	WDT input clock selector
  1726                           ;	WDTCCS = SC, Software Control
  1727  300005                     	org	3145733
  1728  300005  FF                 	db	255
  1729                           
  1730                           ;Config register CONFIG7 @ 0x300006
  1731                           ;	Boot Block Size selection bits
  1732                           ;	BBSIZE = BBSIZE_512, Boot Block size is 512 words
  1733                           ;	Boot Block enable bit
  1734                           ;	BBEN = OFF, Boot block disabled
  1735                           ;	Storage Area Flash enable bit
  1736                           ;	SAFEN = OFF, SAF disabled
  1737  300006                     	org	3145734
  1738  300006  FF                 	db	255
  1739                           
  1740                           ;Config register CONFIG8 @ 0x300007
  1741                           ;	Boot Block Write Protection bit
  1742                           ;	WRTB = OFF, Boot Block not Write protected
  1743                           ;	Configuration Register Write Protection bit
  1744                           ;	WRTC = OFF, Configuration registers not Write protected
  1745                           ;	Data EEPROM Write Protection bit
  1746                           ;	WRTD = OFF, Data EEPROM not Write protected
  1747                           ;	SAF Write protection bit
  1748                           ;	WRTSAF = OFF, SAF not Write Protected
  1749                           ;	Application Block write protection bit
  1750                           ;	WRTAPP = OFF, Application Block not write protected
  1751  300007                     	org	3145735
  1752  300007  FF                 	db	255
  1753                           
  1754                           ;Config register CONFIG9 @ 0x300008
  1755                           ;	CRC on boot output pin selection
  1756                           ;	BOOTPINSEL = RC5, CRC on boot output pin is RC5
  1757                           ;	CRC on boot output pin enable bit
  1758                           ;	BPEN = OFF, CRC on boot output pin disabled
  1759                           ;	CRC on boot output pin open drain bit
  1760                           ;	ODCON = OFF, Pin drives both high-going and low-going signals
  1761  300008                     	org	3145736
  1762  300008  FF                 	db	255
  1763                           
  1764                           ;Config register CONFIG10 @ 0x300009
  1765                           ;	PFM and Data EEPROM Code Protection bit
  1766                           ;	CP = OFF, PFM and Data EEPROM code protection disabled
  1767  300009                     	org	3145737
  1768  300009  FF                 	db	255
  1769                           
  1770                           ;Config register CONFIG11 @ 0x30000A
  1771                           ;	CRC on boot scan enable for boot area
  1772                           ;	BOOTSCEN = OFF, CRC on boot will not include the boot area of program memory in its ca
      +                          lculation
  1773                           ;	CRC on boot Continue on Error for boot areas bit
  1774                           ;	BOOTCOE = HALT, CRC on boot will stop device if error is detected in boot areas
  1775                           ;	CRC on boot application code scan enable
  1776                           ;	APPSCEN = OFF, CRC on boot will not include the application area of program memory in 
      +                          its calculation
  1777                           ;	CRC on boot SAF area scan enable
  1778                           ;	SAFSCEN = OFF, CRC on boot will not include the SAF area of program memory in its calc
      +                          ulation
  1779                           ;	CRC on boot Data EEPROM scan enable
  1780                           ;	DATASCEN = OFF, CRC on boot will not include data EEPROM in its calculation
  1781                           ;	CRC on boot Config fuses scan enable
  1782                           ;	CFGSCEN = OFF, CRC on boot will not include the configuration fuses in its calculation
  1783                           ;	CRC on boot Continue on Error for non-boot areas bit
  1784                           ;	COE = HALT, CRC on boot will stop device if error is detected in non-boot areas
  1785                           ;	Boot on CRC Enable bit
  1786                           ;	BOOTPOR = OFF, CRC on boot will not run
  1787  30000A                     	org	3145738
  1788  30000A  FF                 	db	255
  1789                           
  1790                           ;Config register CONFIG12 @ 0x30000B
  1791                           ;	Boot Sector Polynomial for CRC on boot bits 31-24
  1792                           ;	BCRCPOLT = hFF, Bits 31:24 of BCRCPOL are 0xFF
  1793  30000B                     	org	3145739
  1794  30000B  FF                 	db	255
  1795                           
  1796                           ;Config register CONFIG13 @ 0x30000C
  1797                           ;	Boot Sector Polynomial for CRC on boot bits 23-16
  1798                           ;	BCRCPOLU = hFF, Bits 23:16 of BCRCPOL are 0xFF
  1799  30000C                     	org	3145740
  1800  30000C  FF                 	db	255
  1801                           
  1802                           ;Config register CONFIG14 @ 0x30000D
  1803                           ;	Boot Sector Polynomial for CRC on boot bits 15-8
  1804                           ;	BCRCPOLH = hFF, Bits 15:8 of BCRCPOL are 0xFF
  1805  30000D                     	org	3145741
  1806  30000D  FF                 	db	255
  1807                           
  1808                           ;Config register CONFIG15 @ 0x30000E
  1809                           ;	Boot Sector Polynomial for CRC on boot bits 7-0
  1810                           ;	BCRCPOLL = hFF, Bits 7:0 of BCRCPOL are 0xFF
  1811  30000E                     	org	3145742
  1812  30000E  FF                 	db	255
  1813                           
  1814                           ;Config register CONFIG16 @ 0x30000F
  1815                           ;	Boot Sector Seed for CRC on boot bits 31-24
  1816                           ;	BCRCSEEDT = hFF, Bits 31:24 of BCRCSEED are 0xFF
  1817  30000F                     	org	3145743
  1818  30000F  FF                 	db	255
  1819                           
  1820                           ;Config register CONFIG17 @ 0x300010
  1821                           ;	Boot Sector Seed for CRC on boot bits 23-16
  1822                           ;	BCRCSEEDU = hFF, Bits 23:16 of BCRCSEED are 0xFF
  1823  300010                     	org	3145744
  1824  300010  FF                 	db	255
  1825                           
  1826                           ;Config register CONFIG18 @ 0x300011
  1827                           ;	Boot Sector Seed for CRC on boot bits 15-8
  1828                           ;	BCRCSEEDH = hFF, Bits 15:8 of BCRCSEED are 0xFF
  1829  300011                     	org	3145745
  1830  300011  FF                 	db	255
  1831                           
  1832                           ;Config register CONFIG19 @ 0x300012
  1833                           ;	Boot Sector Seed for CRC on boot bits 7-0
  1834                           ;	BCRCSEEDL = hFF, Bits 7:0 of BCRCSEED are 0xFF
  1835  300012                     	org	3145746
  1836  300012  FF                 	db	255
  1837                           
  1838                           ;Config register CONFIG20 @ 0x300013
  1839                           ;	unspecified, using default values
  1840                           ;	Boot Sector Expected Result for CRC on boot bits 31-24
  1841                           ;	BCRCEREST = 0xFF, unprogrammed default
  1842  300013                     	org	3145747
  1843  300013  FF                 	db	255
  1844                           
  1845                           ;Config register CONFIG21 @ 0x300014
  1846                           ;	unspecified, using default values
  1847                           ;	Boot Sector Expected Result for CRC on boot bits 23-16
  1848                           ;	BCRCERESU = 0xFF, unprogrammed default
  1849  300014                     	org	3145748
  1850  300014  FF                 	db	255
  1851                           
  1852                           ;Config register CONFIG22 @ 0x300015
  1853                           ;	unspecified, using default values
  1854                           ;	Boot Sector Expected Result for CRC on boot bits 15-8
  1855                           ;	BCRCERESH = 0xFF, unprogrammed default
  1856  300015                     	org	3145749
  1857  300015  FF                 	db	255
  1858                           
  1859                           ;Config register CONFIG23 @ 0x300016
  1860                           ;	unspecified, using default values
  1861                           ;	Boot Sector Expected Result for CRC on boot bits 7-0
  1862                           ;	BCRCERESL = 0xFF, unprogrammed default
  1863  300016                     	org	3145750
  1864  300016  FF                 	db	255
  1865                           
  1866                           ;Config register CONFIG24 @ 0x300017
  1867                           ;	Non-Boot Sector Polynomial for CRC on boot bits 31-24
  1868                           ;	CRCPOLT = hFF, Bits 31:24 of CRCPOL are 0xFF
  1869  300017                     	org	3145751
  1870  300017  FF                 	db	255
  1871                           
  1872                           ;Config register CONFIG25 @ 0x300018
  1873                           ;	Non-Boot Sector Polynomial for CRC on boot bits 23-16
  1874                           ;	CRCPOLU = hFF, Bits 23:16 of CRCPOL are 0xFF
  1875  300018                     	org	3145752
  1876  300018  FF                 	db	255
  1877                           
  1878                           ;Config register CONFIG26 @ 0x300019
  1879                           ;	Non-Boot Sector Polynomial for CRC on boot bits 15-8
  1880                           ;	CRCPOLH = hFF, Bits 15:8 of CRCPOL are 0xFF
  1881  300019                     	org	3145753
  1882  300019  FF                 	db	255
  1883                           
  1884                           ;Config register CONFIG27 @ 0x30001A
  1885                           ;	Non-Boot Sector Polynomial for CRC on boot bits 7-0
  1886                           ;	CRCPOLL = hFF, Bits 7:0 of CRCPOL are 0xFF
  1887  30001A                     	org	3145754
  1888  30001A  FF                 	db	255
  1889                           
  1890                           ;Config register CONFIG28 @ 0x30001B
  1891                           ;	Non-Boot Sector Seed for CRC on boot bits 31-24
  1892                           ;	CRCSEEDT = hFF, Bits 31:24 of CRCSEED are 0xFF
  1893  30001B                     	org	3145755
  1894  30001B  FF                 	db	255
  1895                           
  1896                           ;Config register CONFIG29 @ 0x30001C
  1897                           ;	Non-Boot Sector Seed for CRC on boot bits 23-16
  1898                           ;	CRCSEEDU = hFF, Bits 23:16 of CRCSEED are 0xFF
  1899  30001C                     	org	3145756
  1900  30001C  FF                 	db	255
  1901                           
  1902                           ;Config register CONFIG30 @ 0x30001D
  1903                           ;	Non-Boot Sector Seed for CRC on boot bits 15-8
  1904                           ;	CRCSEEDH = hFF, Bits 15:8 of CRCSEED are 0xFF
  1905  30001D                     	org	3145757
  1906  30001D  FF                 	db	255
  1907                           
  1908                           ;Config register CONFIG31 @ 0x30001E
  1909                           ;	Non-Boot Sector Seed for CRC on boot bits 7-0
  1910                           ;	CRCSEEDL = hFF, Bits 7:0 of CRCSEED are 0xFF
  1911  30001E                     	org	3145758
  1912  30001E  FF                 	db	255
  1913                           
  1914                           ;Config register CONFIG32 @ 0x30001F
  1915                           ;	unspecified, using default values
  1916                           ;	Non-Boot Sector Expected Result for CRC on boot bits 31-24
  1917                           ;	CRCEREST = 0xFF, unprogrammed default
  1918  30001F                     	org	3145759
  1919  30001F  FF                 	db	255
  1920                           
  1921                           ;Config register CONFIG33 @ 0x300020
  1922                           ;	unspecified, using default values
  1923                           ;	Non-Boot Sector Expected Result for CRC on boot bits 23-16
  1924                           ;	CRCERESU = 0xFF, unprogrammed default
  1925  300020                     	org	3145760
  1926  300020  FF                 	db	255
  1927                           
  1928                           ;Config register CONFIG34 @ 0x300021
  1929                           ;	unspecified, using default values
  1930                           ;	Non-Boot Sector Expected Result for CRC on boot bits 15-8
  1931                           ;	CRCERESH = 0xFF, unprogrammed default
  1932  300021                     	org	3145761
  1933  300021  FF                 	db	255
  1934                           
  1935                           ;Config register CONFIG35 @ 0x300022
  1936                           ;	unspecified, using default values
  1937                           ;	Non-Boot Sector Expected Result for CRC on boot bits 7-0
  1938                           ;	CRCERESL = 0xFF, unprogrammed default
  1939  300022                     	org	3145762
  1940  300022  FF                 	db	255
  1941                           
  1942                           ; Padding undefined space
  1943  300023                     	org	3145763
  1944  300023  FF                 	db	255
  1945                           tosu	equ	0x4FF
  1946                           tosh	equ	0x4FE
  1947                           tosl	equ	0x4FD
  1948                           stkptr	equ	0x4FC
  1949                           pclatu	equ	0x4FB
  1950                           pclath	equ	0x4FA
  1951                           pcl	equ	0x4F9
  1952                           tblptru	equ	0x4F8
  1953                           tblptrh	equ	0x4F7
  1954                           tblptrl	equ	0x4F6
  1955                           tablat	equ	0x4F5
  1956                           prodh	equ	0x4F4
  1957                           prodl	equ	0x4F3
  1958                           indf0	equ	0x4EF
  1959                           postinc0	equ	0x4EE
  1960                           postdec0	equ	0x4ED
  1961                           preinc0	equ	0x4EC
  1962                           plusw0	equ	0x4EB
  1963                           fsr0h	equ	0x4EA
  1964                           fsr0l	equ	0x4E9
  1965                           wreg	equ	0x4E8
  1966                           indf1	equ	0x4E7
  1967                           postinc1	equ	0x4E6
  1968                           postdec1	equ	0x4E5
  1969                           preinc1	equ	0x4E4
  1970                           plusw1	equ	0x4E3
  1971                           fsr1h	equ	0x4E2
  1972                           fsr1l	equ	0x4E1
  1973                           bsr	equ	0x4E0
  1974                           indf2	equ	0x4DF
  1975                           postinc2	equ	0x4DE
  1976                           postdec2	equ	0x4DD
  1977                           preinc2	equ	0x4DC
  1978                           plusw2	equ	0x4DB
  1979                           fsr2h	equ	0x4DA
  1980                           fsr2l	equ	0x4D9
  1981                           status	equ	0x4D8

Data Sizes:
    Strings     0
    Constant    0
    Data        0
    BSS         5
    Persistent  0
    Stack       0

Auto Spaces:
    Space          Size  Autos    Used
    COMRAM           95      4       9
    BANK5           160      0       0
    BANK6           256      0       0
    BANK7           256      0       0
    BANK8           256      0       0
    BANK9           256      0       0
    BANK10          256      0       0
    BANK11          256      0       0
    BANK12          256      0       0
    BANK13          256      0       0
    BANK14          256      0       0
    BANK15          256      0       0
    BANK16          256      0       0
    BANK17          256      0       0
    BANK18          256      0       0
    BANK19          256      0       0
    BANK20          256      0       0
    BANK21          256      0       0
    BANK22          256      0       0
    BANK23          256      0       0
    BANK24          256      0       0
    BANK25          256      0       0
    BANK26          256      0       0
    BANK27          256      0       0
    BANK28          256      0       0
    BANK29          256      0       0
    BANK30          256      0       0
    BANK31          256      0       0
    BANK32          256      0       0
    BANK33          256      0       0
    BANK34          256      0       0
    BANK35          256      0       0
    BANK36          256      0       0
    BANK37          256      0       0
    BANK38          256      0       0
    BANK39          256      0       0
    BANK40          256      0       0
    BANK41          256      0       0
    BANK42          256      0       0
    BANK43          256      0       0
    BANK44          256      0       0
    BANK45          256      0       0
    BANK46          256      0       0
    BANK47          256      0       0
    BANK48          256      0       0
    BANK49          256      0       0
    BANK50          256      0       0
    BANK51          256      0       0
    BANK52          256      0       0
    BANK53          256      0       0
    BANK54          256      0       0
    BANK55          256      0       0

Pointer List with Targets:

    TMR0_SetInterruptHandler@InterruptHandler	PTR FTN()void  size(3) Largest target is 1
		 -> TMR0_UserInterruptHandler(), TMR0_DefaultInterruptHandler(), 

    TMR0_InterruptHandler	PTR FTN()void  size(3) Largest target is 1
		 -> TMR0_UserInterruptHandler(), Absolute function(), TMR0_DefaultInterruptHandler(), 


Critical Paths under _main in COMRAM

    _main->_TMR0_SetInterruptHandler
    _TMR0_Initialize->_TMR0_SetInterruptHandler

Critical Paths under _Default_ISR in COMRAM

    None.

Critical Paths under _TMR0_ISR in COMRAM

    _TMR0_CallBack->_TMR0_UserInterruptHandler

Critical Paths under _main in BANK5

    None.

Critical Paths under _Default_ISR in BANK5

    None.

Critical Paths under _TMR0_ISR in BANK5

    None.

Critical Paths under _main in BANK6

    None.

Critical Paths under _Default_ISR in BANK6

    None.

Critical Paths under _TMR0_ISR in BANK6

    None.

Critical Paths under _main in BANK7

    None.

Critical Paths under _Default_ISR in BANK7

    None.

Critical Paths under _TMR0_ISR in BANK7

    None.

Critical Paths under _main in BANK8

    None.

Critical Paths under _Default_ISR in BANK8

    None.

Critical Paths under _TMR0_ISR in BANK8

    None.

Critical Paths under _main in BANK9

    None.

Critical Paths under _Default_ISR in BANK9

    None.

Critical Paths under _TMR0_ISR in BANK9

    None.

Critical Paths under _main in BANK10

    None.

Critical Paths under _Default_ISR in BANK10

    None.

Critical Paths under _TMR0_ISR in BANK10

    None.

Critical Paths under _main in BANK11

    None.

Critical Paths under _Default_ISR in BANK11

    None.

Critical Paths under _TMR0_ISR in BANK11

    None.

Critical Paths under _main in BANK12

    None.

Critical Paths under _Default_ISR in BANK12

    None.

Critical Paths under _TMR0_ISR in BANK12

    None.

Critical Paths under _main in BANK13

    None.

Critical Paths under _Default_ISR in BANK13

    None.

Critical Paths under _TMR0_ISR in BANK13

    None.

Critical Paths under _main in BANK14

    None.

Critical Paths under _Default_ISR in BANK14

    None.

Critical Paths under _TMR0_ISR in BANK14

    None.

Critical Paths under _main in BANK15

    None.

Critical Paths under _Default_ISR in BANK15

    None.

Critical Paths under _TMR0_ISR in BANK15

    None.

Critical Paths under _main in BANK16

    None.

Critical Paths under _Default_ISR in BANK16

    None.

Critical Paths under _TMR0_ISR in BANK16

    None.

Critical Paths under _main in BANK17

    None.

Critical Paths under _Default_ISR in BANK17

    None.

Critical Paths under _TMR0_ISR in BANK17

    None.

Critical Paths under _main in BANK18

    None.

Critical Paths under _Default_ISR in BANK18

    None.

Critical Paths under _TMR0_ISR in BANK18

    None.

Critical Paths under _main in BANK19

    None.

Critical Paths under _Default_ISR in BANK19

    None.

Critical Paths under _TMR0_ISR in BANK19

    None.

Critical Paths under _main in BANK20

    None.

Critical Paths under _Default_ISR in BANK20

    None.

Critical Paths under _TMR0_ISR in BANK20

    None.

Critical Paths under _main in BANK21

    None.

Critical Paths under _Default_ISR in BANK21

    None.

Critical Paths under _TMR0_ISR in BANK21

    None.

Critical Paths under _main in BANK22

    None.

Critical Paths under _Default_ISR in BANK22

    None.

Critical Paths under _TMR0_ISR in BANK22

    None.

Critical Paths under _main in BANK23

    None.

Critical Paths under _Default_ISR in BANK23

    None.

Critical Paths under _TMR0_ISR in BANK23

    None.

Critical Paths under _main in BANK24

    None.

Critical Paths under _Default_ISR in BANK24

    None.

Critical Paths under _TMR0_ISR in BANK24

    None.

Critical Paths under _main in BANK25

    None.

Critical Paths under _Default_ISR in BANK25

    None.

Critical Paths under _TMR0_ISR in BANK25

    None.

Critical Paths under _main in BANK26

    None.

Critical Paths under _Default_ISR in BANK26

    None.

Critical Paths under _TMR0_ISR in BANK26

    None.

Critical Paths under _main in BANK27

    None.

Critical Paths under _Default_ISR in BANK27

    None.

Critical Paths under _TMR0_ISR in BANK27

    None.

Critical Paths under _main in BANK28

    None.

Critical Paths under _Default_ISR in BANK28

    None.

Critical Paths under _TMR0_ISR in BANK28

    None.

Critical Paths under _main in BANK29

    None.

Critical Paths under _Default_ISR in BANK29

    None.

Critical Paths under _TMR0_ISR in BANK29

    None.

Critical Paths under _main in BANK30

    None.

Critical Paths under _Default_ISR in BANK30

    None.

Critical Paths under _TMR0_ISR in BANK30

    None.

Critical Paths under _main in BANK31

    None.

Critical Paths under _Default_ISR in BANK31

    None.

Critical Paths under _TMR0_ISR in BANK31

    None.

Critical Paths under _main in BANK32

    None.

Critical Paths under _Default_ISR in BANK32

    None.

Critical Paths under _TMR0_ISR in BANK32

    None.

Critical Paths under _main in BANK33

    None.

Critical Paths under _Default_ISR in BANK33

    None.

Critical Paths under _TMR0_ISR in BANK33

    None.

Critical Paths under _main in BANK34

    None.

Critical Paths under _Default_ISR in BANK34

    None.

Critical Paths under _TMR0_ISR in BANK34

    None.

Critical Paths under _main in BANK35

    None.

Critical Paths under _Default_ISR in BANK35

    None.

Critical Paths under _TMR0_ISR in BANK35

    None.

Critical Paths under _main in BANK36

    None.

Critical Paths under _Default_ISR in BANK36

    None.

Critical Paths under _TMR0_ISR in BANK36

    None.

Critical Paths under _main in BANK37

    None.

Critical Paths under _Default_ISR in BANK37

    None.

Critical Paths under _TMR0_ISR in BANK37

    None.

Critical Paths under _main in BANK38

    None.

Critical Paths under _Default_ISR in BANK38

    None.

Critical Paths under _TMR0_ISR in BANK38

    None.

Critical Paths under _main in BANK39

    None.

Critical Paths under _Default_ISR in BANK39

    None.

Critical Paths under _TMR0_ISR in BANK39

    None.

Critical Paths under _main in BANK40

    None.

Critical Paths under _Default_ISR in BANK40

    None.

Critical Paths under _TMR0_ISR in BANK40

    None.

Critical Paths under _main in BANK41

    None.

Critical Paths under _Default_ISR in BANK41

    None.

Critical Paths under _TMR0_ISR in BANK41

    None.

Critical Paths under _main in BANK42

    None.

Critical Paths under _Default_ISR in BANK42

    None.

Critical Paths under _TMR0_ISR in BANK42

    None.

Critical Paths under _main in BANK43

    None.

Critical Paths under _Default_ISR in BANK43

    None.

Critical Paths under _TMR0_ISR in BANK43

    None.

Critical Paths under _main in BANK44

    None.

Critical Paths under _Default_ISR in BANK44

    None.

Critical Paths under _TMR0_ISR in BANK44

    None.

Critical Paths under _main in BANK45

    None.

Critical Paths under _Default_ISR in BANK45

    None.

Critical Paths under _TMR0_ISR in BANK45

    None.

Critical Paths under _main in BANK46

    None.

Critical Paths under _Default_ISR in BANK46

    None.

Critical Paths under _TMR0_ISR in BANK46

    None.

Critical Paths under _main in BANK47

    None.

Critical Paths under _Default_ISR in BANK47

    None.

Critical Paths under _TMR0_ISR in BANK47

    None.

Critical Paths under _main in BANK48

    None.

Critical Paths under _Default_ISR in BANK48

    None.

Critical Paths under _TMR0_ISR in BANK48

    None.

Critical Paths under _main in BANK49

    None.

Critical Paths under _Default_ISR in BANK49

    None.

Critical Paths under _TMR0_ISR in BANK49

    None.

Critical Paths under _main in BANK50

    None.

Critical Paths under _Default_ISR in BANK50

    None.

Critical Paths under _TMR0_ISR in BANK50

    None.

Critical Paths under _main in BANK51

    None.

Critical Paths under _Default_ISR in BANK51

    None.

Critical Paths under _TMR0_ISR in BANK51

    None.

Critical Paths under _main in BANK52

    None.

Critical Paths under _Default_ISR in BANK52

    None.

Critical Paths under _TMR0_ISR in BANK52

    None.

Critical Paths under _main in BANK53

    None.

Critical Paths under _Default_ISR in BANK53

    None.

Critical Paths under _TMR0_ISR in BANK53

    None.

Critical Paths under _main in BANK54

    None.

Critical Paths under _Default_ISR in BANK54

    None.

Critical Paths under _TMR0_ISR in BANK54

    None.

Critical Paths under _main in BANK55

    None.

Critical Paths under _Default_ISR in BANK55

    None.

Critical Paths under _TMR0_ISR in BANK55

    None.

Call Graph Tables:

 ---------------------------------------------------------------------------------
 (Depth) Function   	        Calls       Base Space   Used Autos Params    Refs
 ---------------------------------------------------------------------------------
 (0) _main                                                 0     0      0     363
                  _SYSTEM_Initialize
           _TMR0_SetInterruptHandler
 ---------------------------------------------------------------------------------
 (1) _SYSTEM_Initialize                                    0     0      0     189
               _INTERRUPT_Initialize
              _OSCILLATOR_Initialize
             _PIN_MANAGER_Initialize
                     _PMD_Initialize
                    _TMR0_Initialize
 ---------------------------------------------------------------------------------
 (2) _TMR0_Initialize                                      0     0      0     174
           _TMR0_SetInterruptHandler
 ---------------------------------------------------------------------------------
 (1) _TMR0_SetInterruptHandler                             3     0      3     174
                                              1 COMRAM     3     0      3
 ---------------------------------------------------------------------------------
 (2) _PMD_Initialize                                       0     0      0       0
 ---------------------------------------------------------------------------------
 (2) _PIN_MANAGER_Initialize                               0     0      0       0
 ---------------------------------------------------------------------------------
 (2) _OSCILLATOR_Initialize                                0     0      0       0
 ---------------------------------------------------------------------------------
 (2) _INTERRUPT_Initialize                                 1     1      0      15
                                              1 COMRAM     1     1      0
 ---------------------------------------------------------------------------------
 Estimated maximum stack depth 2
 ---------------------------------------------------------------------------------
 (Depth) Function   	        Calls       Base Space   Used Autos Params    Refs
 ---------------------------------------------------------------------------------
 (4) _Default_ISR                                          0     0      0       0
 ---------------------------------------------------------------------------------
 Estimated maximum stack depth 4
 ---------------------------------------------------------------------------------
 (Depth) Function   	        Calls       Base Space   Used Autos Params    Refs
 ---------------------------------------------------------------------------------
 (4) _TMR0_ISR                                             0     0      0       0
                      _TMR0_CallBack
 ---------------------------------------------------------------------------------
 (5) _TMR0_CallBack                                        0     0      0       0
                   Absolute function *
       _TMR0_DefaultInterruptHandler *
          _TMR0_UserInterruptHandler *
 ---------------------------------------------------------------------------------
 (6) _TMR0_UserInterruptHandler                            1     1      0       0
                                              0 COMRAM     1     1      0
 ---------------------------------------------------------------------------------
 (6) _TMR0_DefaultInterruptHandler                         0     0      0       0
 ---------------------------------------------------------------------------------
 (6) Absolute function(Fake)                               0     0      0       0
 ---------------------------------------------------------------------------------
 Estimated maximum stack depth 6
 ---------------------------------------------------------------------------------

 Call Graph Graphs:

 _main (ROOT)
   _SYSTEM_Initialize
     _INTERRUPT_Initialize
     _OSCILLATOR_Initialize
     _PIN_MANAGER_Initialize
     _PMD_Initialize
     _TMR0_Initialize
       _TMR0_SetInterruptHandler
   _TMR0_SetInterruptHandler

 _Default_ISR (ROOT)

 _TMR0_ISR (ROOT)
   _TMR0_CallBack
     Absolute function(Fake) *
     _TMR0_DefaultInterruptHandler *
     _TMR0_UserInterruptHandler *

 Address spaces:
Name               Size   Autos  Total    Cost      Usage
BIGRAM            32FF      0       0     107        0.0%
EEDATA             400      0       0       0        0.0%
BITBANK55          100      0       0     105        0.0%
BANK55             100      0       0     106        0.0%
BITBANK54          100      0       0     103        0.0%
BANK54             100      0       0     104        0.0%
BITBANK53          100      0       0     101        0.0%
BANK53             100      0       0     102        0.0%
BITBANK52          100      0       0      99        0.0%
BANK52             100      0       0     100        0.0%
BITBANK51          100      0       0      97        0.0%
BANK51             100      0       0      98        0.0%
BITBANK50          100      0       0      95        0.0%
BANK50             100      0       0      96        0.0%
BITBANK49          100      0       0      93        0.0%
BANK49             100      0       0      94        0.0%
BITBANK48          100      0       0      91        0.0%
BANK48             100      0       0      92        0.0%
BITBANK47          100      0       0      89        0.0%
BANK47             100      0       0      90        0.0%
BITBANK46          100      0       0      87        0.0%
BANK46             100      0       0      88        0.0%
BITBANK45          100      0       0      85        0.0%
BANK45             100      0       0      86        0.0%
BITBANK44          100      0       0      83        0.0%
BANK44             100      0       0      84        0.0%
BITBANK43          100      0       0      81        0.0%
BANK43             100      0       0      82        0.0%
BITBANK42          100      0       0      79        0.0%
BANK42             100      0       0      80        0.0%
BITBANK41          100      0       0      77        0.0%
BANK41             100      0       0      78        0.0%
BITBANK40          100      0       0      75        0.0%
BANK40             100      0       0      76        0.0%
BITBANK39          100      0       0      73        0.0%
BANK39             100      0       0      74        0.0%
BITBANK38          100      0       0      71        0.0%
BANK38             100      0       0      72        0.0%
BITBANK37          100      0       0      69        0.0%
BANK37             100      0       0      70        0.0%
BITBANK36          100      0       0      67        0.0%
BANK36             100      0       0      68        0.0%
BITBANK35          100      0       0      65        0.0%
BANK35             100      0       0      66        0.0%
BITBANK34          100      0       0      63        0.0%
BANK34             100      0       0      64        0.0%
BITBANK33          100      0       0      61        0.0%
BANK33             100      0       0      62        0.0%
BITBANK32          100      0       0      59        0.0%
BANK32             100      0       0      60        0.0%
BITBANK31          100      0       0      57        0.0%
BANK31             100      0       0      58        0.0%
BITBANK30          100      0       0      55        0.0%
BANK30             100      0       0      56        0.0%
BITBANK29          100      0       0      53        0.0%
BANK29             100      0       0      54        0.0%
BITBANK28          100      0       0      51        0.0%
BANK28             100      0       0      52        0.0%
BITBANK27          100      0       0      48        0.0%
BANK27             100      0       0      49        0.0%
BITBANK26          100      0       0      46        0.0%
BANK26             100      0       0      47        0.0%
BITBANK25          100      0       0      44        0.0%
BANK25             100      0       0      45        0.0%
BITBANK24          100      0       0      42        0.0%
BANK24             100      0       0      43        0.0%
BITBANK23          100      0       0      40        0.0%
BANK23             100      0       0      41        0.0%
BITBANK22          100      0       0      38        0.0%
BANK22             100      0       0      39        0.0%
BITBANK21          100      0       0      36        0.0%
BANK21             100      0       0      37        0.0%
BITBANK20          100      0       0      34        0.0%
BANK20             100      0       0      35        0.0%
BITBANK19          100      0       0      32        0.0%
BANK19             100      0       0      33        0.0%
BITBANK18          100      0       0      30        0.0%
BANK18             100      0       0      31        0.0%
BITBANK17          100      0       0      28        0.0%
BANK17             100      0       0      29        0.0%
BITBANK16          100      0       0      26        0.0%
BANK16             100      0       0      27        0.0%
BITBANK15          100      0       0      24        0.0%
BANK15             100      0       0      25        0.0%
BITBANK14          100      0       0      22        0.0%
BANK14             100      0       0      23        0.0%
BITBANK13          100      0       0      20        0.0%
BANK13             100      0       0      21        0.0%
BITBANK12          100      0       0      18        0.0%
BANK12             100      0       0      19        0.0%
BITBANK11          100      0       0      16        0.0%
BANK11             100      0       0      17        0.0%
BITBANK10          100      0       0      14        0.0%
BANK10             100      0       0      15        0.0%
BITBANK9           100      0       0      12        0.0%
BANK9              100      0       0      13        0.0%
BITBANK8           100      0       0      10        0.0%
BANK8              100      0       0      11        0.0%
BITBANK7           100      0       0       8        0.0%
BANK7              100      0       0       9        0.0%
BITBANK6           100      0       0       6        0.0%
BANK6              100      0       0       7        0.0%
BITBANK5            A0      0       0       4        0.0%
BANK5               A0      0       0       5        0.0%
BITCOMRAM           5F      0       0       0        0.0%
COMRAM              5F      4       9       1        9.5%
BITSFR_5             0      0       0     200        0.0%
SFR_5                0      0       0     200        0.0%
BITSFR_4             0      0       0     200        0.0%
SFR_4                0      0       0     200        0.0%
BITSFR_3             0      0       0     200        0.0%
SFR_3                0      0       0     200        0.0%
BITSFR_2             0      0       0     200        0.0%
SFR_2                0      0       0     200        0.0%
BITSFR_1             0      0       0     200        0.0%
SFR_1                0      0       0     200        0.0%
BITSFR               0      0       0     200        0.0%
SFR                  0      0       0     200        0.0%
STACK                0      0       0       2        0.0%
NULL                 0      0       0       0        0.0%
ABS                  0      0       9      50        0.0%
DATA                 0      0       9       3        0.0%
CODE                 0      0       0       0        0.0%


Microchip Technology PIC18 Macro Assembler V2.32 build 20210201212658 
Symbol Table                                                                                   Mon Aug 23 10:07:53 2021

                                      l19 0ED4                                        l49 0F2E  
                                      l79 1030                                        u20 0FCE  
                                      u21 0FCA                                        u15 0ECE  
                                      u16 0ED0                                       l131 0FCE  
                                     l221 0E96                                       l125 1022  
                                     l134 0F80                                       l128 0FC0  
                                     l242 0FE8                                       l243 0FE8  
                                     l931 0EC4                                       l923 0E98  
                                     l933 0EC6                                       l925 0E9A  
                                     l935 0ED0                                       l927 0EA2  
                                     l951 0E2E                                       l929 0EAE  
                                     l961 0E3A                                       l953 0E30  
                                     l971 0E80                                       l963 0E3C  
                                     l955 0E32                                       l947 0F5A  
                                     l981 0E8E                                       l973 0E86  
                                     l965 0E7A                                       l957 0E34  
                                     l949 0E0E                                       l983 0E94  
                                     l975 0E88                                       l967 0E7C  
                                     l959 0E36                                       l985 0FAA  
                                     l977 0E8A                                       l969 0E7E  
                                     l979 0E8C                                       _GIE 0026B7  
                 __size_of_PMD_Initialize 0028                                       tosl 0004FD  
                                    l1021 1024                                      l1031 0F28  
                                    l1023 0F06                                      l1025 0F14  
                                    l1033 100E                                      l1041 0FE6  
                                    l1027 0F16                                      l1035 101E  
                                    l1029 0F18                                      l1037 0FD0  
                                    l1039 0FE4                                      _LATA 0004BE  
                                    _LATB 0004BF                                      _LATC 0004C0  
                                    _LATD 0004C1                                      _LATE 0004C2  
                                    _LATF 0004C3                                      _PMD0 000060  
                                    _PMD1 000061                                      _PMD2 000062  
                                    _PMD3 000063                                      _PMD4 000064  
                                    _PMD5 000065                                      _PMD6 000066  
                                    _PMD7 000067                                      _PMD8 000068  
                                    i2l24 1034                                      i2l72 0F58  
                                    i2l82 1036                                      i2l76 0F04  
                                    _PLLR 000590                                      _WPUA 000401  
                                    _WPUB 000409                                      _WPUC 000411  
                                    _WPUD 000419                                      _WPUE 000421  
                                    _WPUF 000429                                      _main 0FD0  
                                    start 0E0A                              ___param_bank 000000  
                 __end_of_TMR0_Initialize 0F30            ??_TMR0_DefaultInterruptHandler 0506  
          __size_of_OSCILLATOR_Initialize 0026             __end_of_OSCILLATOR_Initialize 0FD0  
                                   ?_main 0506                                     i2l235 0F82  
                                   i2l237 0FA8                                     i2l991 0EEA  
                                   i2l987 0F82                                     i2l989 0ED6  
                                   _OSCEN 0000B3                                     _TMR0H 000319  
                                   _TMR0L 000318                                     _TRISA 0004C6  
                                   _TRISB 0004C7                                     _TRISC 0004C8  
                                   _TRISD 0004C9                                     _TRISE 0004CA  
                                   _TRISF 0004CB                               _Default_ISR 1034  
       __size_of_TMR0_SetInterruptHandler 000E                 ?_TMR0_SetInterruptHandler 0507  
                        __end_of_TMR0_ISR 0F5A                                     pclath 0004FA  
                                   status 0004D8                           __initialization 0FF0  
                            __end_of_main 0FF0                                    ??_main 050A  
                           __activetblptr 000003                                    _ANSELA 000400  
                                  _ANSELB 000408                                    _ANSELC 000410  
                                  _ANSELD 000418                                    _ANSELE 000420  
                                  _ANSELF 000428                          ivt0xD08_undefint 0E08  
                                  _T0CON0 00031A                                    _T0CON1 00031B  
                                  _ODCONA 000402                                    _ODCONB 00040A  
                                  _ODCONC 000412                                    _ODCOND 00041A  
                                  _ODCONE 000422                                    _ODCONF 00042A  
                                  i2l1011 0F4C                                    i2l1013 0F50  
                                  i2l1007 0F30                                    i2l1009 0F32  
                                  _INLVLA 000404                                    _INLVLB 00040C  
                                  _INLVLC 000414                                    _INLVLD 00041C  
                                  _INLVLE 000424                                    _INLVLF 00042C  
                                  _OSCFRQ 0000B1                                    i2u3_40 0F92  
                                  i2u3_41 0F8C                                    i2u3_46 0F94  
                                  i2u4_40 0EEA                                    i2u4_41 0EE6  
                                  i2u5_48 0EF0                                    i2u6_40 0F4C  
                                  i2u5_49 0F04                                    i2u6_41 0F48  
                        ?_TMR0_Initialize 0506                                    isa$std 000001  
                          _PMD_Initialize 0F5A                     __end_of_TMR0_CallBack 0F06  
TMR0_SetInterruptHandler@InterruptHandler 0507             __size_of_INTERRUPT_Initialize 003E  
                       _SYSTEM_Initialize 100E                                __accesstop 0560  
                 __end_of__initialization 1008                        ?_SYSTEM_Initialize 0506  
                            ivt0xD08_base 0D08                             ___rparam_used 000001  
                          __pcstackCOMRAM 0506                       ??_SYSTEM_Initialize 050A  
                               ?_TMR0_ISR 0506                    __end_of_PMD_Initialize 0F82  
                   TMR0_ISR@CountCallBack 0504                 __end_of_SYSTEM_Initialize 1024  
                                 IVTBASEH 00045E                                   IVTBASEL 00045D  
                                 IVTBASEU 00045F                                __pivt0xD08 0D08  
        __end_of_TMR0_SetInterruptHandler 1032                                ??_TMR0_ISR 0507  
                         ?_PMD_Initialize 0506                              ?_Default_ISR 0506  
                                 _OSCCON1 0000AD                                   _OSCCON3 0000AF  
                                 _IVTLOCK 000459                                   _OSCTUNE 0000B0  
                                 _SLRCONA 000403                                   _SLRCONB 00040B  
                                 _SLRCONC 000413                                   _SLRCOND 00041B  
                                 _SLRCONE 000423                                   _SLRCONF 00042B  
               INTERRUPT_Initialize@state 0507                                   __Hparam 0000  
                                 __Lparam 0000              fp__TMR0_UserInterruptHandler 0000  
                                 __pcinit 0FF0                                   __ramtop 3800  
                                 __ptext0 0FD0                                   __ptext1 100E  
                                 __ptext2 0F06                                   __ptext3 1024  
                                 __ptext4 0F5A                                   __ptext5 0E0E  
                                 __ptext6 0FAA                                   __ptext7 0E98  
                                 __ptext8 1034                                   __ptext9 0F30  
                   _OSCILLATOR_Initialize 0FAA                  ??_PIN_MANAGER_Initialize 0507  
              __size_of_SYSTEM_Initialize 0016                      end_of_initialization 1008  
                _TMR0_SetInterruptHandler 1024              __end_of_INTERRUPT_Initialize 0ED6  
                       __size_of_TMR0_ISR 002A                    ?_OSCILLATOR_Initialize 0506  
                     start_initialization 0FF0                  __size_of_TMR0_Initialize 002A  
         __size_of_PIN_MANAGER_Initialize 008A                      __size_of_Default_ISR 0002  
                        ??_PMD_Initialize 0507                    __size_of_TMR0_CallBack 0030  
                             __pbssCOMRAM 0501        __size_of_TMR0_UserInterruptHandler 0028  
              ?_TMR0_UserInterruptHandler 0506                     _TMR0_InterruptHandler 0501  
                  _PIN_MANAGER_Initialize 0E0E         __end_of_TMR0_UserInterruptHandler 0FAA  
                           _TMR0_CallBack 0ED6                      _INTERRUPT_Initialize 0E98  
                       ??_TMR0_Initialize 050A                                  _LATFbits 0004C3  
                                _IPR3bits 000365                                  _PIE3bits 0004A1  
                                _IVTBASEH 00045E                                  _IVTBASEL 00045D  
                                _IVTBASEU 00045F                ??_TMR0_SetInterruptHandler 050A  
                                _PIR3bits 0004B1                                  _TMR0_ISR 0F30  
                          ?_TMR0_CallBack 0506                               _INTCON0bits 0004D6  
                   ?_INTERRUPT_Initialize 0506                                  __Hrparam 0000  
                                __Lrparam 0000                   ??_OSCILLATOR_Initialize 0507  
                              _T0CON0bits 00031A                                  __ptext10 0ED6  
                                __ptext11 1036                                  __ptext12 0F82  
                                __ptext13 0000                             __size_of_main 0020  
    __end_of_TMR0_DefaultInterruptHandler 1038     __size_of_TMR0_DefaultInterruptHandler 0002  
            _TMR0_DefaultInterruptHandler 1036                               _IVTLOCKbits 000459  
                                isa$xinst 000000                             ??_Default_ISR 0506  
                         ??_TMR0_CallBack 0507               ??_TMR0_UserInterruptHandler 0506  
                  ??_INTERRUPT_Initialize 0507                                  intlevel2 0000  
                 ?_PIN_MANAGER_Initialize 0506           fp__TMR0_DefaultInterruptHandler 0000  
           ?_TMR0_DefaultInterruptHandler 0506                           _TMR0_Initialize 0F06  
                     __end_of_Default_ISR 1036            __end_of_PIN_MANAGER_Initialize 0E98  
               _TMR0_UserInterruptHandler 0F82  
