:10000000FFFFFFFFFFFFFFFFFFFFFFFFFFFFFFFF00
:10001000FFFFFFFFFFFFFFFFFFFFFFFFFFFFFFFFF0
:10002000FFFFFFFFFFFFFFFFFFFFFFFFFFFFFFFFE0
:10003000FFFFFFFFFFFFFFFFFFFFFFFFFFFFFFFFD0
:100D000005EF07F0FFFFFFFF0D040D040D040D04B8
:100D10000D040D040D040D040D040D040D040D044B
:100D20000D040D040D040D040D040D040D040D043B
:100D30000D040D040D040D040D040D040D040D042B
:100D40000D040D040D04CC030D040D040D040D045D
:100D50000D040D040D040D040D040D040D040D040B
:100D60000D040D040D040D040D040D040D040D04FB
:100D70000D040D040D040D040D040D040D040D04EB
:100D800082030D040D040D040D040D040D040D0467
:100D90000D040D040D040D040D040D040D040D04CB
:100DA00082030D040D040D040D040D040D040D0447
:100DB0000D040D040D040D040D040D040D040D04AB
:100DC0000D040D040D040D040D040D040D040D049B
:100DD0000D040D040D040D040D040D040D040D048B
:100DE0000D040D040D040D0482030D040D040D0407
:100DF0000D040D040D040D040D040D040D040D046B
:100E00000D040D040D040D04FF00F8EF07F0000EB3
:100E1000C26E000EC16E000EBE6E000EC36E000EDE
:100E2000BF6E000EC06E070ECA6EF70ECB6EC668A0
:100E3000C768C868C9680401186910690869070E9D
:100E4000206FF70E286FF70E006F000E196F000E5F
:100E5000296F000E216F000E096F080E016F000E42
:100E6000116F000E226F000E2A6F000E026F000E2F
:100E70000A6F000E126F000E1A6F03690B69136977
:100E80001B69070E236F2B6904690C6914691C69BF
:100E90000F0E246F2C691200D68A000ED6BE010EEA
:100EA000076ED69E550E0401596FAA0E596F5991BF
:100EB000000E5F6F0D0E5E6F080E5D6F550E596F61
:100EC000AA0E596F598107B002D0D69E01D0D68E96
:100ED0000301658F1200015002100310D8B473EFA4
:100EE00007F075EF07F082EF07F002D882EF07F006
:100EF0000500FA6E0150FD6E0250FE6E0350FF6E4B
:100F0000FA5012001200420E03011B6FF90E196F06
:100F1000000E186FB19EA18E360E076E100E086E71
:100F2000000E096E12EC08F0890E03011A6F120010
:100F3000B19E044A052AF40E045C010E0558D8A09F
:100F4000A4EF07F0A6EF07F0ACEF07F06BEC07F0AB
:100F5000000E056E000E046E1100000E0001606FA1
:100F6000000E616F000E626F000E636F000E646F03
:100F7000000E656F000E666F000E676F000E686FE3
:100F80001200C3B6C6EF07F0C9EF07F0010ECAEFB3
:100F900007F0000EFF0A066E064606460646C350D8
:100FA0000618F70B0618C36E1200200E0001AD6F75
:100FB000000EAF6F010EB36F020EB16F000EB06F77
:100FC000B2A1E5EF07F0E7EF07F0E0EF07F012005E
:100FD00007EC08F0820E076E0F0E086E000E096E09
:100FE00012EC08F0D68ED68CF4EF07F005EF07F080
:100FF000056A046A036A026A016A0401080E5D6FE9
:101000000D0E5E6F000E5F6F0001E8EF07F04CEC15
:1010100007F0ADEC07F007EC07F0D5EC07F083EC38
:1010200007F0120007C501F508C502F509C503F56B
:101030001200FFFF11001200FFFFFFFFFFFFFFFF85
:10104000FFFFFFFFFFFFFFFFFFFFFFFFFFFFFFFFB0
:10105000FFFFFFFFFFFFFFFFFFFFFFFFFFFFFFFFA0
:10106000FFFFFFFFFFFFFFFFFFFFFFFFFFFFFFFF90
:10107000FFFFFFFFFFFFFFFFFFFFFFFFFFFFFFFF80
:020000040001F9
:10FFF000FFFFFFFFFFFFFFFFFFFFFFFFFFFF14B348
:020000040020DA
:10000000FF0FFF0FFF0FFF0FFF0FFF0FFF0FFF0F80
:10001000FF0FFF0FFF0FFF0FFF0FFF0FFF0FFF0F70
:020000040030CA
:10000000AAEFEFFF9FFFFFFFFFFFFFFFFFFFFFFFD5
:10001000FFFFFFFFFFFFFFFFFFFFFFFFFFFFFFFFF0
:04002000FFFFFFFFE0
:00000001FF
