Microchip MPLAB XC8 Compiler V2.32

Linker command line:

-W-3 --edf=C:\Program Files\Microchip\xc8\v2.32\pic\dat\en_msgs.txt \
  -pivt0xD08=0D08h -cn \
  -h+dist/default/production\app_pic18f57q84.X.production.sym \
  --cmf=dist/default/production\app_pic18f57q84.X.production.cmf -z \
  -Q18F57Q84 -oC:\Users\A51933\AppData\Local\Temp\xcAsbp4.4 \
  --defsym=__MPLAB_BUILD=1 \
  -Mdist/default/production/app_pic18f57q84.X.production.map -E1 \
  -ver=XC8 Compiler --acfsm=1493 -ASTACK=0560h-037FFh -pstack=STACK \
  -ACODE=0D00h-01FFFFh -ACONST=0D00h-01FFFFh -ASMALLCONST=03800h-038FFhx456 \
  -AMEDIUMCONST=03800h-0FFFFh,013800h-01FFFFh -ACOMRAM=0501h-055Fh \
  -AABS1=0500h-037FFh -ABIGRAM=0501h-037FFh \
  -ARAM=0560h-05FFh,0600h-06FFhx50 -ABANK5=0560h-05FFh -ABANK6=0600h-06FFh \
  -ABANK7=0700h-07FFh -ABANK8=0800h-08FFh -ABANK9=0900h-09FFh \
  -ABANK10=0A00h-0AFFh -ABANK11=0B00h-0BFFh -ABANK12=0C00h-0CFFh \
  -ABANK13=0D00h-0DFFh -ABANK14=0E00h-0EFFh -ABANK15=0F00h-0FFFh \
  -ABANK16=01000h-010FFh -ABANK17=01100h-011FFh -ABANK18=01200h-012FFh \
  -ABANK19=01300h-013FFh -ABANK20=01400h-014FFh -ABANK21=01500h-015FFh \
  -ABANK22=01600h-016FFh -ABANK23=01700h-017FFh -ABANK24=01800h-018FFh \
  -ABANK25=01900h-019FFh -ABANK26=01A00h-01AFFh -ABANK27=01B00h-01BFFh \
  -ABANK28=01C00h-01CFFh -ABANK29=01D00h-01DFFh -ABANK30=01E00h-01EFFh \
  -ABANK31=01F00h-01FFFh -ABANK32=02000h-020FFh -ABANK33=02100h-021FFh \
  -ABANK34=02200h-022FFh -ABANK35=02300h-023FFh -ABANK36=02400h-024FFh \
  -ABANK37=02500h-025FFh -ABANK38=02600h-026FFh -ABANK39=02700h-027FFh \
  -ABANK40=02800h-028FFh -ABANK41=02900h-029FFh -ABANK42=02A00h-02AFFh \
  -ABANK43=02B00h-02BFFh -ABANK44=02C00h-02CFFh -ABANK45=02D00h-02DFFh \
  -ABANK46=02E00h-02EFFh -ABANK47=02F00h-02FFFh -ABANK48=03000h-030FFh \
  -ABANK49=03100h-031FFh -ABANK50=03200h-032FFh -ABANK51=03300h-033FFh \
  -ABANK52=03400h-034FFh -ABANK53=03500h-035FFh -ABANK54=03600h-036FFh \
  -ABANK55=03700h-037FFh -ASFR=00h-0FFhx4,0400h-045Fh,0460h-04FFh \
  -ACONFIG=0300000h-0300023h -AIDLOC=0200000h-020001Fh \
  -AEEDATA=0380000h-03803FFh -peeprom_data=EEDATA -preset_vec=0D00h \
  -ppowerup=CODE,init -pramtop=03800h -psmallconst=SMALLCONST \
  -pmediumconst=MEDIUMCONST -pconst=CONST -AFARRAM=00h-00h \
  -prdata=COMRAM,nvrram=COMRAM,nvbit=COMRAM,rbss=COMRAM,rbit=COMRAM \
  -pfarbss=FARRAM,fardata=FARRAM,nvFARRAM=FARRAM \
  -pintsave_regs=BIGRAM,bigbss=BIGRAM,bigdata=BIGRAM -pbss=RAM \
  -pidata=CODE,irdata=CODE,ibigdata=CODE,ifardata=CODE -prparam=COMRAM \
  C:\Users\A51933\AppData\Local\Temp\xcAsbp4.o \
  dist/default/production\app_pic18f57q84.X.production.o 

Object code version is 3.11

Machine type is 18F57Q84



                Name                               Link     Load   Length Selector   Space Scale
C:\Users\A51933\AppData\Local\Temp\xcAsbp4.o
                idloc                            200000   200000       20        0       5
                config                           300000   300000       24        0       4
                init                                E0A      E0A        4      684       0
                reset_vec                           D00      D00        4      680       0
dist/default/production\app_pic18f57q84.X.production.o
                idloc                            200000   200000       20        0       5
                config                           300000   300000       24        0       4
                ivt0xD08                            D08      D08      102      684       0
                text12                              F82      F82       28      684       0
                text11                             1036     1036        2      40D       0
                text10                              ED6      ED6       30      684       0
                text9                               F30      F30       2A      684       0
                text8                              1034     1034        2      40D       0
                text7                               E98      E98       3E      684       0
                text6                               FAA      FAA       26      684       0
                text5                               E0E      E0E       8A      684       0
                text4                               F5A      F5A       28      684       0
                text3                              1024     1024        E      684       0
                text2                               F06      F06       2A      684       0
                text1                              100E     100E       16      684       0
                text0                               FD0      FD0       20      684       0
                cstackCOMRAM                        506      506        4      501       1
                bssCOMRAM                           501      501        5      501       1
                cinit                               FF0      FF0       1E      684       0

TOTAL           Name                               Link     Load   Length     Space
        CLASS   STACK          

        CLASS   CODE           
                init                                E0A      E0A        4         0
                reset_vec                           D00      D00        4         0
                ivt0xD08                            D08      D08      102         0
                text12                              F82      F82       28         0
                text11                             1036     1036        2         0
                text10                              ED6      ED6       30         0
                text9                               F30      F30       2A         0
                text8                              1034     1034        2         0
                text7                               E98      E98       3E         0
                text6                               FAA      FAA       26         0
                text5                               E0E      E0E       8A         0
                text4                               F5A      F5A       28         0
                text3                              1024     1024        E         0
                text2                               F06      F06       2A         0
                text1                              100E     100E       16         0
                text0                               FD0      FD0       20         0
                cinit                               FF0      FF0       1E         0

        CLASS   CONST          

        CLASS   SMALLCONST     

        CLASS   MEDIUMCONST    

        CLASS   COMRAM         
                cstackCOMRAM                        506      506        4         1
                bssCOMRAM                           501      501        5         1

        CLASS   ABS1           

        CLASS   BIGRAM         

        CLASS   RAM            

        CLASS   BANK5          

        CLASS   BANK6          

        CLASS   BANK7          

        CLASS   BANK8          

        CLASS   BANK9          

        CLASS   BANK10         

        CLASS   BANK11         

        CLASS   BANK12         

        CLASS   BANK13         

        CLASS   BANK14         

        CLASS   BANK15         

        CLASS   BANK16         

        CLASS   BANK17         

        CLASS   BANK18         

        CLASS   BANK19         

        CLASS   BANK20         

        CLASS   BANK21         

        CLASS   BANK22         

        CLASS   BANK23         

        CLASS   BANK24         

        CLASS   BANK25         

        CLASS   BANK26         

        CLASS   BANK27         

        CLASS   BANK28         

        CLASS   BANK29         

        CLASS   BANK30         

        CLASS   BANK31         

        CLASS   BANK32         

        CLASS   BANK33         

        CLASS   BANK34         

        CLASS   BANK35         

        CLASS   BANK36         

        CLASS   BANK37         

        CLASS   BANK38         

        CLASS   BANK39         

        CLASS   BANK40         

        CLASS   BANK41         

        CLASS   BANK42         

        CLASS   BANK43         

        CLASS   BANK44         

        CLASS   BANK45         

        CLASS   BANK46         

        CLASS   BANK47         

        CLASS   BANK48         

        CLASS   BANK49         

        CLASS   BANK50         

        CLASS   BANK51         

        CLASS   BANK52         

        CLASS   BANK53         

        CLASS   BANK54         

        CLASS   BANK55         

        CLASS   SFR            

        CLASS   CONFIG         
                config                           300000   300000       24         4

        CLASS   IDLOC          
                idloc                            200000   200000       20         5

        CLASS   EEDATA         

        CLASS   FARRAM         



SEGMENTS        Name                           Load    Length   Top    Selector   Space  Class

                bssCOMRAM                      000501  000009  00050A       501       1  COMRAM  
                reset_vec                      000D00  000004  000D04       680       0  CODE    
                ivt0xD08                       000D08  00032A  001032       684       0  CODE    
                text8                          001034  000004  001038       40D       0  CODE    


UNUSED ADDRESS RANGES

        Name                Unused          Largest block    Delta
        BANK10           000A00-000AFF              100
        BANK11           000B00-000BFF              100
        BANK12           000C00-000CFF              100
        BANK13           000D00-000DFF              100
        BANK14           000E00-000EFF              100
        BANK15           000F00-000FFF              100
        BANK16           001000-0010FF              100
        BANK17           001100-0011FF              100
        BANK18           001200-0012FF              100
        BANK19           001300-0013FF              100
        BANK20           001400-0014FF              100
        BANK21           001500-0015FF              100
        BANK22           001600-0016FF              100
        BANK23           001700-0017FF              100
        BANK24           001800-0018FF              100
        BANK25           001900-0019FF              100
        BANK26           001A00-001AFF              100
        BANK27           001B00-001BFF              100
        BANK28           001C00-001CFF              100
        BANK29           001D00-001DFF              100
        BANK30           001E00-001EFF              100
        BANK31           001F00-001FFF              100
        BANK32           002000-0020FF              100
        BANK33           002100-0021FF              100
        BANK34           002200-0022FF              100
        BANK35           002300-0023FF              100
        BANK36           002400-0024FF              100
        BANK37           002500-0025FF              100
        BANK38           002600-0026FF              100
        BANK39           002700-0027FF              100
        BANK40           002800-0028FF              100
        BANK41           002900-0029FF              100
        BANK42           002A00-002AFF              100
        BANK43           002B00-002BFF              100
        BANK44           002C00-002CFF              100
        BANK45           002D00-002DFF              100
        BANK46           002E00-002EFF              100
        BANK47           002F00-002FFF              100
        BANK48           003000-0030FF              100
        BANK49           003100-0031FF              100
        BANK5            000560-0005FF               A0
        BANK50           003200-0032FF              100
        BANK51           003300-0033FF              100
        BANK52           003400-0034FF              100
        BANK53           003500-0035FF              100
        BANK54           003600-0036FF              100
        BANK55           003700-0037FF              100
        BANK6            000600-0006FF              100
        BANK7            000700-0007FF              100
        BANK8            000800-0008FF              100
        BANK9            000900-0009FF              100
        BIGRAM           00050A-0037FF             32F6
        CODE             000D04-000D07                4
                         001032-001033                2
                         001038-01FFFF            1EFC8
        COMRAM           00050A-00055F               56
        CONST            000D04-000D07                4
                         001032-001033                2
                         001038-01FFFF            1EFC8
        EEDATA           380000-3803FF              400
        FARRAM           000000-000000                1
        MEDIUMCONST      003800-00FFFF             C800
                         013800-01FFFF             C800
        RAM              000560-0037FF              100
        SFR              000000-0004FF              100
        SMALLCONST       003800-01FFFF              100
        STACK            000560-0037FF             32A0

                                  Symbol Table

INTERRUPT_Initialize@state                cstackCOMRAM 000507
IVTBASEH                                  (abs)        00045E
IVTBASEL                                  (abs)        00045D
IVTBASEU                                  (abs)        00045F
TMR0_ISR@CountCallBack                    bssCOMRAM    000504
TMR0_SetInterruptHandler@InterruptHandler cstackCOMRAM 000507
_ANSELA                                   (abs)        000400
_ANSELB                                   (abs)        000408
_ANSELC                                   (abs)        000410
_ANSELD                                   (abs)        000418
_ANSELE                                   (abs)        000420
_ANSELF                                   (abs)        000428
_Default_ISR                              text8        001034
_GIE                                      (abs)        0026B7
_INLVLA                                   (abs)        000404
_INLVLB                                   (abs)        00040C
_INLVLC                                   (abs)        000414
_INLVLD                                   (abs)        00041C
_INLVLE                                   (abs)        000424
_INLVLF                                   (abs)        00042C
_INTCON0bits                              (abs)        0004D6
_INTERRUPT_Initialize                     text7        000E98
_IPR3bits                                 (abs)        000365
_IVTBASEH                                 (abs)        00045E
_IVTBASEL                                 (abs)        00045D
_IVTBASEU                                 (abs)        00045F
_IVTLOCK                                  (abs)        000459
_IVTLOCKbits                              (abs)        000459
_LATA                                     (abs)        0004BE
_LATB                                     (abs)        0004BF
_LATC                                     (abs)        0004C0
_LATD                                     (abs)        0004C1
_LATE                                     (abs)        0004C2
_LATF                                     (abs)        0004C3
_LATFbits                                 (abs)        0004C3
_ODCONA                                   (abs)        000402
_ODCONB                                   (abs)        00040A
_ODCONC                                   (abs)        000412
_ODCOND                                   (abs)        00041A
_ODCONE                                   (abs)        000422
_ODCONF                                   (abs)        00042A
_OSCCON1                                  (abs)        0000AD
_OSCCON3                                  (abs)        0000AF
_OSCEN                                    (abs)        0000B3
_OSCFRQ                                   (abs)        0000B1
_OSCILLATOR_Initialize                    text6        000FAA
_OSCTUNE                                  (abs)        0000B0
_PIE3bits                                 (abs)        0004A1
_PIN_MANAGER_Initialize                   text5        000E0E
_PIR3bits                                 (abs)        0004B1
_PLLR                                     (abs)        000590
_PMD0                                     (abs)        000060
_PMD1                                     (abs)        000061
_PMD2                                     (abs)        000062
_PMD3                                     (abs)        000063
_PMD4                                     (abs)        000064
_PMD5                                     (abs)        000065
_PMD6                                     (abs)        000066
_PMD7                                     (abs)        000067
_PMD8                                     (abs)        000068
_PMD_Initialize                           text4        000F5A
_SLRCONA                                  (abs)        000403
_SLRCONB                                  (abs)        00040B
_SLRCONC                                  (abs)        000413
_SLRCOND                                  (abs)        00041B
_SLRCONE                                  (abs)        000423
_SLRCONF                                  (abs)        00042B
_SYSTEM_Initialize                        text1        00100E
_T0CON0                                   (abs)        00031A
_T0CON0bits                               (abs)        00031A
_T0CON1                                   (abs)        00031B
_TMR0H                                    (abs)        000319
_TMR0L                                    (abs)        000318
_TMR0_CallBack                            text10       000ED6
_TMR0_DefaultInterruptHandler             text11       001036
_TMR0_ISR                                 text9        000F30
_TMR0_Initialize                          text2        000F06
_TMR0_InterruptHandler                    bssCOMRAM    000501
_TMR0_SetInterruptHandler                 text3        001024
_TMR0_UserInterruptHandler                text12       000F82
_TRISA                                    (abs)        0004C6
_TRISB                                    (abs)        0004C7
_TRISC                                    (abs)        0004C8
_TRISD                                    (abs)        0004C9
_TRISE                                    (abs)        0004CA
_TRISF                                    (abs)        0004CB
_WPUA                                     (abs)        000401
_WPUB                                     (abs)        000409
_WPUC                                     (abs)        000411
_WPUD                                     (abs)        000419
_WPUE                                     (abs)        000421
_WPUF                                     (abs)        000429
__HRAM                                    (abs)        000000
__Habs1                                   abs1         000000
__Hbank10                                 bank10       000000
__Hbank11                                 bank11       000000
__Hbank12                                 bank12       000000
__Hbank13                                 bank13       000000
__Hbank14                                 bank14       000000
__Hbank15                                 bank15       000000
__Hbank16                                 bank16       000000
__Hbank17                                 bank17       000000
__Hbank18                                 bank18       000000
__Hbank19                                 bank19       000000
__Hbank20                                 bank20       000000
__Hbank21                                 bank21       000000
__Hbank22                                 bank22       000000
__Hbank23                                 bank23       000000
__Hbank24                                 bank24       000000
__Hbank25                                 bank25       000000
__Hbank26                                 bank26       000000
__Hbank27                                 bank27       000000
__Hbank28                                 bank28       000000
__Hbank29                                 bank29       000000
__Hbank30                                 bank30       000000
__Hbank31                                 bank31       000000
__Hbank32                                 bank32       000000
__Hbank33                                 bank33       000000
__Hbank34                                 bank34       000000
__Hbank35                                 bank35       000000
__Hbank36                                 bank36       000000
__Hbank37                                 bank37       000000
__Hbank38                                 bank38       000000
__Hbank39                                 bank39       000000
__Hbank40                                 bank40       000000
__Hbank41                                 bank41       000000
__Hbank42                                 bank42       000000
__Hbank43                                 bank43       000000
__Hbank44                                 bank44       000000
__Hbank45                                 bank45       000000
__Hbank46                                 bank46       000000
__Hbank47                                 bank47       000000
__Hbank48                                 bank48       000000
__Hbank49                                 bank49       000000
__Hbank5                                  bank5        000000
__Hbank50                                 bank50       000000
__Hbank51                                 bank51       000000
__Hbank52                                 bank52       000000
__Hbank53                                 bank53       000000
__Hbank54                                 bank54       000000
__Hbank55                                 bank55       000000
__Hbank6                                  bank6        000000
__Hbank7                                  bank7        000000
__Hbank8                                  bank8        000000
__Hbank9                                  bank9        000000
__Hbigbss                                 bigbss       000000
__Hbigdata                                bigdata      000000
__Hbigram                                 bigram       000000
__Hbss                                    bss          000000
__HbssCOMRAM                              bssCOMRAM    000000
__Hcinit                                  cinit        000000
__Hclrtext                                clrtext      000000
__Hcomram                                 comram       000000
__Hconfig                                 config       300024
__Hconst                                  const        000000
__HcstackCOMRAM                           cstackCOMRAM 000000
__Hdata                                   data         000000
__Heeprom_data                            eeprom_data  000000
__Hfarbss                                 farbss       000000
__Hfardata                                fardata      000000
__Hibigdata                               ibigdata     000000
__Hidata                                  idata        000000
__Hidloc                                  idloc        200020
__Hifardata                               ifardata     000000
__Hinit                                   init         000E0E
__Hintsave_regs                           intsave_regs 000000
__Hirdata                                 irdata       000000
__Hivt0xD08                               ivt0xD08     000E0A
__Hmediumconst                            mediumconst  000000
__HnvFARRAM                               nvFARRAM     000000
__Hnvbit                                  nvbit        000000
__Hnvrram                                 nvrram       000000
__Hparam                                  rparam       000000
__Hpowerup                                powerup      000000
__Hram                                    ram          000000
__Hramtop                                 ramtop       003800
__Hrbit                                   rbit         000000
__Hrbss                                   rbss         000000
__Hrdata                                  rdata        000000
__Hreset_vec                              reset_vec    000D04
__Hrparam                                 rparam       000000
__Hsfr                                    sfr          000000
__Hsmallconst                             smallconst   000000
__Hspace_0                                (abs)        003800
__Hspace_1                                (abs)        00050A
__Hspace_2                                (abs)        000000
__Hspace_4                                (abs)        600024
__Hstack                                  stack        000000
__Hstruct                                 struct       000000
__Htemp                                   temp         000000
__Htext                                   text         000000
__Htext0                                  text0        000000
__Htext1                                  text1        000000
__Htext10                                 text10       000000
__Htext11                                 text11       000000
__Htext12                                 text12       000000
__Htext13                                 text13       000000
__Htext2                                  text2        000000
__Htext3                                  text3        000000
__Htext4                                  text4        000000
__Htext5                                  text5        000000
__Htext6                                  text6        000000
__Htext7                                  text7        000000
__Htext8                                  text8        000000
__Htext9                                  text9        000000
__LRAM                                    (abs)        000001
__Labs1                                   abs1         000000
__Lbank10                                 bank10       000000
__Lbank11                                 bank11       000000
__Lbank12                                 bank12       000000
__Lbank13                                 bank13       000000
__Lbank14                                 bank14       000000
__Lbank15                                 bank15       000000
__Lbank16                                 bank16       000000
__Lbank17                                 bank17       000000
__Lbank18                                 bank18       000000
__Lbank19                                 bank19       000000
__Lbank20                                 bank20       000000
__Lbank21                                 bank21       000000
__Lbank22                                 bank22       000000
__Lbank23                                 bank23       000000
__Lbank24                                 bank24       000000
__Lbank25                                 bank25       000000
__Lbank26                                 bank26       000000
__Lbank27                                 bank27       000000
__Lbank28                                 bank28       000000
__Lbank29                                 bank29       000000
__Lbank30                                 bank30       000000
__Lbank31                                 bank31       000000
__Lbank32                                 bank32       000000
__Lbank33                                 bank33       000000
__Lbank34                                 bank34       000000
__Lbank35                                 bank35       000000
__Lbank36                                 bank36       000000
__Lbank37                                 bank37       000000
__Lbank38                                 bank38       000000
__Lbank39                                 bank39       000000
__Lbank40                                 bank40       000000
__Lbank41                                 bank41       000000
__Lbank42                                 bank42       000000
__Lbank43                                 bank43       000000
__Lbank44                                 bank44       000000
__Lbank45                                 bank45       000000
__Lbank46                                 bank46       000000
__Lbank47                                 bank47       000000
__Lbank48                                 bank48       000000
__Lbank49                                 bank49       000000
__Lbank5                                  bank5        000000
__Lbank50                                 bank50       000000
__Lbank51                                 bank51       000000
__Lbank52                                 bank52       000000
__Lbank53                                 bank53       000000
__Lbank54                                 bank54       000000
__Lbank55                                 bank55       000000
__Lbank6                                  bank6        000000
__Lbank7                                  bank7        000000
__Lbank8                                  bank8        000000
__Lbank9                                  bank9        000000
__Lbigbss                                 bigbss       000000
__Lbigdata                                bigdata      000000
__Lbigram                                 bigram       000000
__Lbss                                    bss          000000
__LbssCOMRAM                              bssCOMRAM    000000
__Lcinit                                  cinit        000000
__Lclrtext                                clrtext      000000
__Lcomram                                 comram       000000
__Lconfig                                 config       000000
__Lconst                                  const        000000
__LcstackCOMRAM                           cstackCOMRAM 000000
__Ldata                                   data         000000
__Leeprom_data                            eeprom_data  000000
__Lfarbss                                 farbss       000000
__Lfardata                                fardata      000000
__Libigdata                               ibigdata     000000
__Lidata                                  idata        000000
__Lidloc                                  idloc        000000
__Lifardata                               ifardata     000000
__Linit                                   init         000E0A
__Lintsave_regs                           intsave_regs 000000
__Lirdata                                 irdata       000000
__Livt0xD08                               ivt0xD08     000D08
__Lmediumconst                            mediumconst  000000
__LnvFARRAM                               nvFARRAM     000000
__Lnvbit                                  nvbit        000000
__Lnvrram                                 nvrram       000000
__Lparam                                  rparam       000000
__Lpowerup                                powerup      000000
__Lram                                    ram          000000
__Lramtop                                 ramtop       003800
__Lrbit                                   rbit         000000
__Lrbss                                   rbss         000000
__Lrdata                                  rdata        000000
__Lreset_vec                              reset_vec    000D00
__Lrparam                                 rparam       000000
__Lsfr                                    sfr          000000
__Lsmallconst                             smallconst   000000
__Lspace_0                                (abs)        000000
__Lspace_1                                (abs)        000000
__Lspace_2                                (abs)        000000
__Lspace_4                                (abs)        000000
__Lstack                                  stack        000000
__Lstruct                                 struct       000000
__Ltemp                                   temp         000000
__Ltext                                   text         000000
__Ltext0                                  text0        000000
__Ltext1                                  text1        000000
__Ltext10                                 text10       000000
__Ltext11                                 text11       000000
__Ltext12                                 text12       000000
__Ltext13                                 text13       000000
__Ltext2                                  text2        000000
__Ltext3                                  text3        000000
__Ltext4                                  text4        000000
__Ltext5                                  text5        000000
__Ltext6                                  text6        000000
__Ltext7                                  text7        000000
__Ltext8                                  text8        000000
__Ltext9                                  text9        000000
__S0                                      (abs)        001038
__S1                                      (abs)        00050A
__S2                                      (abs)        000000
__S4                                      (abs)        000000
__S5                                      (abs)        000000
___inthi_sp                               stack        000000
___intlo_sp                               stack        000000
___param_bank                             (abs)        000000
___rparam_used                            (abs)        000001
___sp                                     stack        000000
__accesstop                               (abs)        000560
__activetblptr                            (abs)        000003
__end_of_Default_ISR                      text8        001036
__end_of_INTERRUPT_Initialize             text7        000ED6
__end_of_OSCILLATOR_Initialize            text6        000FD0
__end_of_PIN_MANAGER_Initialize           text5        000E98
__end_of_PMD_Initialize                   text4        000F82
__end_of_SYSTEM_Initialize                text1        001024
__end_of_TMR0_CallBack                    text10       000F06
__end_of_TMR0_DefaultInterruptHandler     text11       001038
__end_of_TMR0_ISR                         text9        000F5A
__end_of_TMR0_Initialize                  text2        000F30
__end_of_TMR0_SetInterruptHandler         text3        001032
__end_of_TMR0_UserInterruptHandler        text12       000FAA
__end_of__initialization                  cinit        001008
__end_of_main                             text0        000FF0
__initialization                          cinit        000FF0
__mediumconst                             mediumconst  000000
__pbssCOMRAM                              bssCOMRAM    000501
__pcinit                                  cinit        000FF0
__pcstackCOMRAM                           cstackCOMRAM 000506
__pivt0xD08                               ivt0xD08     000D08
__ptext0                                  text0        000FD0
__ptext1                                  text1        00100E
__ptext10                                 text10       000ED6
__ptext11                                 text11       001036
__ptext12                                 text12       000F82
__ptext13                                 text13       000000
__ptext2                                  text2        000F06
__ptext3                                  text3        001024
__ptext4                                  text4        000F5A
__ptext5                                  text5        000E0E
__ptext6                                  text6        000FAA
__ptext7                                  text7        000E98
__ptext8                                  text8        001034
__ptext9                                  text9        000F30
__ramtop                                  ramtop       003800
__size_of_Default_ISR                     (abs)        000000
__size_of_INTERRUPT_Initialize            (abs)        000000
__size_of_OSCILLATOR_Initialize           (abs)        000000
__size_of_PIN_MANAGER_Initialize          (abs)        000000
__size_of_PMD_Initialize                  (abs)        000000
__size_of_SYSTEM_Initialize               (abs)        000000
__size_of_TMR0_CallBack                   (abs)        000000
__size_of_TMR0_DefaultInterruptHandler    (abs)        000000
__size_of_TMR0_ISR                        (abs)        000000
__size_of_TMR0_Initialize                 (abs)        000000
__size_of_TMR0_SetInterruptHandler        (abs)        000000
__size_of_TMR0_UserInterruptHandler       (abs)        000000
__size_of_main                            (abs)        000000
__smallconst                              smallconst   000000
_main                                     text0        000FD0
end_of_initialization                     cinit        001008
intlevel0                                 text         000000
intlevel1                                 text         000000
intlevel2                                 text         000000
intlevel3                                 text         000000
isa$std                                   (abs)        000001
isa$xinst                                 (abs)        000000
ivt0xD08_base                             ivt0xD08     000D08
ivt0xD08_undefint                         ivt0xD08     000E08
stackhi                                   (abs)        0037FF
stacklo                                   (abs)        000560
start                                     init         000E0A
start_initialization                      cinit        000FF0


MODULE INFORMATION

Module		Function		Class		Link	Load	Size
mcc_generated_files/interrupt_manager.c
		_INTERRUPT_Initialize		CODE           	0E98	0000	62
		_Default_ISR   		CODE           	1034	0000	2

mcc_generated_files/interrupt_manager.c estimated size: 64

mcc_generated_files/tmr0.c
		_TMR0_SetInterruptHandler		CODE           	1024	0000	14
		_TMR0_DefaultInterruptHandler		CODE           	1036	0000	2
		_TMR0_CallBack 		CODE           	0ED6	0000	48
		_TMR0_ISR      		CODE           	0F30	0000	42
		_TMR0_Initialize		CODE           	0F06	0000	42

mcc_generated_files/tmr0.c estimated size: 148

mcc_generated_files/pin_manager.c
		_PIN_MANAGER_Initialize		CODE           	0E0E	0000	138

mcc_generated_files/pin_manager.c estimated size: 138

shared
		__initialization		CODE           	0FF0	0000	24

shared estimated size: 24

mcc_generated_files/mcc.c
		_PMD_Initialize		CODE           	0F5A	0000	40
		_OSCILLATOR_Initialize		CODE           	0FAA	0000	38
		_SYSTEM_Initialize		CODE           	100E	0000	22

mcc_generated_files/mcc.c estimated size: 100

main.c
		_main          		CODE           	0FD0	0000	32
		_TMR0_UserInterruptHandler		CODE           	0F82	0000	40

main.c estimated size: 72

