

Microchip MPLAB XC8 Assembler V2.32 build 20210201212658 
                                                                                               Thu Jul 29 14:52:08 2021

Microchip MPLAB XC8 C Compiler v2.32 (Free license) build 20210201212658 Og1 
     1                           	processor	18F47Q10
     2                           	fnconf	rparam,??,?,0
     3                           	pagewidth 120
     4                           	opt	flic
     5                           	psect	intcode,global,reloc=2,class=CODE,delta=1
     6                           	psect	intcodelo,global,reloc=2,class=CODE,delta=1
     7                           	psect	text0,global,reloc=2,class=CODE,delta=1
     8                           	psect	nvCOMRAM,global,class=COMRAM,space=1,delta=1,lowdata,noexec
     9                           	psect	cinit,global,reloc=2,class=CODE,delta=1
    10                           	psect	bssCOMRAM,global,class=COMRAM,space=1,delta=1,lowdata,noexec
    11                           	psect	bssBANK0,global,class=BANK0,space=1,delta=1,lowdata,noexec
    12                           	psect	cstackCOMRAM,global,class=COMRAM,space=1,delta=1,lowdata,noexec
    13                           	psect	text1,global,reloc=2,class=CODE,delta=1
    14                           	psect	text2,global,reloc=2,class=CODE,delta=1
    15                           	psect	text3,global,reloc=2,class=CODE,delta=1
    16                           	psect	text4,global,reloc=2,class=CODE,delta=1
    17                           	psect	text5,global,reloc=2,class=CODE,delta=1
    18                           	psect	text6,global,reloc=2,class=CODE,delta=1
    19                           	psect	text7,global,reloc=2,class=CODE,delta=1
    20                           	psect	text8,global,reloc=2,class=CODE,delta=1
    21                           	psect	text9,global,reloc=2,class=CODE,delta=1
    22                           	psect	text10,global,reloc=2,class=CODE,delta=1
    23                           	psect	text11,global,reloc=2,class=CODE,delta=1
    24                           	psect	text12,global,reloc=2,class=CODE,delta=1
    25                           	psect	text13,global,reloc=2,class=CODE,delta=1
    26                           	psect	text14,global,reloc=2,class=CODE,delta=1
    27                           	psect	text15,global,reloc=2,class=CODE,delta=1
    28                           	psect	text16,global,reloc=2,class=CODE,delta=1
    29                           	psect	text17,global,reloc=2,class=CODE,delta=1
    30                           	psect	text18,global,reloc=2,class=CODE,delta=1
    31                           	psect	text19,global,reloc=2,class=CODE,delta=1
    32                           	psect	text20,global,reloc=2,class=CODE,delta=1
    33                           	psect	text21,global,reloc=2,class=CODE,delta=1
    34                           	psect	text22,global,reloc=2,class=CODE,delta=1
    35                           	psect	text23,global,reloc=2,class=CODE,delta=1
    36                           	psect	text24,global,reloc=2,class=CODE,delta=1
    37                           	psect	intsave_regs,global,class=BIGRAM,space=1,delta=1,noexec
    38                           	psect	rparam,global,class=COMRAM,space=1,delta=1,noexec
    39                           	psect	idloc,global,abs,ovrld,class=IDLOC,space=5,delta=1,noexec
    40                           	psect	config,global,abs,ovrld,class=CONFIG,space=4,delta=1,noexec
    41                           	dabs	1,0xD00,256,_PFM_Buffer
    42                           	dabs	1,0x1,1,_EE_Key_2
    43                           	dabs	1,0xD00,1,_sectorRAM
    44  0000                     
    45                           ; Version 2.35
    46                           ; Generated 04/06/2021 GMT
    47                           ; 
    48                           ; Copyright © 2021, Microchip Technology Inc. and its subsidiaries ("Microchip")
    49                           ; All rights reserved.
    50                           ; 
    51                           ; This software is developed by Microchip Technology Inc. and its subsidiaries ("Microch
      +                          ip").
    52                           ; 
    53                           ; Redistribution and use in source and binary forms, with or without modification, are
    54                           ; permitted provided that the following conditions are met:
    55                           ; 
    56                           ;     1. Redistributions of source code must retain the above copyright notice, this lis
      +                          t of
    57                           ;        conditions and the following disclaimer.
    58                           ; 
    59                           ;     2. Redistributions in binary form must reproduce the above copyright notice, this 
      +                          list
    60                           ;        of conditions and the following disclaimer in the documentation and/or other
    61                           ;        materials provided with the distribution. Publication is not required when
    62                           ;        this file is used in an embedded application.
    63                           ; 
    64                           ;     3. Microchip's name may not be used to endorse or promote products derived from th
      +                          is
    65                           ;        software without specific prior written permission.
    66                           ; 
    67                           ; THIS SOFTWARE IS PROVIDED BY MICROCHIP "AS IS" AND ANY EXPRESS OR IMPLIED WARRANTIES,
    68                           ; INCLUDING, BUT NOT LIMITED TO, THE IMPLIED WARRANTIES OF MERCHANTABILITY AND FITNESS F
      +                          OR
    69                           ; PURPOSE ARE DISCLAIMED.  IN NO EVENT SHALL MICROCHIP BE LIABLE FOR ANY DIRECT, INDIREC
      +                          T,
    70                           ; INCIDENTAL, SPECIAL, EXEMPLARY, OR CONSEQUENTIAL DAMAGES (INCLUDING BUT NOT LIMITED TO
    71                           ; PROCUREMENT OF SUBSTITUTE GOODS OR SERVICES; LOSS OF USE, DATA OR PROFITS; OR BUSINESS
    72                           ; INTERRUPTION) HOWSOEVER CAUSED AND ON ANY THEORY OF LIABILITY, WHETHER IN CONTRACT, ST
      +                          RICT
    73                           ; LIABILITY, OR TORT (INCLUDING NEGLIGENCE OR OTHERWISE) ARISING IN ANY WAY OUT OF THE U
      +                          SE OF
    74                           ; THIS SOFTWARE, EVEN IF ADVISED OF THE POSSIBILITY OF SUCH DAMAGE.
    75                           ; 
    76                           ; 
    77                           ; Code-generator required, PIC18F47Q10 Definitions
    78                           ; 
    79                           ; SFR Addresses
    80  0000                     
    81                           	psect	intcode
    82  000008  EF04 F005          	goto	2568	;# 
    83                           
    84                           	psect	intcodelo
    85  000018  EF0C F005          	goto	2584	;# 
    86  0000                     
    87 ;; Function _EUSART2_DefaultFramingErrorHandler is unused but had its address taken
    88  0000                     
    89 ;; Function _EUSART2_DefaultOverrunErrorHandler is unused but had its address taken
    90  0000                     
    91 ;; Function _EUSART2_DefaultErrorHandler is unused but had its address taken
    92  0000                     
    93                           ; 1 bytes @ 0x26
    94 ;;
    95 ;;Main: autosize = 0, tempsize = 0, incstack = 0, save=0
    96 ;;
    97 ;; *************** function _main *****************
    98 ;; Defined at:
    99 ;;		line 49 in file "main.c"
   100 ;; Parameters:    Size  Location     Type
   101 ;;		None
   102 ;; Auto vars:     Size  Location     Type
   103 ;;		None
   104 ;; Return value:  Size  Location     Type
   105 ;;                  1    wreg      void 
   106 ;; Registers used:
   107 ;;		wreg, fsr1l, fsr1h, fsr2l, fsr2h, status,2, status,0, cstack
   108 ;; Tracked objects:
   109 ;;		On entry : 0/0
   110 ;;		On exit  : 0/0
   111 ;;		Unchanged: 0/0
   112 ;; Data sizes:     COMRAM   BANK0   BANK1   BANK2   BANK3   BANK4   BANK5   BANK6   BANK7   BANK8   BANK9  BANK10  BANK1
      +1  BANK12  BANK14
   113 ;;      Params:         0       0       0       0       0       0       0       0       0       0       0       0       
      +0       0       0
   114 ;;      Locals:         0       0       0       0       0       0       0       0       0       0       0       0       
      +0       0       0
   115 ;;      Temps:          0       0       0       0       0       0       0       0       0       0       0       0       
      +0       0       0
   116 ;;      Totals:         0       0       0       0       0       0       0       0       0       0       0       0       
      +0       0       0
   117 ;;Total ram usage:        0 bytes
   118 ;; Hardware stack levels required when called: 6
   119 ;; This function calls:
   120 ;;		_SYSTEM_Initialize
   121 ;; This function is called by:
   122 ;;		Startup code after reset
   123 ;; This function uses a non-reentrant model
   124 ;;
   125                           
   126                           	psect	text0
   127  00091E                     __ptext0:
   128                           	callstack 0
   129  00091E                     _main:
   130                           	callstack 25
   131  00091E                     
   132                           ;main.c: 52:     SYSTEM_Initialize();
   133  00091E  EC52  F004         	call	_SYSTEM_Initialize	;wreg free
   134  000922                     l479:
   135  000922  EF91  F004         	goto	l479
   136  000926  EF0E  F000         	goto	start
   137  00092A                     __end_of_main:
   138                           	callstack 0
   139                           
   140                           	psect	nvCOMRAM
   141  000028                     __pnvCOMRAM:
   142                           	callstack 0
   143  000028                     _EUSART2_ErrorHandler:
   144                           	callstack 0
   145  000028                     	ds	3
   146  00002B                     _EUSART2_OverrunErrorHandler:
   147                           	callstack 0
   148  00002B                     	ds	3
   149  00002E                     _EUSART2_FramingErrorHandler:
   150                           	callstack 0
   151  00002E                     	ds	3
   152  0000                     _RX2PPS	set	3720
   153  0000                     _RD0PPS	set	3834
   154  0000                     _PIR7bits	set	3788
   155  0000                     _BAUDCTL2bits	set	3738
   156  0000                     _PMD5	set	3809
   157  0000                     _PMD4	set	3808
   158  0000                     _PMD3	set	3807
   159  0000                     _PMD2	set	3806
   160  0000                     _PMD1	set	3805
   161  0000                     _PMD0	set	3804
   162  0000                     _OSCTUNE	set	3800
   163  0000                     _OSCFRQ	set	3801
   164  0000                     _OSCEN	set	3799
   165  0000                     _OSCCON3	set	3797
   166  0000                     _OSCCON1	set	3795
   167  0000                     _TX2REG	set	3733
   168  0000                     _RC2REG	set	3732
   169  0000                     _RC2STAbits	set	3736
   170  0000                     _TX2STAbits	set	3737
   171  0000                     _PIR3bits	set	3784
   172  0000                     _SP2BRGH	set	3735
   173  0000                     _SP2BRGL	set	3734
   174  0000                     _TX2STA	set	3737
   175  0000                     _RC2STA	set	3736
   176  0000                     _BAUD2CON	set	3738
   177  0000                     _INLVLE	set	3877
   178  0000                     _INLVLD	set	3869
   179  0000                     _INLVLC	set	3864
   180  0000                     _INLVLB	set	3856
   181  0000                     _INLVLA	set	3848
   182  0000                     _SLRCONE	set	3878
   183  0000                     _SLRCOND	set	3870
   184  0000                     _SLRCONC	set	3865
   185  0000                     _SLRCONB	set	3857
   186  0000                     _SLRCONA	set	3849
   187  0000                     _ODCOND	set	3871
   188  0000                     _ODCONC	set	3866
   189  0000                     _ODCONB	set	3858
   190  0000                     _ODCONA	set	3850
   191  0000                     _ODCONE	set	3879
   192  0000                     _WPUC	set	3867
   193  0000                     _WPUA	set	3851
   194  0000                     _WPUB	set	3859
   195  0000                     _WPUE	set	3880
   196  0000                     _WPUD	set	3872
   197  0000                     _ANSELA	set	3852
   198  0000                     _ANSELE	set	3881
   199  0000                     _ANSELB	set	3860
   200  0000                     _ANSELC	set	3868
   201  0000                     _ANSELD	set	3873
   202  0000                     _TBLPTR	set	4086
   203  0000                     _TRISD	set	3978
   204  0000                     _TRISC	set	3977
   205  0000                     _TRISB	set	3976
   206  0000                     _TRISA	set	3975
   207  0000                     _TRISE	set	3979
   208  0000                     _LATC	set	3972
   209  0000                     _LATB	set	3971
   210  0000                     _LATA	set	3970
   211  0000                     _LATD	set	3973
   212  0000                     _LATE	set	3974
   213  0000                     _NVMCON1	set	3968
   214  0000                     _PORTBbits	set	3981
   215  0000                     _BSR	set	4064
   216  0000                     _STKPTR	set	4092
   217  0000                     _LATAbits	set	3970
   218  0000                     _NVMCON2	set	3969
   219  0000                     _NVMCON0bits	set	3967
   220  0000                     _INTCONbits	set	4082
   221  0000                     _NVMDATL	set	3964
   222  0000                     _NVMDATH	set	3965
   223  0000                     _NVMCON1bits	set	3968
   224  0000                     _NVMADRL	set	3961
   225  0000                     _NVMADRH	set	3962
   226  0000                     _NVMADRU	set	3963
   227  0000                     _TABLAT	set	4085
   228  0000                     _TBLPTRL	set	4086
   229  0000                     _TBLPTRH	set	4087
   230  0000                     _TBLPTRU	set	4088
   231                           
   232                           ; #config settings
   233                           
   234                           	psect	cinit
   235  00083A                     __pcinit:
   236                           	callstack 0
   237  00083A                     start_initialization:
   238                           	callstack 0
   239  00083A                     __initialization:
   240                           	callstack 0
   241                           
   242                           ; Clear objects allocated to BANK0 (137 bytes)
   243  00083A  EE00  F060         	lfsr	0,__pbssBANK0
   244  00083E  0E89               	movlw	137
   245  000840                     clear_0:
   246  000840  6AEE               	clrf	postinc0,c
   247  000842  06E8               	decf	wreg,f,c
   248  000844  E1FD               	bnz	clear_0
   249                           
   250                           ; Clear objects allocated to COMRAM (8 bytes)
   251  000846  EE00  F031         	lfsr	0,__pbssCOMRAM
   252  00084A  0E08               	movlw	8
   253  00084C                     clear_1:
   254  00084C  6AEE               	clrf	postinc0,c
   255  00084E  06E8               	decf	wreg,f,c
   256  000850  E1FD               	bnz	clear_1
   257  000852                     end_of_initialization:
   258                           	callstack 0
   259  000852                     __end_of__initialization:
   260                           	callstack 0
   261  000852  0100               	movlb	0
   262  000854  EF8F  F004         	goto	_main	;jump to C main() function
   263                           
   264                           	psect	bssCOMRAM
   265  000031                     __pbssCOMRAM:
   266                           	callstack 0
   267  000031                     _counter:
   268                           	callstack 0
   269  000031                     	ds	2
   270  000033                     _check_sum:
   271                           	callstack 0
   272  000033                     	ds	2
   273  000035                     _reset_pending:
   274                           	callstack 0
   275  000035                     	ds	1
   276  000036                     _tx_data:
   277                           	callstack 0
   278  000036                     	ds	1
   279  000037                     _rx_data:
   280                           	callstack 0
   281  000037                     	ds	1
   282  000038                     _eusart2RxLastError:
   283                           	callstack 0
   284  000038                     	ds	1
   285                           
   286                           	psect	bssBANK0
   287  000060                     __pbssBANK0:
   288                           	callstack 0
   289  000060                     _frame:
   290                           	callstack 0
   291  000060                     	ds	137
   292                           
   293                           	psect	cstackCOMRAM
   294  000002                     __pcstackCOMRAM:
   295                           	callstack 0
   296  000002                     ?_Get_Version_Data:
   297                           	callstack 0
   298  000002                     ?_Erase_Flash:
   299                           	callstack 0
   300  000002                     ?_Read_Config:
   301                           	callstack 0
   302  000002                     ?_Write_Config:
   303                           	callstack 0
   304  000002                     ?_Calc_Checksum:
   305                           	callstack 0
   306  000002                     EUSART2_Write@txData:
   307                           	callstack 0
   308  000002                     Bootload_Required@i:
   309                           	callstack 0
   310  000002                     EUSART2_SetFramingErrorHandler@interruptHandler:
   311                           	callstack 0
   312  000002                     EUSART2_SetOverrunErrorHandler@interruptHandler:
   313                           	callstack 0
   314  000002                     EUSART2_SetErrorHandler@interruptHandler:
   315                           	callstack 0
   316  000002                     FLASH_ReadSector@flashAddr:
   317                           	callstack 0
   318                           
   319                           ; 4 bytes @ 0x0
   320  000002                     	ds	2
   321  000004                     ??_Erase_Flash:
   322  000004                     ??_Read_Config:
   323  000004                     ??_Write_Config:
   324  000004                     ??_Calc_Checksum:
   325  000004                     Get_Version_Data@i:
   326                           	callstack 0
   327                           
   328                           ; 1 bytes @ 0x2
   329  000004                     	ds	1
   330  000005                     
   331                           ; 1 bytes @ 0x3
   332  000005                     	ds	1
   333  000006                     FLASH_ReadSector@GIEBitValue:
   334                           	callstack 0
   335  000006                     Read_Config@i:
   336                           	callstack 0
   337  000006                     Write_Config@i:
   338                           	callstack 0
   339                           
   340                           ; 1 bytes @ 0x4
   341  000006                     	ds	1
   342  000007                     ?_Write_Flash:
   343                           	callstack 0
   344                           
   345                           ; 2 bytes @ 0x5
   346  000007                     	ds	1
   347  000008                     Calc_Checksum@i:
   348                           	callstack 0
   349                           
   350                           ; 4 bytes @ 0x6
   351  000008                     	ds	1
   352  000009                     ??_Write_Flash:
   353                           
   354                           ; 1 bytes @ 0x7
   355  000009                     	ds	3
   356  00000C                     Calc_Checksum@length:
   357                           	callstack 0
   358                           
   359                           ; 4 bytes @ 0xA
   360  00000C                     	ds	4
   361  000010                     Erase_Flash@address:
   362                           	callstack 0
   363                           
   364                           ; 4 bytes @ 0xE
   365  000010                     	ds	4
   366  000014                     Erase_Flash@i:
   367                           	callstack 0
   368                           
   369                           ; 2 bytes @ 0x12
   370  000014                     	ds	1
   371  000015                     Write_Flash@GIEBitValue:
   372                           	callstack 0
   373                           
   374                           ; 1 bytes @ 0x13
   375  000015                     	ds	1
   376  000016                     Erase_Flash@GIEBitValue:
   377                           	callstack 0
   378  000016                     Write_Flash@address:
   379                           	callstack 0
   380                           
   381                           ; 4 bytes @ 0x14
   382  000016                     	ds	1
   383  000017                     Erase_Flash@blockStartAddr:
   384                           	callstack 0
   385                           
   386                           ; 4 bytes @ 0x15
   387  000017                     	ds	3
   388  00001A                     Write_Flash@i:
   389                           	callstack 0
   390                           
   391                           ; 2 bytes @ 0x18
   392  00001A                     	ds	2
   393  00001C                     ?_ProcessBootBuffer:
   394                           	callstack 0
   395                           
   396                           ; 2 bytes @ 0x1A
   397  00001C                     	ds	2
   398  00001E                     ??_ProcessBootBuffer:
   399                           
   400                           ; 1 bytes @ 0x1C
   401  00001E                     	ds	2
   402  000020                     ProcessBootBuffer@len:
   403                           	callstack 0
   404                           
   405                           ; 2 bytes @ 0x1E
   406  000020                     	ds	2
   407  000022                     ??_Run_Bootloader:
   408                           
   409                           ; 1 bytes @ 0x20
   410  000022                     	ds	1
   411  000023                     Run_Bootloader@ch:
   412                           	callstack 0
   413                           
   414                           ; 1 bytes @ 0x21
   415  000023                     	ds	1
   416  000024                     Run_Bootloader@msg_length:
   417                           	callstack 0
   418                           
   419                           ; 2 bytes @ 0x22
   420  000024                     	ds	2
   421  000026                     Run_Bootloader@index:
   422                           	callstack 0
   423                           
   424                           ; 2 bytes @ 0x24
   425  000026                     	ds	2
   426  000028                     
   427 ;; *************** function _SYSTEM_Initialize *****************
   428 ;; Defined at:
   429 ;;		line 50 in file "mcc_generated_files/mcc.c"
   430 ;; Parameters:    Size  Location     Type
   431 ;;		None
   432 ;; Auto vars:     Size  Location     Type
   433 ;;		None
   434 ;; Return value:  Size  Location     Type
   435 ;;                  1    wreg      void 
   436 ;; Registers used:
   437 ;;		wreg, fsr1l, fsr1h, fsr2l, fsr2h, status,2, status,0, cstack
   438 ;; Tracked objects:
   439 ;;		On entry : 0/0
   440 ;;		On exit  : 0/0
   441 ;;		Unchanged: 0/0
   442 ;; Data sizes:     COMRAM   BANK0   BANK1   BANK2   BANK3   BANK4   BANK5   BANK6   BANK7   BANK8   BANK9  BANK10  BANK1
      +1  BANK12  BANK14
   443 ;;      Params:         0       0       0       0       0       0       0       0       0       0       0       0       
      +0       0       0
   444 ;;      Locals:         0       0       0       0       0       0       0       0       0       0       0       0       
      +0       0       0
   445 ;;      Temps:          0       0       0       0       0       0       0       0       0       0       0       0       
      +0       0       0
   446 ;;      Totals:         0       0       0       0       0       0       0       0       0       0       0       0       
      +0       0       0
   447 ;;Total ram usage:        0 bytes
   448 ;; Hardware stack levels used: 1
   449 ;; Hardware stack levels required when called: 5
   450 ;; This function calls:
   451 ;;		_BOOTLOADER_Initialize
   452 ;;		_EUSART2_Initialize
   453 ;;		_OSCILLATOR_Initialize
   454 ;;		_PIN_MANAGER_Initialize
   455 ;;		_PMD_Initialize
   456 ;; This function is called by:
   457 ;;		_main
   458 ;; This function uses a non-reentrant model
   459 ;;
   460                           
   461                           	psect	text1
   462  0008A4                     __ptext1:
   463                           	callstack 0
   464  0008A4                     _SYSTEM_Initialize:
   465                           	callstack 25
   466  0008A4                     
   467                           ;mcc_generated_files/mcc.c: 52:     PMD_Initialize();
   468  0008A4  EC2C  F004         	call	_PMD_Initialize	;wreg free
   469                           
   470                           ;mcc_generated_files/mcc.c: 53:     PIN_MANAGER_Initialize();
   471  0008A8  ECCF  F002         	call	_PIN_MANAGER_Initialize	;wreg free
   472                           
   473                           ;mcc_generated_files/mcc.c: 54:     OSCILLATOR_Initialize();
   474  0008AC  EC3A  F004         	call	_OSCILLATOR_Initialize	;wreg free
   475  0008B0                     
   476                           ;mcc_generated_files/mcc.c: 55:     EUSART2_Initialize();
   477  0008B0  ECAA  F003         	call	_EUSART2_Initialize	;wreg free
   478  0008B4                     
   479                           ;mcc_generated_files/mcc.c: 56:     BOOTLOADER_Initialize();
   480  0008B4  ECEF  F003         	call	_BOOTLOADER_Initialize	;wreg free
   481  0008B8  0012               	return		;funcret
   482  0008BA                     __end_of_SYSTEM_Initialize:
   483                           	callstack 0
   484                           
   485 ;; *************** function _PMD_Initialize *****************
   486 ;; Defined at:
   487 ;;		line 73 in file "mcc_generated_files/mcc.c"
   488 ;; Parameters:    Size  Location     Type
   489 ;;		None
   490 ;; Auto vars:     Size  Location     Type
   491 ;;		None
   492 ;; Return value:  Size  Location     Type
   493 ;;                  1    wreg      void 
   494 ;; Registers used:
   495 ;;		wreg, status,2
   496 ;; Tracked objects:
   497 ;;		On entry : 0/0
   498 ;;		On exit  : 0/0
   499 ;;		Unchanged: 0/0
   500 ;; Data sizes:     COMRAM   BANK0   BANK1   BANK2   BANK3   BANK4   BANK5   BANK6   BANK7   BANK8   BANK9  BANK10  BANK1
      +1  BANK12  BANK14
   501 ;;      Params:         0       0       0       0       0       0       0       0       0       0       0       0       
      +0       0       0
   502 ;;      Locals:         0       0       0       0       0       0       0       0       0       0       0       0       
      +0       0       0
   503 ;;      Temps:          0       0       0       0       0       0       0       0       0       0       0       0       
      +0       0       0
   504 ;;      Totals:         0       0       0       0       0       0       0       0       0       0       0       0       
      +0       0       0
   505 ;;Total ram usage:        0 bytes
   506 ;; Hardware stack levels used: 1
   507 ;; This function calls:
   508 ;;		Nothing
   509 ;; This function is called by:
   510 ;;		_SYSTEM_Initialize
   511 ;; This function uses a non-reentrant model
   512 ;;
   513                           
   514                           	psect	text2
   515  000858                     __ptext2:
   516                           	callstack 0
   517  000858                     _PMD_Initialize:
   518                           	callstack 29
   519  000858                     
   520                           ;mcc_generated_files/mcc.c: 76:     PMD0 = 0x00;
   521  000858  0E00               	movlw	0
   522  00085A  010E               	movlb	14	; () banked
   523  00085C  6FDC               	movwf	220,b	;volatile
   524                           
   525                           ;mcc_generated_files/mcc.c: 78:     PMD1 = 0x00;
   526  00085E  0E00               	movlw	0
   527  000860  6FDD               	movwf	221,b	;volatile
   528                           
   529                           ;mcc_generated_files/mcc.c: 80:     PMD2 = 0x00;
   530  000862  0E00               	movlw	0
   531  000864  6FDE               	movwf	222,b	;volatile
   532                           
   533                           ;mcc_generated_files/mcc.c: 82:     PMD3 = 0x00;
   534  000866  0E00               	movlw	0
   535  000868  6FDF               	movwf	223,b	;volatile
   536                           
   537                           ;mcc_generated_files/mcc.c: 84:     PMD4 = 0x00;
   538  00086A  0E00               	movlw	0
   539  00086C  6FE0               	movwf	224,b	;volatile
   540                           
   541                           ;mcc_generated_files/mcc.c: 86:     PMD5 = 0x00;
   542  00086E  0E00               	movlw	0
   543  000870  6FE1               	movwf	225,b	;volatile
   544  000872                     
   545                           ; BSR set to: 14
   546  000872  0012               	return		;funcret
   547  000874                     __end_of_PMD_Initialize:
   548                           	callstack 0
   549                           
   550 ;; *************** function _PIN_MANAGER_Initialize *****************
   551 ;; Defined at:
   552 ;;		line 55 in file "mcc_generated_files/pin_manager.c"
   553 ;; Parameters:    Size  Location     Type
   554 ;;		None
   555 ;; Auto vars:     Size  Location     Type
   556 ;;		None
   557 ;; Return value:  Size  Location     Type
   558 ;;                  1    wreg      void 
   559 ;; Registers used:
   560 ;;		wreg, status,2
   561 ;; Tracked objects:
   562 ;;		On entry : 0/0
   563 ;;		On exit  : 0/0
   564 ;;		Unchanged: 0/0
   565 ;; Data sizes:     COMRAM   BANK0   BANK1   BANK2   BANK3   BANK4   BANK5   BANK6   BANK7   BANK8   BANK9  BANK10  BANK1
      +1  BANK12  BANK14
   566 ;;      Params:         0       0       0       0       0       0       0       0       0       0       0       0       
      +0       0       0
   567 ;;      Locals:         0       0       0       0       0       0       0       0       0       0       0       0       
      +0       0       0
   568 ;;      Temps:          0       0       0       0       0       0       0       0       0       0       0       0       
      +0       0       0
   569 ;;      Totals:         0       0       0       0       0       0       0       0       0       0       0       0       
      +0       0       0
   570 ;;Total ram usage:        0 bytes
   571 ;; Hardware stack levels used: 1
   572 ;; This function calls:
   573 ;;		Nothing
   574 ;; This function is called by:
   575 ;;		_SYSTEM_Initialize
   576 ;; This function uses a non-reentrant model
   577 ;;
   578                           
   579                           	psect	text3
   580  00059E                     __ptext3:
   581                           	callstack 0
   582  00059E                     _PIN_MANAGER_Initialize:
   583                           	callstack 29
   584  00059E                     
   585                           ;mcc_generated_files/pin_manager.c: 60:     LATE = 0x00;
   586  00059E  0E00               	movlw	0
   587  0005A0  6E86               	movwf	134,c	;volatile
   588                           
   589                           ;mcc_generated_files/pin_manager.c: 61:     LATD = 0x01;
   590  0005A2  0E01               	movlw	1
   591  0005A4  6E85               	movwf	133,c	;volatile
   592                           
   593                           ;mcc_generated_files/pin_manager.c: 62:     LATA = 0x00;
   594  0005A6  0E00               	movlw	0
   595  0005A8  6E82               	movwf	130,c	;volatile
   596                           
   597                           ;mcc_generated_files/pin_manager.c: 63:     LATB = 0x00;
   598  0005AA  0E00               	movlw	0
   599  0005AC  6E83               	movwf	131,c	;volatile
   600                           
   601                           ;mcc_generated_files/pin_manager.c: 64:     LATC = 0x00;
   602  0005AE  0E00               	movlw	0
   603  0005B0  6E84               	movwf	132,c	;volatile
   604                           
   605                           ;mcc_generated_files/pin_manager.c: 69:     TRISE = 0x07;
   606  0005B2  0E07               	movlw	7
   607  0005B4  6E8B               	movwf	139,c	;volatile
   608                           
   609                           ;mcc_generated_files/pin_manager.c: 70:     TRISA = 0x7F;
   610  0005B6  0E7F               	movlw	127
   611  0005B8  6E87               	movwf	135,c	;volatile
   612  0005BA                     
   613                           ;mcc_generated_files/pin_manager.c: 71:     TRISB = 0xFF;
   614  0005BA  6888               	setf	136,c	;volatile
   615  0005BC                     
   616                           ;mcc_generated_files/pin_manager.c: 72:     TRISC = 0xFF;
   617  0005BC  6889               	setf	137,c	;volatile
   618                           
   619                           ;mcc_generated_files/pin_manager.c: 73:     TRISD = 0xFE;
   620  0005BE  0EFE               	movlw	254
   621  0005C0  6E8A               	movwf	138,c	;volatile
   622                           
   623                           ;mcc_generated_files/pin_manager.c: 78:     ANSELD = 0xFC;
   624  0005C2  0EFC               	movlw	252
   625  0005C4  010F               	movlb	15	; () banked
   626  0005C6  6F21               	movwf	33,b	;volatile
   627  0005C8                     
   628                           ; BSR set to: 15
   629                           ;mcc_generated_files/pin_manager.c: 79:     ANSELC = 0xFF;
   630  0005C8  691C               	setf	28,b	;volatile
   631                           
   632                           ;mcc_generated_files/pin_manager.c: 80:     ANSELB = 0xEF;
   633  0005CA  0EEF               	movlw	239
   634  0005CC  6F14               	movwf	20,b	;volatile
   635                           
   636                           ;mcc_generated_files/pin_manager.c: 81:     ANSELE = 0x07;
   637  0005CE  0E07               	movlw	7
   638  0005D0  6F29               	movwf	41,b	;volatile
   639                           
   640                           ;mcc_generated_files/pin_manager.c: 82:     ANSELA = 0x7F;
   641  0005D2  0E7F               	movlw	127
   642  0005D4  6F0C               	movwf	12,b	;volatile
   643                           
   644                           ;mcc_generated_files/pin_manager.c: 87:     WPUD = 0x00;
   645  0005D6  0E00               	movlw	0
   646  0005D8  6F20               	movwf	32,b	;volatile
   647                           
   648                           ;mcc_generated_files/pin_manager.c: 88:     WPUE = 0x00;
   649  0005DA  0E00               	movlw	0
   650  0005DC  6F28               	movwf	40,b	;volatile
   651                           
   652                           ;mcc_generated_files/pin_manager.c: 89:     WPUB = 0x00;
   653  0005DE  0E00               	movlw	0
   654  0005E0  6F13               	movwf	19,b	;volatile
   655                           
   656                           ;mcc_generated_files/pin_manager.c: 90:     WPUA = 0x00;
   657  0005E2  0E00               	movlw	0
   658  0005E4  6F0B               	movwf	11,b	;volatile
   659                           
   660                           ;mcc_generated_files/pin_manager.c: 91:     WPUC = 0x00;
   661  0005E6  0E00               	movlw	0
   662  0005E8  6F1B               	movwf	27,b	;volatile
   663                           
   664                           ;mcc_generated_files/pin_manager.c: 96:     ODCONE = 0x00;
   665  0005EA  0E00               	movlw	0
   666  0005EC  6F27               	movwf	39,b	;volatile
   667                           
   668                           ;mcc_generated_files/pin_manager.c: 97:     ODCONA = 0x00;
   669  0005EE  0E00               	movlw	0
   670  0005F0  6F0A               	movwf	10,b	;volatile
   671                           
   672                           ;mcc_generated_files/pin_manager.c: 98:     ODCONB = 0x00;
   673  0005F2  0E00               	movlw	0
   674  0005F4  6F12               	movwf	18,b	;volatile
   675                           
   676                           ;mcc_generated_files/pin_manager.c: 99:     ODCONC = 0x00;
   677  0005F6  0E00               	movlw	0
   678  0005F8  6F1A               	movwf	26,b	;volatile
   679                           
   680                           ;mcc_generated_files/pin_manager.c: 100:     ODCOND = 0x00;
   681  0005FA  0E00               	movlw	0
   682  0005FC  6F1F               	movwf	31,b	;volatile
   683  0005FE                     
   684                           ; BSR set to: 15
   685                           ;mcc_generated_files/pin_manager.c: 105:     SLRCONA = 0xFF;
   686  0005FE  6909               	setf	9,b	;volatile
   687  000600                     
   688                           ; BSR set to: 15
   689                           ;mcc_generated_files/pin_manager.c: 106:     SLRCONB = 0xFF;
   690  000600  6911               	setf	17,b	;volatile
   691  000602                     
   692                           ; BSR set to: 15
   693                           ;mcc_generated_files/pin_manager.c: 107:     SLRCONC = 0xFF;
   694  000602  6919               	setf	25,b	;volatile
   695  000604                     
   696                           ; BSR set to: 15
   697                           ;mcc_generated_files/pin_manager.c: 108:     SLRCOND = 0xFF;
   698  000604  691E               	setf	30,b	;volatile
   699                           
   700                           ;mcc_generated_files/pin_manager.c: 109:     SLRCONE = 0x07;
   701  000606  0E07               	movlw	7
   702  000608  6F26               	movwf	38,b	;volatile
   703  00060A                     
   704                           ; BSR set to: 15
   705                           ;mcc_generated_files/pin_manager.c: 114:     INLVLA = 0xFF;
   706  00060A  6908               	setf	8,b	;volatile
   707  00060C                     
   708                           ; BSR set to: 15
   709                           ;mcc_generated_files/pin_manager.c: 115:     INLVLB = 0xFF;
   710  00060C  6910               	setf	16,b	;volatile
   711  00060E                     
   712                           ; BSR set to: 15
   713                           ;mcc_generated_files/pin_manager.c: 116:     INLVLC = 0xFF;
   714  00060E  6918               	setf	24,b	;volatile
   715  000610                     
   716                           ; BSR set to: 15
   717                           ;mcc_generated_files/pin_manager.c: 117:     INLVLD = 0xFF;
   718  000610  691D               	setf	29,b	;volatile
   719                           
   720                           ;mcc_generated_files/pin_manager.c: 118:     INLVLE = 0x0F;
   721  000612  0E0F               	movlw	15
   722  000614  6F25               	movwf	37,b	;volatile
   723                           
   724                           ;mcc_generated_files/pin_manager.c: 127:     RD0PPS = 0x0B;
   725  000616  0E0B               	movlw	11
   726  000618  010E               	movlb	14	; () banked
   727  00061A  6FFA               	movwf	250,b	;volatile
   728                           
   729                           ;mcc_generated_files/pin_manager.c: 128:     RX2PPS = 0x19;
   730  00061C  0E19               	movlw	25
   731  00061E  6F88               	movwf	136,b	;volatile
   732  000620                     
   733                           ; BSR set to: 14
   734  000620  0012               	return		;funcret
   735  000622                     __end_of_PIN_MANAGER_Initialize:
   736                           	callstack 0
   737                           
   738 ;; *************** function _OSCILLATOR_Initialize *****************
   739 ;; Defined at:
   740 ;;		line 59 in file "mcc_generated_files/mcc.c"
   741 ;; Parameters:    Size  Location     Type
   742 ;;		None
   743 ;; Auto vars:     Size  Location     Type
   744 ;;		None
   745 ;; Return value:  Size  Location     Type
   746 ;;                  1    wreg      void 
   747 ;; Registers used:
   748 ;;		wreg, status,2
   749 ;; Tracked objects:
   750 ;;		On entry : 0/0
   751 ;;		On exit  : 0/0
   752 ;;		Unchanged: 0/0
   753 ;; Data sizes:     COMRAM   BANK0   BANK1   BANK2   BANK3   BANK4   BANK5   BANK6   BANK7   BANK8   BANK9  BANK10  BANK1
      +1  BANK12  BANK14
   754 ;;      Params:         0       0       0       0       0       0       0       0       0       0       0       0       
      +0       0       0
   755 ;;      Locals:         0       0       0       0       0       0       0       0       0       0       0       0       
      +0       0       0
   756 ;;      Temps:          0       0       0       0       0       0       0       0       0       0       0       0       
      +0       0       0
   757 ;;      Totals:         0       0       0       0       0       0       0       0       0       0       0       0       
      +0       0       0
   758 ;;Total ram usage:        0 bytes
   759 ;; Hardware stack levels used: 1
   760 ;; This function calls:
   761 ;;		Nothing
   762 ;; This function is called by:
   763 ;;		_SYSTEM_Initialize
   764 ;; This function uses a non-reentrant model
   765 ;;
   766                           
   767                           	psect	text4
   768  000874                     __ptext4:
   769                           	callstack 0
   770  000874                     _OSCILLATOR_Initialize:
   771                           	callstack 29
   772  000874                     
   773                           ;mcc_generated_files/mcc.c: 62:     OSCCON1 = 0x60;
   774  000874  0E60               	movlw	96
   775  000876  010E               	movlb	14	; () banked
   776  000878  6FD3               	movwf	211,b	;volatile
   777                           
   778                           ;mcc_generated_files/mcc.c: 64:     OSCCON3 = 0x00;
   779  00087A  0E00               	movlw	0
   780  00087C  6FD5               	movwf	213,b	;volatile
   781                           
   782                           ;mcc_generated_files/mcc.c: 66:     OSCEN = 0x00;
   783  00087E  0E00               	movlw	0
   784  000880  6FD7               	movwf	215,b	;volatile
   785                           
   786                           ;mcc_generated_files/mcc.c: 68:     OSCFRQ = 0x08;
   787  000882  0E08               	movlw	8
   788  000884  6FD9               	movwf	217,b	;volatile
   789                           
   790                           ;mcc_generated_files/mcc.c: 70:     OSCTUNE = 0x00;
   791  000886  0E00               	movlw	0
   792  000888  6FD8               	movwf	216,b	;volatile
   793  00088A                     
   794                           ; BSR set to: 14
   795  00088A  0012               	return		;funcret
   796  00088C                     __end_of_OSCILLATOR_Initialize:
   797                           	callstack 0
   798                           
   799 ;; *************** function _EUSART2_Initialize *****************
   800 ;; Defined at:
   801 ;;		line 66 in file "mcc_generated_files/eusart2.c"
   802 ;; Parameters:    Size  Location     Type
   803 ;;		None
   804 ;; Auto vars:     Size  Location     Type
   805 ;;		None
   806 ;; Return value:  Size  Location     Type
   807 ;;                  1    wreg      void 
   808 ;; Registers used:
   809 ;;		wreg, status,2, status,0, cstack
   810 ;; Tracked objects:
   811 ;;		On entry : 0/0
   812 ;;		On exit  : 0/0
   813 ;;		Unchanged: 0/0
   814 ;; Data sizes:     COMRAM   BANK0   BANK1   BANK2   BANK3   BANK4   BANK5   BANK6   BANK7   BANK8   BANK9  BANK10  BANK1
      +1  BANK12  BANK14
   815 ;;      Params:         0       0       0       0       0       0       0       0       0       0       0       0       
      +0       0       0
   816 ;;      Locals:         0       0       0       0       0       0       0       0       0       0       0       0       
      +0       0       0
   817 ;;      Temps:          0       0       0       0       0       0       0       0       0       0       0       0       
      +0       0       0
   818 ;;      Totals:         0       0       0       0       0       0       0       0       0       0       0       0       
      +0       0       0
   819 ;;Total ram usage:        0 bytes
   820 ;; Hardware stack levels used: 1
   821 ;; Hardware stack levels required when called: 1
   822 ;; This function calls:
   823 ;;		_EUSART2_SetErrorHandler
   824 ;;		_EUSART2_SetFramingErrorHandler
   825 ;;		_EUSART2_SetOverrunErrorHandler
   826 ;; This function is called by:
   827 ;;		_SYSTEM_Initialize
   828 ;; This function uses a non-reentrant model
   829 ;;
   830                           
   831                           	psect	text5
   832  000754                     __ptext5:
   833                           	callstack 0
   834  000754                     _EUSART2_Initialize:
   835                           	callstack 28
   836  000754                     
   837                           ;mcc_generated_files/eusart2.c: 71:     BAUD2CON = 0x08;
   838  000754  0E08               	movlw	8
   839  000756  010E               	movlb	14	; () banked
   840  000758  6F9A               	movwf	154,b	;volatile
   841                           
   842                           ;mcc_generated_files/eusart2.c: 74:     RC2STA = 0x90;
   843  00075A  0E90               	movlw	144
   844  00075C  6F98               	movwf	152,b	;volatile
   845                           
   846                           ;mcc_generated_files/eusart2.c: 77:     TX2STA = 0x24;
   847  00075E  0E24               	movlw	36
   848  000760  6F99               	movwf	153,b	;volatile
   849                           
   850                           ;mcc_generated_files/eusart2.c: 80:     SP2BRGL = 0x82;
   851  000762  0E82               	movlw	130
   852  000764  6F96               	movwf	150,b	;volatile
   853                           
   854                           ;mcc_generated_files/eusart2.c: 83:     SP2BRGH = 0x06;
   855  000766  0E06               	movlw	6
   856  000768  6F97               	movwf	151,b	;volatile
   857  00076A                     
   858                           ; BSR set to: 14
   859                           ;mcc_generated_files/eusart2.c: 86:     EUSART2_SetFramingErrorHandler(EUSART2_DefaultFr
      +                          amingErrorHandler);
   860  00076A  0E00               	movlw	0
   861  00076C  6E02               	movwf	EUSART2_SetFramingErrorHandler@interruptHandler^0,c
   862  00076E  0E00               	movlw	0
   863  000770  6E03               	movwf	(EUSART2_SetFramingErrorHandler@interruptHandler+1)^0,c
   864  000772  0E00               	movlw	0
   865  000774  6E04               	movwf	(EUSART2_SetFramingErrorHandler@interruptHandler+2)^0,c
   866  000776  EC81  F004         	call	_EUSART2_SetFramingErrorHandler	;wreg free
   867  00077A                     
   868                           ;mcc_generated_files/eusart2.c: 87:     EUSART2_SetOverrunErrorHandler(EUSART2_DefaultOv
      +                          errunErrorHandler);
   869  00077A  0E00               	movlw	0
   870  00077C  6E02               	movwf	EUSART2_SetOverrunErrorHandler@interruptHandler^0,c
   871  00077E  0E00               	movlw	0
   872  000780  6E03               	movwf	(EUSART2_SetOverrunErrorHandler@interruptHandler+1)^0,c
   873  000782  0E00               	movlw	0
   874  000784  6E04               	movwf	(EUSART2_SetOverrunErrorHandler@interruptHandler+2)^0,c
   875  000786  EC7A  F004         	call	_EUSART2_SetOverrunErrorHandler	;wreg free
   876  00078A                     
   877                           ;mcc_generated_files/eusart2.c: 88:     EUSART2_SetErrorHandler(EUSART2_DefaultErrorHand
      +                          ler);
   878  00078A  0E00               	movlw	0
   879  00078C  6E02               	movwf	EUSART2_SetErrorHandler@interruptHandler^0,c
   880  00078E  0E00               	movlw	0
   881  000790  6E03               	movwf	(EUSART2_SetErrorHandler@interruptHandler+1)^0,c
   882  000792  0E00               	movlw	0
   883  000794  6E04               	movwf	(EUSART2_SetErrorHandler@interruptHandler+2)^0,c
   884  000796  EC88  F004         	call	_EUSART2_SetErrorHandler	;wreg free
   885  00079A                     
   886                           ;mcc_generated_files/eusart2.c: 90:     eusart2RxLastError.status = 0;
   887  00079A  0E00               	movlw	0
   888  00079C  6E38               	movwf	_eusart2RxLastError^0,c	;volatile
   889  00079E  0012               	return		;funcret
   890  0007A0                     __end_of_EUSART2_Initialize:
   891                           	callstack 0
   892                           
   893 ;; *************** function _EUSART2_SetOverrunErrorHandler *****************
   894 ;; Defined at:
   895 ;;		line 161 in file "mcc_generated_files/eusart2.c"
   896 ;; Parameters:    Size  Location     Type
   897 ;;  interruptHan    3    0[COMRAM] PTR FTN()void 
   898 ;;		 -> EUSART2_DefaultOverrunErrorHandler(1), 
   899 ;; Auto vars:     Size  Location     Type
   900 ;;		None
   901 ;; Return value:  Size  Location     Type
   902 ;;                  1    wreg      void 
   903 ;; Registers used:
   904 ;;		wreg, status,2, status,0
   905 ;; Tracked objects:
   906 ;;		On entry : 0/0
   907 ;;		On exit  : 0/0
   908 ;;		Unchanged: 0/0
   909 ;; Data sizes:     COMRAM   BANK0   BANK1   BANK2   BANK3   BANK4   BANK5   BANK6   BANK7   BANK8   BANK9  BANK10  BANK1
      +1  BANK12  BANK14
   910 ;;      Params:         3       0       0       0       0       0       0       0       0       0       0       0       
      +0       0       0
   911 ;;      Locals:         0       0       0       0       0       0       0       0       0       0       0       0       
      +0       0       0
   912 ;;      Temps:          0       0       0       0       0       0       0       0       0       0       0       0       
      +0       0       0
   913 ;;      Totals:         3       0       0       0       0       0       0       0       0       0       0       0       
      +0       0       0
   914 ;;Total ram usage:        3 bytes
   915 ;; Hardware stack levels used: 1
   916 ;; This function calls:
   917 ;;		Nothing
   918 ;; This function is called by:
   919 ;;		_EUSART2_Initialize
   920 ;; This function uses a non-reentrant model
   921 ;;
   922                           
   923                           	psect	text6
   924  0008F4                     __ptext6:
   925                           	callstack 0
   926  0008F4                     _EUSART2_SetOverrunErrorHandler:
   927                           	callstack 28
   928  0008F4                     
   929                           ;mcc_generated_files/eusart2.c: 162:     EUSART2_OverrunErrorHandler = interruptHandler;
   930  0008F4  C002  F02B         	movff	EUSART2_SetOverrunErrorHandler@interruptHandler,_EUSART2_OverrunErrorHandler
   931  0008F8  C003  F02C         	movff	EUSART2_SetOverrunErrorHandler@interruptHandler+1,_EUSART2_OverrunErrorHandler+1
   932  0008FC  C004  F02D         	movff	EUSART2_SetOverrunErrorHandler@interruptHandler+2,_EUSART2_OverrunErrorHandler+2
   933  000900  0012               	return		;funcret
   934  000902                     __end_of_EUSART2_SetOverrunErrorHandler:
   935                           	callstack 0
   936                           
   937 ;; *************** function _EUSART2_SetFramingErrorHandler *****************
   938 ;; Defined at:
   939 ;;		line 157 in file "mcc_generated_files/eusart2.c"
   940 ;; Parameters:    Size  Location     Type
   941 ;;  interruptHan    3    0[COMRAM] PTR FTN()void 
   942 ;;		 -> EUSART2_DefaultFramingErrorHandler(1), 
   943 ;; Auto vars:     Size  Location     Type
   944 ;;		None
   945 ;; Return value:  Size  Location     Type
   946 ;;                  1    wreg      void 
   947 ;; Registers used:
   948 ;;		wreg, status,2, status,0
   949 ;; Tracked objects:
   950 ;;		On entry : 0/0
   951 ;;		On exit  : 0/0
   952 ;;		Unchanged: 0/0
   953 ;; Data sizes:     COMRAM   BANK0   BANK1   BANK2   BANK3   BANK4   BANK5   BANK6   BANK7   BANK8   BANK9  BANK10  BANK1
      +1  BANK12  BANK14
   954 ;;      Params:         3       0       0       0       0       0       0       0       0       0       0       0       
      +0       0       0
   955 ;;      Locals:         0       0       0       0       0       0       0       0       0       0       0       0       
      +0       0       0
   956 ;;      Temps:          0       0       0       0       0       0       0       0       0       0       0       0       
      +0       0       0
   957 ;;      Totals:         3       0       0       0       0       0       0       0       0       0       0       0       
      +0       0       0
   958 ;;Total ram usage:        3 bytes
   959 ;; Hardware stack levels used: 1
   960 ;; This function calls:
   961 ;;		Nothing
   962 ;; This function is called by:
   963 ;;		_EUSART2_Initialize
   964 ;; This function uses a non-reentrant model
   965 ;;
   966                           
   967                           	psect	text7
   968  000902                     __ptext7:
   969                           	callstack 0
   970  000902                     _EUSART2_SetFramingErrorHandler:
   971                           	callstack 28
   972  000902                     
   973                           ;mcc_generated_files/eusart2.c: 158:     EUSART2_FramingErrorHandler = interruptHandler;
   974  000902  C002  F02E         	movff	EUSART2_SetFramingErrorHandler@interruptHandler,_EUSART2_FramingErrorHandler
   975  000906  C003  F02F         	movff	EUSART2_SetFramingErrorHandler@interruptHandler+1,_EUSART2_FramingErrorHandler+1
   976  00090A  C004  F030         	movff	EUSART2_SetFramingErrorHandler@interruptHandler+2,_EUSART2_FramingErrorHandler+2
   977  00090E  0012               	return		;funcret
   978  000910                     __end_of_EUSART2_SetFramingErrorHandler:
   979                           	callstack 0
   980                           
   981 ;; *************** function _EUSART2_SetErrorHandler *****************
   982 ;; Defined at:
   983 ;;		line 165 in file "mcc_generated_files/eusart2.c"
   984 ;; Parameters:    Size  Location     Type
   985 ;;  interruptHan    3    0[COMRAM] PTR FTN()void 
   986 ;;		 -> EUSART2_DefaultErrorHandler(1), 
   987 ;; Auto vars:     Size  Location     Type
   988 ;;		None
   989 ;; Return value:  Size  Location     Type
   990 ;;                  1    wreg      void 
   991 ;; Registers used:
   992 ;;		wreg, status,2, status,0
   993 ;; Tracked objects:
   994 ;;		On entry : 0/0
   995 ;;		On exit  : 0/0
   996 ;;		Unchanged: 0/0
   997 ;; Data sizes:     COMRAM   BANK0   BANK1   BANK2   BANK3   BANK4   BANK5   BANK6   BANK7   BANK8   BANK9  BANK10  BANK1
      +1  BANK12  BANK14
   998 ;;      Params:         3       0       0       0       0       0       0       0       0       0       0       0       
      +0       0       0
   999 ;;      Locals:         0       0       0       0       0       0       0       0       0       0       0       0       
      +0       0       0
  1000 ;;      Temps:          0       0       0       0       0       0       0       0       0       0       0       0       
      +0       0       0
  1001 ;;      Totals:         3       0       0       0       0       0       0       0       0       0       0       0       
      +0       0       0
  1002 ;;Total ram usage:        3 bytes
  1003 ;; Hardware stack levels used: 1
  1004 ;; This function calls:
  1005 ;;		Nothing
  1006 ;; This function is called by:
  1007 ;;		_EUSART2_Initialize
  1008 ;; This function uses a non-reentrant model
  1009 ;;
  1010                           
  1011                           	psect	text8
  1012  000910                     __ptext8:
  1013                           	callstack 0
  1014  000910                     _EUSART2_SetErrorHandler:
  1015                           	callstack 28
  1016  000910                     
  1017                           ;mcc_generated_files/eusart2.c: 166:     EUSART2_ErrorHandler = interruptHandler;
  1018  000910  C002  F028         	movff	EUSART2_SetErrorHandler@interruptHandler,_EUSART2_ErrorHandler
  1019  000914  C003  F029         	movff	EUSART2_SetErrorHandler@interruptHandler+1,_EUSART2_ErrorHandler+1
  1020  000918  C004  F02A         	movff	EUSART2_SetErrorHandler@interruptHandler+2,_EUSART2_ErrorHandler+2
  1021  00091C  0012               	return		;funcret
  1022  00091E                     __end_of_EUSART2_SetErrorHandler:
  1023                           	callstack 0
  1024                           
  1025 ;; *************** function _BOOTLOADER_Initialize *****************
  1026 ;; Defined at:
  1027 ;;		line 139 in file "mcc_generated_files/pic18f_bootload.c"
  1028 ;; Parameters:    Size  Location     Type
  1029 ;;		None
  1030 ;; Auto vars:     Size  Location     Type
  1031 ;;		None
  1032 ;; Return value:  Size  Location     Type
  1033 ;;                  1    wreg      void 
  1034 ;; Registers used:
  1035 ;;		wreg, fsr1l, fsr1h, fsr2l, fsr2h, status,2, status,0, cstack
  1036 ;; Tracked objects:
  1037 ;;		On entry : 0/0
  1038 ;;		On exit  : 0/0
  1039 ;;		Unchanged: 0/0
  1040 ;; Data sizes:     COMRAM   BANK0   BANK1   BANK2   BANK3   BANK4   BANK5   BANK6   BANK7   BANK8   BANK9  BANK10  BANK1
      +1  BANK12  BANK14
  1041 ;;      Params:         0       0       0       0       0       0       0       0       0       0       0       0       
      +0       0       0
  1042 ;;      Locals:         0       0       0       0       0       0       0       0       0       0       0       0       
      +0       0       0
  1043 ;;      Temps:          0       0       0       0       0       0       0       0       0       0       0       0       
      +0       0       0
  1044 ;;      Totals:         0       0       0       0       0       0       0       0       0       0       0       0       
      +0       0       0
  1045 ;;Total ram usage:        0 bytes
  1046 ;; Hardware stack levels used: 1
  1047 ;; Hardware stack levels required when called: 4
  1048 ;; This function calls:
  1049 ;;		_Bootload_Required
  1050 ;;		_Run_Bootloader
  1051 ;; This function is called by:
  1052 ;;		_SYSTEM_Initialize
  1053 ;; This function uses a non-reentrant model
  1054 ;;
  1055                           
  1056                           	psect	text9
  1057  0007DE                     __ptext9:
  1058                           	callstack 0
  1059  0007DE                     _BOOTLOADER_Initialize:
  1060                           	callstack 25
  1061  0007DE                     
  1062                           ;mcc_generated_files/pic18f_bootload.c: 141:     EE_Key_1 = 0;
  1063  0007DE  0E00               	movlw	0
  1064  0007E0  6E00               	movwf	0,c
  1065                           
  1066                           ;mcc_generated_files/pic18f_bootload.c: 142:     EE_Key_2 = 0;
  1067  0007E2  0E00               	movlw	0
  1068  0007E4  6E01               	movwf	1,c
  1069  0007E6                     
  1070                           ;mcc_generated_files/pic18f_bootload.c: 143:     LATAbits.LATA7 = 1;
  1071  0007E6  8E82               	bsf	130,7,c	;volatile
  1072  0007E8                     
  1073                           ;mcc_generated_files/pic18f_bootload.c: 144:     if (Bootload_Required () == 1)
  1074  0007E8  EC7F  F003         	call	_Bootload_Required	;wreg free
  1075  0007EC  06E8               	decf	wreg,f,c
  1076  0007EE  A4D8               	btfss	status,2,c
  1077  0007F0  EFFC  F003         	goto	u621
  1078  0007F4  EFFE  F003         	goto	u620
  1079  0007F8                     u621:
  1080  0007F8  EF00  F004         	goto	l1914
  1081  0007FC                     u620:
  1082  0007FC                     
  1083                           ;mcc_generated_files/pic18f_bootload.c: 145:     {;mcc_generated_files/pic18f_bootload.c
      +                          : 146:         Run_Bootloader ();
  1084  0007FC  EC10  F000         	call	_Run_Bootloader	;wreg free
  1085  000800                     l1914:
  1086                           
  1087                           ;mcc_generated_files/pic18f_bootload.c: 148:     STKPTR = 0x00;
  1088  000800  0E00               	movlw	0
  1089  000802  6EFC               	movwf	252,c	;volatile
  1090  000804                     
  1091                           ;mcc_generated_files/pic18f_bootload.c: 149:  BSR = 0x00;
  1092  000804  0E00               	movlw	0
  1093  000806  6EE0               	movwf	224,c	;volatile
  1094  000808                     
  1095                           ;mcc_generated_files/pic18f_bootload.c: 150:  LATAbits.LATA7 = 0;
  1096  000808  9E82               	bcf	130,7,c	;volatile
  1097  00080A  EF00 F005          	goto	2560	;# 
  1098  00080E  0012               	return		;funcret
  1099  000810                     __end_of_BOOTLOADER_Initialize:
  1100                           	callstack 0
  1101                           
  1102 ;; *************** function _Run_Bootloader *****************
  1103 ;; Defined at:
  1104 ;;		line 57 in file "mcc_generated_files/pic18f_uart.c"
  1105 ;; Parameters:    Size  Location     Type
  1106 ;;		None
  1107 ;; Auto vars:     Size  Location     Type
  1108 ;;  ch              1   33[COMRAM] unsigned char 
  1109 ;;  index           2   36[COMRAM] volatile unsigned short 
  1110 ;;  msg_length      2   34[COMRAM] unsigned short 
  1111 ;; Return value:  Size  Location     Type
  1112 ;;                  1    wreg      void 
  1113 ;; Registers used:
  1114 ;;		wreg, fsr1l, fsr1h, fsr2l, fsr2h, status,2, status,0, cstack
  1115 ;; Tracked objects:
  1116 ;;		On entry : 0/0
  1117 ;;		On exit  : 0/0
  1118 ;;		Unchanged: 0/0
  1119 ;; Data sizes:     COMRAM   BANK0   BANK1   BANK2   BANK3   BANK4   BANK5   BANK6   BANK7   BANK8   BANK9  BANK10  BANK1
      +1  BANK12  BANK14
  1120 ;;      Params:         0       0       0       0       0       0       0       0       0       0       0       0       
      +0       0       0
  1121 ;;      Locals:         5       0       0       0       0       0       0       0       0       0       0       0       
      +0       0       0
  1122 ;;      Temps:          1       0       0       0       0       0       0       0       0       0       0       0       
      +0       0       0
  1123 ;;      Totals:         6       0       0       0       0       0       0       0       0       0       0       0       
      +0       0       0
  1124 ;;Total ram usage:        6 bytes
  1125 ;; Hardware stack levels used: 1
  1126 ;; Hardware stack levels required when called: 3
  1127 ;; This function calls:
  1128 ;;		_Check_Device_Reset
  1129 ;;		_EUSART2_Read
  1130 ;;		_EUSART2_Write
  1131 ;;		_ProcessBootBuffer
  1132 ;; This function is called by:
  1133 ;;		_BOOTLOADER_Initialize
  1134 ;; This function uses a non-reentrant model
  1135 ;;
  1136                           
  1137                           	psect	text10
  1138  000020                     __ptext10:
  1139                           	callstack 0
  1140  000020                     _Run_Bootloader:
  1141                           	callstack 25
  1142  000020                     l146:
  1143  000020                     l147:
  1144  000020  010E               	movlb	14	; () banked
  1145  000022  A399               	btfss	153,1,b	;volatile
  1146  000024  EF16  F000         	goto	u531
  1147  000028  EF18  F000         	goto	u530
  1148  00002C                     u531:
  1149  00002C  EF10  F000         	goto	l147
  1150  000030                     u530:
  1151  000030                     
  1152                           ; BSR set to: 14
  1153                           ;mcc_generated_files/pic18f_uart.c: 66:         Check_Device_Reset ();
  1154  000030  EC5D  F004         	call	_Check_Device_Reset	;wreg free
  1155  000034                     
  1156                           ;mcc_generated_files/pic18f_uart.c: 71:         BAUDCTL2bits.ABDEN = 1;
  1157  000034  010E               	movlb	14	; () banked
  1158  000036  819A               	bsf	154,0,b	;volatile
  1159                           
  1160                           ;mcc_generated_files/pic18f_uart.c: 72:         while (BAUDCTL2bits.ABDEN == 1)
  1161  000038  EF28  F000         	goto	l150
  1162  00003C                     l151:
  1163                           
  1164                           ; BSR set to: 14
  1165                           ;mcc_generated_files/pic18f_uart.c: 73:         {;mcc_generated_files/pic18f_uart.c: 74:
      +                                       if (BAUDCTL2bits.ABDOVF == 1)
  1166  00003C  AF9A               	btfss	154,7,b	;volatile
  1167  00003E  EF23  F000         	goto	u541
  1168  000042  EF25  F000         	goto	u540
  1169  000046                     u541:
  1170  000046  EF28  F000         	goto	l150
  1171  00004A                     u540:
  1172  00004A                     
  1173                           ; BSR set to: 14
  1174                           ;mcc_generated_files/pic18f_uart.c: 75:             {;mcc_generated_files/pic18f_uart.c:
      +                           76:                 BAUDCTL2bits.ABDEN = 0;
  1175  00004A  919A               	bcf	154,0,b	;volatile
  1176                           
  1177                           ;mcc_generated_files/pic18f_uart.c: 77:                 BAUDCTL2bits.ABDOVF = 0;
  1178  00004C  9F9A               	bcf	154,7,b	;volatile
  1179                           
  1180                           ;mcc_generated_files/pic18f_uart.c: 78:                 BAUDCTL2bits.ABDEN = 1;
  1181  00004E  819A               	bsf	154,0,b	;volatile
  1182  000050                     l150:
  1183                           
  1184                           ; BSR set to: 14
  1185                           ;mcc_generated_files/pic18f_uart.c: 72:         while (BAUDCTL2bits.ABDEN == 1)
  1186  000050  B19A               	btfsc	154,0,b	;volatile
  1187  000052  EF2D  F000         	goto	u551
  1188  000056  EF2F  F000         	goto	u550
  1189  00005A                     u551:
  1190  00005A  EF1E  F000         	goto	l151
  1191  00005E                     u550:
  1192  00005E                     
  1193                           ; BSR set to: 14
  1194                           ;mcc_generated_files/pic18f_uart.c: 82:         index = EUSART2_Read();
  1195  00005E  EC08  F004         	call	_EUSART2_Read	;wreg free
  1196  000062  6E22               	movwf	??_Run_Bootloader^0,c
  1197  000064  5022               	movf	??_Run_Bootloader^0,w,c
  1198  000066  6E26               	movwf	Run_Bootloader@index^0,c	;volatile
  1199  000068  6A27               	clrf	(Run_Bootloader@index+1)^0,c	;volatile
  1200  00006A                     
  1201                           ;mcc_generated_files/pic18f_uart.c: 88:         index = 0;
  1202  00006A  0E00               	movlw	0
  1203  00006C  6E27               	movwf	(Run_Bootloader@index+1)^0,c	;volatile
  1204  00006E  0E00               	movlw	0
  1205  000070  6E26               	movwf	Run_Bootloader@index^0,c	;volatile
  1206  000072                     
  1207                           ;mcc_generated_files/pic18f_uart.c: 89:         msg_length = 9;
  1208  000072  0E00               	movlw	0
  1209  000074  6E25               	movwf	(Run_Bootloader@msg_length+1)^0,c
  1210  000076  0E09               	movlw	9
  1211  000078  6E24               	movwf	Run_Bootloader@msg_length^0,c
  1212                           
  1213                           ;mcc_generated_files/pic18f_uart.c: 90:         uint8_t ch;;mcc_generated_files/pic18f_u
      +                          art.c: 92:         while (index < msg_length)
  1214  00007A  EF78  F000         	goto	l1882
  1215  00007E                     l1866:
  1216                           
  1217                           ;mcc_generated_files/pic18f_uart.c: 93:         {;mcc_generated_files/pic18f_uart.c: 94:
      +                                       ch = EUSART2_Read();
  1218  00007E  EC08  F004         	call	_EUSART2_Read	;wreg free
  1219  000082  6E23               	movwf	Run_Bootloader@ch^0,c
  1220  000084                     
  1221                           ;mcc_generated_files/pic18f_uart.c: 95:             frame.buffer [index ++] = ch;
  1222  000084  0E60               	movlw	low _frame
  1223  000086  2426               	addwf	Run_Bootloader@index^0,w,c	;volatile
  1224  000088  6ED9               	movwf	fsr2l,c
  1225  00008A  0E00               	movlw	high _frame
  1226  00008C  2027               	addwfc	(Run_Bootloader@index+1)^0,w,c	;volatile
  1227  00008E  6EDA               	movwf	fsr2h,c
  1228  000090  C023  FFDF         	movff	Run_Bootloader@ch,indf2
  1229  000094  4A26               	infsnz	Run_Bootloader@index^0,f,c	;volatile
  1230  000096  2A27               	incf	(Run_Bootloader@index+1)^0,f,c	;volatile
  1231  000098                     
  1232                           ;mcc_generated_files/pic18f_uart.c: 96:             if (index == 4)
  1233  000098  0E04               	movlw	4
  1234  00009A  1826               	xorwf	Run_Bootloader@index^0,w,c	;volatile
  1235  00009C  1027               	iorwf	(Run_Bootloader@index+1)^0,w,c	;volatile
  1236  00009E  A4D8               	btfss	status,2,c
  1237  0000A0  EF54  F000         	goto	u561
  1238  0000A4  EF56  F000         	goto	u560
  1239  0000A8                     u561:
  1240  0000A8  EF78  F000         	goto	l1882
  1241  0000AC                     u560:
  1242  0000AC                     
  1243                           ;mcc_generated_files/pic18f_uart.c: 97:             {;mcc_generated_files/pic18f_uart.c:
      +                           98:                 if ((frame.command == 2)
  1244  0000AC  0E02               	movlw	2
  1245  0000AE  0100               	movlb	0	; () banked
  1246  0000B0  1960               	xorwf	_frame& (0+255),w,b
  1247  0000B2  B4D8               	btfsc	status,2,c
  1248  0000B4  EF5E  F000         	goto	u571
  1249  0000B8  EF60  F000         	goto	u570
  1250  0000BC                     u571:
  1251  0000BC  EF72  F000         	goto	l1880
  1252  0000C0                     u570:
  1253  0000C0                     
  1254                           ; BSR set to: 0
  1255  0000C0  0E05               	movlw	5
  1256  0000C2  1960               	xorwf	_frame& (0+255),w,b
  1257  0000C4  B4D8               	btfsc	status,2,c
  1258  0000C6  EF67  F000         	goto	u581
  1259  0000CA  EF69  F000         	goto	u580
  1260  0000CE                     u581:
  1261  0000CE  EF72  F000         	goto	l1880
  1262  0000D2                     u580:
  1263  0000D2                     
  1264                           ; BSR set to: 0
  1265  0000D2  0E07               	movlw	7
  1266  0000D4  1960               	xorwf	_frame& (0+255),w,b
  1267  0000D6  A4D8               	btfss	status,2,c
  1268  0000D8  EF70  F000         	goto	u591
  1269  0000DC  EF72  F000         	goto	u590
  1270  0000E0                     u591:
  1271  0000E0  EF78  F000         	goto	l1882
  1272  0000E4                     u590:
  1273  0000E4                     l1880:
  1274                           
  1275                           ; BSR set to: 0
  1276                           ;mcc_generated_files/pic18f_uart.c: 101:                 {;mcc_generated_files/pic18f_ua
      +                          rt.c: 102:                     msg_length += frame.data_length;
  1277  0000E4  EE20  F061         	lfsr	2,_frame+1
  1278  0000E8  50DE               	movf	postinc2,w,c
  1279  0000EA  2624               	addwf	Run_Bootloader@msg_length^0,f,c
  1280  0000EC  50DD               	movf	postdec2,w,c
  1281  0000EE  2225               	addwfc	(Run_Bootloader@msg_length+1)^0,f,c
  1282  0000F0                     l1882:
  1283                           
  1284                           ;mcc_generated_files/pic18f_uart.c: 92:         while (index < msg_length)
  1285  0000F0  5024               	movf	Run_Bootloader@msg_length^0,w,c
  1286  0000F2  5C26               	subwf	Run_Bootloader@index^0,w,c	;volatile
  1287  0000F4  5025               	movf	(Run_Bootloader@msg_length+1)^0,w,c
  1288  0000F6  5827               	subwfb	(Run_Bootloader@index+1)^0,w,c	;volatile
  1289  0000F8  A0D8               	btfss	status,0,c
  1290  0000FA  EF81  F000         	goto	u601
  1291  0000FE  EF83  F000         	goto	u600
  1292  000102                     u601:
  1293  000102  EF3F  F000         	goto	l1866
  1294  000106                     u600:
  1295  000106                     
  1296                           ;mcc_generated_files/pic18f_uart.c: 107:         msg_length = ProcessBootBuffer ();
  1297  000106  ECBF  F001         	call	_ProcessBootBuffer	;wreg free
  1298  00010A  C01C  F024         	movff	?_ProcessBootBuffer,Run_Bootloader@msg_length
  1299  00010E  C01D  F025         	movff	?_ProcessBootBuffer+1,Run_Bootloader@msg_length+1
  1300  000112                     
  1301                           ;mcc_generated_files/pic18f_uart.c: 112:         EUSART2_Write(0x55);
  1302  000112  0E55               	movlw	85
  1303  000114  EC46  F004         	call	_EUSART2_Write
  1304  000118                     
  1305                           ;mcc_generated_files/pic18f_uart.c: 113:         index = 0;
  1306  000118  0E00               	movlw	0
  1307  00011A  6E27               	movwf	(Run_Bootloader@index+1)^0,c	;volatile
  1308  00011C  0E00               	movlw	0
  1309  00011E  6E26               	movwf	Run_Bootloader@index^0,c	;volatile
  1310                           
  1311                           ;mcc_generated_files/pic18f_uart.c: 114:         while (index < msg_length)
  1312  000120  EF9D  F000         	goto	l1894
  1313  000124                     l1890:
  1314                           
  1315                           ;mcc_generated_files/pic18f_uart.c: 115:         {;mcc_generated_files/pic18f_uart.c: 11
      +                          6:             EUSART2_Write (frame.buffer [index++]);
  1316  000124  0E60               	movlw	low _frame
  1317  000126  2426               	addwf	Run_Bootloader@index^0,w,c	;volatile
  1318  000128  6ED9               	movwf	fsr2l,c
  1319  00012A  0E00               	movlw	high _frame
  1320  00012C  2027               	addwfc	(Run_Bootloader@index+1)^0,w,c	;volatile
  1321  00012E  6EDA               	movwf	fsr2h,c
  1322  000130  50DF               	movf	indf2,w,c
  1323  000132  EC46  F004         	call	_EUSART2_Write
  1324  000136  4A26               	infsnz	Run_Bootloader@index^0,f,c	;volatile
  1325  000138  2A27               	incf	(Run_Bootloader@index+1)^0,f,c	;volatile
  1326  00013A                     l1894:
  1327                           
  1328                           ;mcc_generated_files/pic18f_uart.c: 114:         while (index < msg_length)
  1329  00013A  5024               	movf	Run_Bootloader@msg_length^0,w,c
  1330  00013C  5C26               	subwf	Run_Bootloader@index^0,w,c	;volatile
  1331  00013E  5025               	movf	(Run_Bootloader@msg_length+1)^0,w,c
  1332  000140  5827               	subwfb	(Run_Bootloader@index+1)^0,w,c	;volatile
  1333  000142  A0D8               	btfss	status,0,c
  1334  000144  EFA6  F000         	goto	u611
  1335  000148  EFA8  F000         	goto	u610
  1336  00014C                     u611:
  1337  00014C  EF92  F000         	goto	l1890
  1338  000150                     u610:
  1339  000150  EF10  F000         	goto	l146
  1340  000154  0012               	return		;funcret
  1341  000156                     __end_of_Run_Bootloader:
  1342                           	callstack 0
  1343                           
  1344 ;; *************** function _ProcessBootBuffer *****************
  1345 ;; Defined at:
  1346 ;;		line 187 in file "mcc_generated_files/pic18f_bootload.c"
  1347 ;; Parameters:    Size  Location     Type
  1348 ;;		None
  1349 ;; Auto vars:     Size  Location     Type
  1350 ;;  len             2   30[COMRAM] unsigned short 
  1351 ;; Return value:  Size  Location     Type
  1352 ;;                  2   26[COMRAM] unsigned short 
  1353 ;; Registers used:
  1354 ;;		wreg, fsr1l, fsr1h, fsr2l, fsr2h, status,2, status,0, cstack
  1355 ;; Tracked objects:
  1356 ;;		On entry : 0/0
  1357 ;;		On exit  : 0/0
  1358 ;;		Unchanged: 0/0
  1359 ;; Data sizes:     COMRAM   BANK0   BANK1   BANK2   BANK3   BANK4   BANK5   BANK6   BANK7   BANK8   BANK9  BANK10  BANK1
      +1  BANK12  BANK14
  1360 ;;      Params:         2       0       0       0       0       0       0       0       0       0       0       0       
      +0       0       0
  1361 ;;      Locals:         2       0       0       0       0       0       0       0       0       0       0       0       
      +0       0       0
  1362 ;;      Temps:          2       0       0       0       0       0       0       0       0       0       0       0       
      +0       0       0
  1363 ;;      Totals:         6       0       0       0       0       0       0       0       0       0       0       0       
      +0       0       0
  1364 ;;Total ram usage:        6 bytes
  1365 ;; Hardware stack levels used: 1
  1366 ;; Hardware stack levels required when called: 2
  1367 ;; This function calls:
  1368 ;;		_Calc_Checksum
  1369 ;;		_Erase_Flash
  1370 ;;		_Get_Version_Data
  1371 ;;		_Read_Config
  1372 ;;		_Write_Config
  1373 ;;		_Write_Flash
  1374 ;; This function is called by:
  1375 ;;		_Run_Bootloader
  1376 ;; This function uses a non-reentrant model
  1377 ;;
  1378                           
  1379                           	psect	text11
  1380  00037E                     __ptext11:
  1381                           	callstack 0
  1382  00037E                     _ProcessBootBuffer:
  1383                           	callstack 25
  1384  00037E                     
  1385                           ;mcc_generated_files/pic18f_bootload.c: 189:     uint16_t len;;mcc_generated_files/pic18
      +                          f_bootload.c: 190:     EE_Key_1 = frame.EE_key_1;
  1386  00037E  C063  F000         	movff	_frame+3,0
  1387                           
  1388                           ;mcc_generated_files/pic18f_bootload.c: 191:     EE_Key_2 = frame.EE_key_2;
  1389  000382  C064  F001         	movff	_frame+4,1
  1390                           
  1391                           ;mcc_generated_files/pic18f_bootload.c: 194:     switch (frame.command)
  1392  000386  EF06  F002         	goto	l1842
  1393  00038A                     l1826:
  1394                           
  1395                           ; BSR set to: 0
  1396                           ;mcc_generated_files/pic18f_bootload.c: 197:         len = Get_Version_Data();
  1397  00038A  EC11  F003         	call	_Get_Version_Data	;wreg free
  1398  00038E  C002  F020         	movff	?_Get_Version_Data,ProcessBootBuffer@len
  1399  000392  C003  F021         	movff	?_Get_Version_Data+1,ProcessBootBuffer@len+1
  1400                           
  1401                           ;mcc_generated_files/pic18f_bootload.c: 198:         break;
  1402  000396  EF30  F002         	goto	l334
  1403  00039A                     l1828:
  1404                           
  1405                           ; BSR set to: 0
  1406                           ;mcc_generated_files/pic18f_bootload.c: 200:         len = Write_Flash();
  1407  00039A  ECAB  F000         	call	_Write_Flash	;wreg free
  1408  00039E  C007  F020         	movff	?_Write_Flash,ProcessBootBuffer@len
  1409  0003A2  C008  F021         	movff	?_Write_Flash+1,ProcessBootBuffer@len+1
  1410                           
  1411                           ;mcc_generated_files/pic18f_bootload.c: 201:         break;
  1412  0003A6  EF30  F002         	goto	l334
  1413  0003AA                     l1830:
  1414                           
  1415                           ; BSR set to: 0
  1416                           ;mcc_generated_files/pic18f_bootload.c: 203:         len = Erase_Flash();
  1417  0003AA  EC43  F001         	call	_Erase_Flash	;wreg free
  1418  0003AE  C002  F020         	movff	?_Erase_Flash,ProcessBootBuffer@len
  1419  0003B2  C003  F021         	movff	?_Erase_Flash+1,ProcessBootBuffer@len+1
  1420                           
  1421                           ;mcc_generated_files/pic18f_bootload.c: 204:         break;
  1422  0003B6  EF30  F002         	goto	l334
  1423  0003BA                     l1832:
  1424                           
  1425                           ; BSR set to: 0
  1426                           ;mcc_generated_files/pic18f_bootload.c: 206:         len = Read_Config();
  1427  0003BA  EC53  F003         	call	_Read_Config	;wreg free
  1428  0003BE  C002  F020         	movff	?_Read_Config,ProcessBootBuffer@len
  1429  0003C2  C003  F021         	movff	?_Read_Config+1,ProcessBootBuffer@len+1
  1430                           
  1431                           ;mcc_generated_files/pic18f_bootload.c: 207:         break;
  1432  0003C6  EF30  F002         	goto	l334
  1433  0003CA                     l1834:
  1434                           
  1435                           ; BSR set to: 0
  1436                           ;mcc_generated_files/pic18f_bootload.c: 209:         len = Write_Config();
  1437  0003CA  EC8B  F002         	call	_Write_Config	;wreg free
  1438  0003CE  C002  F020         	movff	?_Write_Config,ProcessBootBuffer@len
  1439  0003D2  C003  F021         	movff	?_Write_Config+1,ProcessBootBuffer@len+1
  1440                           
  1441                           ;mcc_generated_files/pic18f_bootload.c: 210:         break;
  1442  0003D6  EF30  F002         	goto	l334
  1443  0003DA                     l1836:
  1444                           
  1445                           ; BSR set to: 0
  1446                           ;mcc_generated_files/pic18f_bootload.c: 212:         len = Calc_Checksum();
  1447  0003DA  EC35  F002         	call	_Calc_Checksum	;wreg free
  1448  0003DE  C002  F020         	movff	?_Calc_Checksum,ProcessBootBuffer@len
  1449  0003E2  C003  F021         	movff	?_Calc_Checksum+1,ProcessBootBuffer@len+1
  1450                           
  1451                           ;mcc_generated_files/pic18f_bootload.c: 213:         break;
  1452  0003E6  EF30  F002         	goto	l334
  1453  0003EA                     l1838:
  1454                           
  1455                           ; BSR set to: 0
  1456                           ;mcc_generated_files/pic18f_bootload.c: 215:         frame.data[0] = 0x01;
  1457  0003EA  0E01               	movlw	1
  1458  0003EC  6F69               	movwf	(_frame+9)& (0+255),b
  1459                           
  1460                           ;mcc_generated_files/pic18f_bootload.c: 216:         reset_pending = 1;
  1461  0003EE  0E01               	movlw	1
  1462  0003F0  6E35               	movwf	_reset_pending^0,c
  1463                           
  1464                           ;mcc_generated_files/pic18f_bootload.c: 217:         len = 10;
  1465  0003F2  0E00               	movlw	0
  1466  0003F4  6E21               	movwf	(ProcessBootBuffer@len+1)^0,c
  1467  0003F6  0E0A               	movlw	10
  1468  0003F8  6E20               	movwf	ProcessBootBuffer@len^0,c
  1469                           
  1470                           ;mcc_generated_files/pic18f_bootload.c: 218:         break;
  1471  0003FA  EF30  F002         	goto	l334
  1472  0003FE                     l341:
  1473                           
  1474                           ; BSR set to: 0
  1475                           ;mcc_generated_files/pic18f_bootload.c: 220:         frame.data[0] = 0xFF;
  1476  0003FE  6969               	setf	(_frame+9)& (0+255),b
  1477  000400                     
  1478                           ; BSR set to: 0
  1479                           ;mcc_generated_files/pic18f_bootload.c: 221:         len = 10;
  1480  000400  0E00               	movlw	0
  1481  000402  6E21               	movwf	(ProcessBootBuffer@len+1)^0,c
  1482  000404  0E0A               	movlw	10
  1483  000406  6E20               	movwf	ProcessBootBuffer@len^0,c
  1484                           
  1485                           ;mcc_generated_files/pic18f_bootload.c: 222:     }
  1486  000408  EF30  F002         	goto	l334
  1487  00040C                     l1842:
  1488  00040C  0100               	movlb	0	; () banked
  1489  00040E  5160               	movf	_frame& (0+255),w,b
  1490  000410  6E1E               	movwf	??_ProcessBootBuffer^0,c
  1491  000412  6A1F               	clrf	(??_ProcessBootBuffer+1)^0,c
  1492                           
  1493                           ; Switch on 2 bytes has been partitioned into a top level switch of size 1, and 1 sub-sw
      +                          itches
  1494                           ; Switch size 1, requested type "simple"
  1495                           ; Number of cases is 1, Range of values is 0 to 0
  1496                           ; switch strategies available:
  1497                           ; Name         Instructions Cycles
  1498                           ; simple_byte            4     3 (average)
  1499                           ;	Chosen strategy is simple_byte
  1500  000414  501F               	movf	(??_ProcessBootBuffer+1)^0,w,c
  1501  000416  0A00               	xorlw	0	; case 0
  1502  000418  B4D8               	btfsc	status,2,c
  1503  00041A  EF11  F002         	goto	l1958
  1504  00041E  EFFF  F001         	goto	l341
  1505  000422                     l1958:
  1506                           
  1507                           ; BSR set to: 0
  1508                           ; Switch size 1, requested type "simple"
  1509                           ; Number of cases is 7, Range of values is 0 to 9
  1510                           ; switch strategies available:
  1511                           ; Name         Instructions Cycles
  1512                           ; simple_byte           22    12 (average)
  1513                           ;	Chosen strategy is simple_byte
  1514  000422  501E               	movf	??_ProcessBootBuffer^0,w,c
  1515  000424  0A00               	xorlw	0	; case 0
  1516  000426  B4D8               	btfsc	status,2,c
  1517  000428  EFC5  F001         	goto	l1826
  1518  00042C  0A02               	xorlw	2	; case 2
  1519  00042E  B4D8               	btfsc	status,2,c
  1520  000430  EFCD  F001         	goto	l1828
  1521  000434  0A01               	xorlw	1	; case 3
  1522  000436  B4D8               	btfsc	status,2,c
  1523  000438  EFD5  F001         	goto	l1830
  1524  00043C  0A05               	xorlw	5	; case 6
  1525  00043E  B4D8               	btfsc	status,2,c
  1526  000440  EFDD  F001         	goto	l1832
  1527  000444  0A01               	xorlw	1	; case 7
  1528  000446  B4D8               	btfsc	status,2,c
  1529  000448  EFE5  F001         	goto	l1834
  1530  00044C  0A0F               	xorlw	15	; case 8
  1531  00044E  B4D8               	btfsc	status,2,c
  1532  000450  EFED  F001         	goto	l1836
  1533  000454  0A01               	xorlw	1	; case 9
  1534  000456  B4D8               	btfsc	status,2,c
  1535  000458  EFF5  F001         	goto	l1838
  1536  00045C  EFFF  F001         	goto	l341
  1537  000460                     l334:
  1538                           
  1539                           ;mcc_generated_files/pic18f_bootload.c: 223:     return (len);
  1540  000460  C020  F01C         	movff	ProcessBootBuffer@len,?_ProcessBootBuffer
  1541  000464  C021  F01D         	movff	ProcessBootBuffer@len+1,?_ProcessBootBuffer+1
  1542  000468  0012               	return		;funcret
  1543  00046A                     __end_of_ProcessBootBuffer:
  1544                           	callstack 0
  1545                           
  1546 ;; *************** function _Write_Flash *****************
  1547 ;; Defined at:
  1548 ;;		line 277 in file "mcc_generated_files/pic18f_bootload.c"
  1549 ;; Parameters:    Size  Location     Type
  1550 ;;		None
  1551 ;; Auto vars:     Size  Location     Type
  1552 ;;  i               2   24[COMRAM] unsigned short 
  1553 ;;  address         4   20[COMRAM] unsigned long 
  1554 ;;  GIEBitValue     1   19[COMRAM] unsigned char 
  1555 ;; Return value:  Size  Location     Type
  1556 ;;                  2    5[COMRAM] unsigned short 
  1557 ;; Registers used:
  1558 ;;		wreg, fsr1l, fsr1h, fsr2l, fsr2h, status,2, status,0, cstack
  1559 ;; Tracked objects:
  1560 ;;		On entry : 0/0
  1561 ;;		On exit  : 0/0
  1562 ;;		Unchanged: 0/0
  1563 ;; Data sizes:     COMRAM   BANK0   BANK1   BANK2   BANK3   BANK4   BANK5   BANK6   BANK7   BANK8   BANK9  BANK10  BANK1
      +1  BANK12  BANK14
  1564 ;;      Params:         2       0       0       0       0       0       0       0       0       0       0       0       
      +0       0       0
  1565 ;;      Locals:         7       0       0       0       0       0       0       0       0       0       0       0       
      +0       0       0
  1566 ;;      Temps:         12       0       0       0       0       0       0       0       0       0       0       0       
      +0       0       0
  1567 ;;      Totals:        21       0       0       0       0       0       0       0       0       0       0       0       
      +0       0       0
  1568 ;;Total ram usage:       21 bytes
  1569 ;; Hardware stack levels used: 1
  1570 ;; Hardware stack levels required when called: 1
  1571 ;; This function calls:
  1572 ;;		_FLASH_ReadSector
  1573 ;;		_StartWrite
  1574 ;; This function is called by:
  1575 ;;		_ProcessBootBuffer
  1576 ;; This function uses a non-reentrant model
  1577 ;;
  1578                           
  1579                           	psect	text12
  1580  000156                     __ptext12:
  1581                           	callstack 0
  1582  000156                     _Write_Flash:
  1583                           	callstack 25
  1584  000156                     
  1585                           ;mcc_generated_files/pic18f_bootload.c: 279:     uint32_t address;;mcc_generated_files/p
      +                          ic18f_bootload.c: 280:  uint8_t GIEBitValue = INTCONbits.GIE;
  1586  000156  0E00               	movlw	0
  1587  000158  BEF2               	btfsc	242,7,c	;volatile
  1588  00015A  0E01               	movlw	1
  1589  00015C  6E15               	movwf	Write_Flash@GIEBitValue^0,c
  1590  00015E                     
  1591                           ;mcc_generated_files/pic18f_bootload.c: 282:     address = (((uint32_t)frame.address_U) 
      +                          << 16)
  1592  00015E  C066  F009         	movff	_frame+6,??_Write_Flash
  1593  000162  6A0A               	clrf	(??_Write_Flash+1)^0,c
  1594  000164  6A0B               	clrf	(??_Write_Flash+2)^0,c
  1595  000166  6A0C               	clrf	(??_Write_Flash+3)^0,c
  1596  000168  C00B  F00C         	movff	??_Write_Flash+2,??_Write_Flash+3
  1597  00016C  C00A  F00B         	movff	??_Write_Flash+1,??_Write_Flash+2
  1598  000170  C009  F00A         	movff	??_Write_Flash,??_Write_Flash+1
  1599  000174  6A09               	clrf	??_Write_Flash^0,c
  1600  000176  C067  F00D         	movff	_frame+7,??_Write_Flash+4
  1601  00017A  6A0E               	clrf	(??_Write_Flash+5)^0,c
  1602  00017C  6A0F               	clrf	(??_Write_Flash+6)^0,c
  1603  00017E  6A10               	clrf	(??_Write_Flash+7)^0,c
  1604  000180  C00E  F010         	movff	??_Write_Flash+5,??_Write_Flash+7
  1605  000184  C00D  F00F         	movff	??_Write_Flash+4,??_Write_Flash+6
  1606  000188  6A0E               	clrf	(??_Write_Flash+5)^0,c
  1607  00018A  6A0D               	clrf	(??_Write_Flash+4)^0,c
  1608  00018C  5009               	movf	??_Write_Flash^0,w,c
  1609  00018E  240D               	addwf	(??_Write_Flash+4)^0,w,c
  1610  000190  6E11               	movwf	(??_Write_Flash+8)^0,c
  1611  000192  500A               	movf	(??_Write_Flash+1)^0,w,c
  1612  000194  200E               	addwfc	(??_Write_Flash+5)^0,w,c
  1613  000196  6E12               	movwf	(??_Write_Flash+9)^0,c
  1614  000198  500B               	movf	(??_Write_Flash+2)^0,w,c
  1615  00019A  200F               	addwfc	(??_Write_Flash+6)^0,w,c
  1616  00019C  6E13               	movwf	(??_Write_Flash+10)^0,c
  1617  00019E  500C               	movf	(??_Write_Flash+3)^0,w,c
  1618  0001A0  2010               	addwfc	(??_Write_Flash+7)^0,w,c
  1619  0001A2  6E14               	movwf	(??_Write_Flash+11)^0,c
  1620  0001A4  0100               	movlb	0	; () banked
  1621  0001A6  5165               	movf	(_frame+5)& (0+255),w,b
  1622  0001A8  2411               	addwf	(??_Write_Flash+8)^0,w,c
  1623  0001AA  6E16               	movwf	Write_Flash@address^0,c
  1624  0001AC  0E00               	movlw	0
  1625  0001AE  2012               	addwfc	(??_Write_Flash+9)^0,w,c
  1626  0001B0  6E17               	movwf	(Write_Flash@address+1)^0,c
  1627  0001B2  0E00               	movlw	0
  1628  0001B4  2013               	addwfc	(??_Write_Flash+10)^0,w,c
  1629  0001B6  6E18               	movwf	(Write_Flash@address+2)^0,c
  1630  0001B8  0E00               	movlw	0
  1631  0001BA  2014               	addwfc	(??_Write_Flash+11)^0,w,c
  1632  0001BC  6E19               	movwf	(Write_Flash@address+3)^0,c
  1633  0001BE                     
  1634                           ; BSR set to: 0
  1635                           ;mcc_generated_files/pic18f_bootload.c: 285:     if (address < 0xa00)
  1636  0001BE  5019               	movf	(Write_Flash@address+3)^0,w,c
  1637  0001C0  1018               	iorwf	(Write_Flash@address+2)^0,w,c
  1638  0001C2  E107               	bnz	u441
  1639  0001C4  0E0A               	movlw	10
  1640  0001C6  5C17               	subwf	(Write_Flash@address+1)^0,w,c
  1641  0001C8  B0D8               	btfsc	status,0,c
  1642  0001CA  EFE9  F000         	goto	u441
  1643  0001CE  EFEB  F000         	goto	u440
  1644  0001D2                     u441:
  1645  0001D2  EFF3  F000         	goto	l1710
  1646  0001D6                     u440:
  1647  0001D6                     
  1648                           ; BSR set to: 0
  1649                           ;mcc_generated_files/pic18f_bootload.c: 286:     {;mcc_generated_files/pic18f_bootload.c
      +                          : 287:         frame.data[0] = 0xFE;
  1650  0001D6  0EFE               	movlw	254
  1651  0001D8  6F69               	movwf	(_frame+9)& (0+255),b
  1652                           
  1653                           ;mcc_generated_files/pic18f_bootload.c: 288:         return (10);
  1654  0001DA  0E00               	movlw	0
  1655  0001DC  6E08               	movwf	(?_Write_Flash+1)^0,c
  1656  0001DE  0E0A               	movlw	10
  1657  0001E0  6E07               	movwf	?_Write_Flash^0,c
  1658  0001E2  EF42  F001         	goto	l353
  1659  0001E6                     l1710:
  1660                           
  1661                           ; BSR set to: 0
  1662                           ;mcc_generated_files/pic18f_bootload.c: 290:     FLASH_ReadSector(address);
  1663  0001E6  C016  F002         	movff	Write_Flash@address,FLASH_ReadSector@flashAddr
  1664  0001EA  C017  F003         	movff	Write_Flash@address+1,FLASH_ReadSector@flashAddr+1
  1665  0001EE  C018  F004         	movff	Write_Flash@address+2,FLASH_ReadSector@flashAddr+2
  1666  0001F2  C019  F005         	movff	Write_Flash@address+3,FLASH_ReadSector@flashAddr+3
  1667  0001F6  ECD0  F003         	call	_FLASH_ReadSector	;wreg free
  1668  0001FA                     
  1669                           ;mcc_generated_files/pic18f_bootload.c: 292:     for (uint16_t i = 0; i < frame.data_len
      +                          gth; i ++)
  1670  0001FA  0E00               	movlw	0
  1671  0001FC  6E1B               	movwf	(Write_Flash@i+1)^0,c
  1672  0001FE  0E00               	movlw	0
  1673  000200  6E1A               	movwf	Write_Flash@i^0,c
  1674  000202  EF1B  F001         	goto	l1718
  1675  000206                     l1714:
  1676                           
  1677                           ; BSR set to: 0
  1678                           ;mcc_generated_files/pic18f_bootload.c: 293:     {;mcc_generated_files/pic18f_bootload.c
      +                          : 294:         PFM_Buffer [frame.address_L + i] = frame.data[i];
  1679  000206  0E69               	movlw	low (_frame+9)
  1680  000208  241A               	addwf	Write_Flash@i^0,w,c
  1681  00020A  6ED9               	movwf	fsr2l,c
  1682  00020C  0E00               	movlw	high (_frame+9)
  1683  00020E  201B               	addwfc	(Write_Flash@i+1)^0,w,c
  1684  000210  6EDA               	movwf	fsr2h,c
  1685  000212  0E00               	movlw	0
  1686  000214  6E09               	movwf	??_Write_Flash^0,c
  1687  000216  0E0D               	movlw	13
  1688  000218  6E0A               	movwf	(??_Write_Flash+1)^0,c
  1689  00021A  5165               	movf	(_frame+5)& (0+255),w,b
  1690  00021C  2609               	addwf	??_Write_Flash^0,f,c
  1691  00021E  0E00               	movlw	0
  1692  000220  220A               	addwfc	(??_Write_Flash+1)^0,f,c
  1693  000222  501A               	movf	Write_Flash@i^0,w,c
  1694  000224  2409               	addwf	??_Write_Flash^0,w,c
  1695  000226  6EE1               	movwf	fsr1l,c
  1696  000228  501B               	movf	(Write_Flash@i+1)^0,w,c
  1697  00022A  200A               	addwfc	(??_Write_Flash+1)^0,w,c
  1698  00022C  6EE2               	movwf	fsr1h,c
  1699  00022E  CFDF FFE7          	movff	indf2,indf1
  1700  000232                     
  1701                           ; BSR set to: 0
  1702                           ;mcc_generated_files/pic18f_bootload.c: 295:     }
  1703  000232  4A1A               	infsnz	Write_Flash@i^0,f,c
  1704  000234  2A1B               	incf	(Write_Flash@i+1)^0,f,c
  1705  000236                     l1718:
  1706  000236  0100               	movlb	0	; () banked
  1707  000238  5161               	movf	(_frame+1)& (0+255),w,b
  1708  00023A  5C1A               	subwf	Write_Flash@i^0,w,c
  1709  00023C  5162               	movf	(_frame+2)& (0+255),w,b
  1710  00023E  581B               	subwfb	(Write_Flash@i+1)^0,w,c
  1711  000240  A0D8               	btfss	status,0,c
  1712  000242  EF25  F001         	goto	u451
  1713  000246  EF27  F001         	goto	u450
  1714  00024A                     u451:
  1715  00024A  EF03  F001         	goto	l1714
  1716  00024E                     u450:
  1717  00024E                     
  1718                           ; BSR set to: 0
  1719                           ;mcc_generated_files/pic18f_bootload.c: 297:     NVMADRU = frame.address_U;
  1720  00024E  C067  FF7B         	movff	_frame+7,3963	;volatile
  1721                           
  1722                           ;mcc_generated_files/pic18f_bootload.c: 298:     NVMADRH = frame.address_H;
  1723  000252  C066  FF7A         	movff	_frame+6,3962	;volatile
  1724                           
  1725                           ;mcc_generated_files/pic18f_bootload.c: 299:     NVMADRL = frame.address_L;
  1726  000256  C065  FF79         	movff	_frame+5,3961	;volatile
  1727                           
  1728                           ;mcc_generated_files/pic18f_bootload.c: 302:     NVMCON0bits.NVMEN = 1;
  1729  00025A  8E7F               	bsf	127,7,c	;volatile
  1730                           
  1731                           ;mcc_generated_files/pic18f_bootload.c: 305:     INTCONbits.GIE = 0;
  1732  00025C  9EF2               	bcf	242,7,c	;volatile
  1733  00025E                     
  1734                           ; BSR set to: 0
  1735                           ;mcc_generated_files/pic18f_bootload.c: 308:     StartWrite();
  1736  00025E  EC68  F004         	call	_StartWrite	;wreg free
  1737  000262                     
  1738                           ;mcc_generated_files/pic18f_bootload.c: 311:     INTCONbits.GIE = GIEBitValue;
  1739  000262  B015               	btfsc	Write_Flash@GIEBitValue^0,0,c
  1740  000264  D002               	bra	u465
  1741  000266  9EF2               	bcf	242,7,c	;volatile
  1742  000268  D001               	bra	u466
  1743  00026A                     u465:
  1744  00026A  8EF2               	bsf	242,7,c	;volatile
  1745  00026C                     u466:
  1746  00026C                     
  1747                           ;mcc_generated_files/pic18f_bootload.c: 314:  NVMCON0bits.NVMEN = 0;
  1748  00026C  9E7F               	bcf	127,7,c	;volatile
  1749  00026E                     
  1750                           ;mcc_generated_files/pic18f_bootload.c: 316:     frame.data[0] = 0x01;
  1751  00026E  0E01               	movlw	1
  1752  000270  0100               	movlb	0	; () banked
  1753  000272  6F69               	movwf	(_frame+9)& (0+255),b
  1754  000274                     
  1755                           ; BSR set to: 0
  1756                           ;mcc_generated_files/pic18f_bootload.c: 317:     EE_Key_1 = 0x00;
  1757  000274  0E00               	movlw	0
  1758  000276  6E00               	movwf	0,c
  1759  000278                     
  1760                           ; BSR set to: 0
  1761                           ;mcc_generated_files/pic18f_bootload.c: 318:     EE_Key_2 = 0x00;
  1762  000278  0E00               	movlw	0
  1763  00027A  6E01               	movwf	1,c
  1764  00027C                     
  1765                           ; BSR set to: 0
  1766                           ;mcc_generated_files/pic18f_bootload.c: 319:     return (10);
  1767  00027C  0E00               	movlw	0
  1768  00027E  6E08               	movwf	(?_Write_Flash+1)^0,c
  1769  000280  0E0A               	movlw	10
  1770  000282  6E07               	movwf	?_Write_Flash^0,c
  1771  000284                     l353:
  1772                           
  1773                           ; BSR set to: 0
  1774  000284  0012               	return		;funcret
  1775  000286                     __end_of_Write_Flash:
  1776                           	callstack 0
  1777                           
  1778 ;; *************** function _FLASH_ReadSector *****************
  1779 ;; Defined at:
  1780 ;;		line 86 in file "mcc_generated_files/memory.c"
  1781 ;; Parameters:    Size  Location     Type
  1782 ;;  flashAddr       4    0[COMRAM] unsigned long 
  1783 ;; Auto vars:     Size  Location     Type
  1784 ;;  GIEBitValue     1    4[COMRAM] unsigned char 
  1785 ;; Return value:  Size  Location     Type
  1786 ;;                  1    wreg      void 
  1787 ;; Registers used:
  1788 ;;		wreg, status,2
  1789 ;; Tracked objects:
  1790 ;;		On entry : 0/0
  1791 ;;		On exit  : 0/0
  1792 ;;		Unchanged: 0/0
  1793 ;; Data sizes:     COMRAM   BANK0   BANK1   BANK2   BANK3   BANK4   BANK5   BANK6   BANK7   BANK8   BANK9  BANK10  BANK1
      +1  BANK12  BANK14
  1794 ;;      Params:         4       0       0       0       0       0       0       0       0       0       0       0       
      +0       0       0
  1795 ;;      Locals:         1       0       0       0       0       0       0       0       0       0       0       0       
      +0       0       0
  1796 ;;      Temps:          0       0       0       0       0       0       0       0       0       0       0       0       
      +0       0       0
  1797 ;;      Totals:         5       0       0       0       0       0       0       0       0       0       0       0       
      +0       0       0
  1798 ;;Total ram usage:        5 bytes
  1799 ;; Hardware stack levels used: 1
  1800 ;; This function calls:
  1801 ;;		Nothing
  1802 ;; This function is called by:
  1803 ;;		_Write_Flash
  1804 ;;		_FLASH_WriteWord
  1805 ;; This function uses a non-reentrant model
  1806 ;;
  1807                           
  1808                           	psect	text13
  1809  0007A0                     __ptext13:
  1810                           	callstack 0
  1811  0007A0                     _FLASH_ReadSector:
  1812                           	callstack 25
  1813  0007A0                     
  1814                           ;mcc_generated_files/memory.c: 86: void FLASH_ReadSector(uint32_t flashAddr);mcc_generat
      +                          ed_files/memory.c: 87: {;mcc_generated_files/memory.c: 88:     uint8_t GIEBitValue = INT
      +                          CONbits.GIE;
  1815  0007A0  0E00               	movlw	0
  1816  0007A2  BEF2               	btfsc	242,7,c	;volatile
  1817  0007A4  0E01               	movlw	1
  1818  0007A6  6E06               	movwf	FLASH_ReadSector@GIEBitValue^0,c
  1819  0007A8                     
  1820                           ;mcc_generated_files/memory.c: 91:     NVMCON0bits.NVMEN = 1;
  1821  0007A8  8E7F               	bsf	127,7,c	;volatile
  1822  0007AA                     
  1823                           ;mcc_generated_files/memory.c: 94:     NVMADRU = (uint8_t) ((flashAddr & 0x00FF0000) >> 
      +                          16);
  1824  0007AA  C004  FF7B         	movff	FLASH_ReadSector@flashAddr+2,3963	;volatile
  1825  0007AE                     
  1826                           ;mcc_generated_files/memory.c: 95:     NVMADRH = (uint8_t) ((flashAddr & 0x0000FF00) >> 
      +                          8);
  1827  0007AE  C003  FF7A         	movff	FLASH_ReadSector@flashAddr+1,3962	;volatile
  1828  0007B2                     
  1829                           ;mcc_generated_files/memory.c: 96:     NVMADRL = (uint8_t) (flashAddr & 0x000000FF);
  1830  0007B2  C002  FF79         	movff	FLASH_ReadSector@flashAddr,3961	;volatile
  1831  0007B6                     
  1832                           ;mcc_generated_files/memory.c: 99:     INTCONbits.GIE = 0;
  1833  0007B6  9EF2               	bcf	242,7,c	;volatile
  1834  0007B8                     
  1835                           ;mcc_generated_files/memory.c: 102:     NVMCON2 = 0xBB;
  1836  0007B8  0EBB               	movlw	187
  1837  0007BA  6E81               	movwf	129,c	;volsfr
  1838  0007BC                     
  1839                           ;mcc_generated_files/memory.c: 103:     NVMCON2 = 0x44;
  1840  0007BC  0E44               	movlw	68
  1841  0007BE  6E81               	movwf	129,c	;volsfr
  1842  0007C0                     
  1843                           ;mcc_generated_files/memory.c: 106:     NVMCON1bits.SECRD = 1;
  1844  0007C0  8280               	bsf	128,1,c	;volsfr
  1845  0007C2                     l210:
  1846  0007C2  B280               	btfsc	128,1,c	;volsfr
  1847  0007C4  EFE6  F003         	goto	u411
  1848  0007C8  EFE8  F003         	goto	u410
  1849  0007CC                     u411:
  1850  0007CC  EFE1  F003         	goto	l210
  1851  0007D0                     u410:
  1852  0007D0                     
  1853                           ;mcc_generated_files/memory.c: 110:     INTCONbits.GIE = GIEBitValue;
  1854  0007D0  B006               	btfsc	FLASH_ReadSector@GIEBitValue^0,0,c
  1855  0007D2  D002               	bra	u425
  1856  0007D4  9EF2               	bcf	242,7,c	;volatile
  1857  0007D6  D001               	bra	u426
  1858  0007D8                     u425:
  1859  0007D8  8EF2               	bsf	242,7,c	;volatile
  1860  0007DA                     u426:
  1861                           
  1862                           ;mcc_generated_files/memory.c: 113:     NVMCON0bits.NVMEN = 0;
  1863  0007DA  9E7F               	bcf	127,7,c	;volatile
  1864  0007DC  0012               	return		;funcret
  1865  0007DE                     __end_of_FLASH_ReadSector:
  1866                           	callstack 0
  1867                           
  1868 ;; *************** function _Write_Config *****************
  1869 ;; Defined at:
  1870 ;;		line 400 in file "mcc_generated_files/pic18f_bootload.c"
  1871 ;; Parameters:    Size  Location     Type
  1872 ;;		None
  1873 ;; Auto vars:     Size  Location     Type
  1874 ;;  i               1    4[COMRAM] unsigned char 
  1875 ;; Return value:  Size  Location     Type
  1876 ;;                  2    0[COMRAM] unsigned short 
  1877 ;; Registers used:
  1878 ;;		wreg, fsr2l, fsr2h, status,2, status,0, cstack
  1879 ;; Tracked objects:
  1880 ;;		On entry : 0/0
  1881 ;;		On exit  : 0/0
  1882 ;;		Unchanged: 0/0
  1883 ;; Data sizes:     COMRAM   BANK0   BANK1   BANK2   BANK3   BANK4   BANK5   BANK6   BANK7   BANK8   BANK9  BANK10  BANK1
      +1  BANK12  BANK14
  1884 ;;      Params:         2       0       0       0       0       0       0       0       0       0       0       0       
      +0       0       0
  1885 ;;      Locals:         1       0       0       0       0       0       0       0       0       0       0       0       
      +0       0       0
  1886 ;;      Temps:          2       0       0       0       0       0       0       0       0       0       0       0       
      +0       0       0
  1887 ;;      Totals:         5       0       0       0       0       0       0       0       0       0       0       0       
      +0       0       0
  1888 ;;Total ram usage:        5 bytes
  1889 ;; Hardware stack levels used: 1
  1890 ;; Hardware stack levels required when called: 1
  1891 ;; This function calls:
  1892 ;;		_StartWrite
  1893 ;; This function is called by:
  1894 ;;		_ProcessBootBuffer
  1895 ;; This function uses a non-reentrant model
  1896 ;;
  1897                           
  1898                           	psect	text14
  1899  000516                     __ptext14:
  1900                           	callstack 0
  1901  000516                     _Write_Config:
  1902                           	callstack 25
  1903  000516                     
  1904                           ;mcc_generated_files/pic18f_bootload.c: 402:     TBLPTRL = frame.address_L;
  1905  000516  C065  FFF6         	movff	_frame+5,tblptrl	;volatile
  1906                           
  1907                           ;mcc_generated_files/pic18f_bootload.c: 403:     TBLPTRH = frame.address_H;
  1908  00051A  C066  FFF7         	movff	_frame+6,tblptrh	;volatile
  1909                           
  1910                           ;mcc_generated_files/pic18f_bootload.c: 404:     TBLPTRU = frame.address_U;
  1911  00051E  C067  FFF8         	movff	_frame+7,tblptru	;volatile
  1912  000522                     
  1913                           ;mcc_generated_files/pic18f_bootload.c: 405:     if (TBLPTR > 0x20000F)
  1914  000522  0E10               	movlw	16
  1915  000524  5CF6               	subwf	246,w,c	;volatile
  1916  000526  0E00               	movlw	0
  1917  000528  58F7               	subwfb	247,w,c	;volatile
  1918  00052A  0E20               	movlw	32
  1919  00052C  58F8               	subwfb	248,w,c	;volatile
  1920  00052E  A0D8               	btfss	status,0,c
  1921  000530  EF9C  F002         	goto	u501
  1922  000534  EF9E  F002         	goto	u500
  1923  000538                     u501:
  1924  000538  EFA2  F002         	goto	l1786
  1925  00053C                     u500:
  1926  00053C                     
  1927                           ;mcc_generated_files/pic18f_bootload.c: 406:         NVMCON1 = 0xC4;
  1928  00053C  0EC4               	movlw	196
  1929  00053E  6E80               	movwf	128,c	;volsfr
  1930  000540  EFA4  F002         	goto	l372
  1931  000544                     l1786:
  1932                           
  1933                           ;mcc_generated_files/pic18f_bootload.c: 408:         NVMCON1 = 0x84;
  1934  000544  0E84               	movlw	132
  1935  000546  6E80               	movwf	128,c	;volsfr
  1936  000548                     l372:
  1937                           
  1938                           ;mcc_generated_files/pic18f_bootload.c: 409:     for (uint8_t i= 0; i < frame.data_lengt
      +                          h; i ++)
  1939  000548  0E00               	movlw	0
  1940  00054A  6E06               	movwf	Write_Config@i^0,c
  1941  00054C  EFB5  F002         	goto	l1796
  1942  000550                     l1788:
  1943                           
  1944                           ; BSR set to: 0
  1945                           ;mcc_generated_files/pic18f_bootload.c: 410:     {;mcc_generated_files/pic18f_bootload.c
      +                          : 411:         TABLAT = frame.data[i];
  1946  000550  0E69               	movlw	low (_frame+9)
  1947  000552  2406               	addwf	Write_Config@i^0,w,c
  1948  000554  6ED9               	movwf	fsr2l,c
  1949  000556  6ADA               	clrf	fsr2h,c
  1950  000558  0E00               	movlw	high (_frame+9)
  1951  00055A  22DA               	addwfc	fsr2h,f,c
  1952  00055C  50DF               	movf	indf2,w,c
  1953  00055E  6EF5               	movwf	245,c	;volatile
  1954  000560  000C               	tblwt		*	;# 
  1955  000562                     
  1956                           ;mcc_generated_files/pic18f_bootload.c: 413:         StartWrite();
  1957  000562  EC68  F004         	call	_StartWrite	;wreg free
  1958  000566                     
  1959                           ;mcc_generated_files/pic18f_bootload.c: 414:         ++ TBLPTRL;
  1960  000566  2AF6               	incf	246,f,c	;volatile
  1961  000568                     
  1962                           ;mcc_generated_files/pic18f_bootload.c: 415:     }
  1963  000568  2A06               	incf	Write_Config@i^0,f,c
  1964  00056A                     l1796:
  1965  00056A  5006               	movf	Write_Config@i^0,w,c
  1966  00056C  6E04               	movwf	??_Write_Config^0,c
  1967  00056E  6A05               	clrf	(??_Write_Config+1)^0,c
  1968  000570  0100               	movlb	0	; () banked
  1969  000572  5161               	movf	(_frame+1)& (0+255),w,b
  1970  000574  5C04               	subwf	??_Write_Config^0,w,c
  1971  000576  5162               	movf	(_frame+2)& (0+255),w,b
  1972  000578  5805               	subwfb	(??_Write_Config+1)^0,w,c
  1973  00057A  A0D8               	btfss	status,0,c
  1974  00057C  EFC2  F002         	goto	u511
  1975  000580  EFC4  F002         	goto	u510
  1976  000584                     u511:
  1977  000584  EFA8  F002         	goto	l1788
  1978  000588                     u510:
  1979  000588                     
  1980                           ; BSR set to: 0
  1981                           ;mcc_generated_files/pic18f_bootload.c: 416:     frame.data[0] = 0x01;
  1982  000588  0E01               	movlw	1
  1983  00058A  6F69               	movwf	(_frame+9)& (0+255),b
  1984                           
  1985                           ;mcc_generated_files/pic18f_bootload.c: 417:     EE_Key_1 = 0x00;
  1986  00058C  0E00               	movlw	0
  1987  00058E  6E00               	movwf	0,c
  1988                           
  1989                           ;mcc_generated_files/pic18f_bootload.c: 418:     EE_Key_2 = 0x00;
  1990  000590  0E00               	movlw	0
  1991  000592  6E01               	movwf	1,c
  1992                           
  1993                           ;mcc_generated_files/pic18f_bootload.c: 419:     return (10);
  1994  000594  0E00               	movlw	0
  1995  000596  6E03               	movwf	(?_Write_Config+1)^0,c
  1996  000598  0E0A               	movlw	10
  1997  00059A  6E02               	movwf	?_Write_Config^0,c
  1998  00059C                     
  1999                           ; BSR set to: 0
  2000  00059C  0012               	return		;funcret
  2001  00059E                     __end_of_Write_Config:
  2002                           	callstack 0
  2003                           
  2004 ;; *************** function _StartWrite *****************
  2005 ;; Defined at:
  2006 ;;		line 467 in file "mcc_generated_files/pic18f_bootload.c"
  2007 ;; Parameters:    Size  Location     Type
  2008 ;;		None
  2009 ;; Auto vars:     Size  Location     Type
  2010 ;;		None
  2011 ;; Return value:  Size  Location     Type
  2012 ;;                  1    wreg      void 
  2013 ;; Registers used:
  2014 ;;		None
  2015 ;; Tracked objects:
  2016 ;;		On entry : 0/0
  2017 ;;		On exit  : 0/0
  2018 ;;		Unchanged: 0/0
  2019 ;; Data sizes:     COMRAM   BANK0   BANK1   BANK2   BANK3   BANK4   BANK5   BANK6   BANK7   BANK8   BANK9  BANK10  BANK1
      +1  BANK12  BANK14
  2020 ;;      Params:         0       0       0       0       0       0       0       0       0       0       0       0       
      +0       0       0
  2021 ;;      Locals:         0       0       0       0       0       0       0       0       0       0       0       0       
      +0       0       0
  2022 ;;      Temps:          0       0       0       0       0       0       0       0       0       0       0       0       
      +0       0       0
  2023 ;;      Totals:         0       0       0       0       0       0       0       0       0       0       0       0       
      +0       0       0
  2024 ;;Total ram usage:        0 bytes
  2025 ;; Hardware stack levels used: 1
  2026 ;; This function calls:
  2027 ;;		Nothing
  2028 ;; This function is called by:
  2029 ;;		_Write_Flash
  2030 ;;		_Write_Config
  2031 ;; This function uses a non-reentrant model
  2032 ;;
  2033                           
  2034                           	psect	text15
  2035  0008D0                     __ptext15:
  2036                           	callstack 0
  2037  0008D0                     _StartWrite:
  2038                           	callstack 25
  2039  0008D0  010F               	banksel	3969	;# 
  2040  0008D2  5000               	movf	0,w,c	;# 
  2041  0008D4  6F81               	movwf	3969,b	;# 
  2042  0008D6  5001               	movf	_EE_Key_2& (0+255),w,c	;# 
  2043  0008D8  6F81               	movwf	3969,b	;# 
  2044  0008DA  8A80               	bsf	3968,5,c	;# 
  2045                           
  2046                           ;mcc_generated_files/pic18f_bootload.c: 475:     __nop();
  2047  0008DC  F000               	nop	
  2048                           
  2049                           ;mcc_generated_files/pic18f_bootload.c: 476:     __nop();
  2050  0008DE  F000               	nop	
  2051  0008E0  0012               	return		;funcret
  2052  0008E2                     __end_of_StartWrite:
  2053                           	callstack 0
  2054                           
  2055 ;; *************** function _Read_Config *****************
  2056 ;; Defined at:
  2057 ;;		line 380 in file "mcc_generated_files/pic18f_bootload.c"
  2058 ;; Parameters:    Size  Location     Type
  2059 ;;		None
  2060 ;; Auto vars:     Size  Location     Type
  2061 ;;  i               1    4[COMRAM] unsigned char 
  2062 ;; Return value:  Size  Location     Type
  2063 ;;                  2    0[COMRAM] unsigned short 
  2064 ;; Registers used:
  2065 ;;		wreg, fsr2l, fsr2h, status,2, status,0
  2066 ;; Tracked objects:
  2067 ;;		On entry : 0/0
  2068 ;;		On exit  : 0/0
  2069 ;;		Unchanged: 0/0
  2070 ;; Data sizes:     COMRAM   BANK0   BANK1   BANK2   BANK3   BANK4   BANK5   BANK6   BANK7   BANK8   BANK9  BANK10  BANK1
      +1  BANK12  BANK14
  2071 ;;      Params:         2       0       0       0       0       0       0       0       0       0       0       0       
      +0       0       0
  2072 ;;      Locals:         1       0       0       0       0       0       0       0       0       0       0       0       
      +0       0       0
  2073 ;;      Temps:          2       0       0       0       0       0       0       0       0       0       0       0       
      +0       0       0
  2074 ;;      Totals:         5       0       0       0       0       0       0       0       0       0       0       0       
      +0       0       0
  2075 ;;Total ram usage:        5 bytes
  2076 ;; Hardware stack levels used: 1
  2077 ;; This function calls:
  2078 ;;		Nothing
  2079 ;; This function is called by:
  2080 ;;		_ProcessBootBuffer
  2081 ;; This function uses a non-reentrant model
  2082 ;;
  2083                           
  2084                           	psect	text16
  2085  0006A6                     __ptext16:
  2086                           	callstack 0
  2087  0006A6                     _Read_Config:
  2088                           	callstack 26
  2089  0006A6                     
  2090                           ;mcc_generated_files/pic18f_bootload.c: 382:     TBLPTRL = frame.address_L;
  2091  0006A6  C065  FFF6         	movff	_frame+5,tblptrl	;volatile
  2092                           
  2093                           ;mcc_generated_files/pic18f_bootload.c: 383:     TBLPTRH = frame.address_H;
  2094  0006AA  C066  FFF7         	movff	_frame+6,tblptrh	;volatile
  2095                           
  2096                           ;mcc_generated_files/pic18f_bootload.c: 384:     TBLPTRU = frame.address_U;
  2097  0006AE  C067  FFF8         	movff	_frame+7,tblptru	;volatile
  2098  0006B2                     
  2099                           ;mcc_generated_files/pic18f_bootload.c: 385:  NVMCON1 = 0xC0;
  2100  0006B2  0EC0               	movlw	192
  2101  0006B4  6E80               	movwf	128,c	;volsfr
  2102                           
  2103                           ;mcc_generated_files/pic18f_bootload.c: 386:     for (uint8_t i = 0; i < frame.data_leng
      +                          th; i++)
  2104  0006B6  0E00               	movlw	0
  2105  0006B8  6E06               	movwf	Read_Config@i^0,c
  2106  0006BA  EF69  F003         	goto	l1774
  2107  0006BE                     l366:
  2108                           
  2109                           ; BSR set to: 0
  2110  0006BE  0009               	tblrd		*+	;# 
  2111  0006C0                     
  2112                           ;mcc_generated_files/pic18f_bootload.c: 389:         frame.data[i] = TABLAT;
  2113  0006C0  0E69               	movlw	low (_frame+9)
  2114  0006C2  2406               	addwf	Read_Config@i^0,w,c
  2115  0006C4  6ED9               	movwf	fsr2l,c
  2116  0006C6  6ADA               	clrf	fsr2h,c
  2117  0006C8  0E00               	movlw	high (_frame+9)
  2118  0006CA  22DA               	addwfc	fsr2h,f,c
  2119  0006CC  CFF5 FFDF          	movff	tablat,indf2	;volatile
  2120  0006D0                     
  2121                           ;mcc_generated_files/pic18f_bootload.c: 390:     }
  2122  0006D0  2A06               	incf	Read_Config@i^0,f,c
  2123  0006D2                     l1774:
  2124  0006D2  5006               	movf	Read_Config@i^0,w,c
  2125  0006D4  6E04               	movwf	??_Read_Config^0,c
  2126  0006D6  6A05               	clrf	(??_Read_Config+1)^0,c
  2127  0006D8  0100               	movlb	0	; () banked
  2128  0006DA  5161               	movf	(_frame+1)& (0+255),w,b
  2129  0006DC  5C04               	subwf	??_Read_Config^0,w,c
  2130  0006DE  5162               	movf	(_frame+2)& (0+255),w,b
  2131  0006E0  5805               	subwfb	(??_Read_Config+1)^0,w,c
  2132  0006E2  A0D8               	btfss	status,0,c
  2133  0006E4  EF76  F003         	goto	u491
  2134  0006E8  EF78  F003         	goto	u490
  2135  0006EC                     u491:
  2136  0006EC  EF5F  F003         	goto	l366
  2137  0006F0                     u490:
  2138  0006F0                     
  2139                           ; BSR set to: 0
  2140                           ;mcc_generated_files/pic18f_bootload.c: 391:     return (9 + frame.data_length);
  2141  0006F0  0E09               	movlw	9
  2142  0006F2  2561               	addwf	(_frame+1)& (0+255),w,b
  2143  0006F4  6E02               	movwf	?_Read_Config^0,c
  2144  0006F6  0E00               	movlw	0
  2145  0006F8  2162               	addwfc	(_frame+2)& (0+255),w,b
  2146  0006FA  6E03               	movwf	(?_Read_Config+1)^0,c
  2147  0006FC                     
  2148                           ; BSR set to: 0
  2149  0006FC  0012               	return		;funcret
  2150  0006FE                     __end_of_Read_Config:
  2151                           	callstack 0
  2152                           
  2153 ;; *************** function _Get_Version_Data *****************
  2154 ;; Defined at:
  2155 ;;		line 233 in file "mcc_generated_files/pic18f_bootload.c"
  2156 ;; Parameters:    Size  Location     Type
  2157 ;;		None
  2158 ;; Auto vars:     Size  Location     Type
  2159 ;;  i               1    2[COMRAM] unsigned char 
  2160 ;; Return value:  Size  Location     Type
  2161 ;;                  2    0[COMRAM] unsigned short 
  2162 ;; Registers used:
  2163 ;;		wreg, fsr2l, fsr2h, status,2, status,0
  2164 ;; Tracked objects:
  2165 ;;		On entry : 0/0
  2166 ;;		On exit  : 0/0
  2167 ;;		Unchanged: 0/0
  2168 ;; Data sizes:     COMRAM   BANK0   BANK1   BANK2   BANK3   BANK4   BANK5   BANK6   BANK7   BANK8   BANK9  BANK10  BANK1
      +1  BANK12  BANK14
  2169 ;;      Params:         2       0       0       0       0       0       0       0       0       0       0       0       
      +0       0       0
  2170 ;;      Locals:         1       0       0       0       0       0       0       0       0       0       0       0       
      +0       0       0
  2171 ;;      Temps:          0       0       0       0       0       0       0       0       0       0       0       0       
      +0       0       0
  2172 ;;      Totals:         3       0       0       0       0       0       0       0       0       0       0       0       
      +0       0       0
  2173 ;;Total ram usage:        3 bytes
  2174 ;; Hardware stack levels used: 1
  2175 ;; This function calls:
  2176 ;;		Nothing
  2177 ;; This function is called by:
  2178 ;;		_ProcessBootBuffer
  2179 ;; This function uses a non-reentrant model
  2180 ;;
  2181                           
  2182                           	psect	text17
  2183  000622                     __ptext17:
  2184                           	callstack 0
  2185  000622                     _Get_Version_Data:
  2186                           	callstack 26
  2187  000622                     
  2188                           ;mcc_generated_files/pic18f_bootload.c: 235:     frame.data[0] = 0x01;
  2189  000622  0E01               	movlw	1
  2190  000624  0100               	movlb	0	; () banked
  2191  000626  6F69               	movwf	(_frame+9)& (0+255),b
  2192                           
  2193                           ;mcc_generated_files/pic18f_bootload.c: 236:     frame.data[1] = 0x01;
  2194  000628  0E01               	movlw	1
  2195  00062A  6F6A               	movwf	(_frame+10)& (0+255),b
  2196                           
  2197                           ;mcc_generated_files/pic18f_bootload.c: 237:     frame.data[2] = 0;
  2198  00062C  0E00               	movlw	0
  2199  00062E  6F6B               	movwf	(_frame+11)& (0+255),b
  2200                           
  2201                           ;mcc_generated_files/pic18f_bootload.c: 238:     frame.data[3] = 1;
  2202  000630  0E01               	movlw	1
  2203  000632  6F6C               	movwf	(_frame+12)& (0+255),b
  2204                           
  2205                           ;mcc_generated_files/pic18f_bootload.c: 239:     frame.data[4] = 0;
  2206  000634  0E00               	movlw	0
  2207  000636  6F6D               	movwf	(_frame+13)& (0+255),b
  2208                           
  2209                           ;mcc_generated_files/pic18f_bootload.c: 240:     frame.data[5] = 0;
  2210  000638  0E00               	movlw	0
  2211  00063A  6F6E               	movwf	(_frame+14)& (0+255),b
  2212                           
  2213                           ;mcc_generated_files/pic18f_bootload.c: 241:     TBLPTRU = 0x3F;
  2214  00063C  0E3F               	movlw	63
  2215  00063E  6EF8               	movwf	248,c	;volatile
  2216  000640                     
  2217                           ; BSR set to: 0
  2218                           ;mcc_generated_files/pic18f_bootload.c: 242:     TBLPTRH = 0xFF;
  2219  000640  68F7               	setf	247,c	;volatile
  2220                           
  2221                           ;mcc_generated_files/pic18f_bootload.c: 243:     TBLPTRL = 0xFE;
  2222  000642  0EFE               	movlw	254
  2223  000644  6EF6               	movwf	246,c	;volatile
  2224                           
  2225                           ;mcc_generated_files/pic18f_bootload.c: 244:     NVMCON1 = 0xC0;
  2226  000646  0EC0               	movlw	192
  2227  000648  6E80               	movwf	128,c	;volsfr
  2228  00064A  0009               	tblrd		*+	;# 
  2229  00064C                     
  2230                           ;mcc_generated_files/pic18f_bootload.c: 246:     frame.data[6] = TABLAT;
  2231  00064C  CFF5 F06F          	movff	tablat,_frame+15	;volatile
  2232  000650  0009               	tblrd		*+	;# 
  2233  000652                     
  2234                           ;mcc_generated_files/pic18f_bootload.c: 248:     frame.data[7] = TABLAT;
  2235  000652  CFF5 F070          	movff	tablat,_frame+16	;volatile
  2236                           
  2237                           ;mcc_generated_files/pic18f_bootload.c: 249:     frame.data[8] = 0;
  2238  000656  0E00               	movlw	0
  2239  000658  0100               	movlb	0	; () banked
  2240  00065A  6F71               	movwf	(_frame+17)& (0+255),b
  2241                           
  2242                           ;mcc_generated_files/pic18f_bootload.c: 250:     frame.data[9] = 0;
  2243  00065C  0E00               	movlw	0
  2244  00065E  6F72               	movwf	(_frame+18)& (0+255),b
  2245                           
  2246                           ;mcc_generated_files/pic18f_bootload.c: 252:     frame.data[10] = 128;
  2247  000660  0E80               	movlw	128
  2248  000662  6F73               	movwf	(_frame+19)& (0+255),b
  2249                           
  2250                           ;mcc_generated_files/pic18f_bootload.c: 253:     frame.data[11] = 128;
  2251  000664  0E80               	movlw	128
  2252  000666  6F74               	movwf	(_frame+20)& (0+255),b
  2253                           
  2254                           ;mcc_generated_files/pic18f_bootload.c: 255:     TBLPTRU = 0x30;
  2255  000668  0E30               	movlw	48
  2256  00066A  6EF8               	movwf	248,c	;volatile
  2257                           
  2258                           ;mcc_generated_files/pic18f_bootload.c: 256:     TBLPTRH = 0x00;
  2259  00066C  0E00               	movlw	0
  2260  00066E  6EF7               	movwf	247,c	;volatile
  2261                           
  2262                           ;mcc_generated_files/pic18f_bootload.c: 257:     TBLPTRL = 0x00;
  2263  000670  0E00               	movlw	0
  2264  000672  6EF6               	movwf	246,c	;volatile
  2265                           
  2266                           ;mcc_generated_files/pic18f_bootload.c: 259:     for (uint8_t i= 12; i < 16; i++)
  2267  000674  0E0C               	movlw	12
  2268  000676  6E04               	movwf	Get_Version_Data@i^0,c
  2269  000678                     l345:
  2270  000678  0009               	tblrd		*+	;# 
  2271  00067A                     
  2272                           ;mcc_generated_files/pic18f_bootload.c: 262:         frame.data[i] = TABLAT;
  2273  00067A  0E69               	movlw	low (_frame+9)
  2274  00067C  2404               	addwf	Get_Version_Data@i^0,w,c
  2275  00067E  6ED9               	movwf	fsr2l,c
  2276  000680  6ADA               	clrf	fsr2h,c
  2277  000682  0E00               	movlw	high (_frame+9)
  2278  000684  22DA               	addwfc	fsr2h,f,c
  2279  000686  CFF5 FFDF          	movff	tablat,indf2	;volatile
  2280  00068A                     
  2281                           ;mcc_generated_files/pic18f_bootload.c: 263:     }
  2282  00068A  2A04               	incf	Get_Version_Data@i^0,f,c
  2283  00068C  0E0F               	movlw	15
  2284  00068E  6404               	cpfsgt	Get_Version_Data@i^0,c
  2285  000690  EF4C  F003         	goto	u431
  2286  000694  EF4E  F003         	goto	u430
  2287  000698                     u431:
  2288  000698  EF3C  F003         	goto	l345
  2289  00069C                     u430:
  2290  00069C                     
  2291                           ;mcc_generated_files/pic18f_bootload.c: 265:     return 25;
  2292  00069C  0E00               	movlw	0
  2293  00069E  6E03               	movwf	(?_Get_Version_Data+1)^0,c
  2294  0006A0  0E19               	movlw	25
  2295  0006A2  6E02               	movwf	?_Get_Version_Data^0,c
  2296  0006A4  0012               	return		;funcret
  2297  0006A6                     __end_of_Get_Version_Data:
  2298                           	callstack 0
  2299                           
  2300 ;; *************** function _Erase_Flash *****************
  2301 ;; Defined at:
  2302 ;;		line 330 in file "mcc_generated_files/pic18f_bootload.c"
  2303 ;; Parameters:    Size  Location     Type
  2304 ;;		None
  2305 ;; Auto vars:     Size  Location     Type
  2306 ;;  blockStartAd    4   21[COMRAM] unsigned long 
  2307 ;;  i               2   18[COMRAM] unsigned short 
  2308 ;;  address         4   14[COMRAM] unsigned long 
  2309 ;;  GIEBitValue     1   20[COMRAM] unsigned char 
  2310 ;; Return value:  Size  Location     Type
  2311 ;;                  2    0[COMRAM] unsigned short 
  2312 ;; Registers used:
  2313 ;;		wreg, status,2, status,0, cstack
  2314 ;; Tracked objects:
  2315 ;;		On entry : 0/0
  2316 ;;		On exit  : 0/0
  2317 ;;		Unchanged: 0/0
  2318 ;; Data sizes:     COMRAM   BANK0   BANK1   BANK2   BANK3   BANK4   BANK5   BANK6   BANK7   BANK8   BANK9  BANK10  BANK1
      +1  BANK12  BANK14
  2319 ;;      Params:         2       0       0       0       0       0       0       0       0       0       0       0       
      +0       0       0
  2320 ;;      Locals:        11       0       0       0       0       0       0       0       0       0       0       0       
      +0       0       0
  2321 ;;      Temps:         12       0       0       0       0       0       0       0       0       0       0       0       
      +0       0       0
  2322 ;;      Totals:        25       0       0       0       0       0       0       0       0       0       0       0       
      +0       0       0
  2323 ;;Total ram usage:       25 bytes
  2324 ;; Hardware stack levels used: 1
  2325 ;; Hardware stack levels required when called: 1
  2326 ;; This function calls:
  2327 ;;		_StartErase
  2328 ;; This function is called by:
  2329 ;;		_ProcessBootBuffer
  2330 ;; This function uses a non-reentrant model
  2331 ;;
  2332                           
  2333                           	psect	text18
  2334  000286                     __ptext18:
  2335                           	callstack 0
  2336  000286                     _Erase_Flash:
  2337                           	callstack 25
  2338  000286                     
  2339                           ;mcc_generated_files/pic18f_bootload.c: 332:     uint32_t address;;mcc_generated_files/p
      +                          ic18f_bootload.c: 334:     TBLPTRL = frame.address_L;
  2340  000286  C065  FFF6         	movff	_frame+5,tblptrl	;volatile
  2341                           
  2342                           ;mcc_generated_files/pic18f_bootload.c: 335:     TBLPTRH = frame.address_H;
  2343  00028A  C066  FFF7         	movff	_frame+6,tblptrh	;volatile
  2344                           
  2345                           ;mcc_generated_files/pic18f_bootload.c: 336:     TBLPTRU = frame.address_U;
  2346  00028E  C067  FFF8         	movff	_frame+7,tblptru	;volatile
  2347  000292                     
  2348                           ;mcc_generated_files/pic18f_bootload.c: 337:     address = (((uint32_t)frame.address_U) 
      +                          << 16)
  2349  000292  C066  F004         	movff	_frame+6,??_Erase_Flash
  2350  000296  6A05               	clrf	(??_Erase_Flash+1)^0,c
  2351  000298  6A06               	clrf	(??_Erase_Flash+2)^0,c
  2352  00029A  6A07               	clrf	(??_Erase_Flash+3)^0,c
  2353  00029C  C006  F007         	movff	??_Erase_Flash+2,??_Erase_Flash+3
  2354  0002A0  C005  F006         	movff	??_Erase_Flash+1,??_Erase_Flash+2
  2355  0002A4  C004  F005         	movff	??_Erase_Flash,??_Erase_Flash+1
  2356  0002A8  6A04               	clrf	??_Erase_Flash^0,c
  2357  0002AA  C067  F008         	movff	_frame+7,??_Erase_Flash+4
  2358  0002AE  6A09               	clrf	(??_Erase_Flash+5)^0,c
  2359  0002B0  6A0A               	clrf	(??_Erase_Flash+6)^0,c
  2360  0002B2  6A0B               	clrf	(??_Erase_Flash+7)^0,c
  2361  0002B4  C009  F00B         	movff	??_Erase_Flash+5,??_Erase_Flash+7
  2362  0002B8  C008  F00A         	movff	??_Erase_Flash+4,??_Erase_Flash+6
  2363  0002BC  6A09               	clrf	(??_Erase_Flash+5)^0,c
  2364  0002BE  6A08               	clrf	(??_Erase_Flash+4)^0,c
  2365  0002C0  5004               	movf	??_Erase_Flash^0,w,c
  2366  0002C2  2408               	addwf	(??_Erase_Flash+4)^0,w,c
  2367  0002C4  6E0C               	movwf	(??_Erase_Flash+8)^0,c
  2368  0002C6  5005               	movf	(??_Erase_Flash+1)^0,w,c
  2369  0002C8  2009               	addwfc	(??_Erase_Flash+5)^0,w,c
  2370  0002CA  6E0D               	movwf	(??_Erase_Flash+9)^0,c
  2371  0002CC  5006               	movf	(??_Erase_Flash+2)^0,w,c
  2372  0002CE  200A               	addwfc	(??_Erase_Flash+6)^0,w,c
  2373  0002D0  6E0E               	movwf	(??_Erase_Flash+10)^0,c
  2374  0002D2  5007               	movf	(??_Erase_Flash+3)^0,w,c
  2375  0002D4  200B               	addwfc	(??_Erase_Flash+7)^0,w,c
  2376  0002D6  6E0F               	movwf	(??_Erase_Flash+11)^0,c
  2377  0002D8  0100               	movlb	0	; () banked
  2378  0002DA  5165               	movf	(_frame+5)& (0+255),w,b
  2379  0002DC  240C               	addwf	(??_Erase_Flash+8)^0,w,c
  2380  0002DE  6E10               	movwf	Erase_Flash@address^0,c
  2381  0002E0  0E00               	movlw	0
  2382  0002E2  200D               	addwfc	(??_Erase_Flash+9)^0,w,c
  2383  0002E4  6E11               	movwf	(Erase_Flash@address+1)^0,c
  2384  0002E6  0E00               	movlw	0
  2385  0002E8  200E               	addwfc	(??_Erase_Flash+10)^0,w,c
  2386  0002EA  6E12               	movwf	(Erase_Flash@address+2)^0,c
  2387  0002EC  0E00               	movlw	0
  2388  0002EE  200F               	addwfc	(??_Erase_Flash+11)^0,w,c
  2389  0002F0  6E13               	movwf	(Erase_Flash@address+3)^0,c
  2390  0002F2                     
  2391                           ; BSR set to: 0
  2392                           ;mcc_generated_files/pic18f_bootload.c: 341:     uint8_t GIEBitValue = INTCONbits.GIE;
  2393  0002F2  0E00               	movlw	0
  2394  0002F4  BEF2               	btfsc	242,7,c	;volatile
  2395  0002F6  0E01               	movlw	1
  2396  0002F8  6E16               	movwf	Erase_Flash@GIEBitValue^0,c
  2397  0002FA                     
  2398                           ; BSR set to: 0
  2399                           ;mcc_generated_files/pic18f_bootload.c: 344:     INTCONbits.GIE = 0;
  2400  0002FA  9EF2               	bcf	242,7,c	;volatile
  2401  0002FC                     
  2402                           ; BSR set to: 0
  2403                           ;mcc_generated_files/pic18f_bootload.c: 346:     for (uint16_t i=0; i < frame.data_lengt
      +                          h; i++)
  2404  0002FC  0E00               	movlw	0
  2405  0002FE  6E15               	movwf	(Erase_Flash@i+1)^0,c
  2406  000300  0E00               	movlw	0
  2407  000302  6E14               	movwf	Erase_Flash@i^0,c
  2408  000304  EFA1  F001         	goto	l1760
  2409  000308                     l1746:
  2410                           
  2411                           ; BSR set to: 0
  2412                           ;mcc_generated_files/pic18f_bootload.c: 347:     {;mcc_generated_files/pic18f_bootload.c
      +                          : 348:         uint32_t blockStartAddr = (uint32_t) (address & ((0x020000 - 1) ^ ((128 *
      +                           2) - 1)));
  2413  000308  0E00               	movlw	0
  2414  00030A  1410               	andwf	Erase_Flash@address^0,w,c
  2415  00030C  6E17               	movwf	Erase_Flash@blockStartAddr^0,c
  2416  00030E  0EFF               	movlw	255
  2417  000310  1411               	andwf	(Erase_Flash@address+1)^0,w,c
  2418  000312  6E18               	movwf	(Erase_Flash@blockStartAddr+1)^0,c
  2419  000314  0E01               	movlw	1
  2420  000316  1412               	andwf	(Erase_Flash@address+2)^0,w,c
  2421  000318  6E19               	movwf	(Erase_Flash@blockStartAddr+2)^0,c
  2422  00031A  0E00               	movlw	0
  2423  00031C  1413               	andwf	(Erase_Flash@address+3)^0,w,c
  2424  00031E  6E1A               	movwf	(Erase_Flash@blockStartAddr+3)^0,c
  2425  000320                     
  2426                           ; BSR set to: 0
  2427                           ;mcc_generated_files/pic18f_bootload.c: 352:         NVMADRU = (uint8_t) ((blockStartAdd
      +                          r & 0x00FF0000) >> 16);
  2428  000320  C019  FF7B         	movff	Erase_Flash@blockStartAddr+2,3963	;volatile
  2429  000324                     
  2430                           ; BSR set to: 0
  2431                           ;mcc_generated_files/pic18f_bootload.c: 353:         NVMADRH = (uint8_t) ((blockStartAdd
      +                          r & 0x0000FF00) >> 8);
  2432  000324  C018  FF7A         	movff	Erase_Flash@blockStartAddr+1,3962	;volatile
  2433  000328                     
  2434                           ; BSR set to: 0
  2435                           ;mcc_generated_files/pic18f_bootload.c: 356:         NVMCON0bits.NVMEN = 1;
  2436  000328  8E7F               	bsf	127,7,c	;volatile
  2437  00032A                     
  2438                           ; BSR set to: 0
  2439                           ;mcc_generated_files/pic18f_bootload.c: 358:         StartErase();
  2440  00032A  EC71  F004         	call	_StartErase	;wreg free
  2441  00032E                     
  2442                           ;mcc_generated_files/pic18f_bootload.c: 359:         address += 128 * 2;
  2443  00032E  0E00               	movlw	0
  2444  000330  2610               	addwf	Erase_Flash@address^0,f,c
  2445  000332  0E01               	movlw	1
  2446  000334  2211               	addwfc	(Erase_Flash@address+1)^0,f,c
  2447  000336  0E00               	movlw	0
  2448  000338  2212               	addwfc	(Erase_Flash@address+2)^0,f,c
  2449  00033A  0E00               	movlw	0
  2450  00033C  2213               	addwfc	(Erase_Flash@address+3)^0,f,c
  2451  00033E                     
  2452                           ;mcc_generated_files/pic18f_bootload.c: 360:     }
  2453  00033E  4A14               	infsnz	Erase_Flash@i^0,f,c
  2454  000340  2A15               	incf	(Erase_Flash@i+1)^0,f,c
  2455  000342                     l1760:
  2456  000342  0100               	movlb	0	; () banked
  2457  000344  5161               	movf	(_frame+1)& (0+255),w,b
  2458  000346  5C14               	subwf	Erase_Flash@i^0,w,c
  2459  000348  5162               	movf	(_frame+2)& (0+255),w,b
  2460  00034A  5815               	subwfb	(Erase_Flash@i+1)^0,w,c
  2461  00034C  A0D8               	btfss	status,0,c
  2462  00034E  EFAB  F001         	goto	u471
  2463  000352  EFAD  F001         	goto	u470
  2464  000356                     u471:
  2465  000356  EF84  F001         	goto	l1746
  2466  00035A                     u470:
  2467  00035A                     
  2468                           ; BSR set to: 0
  2469                           ;mcc_generated_files/pic18f_bootload.c: 362:     INTCONbits.GIE = GIEBitValue;
  2470  00035A  B016               	btfsc	Erase_Flash@GIEBitValue^0,0,c
  2471  00035C  D002               	bra	u485
  2472  00035E  9EF2               	bcf	242,7,c	;volatile
  2473  000360  D001               	bra	u486
  2474  000362                     u485:
  2475  000362  8EF2               	bsf	242,7,c	;volatile
  2476  000364                     u486:
  2477                           
  2478                           ;mcc_generated_files/pic18f_bootload.c: 365:     NVMCON0bits.NVMEN = 0;
  2479  000364  9E7F               	bcf	127,7,c	;volatile
  2480  000366                     
  2481                           ;mcc_generated_files/pic18f_bootload.c: 367:     frame.data[0] = 0x01;
  2482  000366  0E01               	movlw	1
  2483  000368  0100               	movlb	0	; () banked
  2484  00036A  6F69               	movwf	(_frame+9)& (0+255),b
  2485                           
  2486                           ;mcc_generated_files/pic18f_bootload.c: 368:     frame.EE_key_1 = 0x00;
  2487  00036C  0E00               	movlw	0
  2488  00036E  6F63               	movwf	(_frame+3)& (0+255),b
  2489                           
  2490                           ;mcc_generated_files/pic18f_bootload.c: 369:     frame.EE_key_2 = 0x00;
  2491  000370  0E00               	movlw	0
  2492  000372  6F64               	movwf	(_frame+4)& (0+255),b
  2493                           
  2494                           ;mcc_generated_files/pic18f_bootload.c: 370:     return (10);
  2495  000374  0E00               	movlw	0
  2496  000376  6E03               	movwf	(?_Erase_Flash+1)^0,c
  2497  000378  0E0A               	movlw	10
  2498  00037A  6E02               	movwf	?_Erase_Flash^0,c
  2499  00037C                     
  2500                           ; BSR set to: 0
  2501  00037C  0012               	return		;funcret
  2502  00037E                     __end_of_Erase_Flash:
  2503                           	callstack 0
  2504                           
  2505 ;; *************** function _StartErase *****************
  2506 ;; Defined at:
  2507 ;;		line 480 in file "mcc_generated_files/pic18f_bootload.c"
  2508 ;; Parameters:    Size  Location     Type
  2509 ;;		None
  2510 ;; Auto vars:     Size  Location     Type
  2511 ;;		None
  2512 ;; Return value:  Size  Location     Type
  2513 ;;                  1    wreg      void 
  2514 ;; Registers used:
  2515 ;;		None
  2516 ;; Tracked objects:
  2517 ;;		On entry : 0/0
  2518 ;;		On exit  : 0/0
  2519 ;;		Unchanged: 0/0
  2520 ;; Data sizes:     COMRAM   BANK0   BANK1   BANK2   BANK3   BANK4   BANK5   BANK6   BANK7   BANK8   BANK9  BANK10  BANK1
      +1  BANK12  BANK14
  2521 ;;      Params:         0       0       0       0       0       0       0       0       0       0       0       0       
      +0       0       0
  2522 ;;      Locals:         0       0       0       0       0       0       0       0       0       0       0       0       
      +0       0       0
  2523 ;;      Temps:          0       0       0       0       0       0       0       0       0       0       0       0       
      +0       0       0
  2524 ;;      Totals:         0       0       0       0       0       0       0       0       0       0       0       0       
      +0       0       0
  2525 ;;Total ram usage:        0 bytes
  2526 ;; Hardware stack levels used: 1
  2527 ;; This function calls:
  2528 ;;		Nothing
  2529 ;; This function is called by:
  2530 ;;		_Erase_Flash
  2531 ;; This function uses a non-reentrant model
  2532 ;;
  2533                           
  2534                           	psect	text19
  2535  0008E2                     __ptext19:
  2536                           	callstack 0
  2537  0008E2                     _StartErase:
  2538                           	callstack 25
  2539  0008E2  010F               	banksel	3969	;# 
  2540  0008E4  5000               	movf	0,w,c	;# 
  2541  0008E6  6F81               	movwf	3969,b	;# 
  2542  0008E8  5001               	movf	_EE_Key_2& (0+255),w,c	;# 
  2543  0008EA  6F81               	movwf	3969,b	;# 
  2544  0008EC  8C80               	bsf	3968,6,c	;# 
  2545                           
  2546                           ;mcc_generated_files/pic18f_bootload.c: 488:     __nop();
  2547  0008EE  F000               	nop	
  2548                           
  2549                           ;mcc_generated_files/pic18f_bootload.c: 489:     __nop();
  2550  0008F0  F000               	nop	
  2551  0008F2  0012               	return		;funcret
  2552  0008F4                     __end_of_StartErase:
  2553                           	callstack 0
  2554                           
  2555 ;; *************** function _Calc_Checksum *****************
  2556 ;; Defined at:
  2557 ;;		line 430 in file "mcc_generated_files/pic18f_bootload.c"
  2558 ;; Parameters:    Size  Location     Type
  2559 ;;		None
  2560 ;; Auto vars:     Size  Location     Type
  2561 ;;  length          4   10[COMRAM] unsigned long 
  2562 ;;  i               4    6[COMRAM] unsigned long 
  2563 ;; Return value:  Size  Location     Type
  2564 ;;                  2    0[COMRAM] unsigned short 
  2565 ;; Registers used:
  2566 ;;		wreg, status,2, status,0
  2567 ;; Tracked objects:
  2568 ;;		On entry : 0/0
  2569 ;;		On exit  : 0/0
  2570 ;;		Unchanged: 0/0
  2571 ;; Data sizes:     COMRAM   BANK0   BANK1   BANK2   BANK3   BANK4   BANK5   BANK6   BANK7   BANK8   BANK9  BANK10  BANK1
      +1  BANK12  BANK14
  2572 ;;      Params:         2       0       0       0       0       0       0       0       0       0       0       0       
      +0       0       0
  2573 ;;      Locals:         8       0       0       0       0       0       0       0       0       0       0       0       
      +0       0       0
  2574 ;;      Temps:          4       0       0       0       0       0       0       0       0       0       0       0       
      +0       0       0
  2575 ;;      Totals:        14       0       0       0       0       0       0       0       0       0       0       0       
      +0       0       0
  2576 ;;Total ram usage:       14 bytes
  2577 ;; Hardware stack levels used: 1
  2578 ;; This function calls:
  2579 ;;		Nothing
  2580 ;; This function is called by:
  2581 ;;		_ProcessBootBuffer
  2582 ;; This function uses a non-reentrant model
  2583 ;;
  2584                           
  2585                           	psect	text20
  2586  00046A                     __ptext20:
  2587                           	callstack 0
  2588  00046A                     _Calc_Checksum:
  2589                           	callstack 26
  2590  00046A                     
  2591                           ;mcc_generated_files/pic18f_bootload.c: 433:     uint32_t i;;mcc_generated_files/pic18f_
      +                          bootload.c: 434:     uint32_t length;;mcc_generated_files/pic18f_bootload.c: 440:     TB
      +                          LPTRL = frame.address_L;
  2592  00046A  C065  FFF6         	movff	_frame+5,tblptrl	;volatile
  2593                           
  2594                           ;mcc_generated_files/pic18f_bootload.c: 441:     TBLPTRH = frame.address_H;
  2595  00046E  C066  FFF7         	movff	_frame+6,tblptrh	;volatile
  2596                           
  2597                           ;mcc_generated_files/pic18f_bootload.c: 442:     TBLPTRU = frame.address_U;
  2598  000472  C067  FFF8         	movff	_frame+7,tblptru	;volatile
  2599  000476                     
  2600                           ;mcc_generated_files/pic18f_bootload.c: 443:     NVMCON1 = 0x80;
  2601  000476  0E80               	movlw	128
  2602  000478  6E80               	movwf	128,c	;volsfr
  2603                           
  2604                           ;mcc_generated_files/pic18f_bootload.c: 444:     check_sum = 0;
  2605  00047A  0E00               	movlw	0
  2606  00047C  6E34               	movwf	(_check_sum+1)^0,c
  2607  00047E  0E00               	movlw	0
  2608  000480  6E33               	movwf	_check_sum^0,c
  2609  000482                     
  2610                           ;mcc_generated_files/pic18f_bootload.c: 445:     length = frame.data_length;
  2611  000482  C061  F00C         	movff	_frame+1,Calc_Checksum@length
  2612  000486  C062  F00D         	movff	_frame+2,Calc_Checksum@length+1
  2613  00048A  6A0E               	clrf	(Calc_Checksum@length+2)^0,c
  2614  00048C  6A0F               	clrf	(Calc_Checksum@length+3)^0,c
  2615  00048E                     
  2616                           ;mcc_generated_files/pic18f_bootload.c: 447:     length += ((uint32_t) frame.EE_key_1) <
      +                          < 16;
  2617  00048E  C063  F004         	movff	_frame+3,??_Calc_Checksum
  2618  000492  6A05               	clrf	(??_Calc_Checksum+1)^0,c
  2619  000494  6A06               	clrf	(??_Calc_Checksum+2)^0,c
  2620  000496  6A07               	clrf	(??_Calc_Checksum+3)^0,c
  2621  000498  C005  F007         	movff	??_Calc_Checksum+1,??_Calc_Checksum+3
  2622  00049C  C004  F006         	movff	??_Calc_Checksum,??_Calc_Checksum+2
  2623  0004A0  6A05               	clrf	(??_Calc_Checksum+1)^0,c
  2624  0004A2  6A04               	clrf	??_Calc_Checksum^0,c
  2625  0004A4  5004               	movf	??_Calc_Checksum^0,w,c
  2626  0004A6  260C               	addwf	Calc_Checksum@length^0,f,c
  2627  0004A8  5005               	movf	(??_Calc_Checksum+1)^0,w,c
  2628  0004AA  220D               	addwfc	(Calc_Checksum@length+1)^0,f,c
  2629  0004AC  5006               	movf	(??_Calc_Checksum+2)^0,w,c
  2630  0004AE  220E               	addwfc	(Calc_Checksum@length+2)^0,f,c
  2631  0004B0  5007               	movf	(??_Calc_Checksum+3)^0,w,c
  2632  0004B2  220F               	addwfc	(Calc_Checksum@length+3)^0,f,c
  2633  0004B4                     
  2634                           ;mcc_generated_files/pic18f_bootload.c: 449:     for (i = 0; i < length; i += 2)
  2635  0004B4  0E00               	movlw	0
  2636  0004B6  6E08               	movwf	Calc_Checksum@i^0,c
  2637  0004B8  0E00               	movlw	0
  2638  0004BA  6E09               	movwf	(Calc_Checksum@i+1)^0,c
  2639  0004BC  0E00               	movlw	0
  2640  0004BE  6E0A               	movwf	(Calc_Checksum@i+2)^0,c
  2641  0004C0  0E00               	movlw	0
  2642  0004C2  6E0B               	movwf	(Calc_Checksum@i+3)^0,c
  2643  0004C4  EF72  F002         	goto	l1818
  2644  0004C8                     l380:
  2645  0004C8  0009               	tblrd		*+	;# 
  2646  0004CA                     
  2647                           ;mcc_generated_files/pic18f_bootload.c: 452:         check_sum += (uint16_t)TABLAT;
  2648  0004CA  50F5               	movf	245,w,c	;volatile
  2649  0004CC  2633               	addwf	_check_sum^0,f,c
  2650  0004CE  0E00               	movlw	0
  2651  0004D0  2234               	addwfc	(_check_sum+1)^0,f,c
  2652  0004D2  0009               	tblrd		*+	;# 
  2653  0004D4                     
  2654                           ;mcc_generated_files/pic18f_bootload.c: 454:         check_sum += (uint16_t)TABLAT << 8;
  2655  0004D4  50F5               	movf	245,w,c	;volatile
  2656  0004D6  2634               	addwf	(_check_sum+1)^0,f,c
  2657  0004D8                     
  2658                           ;mcc_generated_files/pic18f_bootload.c: 455:      }
  2659  0004D8  0E02               	movlw	2
  2660  0004DA  2608               	addwf	Calc_Checksum@i^0,f,c
  2661  0004DC  0E00               	movlw	0
  2662  0004DE  2209               	addwfc	(Calc_Checksum@i+1)^0,f,c
  2663  0004E0  220A               	addwfc	(Calc_Checksum@i+2)^0,f,c
  2664  0004E2  220B               	addwfc	(Calc_Checksum@i+3)^0,f,c
  2665  0004E4                     l1818:
  2666  0004E4  500C               	movf	Calc_Checksum@length^0,w,c
  2667  0004E6  5C08               	subwf	Calc_Checksum@i^0,w,c
  2668  0004E8  500D               	movf	(Calc_Checksum@length+1)^0,w,c
  2669  0004EA  5809               	subwfb	(Calc_Checksum@i+1)^0,w,c
  2670  0004EC  500E               	movf	(Calc_Checksum@length+2)^0,w,c
  2671  0004EE  580A               	subwfb	(Calc_Checksum@i+2)^0,w,c
  2672  0004F0  500F               	movf	(Calc_Checksum@length+3)^0,w,c
  2673  0004F2  580B               	subwfb	(Calc_Checksum@i+3)^0,w,c
  2674  0004F4  A0D8               	btfss	status,0,c
  2675  0004F6  EF7F  F002         	goto	u521
  2676  0004FA  EF81  F002         	goto	u520
  2677  0004FE                     u521:
  2678  0004FE  EF64  F002         	goto	l380
  2679  000502                     u520:
  2680  000502                     
  2681                           ;mcc_generated_files/pic18f_bootload.c: 456:      frame.data[0] = (uint8_t) (check_sum &
      +                           0x00FF);
  2682  000502  C033  F069         	movff	_check_sum,_frame+9
  2683  000506                     
  2684                           ;mcc_generated_files/pic18f_bootload.c: 457:      frame.data[1] = (uint8_t)((check_sum &
      +                           0xFF00) >> 8);
  2685  000506  5034               	movf	(_check_sum+1)^0,w,c
  2686  000508  0100               	movlb	0	; () banked
  2687  00050A  6F6A               	movwf	(_frame+10)& (0+255),b
  2688                           
  2689                           ;mcc_generated_files/pic18f_bootload.c: 458:      return (11);
  2690  00050C  0E00               	movlw	0
  2691  00050E  6E03               	movwf	(?_Calc_Checksum+1)^0,c
  2692  000510  0E0B               	movlw	11
  2693  000512  6E02               	movwf	?_Calc_Checksum^0,c
  2694  000514                     
  2695                           ; BSR set to: 0
  2696  000514  0012               	return		;funcret
  2697  000516                     __end_of_Calc_Checksum:
  2698                           	callstack 0
  2699                           
  2700 ;; *************** function _EUSART2_Write *****************
  2701 ;; Defined at:
  2702 ;;		line 132 in file "mcc_generated_files/eusart2.c"
  2703 ;; Parameters:    Size  Location     Type
  2704 ;;  txData          1    wreg     unsigned char 
  2705 ;; Auto vars:     Size  Location     Type
  2706 ;;  txData          1    0[COMRAM] unsigned char 
  2707 ;; Return value:  Size  Location     Type
  2708 ;;                  1    wreg      void 
  2709 ;; Registers used:
  2710 ;;		wreg
  2711 ;; Tracked objects:
  2712 ;;		On entry : 0/0
  2713 ;;		On exit  : 0/0
  2714 ;;		Unchanged: 0/0
  2715 ;; Data sizes:     COMRAM   BANK0   BANK1   BANK2   BANK3   BANK4   BANK5   BANK6   BANK7   BANK8   BANK9  BANK10  BANK1
      +1  BANK12  BANK14
  2716 ;;      Params:         0       0       0       0       0       0       0       0       0       0       0       0       
      +0       0       0
  2717 ;;      Locals:         1       0       0       0       0       0       0       0       0       0       0       0       
      +0       0       0
  2718 ;;      Temps:          0       0       0       0       0       0       0       0       0       0       0       0       
      +0       0       0
  2719 ;;      Totals:         1       0       0       0       0       0       0       0       0       0       0       0       
      +0       0       0
  2720 ;;Total ram usage:        1 bytes
  2721 ;; Hardware stack levels used: 1
  2722 ;; This function calls:
  2723 ;;		Nothing
  2724 ;; This function is called by:
  2725 ;;		_Run_Bootloader
  2726 ;; This function uses a non-reentrant model
  2727 ;;
  2728                           
  2729                           	psect	text21
  2730  00088C                     __ptext21:
  2731                           	callstack 0
  2732  00088C                     _EUSART2_Write:
  2733                           	callstack 27
  2734                           
  2735                           ; BSR set to: 0
  2736                           ;incstack = 0
  2737                           ;EUSART2_Write@txData stored from wreg
  2738  00088C  6E02               	movwf	EUSART2_Write@txData^0,c
  2739  00088E                     l67:
  2740                           
  2741                           ;mcc_generated_files/eusart2.c: 134:     while(0 == PIR3bits.TX2IF)
  2742  00088E  010E               	movlb	14	; () banked
  2743  000890  ADC8               	btfss	200,6,b	;volatile
  2744  000892  EF4D  F004         	goto	u151
  2745  000896  EF4F  F004         	goto	u150
  2746  00089A                     u151:
  2747  00089A  EF47  F004         	goto	l67
  2748  00089E                     u150:
  2749  00089E                     
  2750                           ; BSR set to: 14
  2751                           ;mcc_generated_files/eusart2.c: 138:     TX2REG = txData;
  2752  00089E  C002  FE95         	movff	EUSART2_Write@txData,3733	;volatile
  2753  0008A2                     
  2754                           ; BSR set to: 14
  2755  0008A2  0012               	return		;funcret
  2756  0008A4                     __end_of_EUSART2_Write:
  2757                           	callstack 0
  2758                           
  2759 ;; *************** function _EUSART2_Read *****************
  2760 ;; Defined at:
  2761 ;;		line 113 in file "mcc_generated_files/eusart2.c"
  2762 ;; Parameters:    Size  Location     Type
  2763 ;;		None
  2764 ;; Auto vars:     Size  Location     Type
  2765 ;;		None
  2766 ;; Return value:  Size  Location     Type
  2767 ;;                  1    wreg      unsigned char 
  2768 ;; Registers used:
  2769 ;;		wreg, status,2
  2770 ;; Tracked objects:
  2771 ;;		On entry : 0/0
  2772 ;;		On exit  : 0/0
  2773 ;;		Unchanged: 0/0
  2774 ;; Data sizes:     COMRAM   BANK0   BANK1   BANK2   BANK3   BANK4   BANK5   BANK6   BANK7   BANK8   BANK9  BANK10  BANK1
      +1  BANK12  BANK14
  2775 ;;      Params:         0       0       0       0       0       0       0       0       0       0       0       0       
      +0       0       0
  2776 ;;      Locals:         0       0       0       0       0       0       0       0       0       0       0       0       
      +0       0       0
  2777 ;;      Temps:          0       0       0       0       0       0       0       0       0       0       0       0       
      +0       0       0
  2778 ;;      Totals:         0       0       0       0       0       0       0       0       0       0       0       0       
      +0       0       0
  2779 ;;Total ram usage:        0 bytes
  2780 ;; Hardware stack levels used: 1
  2781 ;; This function calls:
  2782 ;;		Nothing
  2783 ;; This function is called by:
  2784 ;;		_Run_Bootloader
  2785 ;; This function uses a non-reentrant model
  2786 ;;
  2787                           
  2788                           	psect	text22
  2789  000810                     __ptext22:
  2790                           	callstack 0
  2791  000810                     _EUSART2_Read:
  2792                           	callstack 27
  2793  000810                     l60:
  2794                           
  2795                           ;mcc_generated_files/eusart2.c: 115:     while(!PIR3bits.RC2IF)
  2796  000810  010E               	movlb	14	; () banked
  2797  000812  AFC8               	btfss	200,7,b	;volatile
  2798  000814  EF0E  F004         	goto	u131
  2799  000818  EF10  F004         	goto	u130
  2800  00081C                     u131:
  2801  00081C  EF08  F004         	goto	l60
  2802  000820                     u130:
  2803  000820                     
  2804                           ; BSR set to: 14
  2805                           ;mcc_generated_files/eusart2.c: 119:     eusart2RxLastError.status = 0;
  2806  000820  0E00               	movlw	0
  2807  000822  6E38               	movwf	_eusart2RxLastError^0,c	;volatile
  2808  000824                     
  2809                           ; BSR set to: 14
  2810                           ;mcc_generated_files/eusart2.c: 121:     if(1 == RC2STAbits.OERR)
  2811  000824  A398               	btfss	152,1,b	;volatile
  2812  000826  EF17  F004         	goto	u141
  2813  00082A  EF19  F004         	goto	u140
  2814  00082E                     u141:
  2815  00082E  EF1B  F004         	goto	l1334
  2816  000832                     u140:
  2817  000832                     
  2818                           ; BSR set to: 14
  2819                           ;mcc_generated_files/eusart2.c: 122:     {;mcc_generated_files/eusart2.c: 125:         R
      +                          C2STAbits.CREN = 0;
  2820  000832  9998               	bcf	152,4,b	;volatile
  2821                           
  2822                           ;mcc_generated_files/eusart2.c: 126:         RC2STAbits.CREN = 1;
  2823  000834  8998               	bsf	152,4,b	;volatile
  2824  000836                     l1334:
  2825                           
  2826                           ; BSR set to: 14
  2827                           ;mcc_generated_files/eusart2.c: 129:     return RC2REG;
  2828  000836  5194               	movf	148,w,b	;volatile
  2829  000838                     
  2830                           ; BSR set to: 14
  2831  000838  0012               	return		;funcret
  2832  00083A                     __end_of_EUSART2_Read:
  2833                           	callstack 0
  2834                           
  2835 ;; *************** function _Check_Device_Reset *****************
  2836 ;; Defined at:
  2837 ;;		line 498 in file "mcc_generated_files/pic18f_bootload.c"
  2838 ;; Parameters:    Size  Location     Type
  2839 ;;		None
  2840 ;; Auto vars:     Size  Location     Type
  2841 ;;		None
  2842 ;; Return value:  Size  Location     Type
  2843 ;;                  1    wreg      void 
  2844 ;; Registers used:
  2845 ;;		wreg, status,2, status,0
  2846 ;; Tracked objects:
  2847 ;;		On entry : 0/0
  2848 ;;		On exit  : 0/0
  2849 ;;		Unchanged: 0/0
  2850 ;; Data sizes:     COMRAM   BANK0   BANK1   BANK2   BANK3   BANK4   BANK5   BANK6   BANK7   BANK8   BANK9  BANK10  BANK1
      +1  BANK12  BANK14
  2851 ;;      Params:         0       0       0       0       0       0       0       0       0       0       0       0       
      +0       0       0
  2852 ;;      Locals:         0       0       0       0       0       0       0       0       0       0       0       0       
      +0       0       0
  2853 ;;      Temps:          0       0       0       0       0       0       0       0       0       0       0       0       
      +0       0       0
  2854 ;;      Totals:         0       0       0       0       0       0       0       0       0       0       0       0       
      +0       0       0
  2855 ;;Total ram usage:        0 bytes
  2856 ;; Hardware stack levels used: 1
  2857 ;; This function calls:
  2858 ;;		Nothing
  2859 ;; This function is called by:
  2860 ;;		_Run_Bootloader
  2861 ;; This function uses a non-reentrant model
  2862 ;;
  2863                           
  2864                           	psect	text23
  2865  0008BA                     __ptext23:
  2866                           	callstack 0
  2867  0008BA                     _Check_Device_Reset:
  2868                           	callstack 27
  2869  0008BA                     
  2870                           ;mcc_generated_files/pic18f_bootload.c: 500:     if (reset_pending == 1)
  2871  0008BA  0435               	decf	_reset_pending^0,w,c
  2872  0008BC  A4D8               	btfss	status,2,c
  2873  0008BE  EF63  F004         	goto	u161
  2874  0008C2  EF65  F004         	goto	u160
  2875  0008C6                     u161:
  2876  0008C6  EF67  F004         	goto	l392
  2877  0008CA                     u160:
  2878  0008CA                     
  2879                           ;mcc_generated_files/pic18f_bootload.c: 501:     {;mcc_generated_files/pic18f_bootload.c
      +                          : 502:         LATAbits.LATA7 = 0;
  2880  0008CA  9E82               	bcf	130,7,c	;volatile
  2881  0008CC  00FF               	reset		;# 
  2882  0008CE                     l392:
  2883  0008CE  0012               	return		;funcret
  2884  0008D0                     __end_of_Check_Device_Reset:
  2885                           	callstack 0
  2886                           
  2887 ;; *************** function _Bootload_Required *****************
  2888 ;; Defined at:
  2889 ;;		line 155 in file "mcc_generated_files/pic18f_bootload.c"
  2890 ;; Parameters:    Size  Location     Type
  2891 ;;		None
  2892 ;; Auto vars:     Size  Location     Type
  2893 ;;  i               1    0[COMRAM] unsigned char 
  2894 ;; Return value:  Size  Location     Type
  2895 ;;                  1    wreg      _Bool 
  2896 ;; Registers used:
  2897 ;;		wreg, status,2, status,0
  2898 ;; Tracked objects:
  2899 ;;		On entry : 0/0
  2900 ;;		On exit  : 0/0
  2901 ;;		Unchanged: 0/0
  2902 ;; Data sizes:     COMRAM   BANK0   BANK1   BANK2   BANK3   BANK4   BANK5   BANK6   BANK7   BANK8   BANK9  BANK10  BANK1
      +1  BANK12  BANK14
  2903 ;;      Params:         0       0       0       0       0       0       0       0       0       0       0       0       
      +0       0       0
  2904 ;;      Locals:         1       0       0       0       0       0       0       0       0       0       0       0       
      +0       0       0
  2905 ;;      Temps:          0       0       0       0       0       0       0       0       0       0       0       0       
      +0       0       0
  2906 ;;      Totals:         1       0       0       0       0       0       0       0       0       0       0       0       
      +0       0       0
  2907 ;;Total ram usage:        1 bytes
  2908 ;; Hardware stack levels used: 1
  2909 ;; This function calls:
  2910 ;;		Nothing
  2911 ;; This function is called by:
  2912 ;;		_BOOTLOADER_Initialize
  2913 ;; This function uses a non-reentrant model
  2914 ;;
  2915                           
  2916                           	psect	text24
  2917  0006FE                     __ptext24:
  2918                           	callstack 0
  2919  0006FE                     _Bootload_Required:
  2920                           	callstack 28
  2921  0006FE                     
  2922                           ;mcc_generated_files/pic18f_bootload.c: 161:     for (uint8_t i = 0; i != 0xFF; i++) __n
      +                          op();
  2923  0006FE  0E00               	movlw	0
  2924  000700  6E02               	movwf	Bootload_Required@i^0,c
  2925  000702                     l325:
  2926  000702  F000               	nop	
  2927  000704  2A02               	incf	Bootload_Required@i^0,f,c
  2928  000706  2802               	incf	Bootload_Required@i^0,w,c
  2929  000708  A4D8               	btfss	status,2,c
  2930  00070A  EF89  F003         	goto	u261
  2931  00070E  EF8B  F003         	goto	u260
  2932  000712                     u261:
  2933  000712  EF81  F003         	goto	l325
  2934  000716                     u260:
  2935  000716                     
  2936                           ;mcc_generated_files/pic18f_bootload.c: 163:     if (PORTBbits.RB4 == 0)
  2937  000716  B88D               	btfsc	141,4,c	;volatile
  2938  000718  EF90  F003         	goto	u271
  2939  00071C  EF92  F003         	goto	u270
  2940  000720                     u271:
  2941  000720  EF95  F003         	goto	l1432
  2942  000724                     u270:
  2943  000724                     l1428:
  2944                           
  2945                           ;mcc_generated_files/pic18f_bootload.c: 164:     {;mcc_generated_files/pic18f_bootload.c
      +                          : 165:         return (1);
  2946  000724  0E01               	movlw	1
  2947  000726  EFA9  F003         	goto	l328
  2948  00072A                     l1432:
  2949                           
  2950                           ;mcc_generated_files/pic18f_bootload.c: 173:     TBLPTR = 0xa00;
  2951  00072A  0E00               	movlw	0
  2952  00072C  6EF6               	movwf	246,c	;volatile
  2953  00072E  0E0A               	movlw	10
  2954  000730  6EF7               	movwf	247,c	;volatile
  2955  000732  0E00               	movlw	0
  2956  000734  6EF8               	movwf	248,c	;volatile
  2957                           
  2958                           ;mcc_generated_files/pic18f_bootload.c: 177:     NVMCON1 = 0x80;
  2959  000736  0E80               	movlw	128
  2960  000738  6E80               	movwf	128,c	;volsfr
  2961  00073A  0009               	tblrd		*+	;# 
  2962  00073C                     
  2963                           ;mcc_generated_files/pic18f_bootload.c: 179:     if (TABLAT == 0xFF)
  2964  00073C  28F5               	incf	245,w,c	;volatile
  2965  00073E  A4D8               	btfss	status,2,c
  2966  000740  EFA4  F003         	goto	u281
  2967  000744  EFA6  F003         	goto	u280
  2968  000748                     u281:
  2969  000748  EFA8  F003         	goto	l1440
  2970  00074C                     u280:
  2971  00074C  EF92  F003         	goto	l1428
  2972  000750                     l1440:
  2973                           
  2974                           ;mcc_generated_files/pic18f_bootload.c: 183:  return (0);
  2975  000750  0E00               	movlw	0
  2976  000752                     l328:
  2977  000752  0012               	return		;funcret
  2978  000754                     __end_of_Bootload_Required:
  2979                           	callstack 0
  2980  0000                     
  2981                           	psect	rparam
  2982  0000                     
  2983                           	psect	idloc
  2984                           
  2985                           ;Config register IDLOC0 @ 0x200000
  2986                           ;	unspecified, using default values
  2987  200000                     	org	2097152
  2988  200000  FFFF               	dw	65535
  2989                           
  2990                           ;Config register IDLOC1 @ 0x200002
  2991                           ;	unspecified, using default values
  2992  200002                     	org	2097154
  2993  200002  FFFF               	dw	65535
  2994                           
  2995                           ;Config register IDLOC2 @ 0x200004
  2996                           ;	unspecified, using default values
  2997  200004                     	org	2097156
  2998  200004  FFFF               	dw	65535
  2999                           
  3000                           ;Config register IDLOC3 @ 0x200006
  3001                           ;	unspecified, using default values
  3002  200006                     	org	2097158
  3003  200006  FFFF               	dw	65535
  3004                           
  3005                           ;Config register IDLOC4 @ 0x200008
  3006                           ;	unspecified, using default values
  3007  200008                     	org	2097160
  3008  200008  FFFF               	dw	65535
  3009                           
  3010                           ;Config register IDLOC5 @ 0x20000A
  3011                           ;	unspecified, using default values
  3012  20000A                     	org	2097162
  3013  20000A  FFFF               	dw	65535
  3014                           
  3015                           ;Config register IDLOC6 @ 0x20000C
  3016                           ;	unspecified, using default values
  3017  20000C                     	org	2097164
  3018  20000C  FFFF               	dw	65535
  3019                           
  3020                           ;Config register IDLOC7 @ 0x20000E
  3021                           ;	unspecified, using default values
  3022  20000E                     	org	2097166
  3023  20000E  FFFF               	dw	65535
  3024                           
  3025                           ;Config register IDLOC8 @ 0x200010
  3026                           ;	unspecified, using default values
  3027  200010                     	org	2097168
  3028  200010  FFFF               	dw	65535
  3029                           
  3030                           ;Config register IDLOC9 @ 0x200012
  3031                           ;	unspecified, using default values
  3032  200012                     	org	2097170
  3033  200012  FFFF               	dw	65535
  3034                           
  3035                           ;Config register IDLOC10 @ 0x200014
  3036                           ;	unspecified, using default values
  3037  200014                     	org	2097172
  3038  200014  FFFF               	dw	65535
  3039                           
  3040                           ;Config register IDLOC11 @ 0x200016
  3041                           ;	unspecified, using default values
  3042  200016                     	org	2097174
  3043  200016  FFFF               	dw	65535
  3044                           
  3045                           ;Config register IDLOC12 @ 0x200018
  3046                           ;	unspecified, using default values
  3047  200018                     	org	2097176
  3048  200018  FFFF               	dw	65535
  3049                           
  3050                           ;Config register IDLOC13 @ 0x20001A
  3051                           ;	unspecified, using default values
  3052  20001A                     	org	2097178
  3053  20001A  FFFF               	dw	65535
  3054                           
  3055                           ;Config register IDLOC14 @ 0x20001C
  3056                           ;	unspecified, using default values
  3057  20001C                     	org	2097180
  3058  20001C  FFFF               	dw	65535
  3059                           
  3060                           ;Config register IDLOC15 @ 0x20001E
  3061                           ;	unspecified, using default values
  3062  20001E                     	org	2097182
  3063  20001E  FFFF               	dw	65535
  3064                           
  3065                           ;Config register IDLOC16 @ 0x200020
  3066                           ;	unspecified, using default values
  3067  200020                     	org	2097184
  3068  200020  FFFF               	dw	65535
  3069                           
  3070                           ;Config register IDLOC17 @ 0x200022
  3071                           ;	unspecified, using default values
  3072  200022                     	org	2097186
  3073  200022  FFFF               	dw	65535
  3074                           
  3075                           ;Config register IDLOC18 @ 0x200024
  3076                           ;	unspecified, using default values
  3077  200024                     	org	2097188
  3078  200024  FFFF               	dw	65535
  3079                           
  3080                           ;Config register IDLOC19 @ 0x200026
  3081                           ;	unspecified, using default values
  3082  200026                     	org	2097190
  3083  200026  FFFF               	dw	65535
  3084                           
  3085                           ;Config register IDLOC20 @ 0x200028
  3086                           ;	unspecified, using default values
  3087  200028                     	org	2097192
  3088  200028  FFFF               	dw	65535
  3089                           
  3090                           ;Config register IDLOC21 @ 0x20002A
  3091                           ;	unspecified, using default values
  3092  20002A                     	org	2097194
  3093  20002A  FFFF               	dw	65535
  3094                           
  3095                           ;Config register IDLOC22 @ 0x20002C
  3096                           ;	unspecified, using default values
  3097  20002C                     	org	2097196
  3098  20002C  FFFF               	dw	65535
  3099                           
  3100                           ;Config register IDLOC23 @ 0x20002E
  3101                           ;	unspecified, using default values
  3102  20002E                     	org	2097198
  3103  20002E  FFFF               	dw	65535
  3104                           
  3105                           ;Config register IDLOC24 @ 0x200030
  3106                           ;	unspecified, using default values
  3107  200030                     	org	2097200
  3108  200030  FFFF               	dw	65535
  3109                           
  3110                           ;Config register IDLOC25 @ 0x200032
  3111                           ;	unspecified, using default values
  3112  200032                     	org	2097202
  3113  200032  FFFF               	dw	65535
  3114                           
  3115                           ;Config register IDLOC26 @ 0x200034
  3116                           ;	unspecified, using default values
  3117  200034                     	org	2097204
  3118  200034  FFFF               	dw	65535
  3119                           
  3120                           ;Config register IDLOC27 @ 0x200036
  3121                           ;	unspecified, using default values
  3122  200036                     	org	2097206
  3123  200036  FFFF               	dw	65535
  3124                           
  3125                           ;Config register IDLOC28 @ 0x200038
  3126                           ;	unspecified, using default values
  3127  200038                     	org	2097208
  3128  200038  FFFF               	dw	65535
  3129                           
  3130                           ;Config register IDLOC29 @ 0x20003A
  3131                           ;	unspecified, using default values
  3132  20003A                     	org	2097210
  3133  20003A  FFFF               	dw	65535
  3134                           
  3135                           ;Config register IDLOC30 @ 0x20003C
  3136                           ;	unspecified, using default values
  3137  20003C                     	org	2097212
  3138  20003C  FFFF               	dw	65535
  3139                           
  3140                           ;Config register IDLOC31 @ 0x20003E
  3141                           ;	unspecified, using default values
  3142  20003E                     	org	2097214
  3143  20003E  FFFF               	dw	65535
  3144                           
  3145                           ;Config register IDLOC32 @ 0x200040
  3146                           ;	unspecified, using default values
  3147  200040                     	org	2097216
  3148  200040  FFFF               	dw	65535
  3149                           
  3150                           ;Config register IDLOC33 @ 0x200042
  3151                           ;	unspecified, using default values
  3152  200042                     	org	2097218
  3153  200042  FFFF               	dw	65535
  3154                           
  3155                           ;Config register IDLOC34 @ 0x200044
  3156                           ;	unspecified, using default values
  3157  200044                     	org	2097220
  3158  200044  FFFF               	dw	65535
  3159                           
  3160                           ;Config register IDLOC35 @ 0x200046
  3161                           ;	unspecified, using default values
  3162  200046                     	org	2097222
  3163  200046  FFFF               	dw	65535
  3164                           
  3165                           ;Config register IDLOC36 @ 0x200048
  3166                           ;	unspecified, using default values
  3167  200048                     	org	2097224
  3168  200048  FFFF               	dw	65535
  3169                           
  3170                           ;Config register IDLOC37 @ 0x20004A
  3171                           ;	unspecified, using default values
  3172  20004A                     	org	2097226
  3173  20004A  FFFF               	dw	65535
  3174                           
  3175                           ;Config register IDLOC38 @ 0x20004C
  3176                           ;	unspecified, using default values
  3177  20004C                     	org	2097228
  3178  20004C  FFFF               	dw	65535
  3179                           
  3180                           ;Config register IDLOC39 @ 0x20004E
  3181                           ;	unspecified, using default values
  3182  20004E                     	org	2097230
  3183  20004E  FFFF               	dw	65535
  3184                           
  3185                           ;Config register IDLOC40 @ 0x200050
  3186                           ;	unspecified, using default values
  3187  200050                     	org	2097232
  3188  200050  FFFF               	dw	65535
  3189                           
  3190                           ;Config register IDLOC41 @ 0x200052
  3191                           ;	unspecified, using default values
  3192  200052                     	org	2097234
  3193  200052  FFFF               	dw	65535
  3194                           
  3195                           ;Config register IDLOC42 @ 0x200054
  3196                           ;	unspecified, using default values
  3197  200054                     	org	2097236
  3198  200054  FFFF               	dw	65535
  3199                           
  3200                           ;Config register IDLOC43 @ 0x200056
  3201                           ;	unspecified, using default values
  3202  200056                     	org	2097238
  3203  200056  FFFF               	dw	65535
  3204                           
  3205                           ;Config register IDLOC44 @ 0x200058
  3206                           ;	unspecified, using default values
  3207  200058                     	org	2097240
  3208  200058  FFFF               	dw	65535
  3209                           
  3210                           ;Config register IDLOC45 @ 0x20005A
  3211                           ;	unspecified, using default values
  3212  20005A                     	org	2097242
  3213  20005A  FFFF               	dw	65535
  3214                           
  3215                           ;Config register IDLOC46 @ 0x20005C
  3216                           ;	unspecified, using default values
  3217  20005C                     	org	2097244
  3218  20005C  FFFF               	dw	65535
  3219                           
  3220                           ;Config register IDLOC47 @ 0x20005E
  3221                           ;	unspecified, using default values
  3222  20005E                     	org	2097246
  3223  20005E  FFFF               	dw	65535
  3224                           
  3225                           ;Config register IDLOC48 @ 0x200060
  3226                           ;	unspecified, using default values
  3227  200060                     	org	2097248
  3228  200060  FFFF               	dw	65535
  3229                           
  3230                           ;Config register IDLOC49 @ 0x200062
  3231                           ;	unspecified, using default values
  3232  200062                     	org	2097250
  3233  200062  FFFF               	dw	65535
  3234                           
  3235                           ;Config register IDLOC50 @ 0x200064
  3236                           ;	unspecified, using default values
  3237  200064                     	org	2097252
  3238  200064  FFFF               	dw	65535
  3239                           
  3240                           ;Config register IDLOC51 @ 0x200066
  3241                           ;	unspecified, using default values
  3242  200066                     	org	2097254
  3243  200066  FFFF               	dw	65535
  3244                           
  3245                           ;Config register IDLOC52 @ 0x200068
  3246                           ;	unspecified, using default values
  3247  200068                     	org	2097256
  3248  200068  FFFF               	dw	65535
  3249                           
  3250                           ;Config register IDLOC53 @ 0x20006A
  3251                           ;	unspecified, using default values
  3252  20006A                     	org	2097258
  3253  20006A  FFFF               	dw	65535
  3254                           
  3255                           ;Config register IDLOC54 @ 0x20006C
  3256                           ;	unspecified, using default values
  3257  20006C                     	org	2097260
  3258  20006C  FFFF               	dw	65535
  3259                           
  3260                           ;Config register IDLOC55 @ 0x20006E
  3261                           ;	unspecified, using default values
  3262  20006E                     	org	2097262
  3263  20006E  FFFF               	dw	65535
  3264                           
  3265                           ;Config register IDLOC56 @ 0x200070
  3266                           ;	unspecified, using default values
  3267  200070                     	org	2097264
  3268  200070  FFFF               	dw	65535
  3269                           
  3270                           ;Config register IDLOC57 @ 0x200072
  3271                           ;	unspecified, using default values
  3272  200072                     	org	2097266
  3273  200072  FFFF               	dw	65535
  3274                           
  3275                           ;Config register IDLOC58 @ 0x200074
  3276                           ;	unspecified, using default values
  3277  200074                     	org	2097268
  3278  200074  FFFF               	dw	65535
  3279                           
  3280                           ;Config register IDLOC59 @ 0x200076
  3281                           ;	unspecified, using default values
  3282  200076                     	org	2097270
  3283  200076  FFFF               	dw	65535
  3284                           
  3285                           ;Config register IDLOC60 @ 0x200078
  3286                           ;	unspecified, using default values
  3287  200078                     	org	2097272
  3288  200078  FFFF               	dw	65535
  3289                           
  3290                           ;Config register IDLOC61 @ 0x20007A
  3291                           ;	unspecified, using default values
  3292  20007A                     	org	2097274
  3293  20007A  FFFF               	dw	65535
  3294                           
  3295                           ;Config register IDLOC62 @ 0x20007C
  3296                           ;	unspecified, using default values
  3297  20007C                     	org	2097276
  3298  20007C  FFFF               	dw	65535
  3299                           
  3300                           ;Config register IDLOC63 @ 0x20007E
  3301                           ;	unspecified, using default values
  3302  20007E                     	org	2097278
  3303  20007E  FFFF               	dw	65535
  3304                           
  3305                           ;Config register IDLOC64 @ 0x200080
  3306                           ;	unspecified, using default values
  3307  200080                     	org	2097280
  3308  200080  FFFF               	dw	65535
  3309                           
  3310                           ;Config register IDLOC65 @ 0x200082
  3311                           ;	unspecified, using default values
  3312  200082                     	org	2097282
  3313  200082  FFFF               	dw	65535
  3314                           
  3315                           ;Config register IDLOC66 @ 0x200084
  3316                           ;	unspecified, using default values
  3317  200084                     	org	2097284
  3318  200084  FFFF               	dw	65535
  3319                           
  3320                           ;Config register IDLOC67 @ 0x200086
  3321                           ;	unspecified, using default values
  3322  200086                     	org	2097286
  3323  200086  FFFF               	dw	65535
  3324                           
  3325                           ;Config register IDLOC68 @ 0x200088
  3326                           ;	unspecified, using default values
  3327  200088                     	org	2097288
  3328  200088  FFFF               	dw	65535
  3329                           
  3330                           ;Config register IDLOC69 @ 0x20008A
  3331                           ;	unspecified, using default values
  3332  20008A                     	org	2097290
  3333  20008A  FFFF               	dw	65535
  3334                           
  3335                           ;Config register IDLOC70 @ 0x20008C
  3336                           ;	unspecified, using default values
  3337  20008C                     	org	2097292
  3338  20008C  FFFF               	dw	65535
  3339                           
  3340                           ;Config register IDLOC71 @ 0x20008E
  3341                           ;	unspecified, using default values
  3342  20008E                     	org	2097294
  3343  20008E  FFFF               	dw	65535
  3344                           
  3345                           ;Config register IDLOC72 @ 0x200090
  3346                           ;	unspecified, using default values
  3347  200090                     	org	2097296
  3348  200090  FFFF               	dw	65535
  3349                           
  3350                           ;Config register IDLOC73 @ 0x200092
  3351                           ;	unspecified, using default values
  3352  200092                     	org	2097298
  3353  200092  FFFF               	dw	65535
  3354                           
  3355                           ;Config register IDLOC74 @ 0x200094
  3356                           ;	unspecified, using default values
  3357  200094                     	org	2097300
  3358  200094  FFFF               	dw	65535
  3359                           
  3360                           ;Config register IDLOC75 @ 0x200096
  3361                           ;	unspecified, using default values
  3362  200096                     	org	2097302
  3363  200096  FFFF               	dw	65535
  3364                           
  3365                           ;Config register IDLOC76 @ 0x200098
  3366                           ;	unspecified, using default values
  3367  200098                     	org	2097304
  3368  200098  FFFF               	dw	65535
  3369                           
  3370                           ;Config register IDLOC77 @ 0x20009A
  3371                           ;	unspecified, using default values
  3372  20009A                     	org	2097306
  3373  20009A  FFFF               	dw	65535
  3374                           
  3375                           ;Config register IDLOC78 @ 0x20009C
  3376                           ;	unspecified, using default values
  3377  20009C                     	org	2097308
  3378  20009C  FFFF               	dw	65535
  3379                           
  3380                           ;Config register IDLOC79 @ 0x20009E
  3381                           ;	unspecified, using default values
  3382  20009E                     	org	2097310
  3383  20009E  FFFF               	dw	65535
  3384                           
  3385                           ;Config register IDLOC80 @ 0x2000A0
  3386                           ;	unspecified, using default values
  3387  2000A0                     	org	2097312
  3388  2000A0  FFFF               	dw	65535
  3389                           
  3390                           ;Config register IDLOC81 @ 0x2000A2
  3391                           ;	unspecified, using default values
  3392  2000A2                     	org	2097314
  3393  2000A2  FFFF               	dw	65535
  3394                           
  3395                           ;Config register IDLOC82 @ 0x2000A4
  3396                           ;	unspecified, using default values
  3397  2000A4                     	org	2097316
  3398  2000A4  FFFF               	dw	65535
  3399                           
  3400                           ;Config register IDLOC83 @ 0x2000A6
  3401                           ;	unspecified, using default values
  3402  2000A6                     	org	2097318
  3403  2000A6  FFFF               	dw	65535
  3404                           
  3405                           ;Config register IDLOC84 @ 0x2000A8
  3406                           ;	unspecified, using default values
  3407  2000A8                     	org	2097320
  3408  2000A8  FFFF               	dw	65535
  3409                           
  3410                           ;Config register IDLOC85 @ 0x2000AA
  3411                           ;	unspecified, using default values
  3412  2000AA                     	org	2097322
  3413  2000AA  FFFF               	dw	65535
  3414                           
  3415                           ;Config register IDLOC86 @ 0x2000AC
  3416                           ;	unspecified, using default values
  3417  2000AC                     	org	2097324
  3418  2000AC  FFFF               	dw	65535
  3419                           
  3420                           ;Config register IDLOC87 @ 0x2000AE
  3421                           ;	unspecified, using default values
  3422  2000AE                     	org	2097326
  3423  2000AE  FFFF               	dw	65535
  3424                           
  3425                           ;Config register IDLOC88 @ 0x2000B0
  3426                           ;	unspecified, using default values
  3427  2000B0                     	org	2097328
  3428  2000B0  FFFF               	dw	65535
  3429                           
  3430                           ;Config register IDLOC89 @ 0x2000B2
  3431                           ;	unspecified, using default values
  3432  2000B2                     	org	2097330
  3433  2000B2  FFFF               	dw	65535
  3434                           
  3435                           ;Config register IDLOC90 @ 0x2000B4
  3436                           ;	unspecified, using default values
  3437  2000B4                     	org	2097332
  3438  2000B4  FFFF               	dw	65535
  3439                           
  3440                           ;Config register IDLOC91 @ 0x2000B6
  3441                           ;	unspecified, using default values
  3442  2000B6                     	org	2097334
  3443  2000B6  FFFF               	dw	65535
  3444                           
  3445                           ;Config register IDLOC92 @ 0x2000B8
  3446                           ;	unspecified, using default values
  3447  2000B8                     	org	2097336
  3448  2000B8  FFFF               	dw	65535
  3449                           
  3450                           ;Config register IDLOC93 @ 0x2000BA
  3451                           ;	unspecified, using default values
  3452  2000BA                     	org	2097338
  3453  2000BA  FFFF               	dw	65535
  3454                           
  3455                           ;Config register IDLOC94 @ 0x2000BC
  3456                           ;	unspecified, using default values
  3457  2000BC                     	org	2097340
  3458  2000BC  FFFF               	dw	65535
  3459                           
  3460                           ;Config register IDLOC95 @ 0x2000BE
  3461                           ;	unspecified, using default values
  3462  2000BE                     	org	2097342
  3463  2000BE  FFFF               	dw	65535
